{
    "contractName": "PriceOracle",
    "abi": [
        {
            "anonymous": false,
            "inputs": [
                {
                    "indexed": false,
                    "internalType": "uint8",
                    "name": "version",
                    "type": "uint8"
                }
            ],
            "name": "Initialized",
            "type": "event"
        },
        {
            "anonymous": false,
            "inputs": [],
            "name": "LogCage",
            "type": "event"
        },
        {
            "anonymous": false,
            "inputs": [
                {
                    "indexed": false,
                    "internalType": "bytes32",
                    "name": "_poolId",
                    "type": "bytes32"
                },
                {
                    "indexed": false,
                    "internalType": "bytes32",
                    "name": "_rawPrice",
                    "type": "bytes32"
                },
                {
                    "indexed": false,
                    "internalType": "uint256",
                    "name": "_priceWithSafetyMargin",
                    "type": "uint256"
                },
                {
                    "indexed": false,
                    "internalType": "uint256",
                    "name": "_rawPriceUint",
                    "type": "uint256"
                }
            ],
            "name": "LogSetPrice",
            "type": "event"
        },
        {
            "anonymous": false,
            "inputs": [
                {
                    "indexed": true,
                    "internalType": "address",
                    "name": "_caller",
                    "type": "address"
                },
                {
                    "indexed": false,
                    "internalType": "uint256",
                    "name": "_data",
                    "type": "uint256"
                }
            ],
            "name": "LogSetStableCoinReferencePrice",
            "type": "event"
        },
        {
            "anonymous": false,
            "inputs": [],
            "name": "LogUncage",
            "type": "event"
        },
        {
            "anonymous": false,
            "inputs": [
                {
                    "indexed": false,
                    "internalType": "address",
                    "name": "account",
                    "type": "address"
                }
            ],
            "name": "Paused",
            "type": "event"
        },
        {
            "anonymous": false,
            "inputs": [
                {
                    "indexed": false,
                    "internalType": "address",
                    "name": "account",
                    "type": "address"
                }
            ],
            "name": "Unpaused",
            "type": "event"
        },
        {
            "inputs": [],
            "name": "bookKeeper",
            "outputs": [
                {
                    "internalType": "contract IBookKeeper",
                    "name": "",
                    "type": "address"
                }
            ],
            "stateMutability": "view",
            "type": "function"
        },
        {
            "inputs": [],
            "name": "live",
            "outputs": [
                {
                    "internalType": "uint256",
                    "name": "",
                    "type": "uint256"
                }
            ],
            "stateMutability": "view",
            "type": "function"
        },
        {
            "inputs": [],
            "name": "paused",
            "outputs": [
                {
                    "internalType": "bool",
                    "name": "",
                    "type": "bool"
                }
            ],
            "stateMutability": "view",
            "type": "function"
        },
        {
            "inputs": [],
            "name": "stableCoinReferencePrice",
            "outputs": [
                {
                    "internalType": "uint256",
                    "name": "",
                    "type": "uint256"
                }
            ],
            "stateMutability": "view",
            "type": "function"
        },
        {
            "inputs": [
                {
                    "internalType": "address",
                    "name": "_bookKeeper",
                    "type": "address"
                }
            ],
            "name": "initialize",
            "outputs": [],
            "stateMutability": "nonpayable",
            "type": "function"
        },
        {
            "inputs": [
                {
                    "internalType": "uint256",
                    "name": "_data",
                    "type": "uint256"
                }
            ],
            "name": "setStableCoinReferencePrice",
            "outputs": [],
            "stateMutability": "nonpayable",
            "type": "function"
        },
        {
            "inputs": [
                {
                    "internalType": "bytes32",
                    "name": "_collateralPoolId",
                    "type": "bytes32"
                }
            ],
            "name": "setPrice",
            "outputs": [],
            "stateMutability": "nonpayable",
            "type": "function"
        },
        {
            "inputs": [],
            "name": "cage",
            "outputs": [],
            "stateMutability": "nonpayable",
            "type": "function"
        },
        {
            "inputs": [],
            "name": "uncage",
            "outputs": [],
            "stateMutability": "nonpayable",
            "type": "function"
        },
        {
            "inputs": [],
            "name": "pause",
            "outputs": [],
            "stateMutability": "nonpayable",
            "type": "function"
        },
        {
            "inputs": [],
            "name": "unpause",
            "outputs": [],
            "stateMutability": "nonpayable",
            "type": "function"
        }
    ],
    "bytecode": "0x608060405234801561001057600080fd5b5061186b806100206000396000f3fe608060405234801561001057600080fd5b50600436106100a95760003560e01c80638456cb59116100715780638456cb5914610101578063957aa58c146101095780639d1eea7814610120578063c4d66de814610129578063d63b23b21461013c578063e3b3932a1461014457600080fd5b8063038a2f0d146100ae578063285da53b146100c35780633f4ba83a146100d65780635c975abb146100de57806369245009146100f9575b600080fd5b6100c16100bc3660046115bf565b61016f565b005b6100c16100d13660046115bf565b61037b565b6100c161071c565b60335460ff1660405190151581526020015b60405180910390f35b6100c1610991565b6100c1610c7b565b61011260995481565b6040519081526020016100f0565b61011260985481565b6100c16101373660046115ed565b610eed565b6100c161109a565b609754610157906001600160a01b031681565b6040516001600160a01b0390911681526020016100f0565b6097546040805163c8cc243f60e01b815290516000926001600160a01b03169163c8cc243f9160048083019260209291908290030181865afa1580156101b9573d6000803e3d6000fd5b505050506040513d601f19601f820116820180604052508101906101dd919061161a565b9050806001600160a01b03166391d14854826001600160a01b031663e58378bb6040518163ffffffff1660e01b8152600401602060405180830381865afa15801561022c573d6000803e3d6000fd5b505050506040513d601f19601f820116820180604052508101906102509190611637565b6040516001600160e01b031960e084901b1681526004810191909152336024820152604401602060405180830381865afa158015610292573d6000803e3d6000fd5b505050506040513d601f19601f820116820180604052508101906102b69190611660565b6102f45760405162461bcd60e51b815260206004820152600a602482015269216f776e6572526f6c6560b01b60448201526064015b60405180910390fd5b60995460011461033d5760405162461bcd60e51b815260206004820152601460248201527350726963654f7261636c652f6e6f742d6c69766560601b60448201526064016102eb565b609882905560405182815233907f981464cdb0035497ee4816c35dc8771b2d26e321e79163de2b51ee8b6d51df139060200160405180910390a25050565b610383611383565b6097546040805163d868246160e01b815290516000926001600160a01b03169163d86824619160048083019260209291908290030181865afa1580156103cd573d6000803e3d6000fd5b505050506040513d601f19601f820116820180604052508101906103f1919061161a565b6001600160a01b031663d97a3649836040518263ffffffff1660e01b815260040161041e91815260200190565b6101c060405180830381865afa15801561043c573d6000803e3d6000fd5b505050506040513d601f19601f8201168201806040525081019061046091906116b3565b60a0015190506000609760009054906101000a90046001600160a01b03166001600160a01b031663d86824616040518163ffffffff1660e01b8152600401602060405180830381865afa1580156104bb573d6000803e3d6000fd5b505050506040513d601f19601f820116820180604052508101906104df919061161a565b6001600160a01b03166344d0c937846040518263ffffffff1660e01b815260040161050c91815260200190565b602060405180830381865afa158015610529573d6000803e3d6000fd5b505050506040513d601f19601f8201168201806040525081019061054d9190611637565b9050600080836001600160a01b031663140d27206040518163ffffffff1660e01b815260040160408051808303816000875af1158015610591573d6000803e3d6000fd5b505050506040513d601f19601f820116820180604052508101906105b59190611777565b915091506000816105c75760006105e9565b6105e96105e36105db85633b9aca006113cb565b6098546113fe565b856113fe565b90506000609760009054906101000a90046001600160a01b03166001600160a01b031663d86824616040518163ffffffff1660e01b8152600401602060405180830381865afa158015610640573d6000803e3d6000fd5b505050506040513d601f19601f82011682018060405250810190610664919061161a565b604051635f3e4f9960e11b815260048101899052602481018490529091506001600160a01b0382169063be7c9f3290604401600060405180830381600087803b1580156106b057600080fd5b505af11580156106c4573d6000803e3d6000fd5b5050604080518a815260208101889052908101859052606081018790528692507fd13c000939826ab5a452ab5236ed4da41167b2c3c449cf2d24428529571aaa23915060800160405180910390a15050505050505050565b6097546040805163c8cc243f60e01b815290516000926001600160a01b03169163c8cc243f9160048083019260209291908290030181865afa158015610766573d6000803e3d6000fd5b505050506040513d601f19601f8201168201806040525081019061078a919061161a565b9050806001600160a01b03166391d14854826001600160a01b031663e58378bb6040518163ffffffff1660e01b8152600401602060405180830381865afa1580156107d9573d6000803e3d6000fd5b505050506040513d601f19601f820116820180604052508101906107fd9190611637565b6040516001600160e01b031960e084901b1681526004810191909152336024820152604401602060405180830381865afa15801561083f573d6000803e3d6000fd5b505050506040513d601f19601f820116820180604052508101906108639190611660565b806109405750806001600160a01b03166391d14854826001600160a01b031663b536818a6040518163ffffffff1660e01b8152600401602060405180830381865afa1580156108b6573d6000803e3d6000fd5b505050506040513d601f19601f820116820180604052508101906108da9190611637565b6040516001600160e01b031960e084901b1681526004810191909152336024820152604401602060405180830381865afa15801561091c573d6000803e3d6000fd5b505050506040513d601f19601f820116820180604052508101906109409190611660565b6109865760405162461bcd60e51b815260206004820152601760248201527621286f776e6572526f6c65206f7220676f76526f6c652960481b60448201526064016102eb565b61098e611428565b50565b6097546040805163c8cc243f60e01b815290516000926001600160a01b03169163c8cc243f9160048083019260209291908290030181865afa1580156109db573d6000803e3d6000fd5b505050506040513d601f19601f820116820180604052508101906109ff919061161a565b9050806001600160a01b03166391d14854826001600160a01b031663e58378bb6040518163ffffffff1660e01b8152600401602060405180830381865afa158015610a4e573d6000803e3d6000fd5b505050506040513d601f19601f82011682018060405250810190610a729190611637565b6040516001600160e01b031960e084901b1681526004810191909152336024820152604401602060405180830381865afa158015610ab4573d6000803e3d6000fd5b505050506040513d601f19601f82011682018060405250810190610ad89190611660565b80610bb55750806001600160a01b03166391d14854826001600160a01b031663d7a47a696040518163ffffffff1660e01b8152600401602060405180830381865afa158015610b2b573d6000803e3d6000fd5b505050506040513d601f19601f82011682018060405250810190610b4f9190611637565b6040516001600160e01b031960e084901b1681526004810191909152336024820152604401602060405180830381865afa158015610b91573d6000803e3d6000fd5b505050506040513d601f19601f82011682018060405250810190610bb59190611660565b610c015760405162461bcd60e51b815260206004820152601f60248201527f21286f776e6572526f6c65206f722073686f7753746f70706572526f6c65290060448201526064016102eb565b609954600114610c4a5760405162461bcd60e51b815260206004820152601460248201527350726963654f7261636c652f6e6f742d6c69766560601b60448201526064016102eb565b600060998190556040517fbf689b4aae670d200b1d2b971ace2e0c3bef88a9c5e93f36705c7b86eab630b99190a150565b6097546040805163c8cc243f60e01b815290516000926001600160a01b03169163c8cc243f9160048083019260209291908290030181865afa158015610cc5573d6000803e3d6000fd5b505050506040513d601f19601f82011682018060405250810190610ce9919061161a565b9050806001600160a01b03166391d14854826001600160a01b031663e58378bb6040518163ffffffff1660e01b8152600401602060405180830381865afa158015610d38573d6000803e3d6000fd5b505050506040513d601f19601f82011682018060405250810190610d5c9190611637565b6040516001600160e01b031960e084901b1681526004810191909152336024820152604401602060405180830381865afa158015610d9e573d6000803e3d6000fd5b505050506040513d601f19601f82011682018060405250810190610dc29190611660565b80610e9f5750806001600160a01b03166391d14854826001600160a01b031663b536818a6040518163ffffffff1660e01b8152600401602060405180830381865afa158015610e15573d6000803e3d6000fd5b505050506040513d601f19601f82011682018060405250810190610e399190611637565b6040516001600160e01b031960e084901b1681526004810191909152336024820152604401602060405180830381865afa158015610e7b573d6000803e3d6000fd5b505050506040513d601f19601f82011682018060405250810190610e9f9190611660565b610ee55760405162461bcd60e51b815260206004820152601760248201527621286f776e6572526f6c65206f7220676f76526f6c652960481b60448201526064016102eb565b61098e61147a565b600054610100900460ff1615808015610f0d5750600054600160ff909116105b80610f275750303b158015610f27575060005460ff166001145b610f8a5760405162461bcd60e51b815260206004820152602e60248201527f496e697469616c697a61626c653a20636f6e747261637420697320616c72656160448201526d191e481a5b9a5d1a585b1a5e995960921b60648201526084016102eb565b6000805460ff191660011790558015610fad576000805461ff0019166101001790555b610fb56114b7565b610fbd6114e6565b816001600160a01b031663d86824616040518163ffffffff1660e01b8152600401602060405180830381865afa158015610ffb573d6000803e3d6000fd5b505050506040513d601f19601f8201168201806040525081019061101f919061161a565b50609780546001600160a01b0319166001600160a01b0384161790556b033b2e3c9fd0803ce800000060985560016099558015611096576000805461ff0019169055604051600181527f7f26b83ff96e1f2b6a682f133852f6798a09c465da95921460cefb38474024989060200160405180910390a15b5050565b6097546040805163c8cc243f60e01b815290516000926001600160a01b03169163c8cc243f9160048083019260209291908290030181865afa1580156110e4573d6000803e3d6000fd5b505050506040513d601f19601f82011682018060405250810190611108919061161a565b9050806001600160a01b03166391d14854826001600160a01b031663e58378bb6040518163ffffffff1660e01b8152600401602060405180830381865afa158015611157573d6000803e3d6000fd5b505050506040513d601f19601f8201168201806040525081019061117b9190611637565b6040516001600160e01b031960e084901b1681526004810191909152336024820152604401602060405180830381865afa1580156111bd573d6000803e3d6000fd5b505050506040513d601f19601f820116820180604052508101906111e19190611660565b806112be5750806001600160a01b03166391d14854826001600160a01b031663d7a47a696040518163ffffffff1660e01b8152600401602060405180830381865afa158015611234573d6000803e3d6000fd5b505050506040513d601f19601f820116820180604052508101906112589190611637565b6040516001600160e01b031960e084901b1681526004810191909152336024820152604401602060405180830381865afa15801561129a573d6000803e3d6000fd5b505050506040513d601f19601f820116820180604052508101906112be9190611660565b61130a5760405162461bcd60e51b815260206004820152601f60248201527f21286f776e6572526f6c65206f722073686f7753746f70706572526f6c65290060448201526064016102eb565b609954156113525760405162461bcd60e51b8152602060048201526015602482015274141c9a58d953dc9858db194bdb9bdd0b58d859d959605a1b60448201526064016102eb565b60016099556040517f1868a6ced217213f36be87ba9aee25cde5381b42e85c8f88e73b18772c0bd07390600090a150565b60335460ff16156113c95760405162461bcd60e51b815260206004820152601060248201526f14185d5cd8589b194e881c185d5cd95960821b60448201526064016102eb565b565b60008115806113ef575082826113e181836117a3565b92506113ed90836117c8565b145b6113f857600080fd5b92915050565b600081611417846b033b2e3c9fd0803ce80000006113cb565b61142191906117c8565b9392505050565b611430611515565b6033805460ff191690557f5db9ee0a495bf2e6ff9c91a7834c1ba4fdd244a5e8aa4e537bd38aeae4b073aa335b6040516001600160a01b03909116815260200160405180910390a1565b611482611383565b6033805460ff191660011790557f62e78cea01bee320cd4e420270b5ea74000d11b0c9f74754ebdbfc544b05a25861145d3390565b600054610100900460ff166114de5760405162461bcd60e51b81526004016102eb906117ea565b6113c961155e565b600054610100900460ff1661150d5760405162461bcd60e51b81526004016102eb906117ea565b6113c9611591565b60335460ff166113c95760405162461bcd60e51b815260206004820152601460248201527314185d5cd8589b194e881b9bdd081c185d5cd95960621b60448201526064016102eb565b600054610100900460ff166115855760405162461bcd60e51b81526004016102eb906117ea565b6033805460ff19169055565b600054610100900460ff166115b85760405162461bcd60e51b81526004016102eb906117ea565b6001606555565b6000602082840312156115d157600080fd5b5035919050565b6001600160a01b038116811461098e57600080fd5b6000602082840312156115ff57600080fd5b8135611421816115d8565b8051611615816115d8565b919050565b60006020828403121561162c57600080fd5b8151611421816115d8565b60006020828403121561164957600080fd5b5051919050565b8051801515811461161557600080fd5b60006020828403121561167257600080fd5b61142182611650565b6040516101c0810167ffffffffffffffff811182821017156116ad57634e487b7160e01b600052604160045260246000fd5b60405290565b60006101c082840312156116c657600080fd5b6116ce61167b565b825181526020830151602082015260408301516040820152606083015160608201526080830151608082015261170660a0840161160a565b60a082015260c083015160c082015260e083015160e082015261010080840151818301525061012061173981850161160a565b908201526101408381015190820152610160808401519082015261018080840151908201526101a061176c81850161160a565b908201529392505050565b6000806040838503121561178a57600080fd5b8251915061179a60208401611650565b90509250929050565b80820281158282048414176113f857634e487b7160e01b600052601160045260246000fd5b6000826117e557634e487b7160e01b600052601260045260246000fd5b500490565b6020808252602b908201527f496e697469616c697a61626c653a20636f6e7472616374206973206e6f74206960408201526a6e697469616c697a696e6760a81b60608201526080019056fea2646970667358221220a47cdc3a7f014882d8fec2ff404ce7191d2199144e482b0a92f05bf384ecec0464736f6c63430008110033",
    "immutableReferences": {},
    "source": "// SPDX-License-Identifier: AGPL-3.0-or-later\n\npragma solidity 0.8.17;\npragma experimental ABIEncoderV2;\n\nimport \"@openzeppelin/contracts-upgradeable/security/PausableUpgradeable.sol\";\nimport \"@openzeppelin/contracts-upgradeable/access/AccessControlUpgradeable.sol\";\nimport \"@openzeppelin/contracts-upgradeable/security/ReentrancyGuardUpgradeable.sol\";\n\nimport \"../interfaces/IBookKeeper.sol\";\nimport \"../interfaces/IPriceFeed.sol\";\nimport \"../interfaces/IPriceOracle.sol\";\nimport \"../interfaces/ICagable.sol\";\nimport \"../interfaces/ICollateralPoolConfig.sol\";\n\n/// @title PriceOracle\n/** @notice A contract which is the price oracle of the BookKeeper to keep all collateral pools updated with the latest price of the collateral.\n    The price oracle is important in reflecting the current state of the market price.\n*/\n\ncontract PriceOracle is PausableUpgradeable, ReentrancyGuardUpgradeable, IPriceOracle, ICagable {\n  // --- Data ---\n  struct CollateralPool {\n    IPriceFeed priceFeed; // Price Feed\n    uint256 liquidationRatio; // Liquidation ratio or Collateral ratio [ray]\n  }\n\n  IBookKeeper public bookKeeper; // CDP Engine\n  uint256 public override stableCoinReferencePrice; // ref per FUSD [ray] :: value of stablecoin in the reference asset (e.g. $1 per Fathom USD)\n\n  uint256 public live;\n\n  // --- Events ---\n  event LogSetPrice(\n    bytes32 _poolId,\n    bytes32 _rawPrice, // Raw price from price feed [wad]\n    uint256 _priceWithSafetyMargin, // Price with safety margin [ray]\n    uint256 _rawPriceUint // Raw price from price feed in uint256\n  );\n\n  // --- Init ---\n  function initialize(address _bookKeeper) external initializer {\n    PausableUpgradeable.__Pausable_init();\n    ReentrancyGuardUpgradeable.__ReentrancyGuard_init();\n\n    IBookKeeper(_bookKeeper).collateralPoolConfig(); // Sanity check call\n    bookKeeper = IBookKeeper(_bookKeeper);\n    stableCoinReferencePrice = ONE;\n    live = 1;\n  }\n\n  // --- Math ---\n  uint256 constant ONE = 10**27;\n\n  function mul(uint256 _x, uint256 _y) internal pure returns (uint256 _z) {\n    require(_y == 0 || (_z = _x * _y) / _y == _x);\n  }\n\n  function rdiv(uint256 _x, uint256 _y) internal pure returns (uint256 _z) {\n    _z = mul(_x, ONE) / _y;\n  }\n\n  // --- Administration ---\n  event LogSetStableCoinReferencePrice(address indexed _caller, uint256 _data);\n\n  modifier onlyOwner() {\n    IAccessControlConfig _accessControlConfig = IAccessControlConfig(bookKeeper.accessControlConfig());\n    require(_accessControlConfig.hasRole(_accessControlConfig.OWNER_ROLE(), msg.sender), \"!ownerRole\");\n    _;\n  }\n\n  modifier onlyOwnerOrGov() {\n    IAccessControlConfig _accessControlConfig = IAccessControlConfig(IBookKeeper(bookKeeper).accessControlConfig());\n    require(\n      _accessControlConfig.hasRole(_accessControlConfig.OWNER_ROLE(), msg.sender) ||\n        _accessControlConfig.hasRole(_accessControlConfig.GOV_ROLE(), msg.sender),\n      \"!(ownerRole or govRole)\"\n    );\n    _;\n  }\n\n  modifier onlyOwnerOrShowStopper() {\n    IAccessControlConfig _accessControlConfig = IAccessControlConfig(IBookKeeper(bookKeeper).accessControlConfig());\n    require(\n      _accessControlConfig.hasRole(_accessControlConfig.OWNER_ROLE(), msg.sender) ||\n        _accessControlConfig.hasRole(_accessControlConfig.SHOW_STOPPER_ROLE(), msg.sender),\n      \"!(ownerRole or showStopperRole)\"\n    );\n    _;\n  }\n\n  /// @dev access: OWNER_ROLE\n  function setStableCoinReferencePrice(uint256 _data) external onlyOwner {\n    require(live == 1, \"PriceOracle/not-live\");\n    stableCoinReferencePrice = _data;\n    emit LogSetStableCoinReferencePrice(msg.sender, _data);\n  }\n\n  // --- Update value ---\n  /// @dev Update the latest price with safety margin of the collateral pool to the BookKeeper\n  /// @param _collateralPoolId Collateral pool id\n  function setPrice(bytes32 _collateralPoolId) external whenNotPaused {\n    IPriceFeed _priceFeed = IPriceFeed(\n      ICollateralPoolConfig(bookKeeper.collateralPoolConfig()).collateralPools(_collateralPoolId).priceFeed\n    );\n    uint256 _liquidationRatio = ICollateralPoolConfig(bookKeeper.collateralPoolConfig()).getLiquidationRatio(\n      _collateralPoolId\n    );\n    (bytes32 _rawPrice, bool _hasPrice) = _priceFeed.peekPrice();\n    uint256 _priceWithSafetyMargin = _hasPrice\n      ? rdiv(rdiv(mul(uint256(_rawPrice), 10**9), stableCoinReferencePrice), _liquidationRatio)\n      : 0;\n    address _collateralPoolConfig = address(bookKeeper.collateralPoolConfig());\n    ICollateralPoolConfig(_collateralPoolConfig).setPriceWithSafetyMargin(_collateralPoolId, _priceWithSafetyMargin);\n    uint256 _rawPriceInUint = uint256(_rawPrice);\n    emit LogSetPrice(_collateralPoolId, _rawPrice, _priceWithSafetyMargin, _rawPriceInUint);\n  }\n\n  /// @dev access: OWNER_ROLE, SHOW_STOPPER_ROLE\n  function cage() external override onlyOwnerOrShowStopper {\n    require(live == 1, \"PriceOracle/not-live\");\n    live = 0;\n    emit LogCage();\n  }\n\n  /// @dev access: OWNER_ROLE, SHOW_STOPPER_ROLE\n  function uncage() external override onlyOwnerOrShowStopper {\n    require(live == 0, \"PriceOracle/not-caged\");\n    live = 1;\n    emit LogUncage();\n  }\n\n  // --- pause ---\n  /// @dev access: OWNER_ROLE, GOV_ROLE\n  function pause() external onlyOwnerOrGov {\n    _pause();\n  }\n\n  /// @dev access: OWNER_ROLE, GOV_ROLE\n  function unpause() external onlyOwnerOrGov {\n    _unpause();\n  }\n}\n",
    "sourcePath": "/Users/sangjun.lee/Sangjun/fathom-stablecoin-smart-contracts/contracts/8.17/stablecoin-core/PriceOracle.sol",
    "compiler": {
        "name": "solc",
        "version": "0.8.17+commit.8df45f5f.Emscripten.clang"
    },
    "schemaVersion": "3.4.10",
    "updatedAt": "2022-11-21T14:12:22.458Z",
    "devdoc": {
        "kind": "dev",
        "methods": {
            "cage()": {
                "details": "access: OWNER_ROLE, SHOW_STOPPER_ROLE"
            },
            "pause()": {
                "details": "access: OWNER_ROLE, GOV_ROLE"
            },
            "paused()": {
                "details": "Returns true if the contract is paused, and false otherwise."
            },
            "setPrice(bytes32)": {
                "details": "Update the latest price with safety margin of the collateral pool to the BookKeeper",
                "params": {
                    "_collateralPoolId": "Collateral pool id"
                }
            },
            "setStableCoinReferencePrice(uint256)": {
                "details": "access: OWNER_ROLE"
            },
            "uncage()": {
                "details": "access: OWNER_ROLE, SHOW_STOPPER_ROLE"
            },
            "unpause()": {
                "details": "access: OWNER_ROLE, GOV_ROLE"
            }
        },
        "version": 1
    },
    "userdoc": {
        "kind": "user",
        "methods": {},
        "notice": "A contract which is the price oracle of the BookKeeper to keep all collateral pools updated with the latest price of the collateral. The price oracle is important in reflecting the current state of the market price.",
        "version": 1
    }
}