{
  "contractName": "AuthTokenAdapter",
  "abi": [
    {
      "anonymous": false,
      "inputs": [
        {
          "indexed": false,
          "internalType": "uint8",
          "name": "version",
          "type": "uint8"
        }
      ],
      "name": "Initialized",
      "type": "event"
    },
    {
      "anonymous": false,
      "inputs": [],
      "name": "LogCage",
      "type": "event"
    },
    {
      "anonymous": false,
      "inputs": [
        {
          "indexed": true,
          "internalType": "address",
          "name": "urn",
          "type": "address"
        },
        {
          "indexed": false,
          "internalType": "uint256",
          "name": "wad",
          "type": "uint256"
        },
        {
          "indexed": true,
          "internalType": "address",
          "name": "msgSender",
          "type": "address"
        }
      ],
      "name": "LogDeposit",
      "type": "event"
    },
    {
      "anonymous": false,
      "inputs": [],
      "name": "LogUncage",
      "type": "event"
    },
    {
      "anonymous": false,
      "inputs": [
        {
          "indexed": true,
          "internalType": "address",
          "name": "guy",
          "type": "address"
        },
        {
          "indexed": false,
          "internalType": "uint256",
          "name": "wad",
          "type": "uint256"
        }
      ],
      "name": "LogWithdraw",
      "type": "event"
    },
    {
      "anonymous": false,
      "inputs": [
        {
          "indexed": false,
          "internalType": "address",
          "name": "account",
          "type": "address"
        }
      ],
      "name": "Paused",
      "type": "event"
    },
    {
      "anonymous": false,
      "inputs": [
        {
          "indexed": true,
          "internalType": "bytes32",
          "name": "role",
          "type": "bytes32"
        },
        {
          "indexed": true,
          "internalType": "bytes32",
          "name": "previousAdminRole",
          "type": "bytes32"
        },
        {
          "indexed": true,
          "internalType": "bytes32",
          "name": "newAdminRole",
          "type": "bytes32"
        }
      ],
      "name": "RoleAdminChanged",
      "type": "event"
    },
    {
      "anonymous": false,
      "inputs": [
        {
          "indexed": true,
          "internalType": "bytes32",
          "name": "role",
          "type": "bytes32"
        },
        {
          "indexed": true,
          "internalType": "address",
          "name": "account",
          "type": "address"
        },
        {
          "indexed": true,
          "internalType": "address",
          "name": "sender",
          "type": "address"
        }
      ],
      "name": "RoleGranted",
      "type": "event"
    },
    {
      "anonymous": false,
      "inputs": [
        {
          "indexed": true,
          "internalType": "bytes32",
          "name": "role",
          "type": "bytes32"
        },
        {
          "indexed": true,
          "internalType": "address",
          "name": "account",
          "type": "address"
        },
        {
          "indexed": true,
          "internalType": "address",
          "name": "sender",
          "type": "address"
        }
      ],
      "name": "RoleRevoked",
      "type": "event"
    },
    {
      "anonymous": false,
      "inputs": [
        {
          "indexed": false,
          "internalType": "address",
          "name": "account",
          "type": "address"
        }
      ],
      "name": "Unpaused",
      "type": "event"
    },
    {
      "inputs": [],
      "name": "DEFAULT_ADMIN_ROLE",
      "outputs": [
        {
          "internalType": "bytes32",
          "name": "",
          "type": "bytes32"
        }
      ],
      "stateMutability": "view",
      "type": "function"
    },
    {
      "inputs": [],
      "name": "WHITELISTED",
      "outputs": [
        {
          "internalType": "bytes32",
          "name": "",
          "type": "bytes32"
        }
      ],
      "stateMutability": "view",
      "type": "function"
    },
    {
      "inputs": [],
      "name": "bookKeeper",
      "outputs": [
        {
          "internalType": "contract IBookKeeper",
          "name": "",
          "type": "address"
        }
      ],
      "stateMutability": "view",
      "type": "function"
    },
    {
      "inputs": [],
      "name": "collateralPoolId",
      "outputs": [
        {
          "internalType": "bytes32",
          "name": "",
          "type": "bytes32"
        }
      ],
      "stateMutability": "view",
      "type": "function"
    },
    {
      "inputs": [],
      "name": "decimals",
      "outputs": [
        {
          "internalType": "uint256",
          "name": "",
          "type": "uint256"
        }
      ],
      "stateMutability": "view",
      "type": "function"
    },
    {
      "inputs": [
        {
          "internalType": "bytes32",
          "name": "role",
          "type": "bytes32"
        }
      ],
      "name": "getRoleAdmin",
      "outputs": [
        {
          "internalType": "bytes32",
          "name": "",
          "type": "bytes32"
        }
      ],
      "stateMutability": "view",
      "type": "function"
    },
    {
      "inputs": [
        {
          "internalType": "bytes32",
          "name": "role",
          "type": "bytes32"
        },
        {
          "internalType": "address",
          "name": "account",
          "type": "address"
        }
      ],
      "name": "grantRole",
      "outputs": [],
      "stateMutability": "nonpayable",
      "type": "function"
    },
    {
      "inputs": [
        {
          "internalType": "bytes32",
          "name": "role",
          "type": "bytes32"
        },
        {
          "internalType": "address",
          "name": "account",
          "type": "address"
        }
      ],
      "name": "hasRole",
      "outputs": [
        {
          "internalType": "bool",
          "name": "",
          "type": "bool"
        }
      ],
      "stateMutability": "view",
      "type": "function"
    },
    {
      "inputs": [],
      "name": "live",
      "outputs": [
        {
          "internalType": "uint256",
          "name": "",
          "type": "uint256"
        }
      ],
      "stateMutability": "view",
      "type": "function"
    },
    {
      "inputs": [],
      "name": "paused",
      "outputs": [
        {
          "internalType": "bool",
          "name": "",
          "type": "bool"
        }
      ],
      "stateMutability": "view",
      "type": "function"
    },
    {
      "inputs": [
        {
          "internalType": "bytes32",
          "name": "role",
          "type": "bytes32"
        },
        {
          "internalType": "address",
          "name": "account",
          "type": "address"
        }
      ],
      "name": "renounceRole",
      "outputs": [],
      "stateMutability": "nonpayable",
      "type": "function"
    },
    {
      "inputs": [
        {
          "internalType": "bytes32",
          "name": "role",
          "type": "bytes32"
        },
        {
          "internalType": "address",
          "name": "account",
          "type": "address"
        }
      ],
      "name": "revokeRole",
      "outputs": [],
      "stateMutability": "nonpayable",
      "type": "function"
    },
    {
      "inputs": [
        {
          "internalType": "bytes4",
          "name": "interfaceId",
          "type": "bytes4"
        }
      ],
      "name": "supportsInterface",
      "outputs": [
        {
          "internalType": "bool",
          "name": "",
          "type": "bool"
        }
      ],
      "stateMutability": "view",
      "type": "function"
    },
    {
      "inputs": [],
      "name": "token",
      "outputs": [
        {
          "internalType": "contract IToken",
          "name": "",
          "type": "address"
        }
      ],
      "stateMutability": "view",
      "type": "function"
    },
    {
      "inputs": [
        {
          "internalType": "address",
          "name": "_bookKeeper",
          "type": "address"
        },
        {
          "internalType": "bytes32",
          "name": "_collateralPoolId",
          "type": "bytes32"
        },
        {
          "internalType": "address",
          "name": "_token",
          "type": "address"
        }
      ],
      "name": "initialize",
      "outputs": [],
      "stateMutability": "nonpayable",
      "type": "function"
    },
    {
      "inputs": [],
      "name": "cage",
      "outputs": [],
      "stateMutability": "nonpayable",
      "type": "function"
    },
    {
      "inputs": [],
      "name": "uncage",
      "outputs": [],
      "stateMutability": "nonpayable",
      "type": "function"
    },
    {
      "inputs": [
        {
          "internalType": "address",
          "name": "_urn",
          "type": "address"
        },
        {
          "internalType": "uint256",
          "name": "_wad",
          "type": "uint256"
        },
        {
          "internalType": "address",
          "name": "_msgSender",
          "type": "address"
        }
      ],
      "name": "deposit",
      "outputs": [],
      "stateMutability": "nonpayable",
      "type": "function"
    },
    {
      "inputs": [
        {
          "internalType": "address",
          "name": "_guy",
          "type": "address"
        },
        {
          "internalType": "uint256",
          "name": "_wad",
          "type": "uint256"
        }
      ],
      "name": "withdraw",
      "outputs": [],
      "stateMutability": "nonpayable",
      "type": "function"
    },
    {
      "inputs": [],
      "name": "pause",
      "outputs": [],
      "stateMutability": "nonpayable",
      "type": "function"
    },
    {
      "inputs": [],
      "name": "unpause",
      "outputs": [],
      "stateMutability": "nonpayable",
      "type": "function"
    }
  ],
  "bytecode": "0x608060405234801561001057600080fd5b5061213e806100206000396000f3fe608060405234801561001057600080fd5b50600436106101375760003560e01c806391d14854116100b8578063d63b23b21161007c578063d63b23b21461025a578063dca07dc514610262578063e3b3932a1461026b578063f3fef3a314610296578063f45346dc146102a9578063fc0c546a146102bc57600080fd5b806391d1485414610210578063957aa58c14610223578063a217fddf1461022c578063d26b3e6e14610234578063d547741f1461024757600080fd5b806336568abe116100ff57806336568abe146101da5780633f4ba83a146101ed5780635c975abb146101f557806369245009146102005780638456cb591461020857600080fd5b806301ffc9a71461013c5780630b71f11614610164578063248a9ca3146101995780632f2ff15d146101bc578063313ce567146101d1575b600080fd5b61014f61014a366004611c69565b6102cf565b60405190151581526020015b60405180910390f35b61018b7fe799c73ff785ac053943f5d98452f7fa0bcf54da67826fc217d6094dec75c5ee81565b60405190815260200161015b565b61018b6101a7366004611c93565b60009081526097602052604090206001015490565b6101cf6101ca366004611cc1565b610306565b005b61018b60fe5481565b6101cf6101e8366004611cc1565b610330565b6101cf6103b3565b60335460ff1661014f565b6101cf610628565b6101cf610917565b61014f61021e366004611cc1565b610b89565b61018b60ff5481565b61018b600081565b6101cf610242366004611cf1565b610bb4565b6101cf610255366004611cc1565b610e4e565b6101cf610e73565b61018b60fc5481565b60fb5461027e906001600160a01b031681565b6040516001600160a01b03909116815260200161015b565b6101cf6102a4366004611d33565b611164565b6101cf6102b7366004611cf1565b6112aa565b60fd5461027e906001600160a01b031681565b60006001600160e01b03198216637965db0b60e01b148061030057506301ffc9a760e01b6001600160e01b03198316145b92915050565b60008281526097602052604090206001015461032181611498565b61032b83836114a2565b505050565b6001600160a01b03811633146103a55760405162461bcd60e51b815260206004820152602f60248201527f416363657373436f6e74726f6c3a2063616e206f6e6c792072656e6f756e636560448201526e103937b632b9903337b91039b2b63360891b60648201526084015b60405180910390fd5b6103af8282611528565b5050565b60fb546040805163c8cc243f60e01b815290516000926001600160a01b03169163c8cc243f9160048083019260209291908290030181865afa1580156103fd573d6000803e3d6000fd5b505050506040513d601f19601f820116820180604052508101906104219190611d5f565b9050806001600160a01b03166391d14854826001600160a01b031663e58378bb6040518163ffffffff1660e01b8152600401602060405180830381865afa158015610470573d6000803e3d6000fd5b505050506040513d601f19601f820116820180604052508101906104949190611d7c565b6040516001600160e01b031960e084901b1681526004810191909152336024820152604401602060405180830381865afa1580156104d6573d6000803e3d6000fd5b505050506040513d601f19601f820116820180604052508101906104fa9190611d95565b806105d75750806001600160a01b03166391d14854826001600160a01b031663b536818a6040518163ffffffff1660e01b8152600401602060405180830381865afa15801561054d573d6000803e3d6000fd5b505050506040513d601f19601f820116820180604052508101906105719190611d7c565b6040516001600160e01b031960e084901b1681526004810191909152336024820152604401602060405180830381865afa1580156105b3573d6000803e3d6000fd5b505050506040513d601f19601f820116820180604052508101906105d79190611d95565b61061d5760405162461bcd60e51b815260206004820152601760248201527621286f776e6572526f6c65206f7220676f76526f6c652960481b604482015260640161039c565b61062561158f565b50565b60fb546040805163c8cc243f60e01b815290516000926001600160a01b03169163c8cc243f9160048083019260209291908290030181865afa158015610672573d6000803e3d6000fd5b505050506040513d601f19601f820116820180604052508101906106969190611d5f565b9050806001600160a01b03166391d14854826001600160a01b031663e58378bb6040518163ffffffff1660e01b8152600401602060405180830381865afa1580156106e5573d6000803e3d6000fd5b505050506040513d601f19601f820116820180604052508101906107099190611d7c565b6040516001600160e01b031960e084901b1681526004810191909152336024820152604401602060405180830381865afa15801561074b573d6000803e3d6000fd5b505050506040513d601f19601f8201168201806040525081019061076f9190611d95565b8061084c5750806001600160a01b03166391d14854826001600160a01b031663d7a47a696040518163ffffffff1660e01b8152600401602060405180830381865afa1580156107c2573d6000803e3d6000fd5b505050506040513d601f19601f820116820180604052508101906107e69190611d7c565b6040516001600160e01b031960e084901b1681526004810191909152336024820152604401602060405180830381865afa158015610828573d6000803e3d6000fd5b505050506040513d601f19601f8201168201806040525081019061084c9190611d95565b6108985760405162461bcd60e51b815260206004820152601f60248201527f21286f776e6572526f6c65206f722073686f7753746f70706572526f6c652900604482015260640161039c565b60ff546001146108e65760405162461bcd60e51b815260206004820152601960248201527841757468546f6b656e416461707465722f6e6f742d6c69766560381b604482015260640161039c565b600060ff8190556040517fbf689b4aae670d200b1d2b971ace2e0c3bef88a9c5e93f36705c7b86eab630b99190a150565b60fb546040805163c8cc243f60e01b815290516000926001600160a01b03169163c8cc243f9160048083019260209291908290030181865afa158015610961573d6000803e3d6000fd5b505050506040513d601f19601f820116820180604052508101906109859190611d5f565b9050806001600160a01b03166391d14854826001600160a01b031663e58378bb6040518163ffffffff1660e01b8152600401602060405180830381865afa1580156109d4573d6000803e3d6000fd5b505050506040513d601f19601f820116820180604052508101906109f89190611d7c565b6040516001600160e01b031960e084901b1681526004810191909152336024820152604401602060405180830381865afa158015610a3a573d6000803e3d6000fd5b505050506040513d601f19601f82011682018060405250810190610a5e9190611d95565b80610b3b5750806001600160a01b03166391d14854826001600160a01b031663b536818a6040518163ffffffff1660e01b8152600401602060405180830381865afa158015610ab1573d6000803e3d6000fd5b505050506040513d601f19601f82011682018060405250810190610ad59190611d7c565b6040516001600160e01b031960e084901b1681526004810191909152336024820152604401602060405180830381865afa158015610b17573d6000803e3d6000fd5b505050506040513d601f19601f82011682018060405250810190610b3b9190611d95565b610b815760405162461bcd60e51b815260206004820152601760248201527621286f776e6572526f6c65206f7220676f76526f6c652960481b604482015260640161039c565b6106256115e1565b60009182526097602090815260408084206001600160a01b0393909316845291905290205460ff1690565b600054610100900460ff1615808015610bd45750600054600160ff909116105b80610bee5750303b158015610bee575060005460ff166001145b610c515760405162461bcd60e51b815260206004820152602e60248201527f496e697469616c697a61626c653a20636f6e747261637420697320616c72656160448201526d191e481a5b9a5d1a585b1a5e995960921b606482015260840161039c565b6000805460ff191660011790558015610c74576000805461ff0019166101001790555b610c7c61161e565b610c8461164f565b610c8c611676565b60fd80546001600160a01b0319166001600160a01b0384169081179091556040805163313ce56760e01b8152905163313ce567916004808201926020929091908290030181865afa158015610ce5573d6000803e3d6000fd5b505050506040513d601f19601f82011682018060405250810190610d099190611db7565b60ff90811660fe556001905560fb80546001600160a01b0319166001600160a01b03861690811790915560fc8490556040805163c8cc243f60e01b81529051610e02929163c8cc243f9160048281019260209291908290030181865afa158015610d77573d6000803e3d6000fd5b505050506040513d601f19601f82011682018060405250810190610d9b9190611d5f565b6001600160a01b031663e58378bb6040518163ffffffff1660e01b8152600401602060405180830381865afa158015610dd8573d6000803e3d6000fd5b505050506040513d601f19601f82011682018060405250810190610dfc9190611d7c565b336116a5565b8015610e48576000805461ff0019169055604051600181527f7f26b83ff96e1f2b6a682f133852f6798a09c465da95921460cefb38474024989060200160405180910390a15b50505050565b600082815260976020526040902060010154610e6981611498565b61032b8383611528565b60fb546040805163c8cc243f60e01b815290516000926001600160a01b03169163c8cc243f9160048083019260209291908290030181865afa158015610ebd573d6000803e3d6000fd5b505050506040513d601f19601f82011682018060405250810190610ee19190611d5f565b9050806001600160a01b03166391d14854826001600160a01b031663e58378bb6040518163ffffffff1660e01b8152600401602060405180830381865afa158015610f30573d6000803e3d6000fd5b505050506040513d601f19601f82011682018060405250810190610f549190611d7c565b6040516001600160e01b031960e084901b1681526004810191909152336024820152604401602060405180830381865afa158015610f96573d6000803e3d6000fd5b505050506040513d601f19601f82011682018060405250810190610fba9190611d95565b806110975750806001600160a01b03166391d14854826001600160a01b031663d7a47a696040518163ffffffff1660e01b8152600401602060405180830381865afa15801561100d573d6000803e3d6000fd5b505050506040513d601f19601f820116820180604052508101906110319190611d7c565b6040516001600160e01b031960e084901b1681526004810191909152336024820152604401602060405180830381865afa158015611073573d6000803e3d6000fd5b505050506040513d601f19601f820116820180604052508101906110979190611d95565b6110e35760405162461bcd60e51b815260206004820152601f60248201527f21286f776e6572526f6c65206f722073686f7753746f70706572526f6c652900604482015260640161039c565b60ff54156111335760405162461bcd60e51b815260206004820152601a60248201527f41757468546f6b656e416461707465722f6e6f742d6361676564000000000000604482015260640161039c565b600160ff556040517f1868a6ced217213f36be87ba9aee25cde5381b42e85c8f88e73b18772c0bd07390600090a150565b61116c6116af565b611174611708565b60006111998260fe5460126111899190611df0565b61119490600a611ee7565b61174e565b905060008112156111bc5760405162461bcd60e51b815260040161039c90611ef3565b60fb5460fc546001600160a01b039091169063d295927a90336111de85611f2a565b6040516001600160e01b031960e086901b16815260048101939093526001600160a01b0390911660248301526044820152606401600060405180830381600087803b15801561122c57600080fd5b505af1158015611240573d6000803e3d6000fd5b505060fd5461125c92506001600160a01b03169050848461178e565b826001600160a01b03167f4ce7033d118120e254016dccf195288400b28fc8936425acd5f17ce2df3ab7088360405161129791815260200190565b60405180910390a2506103af600160c955565b6112b26116af565b6112ba611708565b6112e47fe799c73ff785ac053943f5d98452f7fa0bcf54da67826fc217d6094dec75c5ee33610b89565b6113305760405162461bcd60e51b815260206004820181905260248201527f41757468546f6b656e416461707465722f6e6f742d77686974656c6973746564604482015260640161039c565b60ff5460011461137e5760405162461bcd60e51b815260206004820152601960248201527841757468546f6b656e416461707465722f6e6f742d6c69766560381b604482015260640161039c565b60006113938360fe5460126111899190611df0565b905060008112156113b65760405162461bcd60e51b815260040161039c90611ef3565b60fb5460fc5460405163694ac93d60e11b815260048101919091526001600160a01b038681166024830152604482018490529091169063d295927a90606401600060405180830381600087803b15801561140f57600080fd5b505af1158015611423573d6000803e3d6000fd5b505060fd5461144092506001600160a01b031690508330866118a0565b816001600160a01b0316846001600160a01b03167f7235702039c95755efa35aa4a8208920cc347a1a3685c13ef9ef6dedc2859be18560405161148591815260200190565b60405180910390a35061032b600160c955565b61062581336119b8565b6114ac8282610b89565b6103af5760008281526097602090815260408083206001600160a01b03851684529091529020805460ff191660011790556114e43390565b6001600160a01b0316816001600160a01b0316837f2f8788117e7eff1d82e926ec794901d17c78024a50270940304540a733656f0d60405160405180910390a45050565b6115328282610b89565b156103af5760008281526097602090815260408083206001600160a01b0385168085529252808320805460ff1916905551339285917ff6391f5c32d9c69d2a47ea670b442974b53935d1edc7fd64eb21e047a839171b9190a45050565b611597611a11565b6033805460ff191690557f5db9ee0a495bf2e6ff9c91a7834c1ba4fdd244a5e8aa4e537bd38aeae4b073aa335b6040516001600160a01b03909116815260200160405180910390a1565b6115e9611708565b6033805460ff191660011790557f62e78cea01bee320cd4e420270b5ea74000d11b0c9f74754ebdbfc544b05a2586115c43390565b600054610100900460ff166116455760405162461bcd60e51b815260040161039c90611f46565b61164d611a5a565b565b600054610100900460ff1661164d5760405162461bcd60e51b815260040161039c90611f46565b600054610100900460ff1661169d5760405162461bcd60e51b815260040161039c90611f46565b61164d611a8d565b6103af82826114a2565b600260c954036117015760405162461bcd60e51b815260206004820152601f60248201527f5265656e7472616e637947756172643a207265656e7472616e742063616c6c00604482015260640161039c565b600260c955565b60335460ff161561164d5760405162461bcd60e51b815260206004820152601060248201526f14185d5cd8589b194e881c185d5cd95960821b604482015260640161039c565b6000811580611772575082826117648183611f91565b92506117709083611fa8565b145b6103005760405162461bcd60e51b815260040161039c90611ef3565b604080516001600160a01b038481166024830152604480830185905283518084039091018152606490920183526020820180516001600160e01b031663a9059cbb60e01b17905291516000928392908716916117ea9190611fee565b6000604051808303816000865af19150503d8060008114611827576040519150601f19603f3d011682016040523d82523d6000602084013e61182c565b606091505b50915091508180156118565750805115806118565750808060200190518101906118569190611d95565b6118925760405162461bcd60e51b815260206004820152600d60248201526c10b9b0b332aa3930b739b332b960991b604482015260640161039c565b5050505050565b600160c955565b604080516001600160a01b0385811660248301528481166044830152606480830185905283518084039091018152608490920183526020820180516001600160e01b03166323b872dd60e01b17905291516000928392908816916119049190611fee565b6000604051808303816000865af19150503d8060008114611941576040519150601f19603f3d011682016040523d82523d6000602084013e611946565b606091505b50915091508180156119705750805115806119705750808060200190518101906119709190611d95565b6119b05760405162461bcd60e51b815260206004820152601160248201527021736166655472616e7366657246726f6d60781b604482015260640161039c565b505050505050565b6119c28282610b89565b6103af576119cf81611ab4565b6119da836020611ac6565b6040516020016119eb92919061200a565b60408051601f198184030181529082905262461bcd60e51b825261039c9160040161207f565b60335460ff1661164d5760405162461bcd60e51b815260206004820152601460248201527314185d5cd8589b194e881b9bdd081c185d5cd95960621b604482015260640161039c565b600054610100900460ff16611a815760405162461bcd60e51b815260040161039c90611f46565b6033805460ff19169055565b600054610100900460ff166118995760405162461bcd60e51b815260040161039c90611f46565b60606103006001600160a01b03831660145b60606000611ad5836002611f91565b611ae09060026120b2565b67ffffffffffffffff811115611af857611af86120c5565b6040519080825280601f01601f191660200182016040528015611b22576020820181803683370190505b509050600360fc1b81600081518110611b3d57611b3d6120db565b60200101906001600160f81b031916908160001a905350600f60fb1b81600181518110611b6c57611b6c6120db565b60200101906001600160f81b031916908160001a9053506000611b90846002611f91565b611b9b9060016120b2565b90505b6001811115611c13576f181899199a1a9b1b9c1cb0b131b232b360811b85600f1660108110611bcf57611bcf6120db565b1a60f81b828281518110611be557611be56120db565b60200101906001600160f81b031916908160001a90535060049490941c93611c0c816120f1565b9050611b9e565b508315611c625760405162461bcd60e51b815260206004820181905260248201527f537472696e67733a20686578206c656e67746820696e73756666696369656e74604482015260640161039c565b9392505050565b600060208284031215611c7b57600080fd5b81356001600160e01b031981168114611c6257600080fd5b600060208284031215611ca557600080fd5b5035919050565b6001600160a01b038116811461062557600080fd5b60008060408385031215611cd457600080fd5b823591506020830135611ce681611cac565b809150509250929050565b600080600060608486031215611d0657600080fd5b8335611d1181611cac565b9250602084013591506040840135611d2881611cac565b809150509250925092565b60008060408385031215611d4657600080fd5b8235611d5181611cac565b946020939093013593505050565b600060208284031215611d7157600080fd5b8151611c6281611cac565b600060208284031215611d8e57600080fd5b5051919050565b600060208284031215611da757600080fd5b81518015158114611c6257600080fd5b600060208284031215611dc957600080fd5b815160ff81168114611c6257600080fd5b634e487b7160e01b600052601160045260246000fd5b8181038181111561030057610300611dda565b600181815b80851115611e3e578160001904821115611e2457611e24611dda565b80851615611e3157918102915b93841c9390800290611e08565b509250929050565b600082611e5557506001610300565b81611e6257506000610300565b8160018114611e785760028114611e8257611e9e565b6001915050610300565b60ff841115611e9357611e93611dda565b50506001821b610300565b5060208310610133831016604e8410600b8410161715611ec1575081810a610300565b611ecb8383611e03565b8060001904821115611edf57611edf611dda565b029392505050565b6000611c628383611e46565b60208082526019908201527f41757468546f6b656e416461707465722f6f766572666c6f7700000000000000604082015260600190565b6000600160ff1b8201611f3f57611f3f611dda565b5060000390565b6020808252602b908201527f496e697469616c697a61626c653a20636f6e7472616374206973206e6f74206960408201526a6e697469616c697a696e6760a81b606082015260800190565b808202811582820484141761030057610300611dda565b600082611fc557634e487b7160e01b600052601260045260246000fd5b500490565b60005b83811015611fe5578181015183820152602001611fcd565b50506000910152565b60008251612000818460208701611fca565b9190910192915050565b7f416363657373436f6e74726f6c3a206163636f756e7420000000000000000000815260008351612042816017850160208801611fca565b7001034b99036b4b9b9b4b733903937b6329607d1b6017918401918201528351612073816028840160208801611fca565b01602801949350505050565b602081526000825180602084015261209e816040850160208701611fca565b601f01601f19169190910160400192915050565b8082018082111561030057610300611dda565b634e487b7160e01b600052604160045260246000fd5b634e487b7160e01b600052603260045260246000fd5b60008161210057612100611dda565b50600019019056fea264697066735822122052f1aff619281105d4b9e9f034834651579bdc785be656642c0fb70ca930aea764736f6c63430008110033",
  "immutableReferences": {},
  "source": "// SPDX-License-Identifier: AGPL-3.0-or-later\n\npragma solidity 0.8.17;\n\nimport \"@openzeppelin/contracts-upgradeable/access/OwnableUpgradeable.sol\";\nimport \"@openzeppelin/contracts-upgradeable/security/PausableUpgradeable.sol\";\nimport \"@openzeppelin/contracts-upgradeable/access/AccessControlUpgradeable.sol\";\nimport \"@openzeppelin/contracts-upgradeable/security/ReentrancyGuardUpgradeable.sol\";\n\nimport \"../../interfaces/IBookKeeper.sol\";\nimport \"../../interfaces/IToken.sol\";\nimport \"../../interfaces/IAuthTokenAdapter.sol\";\nimport \"../../interfaces/ICagable.sol\";\nimport \"../../utils/SafeToken.sol\";\n\n// Authed TokenAdapter for a token that has a lower precision than 18 and it has decimals (like USDC)\n\ncontract AuthTokenAdapter is\n  PausableUpgradeable,\n  AccessControlUpgradeable,\n  ReentrancyGuardUpgradeable,\n  IAuthTokenAdapter,\n  ICagable\n{\n  using SafeToken for address;\n\n  bytes32 public constant WHITELISTED = keccak256(\"WHITELISTED\");\n\n  IBookKeeper public override bookKeeper; // cdp engine\n  bytes32 public override collateralPoolId; // collateral pool id\n  IToken public override token; // collateral token\n  uint256 public override decimals; // collateralToken decimals\n  uint256 public live; // Access Flag\n\n  // --- Events ---\n  event LogDeposit(address indexed urn, uint256 wad, address indexed msgSender);\n  event LogWithdraw(address indexed guy, uint256 wad);\n\n  modifier onlyOwnerOrGov() {\n    IAccessControlConfig _accessControlConfig = IAccessControlConfig(IBookKeeper(bookKeeper).accessControlConfig());\n    require(\n      _accessControlConfig.hasRole(_accessControlConfig.OWNER_ROLE(), msg.sender) ||\n        _accessControlConfig.hasRole(_accessControlConfig.GOV_ROLE(), msg.sender),\n      \"!(ownerRole or govRole)\"\n    );\n    _;\n  }\n\n  modifier onlyOwnerOrShowStopper() {\n    IAccessControlConfig _accessControlConfig = IAccessControlConfig(IBookKeeper(bookKeeper).accessControlConfig());\n    require(\n      _accessControlConfig.hasRole(_accessControlConfig.OWNER_ROLE(), msg.sender) ||\n        _accessControlConfig.hasRole(_accessControlConfig.SHOW_STOPPER_ROLE(), msg.sender),\n      \"!(ownerRole or showStopperRole)\"\n    );\n    _;\n  }\n\n  function initialize(\n    address _bookKeeper,\n    bytes32 _collateralPoolId,\n    address _token\n  ) external initializer {\n    PausableUpgradeable.__Pausable_init();\n    AccessControlUpgradeable.__AccessControl_init();\n    ReentrancyGuardUpgradeable.__ReentrancyGuard_init();\n\n    token = IToken(_token);\n    decimals = IToken(_token).decimals();\n    live = 1;\n    bookKeeper = IBookKeeper(_bookKeeper);\n    collateralPoolId = _collateralPoolId;\n\n    // Grant the contract deployer the owner role: it will be able\n    // to grant and revoke any roles\n    _setupRole(IAccessControlConfig(bookKeeper.accessControlConfig()).OWNER_ROLE(), msg.sender);\n  }\n\n  /// @dev access: OWNER_ROLE, SHOW_STOPPER_ROLE\n  function cage() external override onlyOwnerOrShowStopper {\n    require(live == 1, \"AuthTokenAdapter/not-live\");\n    live = 0;\n    emit LogCage();\n  }\n\n  /// @dev access: OWNER_ROLE, SHOW_STOPPER_ROLE\n  function uncage() external override onlyOwnerOrShowStopper {\n    require(live == 0, \"AuthTokenAdapter/not-caged\");\n    live = 1;\n    emit LogUncage();\n  }\n\n  function mul(uint256 _x, uint256 _y) internal pure returns (uint256 _z) {\n    require(_y == 0 || (_z = _x * _y) / _y == _x, \"AuthTokenAdapter/overflow\");\n  }\n\n  /**\n   * @dev Deposit token into the system from the msgSender to be used as collateral\n   * @param _urn The destination address which is holding the collateral token\n   * @param _wad The amount of collateral to be deposit [wad]\n   * @param _msgSender The source address which transfer token\n   * @dev access: WHITELISTED\n   */\n  function deposit(\n    address _urn,\n    uint256 _wad,\n    address _msgSender\n  ) external override nonReentrant whenNotPaused {\n    require(hasRole(WHITELISTED, msg.sender), \"AuthTokenAdapter/not-whitelisted\");\n    require(live == 1, \"AuthTokenAdapter/not-live\");\n    uint256 _wad18 = mul(_wad, 10**(18 - decimals));\n    require(int256(_wad18) >= 0, \"AuthTokenAdapter/overflow\");\n    bookKeeper.addCollateral(collateralPoolId, _urn, int256(_wad18));\n    address(token).safeTransferFrom(_msgSender, address(this), _wad);\n    emit LogDeposit(_urn, _wad, _msgSender);\n  }\n\n  /**\n   * @dev Withdraw token from the system to guy\n   * @param _guy The destination address to receive collateral token\n   * @param _wad The amount of collateral to be withdraw [wad]\n   */\n  function withdraw(address _guy, uint256 _wad) external override nonReentrant whenNotPaused {\n    uint256 _wad18 = mul(_wad, 10**(18 - decimals));\n    require(int256(_wad18) >= 0, \"AuthTokenAdapter/overflow\");\n    bookKeeper.addCollateral(collateralPoolId, msg.sender, -int256(_wad18));\n    address(token).safeTransfer(_guy, _wad);\n    emit LogWithdraw(_guy, _wad);\n  }\n\n  // --- pause ---\n  /// @dev access: OWNER_ROLE, GOV_ROLE\n  function pause() external onlyOwnerOrGov {\n    _pause();\n  }\n\n  /// @dev access: OWNER_ROLE, GOV_ROLE\n  function unpause() external onlyOwnerOrGov {\n    _unpause();\n  }\n}\n",
  "sourcePath": "/Users/sangjun.lee/Sangjun/fathom-stablecoin-smart-contracts/contracts/8.17/stablecoin-core/adapters/AuthTokenAdapter.sol",
  "compiler": {
    "name": "solc",
    "version": "0.8.17+commit.8df45f5f.Emscripten.clang"
  },
  "schemaVersion": "3.4.10",
  "updatedAt": "2022-11-24T09:45:49.341Z",
  "devdoc": {
    "kind": "dev",
    "methods": {
      "cage()": {
        "details": "access: OWNER_ROLE, SHOW_STOPPER_ROLE"
      },
      "deposit(address,uint256,address)": {
        "details": "Deposit token into the system from the msgSender to be used as collateralaccess: WHITELISTED",
        "params": {
          "_msgSender": "The source address which transfer token",
          "_urn": "The destination address which is holding the collateral token",
          "_wad": "The amount of collateral to be deposit [wad]"
        }
      },
      "getRoleAdmin(bytes32)": {
        "details": "Returns the admin role that controls `role`. See {grantRole} and {revokeRole}. To change a role's admin, use {_setRoleAdmin}."
      },
      "grantRole(bytes32,address)": {
        "details": "Grants `role` to `account`. If `account` had not been already granted `role`, emits a {RoleGranted} event. Requirements: - the caller must have ``role``'s admin role. May emit a {RoleGranted} event."
      },
      "hasRole(bytes32,address)": {
        "details": "Returns `true` if `account` has been granted `role`."
      },
      "pause()": {
        "details": "access: OWNER_ROLE, GOV_ROLE"
      },
      "paused()": {
        "details": "Returns true if the contract is paused, and false otherwise."
      },
      "renounceRole(bytes32,address)": {
        "details": "Revokes `role` from the calling account. Roles are often managed via {grantRole} and {revokeRole}: this function's purpose is to provide a mechanism for accounts to lose their privileges if they are compromised (such as when a trusted device is misplaced). If the calling account had been revoked `role`, emits a {RoleRevoked} event. Requirements: - the caller must be `account`. May emit a {RoleRevoked} event."
      },
      "revokeRole(bytes32,address)": {
        "details": "Revokes `role` from `account`. If `account` had been granted `role`, emits a {RoleRevoked} event. Requirements: - the caller must have ``role``'s admin role. May emit a {RoleRevoked} event."
      },
      "supportsInterface(bytes4)": {
        "details": "See {IERC165-supportsInterface}."
      },
      "uncage()": {
        "details": "access: OWNER_ROLE, SHOW_STOPPER_ROLE"
      },
      "unpause()": {
        "details": "access: OWNER_ROLE, GOV_ROLE"
      },
      "withdraw(address,uint256)": {
        "details": "Withdraw token from the system to guy",
        "params": {
          "_guy": "The destination address to receive collateral token",
          "_wad": "The amount of collateral to be withdraw [wad]"
        }
      }
    },
    "version": 1
  },
  "userdoc": {
    "kind": "user",
    "methods": {},
    "version": 1
  }
}