{
    "contractName": "AuthTokenAdapter",
    "abi": [
        {
            "anonymous": false,
            "inputs": [
                {
                    "indexed": false,
                    "internalType": "uint8",
                    "name": "version",
                    "type": "uint8"
                }
            ],
            "name": "Initialized",
            "type": "event"
        },
        {
            "anonymous": false,
            "inputs": [],
            "name": "LogCage",
            "type": "event"
        },
        {
            "anonymous": false,
            "inputs": [
                {
                    "indexed": true,
                    "internalType": "address",
                    "name": "urn",
                    "type": "address"
                },
                {
                    "indexed": false,
                    "internalType": "uint256",
                    "name": "wad",
                    "type": "uint256"
                },
                {
                    "indexed": true,
                    "internalType": "address",
                    "name": "msgSender",
                    "type": "address"
                }
            ],
            "name": "LogDeposit",
            "type": "event"
        },
        {
            "anonymous": false,
            "inputs": [],
            "name": "LogUncage",
            "type": "event"
        },
        {
            "anonymous": false,
            "inputs": [
                {
                    "indexed": true,
                    "internalType": "address",
                    "name": "guy",
                    "type": "address"
                },
                {
                    "indexed": false,
                    "internalType": "uint256",
                    "name": "wad",
                    "type": "uint256"
                }
            ],
            "name": "LogWithdraw",
            "type": "event"
        },
        {
            "anonymous": false,
            "inputs": [
                {
                    "indexed": false,
                    "internalType": "address",
                    "name": "account",
                    "type": "address"
                }
            ],
            "name": "Paused",
            "type": "event"
        },
        {
            "anonymous": false,
            "inputs": [
                {
                    "indexed": true,
                    "internalType": "bytes32",
                    "name": "role",
                    "type": "bytes32"
                },
                {
                    "indexed": true,
                    "internalType": "bytes32",
                    "name": "previousAdminRole",
                    "type": "bytes32"
                },
                {
                    "indexed": true,
                    "internalType": "bytes32",
                    "name": "newAdminRole",
                    "type": "bytes32"
                }
            ],
            "name": "RoleAdminChanged",
            "type": "event"
        },
        {
            "anonymous": false,
            "inputs": [
                {
                    "indexed": true,
                    "internalType": "bytes32",
                    "name": "role",
                    "type": "bytes32"
                },
                {
                    "indexed": true,
                    "internalType": "address",
                    "name": "account",
                    "type": "address"
                },
                {
                    "indexed": true,
                    "internalType": "address",
                    "name": "sender",
                    "type": "address"
                }
            ],
            "name": "RoleGranted",
            "type": "event"
        },
        {
            "anonymous": false,
            "inputs": [
                {
                    "indexed": true,
                    "internalType": "bytes32",
                    "name": "role",
                    "type": "bytes32"
                },
                {
                    "indexed": true,
                    "internalType": "address",
                    "name": "account",
                    "type": "address"
                },
                {
                    "indexed": true,
                    "internalType": "address",
                    "name": "sender",
                    "type": "address"
                }
            ],
            "name": "RoleRevoked",
            "type": "event"
        },
        {
            "anonymous": false,
            "inputs": [
                {
                    "indexed": false,
                    "internalType": "address",
                    "name": "account",
                    "type": "address"
                }
            ],
            "name": "Unpaused",
            "type": "event"
        },
        {
            "inputs": [],
            "name": "DEFAULT_ADMIN_ROLE",
            "outputs": [
                {
                    "internalType": "bytes32",
                    "name": "",
                    "type": "bytes32"
                }
            ],
            "stateMutability": "view",
            "type": "function"
        },
        {
            "inputs": [],
            "name": "WHITELISTED",
            "outputs": [
                {
                    "internalType": "bytes32",
                    "name": "",
                    "type": "bytes32"
                }
            ],
            "stateMutability": "view",
            "type": "function"
        },
        {
            "inputs": [],
            "name": "bookKeeper",
            "outputs": [
                {
                    "internalType": "contract IBookKeeper",
                    "name": "",
                    "type": "address"
                }
            ],
            "stateMutability": "view",
            "type": "function"
        },
        {
            "inputs": [],
            "name": "collateralPoolId",
            "outputs": [
                {
                    "internalType": "bytes32",
                    "name": "",
                    "type": "bytes32"
                }
            ],
            "stateMutability": "view",
            "type": "function"
        },
        {
            "inputs": [],
            "name": "decimals",
            "outputs": [
                {
                    "internalType": "uint256",
                    "name": "",
                    "type": "uint256"
                }
            ],
            "stateMutability": "view",
            "type": "function"
        },
        {
            "inputs": [
                {
                    "internalType": "bytes32",
                    "name": "role",
                    "type": "bytes32"
                }
            ],
            "name": "getRoleAdmin",
            "outputs": [
                {
                    "internalType": "bytes32",
                    "name": "",
                    "type": "bytes32"
                }
            ],
            "stateMutability": "view",
            "type": "function"
        },
        {
            "inputs": [
                {
                    "internalType": "bytes32",
                    "name": "role",
                    "type": "bytes32"
                },
                {
                    "internalType": "address",
                    "name": "account",
                    "type": "address"
                }
            ],
            "name": "grantRole",
            "outputs": [],
            "stateMutability": "nonpayable",
            "type": "function"
        },
        {
            "inputs": [
                {
                    "internalType": "bytes32",
                    "name": "role",
                    "type": "bytes32"
                },
                {
                    "internalType": "address",
                    "name": "account",
                    "type": "address"
                }
            ],
            "name": "hasRole",
            "outputs": [
                {
                    "internalType": "bool",
                    "name": "",
                    "type": "bool"
                }
            ],
            "stateMutability": "view",
            "type": "function"
        },
        {
            "inputs": [],
            "name": "live",
            "outputs": [
                {
                    "internalType": "uint256",
                    "name": "",
                    "type": "uint256"
                }
            ],
            "stateMutability": "view",
            "type": "function"
        },
        {
            "inputs": [],
            "name": "paused",
            "outputs": [
                {
                    "internalType": "bool",
                    "name": "",
                    "type": "bool"
                }
            ],
            "stateMutability": "view",
            "type": "function"
        },
        {
            "inputs": [
                {
                    "internalType": "bytes32",
                    "name": "role",
                    "type": "bytes32"
                },
                {
                    "internalType": "address",
                    "name": "account",
                    "type": "address"
                }
            ],
            "name": "renounceRole",
            "outputs": [],
            "stateMutability": "nonpayable",
            "type": "function"
        },
        {
            "inputs": [
                {
                    "internalType": "bytes32",
                    "name": "role",
                    "type": "bytes32"
                },
                {
                    "internalType": "address",
                    "name": "account",
                    "type": "address"
                }
            ],
            "name": "revokeRole",
            "outputs": [],
            "stateMutability": "nonpayable",
            "type": "function"
        },
        {
            "inputs": [
                {
                    "internalType": "bytes4",
                    "name": "interfaceId",
                    "type": "bytes4"
                }
            ],
            "name": "supportsInterface",
            "outputs": [
                {
                    "internalType": "bool",
                    "name": "",
                    "type": "bool"
                }
            ],
            "stateMutability": "view",
            "type": "function"
        },
        {
            "inputs": [],
            "name": "token",
            "outputs": [
                {
                    "internalType": "contract IToken",
                    "name": "",
                    "type": "address"
                }
            ],
            "stateMutability": "view",
            "type": "function"
        },
        {
            "inputs": [
                {
                    "internalType": "address",
                    "name": "_bookKeeper",
                    "type": "address"
                },
                {
                    "internalType": "bytes32",
                    "name": "_collateralPoolId",
                    "type": "bytes32"
                },
                {
                    "internalType": "address",
                    "name": "_token",
                    "type": "address"
                }
            ],
            "name": "initialize",
            "outputs": [],
            "stateMutability": "nonpayable",
            "type": "function"
        },
        {
            "inputs": [],
            "name": "cage",
            "outputs": [],
            "stateMutability": "nonpayable",
            "type": "function"
        },
        {
            "inputs": [],
            "name": "uncage",
            "outputs": [],
            "stateMutability": "nonpayable",
            "type": "function"
        },
        {
            "inputs": [
                {
                    "internalType": "address",
                    "name": "_urn",
                    "type": "address"
                },
                {
                    "internalType": "uint256",
                    "name": "_wad",
                    "type": "uint256"
                },
                {
                    "internalType": "address",
                    "name": "_msgSender",
                    "type": "address"
                }
            ],
            "name": "deposit",
            "outputs": [],
            "stateMutability": "nonpayable",
            "type": "function"
        },
        {
            "inputs": [
                {
                    "internalType": "address",
                    "name": "_guy",
                    "type": "address"
                },
                {
                    "internalType": "uint256",
                    "name": "_wad",
                    "type": "uint256"
                }
            ],
            "name": "withdraw",
            "outputs": [],
            "stateMutability": "nonpayable",
            "type": "function"
        },
        {
            "inputs": [],
            "name": "pause",
            "outputs": [],
            "stateMutability": "nonpayable",
            "type": "function"
        },
        {
            "inputs": [],
            "name": "unpause",
            "outputs": [],
            "stateMutability": "nonpayable",
            "type": "function"
        }
    ],
    "bytecode": "0x608060405234801561001057600080fd5b5061217b806100206000396000f3fe608060405234801561001057600080fd5b50600436106101375760003560e01c806391d14854116100b8578063d63b23b21161007c578063d63b23b21461025a578063dca07dc514610262578063e3b3932a1461026b578063f3fef3a314610296578063f45346dc146102a9578063fc0c546a146102bc57600080fd5b806391d1485414610210578063957aa58c14610223578063a217fddf1461022c578063d26b3e6e14610234578063d547741f1461024757600080fd5b806336568abe116100ff57806336568abe146101da5780633f4ba83a146101ed5780635c975abb146101f557806369245009146102005780638456cb591461020857600080fd5b806301ffc9a71461013c5780630b71f11614610164578063248a9ca3146101995780632f2ff15d146101bc578063313ce567146101d1575b600080fd5b61014f61014a366004611ca6565b6102cf565b60405190151581526020015b60405180910390f35b61018b7fe799c73ff785ac053943f5d98452f7fa0bcf54da67826fc217d6094dec75c5ee81565b60405190815260200161015b565b61018b6101a7366004611cd0565b60009081526097602052604090206001015490565b6101cf6101ca366004611cfe565b610306565b005b61018b60fe5481565b6101cf6101e8366004611cfe565b610330565b6101cf6103b3565b60335460ff1661014f565b6101cf610628565b6101cf610917565b61014f61021e366004611cfe565b610b89565b61018b60ff5481565b61018b600081565b6101cf610242366004611d2e565b610bb4565b6101cf610255366004611cfe565b610e4e565b6101cf610e73565b61018b60fc5481565b60fb5461027e906001600160a01b031681565b6040516001600160a01b03909116815260200161015b565b6101cf6102a4366004611d70565b611164565b6101cf6102b7366004611d2e565b6112f8565b60fd5461027e906001600160a01b031681565b60006001600160e01b03198216637965db0b60e01b148061030057506301ffc9a760e01b6001600160e01b03198316145b92915050565b60008281526097602052604090206001015461032181611535565b61032b838361153f565b505050565b6001600160a01b03811633146103a55760405162461bcd60e51b815260206004820152602f60248201527f416363657373436f6e74726f6c3a2063616e206f6e6c792072656e6f756e636560448201526e103937b632b9903337b91039b2b63360891b60648201526084015b60405180910390fd5b6103af82826115c5565b5050565b60fb546040805163c8cc243f60e01b815290516000926001600160a01b03169163c8cc243f9160048083019260209291908290030181865afa1580156103fd573d6000803e3d6000fd5b505050506040513d601f19601f820116820180604052508101906104219190611d9c565b9050806001600160a01b03166391d14854826001600160a01b031663e58378bb6040518163ffffffff1660e01b8152600401602060405180830381865afa158015610470573d6000803e3d6000fd5b505050506040513d601f19601f820116820180604052508101906104949190611db9565b6040516001600160e01b031960e084901b1681526004810191909152336024820152604401602060405180830381865afa1580156104d6573d6000803e3d6000fd5b505050506040513d601f19601f820116820180604052508101906104fa9190611dd2565b806105d75750806001600160a01b03166391d14854826001600160a01b031663b536818a6040518163ffffffff1660e01b8152600401602060405180830381865afa15801561054d573d6000803e3d6000fd5b505050506040513d601f19601f820116820180604052508101906105719190611db9565b6040516001600160e01b031960e084901b1681526004810191909152336024820152604401602060405180830381865afa1580156105b3573d6000803e3d6000fd5b505050506040513d601f19601f820116820180604052508101906105d79190611dd2565b61061d5760405162461bcd60e51b815260206004820152601760248201527621286f776e6572526f6c65206f7220676f76526f6c652960481b604482015260640161039c565b61062561162c565b50565b60fb546040805163c8cc243f60e01b815290516000926001600160a01b03169163c8cc243f9160048083019260209291908290030181865afa158015610672573d6000803e3d6000fd5b505050506040513d601f19601f820116820180604052508101906106969190611d9c565b9050806001600160a01b03166391d14854826001600160a01b031663e58378bb6040518163ffffffff1660e01b8152600401602060405180830381865afa1580156106e5573d6000803e3d6000fd5b505050506040513d601f19601f820116820180604052508101906107099190611db9565b6040516001600160e01b031960e084901b1681526004810191909152336024820152604401602060405180830381865afa15801561074b573d6000803e3d6000fd5b505050506040513d601f19601f8201168201806040525081019061076f9190611dd2565b8061084c5750806001600160a01b03166391d14854826001600160a01b031663d7a47a696040518163ffffffff1660e01b8152600401602060405180830381865afa1580156107c2573d6000803e3d6000fd5b505050506040513d601f19601f820116820180604052508101906107e69190611db9565b6040516001600160e01b031960e084901b1681526004810191909152336024820152604401602060405180830381865afa158015610828573d6000803e3d6000fd5b505050506040513d601f19601f8201168201806040525081019061084c9190611dd2565b6108985760405162461bcd60e51b815260206004820152601f60248201527f21286f776e6572526f6c65206f722073686f7753746f70706572526f6c652900604482015260640161039c565b60ff546001146108e65760405162461bcd60e51b815260206004820152601960248201527841757468546f6b656e416461707465722f6e6f742d6c69766560381b604482015260640161039c565b600060ff8190556040517fbf689b4aae670d200b1d2b971ace2e0c3bef88a9c5e93f36705c7b86eab630b99190a150565b60fb546040805163c8cc243f60e01b815290516000926001600160a01b03169163c8cc243f9160048083019260209291908290030181865afa158015610961573d6000803e3d6000fd5b505050506040513d601f19601f820116820180604052508101906109859190611d9c565b9050806001600160a01b03166391d14854826001600160a01b031663e58378bb6040518163ffffffff1660e01b8152600401602060405180830381865afa1580156109d4573d6000803e3d6000fd5b505050506040513d601f19601f820116820180604052508101906109f89190611db9565b6040516001600160e01b031960e084901b1681526004810191909152336024820152604401602060405180830381865afa158015610a3a573d6000803e3d6000fd5b505050506040513d601f19601f82011682018060405250810190610a5e9190611dd2565b80610b3b5750806001600160a01b03166391d14854826001600160a01b031663b536818a6040518163ffffffff1660e01b8152600401602060405180830381865afa158015610ab1573d6000803e3d6000fd5b505050506040513d601f19601f82011682018060405250810190610ad59190611db9565b6040516001600160e01b031960e084901b1681526004810191909152336024820152604401602060405180830381865afa158015610b17573d6000803e3d6000fd5b505050506040513d601f19601f82011682018060405250810190610b3b9190611dd2565b610b815760405162461bcd60e51b815260206004820152601760248201527621286f776e6572526f6c65206f7220676f76526f6c652960481b604482015260640161039c565b61062561167e565b60009182526097602090815260408084206001600160a01b0393909316845291905290205460ff1690565b600054610100900460ff1615808015610bd45750600054600160ff909116105b80610bee5750303b158015610bee575060005460ff166001145b610c515760405162461bcd60e51b815260206004820152602e60248201527f496e697469616c697a61626c653a20636f6e747261637420697320616c72656160448201526d191e481a5b9a5d1a585b1a5e995960921b606482015260840161039c565b6000805460ff191660011790558015610c74576000805461ff0019166101001790555b610c7c6116bb565b610c846116ec565b610c8c611713565b60fd80546001600160a01b0319166001600160a01b0384169081179091556040805163313ce56760e01b8152905163313ce567916004808201926020929091908290030181865afa158015610ce5573d6000803e3d6000fd5b505050506040513d601f19601f82011682018060405250810190610d099190611df4565b60ff90811660fe556001905560fb80546001600160a01b0319166001600160a01b03861690811790915560fc8490556040805163c8cc243f60e01b81529051610e02929163c8cc243f9160048281019260209291908290030181865afa158015610d77573d6000803e3d6000fd5b505050506040513d601f19601f82011682018060405250810190610d9b9190611d9c565b6001600160a01b031663e58378bb6040518163ffffffff1660e01b8152600401602060405180830381865afa158015610dd8573d6000803e3d6000fd5b505050506040513d601f19601f82011682018060405250810190610dfc9190611db9565b33611742565b8015610e48576000805461ff0019169055604051600181527f7f26b83ff96e1f2b6a682f133852f6798a09c465da95921460cefb38474024989060200160405180910390a15b50505050565b600082815260976020526040902060010154610e6981611535565b61032b83836115c5565b60fb546040805163c8cc243f60e01b815290516000926001600160a01b03169163c8cc243f9160048083019260209291908290030181865afa158015610ebd573d6000803e3d6000fd5b505050506040513d601f19601f82011682018060405250810190610ee19190611d9c565b9050806001600160a01b03166391d14854826001600160a01b031663e58378bb6040518163ffffffff1660e01b8152600401602060405180830381865afa158015610f30573d6000803e3d6000fd5b505050506040513d601f19601f82011682018060405250810190610f549190611db9565b6040516001600160e01b031960e084901b1681526004810191909152336024820152604401602060405180830381865afa158015610f96573d6000803e3d6000fd5b505050506040513d601f19601f82011682018060405250810190610fba9190611dd2565b806110975750806001600160a01b03166391d14854826001600160a01b031663d7a47a696040518163ffffffff1660e01b8152600401602060405180830381865afa15801561100d573d6000803e3d6000fd5b505050506040513d601f19601f820116820180604052508101906110319190611db9565b6040516001600160e01b031960e084901b1681526004810191909152336024820152604401602060405180830381865afa158015611073573d6000803e3d6000fd5b505050506040513d601f19601f820116820180604052508101906110979190611dd2565b6110e35760405162461bcd60e51b815260206004820152601f60248201527f21286f776e6572526f6c65206f722073686f7753746f70706572526f6c652900604482015260640161039c565b60ff54156111335760405162461bcd60e51b815260206004820152601a60248201527f41757468546f6b656e416461707465722f6e6f742d6361676564000000000000604482015260640161039c565b600160ff556040517f1868a6ced217213f36be87ba9aee25cde5381b42e85c8f88e73b18772c0bd07390600090a150565b600260c954036111b65760405162461bcd60e51b815260206004820152601f60248201527f5265656e7472616e637947756172643a207265656e7472616e742063616c6c00604482015260640161039c565b600260c9556111c361174c565b60006111e88260fe5460126111d89190611e2d565b6111e390600a611f24565b611792565b9050600081121561120b5760405162461bcd60e51b815260040161039c90611f30565b60fb5460fc546001600160a01b039091169063d295927a903361122d85611f67565b6040516001600160e01b031960e086901b16815260048101939093526001600160a01b0390911660248301526044820152606401600060405180830381600087803b15801561127b57600080fd5b505af115801561128f573d6000803e3d6000fd5b505060fd546112ab92506001600160a01b0316905084846117d2565b826001600160a01b03167f4ce7033d118120e254016dccf195288400b28fc8936425acd5f17ce2df3ab708836040516112e691815260200190565b60405180910390a25050600160c95550565b600260c9540361134a5760405162461bcd60e51b815260206004820152601f60248201527f5265656e7472616e637947756172643a207265656e7472616e742063616c6c00604482015260640161039c565b600260c95561135761174c565b6113817fe799c73ff785ac053943f5d98452f7fa0bcf54da67826fc217d6094dec75c5ee33610b89565b6113cd5760405162461bcd60e51b815260206004820181905260248201527f41757468546f6b656e416461707465722f6e6f742d77686974656c6973746564604482015260640161039c565b60ff5460011461141b5760405162461bcd60e51b815260206004820152601960248201527841757468546f6b656e416461707465722f6e6f742d6c69766560381b604482015260640161039c565b60006114308360fe5460126111d89190611e2d565b905060008112156114535760405162461bcd60e51b815260040161039c90611f30565b60fb5460fc5460405163694ac93d60e11b815260048101919091526001600160a01b038681166024830152604482018490529091169063d295927a90606401600060405180830381600087803b1580156114ac57600080fd5b505af11580156114c0573d6000803e3d6000fd5b505060fd546114dd92506001600160a01b031690508330866118dd565b816001600160a01b0316846001600160a01b03167f7235702039c95755efa35aa4a8208920cc347a1a3685c13ef9ef6dedc2859be18560405161152291815260200190565b60405180910390a35050600160c9555050565b61062581336119f5565b6115498282610b89565b6103af5760008281526097602090815260408083206001600160a01b03851684529091529020805460ff191660011790556115813390565b6001600160a01b0316816001600160a01b0316837f2f8788117e7eff1d82e926ec794901d17c78024a50270940304540a733656f0d60405160405180910390a45050565b6115cf8282610b89565b156103af5760008281526097602090815260408083206001600160a01b0385168085529252808320805460ff1916905551339285917ff6391f5c32d9c69d2a47ea670b442974b53935d1edc7fd64eb21e047a839171b9190a45050565b611634611a59565b6033805460ff191690557f5db9ee0a495bf2e6ff9c91a7834c1ba4fdd244a5e8aa4e537bd38aeae4b073aa335b6040516001600160a01b03909116815260200160405180910390a1565b61168661174c565b6033805460ff191660011790557f62e78cea01bee320cd4e420270b5ea74000d11b0c9f74754ebdbfc544b05a2586116613390565b600054610100900460ff166116e25760405162461bcd60e51b815260040161039c90611f83565b6116ea611aa2565b565b600054610100900460ff166116ea5760405162461bcd60e51b815260040161039c90611f83565b600054610100900460ff1661173a5760405162461bcd60e51b815260040161039c90611f83565b6116ea611ad5565b6103af828261153f565b60335460ff16156116ea5760405162461bcd60e51b815260206004820152601060248201526f14185d5cd8589b194e881c185d5cd95960821b604482015260640161039c565b60008115806117b6575082826117a88183611fce565b92506117b49083611fe5565b145b6103005760405162461bcd60e51b815260040161039c90611f30565b604080516001600160a01b038481166024830152604480830185905283518084039091018152606490920183526020820180516001600160e01b031663a9059cbb60e01b179052915160009283929087169161182e919061202b565b6000604051808303816000865af19150503d806000811461186b576040519150601f19603f3d011682016040523d82523d6000602084013e611870565b606091505b509150915081801561189a57508051158061189a57508080602001905181019061189a9190611dd2565b6118d65760405162461bcd60e51b815260206004820152600d60248201526c10b9b0b332aa3930b739b332b960991b604482015260640161039c565b5050505050565b604080516001600160a01b0385811660248301528481166044830152606480830185905283518084039091018152608490920183526020820180516001600160e01b03166323b872dd60e01b1790529151600092839290881691611941919061202b565b6000604051808303816000865af19150503d806000811461197e576040519150601f19603f3d011682016040523d82523d6000602084013e611983565b606091505b50915091508180156119ad5750805115806119ad5750808060200190518101906119ad9190611dd2565b6119ed5760405162461bcd60e51b815260206004820152601160248201527021736166655472616e7366657246726f6d60781b604482015260640161039c565b505050505050565b6119ff8282610b89565b6103af57611a17816001600160a01b03166014611b03565b611a22836020611b03565b604051602001611a33929190612047565b60408051601f198184030181529082905262461bcd60e51b825261039c916004016120bc565b60335460ff166116ea5760405162461bcd60e51b815260206004820152601460248201527314185d5cd8589b194e881b9bdd081c185d5cd95960621b604482015260640161039c565b600054610100900460ff16611ac95760405162461bcd60e51b815260040161039c90611f83565b6033805460ff19169055565b600054610100900460ff16611afc5760405162461bcd60e51b815260040161039c90611f83565b600160c955565b60606000611b12836002611fce565b611b1d9060026120ef565b67ffffffffffffffff811115611b3557611b35612102565b6040519080825280601f01601f191660200182016040528015611b5f576020820181803683370190505b509050600360fc1b81600081518110611b7a57611b7a612118565b60200101906001600160f81b031916908160001a905350600f60fb1b81600181518110611ba957611ba9612118565b60200101906001600160f81b031916908160001a9053506000611bcd846002611fce565b611bd89060016120ef565b90505b6001811115611c50576f181899199a1a9b1b9c1cb0b131b232b360811b85600f1660108110611c0c57611c0c612118565b1a60f81b828281518110611c2257611c22612118565b60200101906001600160f81b031916908160001a90535060049490941c93611c498161212e565b9050611bdb565b508315611c9f5760405162461bcd60e51b815260206004820181905260248201527f537472696e67733a20686578206c656e67746820696e73756666696369656e74604482015260640161039c565b9392505050565b600060208284031215611cb857600080fd5b81356001600160e01b031981168114611c9f57600080fd5b600060208284031215611ce257600080fd5b5035919050565b6001600160a01b038116811461062557600080fd5b60008060408385031215611d1157600080fd5b823591506020830135611d2381611ce9565b809150509250929050565b600080600060608486031215611d4357600080fd5b8335611d4e81611ce9565b9250602084013591506040840135611d6581611ce9565b809150509250925092565b60008060408385031215611d8357600080fd5b8235611d8e81611ce9565b946020939093013593505050565b600060208284031215611dae57600080fd5b8151611c9f81611ce9565b600060208284031215611dcb57600080fd5b5051919050565b600060208284031215611de457600080fd5b81518015158114611c9f57600080fd5b600060208284031215611e0657600080fd5b815160ff81168114611c9f57600080fd5b634e487b7160e01b600052601160045260246000fd5b8181038181111561030057610300611e17565b600181815b80851115611e7b578160001904821115611e6157611e61611e17565b80851615611e6e57918102915b93841c9390800290611e45565b509250929050565b600082611e9257506001610300565b81611e9f57506000610300565b8160018114611eb55760028114611ebf57611edb565b6001915050610300565b60ff841115611ed057611ed0611e17565b50506001821b610300565b5060208310610133831016604e8410600b8410161715611efe575081810a610300565b611f088383611e40565b8060001904821115611f1c57611f1c611e17565b029392505050565b6000611c9f8383611e83565b60208082526019908201527f41757468546f6b656e416461707465722f6f766572666c6f7700000000000000604082015260600190565b6000600160ff1b8201611f7c57611f7c611e17565b5060000390565b6020808252602b908201527f496e697469616c697a61626c653a20636f6e7472616374206973206e6f74206960408201526a6e697469616c697a696e6760a81b606082015260800190565b808202811582820484141761030057610300611e17565b60008261200257634e487b7160e01b600052601260045260246000fd5b500490565b60005b8381101561202257818101518382015260200161200a565b50506000910152565b6000825161203d818460208701612007565b9190910192915050565b7f416363657373436f6e74726f6c3a206163636f756e742000000000000000000081526000835161207f816017850160208801612007565b7001034b99036b4b9b9b4b733903937b6329607d1b60179184019182015283516120b0816028840160208801612007565b01602801949350505050565b60208152600082518060208401526120db816040850160208701612007565b601f01601f19169190910160400192915050565b8082018082111561030057610300611e17565b634e487b7160e01b600052604160045260246000fd5b634e487b7160e01b600052603260045260246000fd5b60008161213d5761213d611e17565b50600019019056fea26469706673582212207cedb70bf74a45e3681797748c5b2d432b07fe8fe68f04c5f8e4283a60eb8bdb64736f6c63430008110033",
    "immutableReferences": {},
    "source": "// SPDX-License-Identifier: AGPL-3.0-or-later\n\npragma solidity 0.8.17;\n\nimport \"@openzeppelin/contracts-upgradeable/access/OwnableUpgradeable.sol\";\nimport \"@openzeppelin/contracts-upgradeable/security/PausableUpgradeable.sol\";\nimport \"@openzeppelin/contracts-upgradeable/access/AccessControlUpgradeable.sol\";\nimport \"@openzeppelin/contracts-upgradeable/security/ReentrancyGuardUpgradeable.sol\";\n\nimport \"../../interfaces/IBookKeeper.sol\";\nimport \"../../interfaces/IToken.sol\";\nimport \"../../interfaces/IAuthTokenAdapter.sol\";\nimport \"../../interfaces/ICagable.sol\";\nimport \"../../utils/SafeToken.sol\";\n\n// Authed TokenAdapter for a token that has a lower precision than 18 and it has decimals (like USDC)\n\ncontract AuthTokenAdapter is\n  PausableUpgradeable,\n  AccessControlUpgradeable,\n  ReentrancyGuardUpgradeable,\n  IAuthTokenAdapter,\n  ICagable\n{\n  using SafeToken for address;\n\n  bytes32 public constant WHITELISTED = keccak256(\"WHITELISTED\");\n\n  IBookKeeper public override bookKeeper; // cdp engine\n  bytes32 public override collateralPoolId; // collateral pool id\n  IToken public override token; // collateral token\n  uint256 public override decimals; // collateralToken decimals\n  uint256 public live; // Access Flag\n\n  // --- Events ---\n  event LogDeposit(address indexed urn, uint256 wad, address indexed msgSender);\n  event LogWithdraw(address indexed guy, uint256 wad);\n\n  modifier onlyOwnerOrGov() {\n    IAccessControlConfig _accessControlConfig = IAccessControlConfig(IBookKeeper(bookKeeper).accessControlConfig());\n    require(\n      _accessControlConfig.hasRole(_accessControlConfig.OWNER_ROLE(), msg.sender) ||\n        _accessControlConfig.hasRole(_accessControlConfig.GOV_ROLE(), msg.sender),\n      \"!(ownerRole or govRole)\"\n    );\n    _;\n  }\n\n  modifier onlyOwnerOrShowStopper() {\n    IAccessControlConfig _accessControlConfig = IAccessControlConfig(IBookKeeper(bookKeeper).accessControlConfig());\n    require(\n      _accessControlConfig.hasRole(_accessControlConfig.OWNER_ROLE(), msg.sender) ||\n        _accessControlConfig.hasRole(_accessControlConfig.SHOW_STOPPER_ROLE(), msg.sender),\n      \"!(ownerRole or showStopperRole)\"\n    );\n    _;\n  }\n\n  function initialize(\n    address _bookKeeper,\n    bytes32 _collateralPoolId,\n    address _token\n  ) external initializer {\n    PausableUpgradeable.__Pausable_init();\n    AccessControlUpgradeable.__AccessControl_init();\n    ReentrancyGuardUpgradeable.__ReentrancyGuard_init();\n\n    token = IToken(_token);\n    decimals = IToken(_token).decimals();\n    live = 1;\n    bookKeeper = IBookKeeper(_bookKeeper);\n    collateralPoolId = _collateralPoolId;\n\n    // Grant the contract deployer the owner role: it will be able\n    // to grant and revoke any roles\n    _setupRole(IAccessControlConfig(bookKeeper.accessControlConfig()).OWNER_ROLE(), msg.sender);\n  }\n\n  /// @dev access: OWNER_ROLE, SHOW_STOPPER_ROLE\n  function cage() external override onlyOwnerOrShowStopper {\n    require(live == 1, \"AuthTokenAdapter/not-live\");\n    live = 0;\n    emit LogCage();\n  }\n\n  /// @dev access: OWNER_ROLE, SHOW_STOPPER_ROLE\n  function uncage() external override onlyOwnerOrShowStopper {\n    require(live == 0, \"AuthTokenAdapter/not-caged\");\n    live = 1;\n    emit LogUncage();\n  }\n\n  function mul(uint256 _x, uint256 _y) internal pure returns (uint256 _z) {\n    require(_y == 0 || (_z = _x * _y) / _y == _x, \"AuthTokenAdapter/overflow\");\n  }\n\n  /**\n   * @dev Deposit token into the system from the msgSender to be used as collateral\n   * @param _urn The destination address which is holding the collateral token\n   * @param _wad The amount of collateral to be deposit [wad]\n   * @param _msgSender The source address which transfer token\n   * @dev access: WHITELISTED\n   */\n  function deposit(\n    address _urn,\n    uint256 _wad,\n    address _msgSender\n  ) external override nonReentrant whenNotPaused {\n    require(hasRole(WHITELISTED, msg.sender), \"AuthTokenAdapter/not-whitelisted\");\n    require(live == 1, \"AuthTokenAdapter/not-live\");\n    uint256 _wad18 = mul(_wad, 10**(18 - decimals));\n    require(int256(_wad18) >= 0, \"AuthTokenAdapter/overflow\");\n    bookKeeper.addCollateral(collateralPoolId, _urn, int256(_wad18));\n    address(token).safeTransferFrom(_msgSender, address(this), _wad);\n    emit LogDeposit(_urn, _wad, _msgSender);\n  }\n\n  /**\n   * @dev Withdraw token from the system to guy\n   * @param _guy The destination address to receive collateral token\n   * @param _wad The amount of collateral to be withdraw [wad]\n   */\n  function withdraw(address _guy, uint256 _wad) external override nonReentrant whenNotPaused {\n    uint256 _wad18 = mul(_wad, 10**(18 - decimals));\n    require(int256(_wad18) >= 0, \"AuthTokenAdapter/overflow\");\n    bookKeeper.addCollateral(collateralPoolId, msg.sender, -int256(_wad18));\n    address(token).safeTransfer(_guy, _wad);\n    emit LogWithdraw(_guy, _wad);\n  }\n\n  // --- pause ---\n  /// @dev access: OWNER_ROLE, GOV_ROLE\n  function pause() external onlyOwnerOrGov {\n    _pause();\n  }\n\n  /// @dev access: OWNER_ROLE, GOV_ROLE\n  function unpause() external onlyOwnerOrGov {\n    _unpause();\n  }\n}\n",
    "sourcePath": "/Users/sangjun.lee/Sangjun/fathom-stablecoin-smart-contracts/contracts/8.17/stablecoin-core/adapters/AuthTokenAdapter.sol",
    "compiler": {
        "name": "solc",
        "version": "0.8.17+commit.8df45f5f.Emscripten.clang"
    },
    "schemaVersion": "3.4.10",
    "updatedAt": "2022-10-21T07:57:45.091Z",
    "devdoc": {
        "kind": "dev",
        "methods": {
            "cage()": {
                "details": "access: OWNER_ROLE, SHOW_STOPPER_ROLE"
            },
            "deposit(address,uint256,address)": {
                "details": "Deposit token into the system from the msgSender to be used as collateralaccess: WHITELISTED",
                "params": {
                    "_msgSender": "The source address which transfer token",
                    "_urn": "The destination address which is holding the collateral token",
                    "_wad": "The amount of collateral to be deposit [wad]"
                }
            },
            "getRoleAdmin(bytes32)": {
                "details": "Returns the admin role that controls `role`. See {grantRole} and {revokeRole}. To change a role's admin, use {_setRoleAdmin}."
            },
            "grantRole(bytes32,address)": {
                "details": "Grants `role` to `account`. If `account` had not been already granted `role`, emits a {RoleGranted} event. Requirements: - the caller must have ``role``'s admin role. May emit a {RoleGranted} event."
            },
            "hasRole(bytes32,address)": {
                "details": "Returns `true` if `account` has been granted `role`."
            },
            "pause()": {
                "details": "access: OWNER_ROLE, GOV_ROLE"
            },
            "paused()": {
                "details": "Returns true if the contract is paused, and false otherwise."
            },
            "renounceRole(bytes32,address)": {
                "details": "Revokes `role` from the calling account. Roles are often managed via {grantRole} and {revokeRole}: this function's purpose is to provide a mechanism for accounts to lose their privileges if they are compromised (such as when a trusted device is misplaced). If the calling account had been revoked `role`, emits a {RoleRevoked} event. Requirements: - the caller must be `account`. May emit a {RoleRevoked} event."
            },
            "revokeRole(bytes32,address)": {
                "details": "Revokes `role` from `account`. If `account` had been granted `role`, emits a {RoleRevoked} event. Requirements: - the caller must have ``role``'s admin role. May emit a {RoleRevoked} event."
            },
            "supportsInterface(bytes4)": {
                "details": "See {IERC165-supportsInterface}."
            },
            "uncage()": {
                "details": "access: OWNER_ROLE, SHOW_STOPPER_ROLE"
            },
            "unpause()": {
                "details": "access: OWNER_ROLE, GOV_ROLE"
            },
            "withdraw(address,uint256)": {
                "details": "Withdraw token from the system to guy",
                "params": {
                    "_guy": "The destination address to receive collateral token",
                    "_wad": "The amount of collateral to be withdraw [wad]"
                }
            }
        },
        "version": 1
    },
    "userdoc": {
        "kind": "user",
        "methods": {},
        "version": 1
    }
}