{
  "contractName": "BandPriceOracle",
  "abi": [
    {
      "anonymous": false,
      "inputs": [
        {
          "indexed": false,
          "internalType": "uint8",
          "name": "version",
          "type": "uint8"
        }
      ],
      "name": "Initialized",
      "type": "event"
    },
    {
      "anonymous": false,
      "inputs": [
        {
          "indexed": true,
          "internalType": "address",
          "name": "_tokenAddress",
          "type": "address"
        },
        {
          "indexed": false,
          "internalType": "string",
          "name": "_tokenSymbol",
          "type": "string"
        }
      ],
      "name": "LogSetTokenSymbol",
      "type": "event"
    },
    {
      "inputs": [],
      "name": "accessControlConfig",
      "outputs": [
        {
          "internalType": "contract IAccessControlConfig",
          "name": "",
          "type": "address"
        }
      ],
      "stateMutability": "view",
      "type": "function"
    },
    {
      "inputs": [],
      "name": "stdReferenceProxy",
      "outputs": [
        {
          "internalType": "contract IStdReference",
          "name": "",
          "type": "address"
        }
      ],
      "stateMutability": "view",
      "type": "function"
    },
    {
      "inputs": [
        {
          "internalType": "address",
          "name": "",
          "type": "address"
        }
      ],
      "name": "tokenSymbols",
      "outputs": [
        {
          "internalType": "string",
          "name": "",
          "type": "string"
        }
      ],
      "stateMutability": "view",
      "type": "function"
    },
    {
      "inputs": [
        {
          "internalType": "address",
          "name": "_stdReferenceProxy",
          "type": "address"
        },
        {
          "internalType": "address",
          "name": "_accessControlConfig",
          "type": "address"
        }
      ],
      "name": "initialize",
      "outputs": [],
      "stateMutability": "nonpayable",
      "type": "function"
    },
    {
      "inputs": [
        {
          "internalType": "address",
          "name": "_tokenAddress",
          "type": "address"
        },
        {
          "internalType": "string",
          "name": "_tokenSymbol",
          "type": "string"
        }
      ],
      "name": "setTokenSymbol",
      "outputs": [],
      "stateMutability": "nonpayable",
      "type": "function"
    },
    {
      "inputs": [
        {
          "internalType": "address",
          "name": "_token0",
          "type": "address"
        },
        {
          "internalType": "address",
          "name": "_token1",
          "type": "address"
        }
      ],
      "name": "getPrice",
      "outputs": [
        {
          "internalType": "uint256",
          "name": "",
          "type": "uint256"
        },
        {
          "internalType": "uint256",
          "name": "",
          "type": "uint256"
        }
      ],
      "stateMutability": "view",
      "type": "function"
    }
  ],
  "bytecode": "0x608060405234801561001057600080fd5b50610c7a806100206000396000f3fe608060405234801561001057600080fd5b50600436106100625760003560e01c8063485cc955146100675780637eb89d331461007c578063ac41865a146100b2578063c8cc243f146100da578063f036417f146100ed578063fb0b2b3614610100575b600080fd5b61007a61007536600461089c565b610120565b005b600054610095906201000090046001600160a01b031681565b6040516001600160a01b0390911681526020015b60405180910390f35b6100c56100c036600461089c565b610309565b604080519283526020830191909152016100a9565b600154610095906001600160a01b031681565b61007a6100fb366004610916565b610669565b61011361010e3660046109bc565b6107e6565b6040516100a99190610a24565b600054610100900460ff16158080156101405750600054600160ff909116105b8061015a5750303b15801561015a575060005460ff166001145b6101c25760405162461bcd60e51b815260206004820152602e60248201527f496e697469616c697a61626c653a20636f6e747261637420697320616c72656160448201526d191e481a5b9a5d1a585b1a5e995960921b60648201526084015b60405180910390fd5b6000805460ff1916600117905580156101e5576000805461ff0019166101001790555b6000805462010000600160b01b031916620100006001600160a01b03868116820292909217928390556040805163195556f360e21b8152600480820192909252604481019190915263109554d160e21b60648201526080602482015260036084820152621554d160ea1b60a4820152920416906365555bcc9060c401606060405180830381865afa15801561027e573d6000803e3d6000fd5b505050506040513d601f19601f820116820180604052508101906102a29190610a37565b50600180546001600160a01b0319166001600160a01b0384161790558015610304576000805461ff0019169055604051600181527f7f26b83ff96e1f2b6a682f133852f6798a09c465da95921460cefb38474024989060200160405180910390a15b505050565b6001600160a01b038216600090815260026020526040812080548291829161033090610a93565b80601f016020809104026020016040519081016040528092919081815260200182805461035c90610a93565b80156103a95780601f1061037e576101008083540402835291602001916103a9565b820191906000526020600020905b81548152906001019060200180831161038c57829003601f168201915b5050506001600160a01b0387166000908152600260205260408120805494955090939092506103d89150610a93565b80601f016020809104026020016040519081016040528092919081815260200182805461040490610a93565b80156104515780601f1061042657610100808354040283529160200191610451565b820191906000526020600020905b81548152906001019060200180831161043457829003601f168201915b5050505050905080805190602001208280519060200120036104b55760405162461bcd60e51b815260206004820152601b60248201527f42616e6450726963654f7261636c652f73616d652d73796d626f6c000000000060448201526064016101b9565b604080516020808201909252600090528251908301207f3a2db9fe7908dcc36d81824d2338fc3f1aff49ac357dd8c4840527fba27a5b90016105395760405162461bcd60e51b815260206004820152601e60248201527f42616e6450726963654f7261636c652f756e6b6e6f776e2d746f6b656e30000060448201526064016101b9565b604080516020808201909252600090528151908201207f3a2db9fe7908dcc36d81824d2338fc3f1aff49ac357dd8c4840527fba27a5b90016105bd5760405162461bcd60e51b815260206004820152601e60248201527f42616e6450726963654f7261636c652f756e6b6e6f776e2d746f6b656e31000060448201526064016101b9565b6000805460405163195556f360e21b8152620100009091046001600160a01b0316906365555bcc906105f59086908690600401610acd565b606060405180830381865afa158015610612573d6000803e3d6000fd5b505050506040513d601f19601f820116820180604052508101906106369190610a37565b905060008160400151826020015110610653578160400151610659565b81602001515b9151989197509095505050505050565b6001546040805163e58378bb60e01b815290516001600160a01b03909216916391d1485491839163e58378bb916004808201926020929091908290030181865afa1580156106bb573d6000803e3d6000fd5b505050506040513d601f19601f820116820180604052508101906106df9190610afb565b6040516001600160e01b031960e084901b1681526004810191909152336024820152604401602060405180830381865afa158015610721573d6000803e3d6000fd5b505050506040513d601f19601f820116820180604052508101906107459190610b14565b61077e5760405162461bcd60e51b815260206004820152600a602482015269216f776e6572526f6c6560b01b60448201526064016101b9565b6001600160a01b03821660009081526002602052604090206107a08282610b84565b50816001600160a01b03167f98e96baff014754a375324221b70d18c5fb71684cd358d7cf905f7dbf4e1fda3826040516107da9190610a24565b60405180910390a25050565b600260205260009081526040902080546107ff90610a93565b80601f016020809104026020016040519081016040528092919081815260200182805461082b90610a93565b80156108785780601f1061084d57610100808354040283529160200191610878565b820191906000526020600020905b81548152906001019060200180831161085b57829003601f168201915b505050505081565b80356001600160a01b038116811461089757600080fd5b919050565b600080604083850312156108af57600080fd5b6108b883610880565b91506108c660208401610880565b90509250929050565b634e487b7160e01b600052604160045260246000fd5b604051601f8201601f1916810167ffffffffffffffff8111828210171561090e5761090e6108cf565b604052919050565b6000806040838503121561092957600080fd5b61093283610880565b915060208084013567ffffffffffffffff8082111561095057600080fd5b818601915086601f83011261096457600080fd5b813581811115610976576109766108cf565b610988601f8201601f191685016108e5565b9150808252878482850101111561099e57600080fd5b80848401858401376000848284010152508093505050509250929050565b6000602082840312156109ce57600080fd5b6109d782610880565b9392505050565b6000815180845260005b81811015610a04576020818501810151868301820152016109e8565b506000602082860101526020601f19601f83011685010191505092915050565b6020815260006109d760208301846109de565b600060608284031215610a4957600080fd5b6040516060810181811067ffffffffffffffff82111715610a6c57610a6c6108cf565b80604052508251815260208301516020820152604083015160408201528091505092915050565b600181811c90821680610aa757607f821691505b602082108103610ac757634e487b7160e01b600052602260045260246000fd5b50919050565b604081526000610ae060408301856109de565b8281036020840152610af281856109de565b95945050505050565b600060208284031215610b0d57600080fd5b5051919050565b600060208284031215610b2657600080fd5b815180151581146109d757600080fd5b601f82111561030457600081815260208120601f850160051c81016020861015610b5d5750805b601f850160051c820191505b81811015610b7c57828155600101610b69565b505050505050565b815167ffffffffffffffff811115610b9e57610b9e6108cf565b610bb281610bac8454610a93565b84610b36565b602080601f831160018114610be75760008415610bcf5750858301515b600019600386901b1c1916600185901b178555610b7c565b600085815260208120601f198616915b82811015610c1657888601518255948401946001909101908401610bf7565b5085821015610c345787850151600019600388901b60f8161c191681555b5050505050600190811b0190555056fea2646970667358221220d486a01688c4c3b5de5511332e125dab2141bc5f1b4b7a103b3b27c9256e391e64736f6c63430008110033",
  "immutableReferences": {},
  "source": "// SPDX-License-Identifier: AGPL-3.0-or-later\n\npragma solidity 0.8.17;\npragma experimental ABIEncoderV2;\n\nimport \"@openzeppelin/contracts-upgradeable/proxy/utils/Initializable.sol\";\n\nimport \"../interfaces/IFathomOracle.sol\";\nimport \"../interfaces/IStdReference.sol\";\nimport \"../interfaces/IAccessControlConfig.sol\";\n\ncontract BandPriceOracle is IFathomOracle, Initializable {\n  IStdReference public stdReferenceProxy;\n  IAccessControlConfig public accessControlConfig;\n\n  // map between token address and its symbol\n  // note that, we're going to treat \"USD\" as address \"0xfff...fff\"\n  mapping(address => string) public tokenSymbols;\n\n  struct PriceData {\n    uint192 price;\n    uint64 lastUpdate;\n  }\n\n  function initialize(address _stdReferenceProxy, address _accessControlConfig) external initializer {\n    stdReferenceProxy = IStdReference(_stdReferenceProxy);\n\n    // sanity check\n    stdReferenceProxy.getReferenceData(\"BUSD\", \"USD\");\n\n    accessControlConfig = IAccessControlConfig(_accessControlConfig);\n  }\n\n  modifier onlyOwner() {\n    require(accessControlConfig.hasRole(accessControlConfig.OWNER_ROLE(), msg.sender), \"!ownerRole\");\n    _;\n  }\n\n  event LogSetTokenSymbol(address indexed _tokenAddress, string _tokenSymbol);\n\n  /// @dev access: OWNER_ROLE\n  function setTokenSymbol(address _tokenAddress, string memory _tokenSymbol) external onlyOwner {\n    tokenSymbols[_tokenAddress] = _tokenSymbol;\n    emit LogSetTokenSymbol(_tokenAddress, _tokenSymbol);\n  }\n\n  /// @dev Return the wad price of token0/token1, multiplied by 1e18\n  /// NOTE: (if you have 1 token0 how much you can sell it for token1)\n  function getPrice(address _token0, address _token1) external view override returns (uint256, uint256) {\n    string memory symbol0 = tokenSymbols[_token0];\n    string memory symbol1 = tokenSymbols[_token1];\n\n    require(keccak256(bytes(symbol0)) != keccak256(bytes(symbol1)), \"BandPriceOracle/same-symbol\");\n    require(keccak256(bytes(symbol0)) != keccak256(bytes(\"\")), \"BandPriceOracle/unknown-token0\");\n    require(keccak256(bytes(symbol1)) != keccak256(bytes(\"\")), \"BandPriceOracle/unknown-token1\");\n\n    IStdReference.ReferenceData memory priceData = stdReferenceProxy.getReferenceData(symbol0, symbol1);\n\n    // find min lasteUpdate\n    uint256 lastUpdate = priceData.lastUpdatedBase < priceData.lastUpdatedQuote\n      ? priceData.lastUpdatedBase\n      : priceData.lastUpdatedQuote;\n\n    return (priceData.rate, lastUpdate);\n  }\n}\n",
  "sourcePath": "/Users/sangjun.lee/Sangjun/fathom-stablecoin-smart-contracts/contracts/8.17/price-oracles/BandPriceOracle.sol",
  "compiler": {
    "name": "solc",
    "version": "0.8.17+commit.8df45f5f.Emscripten.clang"
  },
  "schemaVersion": "3.4.10",
  "updatedAt": "2022-10-27T10:35:28.573Z",
  "devdoc": {
    "kind": "dev",
    "methods": {
      "getPrice(address,address)": {
        "details": "Return the wad price of token0/token1, multiplied by 1e18 NOTE: (if you have 1 token0 how much you can sell it for token1)"
      },
      "setTokenSymbol(address,string)": {
        "details": "access: OWNER_ROLE"
      }
    },
    "version": 1
  },
  "userdoc": {
    "kind": "user",
    "methods": {},
    "version": 1
  }
}