{
    "contractName": "BookKeeper",
    "abi": [
        {
            "anonymous": false,
            "inputs": [
                {
                    "indexed": false,
                    "internalType": "uint8",
                    "name": "version",
                    "type": "uint8"
                }
            ],
            "name": "Initialized",
            "type": "event"
        },
        {
            "anonymous": false,
            "inputs": [
                {
                    "indexed": true,
                    "internalType": "address",
                    "name": "_caller",
                    "type": "address"
                },
                {
                    "indexed": false,
                    "internalType": "address",
                    "name": "_usr",
                    "type": "address"
                },
                {
                    "indexed": false,
                    "internalType": "int256",
                    "name": "_amount",
                    "type": "int256"
                }
            ],
            "name": "LogAddCollateral",
            "type": "event"
        },
        {
            "anonymous": false,
            "inputs": [
                {
                    "indexed": true,
                    "internalType": "address",
                    "name": "_caller",
                    "type": "address"
                },
                {
                    "indexed": false,
                    "internalType": "bytes32",
                    "name": "_collateralPoolId",
                    "type": "bytes32"
                },
                {
                    "indexed": false,
                    "internalType": "address",
                    "name": "_positionAddress",
                    "type": "address"
                },
                {
                    "indexed": false,
                    "internalType": "uint256",
                    "name": "_lockedCollateral",
                    "type": "uint256"
                },
                {
                    "indexed": false,
                    "internalType": "uint256",
                    "name": "_debtShare",
                    "type": "uint256"
                },
                {
                    "indexed": false,
                    "internalType": "int256",
                    "name": "_addCollateral",
                    "type": "int256"
                },
                {
                    "indexed": false,
                    "internalType": "int256",
                    "name": "_addDebtShare",
                    "type": "int256"
                }
            ],
            "name": "LogAdjustPosition",
            "type": "event"
        },
        {
            "anonymous": false,
            "inputs": [],
            "name": "LogCage",
            "type": "event"
        },
        {
            "anonymous": false,
            "inputs": [
                {
                    "indexed": true,
                    "internalType": "address",
                    "name": "_caller",
                    "type": "address"
                },
                {
                    "indexed": false,
                    "internalType": "bytes32",
                    "name": "_collateralPoolId",
                    "type": "bytes32"
                },
                {
                    "indexed": false,
                    "internalType": "address",
                    "name": "_src",
                    "type": "address"
                },
                {
                    "indexed": false,
                    "internalType": "address",
                    "name": "_dst",
                    "type": "address"
                },
                {
                    "indexed": false,
                    "internalType": "uint256",
                    "name": "_amount",
                    "type": "uint256"
                }
            ],
            "name": "LogMoveCollateral",
            "type": "event"
        },
        {
            "anonymous": false,
            "inputs": [
                {
                    "indexed": true,
                    "internalType": "address",
                    "name": "_caller",
                    "type": "address"
                },
                {
                    "indexed": false,
                    "internalType": "address",
                    "name": "_accessControlConfig",
                    "type": "address"
                }
            ],
            "name": "LogSetAccessControlConfig",
            "type": "event"
        },
        {
            "anonymous": false,
            "inputs": [
                {
                    "indexed": true,
                    "internalType": "address",
                    "name": "_caller",
                    "type": "address"
                },
                {
                    "indexed": false,
                    "internalType": "address",
                    "name": "_collateralPoolConfig",
                    "type": "address"
                }
            ],
            "name": "LogSetCollateralPoolConfig",
            "type": "event"
        },
        {
            "anonymous": false,
            "inputs": [
                {
                    "indexed": true,
                    "internalType": "address",
                    "name": "_caller",
                    "type": "address"
                },
                {
                    "indexed": false,
                    "internalType": "uint256",
                    "name": "_totalDebtCeiling",
                    "type": "uint256"
                }
            ],
            "name": "LogSetTotalDebtCeiling",
            "type": "event"
        },
        {
            "anonymous": false,
            "inputs": [],
            "name": "LogUncage",
            "type": "event"
        },
        {
            "anonymous": false,
            "inputs": [
                {
                    "indexed": false,
                    "internalType": "address",
                    "name": "account",
                    "type": "address"
                }
            ],
            "name": "Paused",
            "type": "event"
        },
        {
            "anonymous": false,
            "inputs": [
                {
                    "indexed": false,
                    "internalType": "address",
                    "name": "account",
                    "type": "address"
                }
            ],
            "name": "Unpaused",
            "type": "event"
        },
        {
            "inputs": [],
            "name": "accessControlConfig",
            "outputs": [
                {
                    "internalType": "address",
                    "name": "",
                    "type": "address"
                }
            ],
            "stateMutability": "view",
            "type": "function"
        },
        {
            "inputs": [],
            "name": "collateralPoolConfig",
            "outputs": [
                {
                    "internalType": "address",
                    "name": "",
                    "type": "address"
                }
            ],
            "stateMutability": "view",
            "type": "function"
        },
        {
            "inputs": [
                {
                    "internalType": "bytes32",
                    "name": "",
                    "type": "bytes32"
                },
                {
                    "internalType": "address",
                    "name": "",
                    "type": "address"
                }
            ],
            "name": "collateralToken",
            "outputs": [
                {
                    "internalType": "uint256",
                    "name": "",
                    "type": "uint256"
                }
            ],
            "stateMutability": "view",
            "type": "function"
        },
        {
            "inputs": [],
            "name": "live",
            "outputs": [
                {
                    "internalType": "uint256",
                    "name": "",
                    "type": "uint256"
                }
            ],
            "stateMutability": "view",
            "type": "function"
        },
        {
            "inputs": [],
            "name": "paused",
            "outputs": [
                {
                    "internalType": "bool",
                    "name": "",
                    "type": "bool"
                }
            ],
            "stateMutability": "view",
            "type": "function"
        },
        {
            "inputs": [
                {
                    "internalType": "address",
                    "name": "",
                    "type": "address"
                },
                {
                    "internalType": "address",
                    "name": "",
                    "type": "address"
                }
            ],
            "name": "positionWhitelist",
            "outputs": [
                {
                    "internalType": "uint256",
                    "name": "",
                    "type": "uint256"
                }
            ],
            "stateMutability": "view",
            "type": "function"
        },
        {
            "inputs": [
                {
                    "internalType": "bytes32",
                    "name": "",
                    "type": "bytes32"
                },
                {
                    "internalType": "address",
                    "name": "",
                    "type": "address"
                }
            ],
            "name": "positions",
            "outputs": [
                {
                    "internalType": "uint256",
                    "name": "lockedCollateral",
                    "type": "uint256"
                },
                {
                    "internalType": "uint256",
                    "name": "debtShare",
                    "type": "uint256"
                }
            ],
            "stateMutability": "view",
            "type": "function"
        },
        {
            "inputs": [
                {
                    "internalType": "address",
                    "name": "",
                    "type": "address"
                }
            ],
            "name": "stablecoin",
            "outputs": [
                {
                    "internalType": "uint256",
                    "name": "",
                    "type": "uint256"
                }
            ],
            "stateMutability": "view",
            "type": "function"
        },
        {
            "inputs": [
                {
                    "internalType": "address",
                    "name": "",
                    "type": "address"
                }
            ],
            "name": "systemBadDebt",
            "outputs": [
                {
                    "internalType": "uint256",
                    "name": "",
                    "type": "uint256"
                }
            ],
            "stateMutability": "view",
            "type": "function"
        },
        {
            "inputs": [],
            "name": "totalDebtCeiling",
            "outputs": [
                {
                    "internalType": "uint256",
                    "name": "",
                    "type": "uint256"
                }
            ],
            "stateMutability": "view",
            "type": "function"
        },
        {
            "inputs": [],
            "name": "totalStablecoinIssued",
            "outputs": [
                {
                    "internalType": "uint256",
                    "name": "",
                    "type": "uint256"
                }
            ],
            "stateMutability": "view",
            "type": "function"
        },
        {
            "inputs": [],
            "name": "totalUnbackedStablecoin",
            "outputs": [
                {
                    "internalType": "uint256",
                    "name": "",
                    "type": "uint256"
                }
            ],
            "stateMutability": "view",
            "type": "function"
        },
        {
            "inputs": [],
            "name": "pause",
            "outputs": [],
            "stateMutability": "nonpayable",
            "type": "function"
        },
        {
            "inputs": [],
            "name": "unpause",
            "outputs": [],
            "stateMutability": "nonpayable",
            "type": "function"
        },
        {
            "inputs": [
                {
                    "internalType": "address",
                    "name": "toBeWhitelistedAddress",
                    "type": "address"
                }
            ],
            "name": "whitelist",
            "outputs": [],
            "stateMutability": "nonpayable",
            "type": "function"
        },
        {
            "inputs": [
                {
                    "internalType": "address",
                    "name": "toBeBlacklistedAddress",
                    "type": "address"
                }
            ],
            "name": "blacklist",
            "outputs": [],
            "stateMutability": "nonpayable",
            "type": "function"
        },
        {
            "inputs": [
                {
                    "internalType": "address",
                    "name": "_collateralPoolConfig",
                    "type": "address"
                },
                {
                    "internalType": "address",
                    "name": "_accessControlConfig",
                    "type": "address"
                }
            ],
            "name": "initialize",
            "outputs": [],
            "stateMutability": "nonpayable",
            "type": "function"
        },
        {
            "inputs": [
                {
                    "internalType": "uint256",
                    "name": "_totalDebtCeiling",
                    "type": "uint256"
                }
            ],
            "name": "setTotalDebtCeiling",
            "outputs": [],
            "stateMutability": "nonpayable",
            "type": "function"
        },
        {
            "inputs": [
                {
                    "internalType": "address",
                    "name": "_accessControlConfig",
                    "type": "address"
                }
            ],
            "name": "setAccessControlConfig",
            "outputs": [],
            "stateMutability": "nonpayable",
            "type": "function"
        },
        {
            "inputs": [
                {
                    "internalType": "address",
                    "name": "_collateralPoolConfig",
                    "type": "address"
                }
            ],
            "name": "setCollateralPoolConfig",
            "outputs": [],
            "stateMutability": "nonpayable",
            "type": "function"
        },
        {
            "inputs": [],
            "name": "cage",
            "outputs": [],
            "stateMutability": "nonpayable",
            "type": "function"
        },
        {
            "inputs": [],
            "name": "uncage",
            "outputs": [],
            "stateMutability": "nonpayable",
            "type": "function"
        },
        {
            "inputs": [
                {
                    "internalType": "bytes32",
                    "name": "_collateralPoolId",
                    "type": "bytes32"
                },
                {
                    "internalType": "address",
                    "name": "_usr",
                    "type": "address"
                },
                {
                    "internalType": "int256",
                    "name": "_amount",
                    "type": "int256"
                }
            ],
            "name": "addCollateral",
            "outputs": [],
            "stateMutability": "nonpayable",
            "type": "function"
        },
        {
            "inputs": [
                {
                    "internalType": "bytes32",
                    "name": "_collateralPoolId",
                    "type": "bytes32"
                },
                {
                    "internalType": "address",
                    "name": "_src",
                    "type": "address"
                },
                {
                    "internalType": "address",
                    "name": "_dst",
                    "type": "address"
                },
                {
                    "internalType": "uint256",
                    "name": "_amount",
                    "type": "uint256"
                }
            ],
            "name": "moveCollateral",
            "outputs": [],
            "stateMutability": "nonpayable",
            "type": "function"
        },
        {
            "inputs": [
                {
                    "internalType": "address",
                    "name": "_src",
                    "type": "address"
                },
                {
                    "internalType": "address",
                    "name": "_dst",
                    "type": "address"
                },
                {
                    "internalType": "uint256",
                    "name": "_value",
                    "type": "uint256"
                }
            ],
            "name": "moveStablecoin",
            "outputs": [],
            "stateMutability": "nonpayable",
            "type": "function"
        },
        {
            "inputs": [
                {
                    "internalType": "bytes32",
                    "name": "_collateralPoolId",
                    "type": "bytes32"
                },
                {
                    "internalType": "address",
                    "name": "_positionAddress",
                    "type": "address"
                },
                {
                    "internalType": "address",
                    "name": "_collateralOwner",
                    "type": "address"
                },
                {
                    "internalType": "address",
                    "name": "_stablecoinOwner",
                    "type": "address"
                },
                {
                    "internalType": "int256",
                    "name": "_collateralValue",
                    "type": "int256"
                },
                {
                    "internalType": "int256",
                    "name": "_debtShare",
                    "type": "int256"
                }
            ],
            "name": "adjustPosition",
            "outputs": [],
            "stateMutability": "nonpayable",
            "type": "function"
        },
        {
            "inputs": [
                {
                    "internalType": "bytes32",
                    "name": "_collateralPoolId",
                    "type": "bytes32"
                },
                {
                    "internalType": "address",
                    "name": "_src",
                    "type": "address"
                },
                {
                    "internalType": "address",
                    "name": "_dst",
                    "type": "address"
                },
                {
                    "internalType": "int256",
                    "name": "_collateralAmount",
                    "type": "int256"
                },
                {
                    "internalType": "int256",
                    "name": "_debtShare",
                    "type": "int256"
                }
            ],
            "name": "movePosition",
            "outputs": [],
            "stateMutability": "nonpayable",
            "type": "function"
        },
        {
            "inputs": [
                {
                    "internalType": "bytes32",
                    "name": "_collateralPoolId",
                    "type": "bytes32"
                },
                {
                    "internalType": "address",
                    "name": "_positionAddress",
                    "type": "address"
                },
                {
                    "internalType": "address",
                    "name": "_collateralCreditor",
                    "type": "address"
                },
                {
                    "internalType": "address",
                    "name": "_stablecoinDebtor",
                    "type": "address"
                },
                {
                    "internalType": "int256",
                    "name": "_collateralAmount",
                    "type": "int256"
                },
                {
                    "internalType": "int256",
                    "name": "_debtShare",
                    "type": "int256"
                }
            ],
            "name": "confiscatePosition",
            "outputs": [],
            "stateMutability": "nonpayable",
            "type": "function"
        },
        {
            "inputs": [
                {
                    "internalType": "uint256",
                    "name": "_value",
                    "type": "uint256"
                }
            ],
            "name": "settleSystemBadDebt",
            "outputs": [],
            "stateMutability": "nonpayable",
            "type": "function"
        },
        {
            "inputs": [
                {
                    "internalType": "address",
                    "name": "_from",
                    "type": "address"
                },
                {
                    "internalType": "address",
                    "name": "_to",
                    "type": "address"
                },
                {
                    "internalType": "uint256",
                    "name": "_value",
                    "type": "uint256"
                }
            ],
            "name": "mintUnbackedStablecoin",
            "outputs": [],
            "stateMutability": "nonpayable",
            "type": "function"
        },
        {
            "inputs": [
                {
                    "internalType": "bytes32",
                    "name": "_collateralPoolId",
                    "type": "bytes32"
                },
                {
                    "internalType": "address",
                    "name": "_stabilityFeeRecipient",
                    "type": "address"
                },
                {
                    "internalType": "int256",
                    "name": "_debtAccumulatedRate",
                    "type": "int256"
                }
            ],
            "name": "accrueStabilityFee",
            "outputs": [],
            "stateMutability": "nonpayable",
            "type": "function"
        }
    ],
    "bytecode": "0x608060405234801561001057600080fd5b506133e8806100206000396000f3fe608060405234801561001057600080fd5b50600436106101e55760003560e01c806390d536391161010f578063d63b23b2116100a2578063ec50009911610071578063ec5000991461042d578063f635d8a714610440578063f8be242c14610453578063f9f92be41461047e57600080fd5b8063d63b23b2146103c7578063d8682461146103cf578063d9ea9155146103e2578063e137ddc51461040d57600080fd5b8063b4ac08bb116100de578063b4ac08bb14610356578063b5d9932914610376578063c8cc243f14610389578063d295927a146103b457600080fd5b806390d5363914610314578063957aa58c146103275780639b19251a14610330578063b1df25941461034357600080fd5b80635c975abb11610187578063815110ec11610156578063815110ec146102d35780638456cb59146102e657806384e44abb146102ee5780638c1578541461030157600080fd5b80635c975abb1461029957806369245009146102af5780636a321151146102b75780636f3a3bfc146102ca57600080fd5b8063485cc955116101c3578063485cc9551461025357806354eb03a21461026657806356bd594a1461027d5780635b2a51211461029057600080fd5b806303ab9076146101ea57806329d88594146101ff5780633f4ba83a1461024b575b600080fd5b6101fd6101f8366004612f74565b610491565b005b61023161020d366004612fc2565b60986020908152600092835260408084209091529082529020805460019091015482565b604080519283526020830191909152015b60405180910390f35b6101fd6108af565b6101fd610261366004612fee565b610aac565b61026f609d5481565b604051908152602001610242565b6101fd61028b366004613018565b610bfc565b61026f609e5481565b60335460ff166040519015158152602001610242565b6101fd61134b565b6101fd6102c5366004613077565b611596565b61026f609c5481565b6101fd6102e13660046130b3565b611774565b6101fd61181b565b6101fd6102fc3660046130b3565b611a15565b6101fd61030f366004613077565b611b68565b6101fd6103223660046130cc565b611c35565b61026f609f5481565b6101fd61033e3660046130f1565b611ef8565b6101fd610351366004613018565b611f2a565b61026f6103643660046130f1565b609a6020526000908152604090205481565b6101fd61038436600461310c565b612256565b60a15461039c906001600160a01b031681565b6040516001600160a01b039091168152602001610242565b6101fd6103c23660046130cc565b6124ab565b6101fd612683565b60a05461039c906001600160a01b031681565b61026f6103f0366004612fee565b609760209081526000928352604080842090915290825290205481565b61026f61041b3660046130f1565b609b6020526000908152604090205481565b6101fd61043b3660046130f1565b6128f3565b6101fd61044e3660046130f1565b612b06565b61026f610461366004612fc2565b609960209081526000928352604080842090915290825290205481565b6101fd61048c3660046130f1565b612c48565b6002606554036104bc5760405162461bcd60e51b81526004016104b390613150565b60405180910390fd5b60026065556104c9612c79565b60a15460408051636e19aa5960e01b815290516001600160a01b039092169182916391d14854918391636e19aa599160048083019260209291908290030181865afa15801561051c573d6000803e3d6000fd5b505050506040513d601f19601f820116820180604052508101906105409190613187565b336040518363ffffffff1660e01b815260040161055e9291906131a0565b602060405180830381865afa15801561057b573d6000803e3d6000fd5b505050506040513d601f19601f8201168201806040525081019061059f91906131b7565b6105e25760405162461bcd60e51b815260206004820152601460248201527321706f736974696f6e4d616e61676572526f6c6560601b60448201526064016104b3565b60008681526098602090815260408083206001600160a01b0389811685529252808320878316845281842060a05492516309023b4f60e11b8152600481018c90529194909390921690631204769e9060240160a060405180830381865afa158015610651573d6000803e3d6000fd5b505050506040513d601f19601f8201168201806040525081019061067591906131d9565b9050610685836000015487612cc1565b835560018301546106969086612cc1565b600184015581546106a79087612cfc565b825560018201546106b89086612cfc565b826001018190555060006106d484600101548360000151612d30565b905060006106ea84600101548460000151612d30565b90506107076106f98b33612d43565b6107038b33612d43565b1690565b6107235760405162461bcd60e51b81526004016104b390613257565b61073585600001548460600151612d30565b8211156107845760405162461bcd60e51b815260206004820152601760248201527f426f6f6b4b65657065722f6e6f742d736166652d73726300000000000000000060448201526064016104b3565b61079684600001548460600151612d30565b8111156107e55760405162461bcd60e51b815260206004820152601760248201527f426f6f6b4b65657065722f6e6f742d736166652d64737400000000000000000060448201526064016104b3565b608083015160018601541590831015176108415760405162461bcd60e51b815260206004820152601960248201527f426f6f6b4b65657065722f646562742d666c6f6f722d7372630000000000000060448201526064016104b3565b6080830151600185015415908210151761089d5760405162461bcd60e51b815260206004820152601960248201527f426f6f6b4b65657065722f646562742d666c6f6f722d6473740000000000000060448201526064016104b3565b50506001606555505050505050505050565b60a1546040805163e58378bb60e01b815290516001600160a01b039092169182916391d1485491839163e58378bb9160048083019260209291908290030181865afa158015610902573d6000803e3d6000fd5b505050506040513d601f19601f820116820180604052508101906109269190613187565b336040518363ffffffff1660e01b81526004016109449291906131a0565b602060405180830381865afa158015610961573d6000803e3d6000fd5b505050506040513d601f19601f8201168201806040525081019061098591906131b7565b80610a5b5750806001600160a01b03166391d14854826001600160a01b031663b536818a6040518163ffffffff1660e01b8152600401602060405180830381865afa1580156109d8573d6000803e3d6000fd5b505050506040513d601f19601f820116820180604052508101906109fc9190613187565b336040518363ffffffff1660e01b8152600401610a1a9291906131a0565b602060405180830381865afa158015610a37573d6000803e3d6000fd5b505050506040513d601f19601f82011682018060405250810190610a5b91906131b7565b610aa15760405162461bcd60e51b815260206004820152601760248201527621286f776e6572526f6c65206f7220676f76526f6c652960481b60448201526064016104b3565b610aa9612d7b565b50565b600054610100900460ff1615808015610acc5750600054600160ff909116105b80610ae65750303b158015610ae6575060005460ff166001145b610b495760405162461bcd60e51b815260206004820152602e60248201527f496e697469616c697a61626c653a20636f6e747261637420697320616c72656160448201526d191e481a5b9a5d1a585b1a5e995960921b60648201526084016104b3565b6000805460ff191660011790558015610b6c576000805461ff0019166101001790555b610b74612dcd565b610b7c612dfc565b60a080546001600160a01b038086166001600160a01b03199283161790925560a18054928516929091169190911790556001609f558015610bf7576000805461ff0019169055604051600181527f7f26b83ff96e1f2b6a682f133852f6798a09c465da95921460cefb38474024989060200160405180910390a15b505050565b600260655403610c1e5760405162461bcd60e51b81526004016104b390613150565b6002606555610c2b612c79565b60a15460408051636e19aa5960e01b815290516001600160a01b039092169182916391d14854918391636e19aa599160048083019260209291908290030181865afa158015610c7e573d6000803e3d6000fd5b505050506040513d601f19601f82011682018060405250810190610ca29190613187565b336040518363ffffffff1660e01b8152600401610cc09291906131a0565b602060405180830381865afa158015610cdd573d6000803e3d6000fd5b505050506040513d601f19601f82011682018060405250810190610d0191906131b7565b610d445760405162461bcd60e51b815260206004820152601460248201527321706f736974696f6e4d616e61676572526f6c6560601b60448201526064016104b3565b609f54600114610d665760405162461bcd60e51b81526004016104b390613287565b60008781526098602090815260408083206001600160a01b038a8116855290835281842082518084018452815481526001909101549381019390935260a05491516309023b4f60e11b8152600481018c9052929392911690631204769e9060240160a060405180830381865afa158015610de4573d6000803e3d6000fd5b505050506040513d601f19601f82011682018060405250810190610e0891906131d9565b8051909150600003610e675760405162461bcd60e51b815260206004820152602260248201527f426f6f6b4b65657065722f636f6c6c61746572616c506f6f6c2d6e6f742d696e6044820152611a5d60f21b60648201526084016104b3565b8151610e739086612cfc565b82526020820151610e849085612cfc565b826020018181525050610e9b816020015185612cfc565b6020820181905260a0546040516359d8e7d160e11b8152600481018c905260248101929092526001600160a01b03169063b3b1cfa290604401600060405180830381600087803b158015610eee57600080fd5b505af1158015610f02573d6000803e3d6000fd5b505050506000610f16826000015186612e2b565b90506000610f2c83600001518560200151612d30565b9050610f3a609c5483612cfc565b609c81905550610f746000871315610f708560400151610f6287602001518860000151612d30565b1115609e54609c5411151690565b1790565b610fc05760405162461bcd60e51b815260206004820152601b60248201527f426f6f6b4b65657065722f6365696c696e672d6578636565646564000000000060448201526064016104b3565b610fed610fd4600088131560008a12151690565b610fe686600001518660600151612d30565b8311151790565b61102f5760405162461bcd60e51b8152602060048201526013602482015272426f6f6b4b65657065722f6e6f742d7361666560681b60448201526064016104b3565b61104d611043600088131560008a12151690565b610f708c33612d43565b6110a95760405162461bcd60e51b815260206004820152602760248201527f426f6f6b4b65657065722f6e6f742d616c6c6f7765642d706f736974696f6e2d6044820152666164647265737360c81b60648201526084016104b3565b6110bb6000881315610f708b33612d43565b6111175760405162461bcd60e51b815260206004820152602760248201527f426f6f6b4b65657065722f6e6f742d616c6c6f7765642d636f6c6c61746572616044820152663616b7bbb732b960c91b60648201526084016104b3565b6111296000871215610f708a33612d43565b6111855760405162461bcd60e51b815260206004820152602760248201527f426f6f6b4b65657065722f6e6f742d616c6c6f7765642d737461626c65636f696044820152663716b7bbb732b960c91b60648201526084016104b3565b602084015160808401518210159015176111d95760405162461bcd60e51b81526020600482015260156024820152742137b7b5a5b2b2b832b917b232b13a16b33637b7b960591b60448201526064016104b3565b60008b81526099602090815260408083206001600160a01b038d1684529091529020546112069088612cc1565b60008c81526099602090815260408083206001600160a01b03808f16855290835281842094909455928b168252609a905220546112439083612cfc565b609a60008a6001600160a01b03166001600160a01b031681526020019081526020016000208190555083609860008d815260200190815260200160002060008c6001600160a01b03166001600160a01b031681526020019081526020016000206000820151816000015560208201518160010155905050336001600160a01b03167f9b94d9430dddc4ac521de354f6e41dda42e93122366c22ea833f7b216daf86138c8c876000015188602001518c8c604051611331969594939291909586526001600160a01b0394909416602086015260408501929092526060840152608083015260a082015260c00190565b60405180910390a250506001606555505050505050505050565b60a1546040805163e58378bb60e01b815290516001600160a01b039092169182916391d1485491839163e58378bb9160048083019260209291908290030181865afa15801561139e573d6000803e3d6000fd5b505050506040513d601f19601f820116820180604052508101906113c29190613187565b336040518363ffffffff1660e01b81526004016113e09291906131a0565b602060405180830381865afa1580156113fd573d6000803e3d6000fd5b505050506040513d601f19601f8201168201806040525081019061142191906131b7565b806114f75750806001600160a01b03166391d14854826001600160a01b031663d7a47a696040518163ffffffff1660e01b8152600401602060405180830381865afa158015611474573d6000803e3d6000fd5b505050506040513d601f19601f820116820180604052508101906114989190613187565b336040518363ffffffff1660e01b81526004016114b69291906131a0565b602060405180830381865afa1580156114d3573d6000803e3d6000fd5b505050506040513d601f19601f820116820180604052508101906114f791906131b7565b6115435760405162461bcd60e51b815260206004820152601f60248201527f21286f776e6572526f6c65206f722073686f7753746f70706572526f6c65290060448201526064016104b3565b609f546001146115655760405162461bcd60e51b81526004016104b390613287565b6000609f8190556040517fbf689b4aae670d200b1d2b971ace2e0c3bef88a9c5e93f36705c7b86eab630b99190a150565b6002606554036115b85760405162461bcd60e51b81526004016104b390613150565b60026065556115c5612c79565b60a154604080516308e45bc560e01b815290516001600160a01b039092169182916391d148549183916308e45bc59160048083019260209291908290030181865afa158015611618573d6000803e3d6000fd5b505050506040513d601f19601f8201168201806040525081019061163c9190613187565b336040518363ffffffff1660e01b815260040161165a9291906131a0565b602060405180830381865afa158015611677573d6000803e3d6000fd5b505050506040513d601f19601f8201168201806040525081019061169b91906131b7565b6116d75760405162461bcd60e51b815260206004820152600d60248201526c216d696e7461626c65526f6c6560981b60448201526064016104b3565b6001600160a01b0384166000908152609b60205260409020546116fa9083612e59565b6001600160a01b038086166000908152609b60209081526040808320949094559186168152609a90915220546117309083612e59565b6001600160a01b0384166000908152609a6020526040902055609d546117569083612e59565b609d55609c546117669083612e59565b609c55505060016065555050565b6002606554036117965760405162461bcd60e51b81526004016104b390613150565b60026065556117a3612c79565b336000908152609b60205260409020546117bd9082612e65565b336000908152609b6020908152604080832093909355609a905220546117e39082612e65565b336000908152609a6020526040902055609d546118009082612e65565b609d55609c546118109082612e65565b609c55506001606555565b60a1546040805163e58378bb60e01b815290516001600160a01b039092169182916391d1485491839163e58378bb9160048083019260209291908290030181865afa15801561186e573d6000803e3d6000fd5b505050506040513d601f19601f820116820180604052508101906118929190613187565b336040518363ffffffff1660e01b81526004016118b09291906131a0565b602060405180830381865afa1580156118cd573d6000803e3d6000fd5b505050506040513d601f19601f820116820180604052508101906118f191906131b7565b806119c75750806001600160a01b03166391d14854826001600160a01b031663b536818a6040518163ffffffff1660e01b8152600401602060405180830381865afa158015611944573d6000803e3d6000fd5b505050506040513d601f19601f820116820180604052508101906119689190613187565b336040518363ffffffff1660e01b81526004016119869291906131a0565b602060405180830381865afa1580156119a3573d6000803e3d6000fd5b505050506040513d601f19601f820116820180604052508101906119c791906131b7565b611a0d5760405162461bcd60e51b815260206004820152601760248201527621286f776e6572526f6c65206f7220676f76526f6c652960481b60448201526064016104b3565b610aa9612e71565b60a1546040805163e58378bb60e01b815290516001600160a01b039092169182916391d1485491839163e58378bb9160048083019260209291908290030181865afa158015611a68573d6000803e3d6000fd5b505050506040513d601f19601f82011682018060405250810190611a8c9190613187565b336040518363ffffffff1660e01b8152600401611aaa9291906131a0565b602060405180830381865afa158015611ac7573d6000803e3d6000fd5b505050506040513d601f19601f82011682018060405250810190611aeb91906131b7565b611b075760405162461bcd60e51b81526004016104b3906132b4565b609f54600114611b295760405162461bcd60e51b81526004016104b390613287565b609e82905560405182815233907f40f69e672a10878e2ae12a782e2a123f25152d75979b2f9c50295f44ff4e308d906020015b60405180910390a25050565b600260655403611b8a5760405162461bcd60e51b81526004016104b390613150565b6002606555611b97612c79565b611ba18333612d43565b611bbd5760405162461bcd60e51b81526004016104b390613257565b6001600160a01b0383166000908152609a6020526040902054611be09082612e65565b6001600160a01b038085166000908152609a60205260408082209390935590841681522054611c0f9082612e59565b6001600160a01b039092166000908152609a602052604090209190915550506001606555565b600260655403611c575760405162461bcd60e51b81526004016104b390613150565b6002606555611c64612c79565b60a15460408051620470d160eb1b815290516001600160a01b039092169182916391d1485491839163238688009160048083019260209291908290030181865afa158015611cb6573d6000803e3d6000fd5b505050506040513d601f19601f82011682018060405250810190611cda9190613187565b336040518363ffffffff1660e01b8152600401611cf89291906131a0565b602060405180830381865afa158015611d15573d6000803e3d6000fd5b505050506040513d601f19601f82011682018060405250810190611d3991906131b7565b611d855760405162461bcd60e51b815260206004820152601a60248201527f2173746162696c697479466565436f6c6c6563746f72526f6c6500000000000060448201526064016104b3565b609f54600114611da75760405162461bcd60e51b81526004016104b390613287565b60a0546040516309023b4f60e11b8152600481018690526000916001600160a01b031690631204769e9060240160a060405180830381865afa158015611df1573d6000803e3d6000fd5b505050506040513d601f19601f82011682018060405250810190611e1591906131d9565b9050611e25816000015184612cfc565b80825260a05460405163e47f3c6f60e01b81526004810188905260248101929092526001600160a01b03169063e47f3c6f90604401600060405180830381600087803b158015611e7457600080fd5b505af1158015611e88573d6000803e3d6000fd5b505050506000611e9c826020015185612e2b565b6001600160a01b0386166000908152609a6020526040902054909150611ec29082612cfc565b6001600160a01b0386166000908152609a6020526040902055609c54611ee89082612cfc565b609c555050600160655550505050565b611f00612c79565b3360009081526097602090815260408083206001600160a01b039490941683529290522060019055565b600260655403611f4c5760405162461bcd60e51b81526004016104b390613150565b6002606555611f59612c79565b60a1546040805163e8ff193d60e01b815290516001600160a01b039092169182916391d1485491839163e8ff193d9160048083019260209291908290030181865afa158015611fac573d6000803e3d6000fd5b505050506040513d601f19601f82011682018060405250810190611fd09190613187565b336040518363ffffffff1660e01b8152600401611fee9291906131a0565b602060405180830381865afa15801561200b573d6000803e3d6000fd5b505050506040513d601f19601f8201168201806040525081019061202f91906131b7565b6120745760405162461bcd60e51b8152602060048201526016602482015275216c69717569646174696f6e456e67696e65526f6c6560501b60448201526064016104b3565b60008781526098602090815260408083206001600160a01b038a81168552925280832060a05491516309023b4f60e11b8152600481018c90529093929190911690631204769e9060240160a060405180830381865afa1580156120db573d6000803e3d6000fd5b505050506040513d601f19601f820116820180604052508101906120ff91906131d9565b905061210f826000015486612cfc565b825560018201546121209085612cfc565b600183015560208101516121349085612cfc565b6020820181905260a0546040516359d8e7d160e11b8152600481018c905260248101929092526001600160a01b03169063b3b1cfa290604401600060405180830381600087803b15801561218757600080fd5b505af115801561219b573d6000803e3d6000fd5b5050505060006121af826000015186612e2b565b60008b81526099602090815260408083206001600160a01b038d1684529091529020549091506121df9087612cc1565b60008b81526099602090815260408083206001600160a01b03808e16855290835281842094909455928a168252609b9052205461221c9082612cc1565b6001600160a01b0388166000908152609b6020526040902055609d546122429082612cc1565b609d55505060016065555050505050505050565b6002606554036122785760405162461bcd60e51b81526004016104b390613150565b6002606555612285612c79565b60a15460408051632e718ab760e01b815290516001600160a01b039092169182916391d14854918391632e718ab79160048083019260209291908290030181865afa1580156122d8573d6000803e3d6000fd5b505050506040513d601f19601f820116820180604052508101906122fc9190613187565b336040518363ffffffff1660e01b815260040161231a9291906131a0565b602060405180830381865afa158015612337573d6000803e3d6000fd5b505050506040513d601f19601f8201168201806040525081019061235b91906131b7565b6123a05760405162461bcd60e51b815260206004820152601660248201527521636f6c6c61746572616c4d616e61676572526f6c6560501b60448201526064016104b3565b6123aa8433612d43565b6123c65760405162461bcd60e51b81526004016104b390613257565b60008581526099602090815260408083206001600160a01b03881684529091529020546123f39083612e65565b60008681526099602090815260408083206001600160a01b03898116855292528083209390935585168152205461242a9083612e59565b60008681526099602090815260408083206001600160a01b0388811680865291845293829020949094558051898152928816918301919091528101919091526060810183905233907f545a77591462bbdd247f8de3aabb8666317d6937475594c9df7e48f32b44e20a9060800160405180910390a250506001606555505050565b6002606554036124cd5760405162461bcd60e51b81526004016104b390613150565b60026065556124da612c79565b60a15460408051630154417360e11b815290516001600160a01b039092169182916391d148549183916302a882e69160048083019260209291908290030181865afa15801561252d573d6000803e3d6000fd5b505050506040513d601f19601f820116820180604052508101906125519190613187565b336040518363ffffffff1660e01b815260040161256f9291906131a0565b602060405180830381865afa15801561258c573d6000803e3d6000fd5b505050506040513d601f19601f820116820180604052508101906125b091906131b7565b6125eb5760405162461bcd60e51b815260206004820152600c60248201526b2161646170746572526f6c6560a01b60448201526064016104b3565b60008481526099602090815260408083206001600160a01b03871684529091529020546126189083612cfc565b60008581526099602090815260408083206001600160a01b03881680855290835292819020939093558251918252810184905233917ff61a861415a232c4e7fc9cc6939614aa780fd55601ac4bdf95db158bd642e274910160405180910390a2505060016065555050565b60a1546040805163e58378bb60e01b815290516001600160a01b039092169182916391d1485491839163e58378bb9160048083019260209291908290030181865afa1580156126d6573d6000803e3d6000fd5b505050506040513d601f19601f820116820180604052508101906126fa9190613187565b336040518363ffffffff1660e01b81526004016127189291906131a0565b602060405180830381865afa158015612735573d6000803e3d6000fd5b505050506040513d601f19601f8201168201806040525081019061275991906131b7565b8061282f5750806001600160a01b03166391d14854826001600160a01b031663d7a47a696040518163ffffffff1660e01b8152600401602060405180830381865afa1580156127ac573d6000803e3d6000fd5b505050506040513d601f19601f820116820180604052508101906127d09190613187565b336040518363ffffffff1660e01b81526004016127ee9291906131a0565b602060405180830381865afa15801561280b573d6000803e3d6000fd5b505050506040513d601f19601f8201168201806040525081019061282f91906131b7565b61287b5760405162461bcd60e51b815260206004820152601f60248201527f21286f776e6572526f6c65206f722073686f7753746f70706572526f6c65290060448201526064016104b3565b609f54156128c25760405162461bcd60e51b8152602060048201526014602482015273109bdbdad2d9595c195c8bdb9bdd0b58d859d95960621b60448201526064016104b3565b6001609f556040517f1868a6ced217213f36be87ba9aee25cde5381b42e85c8f88e73b18772c0bd07390600090a150565b60a1546040805163e58378bb60e01b815290516001600160a01b039092169182916391d1485491839163e58378bb9160048083019260209291908290030181865afa158015612946573d6000803e3d6000fd5b505050506040513d601f19601f8201168201806040525081019061296a9190613187565b336040518363ffffffff1660e01b81526004016129889291906131a0565b602060405180830381865afa1580156129a5573d6000803e3d6000fd5b505050506040513d601f19601f820116820180604052508101906129c991906131b7565b6129e55760405162461bcd60e51b81526004016104b3906132b4565b816001600160a01b03166391d14854836001600160a01b031663e58378bb6040518163ffffffff1660e01b8152600401602060405180830381865afa158015612a32573d6000803e3d6000fd5b505050506040513d601f19601f82011682018060405250810190612a569190613187565b336040518363ffffffff1660e01b8152600401612a749291906131a0565b602060405180830381865afa158015612a91573d6000803e3d6000fd5b505050506040513d601f19601f82011682018060405250810190612ab591906131b7565b5060a180546001600160a01b0319166001600160a01b03841690811790915560405190815233907f104d594bb3ca960b0fc4fe7e747247b97b766449771c92e9a57395b370fd9a6290602001611b5c565b60a1546040805163e58378bb60e01b815290516001600160a01b039092169182916391d1485491839163e58378bb9160048083019260209291908290030181865afa158015612b59573d6000803e3d6000fd5b505050506040513d601f19601f82011682018060405250810190612b7d9190613187565b336040518363ffffffff1660e01b8152600401612b9b9291906131a0565b602060405180830381865afa158015612bb8573d6000803e3d6000fd5b505050506040513d601f19601f82011682018060405250810190612bdc91906131b7565b612bf85760405162461bcd60e51b81526004016104b3906132b4565b60a080546001600160a01b0319166001600160a01b03841690811790915560405190815233907f0223eb47811767b900acc3004a53292afccdf30a6334f8d93984f7c7916f6ecb90602001611b5c565b612c50612c79565b3360009081526097602090815260408083206001600160a01b0394909416835292905290812055565b60335460ff1615612cbf5760405162461bcd60e51b815260206004820152601060248201526f14185d5cd8589b194e881c185d5cd95960821b60448201526064016104b3565b565b808203600082131580612cd45750828111155b612cdd57600080fd5b600082121580612ced5750828110155b612cf657600080fd5b92915050565b818101600082121580612d0f5750828111155b612d1857600080fd5b600082131580612ced575082811015612cf657600080fd5b6000612d3c82846132ee565b9392505050565b6001600160a01b038281166000818152609760209081526040808320948616808452949091528120549092612d3c9214906001141790565b612d83612eae565b6033805460ff191690557f5db9ee0a495bf2e6ff9c91a7834c1ba4fdd244a5e8aa4e537bd38aeae4b073aa335b6040516001600160a01b03909116815260200160405180910390a1565b600054610100900460ff16612df45760405162461bcd60e51b81526004016104b390613305565b612cbf612ef7565b600054610100900460ff16612e235760405162461bcd60e51b81526004016104b390613305565b612cbf612f2a565b8181026000831215612e3c57600080fd5b811580612ced575082612e4f8383613350565b14612cf657600080fd5b6000612d3c828461338c565b6000612d3c828461339f565b612e79612c79565b6033805460ff191660011790557f62e78cea01bee320cd4e420270b5ea74000d11b0c9f74754ebdbfc544b05a258612db03390565b60335460ff16612cbf5760405162461bcd60e51b815260206004820152601460248201527314185d5cd8589b194e881b9bdd081c185d5cd95960621b60448201526064016104b3565b600054610100900460ff16612f1e5760405162461bcd60e51b81526004016104b390613305565b6033805460ff19169055565b600054610100900460ff16612f515760405162461bcd60e51b81526004016104b390613305565b6001606555565b80356001600160a01b0381168114612f6f57600080fd5b919050565b600080600080600060a08688031215612f8c57600080fd5b85359450612f9c60208701612f58565b9350612faa60408701612f58565b94979396509394606081013594506080013592915050565b60008060408385031215612fd557600080fd5b82359150612fe560208401612f58565b90509250929050565b6000806040838503121561300157600080fd5b61300a83612f58565b9150612fe560208401612f58565b60008060008060008060c0878903121561303157600080fd5b8635955061304160208801612f58565b945061304f60408801612f58565b935061305d60608801612f58565b92506080870135915060a087013590509295509295509295565b60008060006060848603121561308c57600080fd5b61309584612f58565b92506130a360208501612f58565b9150604084013590509250925092565b6000602082840312156130c557600080fd5b5035919050565b6000806000606084860312156130e157600080fd5b833592506130a360208501612f58565b60006020828403121561310357600080fd5b612d3c82612f58565b6000806000806080858703121561312257600080fd5b8435935061313260208601612f58565b925061314060408601612f58565b9396929550929360600135925050565b6020808252601f908201527f5265656e7472616e637947756172643a207265656e7472616e742063616c6c00604082015260600190565b60006020828403121561319957600080fd5b5051919050565b9182526001600160a01b0316602082015260400190565b6000602082840312156131c957600080fd5b81518015158114612d3c57600080fd5b600060a082840312156131eb57600080fd5b60405160a0810181811067ffffffffffffffff8211171561321c57634e487b7160e01b600052604160045260246000fd5b806040525082518152602083015160208201526040830151604082015260608301516060820152608083015160808201528091505092915050565b602080825260169082015275109bdbdad2d9595c195c8bdb9bdd0b585b1b1bddd95960521b604082015260600190565b602080825260139082015272426f6f6b4b65657065722f6e6f742d6c69766560681b604082015260600190565b6020808252600a9082015269216f776e6572526f6c6560b01b604082015260600190565b634e487b7160e01b600052601160045260246000fd5b8082028115828204841417612cf657612cf66132d8565b6020808252602b908201527f496e697469616c697a61626c653a20636f6e7472616374206973206e6f74206960408201526a6e697469616c697a696e6760a81b606082015260800190565b60008261336d57634e487b7160e01b600052601260045260246000fd5b600160ff1b821460001984141615613387576133876132d8565b500590565b80820180821115612cf657612cf66132d8565b81810381811115612cf657612cf66132d856fea2646970667358221220c5d1b6c0968866967ee63b036e3b67e5a765273553de892198f77da35bbb46a464736f6c63430008110033",
    "immutableReferences": {},
    "source": "// SPDX-License-Identifier: AGPL-3.0-or-later\n\npragma solidity 0.8.17;\npragma experimental ABIEncoderV2;\n\nimport \"@openzeppelin/contracts-upgradeable/security/PausableUpgradeable.sol\";\nimport \"@openzeppelin/contracts-upgradeable/access/AccessControlUpgradeable.sol\";\nimport \"@openzeppelin/contracts-upgradeable/security/ReentrancyGuardUpgradeable.sol\";\n\nimport \"../interfaces/IBookKeeper.sol\";\nimport \"../interfaces/ICagable.sol\";\nimport \"../interfaces/ICollateralPoolConfig.sol\";\nimport \"../interfaces/IAccessControlConfig.sol\";\n\n/// @title BookKeeper\n/** @notice A contract which acts as a book keeper of the Fathom Stablecoin protocol. \n    It has the ability to move collateral token and stablecoin with in the accounting state variable. \n*/\n\ncontract BookKeeper is IBookKeeper, PausableUpgradeable, ReentrancyGuardUpgradeable, ICagable {\n  modifier onlyOwner() {\n    IAccessControlConfig _accessControlConfig = IAccessControlConfig(accessControlConfig);\n    require(_accessControlConfig.hasRole(_accessControlConfig.OWNER_ROLE(), msg.sender), \"!ownerRole\");\n    _;\n  }\n\n  modifier onlyOwnerOrGov() {\n    IAccessControlConfig _accessControlConfig = IAccessControlConfig(accessControlConfig);\n    require(\n      _accessControlConfig.hasRole(_accessControlConfig.OWNER_ROLE(), msg.sender) ||\n        _accessControlConfig.hasRole(_accessControlConfig.GOV_ROLE(), msg.sender),\n      \"!(ownerRole or govRole)\"\n    );\n    _;\n  }\n\n  modifier onlyOwnerOrShowStopper() {\n    IAccessControlConfig _accessControlConfig = IAccessControlConfig(accessControlConfig);\n    require(\n      _accessControlConfig.hasRole(_accessControlConfig.OWNER_ROLE(), msg.sender) ||\n        _accessControlConfig.hasRole(_accessControlConfig.SHOW_STOPPER_ROLE(), msg.sender),\n      \"!(ownerRole or showStopperRole)\"\n    );\n    _;\n  }\n\n  modifier onlyPositionManager() {\n    IAccessControlConfig _accessControlConfig = IAccessControlConfig(accessControlConfig);\n    require(\n      _accessControlConfig.hasRole(_accessControlConfig.POSITION_MANAGER_ROLE(), msg.sender),\n      \"!positionManagerRole\"\n    );\n    _;\n  }\n\n  modifier onlyCollateralManager() {\n    IAccessControlConfig _accessControlConfig = IAccessControlConfig(accessControlConfig);\n    require(\n      _accessControlConfig.hasRole(_accessControlConfig.COLLATERAL_MANAGER_ROLE(), msg.sender),\n      \"!collateralManagerRole\"\n    );\n    _;\n  }\n\n  modifier onlyLiquidationEngine() {\n    IAccessControlConfig _accessControlConfig = IAccessControlConfig(accessControlConfig);\n    require(\n      _accessControlConfig.hasRole(_accessControlConfig.LIQUIDATION_ENGINE_ROLE(), msg.sender),\n      \"!liquidationEngineRole\"\n    );\n    _;\n  }\n\n  modifier onlyMintable() {\n    IAccessControlConfig _accessControlConfig = IAccessControlConfig(accessControlConfig);\n    require(_accessControlConfig.hasRole(_accessControlConfig.MINTABLE_ROLE(), msg.sender), \"!mintableRole\");\n    _;\n  }\n\n  modifier onlyAdapter() {\n    IAccessControlConfig _accessControlConfig = IAccessControlConfig(accessControlConfig);\n    require(_accessControlConfig.hasRole(_accessControlConfig.ADAPTER_ROLE(), msg.sender), \"!adapterRole\");\n    _;\n  }\n\n  modifier onlyStabilityFeeCollector() {\n    IAccessControlConfig _accessControlConfig = IAccessControlConfig(accessControlConfig);\n    require(\n      _accessControlConfig.hasRole(_accessControlConfig.STABILITY_FEE_COLLECTOR_ROLE(), msg.sender),\n      \"!stabilityFeeCollectorRole\"\n    );\n    _;\n  }\n\n  /// @dev access: OWNER_ROLE, GOV_ROLE\n  function pause() external onlyOwnerOrGov {\n    _pause();\n  }\n\n  /// @dev access: OWNER_ROLE, GOV_ROLE\n  function unpause() external onlyOwnerOrGov {\n    _unpause();\n  }\n\n  /// @dev This is the mapping which stores the consent or allowance to adjust positions by the position addresses.\n  /// @dev `address` The position address\n  /// @dev `address` The allowance delegate address\n  /// @dev `uint256` true (1) means allowed or false (0) means not allowed\n  mapping(address => mapping(address => uint256)) public override positionWhitelist;\n\n  /// @dev Give an allowance to the `usr` address to adjust the position address who is the caller.\n  /// @dev `usr` The address to be allowed to adjust position\n  function whitelist(address toBeWhitelistedAddress) external override whenNotPaused {\n    positionWhitelist[msg.sender][toBeWhitelistedAddress] = 1;\n  }\n\n  /// @dev Revoke an allowance from the `usr` address to adjust the position address who is the caller.\n  /// @dev `usr` The address to be revoked from adjusting position\n  function blacklist(address toBeBlacklistedAddress) external override whenNotPaused {\n    positionWhitelist[msg.sender][toBeBlacklistedAddress] = 0;\n  }\n\n  /// @dev Check if the `usr` address is allowed to adjust the position address (`bit`).\n  /// @param bit The position address\n  /// @param usr The address to be checked for permission\n  function wish(address bit, address usr) internal view returns (bool) {\n    return either(bit == usr, positionWhitelist[bit][usr] == 1);\n  }\n\n  // --- Data ---\n  struct Position {\n    uint256 lockedCollateral; // Locked collateral inside this position (used for minting)                  [wad]\n    uint256 debtShare; // The debt share of this position or the share amount of minted Fathom Stablecoin   [wad]\n  }\n\n  mapping(bytes32 => mapping(address => Position)) public override positions; // mapping of all positions by collateral pool id and position address\n  mapping(bytes32 => mapping(address => uint256)) public override collateralToken; // the accounting of collateral token which is deposited into the protocol [wad]\n  mapping(address => uint256) public override stablecoin; // the accounting of the stablecoin that is deposited or has not been withdrawn from the protocol [rad]\n  mapping(address => uint256) public override systemBadDebt; // the bad debt of the system from late liquidation [rad]\n\n  uint256 public override totalStablecoinIssued; // Total stable coin issued or total stalbecoin in circulation   [rad]\n  uint256 public totalUnbackedStablecoin; // Total unbacked stable coin  [rad]\n  uint256 public totalDebtCeiling; // Total debt ceiling  [rad]\n  uint256 public live; // Active Flag\n  address public override collateralPoolConfig;\n  address public override accessControlConfig;\n\n  // --- Init ---\n  function initialize(address _collateralPoolConfig, address _accessControlConfig) external initializer {\n    PausableUpgradeable.__Pausable_init();\n    ReentrancyGuardUpgradeable.__ReentrancyGuard_init();\n\n    collateralPoolConfig = _collateralPoolConfig;\n\n    accessControlConfig = _accessControlConfig;\n\n    live = 1;\n  }\n\n  // --- Math ---\n  function add(uint256 x, int256 y) internal pure returns (uint256 z) {\n    // z = x + uint256(y);\n    //2022 21 Sep 12:28 am\n    //close position breaking below.\n    //12:37 am, maybe I comment requires below, since it is 0.8.17 anyway,\n    //but the question remains, when x + y but y is explicited converted from int to uint\n    //would normal arithmatic still work?\n    //12:42 am, need to check how explicit conversion is working in 0.6.xx and 0.8.xx\n    // require(y >= 0 || z <= x);\n    // require(y <= 0 || z >= x);\n\n    //12:47 added\n    //12:53 arithematic works.\n    //these whole arithmatic functiosn were used to do overflow/underflow check\n    //but since 0.8.xx was already doing the overflow/underflow itself,\n    //alpaca's arithmatic did not really work.\n    // in order to make sure that arithematics all behave as 0.6.x,\n    //had to put calculation inside unchecked\n    unchecked{\n      z = x + uint256(y);\n    }\n    require(y >= 0 || z <= x);\n    require(y <= 0 || z >= x);\n  }\n\n  function sub(uint256 x, int256 y) internal pure returns (uint256 z) {\n    // z = x - uint256(y);\n    // require(y <= 0 || z <= x);\n    // require(y >= 0 || z >= x);\n\n    //12:49 added\n    unchecked{\n    z = x - uint256(y);\n    }\n    require(y <= 0 || z <= x);\n    require(y >= 0 || z >= x);\n  }\n\n  function mul(uint256 x, int256 y) internal pure returns (int256 z) {\n    // z = int256(x) * y;\n    // require(int256(x) >= 0);\n    // require(y == 0 || z / y == int256(x));\n\n    unchecked{\n      z = int256(x) * y;\n    }\n    require(int256(x) >= 0);\n    require(y == 0 || z / y == int256(x));\n\n  }\n\n  function add(uint256 x, uint256 y) internal pure returns (uint256 z) {\n    // require((z = x + y) >= x);\n\n    //added 2022 Sep 21 12:45 am\n    z = x + y;\n  }\n\n  function sub(uint256 x, uint256 y) internal pure returns (uint256 z) {\n    // require((z = x - y) <= x);\n    //added 2022 Sep 21 12:45 am\n    z = x - y;\n  }\n\n  function mul(uint256 x, uint256 y) internal pure returns (uint256 z) {\n    // require(y == 0 || (z = x * y) / y == x);\n        //added 2022 Sep 21 12:45 am\n    z = x * y;\n  }\n\n  // --- Administration ---\n  event LogSetTotalDebtCeiling(address indexed _caller, uint256 _totalDebtCeiling);\n  event LogSetAccessControlConfig(address indexed _caller, address _accessControlConfig);\n  event LogSetCollateralPoolConfig(address indexed _caller, address _collateralPoolConfig);\n  event LogAdjustPosition(\n    address indexed _caller,\n    bytes32 _collateralPoolId,\n    address _positionAddress,\n    uint256 _lockedCollateral,\n    uint256 _debtShare,\n    int256 _addCollateral,\n    int256 _addDebtShare\n  );\n  event LogAddCollateral(address indexed _caller, address _usr, int256 _amount);\n  event LogMoveCollateral(\n    address indexed _caller,\n    bytes32 _collateralPoolId,\n    address _src,\n    address _dst,\n    uint256 _amount\n  );\n\n  /// @dev access: OWNER_ROLE\n  function setTotalDebtCeiling(uint256 _totalDebtCeiling) external onlyOwner {\n    require(live == 1, \"BookKeeper/not-live\");\n    totalDebtCeiling = _totalDebtCeiling;\n    emit LogSetTotalDebtCeiling(msg.sender, _totalDebtCeiling);\n  }\n\n  /// @dev access: OWNER_ROLE\n  function setAccessControlConfig(address _accessControlConfig) external onlyOwner {\n    IAccessControlConfig(_accessControlConfig).hasRole(\n      IAccessControlConfig(_accessControlConfig).OWNER_ROLE(),\n      msg.sender\n    ); // Sanity Check Call\n    accessControlConfig = _accessControlConfig;\n\n    emit LogSetAccessControlConfig(msg.sender, _accessControlConfig);\n  }\n\n  /// @dev access: OWNER_ROLE\n  function setCollateralPoolConfig(address _collateralPoolConfig) external onlyOwner {\n    collateralPoolConfig = _collateralPoolConfig;\n    emit LogSetCollateralPoolConfig(msg.sender, _collateralPoolConfig);\n  }\n\n  /// @dev access: OWNER_ROLE, SHOW_STOPPER_ROLE\n  function cage() external override onlyOwnerOrShowStopper {\n    require(live == 1, \"BookKeeper/not-live\");\n    live = 0;\n\n    emit LogCage();\n  }\n\n  /// @dev access: OWNER_ROLE, SHOW_STOPPER_ROLE\n  function uncage() external override onlyOwnerOrShowStopper {\n    require(live == 0, \"BookKeeper/not-caged\");\n    live = 1;\n\n    emit LogUncage();\n  }\n\n  // --- Fungibility ---\n  /// @dev Add or remove collateral token balance to an address within the accounting of the protocol\n  /// @param _collateralPoolId The collateral pool id\n  /// @param _usr The target address\n  /// @param _amount The collateral amount in [wad]\n  /// @dev access: ADAPTER_ROLE\n  function addCollateral(\n    bytes32 _collateralPoolId,\n    address _usr,\n    int256 _amount\n  ) external override nonReentrant whenNotPaused onlyAdapter {\n    collateralToken[_collateralPoolId][_usr] = add(collateralToken[_collateralPoolId][_usr], _amount);\n    emit LogAddCollateral(msg.sender, _usr, _amount);\n  }\n\n  /// @dev Move a balance of collateral token from a source address to a destination address within the accounting of the protocol\n  /// @param _collateralPoolId the collateral pool id\n  /// @param _src The source address\n  /// @param _dst The destination address\n  /// @param _amount The collateral amount in [wad]\n  /// @dev access: COLLATERAL_MANAGER_ROLE\n  function moveCollateral(\n    bytes32 _collateralPoolId,\n    address _src,\n    address _dst,\n    uint256 _amount\n  ) external override nonReentrant whenNotPaused onlyCollateralManager {\n    require(wish(_src, msg.sender), \"BookKeeper/not-allowed\");\n    collateralToken[_collateralPoolId][_src] = sub(collateralToken[_collateralPoolId][_src], _amount);\n    collateralToken[_collateralPoolId][_dst] = add(collateralToken[_collateralPoolId][_dst], _amount);\n    emit LogMoveCollateral(msg.sender, _collateralPoolId, _src, _dst, _amount);\n  }\n\n  /// @dev Move a balance of stablecoin from a source address to a destination address within the accounting of the protocol\n  /// @param _src The source address\n  /// @param _dst The destination address\n  /// @param _value The stablecoin value in [rad]\n  function moveStablecoin(\n    address _src,\n    address _dst,\n    uint256 _value\n  ) external override nonReentrant whenNotPaused {\n    require(wish(_src, msg.sender), \"BookKeeper/not-allowed\");\n    stablecoin[_src] = sub(stablecoin[_src], _value);\n    stablecoin[_dst] = add(stablecoin[_dst], _value);\n  }\n\n  function either(bool _x, bool _y) internal pure returns (bool _z) {\n    assembly {\n      _z := or(_x, _y)\n    }\n  }\n\n  function both(bool _x, bool _y) internal pure returns (bool _z) {\n    assembly {\n      _z := and(_x, _y)\n    }\n  }\n\n  // --- CDP Manipulation ---\n  /// @dev Adjust a position on the target position address to perform locking/unlocking of collateral and minting/repaying of stablecoin\n  /// @param _collateralPoolId Collateral pool id\n  /// @param _positionAddress Address of the position\n  /// @param _collateralOwner The payer/receiver of the collateral token, the collateral token must already be deposited into the protocol in case of locking the collateral\n  /// @param _stablecoinOwner The payer/receiver of the stablecoin, the stablecoin must already be deposited into the protocol in case of repaying debt\n  /// @param _collateralValue The value of the collateral to lock/unlock\n  /// @param _debtShare The debt share of stalbecoin to mint/repay. Please pay attention that this is a debt share not debt value.\n  /// @dev access: POSITION_MANAGER_ROLE\n  function adjustPosition(\n    bytes32 _collateralPoolId,\n    address _positionAddress,\n    address _collateralOwner,\n    address _stablecoinOwner,\n    int256 _collateralValue,\n    int256 _debtShare\n  ) external override nonReentrant whenNotPaused onlyPositionManager {\n    // system is live\n    require(live == 1, \"BookKeeper/not-live\");\n\n    Position memory position = positions[_collateralPoolId][_positionAddress];\n\n    ICollateralPoolConfig.CollateralPoolInfo memory _vars = ICollateralPoolConfig(collateralPoolConfig)\n      .getCollateralPoolInfo(_collateralPoolId);\n\n    // collateralPool has been initialised\n    require(_vars.debtAccumulatedRate != 0, \"BookKeeper/collateralPool-not-init\");\n    position.lockedCollateral = add(position.lockedCollateral, _collateralValue);\n    position.debtShare = add(position.debtShare, _debtShare);\n    _vars.totalDebtShare = add(_vars.totalDebtShare, _debtShare);\n    ICollateralPoolConfig(collateralPoolConfig).setTotalDebtShare(_collateralPoolId, _vars.totalDebtShare);\n\n    int256 _debtValue = mul(_vars.debtAccumulatedRate, _debtShare);\n    uint256 _positionDebtValue = mul(_vars.debtAccumulatedRate, position.debtShare);\n    totalStablecoinIssued = add(totalStablecoinIssued, _debtValue);\n\n    // either debt has decreased, or debt ceilings are not exceeded\n    require(\n      either(\n        _debtShare <= 0,\n        both(\n          mul(_vars.totalDebtShare, _vars.debtAccumulatedRate) <= _vars.debtCeiling,\n          totalStablecoinIssued <= totalDebtCeiling\n        )\n      ),\n      \"BookKeeper/ceiling-exceeded\"\n    );\n    // position is either less risky than before, or it is safe :: check work factor\n    require(\n      either(\n        both(_debtShare <= 0, _collateralValue >= 0),\n        _positionDebtValue <= mul(position.lockedCollateral, _vars.priceWithSafetyMargin)\n      ),\n      \"BookKeeper/not-safe\"\n    );\n\n    // position is either more safe, or the owner consents\n    require(\n      either(both(_debtShare <= 0, _collateralValue >= 0), wish(_positionAddress, msg.sender)),\n      \"BookKeeper/not-allowed-position-address\"\n    );\n    // collateral src consents\n    require(\n      either(_collateralValue <= 0, wish(_collateralOwner, msg.sender)),\n      \"BookKeeper/not-allowed-collateral-owner\"\n    );\n    // debt dst consents\n    require(either(_debtShare >= 0, wish(_stablecoinOwner, msg.sender)), \"BookKeeper/not-allowed-stablecoin-owner\");\n\n    // position has no debt, or a non-debtFloory amount\n    require(either(position.debtShare == 0, _positionDebtValue >= _vars.debtFloor), \"BookKeeper/debt-floor\");\n    collateralToken[_collateralPoolId][_collateralOwner] = sub(\n      collateralToken[_collateralPoolId][_collateralOwner],\n      _collateralValue\n    );\n    stablecoin[_stablecoinOwner] = add(stablecoin[_stablecoinOwner], _debtValue);\n\n    positions[_collateralPoolId][_positionAddress] = position;\n\n    emit LogAdjustPosition(\n      msg.sender,\n      _collateralPoolId,\n      _positionAddress,\n      position.lockedCollateral,\n      position.debtShare,\n      _collateralValue,\n      _debtShare\n    );\n  }\n\n  // --- CDP Fungibility ---\n  /// @dev Move the collateral or stablecoin debt inside a position to another position\n  /// @param _collateralPoolId Collateral pool id\n  /// @param _src Source address of the position\n  /// @param _dst Destination address of the position\n  /// @param _collateralAmount The amount of the locked collateral to be moved\n  /// @param _debtShare The debt share of stalbecoin to be moved\n  /// @dev access: POSITION_MANAGER_ROLE\n  function movePosition(\n    bytes32 _collateralPoolId,\n    address _src,\n    address _dst,\n    int256 _collateralAmount,\n    int256 _debtShare\n  ) external override nonReentrant whenNotPaused onlyPositionManager {\n    Position storage _positionSrc = positions[_collateralPoolId][_src];\n    Position storage _positionDst = positions[_collateralPoolId][_dst];\n\n    ICollateralPoolConfig.CollateralPoolInfo memory _vars = ICollateralPoolConfig(collateralPoolConfig)\n      .getCollateralPoolInfo(_collateralPoolId);\n\n    _positionSrc.lockedCollateral = sub(_positionSrc.lockedCollateral, _collateralAmount);\n    _positionSrc.debtShare = sub(_positionSrc.debtShare, _debtShare);\n    _positionDst.lockedCollateral = add(_positionDst.lockedCollateral, _collateralAmount);\n    _positionDst.debtShare = add(_positionDst.debtShare, _debtShare);\n\n    uint256 _utab = mul(_positionSrc.debtShare, _vars.debtAccumulatedRate);\n    uint256 _vtab = mul(_positionDst.debtShare, _vars.debtAccumulatedRate);\n\n    // both sides consent\n    require(both(wish(_src, msg.sender), wish(_dst, msg.sender)), \"BookKeeper/not-allowed\");\n\n    // both sides safe\n    require(_utab <= mul(_positionSrc.lockedCollateral, _vars.priceWithSafetyMargin), \"BookKeeper/not-safe-src\");\n    require(_vtab <= mul(_positionDst.lockedCollateral, _vars.priceWithSafetyMargin), \"BookKeeper/not-safe-dst\");\n\n    // both sides non-debtFloory\n    require(either(_utab >= _vars.debtFloor, _positionSrc.debtShare == 0), \"BookKeeper/debt-floor-src\");\n    require(either(_vtab >= _vars.debtFloor, _positionDst.debtShare == 0), \"BookKeeper/debt-floor-dst\");\n  }\n\n  // --- CDP Confiscation ---\n  /** @dev Confiscate position from the owner for the position to be liquidated.\n      The position will be confiscated of collateral in which these collateral will be sold through a liquidation process to repay the stablecoin debt.\n      The confiscated collateral will be seized by the Auctioneer contracts and will be moved to the corresponding liquidator addresses upon later.\n      The stablecoin debt will be mark up on the SystemDebtEngine contract first. This would signify that the system currently has a bad debt of this amount. \n      But it will be cleared later on from a successful liquidation. If this debt is not fully liquidated, the remaining debt will stay inside SystemDebtEngine as bad debt.\n  */\n  /// @param _collateralPoolId Collateral pool id\n  /// @param _positionAddress The position address\n  /// @param _collateralCreditor The address which will temporarily own the collateral of the liquidated position; this will always be the Auctioneer\n  /// @param _stablecoinDebtor The address which will be the one to be in debt for the amount of stablecoin debt of the liquidated position, this will always be the SystemDebtEngine\n  /// @param _collateralAmount The amount of collateral to be confiscated [wad]\n  /// @param _debtShare The debt share to be confiscated [wad]\n  /// @dev access: LIQUIDATION_ENGINE_ROLE\n  function confiscatePosition(\n    bytes32 _collateralPoolId,\n    address _positionAddress,\n    address _collateralCreditor,\n    address _stablecoinDebtor,\n    int256 _collateralAmount,\n    int256 _debtShare\n  ) external override nonReentrant whenNotPaused onlyLiquidationEngine {\n    Position storage position = positions[_collateralPoolId][_positionAddress];\n    ICollateralPoolConfig.CollateralPoolInfo memory _vars = ICollateralPoolConfig(collateralPoolConfig)\n      .getCollateralPoolInfo(_collateralPoolId);\n\n    position.lockedCollateral = add(position.lockedCollateral, _collateralAmount);\n    position.debtShare = add(position.debtShare, _debtShare);\n    _vars.totalDebtShare = add(_vars.totalDebtShare, _debtShare);\n    ICollateralPoolConfig(collateralPoolConfig).setTotalDebtShare(_collateralPoolId, _vars.totalDebtShare);\n\n    int256 _debtValue = mul(_vars.debtAccumulatedRate, _debtShare);\n\n    collateralToken[_collateralPoolId][_collateralCreditor] = sub(\n      collateralToken[_collateralPoolId][_collateralCreditor],\n      _collateralAmount\n    );\n    systemBadDebt[_stablecoinDebtor] = sub(systemBadDebt[_stablecoinDebtor], _debtValue);\n    totalUnbackedStablecoin = sub(totalUnbackedStablecoin, _debtValue);\n  }\n\n  // --- Settlement ---\n  /** @dev Settle the system bad debt of the caller.\n      This function will always be called by the SystemDebtEngine which will be the contract that always incur the system debt.\n      By executing this function, the SystemDebtEngine must have enough stablecoin which will come from the Surplus of the protocol.\n      A successful `settleSystemBadDebt` would remove the bad debt from the system.\n  */\n  /// @param _value the value of stablecoin to be used to settle bad debt [rad]\n  function settleSystemBadDebt(uint256 _value) external override nonReentrant whenNotPaused {\n    systemBadDebt[msg.sender] = sub(systemBadDebt[msg.sender], _value);\n    stablecoin[msg.sender] = sub(stablecoin[msg.sender], _value);\n    totalUnbackedStablecoin = sub(totalUnbackedStablecoin, _value);\n    totalStablecoinIssued = sub(totalStablecoinIssued, _value);\n  }\n\n  /// @dev Mint unbacked stablecoin without any collateral to be used for incentives and flash mint.\n  /// @param _from The address which will be the one who incur bad debt (will always be SystemDebtEngine here)\n  /// @param _to The address which will receive the minted stablecoin\n  /// @param _value The value of stablecoin to be minted [rad]\n  /// @dev access: MINTABLE_ROLE\n  function mintUnbackedStablecoin(\n    address _from,\n    address _to,\n    uint256 _value\n  ) external override nonReentrant whenNotPaused onlyMintable {\n    systemBadDebt[_from] = add(systemBadDebt[_from], _value);\n    stablecoin[_to] = add(stablecoin[_to], _value);\n    totalUnbackedStablecoin = add(totalUnbackedStablecoin, _value);\n    totalStablecoinIssued = add(totalStablecoinIssued, _value);\n  }\n\n  // --- Rates ---\n  /** @dev Accrue stability fee or the mint interest rate.\n      This function will always be called only by the StabilityFeeCollector contract.\n      `debtAccumulatedRate` of a collateral pool is the exchange rate of the stablecoin minted from that pool (think of it like ibToken price from Lending Vault).\n      The higher the `debtAccumulatedRate` means the minter of the stablecoin will beed to pay back the debt with higher amount.\n      The point of Stability Fee is to collect a surplus amount from minters and this is technically done by incrementing the `debtAccumulatedRate` overtime.\n  */\n  /// @param _collateralPoolId Collateral pool id\n  /// @param _stabilityFeeRecipient The address which will receive the surplus from Stability Fee. This will always be SystemDebtEngine who will use the surplus to settle bad debt.\n  /// @param _debtAccumulatedRate The difference value of `debtAccumulatedRate` which will be added to the current value of `debtAccumulatedRate`. [ray]\n  /// @dev access: STABILITY_FEE_COLLECTOR_ROLE\n  function accrueStabilityFee(\n    bytes32 _collateralPoolId,\n    address _stabilityFeeRecipient,\n    int256 _debtAccumulatedRate\n  ) external override nonReentrant whenNotPaused onlyStabilityFeeCollector {\n    require(live == 1, \"BookKeeper/not-live\");\n    ICollateralPoolConfig.CollateralPoolInfo memory _vars = ICollateralPoolConfig(collateralPoolConfig)\n      .getCollateralPoolInfo(_collateralPoolId);\n\n    _vars.debtAccumulatedRate = add(_vars.debtAccumulatedRate, _debtAccumulatedRate);\n    ICollateralPoolConfig(collateralPoolConfig).setDebtAccumulatedRate(_collateralPoolId, _vars.debtAccumulatedRate);\n    int256 _value = mul(_vars.totalDebtShare, _debtAccumulatedRate); // [rad]\n    stablecoin[_stabilityFeeRecipient] = add(stablecoin[_stabilityFeeRecipient], _value);\n    totalStablecoinIssued = add(totalStablecoinIssued, _value);\n  }\n}\n",
    "sourcePath": "/Users/sangjun.lee/Sangjun/fathom-stablecoin-smart-contracts/contracts/8.17/stablecoin-core/BookKeeper.sol",
    "compiler": {
        "name": "solc",
        "version": "0.8.17+commit.8df45f5f.Emscripten.clang"
    },
    "schemaVersion": "3.4.10",
    "updatedAt": "2022-10-21T07:57:45.056Z",
    "devdoc": {
        "kind": "dev",
        "methods": {
            "accrueStabilityFee(bytes32,address,int256)": {
                "details": "access: STABILITY_FEE_COLLECTOR_ROLE",
                "params": {
                    "_collateralPoolId": "Collateral pool id",
                    "_debtAccumulatedRate": "The difference value of `debtAccumulatedRate` which will be added to the current value of `debtAccumulatedRate`. [ray]",
                    "_stabilityFeeRecipient": "The address which will receive the surplus from Stability Fee. This will always be SystemDebtEngine who will use the surplus to settle bad debt."
                }
            },
            "addCollateral(bytes32,address,int256)": {
                "details": "Add or remove collateral token balance to an address within the accounting of the protocolaccess: ADAPTER_ROLE",
                "params": {
                    "_amount": "The collateral amount in [wad]",
                    "_collateralPoolId": "The collateral pool id",
                    "_usr": "The target address"
                }
            },
            "adjustPosition(bytes32,address,address,address,int256,int256)": {
                "details": "Adjust a position on the target position address to perform locking/unlocking of collateral and minting/repaying of stablecoinaccess: POSITION_MANAGER_ROLE",
                "params": {
                    "_collateralOwner": "The payer/receiver of the collateral token, the collateral token must already be deposited into the protocol in case of locking the collateral",
                    "_collateralPoolId": "Collateral pool id",
                    "_collateralValue": "The value of the collateral to lock/unlock",
                    "_debtShare": "The debt share of stalbecoin to mint/repay. Please pay attention that this is a debt share not debt value.",
                    "_positionAddress": "Address of the position",
                    "_stablecoinOwner": "The payer/receiver of the stablecoin, the stablecoin must already be deposited into the protocol in case of repaying debt"
                }
            },
            "blacklist(address)": {
                "details": "Revoke an allowance from the `usr` address to adjust the position address who is the caller.`usr` The address to be revoked from adjusting position"
            },
            "cage()": {
                "details": "access: OWNER_ROLE, SHOW_STOPPER_ROLE"
            },
            "confiscatePosition(bytes32,address,address,address,int256,int256)": {
                "details": "access: LIQUIDATION_ENGINE_ROLE",
                "params": {
                    "_collateralAmount": "The amount of collateral to be confiscated [wad]",
                    "_collateralCreditor": "The address which will temporarily own the collateral of the liquidated position; this will always be the Auctioneer",
                    "_collateralPoolId": "Collateral pool id",
                    "_debtShare": "The debt share to be confiscated [wad]",
                    "_positionAddress": "The position address",
                    "_stablecoinDebtor": "The address which will be the one to be in debt for the amount of stablecoin debt of the liquidated position, this will always be the SystemDebtEngine"
                }
            },
            "mintUnbackedStablecoin(address,address,uint256)": {
                "details": "Mint unbacked stablecoin without any collateral to be used for incentives and flash mint.access: MINTABLE_ROLE",
                "params": {
                    "_from": "The address which will be the one who incur bad debt (will always be SystemDebtEngine here)",
                    "_to": "The address which will receive the minted stablecoin",
                    "_value": "The value of stablecoin to be minted [rad]"
                }
            },
            "moveCollateral(bytes32,address,address,uint256)": {
                "details": "Move a balance of collateral token from a source address to a destination address within the accounting of the protocolaccess: COLLATERAL_MANAGER_ROLE",
                "params": {
                    "_amount": "The collateral amount in [wad]",
                    "_collateralPoolId": "the collateral pool id",
                    "_dst": "The destination address",
                    "_src": "The source address"
                }
            },
            "movePosition(bytes32,address,address,int256,int256)": {
                "details": "Move the collateral or stablecoin debt inside a position to another positionaccess: POSITION_MANAGER_ROLE",
                "params": {
                    "_collateralAmount": "The amount of the locked collateral to be moved",
                    "_collateralPoolId": "Collateral pool id",
                    "_debtShare": "The debt share of stalbecoin to be moved",
                    "_dst": "Destination address of the position",
                    "_src": "Source address of the position"
                }
            },
            "moveStablecoin(address,address,uint256)": {
                "details": "Move a balance of stablecoin from a source address to a destination address within the accounting of the protocol",
                "params": {
                    "_dst": "The destination address",
                    "_src": "The source address",
                    "_value": "The stablecoin value in [rad]"
                }
            },
            "pause()": {
                "details": "access: OWNER_ROLE, GOV_ROLE"
            },
            "paused()": {
                "details": "Returns true if the contract is paused, and false otherwise."
            },
            "setAccessControlConfig(address)": {
                "details": "access: OWNER_ROLE"
            },
            "setCollateralPoolConfig(address)": {
                "details": "access: OWNER_ROLE"
            },
            "setTotalDebtCeiling(uint256)": {
                "details": "access: OWNER_ROLE"
            },
            "settleSystemBadDebt(uint256)": {
                "params": {
                    "_value": "the value of stablecoin to be used to settle bad debt [rad]"
                }
            },
            "uncage()": {
                "details": "access: OWNER_ROLE, SHOW_STOPPER_ROLE"
            },
            "unpause()": {
                "details": "access: OWNER_ROLE, GOV_ROLE"
            },
            "whitelist(address)": {
                "details": "Give an allowance to the `usr` address to adjust the position address who is the caller.`usr` The address to be allowed to adjust position"
            }
        },
        "stateVariables": {
            "positionWhitelist": {
                "details": "This is the mapping which stores the consent or allowance to adjust positions by the position addresses.`address` The position address`address` The allowance delegate address`uint256` true (1) means allowed or false (0) means not allowed"
            }
        },
        "version": 1
    },
    "userdoc": {
        "kind": "user",
        "methods": {},
        "notice": "A contract which acts as a book keeper of the Fathom Stablecoin protocol.  It has the ability to move collateral token and stablecoin with in the accounting state variable. ",
        "version": 1
    }
}