{
  "contractName": "CheckPairAddress",
  "abi": [
    {
      "anonymous": false,
      "inputs": [
        {
          "indexed": false,
          "internalType": "uint8",
          "name": "version",
          "type": "uint8"
        }
      ],
      "name": "Initialized",
      "type": "event"
    },
    {
      "inputs": [],
      "name": "dexFactory",
      "outputs": [
        {
          "internalType": "address",
          "name": "",
          "type": "address"
        }
      ],
      "stateMutability": "view",
      "type": "function"
    },
    {
      "inputs": [
        {
          "internalType": "address",
          "name": "_dexFactory",
          "type": "address"
        }
      ],
      "name": "initialize",
      "outputs": [],
      "stateMutability": "nonpayable",
      "type": "function"
    },
    {
      "inputs": [
        {
          "internalType": "address",
          "name": "token0",
          "type": "address"
        },
        {
          "internalType": "address",
          "name": "token1",
          "type": "address"
        }
      ],
      "name": "getPair",
      "outputs": [
        {
          "internalType": "address",
          "name": "",
          "type": "address"
        }
      ],
      "stateMutability": "view",
      "type": "function"
    }
  ],
  "bytecode": "0x608060405234801561001057600080fd5b50610339806100206000396000f3fe608060405234801561001057600080fd5b50600436106100415760003560e01c8063b8d8fbb414610046578063c4d66de81461007b578063e6a4390514610090575b600080fd5b60005461005f906201000090046001600160a01b031681565b6040516001600160a01b03909116815260200160405180910390f35b61008e610089366004610289565b6100a3565b005b61005f61009e3660046102ad565b6101d3565b600054610100900460ff16158080156100c35750600054600160ff909116105b806100dd5750303b1580156100dd575060005460ff166001145b6101445760405162461bcd60e51b815260206004820152602e60248201527f496e697469616c697a61626c653a20636f6e747261637420697320616c72656160448201526d191e481a5b9a5d1a585b1a5e995960921b606482015260840160405180910390fd5b6000805460ff191660011790558015610167576000805461ff0019166101001790555b6000805462010000600160b01b031916620100006001600160a01b0385160217905580156101cf576000805461ff0019169055604051600181527f7f26b83ff96e1f2b6a682f133852f6798a09c465da95921460cefb38474024989060200160405180910390a15b5050565b6000805481906101f3906201000090046001600160a01b031685856101fb565b949350505050565b60405163e6a4390560e01b81526001600160a01b03838116600483015282811660248301526000919085169063e6a4390590604401602060405180830381865afa15801561024d573d6000803e3d6000fd5b505050506040513d601f19601f820116820180604052508101906101f391906102e6565b6001600160a01b038116811461028657600080fd5b50565b60006020828403121561029b57600080fd5b81356102a681610271565b9392505050565b600080604083850312156102c057600080fd5b82356102cb81610271565b915060208301356102db81610271565b809150509250929050565b6000602082840312156102f857600080fd5b81516102a68161027156fea26469706673582212202af652eb29707d59c0d862306434703effda3c004930a4c61456057affaef71564736f6c63430008110033",
  "immutableReferences": {},
  "source": "// SPDX-License-Identifier: AGPL-3.0-or-later\n\npragma solidity 0.8.17;\n\nimport \"@openzeppelin/contracts-upgradeable/proxy/utils/Initializable.sol\";\nimport \"@openzeppelin/contracts-upgradeable/utils/math/SafeMathUpgradeable.sol\";\n\nimport \"./lib/FathomSwapLibrary.sol\";\nimport \"../interfaces/IFathomDEXPair.sol\";\n\ncontract CheckPairAddress is Initializable, IFathomDEXPair {\n  using SafeMathUpgradeable for uint256;\n  address public dexFactory;\n\n  function initialize(address _dexFactory) external initializer {\n    dexFactory = _dexFactory;\n  }\n\n  /// @dev Return the wad price of token0/token1, multiplied by 1e18\n  /// NOTE: (if you have 1 token0 how much you can sell it for token1)\n  function getPair(address token0, address token1) external view override returns (address) {\n    address pair = FathomSwapLibrary.pairFor(dexFactory, token0, token1);\n    return pair;\n  }\n}\n",
  "sourcePath": "/Users/sangjun.lee/Sangjun/fathom-stablecoin-smart-contracts/contracts/8.17/price-oracles/CheckPairAddress.sol",
  "compiler": {
    "name": "solc",
    "version": "0.8.17+commit.8df45f5f.Emscripten.clang"
  },
  "schemaVersion": "3.4.10",
  "updatedAt": "2022-10-06T11:28:50.172Z",
  "devdoc": {
    "kind": "dev",
    "methods": {
      "getPair(address,address)": {
        "details": "Return the wad price of token0/token1, multiplied by 1e18 NOTE: (if you have 1 token0 how much you can sell it for token1)"
      }
    },
    "version": 1
  },
  "userdoc": {
    "kind": "user",
    "methods": {},
    "version": 1
  }
}