{
  "contractName": "CollateralTokenAdapterFactory",
  "abi": [
    {
      "anonymous": false,
      "inputs": [
        {
          "indexed": true,
          "internalType": "bytes32",
          "name": "collateralPoolId",
          "type": "bytes32"
        },
        {
          "indexed": false,
          "internalType": "address",
          "name": "adapterAddress",
          "type": "address"
        }
      ],
      "name": "CollateralTokenAdapterCreated",
      "type": "event"
    },
    {
      "inputs": [
        {
          "internalType": "address",
          "name": "bookKeeper",
          "type": "address"
        },
        {
          "internalType": "bytes32",
          "name": "collateralPoolId",
          "type": "bytes32"
        },
        {
          "internalType": "address",
          "name": "collateralToken",
          "type": "address"
        },
        {
          "internalType": "address",
          "name": "rewardToken",
          "type": "address"
        },
        {
          "internalType": "address",
          "name": "fairlaunch",
          "type": "address"
        },
        {
          "internalType": "uint256",
          "name": "pid",
          "type": "uint256"
        },
        {
          "internalType": "address",
          "name": "shield",
          "type": "address"
        },
        {
          "internalType": "address",
          "name": "timelock",
          "type": "address"
        },
        {
          "internalType": "uint256",
          "name": "treasuryFeeBps",
          "type": "uint256"
        },
        {
          "internalType": "address",
          "name": "treasuryAccount",
          "type": "address"
        },
        {
          "internalType": "address",
          "name": "positionManager",
          "type": "address"
        }
      ],
      "name": "createAdapter",
      "outputs": [
        {
          "internalType": "address",
          "name": "adapterAddress",
          "type": "address"
        }
      ],
      "stateMutability": "nonpayable",
      "type": "function"
    },
    {
      "inputs": [
        {
          "internalType": "bytes32",
          "name": "collateralPoolId",
          "type": "bytes32"
        }
      ],
      "name": "getAdapter",
      "outputs": [
        {
          "internalType": "address",
          "name": "adapterAddress",
          "type": "address"
        }
      ],
      "stateMutability": "view",
      "type": "function"
    }
  ],
  "bytecode": "0x608060405234801561001057600080fd5b5061468f806100206000396000f3fe608060405234801561001057600080fd5b50600436106100365760003560e01c80638272e1381461003b578063dde6d54914610080575b600080fd5b610064610049366004610275565b6000908152602081905260409020546001600160a01b031690565b6040516001600160a01b03909116815260200160405180910390f35b61006461008e3660046102aa565b600060405161009c90610268565b604051809103906000f080156100af5760015b610149576100bb610361565b806308c379a0036100fd57506100cf6103b8565b806100da57506100ff565b8060405162461bcd60e51b81526004016100f49190610442565b60405180910390fd5b505b3d808015610129576040519150601f19603f3d011682016040523d82523d6000602084013e61012e565b606091505b508060405162461bcd60e51b81526004016100f49190610442565b6040516323905f6360e01b81526001600160a01b038e81166004830152602482018e90528c811660448301528b811660648301528a8116608483015260a482018a905288811660c483015287811660e4830152610104820187905285811661012483015284811661014483015291925082918216906323905f639061016401600060405180830381600087803b1580156101e257600080fd5b505af11580156101f6573d6000803e3d6000fd5b50505060008d8152602081815260409182902080546001600160a01b0319166001600160a01b03871690811790915591519182528e92507fa4c941b726a20f9a104cc8d00d069f22b5553faefd5ce7698399fbe77ba3fe18910160405180910390a2509b9a5050505050505050505050565b6141c98061049183390190565b60006020828403121561028757600080fd5b5035919050565b80356001600160a01b03811681146102a557600080fd5b919050565b60008060008060008060008060008060006101608c8e0312156102cc57600080fd5b6102d58c61028e565b9a5060208c013599506102ea60408d0161028e565b98506102f860608d0161028e565b975061030660808d0161028e565b965060a08c0135955061031b60c08d0161028e565b945061032960e08d0161028e565b93506101008c013592506103406101208d0161028e565b915061034f6101408d0161028e565b90509295989b509295989b9093969950565b600060033d111561037a5760046000803e5060005160e01c5b90565b601f8201601f1916810167ffffffffffffffff811182821017156103b157634e487b7160e01b600052604160045260246000fd5b6040525050565b600060443d10156103c65790565b6040516003193d81016004833e81513d67ffffffffffffffff81602484011181841117156103f657505050505090565b828501915081518181111561040e5750505050505090565b843d87010160208285010111156104285750505050505090565b6104376020828601018761037d565b509095945050505050565b600060208083528351808285015260005b8181101561046f57858101830151858201604001528201610453565b506000604082860101526040601f19601f830116850101925050509291505056fe608060405234801561001057600080fd5b506141a9806100206000396000f3fe60806040526004361061021a5760003560e01c80638217b84611610123578063d33219b4116100ab578063e80cfa5e1161006f578063e80cfa5e146105de578063e9592780146105f4578063f106845414610609578063f77c40361461061f578063f7c618c11461063f57600080fd5b8063d33219b414610553578063d63b23b214610573578063d886f8a214610588578063dca07dc5146105a8578063e3b3932a146105be57600080fd5b8063957aa58c116100f2578063957aa58c146104c857806399443616146104de578063a3b15138146104fe578063b2016bd41461051e578063bf33a1f51461053e57600080fd5b80638217b846146104685780638456cb591461047d578063939d623714610492578063944eef42146104a857600080fd5b8063339b2cff116101a65780635c975abb116101755780635c975abb146103d057806369245009146103f35780636ff1c9bc1461040857806370d39cff14610428578063791b98bc1461044857600080fd5b8063339b2cff1461035a5780633e3be859146103925780633f4ba83a146103a857806349bdc2b8146103bd57600080fd5b806326476204116101ed57806326476204146102b7578063313ce567146102e457806331d7a262146102fa57806331f092651461031a578063331fb00f1461033a57600080fd5b806301f7f89f1461021f578063026c4207146102525780630ea040d01461026857806323905f6314610295575b600080fd5b34801561022b57600080fd5b5061023f61023a366004613a17565b61065f565b6040519081526020015b60405180910390f35b34801561025e57600080fd5b5061023f60a55481565b34801561027457600080fd5b5061023f610283366004613a17565b60a76020526000908152604090205481565b3480156102a157600080fd5b506102b56102b0366004613a34565b6106e7565b005b3480156102c357600080fd5b5061023f6102d2366004613a17565b60a86020526000908152604090205481565b3480156102f057600080fd5b5061023f60a15481565b34801561030657600080fd5b5061023f610315366004613a17565b610e06565b34801561032657600080fd5b506102b5610335366004613b46565b610e88565b34801561034657600080fd5b506102b5610355366004613ba2565b610f45565b34801561036657600080fd5b50609c5461037a906001600160a01b031681565b6040516001600160a01b039091168152602001610249565b34801561039e57600080fd5b5061023f60a65481565b3480156103b457600080fd5b506102b5611124565b6102b56103cb366004613b46565b61138b565b3480156103dc57600080fd5b5060335460ff166040519015158152602001610249565b3480156103ff57600080fd5b506102b56113c6565b34801561041457600080fd5b506102b5610423366004613a17565b6116ce565b34801561043457600080fd5b5060985461037a906001600160a01b031681565b34801561045457600080fd5b5060a35461037a906001600160a01b031681565b34801561047457600080fd5b5060a55461023f565b34801561048957600080fd5b506102b56117f3565b34801561049e57600080fd5b5061023f60a45481565b3480156104b457600080fd5b5060975461037a906001600160a01b031681565b3480156104d457600080fd5b5061023f609d5481565b3480156104ea57600080fd5b506102b56104f9366004613bbb565b611a57565b34801561050a57600080fd5b506102b5610519366004613bbb565b611aac565b34801561052a57600080fd5b5060a05461037a906001600160a01b031681565b34801561054a57600080fd5b506102b5611adb565b34801561055f57600080fd5b5060995461037a906001600160a01b031681565b34801561057f57600080fd5b506102b5611c7d565b34801561059457600080fd5b506102b56105a3366004613a17565b611ec2565b3480156105b457600080fd5b5061023f609f5481565b3480156105ca57600080fd5b50609e5461037a906001600160a01b031681565b3480156105ea57600080fd5b5061023f609b5481565b34801561060057600080fd5b5061023f6120b6565b34801561061557600080fd5b5061023f609a5481565b34801561062b57600080fd5b506102b561063a366004613c2e565b6120e8565b34801561064b57600080fd5b5060a25461037a906001600160a01b031681565b609754609a5460405163b31d991360e01b81526000926106e19285926001600160a01b039092169163b31d99139161069b913090600401613caa565b602060405180830381865afa1580156106b8573d6000803e3d6000fd5b505050506040513d601f19601f820116820180604052508101906106dc9190613cc1565b61214c565b92915050565b600054610100900460ff16158080156107075750600054600160ff909116105b806107215750303b158015610721575060005460ff166001145b6107895760405162461bcd60e51b815260206004820152602e60248201527f496e697469616c697a61626c653a20636f6e747261637420697320616c72656160448201526d191e481a5b9a5d1a585b1a5e995960921b60648201526084015b60405180910390fd5b6000805460ff1916600117905580156107ac576000805461ff0019166101001790555b6107b4612189565b6107bc6121ba565b604051631526fe2760e01b8152600481018890526000906001600160a01b038a1690631526fe279060240160a060405180830381865afa158015610804573d6000803e3d6000fd5b505050506040513d601f19601f820116820180604052508101906108289190613cda565b5050505090508a6001600160a01b0316816001600160a01b0316146108a85760405162461bcd60e51b815260206004820152603060248201527f436f6c6c61746572616c546f6b656e416461707465722f636f6c6c617465726160448201526f0d8a8ded6cadc5adcdee85adac2e8c6d60831b6064820152608401610780565b896001600160a01b0316896001600160a01b031663b2a795ca6040518163ffffffff1660e01b8152600401602060405180830381865afa1580156108f0573d6000803e3d6000fd5b505050506040513d601f19601f820116820180604052508101906109149190613d23565b6001600160a01b0316146109805760405162461bcd60e51b815260206004820152602d60248201527f436f6c6c61746572616c546f6b656e416461707465722f7265776172642d746f60448201526c0d6cadc5adcdee85adac2e8c6d609b1b6064820152608401610780565b866001600160a01b0316896001600160a01b0316638da5cb5b6040518163ffffffff1660e01b8152600401602060405180830381865afa1580156109c8573d6000803e3d6000fd5b505050506040513d601f19601f820116820180604052508101906109ec9190613d23565b6001600160a01b031614610a525760405162461bcd60e51b815260206004820152602760248201527f436f6c6c61746572616c546f6b656e416461707465722f736869656c642d6e6f6044820152660e85adac2e8c6d60cb1b6064820152608401610780565b856001600160a01b0316876001600160a01b0316638da5cb5b6040518163ffffffff1660e01b8152600401602060405180830381865afa158015610a9a573d6000803e3d6000fd5b505050506040513d601f19601f82011682018060405250810190610abe9190613d23565b6001600160a01b031614610b265760405162461bcd60e51b815260206004820152602960248201527f436f6c6c61746572616c546f6b656e416461707465722f74696d656c6f636b2d6044820152680dcdee85adac2e8c6d60bb1b6064820152608401610780565b88609760006101000a8154816001600160a01b0302191690836001600160a01b0316021790555086609860006101000a8154816001600160a01b0302191690836001600160a01b0316021790555085609960006101000a8154816001600160a01b0302191690836001600160a01b0316021790555087609a819055506001609d819055508c609e60006101000a8154816001600160a01b0302191690836001600160a01b031602179055508b609f819055508a60a060006101000a8154816001600160a01b0302191690836001600160a01b0316021790555060a060009054906101000a90046001600160a01b03166001600160a01b031663313ce5676040518163ffffffff1660e01b8152600401602060405180830381865afa158015610c52573d6000803e3d6000fd5b505050506040513d601f19601f82011682018060405250810190610c769190613d40565b60ff1660a181905560121015610cda5760405162461bcd60e51b8152602060048201526024808201527f436f6c6c61746572616c546f6b656e416461707465722f646563696d616c732060448201526307c4062760e31b6064820152608401610780565b60a154610ce8906012613d79565b610cf390600a613e70565b60a95560a154610d0490600a613e70565b60aa5560a280546001600160a01b0319166001600160a01b038c8116919091179091558416610d455760405162461bcd60e51b815260040161078090613e7c565b611388851115610d675760405162461bcd60e51b815260040161078090613ec7565b609b859055609c80546001600160a01b038087166001600160a01b03199283161790925560a38054868416921691909117905560975460a054610db19290811691166000196121e9565b508015610df8576000805461ff0019169055604051600181527f7f26b83ff96e1f2b6a682f133852f6798a09c465da95921460cefb38474024989060200160405180910390a15b505050505050505050505050565b609754609a5460405163b31d991360e01b81526000926106e19285926001600160a01b039092169163b31d991391610e42913090600401613caa565b602060405180830381865afa158015610e5f573d6000803e3d6000fd5b505050506040513d601f19601f82011682018060405250810190610e839190613cc1565b6122f3565b600260655403610eaa5760405162461bcd60e51b815260040161078090613f12565b6002606555610eb7612427565b609d54600103610f30578215610f3057609754609a54604051635ae2fb3960e11b81526001600160a01b039092169163b5c5f67291610efd913091908890600401613f49565b600060405180830381600087803b158015610f1757600080fd5b505af1158015610f2b573d6000803e3d6000fd5b505050505b610f3a848461246d565b505060016065555050565b609e546040805163c8cc243f60e01b815290516000926001600160a01b03169163c8cc243f9160048083019260209291908290030181865afa158015610f8f573d6000803e3d6000fd5b505050506040513d601f19601f82011682018060405250810190610fb39190613d23565b9050806001600160a01b03166391d14854826001600160a01b031663e58378bb6040518163ffffffff1660e01b8152600401602060405180830381865afa158015611002573d6000803e3d6000fd5b505050506040513d601f19601f820116820180604052508101906110269190613cc1565b336040518363ffffffff1660e01b8152600401611044929190613caa565b602060405180830381865afa158015611061573d6000803e3d6000fd5b505050506040513d601f19601f820116820180604052508101906110859190613f6a565b6110a15760405162461bcd60e51b815260040161078090613f8c565b609d546001146110c35760405162461bcd60e51b815260040161078090613fb0565b6113888211156110e55760405162461bcd60e51b815260040161078090613ec7565b609b82905560405182815233907fc4a68586da2556b3c4dd5c980f9707a3a5c41545f6e23a71be744bd18851a99b906020015b60405180910390a25050565b609e546040805163c8cc243f60e01b815290516000926001600160a01b03169163c8cc243f9160048083019260209291908290030181865afa15801561116e573d6000803e3d6000fd5b505050506040513d601f19601f820116820180604052508101906111929190613d23565b9050806001600160a01b03166391d14854826001600160a01b031663e58378bb6040518163ffffffff1660e01b8152600401602060405180830381865afa1580156111e1573d6000803e3d6000fd5b505050506040513d601f19601f820116820180604052508101906112059190613cc1565b336040518363ffffffff1660e01b8152600401611223929190613caa565b602060405180830381865afa158015611240573d6000803e3d6000fd5b505050506040513d601f19601f820116820180604052508101906112649190613f6a565b8061133a5750806001600160a01b03166391d14854826001600160a01b031663b536818a6040518163ffffffff1660e01b8152600401602060405180830381865afa1580156112b7573d6000803e3d6000fd5b505050506040513d601f19601f820116820180604052508101906112db9190613cc1565b336040518363ffffffff1660e01b81526004016112f9929190613caa565b602060405180830381865afa158015611316573d6000803e3d6000fd5b505050506040513d601f19601f8201168201806040525081019061133a9190613f6a565b6113805760405162461bcd60e51b815260206004820152601760248201527621286f776e6572526f6c65206f7220676f76526f6c652960481b6044820152606401610780565b611388612676565b50565b6002606554036113ad5760405162461bcd60e51b815260040161078090613f12565b60026065556113ba612427565b610f3a848484846126c8565b6002606554036113e85760405162461bcd60e51b815260040161078090613f12565b6002606555609e546040805163c8cc243f60e01b815290516000926001600160a01b03169163c8cc243f9160048083019260209291908290030181865afa158015611437573d6000803e3d6000fd5b505050506040513d601f19601f8201168201806040525081019061145b9190613d23565b9050806001600160a01b03166391d14854826001600160a01b031663e58378bb6040518163ffffffff1660e01b8152600401602060405180830381865afa1580156114aa573d6000803e3d6000fd5b505050506040513d601f19601f820116820180604052508101906114ce9190613cc1565b336040518363ffffffff1660e01b81526004016114ec929190613caa565b602060405180830381865afa158015611509573d6000803e3d6000fd5b505050506040513d601f19601f8201168201806040525081019061152d9190613f6a565b806115b4575060995460985460408051638da5cb5b60e01b815290516001600160a01b039384169390921691638da5cb5b916004808201926020929091908290030181865afa158015611584573d6000803e3d6000fd5b505050506040513d601f19601f820116820180604052508101906115a89190613d23565b6001600160a01b031614155b61160e5760405162461bcd60e51b815260206004820152602560248201527f436f6c6c61746572616c546f6b656e416461707465722f6e6f742d617574686f6044820152641c9a5e995960da1b6064820152608401610780565b609d546001146116305760405162461bcd60e51b815260040161078090613fb0565b609754609a54604051632989754760e11b81526001600160a01b0390921691635312ea8e916116659160040190815260200190565b600060405180830381600087803b15801561167f57600080fd5b505af1158015611693573d6000803e3d6000fd5b50506000609d8190556040517fbf689b4aae670d200b1d2b971ace2e0c3bef88a9c5e93f36705c7b86eab630b99350909150a1506001606555565b6002606554036116f05760405162461bcd60e51b815260040161078090613f12565b6002606555609d546001036117e257609e54609f54604051633e2f890b60e21b81526000926001600160a01b03169163f8be242c9161173491903390600401613caa565b602060405180830381865afa158015611751573d6000803e3d6000fd5b505050506040513d601f19601f820116820180604052508101906117759190613cc1565b609754609a54604051635ae2fb3960e11b81529293506001600160a01b039091169163b5c5f672916117ae913091908690600401613f49565b600060405180830381600087803b1580156117c857600080fd5b505af11580156117dc573d6000803e3d6000fd5b50505050505b6117eb81612926565b506001606555565b609e546040805163c8cc243f60e01b815290516000926001600160a01b03169163c8cc243f9160048083019260209291908290030181865afa15801561183d573d6000803e3d6000fd5b505050506040513d601f19601f820116820180604052508101906118619190613d23565b9050806001600160a01b03166391d14854826001600160a01b031663e58378bb6040518163ffffffff1660e01b8152600401602060405180830381865afa1580156118b0573d6000803e3d6000fd5b505050506040513d601f19601f820116820180604052508101906118d49190613cc1565b336040518363ffffffff1660e01b81526004016118f2929190613caa565b602060405180830381865afa15801561190f573d6000803e3d6000fd5b505050506040513d601f19601f820116820180604052508101906119339190613f6a565b80611a095750806001600160a01b03166391d14854826001600160a01b031663b536818a6040518163ffffffff1660e01b8152600401602060405180830381865afa158015611986573d6000803e3d6000fd5b505050506040513d601f19601f820116820180604052508101906119aa9190613cc1565b336040518363ffffffff1660e01b81526004016119c8929190613caa565b602060405180830381865afa1580156119e5573d6000803e3d6000fd5b505050506040513d601f19601f82011682018060405250810190611a099190613f6a565b611a4f5760405162461bcd60e51b815260206004820152601760248201527621286f776e6572526f6c65206f7220676f76526f6c652960481b6044820152606401610780565b611388612b1a565b600260655403611a795760405162461bcd60e51b815260040161078090613f12565b6002606555611a86612427565b611a9385600084846126c8565b611aa08585858585612b57565b50506001606555505050565b600260655403611ace5760405162461bcd60e51b815260040161078090613f12565b6002606555611a93612427565b600260655403611afd5760405162461bcd60e51b815260040161078090613f12565b6002606555609e546040805163c8cc243f60e01b815290516000926001600160a01b03169163c8cc243f9160048083019260209291908290030181865afa158015611b4c573d6000803e3d6000fd5b505050506040513d601f19601f82011682018060405250810190611b709190613d23565b9050806001600160a01b03166391d14854826001600160a01b031663e58378bb6040518163ffffffff1660e01b8152600401602060405180830381865afa158015611bbf573d6000803e3d6000fd5b505050506040513d601f19601f82011682018060405250810190611be39190613cc1565b336040518363ffffffff1660e01b8152600401611c01929190613caa565b602060405180830381865afa158015611c1e573d6000803e3d6000fd5b505050506040513d601f19601f82011682018060405250810190611c429190613f6a565b611c5e5760405162461bcd60e51b815260040161078090613f8c565b60975460a0546117eb916001600160a01b0391821691166000196121e9565b609e546040805163c8cc243f60e01b815290516000926001600160a01b03169163c8cc243f9160048083019260209291908290030181865afa158015611cc7573d6000803e3d6000fd5b505050506040513d601f19601f82011682018060405250810190611ceb9190613d23565b9050806001600160a01b03166391d14854826001600160a01b031663e58378bb6040518163ffffffff1660e01b8152600401602060405180830381865afa158015611d3a573d6000803e3d6000fd5b505050506040513d601f19601f82011682018060405250810190611d5e9190613cc1565b336040518363ffffffff1660e01b8152600401611d7c929190613caa565b602060405180830381865afa158015611d99573d6000803e3d6000fd5b505050506040513d601f19601f82011682018060405250810190611dbd9190613f6a565b611dd95760405162461bcd60e51b815260040161078090613f8c565b609d5415611e295760405162461bcd60e51b815260206004820181905260248201527f436f6c6c61746572616c546f6b656e416461707465722f6e6f742d63616765646044820152606401610780565b609754609a5460a554604051630efe6a8b60e01b81526001600160a01b0390931692630efe6a8b92611e5f923092600401613f49565b600060405180830381600087803b158015611e7957600080fd5b505af1158015611e8d573d6000803e3d6000fd5b50506001609d5550506040517f1868a6ced217213f36be87ba9aee25cde5381b42e85c8f88e73b18772c0bd07390600090a150565b609e546040805163c8cc243f60e01b815290516000926001600160a01b03169163c8cc243f9160048083019260209291908290030181865afa158015611f0c573d6000803e3d6000fd5b505050506040513d601f19601f82011682018060405250810190611f309190613d23565b9050806001600160a01b03166391d14854826001600160a01b031663e58378bb6040518163ffffffff1660e01b8152600401602060405180830381865afa158015611f7f573d6000803e3d6000fd5b505050506040513d601f19601f82011682018060405250810190611fa39190613cc1565b336040518363ffffffff1660e01b8152600401611fc1929190613caa565b602060405180830381865afa158015611fde573d6000803e3d6000fd5b505050506040513d601f19601f820116820180604052508101906120029190613f6a565b61201e5760405162461bcd60e51b815260040161078090613f8c565b609d546001146120405760405162461bcd60e51b815260040161078090613fb0565b6001600160a01b0382166120665760405162461bcd60e51b815260040161078090613e7c565b609c80546001600160a01b0319166001600160a01b03841690811790915560405190815233907fb4d09ab4c7ddf7a7c96bead0c779f3194bc1c10dd5028fbc751e5abe334cf77990602001611118565b600060a5546000036120cf5750670de0b6b3a764000090565b6120e36120db60a55490565b60a554613101565b905090565b60026065540361210a5760405162461bcd60e51b815260040161078090613f12565b6002606555612117612427565b6000808512612126578461212f565b61212f85613fe7565b905061213e8787838686612b57565b505060016065555050505050565b60008061215984846122f3565b9050600061217461216c83609b54613127565b61271061318e565b905061218082826131df565b95945050505050565b600054610100900460ff166121b05760405162461bcd60e51b815260040161078090614003565b6121b8613235565b565b600054610100900460ff166121e15760405162461bcd60e51b815260040161078090614003565b6121b8613268565b604080516001600160a01b038481166024830152604480830185905283518084039091018152606490920183526020820180516001600160e01b031663095ea7b360e01b1790529151600092839290871691612245919061404e565b6000604051808303816000865af19150503d8060008114612282576040519150601f19603f3d011682016040523d82523d6000602084013e612287565b606091505b50915091508180156122b15750805115806122b15750808060200190518101906122b19190613f6a565b6122ec5760405162461bcd60e51b815260206004820152600c60248201526b2173616665417070726f766560a01b6044820152606401610780565b5050505050565b600060a554600003612307575060006106e1565b60a2546040516370a0823160e01b815230600482015260009161238d916123859186916001600160a01b03909116906370a0823190602401602060405180830381865afa15801561235c573d6000803e3d6000fd5b505050506040513d601f19601f820116820180604052508101906123809190613cc1565b613296565b60a6546131df565b905060006123a360a4546123808460a5546132eb565b6001600160a01b038616600090815260a86020526040812054919250906123ca9083613304565b6001600160a01b038716600090815260a7602052604090205490915081111561241b576001600160a01b038616600090815260a760205260409020546124119082906131df565b93505050506106e1565b600093505050506106e1565b60335460ff16156121b85760405162461bcd60e51b815260206004820152601060248201526f14185d5cd8589b194e881c185d5cd95960821b6044820152606401610780565b6124763361331d565b801561260f57600061249a61248d8360a954613127565b6124956120b6565b613547565b9050600081136124bc5760405162461bcd60e51b81526004016107809061407d565b33600090815260a860205260409020548111156125355760405162461bcd60e51b815260206004820152603160248201527f436f6c6c61746572616c546f6b656e416461707465722f696e73756666696369604482015270195b9d081cdd185ad95908185b5bdd5b9d607a1b6064820152608401610780565b609e54609f546001600160a01b039091169063d295927a903361255785613fe7565b6040516001600160e01b031960e086901b16815260048101939093526001600160a01b0390911660248301526044820152606401600060405180830381600087803b1580156125a557600080fd5b505af11580156125b9573d6000803e3d6000fd5b505050506125c960a554826131df565b60a55533600090815260a860205260409020546125e690826131df565b33600090815260a8602052604090205560a05461260d906001600160a01b03168484613564565b505b33600090815260a8602052604090205460a45461262c9190613668565b33600090815260a7602090815260409182902092909255518281527f879a83fc17750905b8aef4ef85e6701b84a50e15d4463dc3c2e7fb0f9dbcf75d910160405180910390a15050565b61267e613689565b6033805460ff191690557f5db9ee0a495bf2e6ff9c91a7834c1ba4fdd244a5e8aa4e537bd38aeae4b073aa335b6040516001600160a01b03909116815260200160405180910390a1565b609d5460011461271a5760405162461bcd60e51b815260206004820152601f60248201527f436f6c6c61746572616c546f6b656e416461707465722f6e6f74206c697665006044820152606401610780565b6127238461331d565b821561283f57600061274761273a8560a954613127565b6127426120b6565b613101565b9050600081136127695760405162461bcd60e51b81526004016107809061407d565b60a054612781906001600160a01b03163330876136d2565b609e54609f5460405163694ac93d60e11b815260048101919091526001600160a01b038781166024830152604482018490529091169063d295927a90606401600060405180830381600087803b1580156127da57600080fd5b505af11580156127ee573d6000803e3d6000fd5b505050506127fe60a55482613296565b60a5556001600160a01b038516600090815260a860205260409020546128249082613296565b6001600160a01b038616600090815260a86020526040902055505b6001600160a01b038416600090815260a8602052604090205460a4546128659190613668565b6001600160a01b038516600090815260a7602052604090205582156128ed57609754609a54604051630efe6a8b60e01b81526001600160a01b0390921691630efe6a8b916128ba913091908890600401613f49565b600060405180830381600087803b1580156128d457600080fd5b505af11580156128e8573d6000803e3d6000fd5b505050505b6040518381527ff641ad64267ca71156d13749ad746155df3095d9afeb604fe3b53016ce5fc8ba9060200160405180910390a150505050565b609e54609f54604051633e2f890b60e21b81526000926001600160a01b03169163f8be242c9161295b91903390600401613caa565b602060405180830381865afa158015612978573d6000803e3d6000fd5b505050506040513d601f19601f8201168201806040525081019061299c9190613cc1565b9050600160ff1b81106129c15760405162461bcd60e51b81526004016107809061407d565b60006129df6129d7836129d26120b6565b6137ea565b60aa546137ea565b609e54609f549192506001600160a01b03169063d295927a9033612a0286613fe7565b6040516001600160e01b031960e086901b16815260048101939093526001600160a01b0390911660248301526044820152606401600060405180830381600087803b158015612a5057600080fd5b505af1158015612a64573d6000803e3d6000fd5b50505050612a7460a554836131df565b60a55533600090815260a86020526040902054612a9190836131df565b33600090815260a86020526040902081905560a454612ab09190613668565b33600090815260a7602052604090205560a054612ad7906001600160a01b03168483613564565b6040516001600160a01b038416815233907f6ba7f365fdc489ae6b61ea2021626b6df9cff6f0280e8e1658e5d7f87794f0c89060200160405180910390a2505050565b612b22612427565b6033805460ff191660011790557f62e78cea01bee320cd4e420270b5ea74000d11b0c9f74754ebdbfc544b05a2586126ab3390565b609e546040805163c8cc243f60e01b815290516000926001600160a01b03169163c8cc243f9160048083019260209291908290030181865afa158015612ba1573d6000803e3d6000fd5b505050506040513d601f19601f82011682018060405250810190612bc59190613d23565b9050806001600160a01b03166391d14854826001600160a01b0316632e718ab76040518163ffffffff1660e01b8152600401602060405180830381865afa158015612c14573d6000803e3d6000fd5b505050506040513d601f19601f82011682018060405250810190612c389190613cc1565b336040518363ffffffff1660e01b8152600401612c56929190613caa565b602060405180830381865afa158015612c73573d6000803e3d6000fd5b505050506040513d601f19601f82011682018060405250810190612c979190613f6a565b612cd85760405162461bcd60e51b815260206004820152601260248201527110b1b7b63630ba32b930b626b0b730b3b2b960711b6044820152606401610780565b6001600160a01b038616600090815260a86020526040902054612cfb81866131df565b6001600160a01b03808916600090815260a860205260408082209390935590881681522054612d2a9086613296565b6001600160a01b03808816600090815260a86020908152604080832094909455918a16815260a7909152908120549082612d648389613127565b612d6e91906140c2565b9050612d7a8183613d79565b6001600160a01b03808b16600090815260a7602052604080822093909355908a1681522054612da99082613296565b6001600160a01b03808a16600090815260a7602052604080822093909355609e54609f549351630a76216560e21b815291939216916329d8859491612df391908e90600401613caa565b6040805180830381865afa158015612e0f573d6000803e3d6000fd5b505050506040513d601f19601f82011682018060405250810190612e3391906140e4565b50609e54609f54604051633e2f890b60e21b8152929350612eb5926001600160a01b039092169163f8be242c91612e6e918f90600401613caa565b602060405180830381865afa158015612e8b573d6000803e3d6000fd5b505050506040513d601f19601f82011682018060405250810190612eaf9190613cc1565b82613296565b6001600160a01b038b16600090815260a860205260409020541015612f555760405162461bcd60e51b815260206004820152604a60248201527f436f6c6c61746572616c546f6b656e416461707465722f7374616b655b736f7560448201527f7263655d203c20636f6c6c61746572616c546f6b656e73202b206c6f636b656460648201526910dbdb1b185d195c985b60b21b608482015260a401610780565b609e54609f54604051630a76216560e21b81526001600160a01b03909216916329d8859491612f88918d90600401613caa565b6040805180830381865afa158015612fa4573d6000803e3d6000fd5b505050506040513d601f19601f82011682018060405250810190612fc891906140e4565b50609e54609f54604051633e2f890b60e21b8152929350613003926001600160a01b039092169163f8be242c91612e6e918e90600401613caa565b6001600160a01b038a16600090815260a8602052604090205411156130a85760405162461bcd60e51b815260206004820152604f60248201527f436f6c6c61746572616c546f6b656e416461707465722f7374616b655b64657360448201527f74696e6174696f6e5d203e20636f6c6c61746572616c546f6b656e73202b206c60648201526e1bd8dad95910dbdb1b185d195c985b608a1b608482015260a401610780565b886001600160a01b03168a6001600160a01b03167f11f8877fdec37577921d8bf36ca71ea534c8901eada496d759bce84bba46e2de8a6040516130ed91815260200190565b60405180910390a350505050505050505050565b60008161311684670de0b6b3a7640000613127565b61312091906140c2565b9392505050565b600081158061314b5750828261313d8183614108565b925061314990836140c2565b145b6106e15760405162461bcd60e51b815260206004820152601460248201527364732d6d6174682d6d756c2d6f766572666c6f7760601b6044820152606401610780565b60008082116131d55760405162461bcd60e51b815260206004820152601360248201527264732d6d6174682d6469762d62792d7a65726f60681b6044820152606401610780565b61312082846140c2565b6000826131ec8382613d79565b91508111156106e15760405162461bcd60e51b815260206004820152601560248201527464732d6d6174682d7375622d756e646572666c6f7760581b6044820152606401610780565b600054610100900460ff1661325c5760405162461bcd60e51b815260040161078090614003565b6033805460ff19169055565b600054610100900460ff1661328f5760405162461bcd60e51b815260040161078090614003565b6001606555565b6000826132a3838261411f565b91508110156106e15760405162461bcd60e51b815260206004820152601460248201527364732d6d6174682d6164642d6f766572666c6f7760601b6044820152606401610780565b600081613116846b033b2e3c9fd0803ce8000000613127565b60006b033b2e3c9fd0803ce80000006131168484613127565b60a354604051633383f9ef60e11b81526001600160a01b0383811660048301526000921690636707f3de90602401602060405180830381865afa158015613368573d6000803e3d6000fd5b505050506040513d601f19601f8201168201806040525081019061338c9190613d23565b90506001600160a01b03811661339f5750805b6001600160a01b03811661340c5760405162461bcd60e51b815260206004820152602e60248201527f436f6c6c61746572616c546f6b656e416461707465722f686172766573742d7460448201526d6f2d616464726573732d7a65726f60901b6064820152608401610780565b60a554156134315761342d60a4546123806134256137ff565b60a5546132eb565b60a4555b6001600160a01b038216600090815260a7602090815260408083205460a890925282205460a4549192916134659190613304565b9050818111156134d257600061347b82846131df565b9050600061348e61216c83609b54613127565b609c5460a2549192506134ae916001600160a01b03908116911683613564565b6134cf856134bc84846131df565b60a2546001600160a01b03169190613564565b50505b60a2546040516370a0823160e01b81523060048201526001600160a01b03909116906370a0823190602401602060405180830381865afa15801561351a573d6000803e3d6000fd5b505050506040513d601f19601f8201168201806040525081019061353e9190613cc1565b60a65550505050565b600061312061355e84670de0b6b3a7640000613127565b836139f0565b604080516001600160a01b038481166024830152604480830185905283518084039091018152606490920183526020820180516001600160e01b031663a9059cbb60e01b17905291516000928392908716916135c0919061404e565b6000604051808303816000865af19150503d80600081146135fd576040519150601f19603f3d011682016040523d82523d6000602084013e613602565b606091505b509150915081801561362c57508051158061362c57508080602001905181019061362c9190613f6a565b6122ec5760405162461bcd60e51b815260206004820152600d60248201526c10b9b0b332aa3930b739b332b960991b6044820152606401610780565b60006131206136778484613127565b6b033b2e3c9fd0803ce80000006139f0565b60335460ff166121b85760405162461bcd60e51b815260206004820152601460248201527314185d5cd8589b194e881b9bdd081c185d5cd95960621b6044820152606401610780565b604080516001600160a01b0385811660248301528481166044830152606480830185905283518084039091018152608490920183526020820180516001600160e01b03166323b872dd60e01b1790529151600092839290881691613736919061404e565b6000604051808303816000865af19150503d8060008114613773576040519150601f19603f3d011682016040523d82523d6000602084013e613778565b606091505b50915091508180156137a25750805115806137a25750808060200190518101906137a29190613f6a565b6137e25760405162461bcd60e51b815260206004820152601160248201527021736166655472616e7366657246726f6d60781b6044820152606401610780565b505050505050565b6000670de0b6b3a76400006131168484613127565b6000609d5460010361398257609754609a5460405163b31d991360e01b81526000926001600160a01b03169163b31d99139161384091903090600401613caa565b602060405180830381865afa15801561385d573d6000803e3d6000fd5b505050506040513d601f19601f820116820180604052508101906138819190613cc1565b609754609a546040516393f1a40b60e01b81529293506000926001600160a01b03909216916393f1a40b916138ba913090600401613caa565b608060405180830381865afa1580156138d7573d6000803e3d6000fd5b505050506040513d601f19601f820116820180604052508101906138fb9190614132565b50505090506000811180156139105750600082115b1561397f57609754609a54604051635ae2fb3960e11b81526001600160a01b039092169163b5c5f6729161394c91309190600090600401613f49565b600060405180830381600087803b15801561396657600080fd5b505af115801561397a573d6000803e3d6000fd5b505050505b50505b60a2546040516370a0823160e01b81523060048201526120e3916001600160a01b0316906370a0823190602401602060405180830381865afa1580156139cc573d6000803e3d6000fd5b505050506040513d601f19601f820116820180604052508101906123859190613cc1565b600081613116846123808560016131df565b6001600160a01b038116811461138857600080fd5b600060208284031215613a2957600080fd5b813561312081613a02565b60008060008060008060008060008060006101608c8e031215613a5657600080fd5b8b35613a6181613a02565b9a5060208c0135995060408c0135613a7881613a02565b985060608c0135613a8881613a02565b975060808c0135613a9881613a02565b965060a08c0135955060c08c0135613aaf81613a02565b945060e08c0135613abf81613a02565b93506101008c013592506101208c0135613ad881613a02565b91506101408c0135613ae981613a02565b809150509295989b509295989b9093969950565b60008083601f840112613b0f57600080fd5b50813567ffffffffffffffff811115613b2757600080fd5b602083019150836020828501011115613b3f57600080fd5b9250929050565b60008060008060608587031215613b5c57600080fd5b8435613b6781613a02565b935060208501359250604085013567ffffffffffffffff811115613b8a57600080fd5b613b9687828801613afd565b95989497509550505050565b600060208284031215613bb457600080fd5b5035919050565b600080600080600060808688031215613bd357600080fd5b8535613bde81613a02565b94506020860135613bee81613a02565b935060408601359250606086013567ffffffffffffffff811115613c1157600080fd5b613c1d88828901613afd565b969995985093965092949392505050565b60008060008060008060a08789031215613c4757600080fd5b8635613c5281613a02565b95506020870135613c6281613a02565b94506040870135935060608701359250608087013567ffffffffffffffff811115613c8c57600080fd5b613c9889828a01613afd565b979a9699509497509295939492505050565b9182526001600160a01b0316602082015260400190565b600060208284031215613cd357600080fd5b5051919050565b600080600080600060a08688031215613cf257600080fd5b8551613cfd81613a02565b602087015160408801516060890151608090990151929a91995097965090945092505050565b600060208284031215613d3557600080fd5b815161312081613a02565b600060208284031215613d5257600080fd5b815160ff8116811461312057600080fd5b634e487b7160e01b600052601160045260246000fd5b818103818111156106e1576106e1613d63565b600181815b80851115613dc7578160001904821115613dad57613dad613d63565b80851615613dba57918102915b93841c9390800290613d91565b509250929050565b600082613dde575060016106e1565b81613deb575060006106e1565b8160018114613e015760028114613e0b57613e27565b60019150506106e1565b60ff841115613e1c57613e1c613d63565b50506001821b6106e1565b5060208310610133831016604e8410600b8410161715613e4a575081810a6106e1565b613e548383613d8c565b8060001904821115613e6857613e68613d63565b029392505050565b60006131208383613dcf565b6020808252602b908201527f436f6c6c61746572616c546f6b656e416461707465722f62616420747265617360408201526a1d5c9e481858d8dbdd5b9d60aa1b606082015260800190565b6020808252602b908201527f436f6c6c61746572616c546f6b656e416461707465722f62616420747265617360408201526a757279206665652062707360a81b606082015260800190565b6020808252601f908201527f5265656e7472616e637947756172643a207265656e7472616e742063616c6c00604082015260600190565b6001600160a01b039390931683526020830191909152604082015260600190565b600060208284031215613f7c57600080fd5b8151801515811461312057600080fd5b6020808252600a9082015269216f776e6572526f6c6560b01b604082015260600190565b6020808252601f908201527f436f6c6c61746572616c546f6b656e416461707465722f6e6f742d6c69766500604082015260600190565b6000600160ff1b8201613ffc57613ffc613d63565b5060000390565b6020808252602b908201527f496e697469616c697a61626c653a20636f6e7472616374206973206e6f74206960408201526a6e697469616c697a696e6760a81b606082015260800190565b6000825160005b8181101561406f5760208186018101518583015201614055565b506000920191825250919050565b60208082526025908201527f436f6c6c61746572616c546f6b656e416461707465722f73686172652d6f766560408201526472666c6f7760d81b606082015260800190565b6000826140df57634e487b7160e01b600052601260045260246000fd5b500490565b600080604083850312156140f757600080fd5b505080516020909101519092909150565b80820281158282048414176106e1576106e1613d63565b808201808211156106e1576106e1613d63565b6000806000806080858703121561414857600080fd5b845193506020850151925060408501519150606085015161416881613a02565b93969295509093505056fea26469706673582212209a421406d11e562052380bfbdcf6c27438842125d941689ed710cdb9511321ac64736f6c63430008110033a2646970667358221220aeeed90a39406e68e27ce0bf4efab3dc4cc8bf2e4644761dd16da676cdaa5d7a64736f6c63430008110033",
  "immutableReferences": {},
  "source": "// SPDX-License-Identifier: AGPL-3.0-or-later\n\npragma solidity 0.8.17;\n\nimport \"./CollateralTokenAdapter.sol\";\n\ncontract CollateralTokenAdapterFactory {\n    mapping(bytes32 => address) private _adapters;\n\n    event CollateralTokenAdapterCreated(bytes32 indexed collateralPoolId, address adapterAddress);\n    \n    function createAdapter(\n        address bookKeeper,\n        bytes32 collateralPoolId,\n        address collateralToken,\n        address rewardToken,\n        address fairlaunch,\n        uint256 pid,\n        address shield,\n        address timelock,\n        uint256 treasuryFeeBps,\n        address treasuryAccount,\n        address positionManager\n    ) external returns (address adapterAddress) {\n        try new CollateralTokenAdapter() returns (CollateralTokenAdapter res) {\n            adapterAddress = address(res);\n            \n            res.initialize(\n                bookKeeper,\n                collateralPoolId,\n                collateralToken,\n                rewardToken,\n                fairlaunch,\n                pid,\n                shield,\n                timelock,\n                treasuryFeeBps,\n                treasuryAccount,\n                positionManager\n            );\n            _adapters[collateralPoolId] = adapterAddress;\n\n            emit CollateralTokenAdapterCreated(collateralPoolId, adapterAddress);\n        } catch Error(string memory reason) {\n            revert(reason);\n        } catch (bytes memory reason) {\n            revert(string(reason));\n        }\n    }\n\n    function getAdapter(bytes32 collateralPoolId) external view returns (address adapterAddress){\n        adapterAddress = _adapters[collateralPoolId];\n    }\n}",
  "sourcePath": "/Users/sangjun.lee/Sangjun/fathom-stablecoin-smart-contracts/contracts/8.17/stablecoin-core/adapters/FarmableTokenAdapter/CollateralTokenAdapterFactory.sol",
  "compiler": {
    "name": "solc",
    "version": "0.8.17+commit.8df45f5f.Emscripten.clang"
  },
  "schemaVersion": "3.4.10",
  "updatedAt": "2022-10-31T10:52:15.397Z",
  "devdoc": {
    "kind": "dev",
    "methods": {},
    "version": 1
  },
  "userdoc": {
    "kind": "user",
    "methods": {},
    "version": 1
  }
}