{
  "contractName": "CollateralPoolConfig",
  "abi": [
    {
      "anonymous": false,
      "inputs": [
        {
          "indexed": false,
          "internalType": "uint8",
          "name": "version",
          "type": "uint8"
        }
      ],
      "name": "Initialized",
      "type": "event"
    },
    {
      "anonymous": false,
      "inputs": [
        {
          "indexed": true,
          "internalType": "address",
          "name": "_caller",
          "type": "address"
        },
        {
          "indexed": false,
          "internalType": "bytes32",
          "name": "_collateralPoolId",
          "type": "bytes32"
        },
        {
          "indexed": false,
          "internalType": "address",
          "name": "_adapter",
          "type": "address"
        }
      ],
      "name": "LogSetAdapter",
      "type": "event"
    },
    {
      "anonymous": false,
      "inputs": [
        {
          "indexed": true,
          "internalType": "address",
          "name": "_caller",
          "type": "address"
        },
        {
          "indexed": false,
          "internalType": "bytes32",
          "name": "_collateralPoolId",
          "type": "bytes32"
        },
        {
          "indexed": false,
          "internalType": "uint256",
          "name": "_closeFactorBps",
          "type": "uint256"
        }
      ],
      "name": "LogSetCloseFactorBps",
      "type": "event"
    },
    {
      "anonymous": false,
      "inputs": [
        {
          "indexed": true,
          "internalType": "address",
          "name": "_caller",
          "type": "address"
        },
        {
          "indexed": false,
          "internalType": "bytes32",
          "name": "_collateralPoolId",
          "type": "bytes32"
        },
        {
          "indexed": false,
          "internalType": "uint256",
          "name": "_debtAccumulatedRate",
          "type": "uint256"
        }
      ],
      "name": "LogSetDebtAccumulatedRate",
      "type": "event"
    },
    {
      "anonymous": false,
      "inputs": [
        {
          "indexed": true,
          "internalType": "address",
          "name": "_caller",
          "type": "address"
        },
        {
          "indexed": false,
          "internalType": "bytes32",
          "name": "_collateralPoolId",
          "type": "bytes32"
        },
        {
          "indexed": false,
          "internalType": "uint256",
          "name": "_debtCeiling",
          "type": "uint256"
        }
      ],
      "name": "LogSetDebtCeiling",
      "type": "event"
    },
    {
      "anonymous": false,
      "inputs": [
        {
          "indexed": true,
          "internalType": "address",
          "name": "_caller",
          "type": "address"
        },
        {
          "indexed": false,
          "internalType": "bytes32",
          "name": "_collateralPoolId",
          "type": "bytes32"
        },
        {
          "indexed": false,
          "internalType": "uint256",
          "name": "_debtFloor",
          "type": "uint256"
        }
      ],
      "name": "LogSetDebtFloor",
      "type": "event"
    },
    {
      "anonymous": false,
      "inputs": [
        {
          "indexed": true,
          "internalType": "address",
          "name": "_caller",
          "type": "address"
        },
        {
          "indexed": false,
          "internalType": "bytes32",
          "name": "_poolId",
          "type": "bytes32"
        },
        {
          "indexed": false,
          "internalType": "uint256",
          "name": "_data",
          "type": "uint256"
        }
      ],
      "name": "LogSetLiquidationRatio",
      "type": "event"
    },
    {
      "anonymous": false,
      "inputs": [
        {
          "indexed": true,
          "internalType": "address",
          "name": "_caller",
          "type": "address"
        },
        {
          "indexed": false,
          "internalType": "bytes32",
          "name": "_collateralPoolId",
          "type": "bytes32"
        },
        {
          "indexed": false,
          "internalType": "uint256",
          "name": "_liquidatorIncentiveBps",
          "type": "uint256"
        }
      ],
      "name": "LogSetLiquidatorIncentiveBps",
      "type": "event"
    },
    {
      "anonymous": false,
      "inputs": [
        {
          "indexed": true,
          "internalType": "address",
          "name": "_caller",
          "type": "address"
        },
        {
          "indexed": false,
          "internalType": "bytes32",
          "name": "_poolId",
          "type": "bytes32"
        },
        {
          "indexed": false,
          "internalType": "address",
          "name": "_priceFeed",
          "type": "address"
        }
      ],
      "name": "LogSetPriceFeed",
      "type": "event"
    },
    {
      "anonymous": false,
      "inputs": [
        {
          "indexed": true,
          "internalType": "address",
          "name": "_caller",
          "type": "address"
        },
        {
          "indexed": false,
          "internalType": "bytes32",
          "name": "_collateralPoolId",
          "type": "bytes32"
        },
        {
          "indexed": false,
          "internalType": "uint256",
          "name": "_priceWithSafetyMargin",
          "type": "uint256"
        }
      ],
      "name": "LogSetPriceWithSafetyMargin",
      "type": "event"
    },
    {
      "anonymous": false,
      "inputs": [
        {
          "indexed": true,
          "internalType": "address",
          "name": "_caller",
          "type": "address"
        },
        {
          "indexed": false,
          "internalType": "bytes32",
          "name": "_poolId",
          "type": "bytes32"
        },
        {
          "indexed": false,
          "internalType": "uint256",
          "name": "_data",
          "type": "uint256"
        }
      ],
      "name": "LogSetStabilityFeeRate",
      "type": "event"
    },
    {
      "anonymous": false,
      "inputs": [
        {
          "indexed": true,
          "internalType": "address",
          "name": "_caller",
          "type": "address"
        },
        {
          "indexed": false,
          "internalType": "bytes32",
          "name": "_collateralPoolId",
          "type": "bytes32"
        },
        {
          "indexed": false,
          "internalType": "address",
          "name": "strategy",
          "type": "address"
        }
      ],
      "name": "LogSetStrategy",
      "type": "event"
    },
    {
      "anonymous": false,
      "inputs": [
        {
          "indexed": true,
          "internalType": "address",
          "name": "_caller",
          "type": "address"
        },
        {
          "indexed": false,
          "internalType": "bytes32",
          "name": "_collateralPoolId",
          "type": "bytes32"
        },
        {
          "indexed": false,
          "internalType": "uint256",
          "name": "_totalDebtShare",
          "type": "uint256"
        }
      ],
      "name": "LogSetTotalDebtShare",
      "type": "event"
    },
    {
      "anonymous": false,
      "inputs": [
        {
          "indexed": true,
          "internalType": "address",
          "name": "_caller",
          "type": "address"
        },
        {
          "indexed": false,
          "internalType": "bytes32",
          "name": "_collateralPoolId",
          "type": "bytes32"
        },
        {
          "indexed": false,
          "internalType": "uint256",
          "name": "_treasuryFeeBps",
          "type": "uint256"
        }
      ],
      "name": "LogSetTreasuryFeesBps",
      "type": "event"
    },
    {
      "anonymous": false,
      "inputs": [
        {
          "indexed": true,
          "internalType": "bytes32",
          "name": "role",
          "type": "bytes32"
        },
        {
          "indexed": true,
          "internalType": "bytes32",
          "name": "previousAdminRole",
          "type": "bytes32"
        },
        {
          "indexed": true,
          "internalType": "bytes32",
          "name": "newAdminRole",
          "type": "bytes32"
        }
      ],
      "name": "RoleAdminChanged",
      "type": "event"
    },
    {
      "anonymous": false,
      "inputs": [
        {
          "indexed": true,
          "internalType": "bytes32",
          "name": "role",
          "type": "bytes32"
        },
        {
          "indexed": true,
          "internalType": "address",
          "name": "account",
          "type": "address"
        },
        {
          "indexed": true,
          "internalType": "address",
          "name": "sender",
          "type": "address"
        }
      ],
      "name": "RoleGranted",
      "type": "event"
    },
    {
      "anonymous": false,
      "inputs": [
        {
          "indexed": true,
          "internalType": "bytes32",
          "name": "role",
          "type": "bytes32"
        },
        {
          "indexed": true,
          "internalType": "address",
          "name": "account",
          "type": "address"
        },
        {
          "indexed": true,
          "internalType": "address",
          "name": "sender",
          "type": "address"
        }
      ],
      "name": "RoleRevoked",
      "type": "event"
    },
    {
      "inputs": [],
      "name": "DEFAULT_ADMIN_ROLE",
      "outputs": [
        {
          "internalType": "bytes32",
          "name": "",
          "type": "bytes32"
        }
      ],
      "stateMutability": "view",
      "type": "function"
    },
    {
      "inputs": [],
      "name": "accessControlConfig",
      "outputs": [
        {
          "internalType": "contract IAccessControlConfig",
          "name": "",
          "type": "address"
        }
      ],
      "stateMutability": "view",
      "type": "function"
    },
    {
      "inputs": [
        {
          "internalType": "bytes32",
          "name": "role",
          "type": "bytes32"
        }
      ],
      "name": "getRoleAdmin",
      "outputs": [
        {
          "internalType": "bytes32",
          "name": "",
          "type": "bytes32"
        }
      ],
      "stateMutability": "view",
      "type": "function"
    },
    {
      "inputs": [
        {
          "internalType": "bytes32",
          "name": "role",
          "type": "bytes32"
        },
        {
          "internalType": "address",
          "name": "account",
          "type": "address"
        }
      ],
      "name": "grantRole",
      "outputs": [],
      "stateMutability": "nonpayable",
      "type": "function"
    },
    {
      "inputs": [
        {
          "internalType": "bytes32",
          "name": "role",
          "type": "bytes32"
        },
        {
          "internalType": "address",
          "name": "account",
          "type": "address"
        }
      ],
      "name": "hasRole",
      "outputs": [
        {
          "internalType": "bool",
          "name": "",
          "type": "bool"
        }
      ],
      "stateMutability": "view",
      "type": "function"
    },
    {
      "inputs": [
        {
          "internalType": "bytes32",
          "name": "role",
          "type": "bytes32"
        },
        {
          "internalType": "address",
          "name": "account",
          "type": "address"
        }
      ],
      "name": "renounceRole",
      "outputs": [],
      "stateMutability": "nonpayable",
      "type": "function"
    },
    {
      "inputs": [
        {
          "internalType": "bytes32",
          "name": "role",
          "type": "bytes32"
        },
        {
          "internalType": "address",
          "name": "account",
          "type": "address"
        }
      ],
      "name": "revokeRole",
      "outputs": [],
      "stateMutability": "nonpayable",
      "type": "function"
    },
    {
      "inputs": [
        {
          "internalType": "bytes4",
          "name": "interfaceId",
          "type": "bytes4"
        }
      ],
      "name": "supportsInterface",
      "outputs": [
        {
          "internalType": "bool",
          "name": "",
          "type": "bool"
        }
      ],
      "stateMutability": "view",
      "type": "function"
    },
    {
      "inputs": [
        {
          "internalType": "bytes32",
          "name": "_collateralPoolId",
          "type": "bytes32"
        }
      ],
      "name": "collateralPools",
      "outputs": [
        {
          "components": [
            {
              "internalType": "uint256",
              "name": "totalDebtShare",
              "type": "uint256"
            },
            {
              "internalType": "uint256",
              "name": "debtAccumulatedRate",
              "type": "uint256"
            },
            {
              "internalType": "uint256",
              "name": "priceWithSafetyMargin",
              "type": "uint256"
            },
            {
              "internalType": "uint256",
              "name": "debtCeiling",
              "type": "uint256"
            },
            {
              "internalType": "uint256",
              "name": "debtFloor",
              "type": "uint256"
            },
            {
              "internalType": "address",
              "name": "priceFeed",
              "type": "address"
            },
            {
              "internalType": "uint256",
              "name": "liquidationRatio",
              "type": "uint256"
            },
            {
              "internalType": "uint256",
              "name": "stabilityFeeRate",
              "type": "uint256"
            },
            {
              "internalType": "uint256",
              "name": "lastAccumulationTime",
              "type": "uint256"
            },
            {
              "internalType": "address",
              "name": "adapter",
              "type": "address"
            },
            {
              "internalType": "uint256",
              "name": "closeFactorBps",
              "type": "uint256"
            },
            {
              "internalType": "uint256",
              "name": "liquidatorIncentiveBps",
              "type": "uint256"
            },
            {
              "internalType": "uint256",
              "name": "treasuryFeesBps",
              "type": "uint256"
            },
            {
              "internalType": "address",
              "name": "strategy",
              "type": "address"
            }
          ],
          "internalType": "struct ICollateralPoolConfig.CollateralPool",
          "name": "",
          "type": "tuple"
        }
      ],
      "stateMutability": "view",
      "type": "function"
    },
    {
      "inputs": [
        {
          "internalType": "address",
          "name": "_accessControlConfig",
          "type": "address"
        }
      ],
      "name": "initialize",
      "outputs": [],
      "stateMutability": "nonpayable",
      "type": "function"
    },
    {
      "inputs": [
        {
          "internalType": "bytes32",
          "name": "_collateralPoolId",
          "type": "bytes32"
        },
        {
          "internalType": "uint256",
          "name": "_debtCeiling",
          "type": "uint256"
        },
        {
          "internalType": "uint256",
          "name": "_debtFloor",
          "type": "uint256"
        },
        {
          "internalType": "address",
          "name": "_priceFeed",
          "type": "address"
        },
        {
          "internalType": "uint256",
          "name": "_liquidationRatio",
          "type": "uint256"
        },
        {
          "internalType": "uint256",
          "name": "_stabilityFeeRate",
          "type": "uint256"
        },
        {
          "internalType": "address",
          "name": "_adapter",
          "type": "address"
        },
        {
          "internalType": "uint256",
          "name": "_closeFactorBps",
          "type": "uint256"
        },
        {
          "internalType": "uint256",
          "name": "_liquidatorIncentiveBps",
          "type": "uint256"
        },
        {
          "internalType": "uint256",
          "name": "_treasuryFeesBps",
          "type": "uint256"
        },
        {
          "internalType": "address",
          "name": "_strategy",
          "type": "address"
        }
      ],
      "name": "initCollateralPool",
      "outputs": [],
      "stateMutability": "nonpayable",
      "type": "function"
    },
    {
      "inputs": [
        {
          "internalType": "bytes32",
          "name": "_collateralPoolId",
          "type": "bytes32"
        },
        {
          "internalType": "uint256",
          "name": "_priceWithSafetyMargin",
          "type": "uint256"
        }
      ],
      "name": "setPriceWithSafetyMargin",
      "outputs": [],
      "stateMutability": "nonpayable",
      "type": "function"
    },
    {
      "inputs": [
        {
          "internalType": "bytes32",
          "name": "_collateralPoolId",
          "type": "bytes32"
        },
        {
          "internalType": "uint256",
          "name": "_debtCeiling",
          "type": "uint256"
        }
      ],
      "name": "setDebtCeiling",
      "outputs": [],
      "stateMutability": "nonpayable",
      "type": "function"
    },
    {
      "inputs": [
        {
          "internalType": "bytes32",
          "name": "_collateralPoolId",
          "type": "bytes32"
        },
        {
          "internalType": "uint256",
          "name": "_debtFloor",
          "type": "uint256"
        }
      ],
      "name": "setDebtFloor",
      "outputs": [],
      "stateMutability": "nonpayable",
      "type": "function"
    },
    {
      "inputs": [
        {
          "internalType": "bytes32",
          "name": "_poolId",
          "type": "bytes32"
        },
        {
          "internalType": "address",
          "name": "_priceFeed",
          "type": "address"
        }
      ],
      "name": "setPriceFeed",
      "outputs": [],
      "stateMutability": "nonpayable",
      "type": "function"
    },
    {
      "inputs": [
        {
          "internalType": "bytes32",
          "name": "_poolId",
          "type": "bytes32"
        },
        {
          "internalType": "uint256",
          "name": "_data",
          "type": "uint256"
        }
      ],
      "name": "setLiquidationRatio",
      "outputs": [],
      "stateMutability": "nonpayable",
      "type": "function"
    },
    {
      "inputs": [
        {
          "internalType": "bytes32",
          "name": "_collateralPool",
          "type": "bytes32"
        },
        {
          "internalType": "uint256",
          "name": "_stabilityFeeRate",
          "type": "uint256"
        }
      ],
      "name": "setStabilityFeeRate",
      "outputs": [],
      "stateMutability": "nonpayable",
      "type": "function"
    },
    {
      "inputs": [
        {
          "internalType": "bytes32",
          "name": "_collateralPoolId",
          "type": "bytes32"
        },
        {
          "internalType": "address",
          "name": "_adapter",
          "type": "address"
        }
      ],
      "name": "setAdapter",
      "outputs": [],
      "stateMutability": "nonpayable",
      "type": "function"
    },
    {
      "inputs": [
        {
          "internalType": "bytes32",
          "name": "_collateralPoolId",
          "type": "bytes32"
        },
        {
          "internalType": "uint256",
          "name": "_closeFactorBps",
          "type": "uint256"
        }
      ],
      "name": "setCloseFactorBps",
      "outputs": [],
      "stateMutability": "nonpayable",
      "type": "function"
    },
    {
      "inputs": [
        {
          "internalType": "bytes32",
          "name": "_collateralPoolId",
          "type": "bytes32"
        },
        {
          "internalType": "uint256",
          "name": "_liquidatorIncentiveBps",
          "type": "uint256"
        }
      ],
      "name": "setLiquidatorIncentiveBps",
      "outputs": [],
      "stateMutability": "nonpayable",
      "type": "function"
    },
    {
      "inputs": [
        {
          "internalType": "bytes32",
          "name": "_collateralPoolId",
          "type": "bytes32"
        },
        {
          "internalType": "uint256",
          "name": "_treasuryFeesBps",
          "type": "uint256"
        }
      ],
      "name": "setTreasuryFeesBps",
      "outputs": [],
      "stateMutability": "nonpayable",
      "type": "function"
    },
    {
      "inputs": [
        {
          "internalType": "bytes32",
          "name": "_collateralPoolId",
          "type": "bytes32"
        },
        {
          "internalType": "uint256",
          "name": "_totalDebtShare",
          "type": "uint256"
        }
      ],
      "name": "setTotalDebtShare",
      "outputs": [],
      "stateMutability": "nonpayable",
      "type": "function"
    },
    {
      "inputs": [
        {
          "internalType": "bytes32",
          "name": "_collateralPoolId",
          "type": "bytes32"
        },
        {
          "internalType": "uint256",
          "name": "_debtAccumulatedRate",
          "type": "uint256"
        }
      ],
      "name": "setDebtAccumulatedRate",
      "outputs": [],
      "stateMutability": "nonpayable",
      "type": "function"
    },
    {
      "inputs": [
        {
          "internalType": "bytes32",
          "name": "_collateralPoolId",
          "type": "bytes32"
        },
        {
          "internalType": "address",
          "name": "_strategy",
          "type": "address"
        }
      ],
      "name": "setStrategy",
      "outputs": [],
      "stateMutability": "nonpayable",
      "type": "function"
    },
    {
      "inputs": [
        {
          "internalType": "bytes32",
          "name": "_collateralPoolId",
          "type": "bytes32"
        }
      ],
      "name": "updateLastAccumulationTime",
      "outputs": [],
      "stateMutability": "nonpayable",
      "type": "function"
    },
    {
      "inputs": [
        {
          "internalType": "bytes32",
          "name": "_collateralPoolId",
          "type": "bytes32"
        }
      ],
      "name": "getTotalDebtShare",
      "outputs": [
        {
          "internalType": "uint256",
          "name": "",
          "type": "uint256"
        }
      ],
      "stateMutability": "view",
      "type": "function"
    },
    {
      "inputs": [
        {
          "internalType": "bytes32",
          "name": "_collateralPoolId",
          "type": "bytes32"
        }
      ],
      "name": "getDebtAccumulatedRate",
      "outputs": [
        {
          "internalType": "uint256",
          "name": "",
          "type": "uint256"
        }
      ],
      "stateMutability": "view",
      "type": "function"
    },
    {
      "inputs": [
        {
          "internalType": "bytes32",
          "name": "_collateralPoolId",
          "type": "bytes32"
        }
      ],
      "name": "getPriceWithSafetyMargin",
      "outputs": [
        {
          "internalType": "uint256",
          "name": "",
          "type": "uint256"
        }
      ],
      "stateMutability": "view",
      "type": "function"
    },
    {
      "inputs": [
        {
          "internalType": "bytes32",
          "name": "_collateralPoolId",
          "type": "bytes32"
        }
      ],
      "name": "getDebtCeiling",
      "outputs": [
        {
          "internalType": "uint256",
          "name": "",
          "type": "uint256"
        }
      ],
      "stateMutability": "view",
      "type": "function"
    },
    {
      "inputs": [
        {
          "internalType": "bytes32",
          "name": "_collateralPoolId",
          "type": "bytes32"
        }
      ],
      "name": "getDebtFloor",
      "outputs": [
        {
          "internalType": "uint256",
          "name": "",
          "type": "uint256"
        }
      ],
      "stateMutability": "view",
      "type": "function"
    },
    {
      "inputs": [
        {
          "internalType": "bytes32",
          "name": "_collateralPoolId",
          "type": "bytes32"
        }
      ],
      "name": "getPriceFeed",
      "outputs": [
        {
          "internalType": "address",
          "name": "",
          "type": "address"
        }
      ],
      "stateMutability": "view",
      "type": "function"
    },
    {
      "inputs": [
        {
          "internalType": "bytes32",
          "name": "_collateralPoolId",
          "type": "bytes32"
        }
      ],
      "name": "getLiquidationRatio",
      "outputs": [
        {
          "internalType": "uint256",
          "name": "",
          "type": "uint256"
        }
      ],
      "stateMutability": "view",
      "type": "function"
    },
    {
      "inputs": [
        {
          "internalType": "bytes32",
          "name": "_collateralPoolId",
          "type": "bytes32"
        }
      ],
      "name": "getStabilityFeeRate",
      "outputs": [
        {
          "internalType": "uint256",
          "name": "",
          "type": "uint256"
        }
      ],
      "stateMutability": "view",
      "type": "function"
    },
    {
      "inputs": [
        {
          "internalType": "bytes32",
          "name": "_collateralPoolId",
          "type": "bytes32"
        }
      ],
      "name": "getLastAccumulationTime",
      "outputs": [
        {
          "internalType": "uint256",
          "name": "",
          "type": "uint256"
        }
      ],
      "stateMutability": "view",
      "type": "function"
    },
    {
      "inputs": [
        {
          "internalType": "bytes32",
          "name": "_collateralPoolId",
          "type": "bytes32"
        }
      ],
      "name": "getAdapter",
      "outputs": [
        {
          "internalType": "address",
          "name": "",
          "type": "address"
        }
      ],
      "stateMutability": "view",
      "type": "function"
    },
    {
      "inputs": [
        {
          "internalType": "bytes32",
          "name": "_collateralPoolId",
          "type": "bytes32"
        }
      ],
      "name": "getCloseFactorBps",
      "outputs": [
        {
          "internalType": "uint256",
          "name": "",
          "type": "uint256"
        }
      ],
      "stateMutability": "view",
      "type": "function"
    },
    {
      "inputs": [
        {
          "internalType": "bytes32",
          "name": "_collateralPoolId",
          "type": "bytes32"
        }
      ],
      "name": "getLiquidatorIncentiveBps",
      "outputs": [
        {
          "internalType": "uint256",
          "name": "",
          "type": "uint256"
        }
      ],
      "stateMutability": "view",
      "type": "function"
    },
    {
      "inputs": [
        {
          "internalType": "bytes32",
          "name": "_collateralPoolId",
          "type": "bytes32"
        }
      ],
      "name": "getTreasuryFeesBps",
      "outputs": [
        {
          "internalType": "uint256",
          "name": "",
          "type": "uint256"
        }
      ],
      "stateMutability": "view",
      "type": "function"
    },
    {
      "inputs": [
        {
          "internalType": "bytes32",
          "name": "_collateralPoolId",
          "type": "bytes32"
        }
      ],
      "name": "getStrategy",
      "outputs": [
        {
          "internalType": "address",
          "name": "",
          "type": "address"
        }
      ],
      "stateMutability": "view",
      "type": "function"
    },
    {
      "inputs": [
        {
          "internalType": "bytes32",
          "name": "_collateralPoolId",
          "type": "bytes32"
        }
      ],
      "name": "getCollateralPoolInfo",
      "outputs": [
        {
          "components": [
            {
              "internalType": "uint256",
              "name": "debtAccumulatedRate",
              "type": "uint256"
            },
            {
              "internalType": "uint256",
              "name": "totalDebtShare",
              "type": "uint256"
            },
            {
              "internalType": "uint256",
              "name": "debtCeiling",
              "type": "uint256"
            },
            {
              "internalType": "uint256",
              "name": "priceWithSafetyMargin",
              "type": "uint256"
            },
            {
              "internalType": "uint256",
              "name": "debtFloor",
              "type": "uint256"
            }
          ],
          "internalType": "struct ICollateralPoolConfig.CollateralPoolInfo",
          "name": "_info",
          "type": "tuple"
        }
      ],
      "stateMutability": "view",
      "type": "function"
    }
  ],
  "bytecode": "0x608060405234801561001057600080fd5b50612c0e806100206000396000f3fe608060405234801561001057600080fd5b50600436106102485760003560e01c806397a991b81161013b578063bbd112a5116100b8578063d547741f1161007c578063d547741f14610652578063d97a364914610665578063e47f3c6f14610685578063e73bbc7914610698578063e73eb92e146106bb57600080fd5b8063bbd112a5146105e3578063be7c9f3214610606578063c4d66de814610619578063c8cc243f1461062c578063d3fdc5e71461063f57600080fd5b8063a3c68b42116100ff578063a3c68b4214610574578063a6726c8114610587578063ad41d85d1461059a578063b3b1cfa2146105bd578063b7cc80d3146105d057600080fd5b806397a991b8146105005780639c1985d514610513578063a09b0fe014610536578063a14cbb1214610559578063a217fddf1461056c57600080fd5b806344d0c937116101c95780637a8bd02e1161018d5780637a8bd02e146104525780638272e138146104725780638c0adf621461049e5780638c492d07146104ca57806391d14854146104ed57600080fd5b806344d0c937146103d35780635897b571146103f657806364c8edab1461040957806373a4f9621461041c5780637722067b1461043f57600080fd5b806328c84bbd1161021057806328c84bbd146103415780632f2ff15d146103855780632fe6af441461039a57806336568abe146103ad57806337629aa0146103c057600080fd5b806301ffc9a71461024d5780630ec057e5146102755780631204769e146102a65780631fea158d146102fb578063248a9ca31461031e575b600080fd5b61026061025b366004612632565b6106ce565b60405190151581526020015b60405180910390f35b61029861028336600461265c565b6000908152609760205260409020600b015490565b60405190815260200161026c565b6102b96102b436600461265c565b610705565b60405161026c9190600060a082019050825182526020830151602083015260408301516040830152606083015160608301526080830151608083015292915050565b61029861030936600461265c565b60009081526097602052604090206007015490565b61029861032c36600461265c565b60009081526065602052604090206001015490565b61036d61034f36600461265c565b6000908152609760205260409020600d01546001600160a01b031690565b6040516001600160a01b03909116815260200161026c565b610398610393366004612691565b61077f565b005b6103986103a83660046126bd565b6107a9565b6103986103bb366004612691565b61091a565b6103986103ce366004612691565b610998565b6102986103e136600461265c565b60009081526097602052604090206006015490565b6103986104043660046126bd565b610ae7565b6103986104173660046126df565b610c86565b61029861042a36600461265c565b6000908152609760205260409020600c015490565b61039861044d3660046126bd565b61110a565b61029861046036600461265c565b60009081526097602052604090205490565b61036d61048036600461265c565b6000908152609760205260409020600901546001600160a01b031690565b61036d6104ac36600461265c565b6000908152609760205260409020600501546001600160a01b031690565b6102986104d836600461265c565b60009081526097602052604090206002015490565b6102606104fb366004612691565b611248565b61039861050e3660046126bd565b611273565b61029861052136600461265c565b60009081526097602052604090206004015490565b61029861054436600461265c565b60009081526097602052604090206001015490565b610398610567366004612691565b6113b1565b610298600081565b6103986105823660046126bd565b611500565b610398610595366004612691565b61163e565b6102986105a836600461265c565b60009081526097602052604090206003015490565b6103986105cb3660046126bd565b61178d565b6103986105de3660046126bd565b6118ea565b6102986105f136600461265c565b60009081526097602052604090206008015490565b6103986106143660046126bd565b611a58565b610398610627366004612773565b611bb9565b60985461036d906001600160a01b031681565b61039861064d3660046126bd565b611d51565b610398610660366004612691565b611eb1565b61067861067336600461265c565b611ed6565b60405161026c919061278e565b6103986106933660046126bd565b612023565b6102986106a636600461265c565b6000908152609760205260409020600a015490565b6103986106c936600461265c565b612183565b60006001600160e01b03198216637965db0b60e01b14806106ff57506301ffc9a760e01b6001600160e01b03198316145b92915050565b6107376040518060a0016040528060008152602001600081526020016000815260200160008152602001600081525090565b60008281526097602081815260408084206001810154865280548684015260038101549186019190915260028101546060860152949092529052600490910154608082015290565b60008281526065602052604090206001015461079a816122ba565b6107a483836122c7565b505050565b6098546040805163e58378bb60e01b815290516001600160a01b03909216916391d1485491839163e58378bb916004808201926020929091908290030181865afa1580156107fb573d6000803e3d6000fd5b505050506040513d601f19601f8201168201806040525081019061081f9190612857565b336040518363ffffffff1660e01b815260040161083d929190612870565b602060405180830381865afa15801561085a573d6000803e3d6000fd5b505050506040513d601f19601f8201168201806040525081019061087e9190612897565b6108a35760405162461bcd60e51b815260040161089a906128b2565b60405180910390fd5b6127108111156108c55760405162461bcd60e51b815260040161089a906128d6565b600082815260976020908152604091829020600a01839055815184815290810183905233917f42810b2bf88c5f14e5d6e5c488f36bfa8082d60183daa19bf43e57f58b43cc1691015b60405180910390a25050565b6001600160a01b038116331461098a5760405162461bcd60e51b815260206004820152602f60248201527f416363657373436f6e74726f6c3a2063616e206f6e6c792072656e6f756e636560448201526e103937b632b9903337b91039b2b63360891b606482015260840161089a565b610994828261234d565b5050565b6098546040805163e58378bb60e01b815290516001600160a01b03909216916391d1485491839163e58378bb916004808201926020929091908290030181865afa1580156109ea573d6000803e3d6000fd5b505050506040513d601f19601f82011682018060405250810190610a0e9190612857565b336040518363ffffffff1660e01b8152600401610a2c929190612870565b602060405180830381865afa158015610a49573d6000803e3d6000fd5b505050506040513d601f19601f82011682018060405250810190610a6d9190612897565b610a895760405162461bcd60e51b815260040161089a906128b2565b6000828152609760205260409081902060090180546001600160a01b0319166001600160a01b0384161790555133907f6a8721e2a39a7b4c4077afea31294313cf77bb4e00db5d6ee64d9de6f37ec53e9061090e9085908590612870565b6098546040805163e58378bb60e01b815290516001600160a01b03909216916391d1485491839163e58378bb916004808201926020929091908290030181865afa158015610b39573d6000803e3d6000fd5b505050506040513d601f19601f82011682018060405250810190610b5d9190612857565b336040518363ffffffff1660e01b8152600401610b7b929190612870565b602060405180830381865afa158015610b98573d6000803e3d6000fd5b505050506040513d601f19601f82011682018060405250810190610bbc9190612897565b610bd85760405162461bcd60e51b815260040161089a906128b2565b801580610bf157506b033b2e3c9fd0803ce80000008110155b610c0d5760405162461bcd60e51b815260040161089a90612923565b6b033b2e3d523e808a07fcdc0b811115610c395760405162461bcd60e51b815260040161089a90612972565b600082815260976020908152604091829020600701839055815184815290810183905233917fa9c4195940f169a77487ff98fd68eb19e68d102a7bd11d5b0ed337661f5f8f19910161090e565b6098546040805163e58378bb60e01b815290516001600160a01b03909216916391d1485491839163e58378bb916004808201926020929091908290030181865afa158015610cd8573d6000803e3d6000fd5b505050506040513d601f19601f82011682018060405250810190610cfc9190612857565b336040518363ffffffff1660e01b8152600401610d1a929190612870565b602060405180830381865afa158015610d37573d6000803e3d6000fd5b505050506040513d601f19601f82011682018060405250810190610d5b9190612897565b610d775760405162461bcd60e51b815260040161089a906128b2565b60008b81526097602052604090206001015415610df05760405162461bcd60e51b815260206004820152603160248201527f436f6c6c61746572616c506f6f6c436f6e6669672f636f6c6c61746572616c2d6044820152701c1bdbdb0b585b1c9958591e4b5a5b9a5d607a1b606482015260840161089a565b60008b815260976020526040908190206b033b2e3c9fd0803ce80000006001820155600381018c905560049081018b9055815162a0693960e51b815282516001600160a01b038c169363140d272093838101939192918290030181865afa158015610e5f573d6000803e3d6000fd5b505050506040513d601f19601f82011682018060405250810190610e8391906129c3565b505060008b815260976020526040902060050180546001600160a01b0319166001600160a01b038a161790556b033b2e3c9fd0803ce8000000871015610f225760405162461bcd60e51b815260206004820152602e60248201527f436f6c6c61746572616c506f6f6c436f6e6669672f696e76616c69642d6c697160448201526d7569646174696f6e2d726174696f60901b606482015260840161089a565b60008b8152609760205260409020600601879055851580610f4f57506b033b2e3c9fd0803ce80000008610155b610f6b5760405162461bcd60e51b815260040161089a90612923565b6b033b2e3d523e808a07fcdc0b861115610f975760405162461bcd60e51b815260040161089a90612972565b60008b8152609760209081526040808320600781018a905542600890910155805163313ce56760e01b815290516001600160a01b0389169363313ce567936004808501949193929183900301908290875af1158015610ffa573d6000803e3d6000fd5b505050506040513d601f19601f8201168201806040525081019061101e9190612857565b5060008b815260976020526040902060090180546001600160a01b0319166001600160a01b03871617905561271084111561106b5760405162461bcd60e51b815260040161089a906128d6565b612710831015801561107f5750614a388311155b61109b5760405162461bcd60e51b815260040161089a906129e6565b6123288211156110bd5760405162461bcd60e51b815260040161089a90612a3b565b60009a8b5260976020526040909a20600a810193909355600b830191909155600c820155600d0180546001600160a01b0319166001600160a01b0390981697909717909655505050505050565b6098546040805163e58378bb60e01b815290516001600160a01b03909216916391d1485491839163e58378bb916004808201926020929091908290030181865afa15801561115c573d6000803e3d6000fd5b505050506040513d601f19601f820116820180604052508101906111809190612857565b336040518363ffffffff1660e01b815260040161119e929190612870565b602060405180830381865afa1580156111bb573d6000803e3d6000fd5b505050506040513d601f19601f820116820180604052508101906111df9190612897565b6111fb5760405162461bcd60e51b815260040161089a906128b2565b600082815260976020908152604091829020600301839055815184815290810183905233917f4f4a7c062642f5f259628a4a67ff6fee09ecd64ce33f018b645635203d531ae2910161090e565b60009182526065602090815260408084206001600160a01b0393909316845291905290205460ff1690565b6098546040805163e58378bb60e01b815290516001600160a01b03909216916391d1485491839163e58378bb916004808201926020929091908290030181865afa1580156112c5573d6000803e3d6000fd5b505050506040513d601f19601f820116820180604052508101906112e99190612857565b336040518363ffffffff1660e01b8152600401611307929190612870565b602060405180830381865afa158015611324573d6000803e3d6000fd5b505050506040513d601f19601f820116820180604052508101906113489190612897565b6113645760405162461bcd60e51b815260040161089a906128b2565b600082815260976020908152604091829020600601839055815184815290810183905233917f2dd5cec90f5c89b9886d2e3527094edb4b46a5ab75e6b277afd6393f0aa52373910161090e565b6098546040805163e58378bb60e01b815290516001600160a01b03909216916391d1485491839163e58378bb916004808201926020929091908290030181865afa158015611403573d6000803e3d6000fd5b505050506040513d601f19601f820116820180604052508101906114279190612857565b336040518363ffffffff1660e01b8152600401611445929190612870565b602060405180830381865afa158015611462573d6000803e3d6000fd5b505050506040513d601f19601f820116820180604052508101906114869190612897565b6114a25760405162461bcd60e51b815260040161089a906128b2565b60008281526097602052604090819020600d0180546001600160a01b0319166001600160a01b0384161790555133907ff8d3f0da75258c6c4a3a31a2b4642e60db99f3b5477f0f799088fec42ac6b38d9061090e9085908590612870565b6098546040805163e58378bb60e01b815290516001600160a01b03909216916391d1485491839163e58378bb916004808201926020929091908290030181865afa158015611552573d6000803e3d6000fd5b505050506040513d601f19601f820116820180604052508101906115769190612857565b336040518363ffffffff1660e01b8152600401611594929190612870565b602060405180830381865afa1580156115b1573d6000803e3d6000fd5b505050506040513d601f19601f820116820180604052508101906115d59190612897565b6115f15760405162461bcd60e51b815260040161089a906128b2565b600082815260976020908152604091829020600401839055815184815290810183905233917f5c7ce9b131da68fe8ad20b6cf7d870358657eb014d8c830f67d3b956d7c297ac910161090e565b6098546040805163e58378bb60e01b815290516001600160a01b03909216916391d1485491839163e58378bb916004808201926020929091908290030181865afa158015611690573d6000803e3d6000fd5b505050506040513d601f19601f820116820180604052508101906116b49190612857565b336040518363ffffffff1660e01b81526004016116d2929190612870565b602060405180830381865afa1580156116ef573d6000803e3d6000fd5b505050506040513d601f19601f820116820180604052508101906117139190612897565b61172f5760405162461bcd60e51b815260040161089a906128b2565b6000828152609760205260409081902060050180546001600160a01b0319166001600160a01b0384161790555133907fda0dc73df45d13e8d63f64cd1f08c36b18cb90bcb896f639ea24a122b435496d9061090e9085908590612870565b60985460408051636792166f60e01b815290516001600160a01b03909216916391d14854918391636792166f916004808201926020929091908290030181865afa1580156117df573d6000803e3d6000fd5b505050506040513d601f19601f820116820180604052508101906118039190612857565b336040518363ffffffff1660e01b8152600401611821929190612870565b602060405180830381865afa15801561183e573d6000803e3d6000fd5b505050506040513d601f19601f820116820180604052508101906118629190612897565b6118a05760405162461bcd60e51b815260206004820152600f60248201526e21626f6f6b4b6565706572526f6c6560881b604482015260640161089a565b600082815260976020908152604091829020839055815184815290810183905233917f8a154f019e08f1b1da116ec99dd6d59b74b32a69be219bad788d9c095e84e46e910161090e565b6098546040805163e58378bb60e01b815290516001600160a01b03909216916391d1485491839163e58378bb916004808201926020929091908290030181865afa15801561193c573d6000803e3d6000fd5b505050506040513d601f19601f820116820180604052508101906119609190612857565b336040518363ffffffff1660e01b815260040161197e929190612870565b602060405180830381865afa15801561199b573d6000803e3d6000fd5b505050506040513d601f19601f820116820180604052508101906119bf9190612897565b6119db5760405162461bcd60e51b815260040161089a906128b2565b61271081101580156119ef5750614a388111155b611a0b5760405162461bcd60e51b815260040161089a906129e6565b600082815260976020908152604091829020600b01839055815184815290810183905233917fcf7a2b7293b9e5c2ebff583418dad7de6abde074357224117aa5f99333712ee5910161090e565b6098546040805163b998902f60e01b815290516001600160a01b03909216916391d1485491839163b998902f916004808201926020929091908290030181865afa158015611aaa573d6000803e3d6000fd5b505050506040513d601f19601f82011682018060405250810190611ace9190612857565b336040518363ffffffff1660e01b8152600401611aec929190612870565b602060405180830381865afa158015611b09573d6000803e3d6000fd5b505050506040513d601f19601f82011682018060405250810190611b2d9190612897565b611b6c5760405162461bcd60e51b815260206004820152601060248201526f2170726963654f7261636c65526f6c6560801b604482015260640161089a565b600082815260976020908152604091829020600201839055815184815290810183905233917f3f8d75e25e91fca161ee992d8f5334a1dee3546396e6eeeddf7bebad3def464a910161090e565b600054610100900460ff1615808015611bd95750600054600160ff909116105b80611bf35750303b158015611bf3575060005460ff166001145b611c565760405162461bcd60e51b815260206004820152602e60248201527f496e697469616c697a61626c653a20636f6e747261637420697320616c72656160448201526d191e481a5b9a5d1a585b1a5e995960921b606482015260840161089a565b6000805460ff191660011790558015611c79576000805461ff0019166101001790555b611c816123b4565b609880546001600160a01b0319166001600160a01b0384169081179091556040805163e58378bb60e01b81529051611d08929163e58378bb9160048083019260209291908290030181865afa158015611cde573d6000803e3d6000fd5b505050506040513d601f19601f82011682018060405250810190611d029190612857565b33612421565b8015610994576000805461ff0019169055604051600181527f7f26b83ff96e1f2b6a682f133852f6798a09c465da95921460cefb38474024989060200160405180910390a15050565b6098546040805163e58378bb60e01b815290516001600160a01b03909216916391d1485491839163e58378bb916004808201926020929091908290030181865afa158015611da3573d6000803e3d6000fd5b505050506040513d601f19601f82011682018060405250810190611dc79190612857565b336040518363ffffffff1660e01b8152600401611de5929190612870565b602060405180830381865afa158015611e02573d6000803e3d6000fd5b505050506040513d601f19601f82011682018060405250810190611e269190612897565b611e425760405162461bcd60e51b815260040161089a906128b2565b612328811115611e645760405162461bcd60e51b815260040161089a90612a3b565b600082815260976020908152604091829020600c01839055815184815290810183905233917fa6cd9a2a9bff53ac1fcfcd1b85687f6127841bd5ba1e2d10afe58ba31d945845910161090e565b600082815260656020526040902060010154611ecc816122ba565b6107a4838361234d565b611f63604051806101c00160405280600081526020016000815260200160008152602001600081526020016000815260200160006001600160a01b0316815260200160008152602001600081526020016000815260200160006001600160a01b0316815260200160008152602001600081526020016000815260200160006001600160a01b031681525090565b5060009081526097602090815260409182902082516101c08101845281548152600182015492810192909252600281015492820192909252600382015460608201526004820154608082015260058201546001600160a01b0390811660a0830152600683015460c0830152600783015460e0830152600883015461010083015260098301548116610120830152600a830154610140830152600b830154610160830152600c830154610180830152600d909201549091166101a082015290565b60985460408051636792166f60e01b815290516001600160a01b03909216916391d14854918391636792166f916004808201926020929091908290030181865afa158015612075573d6000803e3d6000fd5b505050506040513d601f19601f820116820180604052508101906120999190612857565b336040518363ffffffff1660e01b81526004016120b7929190612870565b602060405180830381865afa1580156120d4573d6000803e3d6000fd5b505050506040513d601f19601f820116820180604052508101906120f89190612897565b6121365760405162461bcd60e51b815260206004820152600f60248201526e21626f6f6b4b6565706572526f6c6560881b604482015260640161089a565b600082815260976020908152604091829020600101839055815184815290810183905233917f990224c41a18cc2e5688940dc28dc43872d8b96854b6099c52b2ae5d4ed1e9d2910161090e565b60985460408051620470d160eb1b815290516001600160a01b03909216916391d148549183916323868800916004808201926020929091908290030181865afa1580156121d4573d6000803e3d6000fd5b505050506040513d601f19601f820116820180604052508101906121f89190612857565b336040518363ffffffff1660e01b8152600401612216929190612870565b602060405180830381865afa158015612233573d6000803e3d6000fd5b505050506040513d601f19601f820116820180604052508101906122579190612897565b6122a35760405162461bcd60e51b815260206004820152601a60248201527f2173746162696c697479466565436f6c6c6563746f72526f6c65000000000000604482015260640161089a565b600090815260976020526040902042600890910155565b6122c4813361242b565b50565b6122d18282611248565b6109945760008281526065602090815260408083206001600160a01b03851684529091529020805460ff191660011790556123093390565b6001600160a01b0316816001600160a01b0316837f2f8788117e7eff1d82e926ec794901d17c78024a50270940304540a733656f0d60405160405180910390a45050565b6123578282611248565b156109945760008281526065602090815260408083206001600160a01b0385168085529252808320805460ff1916905551339285917ff6391f5c32d9c69d2a47ea670b442974b53935d1edc7fd64eb21e047a839171b9190a45050565b600054610100900460ff1661241f5760405162461bcd60e51b815260206004820152602b60248201527f496e697469616c697a61626c653a20636f6e7472616374206973206e6f74206960448201526a6e697469616c697a696e6760a81b606482015260840161089a565b565b61099482826122c7565b6124358282611248565b6109945761244d816001600160a01b0316601461248f565b61245883602061248f565b604051602001612469929190612aad565b60408051601f198184030181529082905262461bcd60e51b825261089a91600401612b22565b6060600061249e836002612b6b565b6124a9906002612b82565b67ffffffffffffffff8111156124c1576124c1612b95565b6040519080825280601f01601f1916602001820160405280156124eb576020820181803683370190505b509050600360fc1b8160008151811061250657612506612bab565b60200101906001600160f81b031916908160001a905350600f60fb1b8160018151811061253557612535612bab565b60200101906001600160f81b031916908160001a9053506000612559846002612b6b565b612564906001612b82565b90505b60018111156125dc576f181899199a1a9b1b9c1cb0b131b232b360811b85600f166010811061259857612598612bab565b1a60f81b8282815181106125ae576125ae612bab565b60200101906001600160f81b031916908160001a90535060049490941c936125d581612bc1565b9050612567565b50831561262b5760405162461bcd60e51b815260206004820181905260248201527f537472696e67733a20686578206c656e67746820696e73756666696369656e74604482015260640161089a565b9392505050565b60006020828403121561264457600080fd5b81356001600160e01b03198116811461262b57600080fd5b60006020828403121561266e57600080fd5b5035919050565b80356001600160a01b038116811461268c57600080fd5b919050565b600080604083850312156126a457600080fd5b823591506126b460208401612675565b90509250929050565b600080604083850312156126d057600080fd5b50508035926020909101359150565b60008060008060008060008060008060006101608c8e03121561270157600080fd5b8b359a5060208c0135995060408c0135985061271f60608d01612675565b975060808c0135965060a08c0135955061273b60c08d01612675565b945060e08c013593506101008c013592506101208c013591506127616101408d01612675565b90509295989b509295989b9093969950565b60006020828403121561278557600080fd5b61262b82612675565b60006101c082019050825182526020830151602083015260408301516040830152606083015160608301526080830151608083015260a08301516127dd60a08401826001600160a01b03169052565b5060c083015160c083015260e083015160e083015261010080840151818401525061012080840151612819828501826001600160a01b03169052565b50506101408381015190830152610160808401519083015261018080840151908301526101a0928301516001600160a01b0316929091019190915290565b60006020828403121561286957600080fd5b5051919050565b9182526001600160a01b0316602082015260400190565b8051801515811461268c57600080fd5b6000602082840312156128a957600080fd5b61262b82612887565b6020808252600a9082015269216f776e6572526f6c6560b01b604082015260600190565b6020808252602d908201527f436f6c6c61746572616c506f6f6c436f6e6669672f696e76616c69642d636c6f60408201526c73652d666163746f722d62707360981b606082015260800190565b6020808252602f908201527f436f6c6c61746572616c506f6f6c436f6e6669672f696e76616c69642d73746160408201526e62696c6974792d6665652d7261746560881b606082015260800190565b60208082526031908201527f436f6c6c61746572616c506f6f6c436f6e6669672f73746162696c6974792d6660408201527065652d726174652d746f6f2d6c6172676560781b606082015260800190565b600080604083850312156129d657600080fd5b825191506126b460208401612887565b60208082526035908201527f436f6c6c61746572616c506f6f6c436f6e6669672f696e76616c69642d6c697160408201527475696461746f722d696e63656e746976652d62707360581b606082015260800190565b6020808252602e908201527f436f6c6c61746572616c506f6f6c436f6e6669672f696e76616c69642d74726560408201526d61737572792d666565732d62707360901b606082015260800190565b60005b83811015612aa4578181015183820152602001612a8c565b50506000910152565b7f416363657373436f6e74726f6c3a206163636f756e7420000000000000000000815260008351612ae5816017850160208801612a89565b7001034b99036b4b9b9b4b733903937b6329607d1b6017918401918201528351612b16816028840160208801612a89565b01602801949350505050565b6020815260008251806020840152612b41816040850160208701612a89565b601f01601f19169190910160400192915050565b634e487b7160e01b600052601160045260246000fd5b80820281158282048414176106ff576106ff612b55565b808201808211156106ff576106ff612b55565b634e487b7160e01b600052604160045260246000fd5b634e487b7160e01b600052603260045260246000fd5b600081612bd057612bd0612b55565b50600019019056fea264697066735822122064eb631f20b7ca8cb176176b54acbd3f438e295c232211315c8aba0dc8dd472a64736f6c63430008110033",
  "immutableReferences": {},
  "source": "// SPDX-License-Identifier: AGPL-3.0-or-later\n\npragma solidity 0.8.17;\npragma experimental ABIEncoderV2;\n\nimport \"@openzeppelin/contracts-upgradeable/access/AccessControlUpgradeable.sol\";\nimport \"@openzeppelin/contracts-upgradeable/utils/math/SafeMathUpgradeable.sol\";\n\nimport \"../../interfaces/IPriceFeed.sol\";\nimport \"../../interfaces/IGenericTokenAdapter.sol\";\nimport \"../../interfaces/ICollateralPoolConfig.sol\";\nimport \"../../interfaces/ILiquidationStrategy.sol\";\nimport \"../../interfaces/IAccessControlConfig.sol\";\n\ncontract CollateralPoolConfig is AccessControlUpgradeable, ICollateralPoolConfig {\n  using SafeMathUpgradeable for uint256;\n\n  uint256 constant RAY = 10**27;\n\n  event LogSetPriceWithSafetyMargin(address indexed _caller, bytes32 _collateralPoolId, uint256 _priceWithSafetyMargin);\n  event LogSetDebtCeiling(address indexed _caller, bytes32 _collateralPoolId, uint256 _debtCeiling);\n  event LogSetDebtFloor(address indexed _caller, bytes32 _collateralPoolId, uint256 _debtFloor);\n  event LogSetPriceFeed(address indexed _caller, bytes32 _poolId, address _priceFeed);\n  event LogSetLiquidationRatio(address indexed _caller, bytes32 _poolId, uint256 _data);\n  event LogSetStabilityFeeRate(address indexed _caller, bytes32 _poolId, uint256 _data);\n  event LogSetAdapter(address indexed _caller, bytes32 _collateralPoolId, address _adapter);\n  event LogSetCloseFactorBps(address indexed _caller, bytes32 _collateralPoolId, uint256 _closeFactorBps);\n  event LogSetLiquidatorIncentiveBps(\n    address indexed _caller,\n    bytes32 _collateralPoolId,\n    uint256 _liquidatorIncentiveBps\n  );\n  event LogSetTreasuryFeesBps(address indexed _caller, bytes32 _collateralPoolId, uint256 _treasuryFeeBps);\n  event LogSetStrategy(address indexed _caller, bytes32 _collateralPoolId, address strategy);\n  event LogSetTotalDebtShare(address indexed _caller, bytes32 _collateralPoolId, uint256 _totalDebtShare);\n  event LogSetDebtAccumulatedRate(address indexed _caller, bytes32 _collateralPoolId, uint256 _debtAccumulatedRate);\n\n  mapping(bytes32 => ICollateralPoolConfig.CollateralPool) private _collateralPools;\n\n  function collateralPools(bytes32 _collateralPoolId)\n    external\n    view\n    override\n    returns (ICollateralPoolConfig.CollateralPool memory)\n  {\n    return _collateralPools[_collateralPoolId];\n  }\n\n  IAccessControlConfig public accessControlConfig;\n\n  modifier onlyOwner() {\n    require(accessControlConfig.hasRole(accessControlConfig.OWNER_ROLE(), msg.sender), \"!ownerRole\");\n    _;\n  }\n\n  // --- Init ---\n  function initialize(address _accessControlConfig) external initializer {\n    AccessControlUpgradeable.__AccessControl_init();\n\n    accessControlConfig = IAccessControlConfig(_accessControlConfig);\n\n    // Grant the contract deployer the owner role: it will be able\n    // to grant and revoke any roles\n    _setupRole(accessControlConfig.OWNER_ROLE(), msg.sender);\n  }\n\n  function initCollateralPool(\n    bytes32 _collateralPoolId,\n    uint256 _debtCeiling,\n    uint256 _debtFloor,\n    address _priceFeed,\n    uint256 _liquidationRatio,\n    uint256 _stabilityFeeRate,\n    address _adapter,\n    uint256 _closeFactorBps,\n    uint256 _liquidatorIncentiveBps,\n    uint256 _treasuryFeesBps,\n    address _strategy\n  ) external onlyOwner {\n    require(\n      _collateralPools[_collateralPoolId].debtAccumulatedRate == 0,\n      \"CollateralPoolConfig/collateral-pool-already-init\"\n    );\n    _collateralPools[_collateralPoolId].debtAccumulatedRate = RAY;\n    _collateralPools[_collateralPoolId].debtCeiling = _debtCeiling;\n    _collateralPools[_collateralPoolId].debtFloor = _debtFloor;\n    IPriceFeed(_priceFeed).peekPrice(); // Sanity Check Call\n    _collateralPools[_collateralPoolId].priceFeed = _priceFeed;\n    require(_liquidationRatio >= RAY, \"CollateralPoolConfig/invalid-liquidation-ratio\");\n    _collateralPools[_collateralPoolId].liquidationRatio = _liquidationRatio;\n    require(_stabilityFeeRate == 0 || _stabilityFeeRate >= RAY, \"CollateralPoolConfig/invalid-stability-fee-rate\");\n    // Maximum stability fee rate is 50% yearly\n    require(_stabilityFeeRate <= 1000000012857214317438491659, \"CollateralPoolConfig/stability-fee-rate-too-large\");\n    _collateralPools[_collateralPoolId].stabilityFeeRate = _stabilityFeeRate;\n    _collateralPools[_collateralPoolId].lastAccumulationTime = block.timestamp;\n    IGenericTokenAdapter(_adapter).decimals(); // Sanity Check Call\n    _collateralPools[_collateralPoolId].adapter = _adapter;\n    require(_closeFactorBps <= 10000, \"CollateralPoolConfig/invalid-close-factor-bps\");\n    require(\n      _liquidatorIncentiveBps >= 10000 && _liquidatorIncentiveBps <= 19000,\n      \"CollateralPoolConfig/invalid-liquidator-incentive-bps\"\n    );\n    require(_treasuryFeesBps <= 9000, \"CollateralPoolConfig/invalid-treasury-fees-bps\");\n    _collateralPools[_collateralPoolId].closeFactorBps = _closeFactorBps;\n    _collateralPools[_collateralPoolId].liquidatorIncentiveBps = _liquidatorIncentiveBps;\n    _collateralPools[_collateralPoolId].treasuryFeesBps = _treasuryFeesBps;\n    _collateralPools[_collateralPoolId].strategy = _strategy;\n  }\n\n  function setPriceWithSafetyMargin(bytes32 _collateralPoolId, uint256 _priceWithSafetyMargin) external override {\n    require(accessControlConfig.hasRole(accessControlConfig.PRICE_ORACLE_ROLE(), msg.sender), \"!priceOracleRole\");\n    _collateralPools[_collateralPoolId].priceWithSafetyMargin = _priceWithSafetyMargin;\n    emit LogSetPriceWithSafetyMargin(msg.sender, _collateralPoolId, _priceWithSafetyMargin);\n  }\n\n  function setDebtCeiling(bytes32 _collateralPoolId, uint256 _debtCeiling) external onlyOwner {\n    _collateralPools[_collateralPoolId].debtCeiling = _debtCeiling;\n    emit LogSetDebtCeiling(msg.sender, _collateralPoolId, _debtCeiling);\n  }\n\n  function setDebtFloor(bytes32 _collateralPoolId, uint256 _debtFloor) external onlyOwner {\n    _collateralPools[_collateralPoolId].debtFloor = _debtFloor;\n    emit LogSetDebtFloor(msg.sender, _collateralPoolId, _debtFloor);\n  }\n\n  function setPriceFeed(bytes32 _poolId, address _priceFeed) external onlyOwner {\n    _collateralPools[_poolId].priceFeed = _priceFeed;\n    emit LogSetPriceFeed(msg.sender, _poolId, _priceFeed);\n  }\n\n  function setLiquidationRatio(bytes32 _poolId, uint256 _data) external onlyOwner {\n    _collateralPools[_poolId].liquidationRatio = _data;\n    emit LogSetLiquidationRatio(msg.sender, _poolId, _data);\n  }\n\n  /** @dev Set the stability fee rate of the collateral pool.\n      The rate to be set here is the `r` in:\n\n          r^N = APR\n\n      Where:\n        r = stability fee rate\n        N = Accumulation frequency which is per-second in this case; the value will be 60*60*24*365 = 31536000 to signify the number of seconds within a year.\n        APR = the annual percentage rate\n\n    For example, to achieve 0.5% APR for stability fee rate:\n\n          r^31536000 = 1.005\n\n    Find the 31536000th root of 1.005 and we will get:\n\n          r = 1.000000000158153903837946258002097...\n\n    The rate is in [ray] format, so the actual value of `stabilityFeeRate` will be:\n\n          stabilityFeeRate = 1000000000158153903837946258\n\n    The above `stabilityFeeRate` will be the value we will use in this contract.\n  */\n  /// @param _collateralPool Collateral pool id\n  /// @param _stabilityFeeRate the new stability fee rate [ray]\n  function setStabilityFeeRate(bytes32 _collateralPool, uint256 _stabilityFeeRate) external onlyOwner {\n    require(_stabilityFeeRate == 0 || _stabilityFeeRate >= RAY, \"CollateralPoolConfig/invalid-stability-fee-rate\");\n    // Maximum stability fee rate is 50% yearly\n    require(_stabilityFeeRate <= 1000000012857214317438491659, \"CollateralPoolConfig/stability-fee-rate-too-large\");\n    _collateralPools[_collateralPool].stabilityFeeRate = _stabilityFeeRate;\n    emit LogSetStabilityFeeRate(msg.sender, _collateralPool, _stabilityFeeRate);\n  }\n\n  function setAdapter(bytes32 _collateralPoolId, address _adapter) external onlyOwner {\n    _collateralPools[_collateralPoolId].adapter = _adapter;\n    emit LogSetAdapter(msg.sender, _collateralPoolId, _adapter);\n  }\n\n  function setCloseFactorBps(bytes32 _collateralPoolId, uint256 _closeFactorBps) external onlyOwner {\n    require(_closeFactorBps <= 10000, \"CollateralPoolConfig/invalid-close-factor-bps\");\n    _collateralPools[_collateralPoolId].closeFactorBps = _closeFactorBps;\n    emit LogSetCloseFactorBps(msg.sender, _collateralPoolId, _closeFactorBps);\n  }\n\n  function setLiquidatorIncentiveBps(bytes32 _collateralPoolId, uint256 _liquidatorIncentiveBps) external onlyOwner {\n    require(\n      _liquidatorIncentiveBps >= 10000 && _liquidatorIncentiveBps <= 19000,\n      \"CollateralPoolConfig/invalid-liquidator-incentive-bps\"\n    );\n    _collateralPools[_collateralPoolId].liquidatorIncentiveBps = _liquidatorIncentiveBps;\n    emit LogSetLiquidatorIncentiveBps(msg.sender, _collateralPoolId, _liquidatorIncentiveBps);\n  }\n\n  function setTreasuryFeesBps(bytes32 _collateralPoolId, uint256 _treasuryFeesBps) external onlyOwner {\n    require(_treasuryFeesBps <= 9000, \"CollateralPoolConfig/invalid-treasury-fees-bps\");\n    _collateralPools[_collateralPoolId].treasuryFeesBps = _treasuryFeesBps;\n    emit LogSetTreasuryFeesBps(msg.sender, _collateralPoolId, _treasuryFeesBps);\n  }\n\n  function setTotalDebtShare(bytes32 _collateralPoolId, uint256 _totalDebtShare) external override {\n    require(accessControlConfig.hasRole(accessControlConfig.BOOK_KEEPER_ROLE(), msg.sender), \"!bookKeeperRole\");\n    _collateralPools[_collateralPoolId].totalDebtShare = _totalDebtShare;\n    emit LogSetTotalDebtShare(msg.sender, _collateralPoolId, _totalDebtShare);\n  }\n\n  function setDebtAccumulatedRate(bytes32 _collateralPoolId, uint256 _debtAccumulatedRate) external override {\n    require(accessControlConfig.hasRole(accessControlConfig.BOOK_KEEPER_ROLE(), msg.sender), \"!bookKeeperRole\");\n    _collateralPools[_collateralPoolId].debtAccumulatedRate = _debtAccumulatedRate;\n    emit LogSetDebtAccumulatedRate(msg.sender, _collateralPoolId, _debtAccumulatedRate);\n  }\n\n  function setStrategy(bytes32 _collateralPoolId, address _strategy) external onlyOwner {\n    _collateralPools[_collateralPoolId].strategy = _strategy;\n    emit LogSetStrategy(msg.sender, _collateralPoolId, address(_strategy));\n  }\n\n  function updateLastAccumulationTime(bytes32 _collateralPoolId) external override {\n    require(\n      accessControlConfig.hasRole(accessControlConfig.STABILITY_FEE_COLLECTOR_ROLE(), msg.sender),\n      \"!stabilityFeeCollectorRole\"\n    );\n    _collateralPools[_collateralPoolId].lastAccumulationTime = block.timestamp;\n  }\n\n  function getTotalDebtShare(bytes32 _collateralPoolId) external view override returns (uint256) {\n    return _collateralPools[_collateralPoolId].totalDebtShare;\n  }\n\n  function getDebtAccumulatedRate(bytes32 _collateralPoolId) external view override returns (uint256) {\n    return _collateralPools[_collateralPoolId].debtAccumulatedRate;\n  }\n\n  function getPriceWithSafetyMargin(bytes32 _collateralPoolId) external view override returns (uint256) {\n    return _collateralPools[_collateralPoolId].priceWithSafetyMargin;\n  }\n\n  function getDebtCeiling(bytes32 _collateralPoolId) external view override returns (uint256) {\n    return _collateralPools[_collateralPoolId].debtCeiling;\n  }\n\n  function getDebtFloor(bytes32 _collateralPoolId) external view override returns (uint256) {\n    return _collateralPools[_collateralPoolId].debtFloor;\n  }\n\n  function getPriceFeed(bytes32 _collateralPoolId) external view override returns (address) {\n    return _collateralPools[_collateralPoolId].priceFeed;\n  }\n\n  function getLiquidationRatio(bytes32 _collateralPoolId) external view override returns (uint256) {\n    return _collateralPools[_collateralPoolId].liquidationRatio;\n  }\n\n  function getStabilityFeeRate(bytes32 _collateralPoolId) external view override returns (uint256) {\n    return _collateralPools[_collateralPoolId].stabilityFeeRate;\n  }\n\n  function getLastAccumulationTime(bytes32 _collateralPoolId) external view override returns (uint256) {\n    return _collateralPools[_collateralPoolId].lastAccumulationTime;\n  }\n\n  function getAdapter(bytes32 _collateralPoolId) external view override returns (address) {\n    return _collateralPools[_collateralPoolId].adapter;\n  }\n\n  function getCloseFactorBps(bytes32 _collateralPoolId) external view override returns (uint256) {\n    return _collateralPools[_collateralPoolId].closeFactorBps;\n  }\n\n  function getLiquidatorIncentiveBps(bytes32 _collateralPoolId) external view override returns (uint256) {\n    return _collateralPools[_collateralPoolId].liquidatorIncentiveBps;\n  }\n\n  function getTreasuryFeesBps(bytes32 _collateralPoolId) external view override returns (uint256) {\n    return _collateralPools[_collateralPoolId].treasuryFeesBps;\n  }\n\n  function getStrategy(bytes32 _collateralPoolId) external view override returns (address) {\n    return _collateralPools[_collateralPoolId].strategy;\n  }\n\n  function getCollateralPoolInfo(bytes32 _collateralPoolId)\n    external\n    view\n    override\n    returns (CollateralPoolInfo memory _info)\n  {\n    _info.debtAccumulatedRate = _collateralPools[_collateralPoolId].debtAccumulatedRate;\n    _info.totalDebtShare = _collateralPools[_collateralPoolId].totalDebtShare;\n    _info.debtCeiling = _collateralPools[_collateralPoolId].debtCeiling;\n    _info.priceWithSafetyMargin = _collateralPools[_collateralPoolId].priceWithSafetyMargin;\n    _info.debtFloor = _collateralPools[_collateralPoolId].debtFloor;\n  }\n}\n",
  "sourcePath": "/Users/sangjun.lee/Sangjun/fathom-stablecoin-smart-contracts/contracts/8.17/stablecoin-core/config/CollateralPoolConfig.sol",
  "compiler": {
    "name": "solc",
    "version": "0.8.17+commit.8df45f5f.Emscripten.clang"
  },
  "schemaVersion": "3.4.10",
  "updatedAt": "2022-10-06T11:28:50.332Z",
  "devdoc": {
    "kind": "dev",
    "methods": {
      "getRoleAdmin(bytes32)": {
        "details": "Returns the admin role that controls `role`. See {grantRole} and {revokeRole}. To change a role's admin, use {_setRoleAdmin}."
      },
      "grantRole(bytes32,address)": {
        "details": "Grants `role` to `account`. If `account` had not been already granted `role`, emits a {RoleGranted} event. Requirements: - the caller must have ``role``'s admin role. May emit a {RoleGranted} event."
      },
      "hasRole(bytes32,address)": {
        "details": "Returns `true` if `account` has been granted `role`."
      },
      "renounceRole(bytes32,address)": {
        "details": "Revokes `role` from the calling account. Roles are often managed via {grantRole} and {revokeRole}: this function's purpose is to provide a mechanism for accounts to lose their privileges if they are compromised (such as when a trusted device is misplaced). If the calling account had been revoked `role`, emits a {RoleRevoked} event. Requirements: - the caller must be `account`. May emit a {RoleRevoked} event."
      },
      "revokeRole(bytes32,address)": {
        "details": "Revokes `role` from `account`. If `account` had been granted `role`, emits a {RoleRevoked} event. Requirements: - the caller must have ``role``'s admin role. May emit a {RoleRevoked} event."
      },
      "setStabilityFeeRate(bytes32,uint256)": {
        "params": {
          "_collateralPool": "Collateral pool id",
          "_stabilityFeeRate": "the new stability fee rate [ray]"
        }
      },
      "supportsInterface(bytes4)": {
        "details": "See {IERC165-supportsInterface}."
      }
    },
    "version": 1
  },
  "userdoc": {
    "kind": "user",
    "methods": {},
    "version": 1
  }
}