{
  "contractName": "CollateralTokenAdapter",
  "abi": [
    {
      "anonymous": false,
      "inputs": [
        {
          "indexed": false,
          "internalType": "uint8",
          "name": "version",
          "type": "uint8"
        }
      ],
      "name": "Initialized",
      "type": "event"
    },
    {
      "anonymous": false,
      "inputs": [],
      "name": "LogCage",
      "type": "event"
    },
    {
      "anonymous": false,
      "inputs": [
        {
          "indexed": false,
          "internalType": "uint256",
          "name": "_val",
          "type": "uint256"
        }
      ],
      "name": "LogDeposit",
      "type": "event"
    },
    {
      "anonymous": false,
      "inputs": [
        {
          "indexed": true,
          "internalType": "address",
          "name": "_caller",
          "type": "address"
        },
        {
          "indexed": false,
          "internalType": "address",
          "name": "_to",
          "type": "address"
        }
      ],
      "name": "LogEmergencyWithdraw",
      "type": "event"
    },
    {
      "anonymous": false,
      "inputs": [
        {
          "indexed": true,
          "internalType": "address",
          "name": "_src",
          "type": "address"
        },
        {
          "indexed": true,
          "internalType": "address",
          "name": "_dst",
          "type": "address"
        },
        {
          "indexed": false,
          "internalType": "uint256",
          "name": "_wad",
          "type": "uint256"
        }
      ],
      "name": "LogMoveStake",
      "type": "event"
    },
    {
      "anonymous": false,
      "inputs": [
        {
          "indexed": true,
          "internalType": "address",
          "name": "_caller",
          "type": "address"
        },
        {
          "indexed": false,
          "internalType": "address",
          "name": "_treasuryAccount",
          "type": "address"
        }
      ],
      "name": "LogSetTreasuryAccount",
      "type": "event"
    },
    {
      "anonymous": false,
      "inputs": [
        {
          "indexed": true,
          "internalType": "address",
          "name": "_caller",
          "type": "address"
        },
        {
          "indexed": false,
          "internalType": "uint256",
          "name": "_treasuryFeeBps",
          "type": "uint256"
        }
      ],
      "name": "LogSetTreasuryFeeBps",
      "type": "event"
    },
    {
      "anonymous": false,
      "inputs": [],
      "name": "LogUncage",
      "type": "event"
    },
    {
      "anonymous": false,
      "inputs": [
        {
          "indexed": false,
          "internalType": "uint256",
          "name": "_val",
          "type": "uint256"
        }
      ],
      "name": "LogWithdraw",
      "type": "event"
    },
    {
      "anonymous": false,
      "inputs": [
        {
          "indexed": false,
          "internalType": "address",
          "name": "account",
          "type": "address"
        }
      ],
      "name": "Paused",
      "type": "event"
    },
    {
      "anonymous": false,
      "inputs": [
        {
          "indexed": false,
          "internalType": "address",
          "name": "account",
          "type": "address"
        }
      ],
      "name": "Unpaused",
      "type": "event"
    },
    {
      "inputs": [],
      "name": "accRewardBalance",
      "outputs": [
        {
          "internalType": "uint256",
          "name": "",
          "type": "uint256"
        }
      ],
      "stateMutability": "view",
      "type": "function"
    },
    {
      "inputs": [],
      "name": "accRewardPerShare",
      "outputs": [
        {
          "internalType": "uint256",
          "name": "",
          "type": "uint256"
        }
      ],
      "stateMutability": "view",
      "type": "function"
    },
    {
      "inputs": [],
      "name": "bookKeeper",
      "outputs": [
        {
          "internalType": "contract IBookKeeper",
          "name": "",
          "type": "address"
        }
      ],
      "stateMutability": "view",
      "type": "function"
    },
    {
      "inputs": [],
      "name": "collateralPoolId",
      "outputs": [
        {
          "internalType": "bytes32",
          "name": "",
          "type": "bytes32"
        }
      ],
      "stateMutability": "view",
      "type": "function"
    },
    {
      "inputs": [],
      "name": "collateralToken",
      "outputs": [
        {
          "internalType": "address",
          "name": "",
          "type": "address"
        }
      ],
      "stateMutability": "view",
      "type": "function"
    },
    {
      "inputs": [],
      "name": "decimals",
      "outputs": [
        {
          "internalType": "uint256",
          "name": "",
          "type": "uint256"
        }
      ],
      "stateMutability": "view",
      "type": "function"
    },
    {
      "inputs": [],
      "name": "fairlaunch",
      "outputs": [
        {
          "internalType": "contract IFathomFairLaunch",
          "name": "",
          "type": "address"
        }
      ],
      "stateMutability": "view",
      "type": "function"
    },
    {
      "inputs": [],
      "name": "live",
      "outputs": [
        {
          "internalType": "uint256",
          "name": "",
          "type": "uint256"
        }
      ],
      "stateMutability": "view",
      "type": "function"
    },
    {
      "inputs": [],
      "name": "paused",
      "outputs": [
        {
          "internalType": "bool",
          "name": "",
          "type": "bool"
        }
      ],
      "stateMutability": "view",
      "type": "function"
    },
    {
      "inputs": [],
      "name": "pid",
      "outputs": [
        {
          "internalType": "uint256",
          "name": "",
          "type": "uint256"
        }
      ],
      "stateMutability": "view",
      "type": "function"
    },
    {
      "inputs": [],
      "name": "positionManager",
      "outputs": [
        {
          "internalType": "contract IManager",
          "name": "",
          "type": "address"
        }
      ],
      "stateMutability": "view",
      "type": "function"
    },
    {
      "inputs": [
        {
          "internalType": "address",
          "name": "",
          "type": "address"
        }
      ],
      "name": "rewardDebts",
      "outputs": [
        {
          "internalType": "uint256",
          "name": "",
          "type": "uint256"
        }
      ],
      "stateMutability": "view",
      "type": "function"
    },
    {
      "inputs": [],
      "name": "rewardToken",
      "outputs": [
        {
          "internalType": "contract IToken",
          "name": "",
          "type": "address"
        }
      ],
      "stateMutability": "view",
      "type": "function"
    },
    {
      "inputs": [],
      "name": "shield",
      "outputs": [
        {
          "internalType": "contract IShield",
          "name": "",
          "type": "address"
        }
      ],
      "stateMutability": "view",
      "type": "function"
    },
    {
      "inputs": [
        {
          "internalType": "address",
          "name": "",
          "type": "address"
        }
      ],
      "name": "stake",
      "outputs": [
        {
          "internalType": "uint256",
          "name": "",
          "type": "uint256"
        }
      ],
      "stateMutability": "view",
      "type": "function"
    },
    {
      "inputs": [],
      "name": "timelock",
      "outputs": [
        {
          "internalType": "contract ITimeLock",
          "name": "",
          "type": "address"
        }
      ],
      "stateMutability": "view",
      "type": "function"
    },
    {
      "inputs": [],
      "name": "totalShare",
      "outputs": [
        {
          "internalType": "uint256",
          "name": "",
          "type": "uint256"
        }
      ],
      "stateMutability": "view",
      "type": "function"
    },
    {
      "inputs": [],
      "name": "treasuryAccount",
      "outputs": [
        {
          "internalType": "address",
          "name": "",
          "type": "address"
        }
      ],
      "stateMutability": "view",
      "type": "function"
    },
    {
      "inputs": [],
      "name": "treasuryFeeBps",
      "outputs": [
        {
          "internalType": "uint256",
          "name": "",
          "type": "uint256"
        }
      ],
      "stateMutability": "view",
      "type": "function"
    },
    {
      "inputs": [
        {
          "internalType": "address",
          "name": "_bookKeeper",
          "type": "address"
        },
        {
          "internalType": "bytes32",
          "name": "_collateralPoolId",
          "type": "bytes32"
        },
        {
          "internalType": "address",
          "name": "_collateralToken",
          "type": "address"
        },
        {
          "internalType": "address",
          "name": "_rewardToken",
          "type": "address"
        },
        {
          "internalType": "address",
          "name": "_fairlaunch",
          "type": "address"
        },
        {
          "internalType": "uint256",
          "name": "_pid",
          "type": "uint256"
        },
        {
          "internalType": "address",
          "name": "_shield",
          "type": "address"
        },
        {
          "internalType": "address",
          "name": "_timelock",
          "type": "address"
        },
        {
          "internalType": "uint256",
          "name": "_treasuryFeeBps",
          "type": "uint256"
        },
        {
          "internalType": "address",
          "name": "_treasuryAccount",
          "type": "address"
        },
        {
          "internalType": "address",
          "name": "_positionManager",
          "type": "address"
        }
      ],
      "name": "initialize",
      "outputs": [],
      "stateMutability": "nonpayable",
      "type": "function"
    },
    {
      "inputs": [
        {
          "internalType": "uint256",
          "name": "_treasuryFeeBps",
          "type": "uint256"
        }
      ],
      "name": "setTreasuryFeeBps",
      "outputs": [],
      "stateMutability": "nonpayable",
      "type": "function"
    },
    {
      "inputs": [
        {
          "internalType": "address",
          "name": "_treasuryAccount",
          "type": "address"
        }
      ],
      "name": "setTreasuryAccount",
      "outputs": [],
      "stateMutability": "nonpayable",
      "type": "function"
    },
    {
      "inputs": [],
      "name": "netAssetValuation",
      "outputs": [
        {
          "internalType": "uint256",
          "name": "",
          "type": "uint256"
        }
      ],
      "stateMutability": "view",
      "type": "function"
    },
    {
      "inputs": [],
      "name": "netAssetPerShare",
      "outputs": [
        {
          "internalType": "uint256",
          "name": "",
          "type": "uint256"
        }
      ],
      "stateMutability": "view",
      "type": "function"
    },
    {
      "inputs": [
        {
          "internalType": "address",
          "name": "_positionAddress",
          "type": "address"
        }
      ],
      "name": "pendingRewards",
      "outputs": [
        {
          "internalType": "uint256",
          "name": "",
          "type": "uint256"
        }
      ],
      "stateMutability": "view",
      "type": "function"
    },
    {
      "inputs": [
        {
          "internalType": "address",
          "name": "_positionAddress",
          "type": "address"
        }
      ],
      "name": "netPendingRewards",
      "outputs": [
        {
          "internalType": "uint256",
          "name": "",
          "type": "uint256"
        }
      ],
      "stateMutability": "view",
      "type": "function"
    },
    {
      "inputs": [
        {
          "internalType": "address",
          "name": "_positionAddress",
          "type": "address"
        },
        {
          "internalType": "uint256",
          "name": "_amount",
          "type": "uint256"
        },
        {
          "internalType": "bytes",
          "name": "_data",
          "type": "bytes"
        }
      ],
      "name": "deposit",
      "outputs": [],
      "stateMutability": "payable",
      "type": "function"
    },
    {
      "inputs": [
        {
          "internalType": "address",
          "name": "_usr",
          "type": "address"
        },
        {
          "internalType": "uint256",
          "name": "_amount",
          "type": "uint256"
        },
        {
          "internalType": "bytes",
          "name": "",
          "type": "bytes"
        }
      ],
      "name": "withdraw",
      "outputs": [],
      "stateMutability": "nonpayable",
      "type": "function"
    },
    {
      "inputs": [
        {
          "internalType": "address",
          "name": "_to",
          "type": "address"
        }
      ],
      "name": "emergencyWithdraw",
      "outputs": [],
      "stateMutability": "nonpayable",
      "type": "function"
    },
    {
      "inputs": [
        {
          "internalType": "address",
          "name": "_source",
          "type": "address"
        },
        {
          "internalType": "address",
          "name": "_destination",
          "type": "address"
        },
        {
          "internalType": "uint256",
          "name": "_share",
          "type": "uint256"
        },
        {
          "internalType": "bytes",
          "name": "_data",
          "type": "bytes"
        }
      ],
      "name": "moveStake",
      "outputs": [],
      "stateMutability": "nonpayable",
      "type": "function"
    },
    {
      "inputs": [
        {
          "internalType": "address",
          "name": "_source",
          "type": "address"
        },
        {
          "internalType": "address",
          "name": "_destination",
          "type": "address"
        },
        {
          "internalType": "int256",
          "name": "_collateralValue",
          "type": "int256"
        },
        {
          "internalType": "int256",
          "name": "",
          "type": "int256"
        },
        {
          "internalType": "bytes",
          "name": "_data",
          "type": "bytes"
        }
      ],
      "name": "onAdjustPosition",
      "outputs": [],
      "stateMutability": "nonpayable",
      "type": "function"
    },
    {
      "inputs": [
        {
          "internalType": "address",
          "name": "_source",
          "type": "address"
        },
        {
          "internalType": "address",
          "name": "_destination",
          "type": "address"
        },
        {
          "internalType": "uint256",
          "name": "_share",
          "type": "uint256"
        },
        {
          "internalType": "bytes",
          "name": "_data",
          "type": "bytes"
        }
      ],
      "name": "onMoveCollateral",
      "outputs": [],
      "stateMutability": "nonpayable",
      "type": "function"
    },
    {
      "inputs": [],
      "name": "cage",
      "outputs": [],
      "stateMutability": "nonpayable",
      "type": "function"
    },
    {
      "inputs": [],
      "name": "uncage",
      "outputs": [],
      "stateMutability": "nonpayable",
      "type": "function"
    },
    {
      "inputs": [],
      "name": "pause",
      "outputs": [],
      "stateMutability": "nonpayable",
      "type": "function"
    },
    {
      "inputs": [],
      "name": "unpause",
      "outputs": [],
      "stateMutability": "nonpayable",
      "type": "function"
    },
    {
      "inputs": [],
      "name": "refreshApproval",
      "outputs": [],
      "stateMutability": "nonpayable",
      "type": "function"
    }
  ],
  "bytecode": "0x608060405234801561001057600080fd5b506140e3806100206000396000f3fe60806040526004361061021a5760003560e01c80638217b84611610123578063d33219b4116100ab578063e80cfa5e1161006f578063e80cfa5e146105de578063e9592780146105f4578063f106845414610609578063f77c40361461061f578063f7c618c11461063f57600080fd5b8063d33219b414610553578063d63b23b214610573578063d886f8a214610588578063dca07dc5146105a8578063e3b3932a146105be57600080fd5b8063957aa58c116100f2578063957aa58c146104c857806399443616146104de578063a3b15138146104fe578063b2016bd41461051e578063bf33a1f51461053e57600080fd5b80638217b846146104685780638456cb591461047d578063939d623714610492578063944eef42146104a857600080fd5b8063339b2cff116101a65780635c975abb116101755780635c975abb146103d057806369245009146103f35780636ff1c9bc1461040857806370d39cff14610428578063791b98bc1461044857600080fd5b8063339b2cff1461035a5780633e3be859146103925780633f4ba83a146103a857806349bdc2b8146103bd57600080fd5b806326476204116101ed57806326476204146102b7578063313ce567146102e457806331d7a262146102fa57806331f092651461031a578063331fb00f1461033a57600080fd5b806301f7f89f1461021f578063026c4207146102525780630ea040d01461026857806323905f6314610295575b600080fd5b34801561022b57600080fd5b5061023f61023a366004613988565b61065f565b6040519081526020015b60405180910390f35b34801561025e57600080fd5b5061023f60a55481565b34801561027457600080fd5b5061023f610283366004613988565b60a76020526000908152604090205481565b3480156102a157600080fd5b506102b56102b03660046139a5565b6106e7565b005b3480156102c357600080fd5b5061023f6102d2366004613988565b60a86020526000908152604090205481565b3480156102f057600080fd5b5061023f60a15481565b34801561030657600080fd5b5061023f610315366004613988565b610e06565b34801561032657600080fd5b506102b5610335366004613ab7565b610e88565b34801561034657600080fd5b506102b5610355366004613b13565b610f2b565b34801561036657600080fd5b50609c5461037a906001600160a01b031681565b6040516001600160a01b039091168152602001610249565b34801561039e57600080fd5b5061023f60a65481565b3480156103b457600080fd5b506102b561110a565b6102b56103cb366004613ab7565b611371565b3480156103dc57600080fd5b5060335460ff166040519015158152602001610249565b3480156103ff57600080fd5b506102b561138d565b34801561041457600080fd5b506102b5610423366004613988565b61167b565b34801561043457600080fd5b5060985461037a906001600160a01b031681565b34801561045457600080fd5b5060a35461037a906001600160a01b031681565b34801561047457600080fd5b5060a55461023f565b34801561048957600080fd5b506102b5611783565b34801561049e57600080fd5b5061023f60a45481565b3480156104b457600080fd5b5060975461037a906001600160a01b031681565b3480156104d457600080fd5b5061023f609d5481565b3480156104ea57600080fd5b506102b56104f9366004613b2c565b6119e7565b34801561050a57600080fd5b506102b5610519366004613b2c565b611a22565b34801561052a57600080fd5b5060a05461037a906001600160a01b031681565b34801561054a57600080fd5b506102b5611a32565b34801561055f57600080fd5b5060995461037a906001600160a01b031681565b34801561057f57600080fd5b506102b5611bc0565b34801561059457600080fd5b506102b56105a3366004613988565b611e05565b3480156105b457600080fd5b5061023f609f5481565b3480156105ca57600080fd5b50609e5461037a906001600160a01b031681565b3480156105ea57600080fd5b5061023f609b5481565b34801561060057600080fd5b5061023f611ff9565b34801561061557600080fd5b5061023f609a5481565b34801561062b57600080fd5b506102b561063a366004613b9f565b61202b565b34801561064b57600080fd5b5060a25461037a906001600160a01b031681565b609754609a5460405163b31d991360e01b81526000926106e19285926001600160a01b039092169163b31d99139161069b913090600401613c1b565b602060405180830381865afa1580156106b8573d6000803e3d6000fd5b505050506040513d601f19601f820116820180604052508101906106dc9190613c32565b612075565b92915050565b600054610100900460ff16158080156107075750600054600160ff909116105b806107215750303b158015610721575060005460ff166001145b6107895760405162461bcd60e51b815260206004820152602e60248201527f496e697469616c697a61626c653a20636f6e747261637420697320616c72656160448201526d191e481a5b9a5d1a585b1a5e995960921b60648201526084015b60405180910390fd5b6000805460ff1916600117905580156107ac576000805461ff0019166101001790555b6107b46120b2565b6107bc6120e1565b604051631526fe2760e01b8152600481018890526000906001600160a01b038a1690631526fe279060240160a060405180830381865afa158015610804573d6000803e3d6000fd5b505050506040513d601f19601f820116820180604052508101906108289190613c4b565b5050505090508a6001600160a01b0316816001600160a01b0316146108a85760405162461bcd60e51b815260206004820152603060248201527f436f6c6c61746572616c546f6b656e416461707465722f636f6c6c617465726160448201526f0d8a8ded6cadc5adcdee85adac2e8c6d60831b6064820152608401610780565b896001600160a01b0316896001600160a01b031663b2a795ca6040518163ffffffff1660e01b8152600401602060405180830381865afa1580156108f0573d6000803e3d6000fd5b505050506040513d601f19601f820116820180604052508101906109149190613c94565b6001600160a01b0316146109805760405162461bcd60e51b815260206004820152602d60248201527f436f6c6c61746572616c546f6b656e416461707465722f7265776172642d746f60448201526c0d6cadc5adcdee85adac2e8c6d609b1b6064820152608401610780565b866001600160a01b0316896001600160a01b0316638da5cb5b6040518163ffffffff1660e01b8152600401602060405180830381865afa1580156109c8573d6000803e3d6000fd5b505050506040513d601f19601f820116820180604052508101906109ec9190613c94565b6001600160a01b031614610a525760405162461bcd60e51b815260206004820152602760248201527f436f6c6c61746572616c546f6b656e416461707465722f736869656c642d6e6f6044820152660e85adac2e8c6d60cb1b6064820152608401610780565b856001600160a01b0316876001600160a01b0316638da5cb5b6040518163ffffffff1660e01b8152600401602060405180830381865afa158015610a9a573d6000803e3d6000fd5b505050506040513d601f19601f82011682018060405250810190610abe9190613c94565b6001600160a01b031614610b265760405162461bcd60e51b815260206004820152602960248201527f436f6c6c61746572616c546f6b656e416461707465722f74696d656c6f636b2d6044820152680dcdee85adac2e8c6d60bb1b6064820152608401610780565b88609760006101000a8154816001600160a01b0302191690836001600160a01b0316021790555086609860006101000a8154816001600160a01b0302191690836001600160a01b0316021790555085609960006101000a8154816001600160a01b0302191690836001600160a01b0316021790555087609a819055506001609d819055508c609e60006101000a8154816001600160a01b0302191690836001600160a01b031602179055508b609f819055508a60a060006101000a8154816001600160a01b0302191690836001600160a01b0316021790555060a060009054906101000a90046001600160a01b03166001600160a01b031663313ce5676040518163ffffffff1660e01b8152600401602060405180830381865afa158015610c52573d6000803e3d6000fd5b505050506040513d601f19601f82011682018060405250810190610c769190613cb1565b60ff1660a181905560121015610cda5760405162461bcd60e51b8152602060048201526024808201527f436f6c6c61746572616c546f6b656e416461707465722f646563696d616c732060448201526307c4062760e31b6064820152608401610780565b60a154610ce8906012613cea565b610cf390600a613de1565b60a95560a154610d0490600a613de1565b60aa5560a280546001600160a01b0319166001600160a01b038c8116919091179091558416610d455760405162461bcd60e51b815260040161078090613ded565b611388851115610d675760405162461bcd60e51b815260040161078090613e38565b609b859055609c80546001600160a01b038087166001600160a01b03199283161790925560a38054868416921691909117905560975460a054610db1929081169116600019612110565b508015610df8576000805461ff0019169055604051600181527f7f26b83ff96e1f2b6a682f133852f6798a09c465da95921460cefb38474024989060200160405180910390a15b505050505050505050505050565b609754609a5460405163b31d991360e01b81526000926106e19285926001600160a01b039092169163b31d991391610e42913090600401613c1b565b602060405180830381865afa158015610e5f573d6000803e3d6000fd5b505050506040513d601f19601f82011682018060405250810190610e839190613c32565b612213565b610e90612347565b610e986123a0565b609d54600103610f11578215610f1157609754609a54604051635ae2fb3960e11b81526001600160a01b039092169163b5c5f67291610ede913091908890600401613e83565b600060405180830381600087803b158015610ef857600080fd5b505af1158015610f0c573d6000803e3d6000fd5b505050505b610f1b84846123e6565b610f256001606555565b50505050565b609e546040805163c8cc243f60e01b815290516000926001600160a01b03169163c8cc243f9160048083019260209291908290030181865afa158015610f75573d6000803e3d6000fd5b505050506040513d601f19601f82011682018060405250810190610f999190613c94565b9050806001600160a01b03166391d14854826001600160a01b031663e58378bb6040518163ffffffff1660e01b8152600401602060405180830381865afa158015610fe8573d6000803e3d6000fd5b505050506040513d601f19601f8201168201806040525081019061100c9190613c32565b336040518363ffffffff1660e01b815260040161102a929190613c1b565b602060405180830381865afa158015611047573d6000803e3d6000fd5b505050506040513d601f19601f8201168201806040525081019061106b9190613ea4565b6110875760405162461bcd60e51b815260040161078090613ec6565b609d546001146110a95760405162461bcd60e51b815260040161078090613eea565b6113888211156110cb5760405162461bcd60e51b815260040161078090613e38565b609b82905560405182815233907fc4a68586da2556b3c4dd5c980f9707a3a5c41545f6e23a71be744bd18851a99b906020015b60405180910390a25050565b609e546040805163c8cc243f60e01b815290516000926001600160a01b03169163c8cc243f9160048083019260209291908290030181865afa158015611154573d6000803e3d6000fd5b505050506040513d601f19601f820116820180604052508101906111789190613c94565b9050806001600160a01b03166391d14854826001600160a01b031663e58378bb6040518163ffffffff1660e01b8152600401602060405180830381865afa1580156111c7573d6000803e3d6000fd5b505050506040513d601f19601f820116820180604052508101906111eb9190613c32565b336040518363ffffffff1660e01b8152600401611209929190613c1b565b602060405180830381865afa158015611226573d6000803e3d6000fd5b505050506040513d601f19601f8201168201806040525081019061124a9190613ea4565b806113205750806001600160a01b03166391d14854826001600160a01b031663b536818a6040518163ffffffff1660e01b8152600401602060405180830381865afa15801561129d573d6000803e3d6000fd5b505050506040513d601f19601f820116820180604052508101906112c19190613c32565b336040518363ffffffff1660e01b81526004016112df929190613c1b565b602060405180830381865afa1580156112fc573d6000803e3d6000fd5b505050506040513d601f19601f820116820180604052508101906113209190613ea4565b6113665760405162461bcd60e51b815260206004820152601760248201527621286f776e6572526f6c65206f7220676f76526f6c652960481b6044820152606401610780565b61136e6125f6565b50565b611379612347565b6113816123a0565b610f1b84848484612648565b611395612347565b609e546040805163c8cc243f60e01b815290516000926001600160a01b03169163c8cc243f9160048083019260209291908290030181865afa1580156113df573d6000803e3d6000fd5b505050506040513d601f19601f820116820180604052508101906114039190613c94565b9050806001600160a01b03166391d14854826001600160a01b031663e58378bb6040518163ffffffff1660e01b8152600401602060405180830381865afa158015611452573d6000803e3d6000fd5b505050506040513d601f19601f820116820180604052508101906114769190613c32565b336040518363ffffffff1660e01b8152600401611494929190613c1b565b602060405180830381865afa1580156114b1573d6000803e3d6000fd5b505050506040513d601f19601f820116820180604052508101906114d59190613ea4565b8061155c575060995460985460408051638da5cb5b60e01b815290516001600160a01b039384169390921691638da5cb5b916004808201926020929091908290030181865afa15801561152c573d6000803e3d6000fd5b505050506040513d601f19601f820116820180604052508101906115509190613c94565b6001600160a01b031614155b6115b65760405162461bcd60e51b815260206004820152602560248201527f436f6c6c61746572616c546f6b656e416461707465722f6e6f742d617574686f6044820152641c9a5e995960da1b6064820152608401610780565b609d546001146115d85760405162461bcd60e51b815260040161078090613eea565b609754609a54604051632989754760e11b81526001600160a01b0390921691635312ea8e9161160d9160040190815260200190565b600060405180830381600087803b15801561162757600080fd5b505af115801561163b573d6000803e3d6000fd5b50506000609d8190556040517fbf689b4aae670d200b1d2b971ace2e0c3bef88a9c5e93f36705c7b86eab630b99350909150a1506116796001606555565b565b611683612347565b609d5460010361177057609e54609f54604051633e2f890b60e21b81526000926001600160a01b03169163f8be242c916116c291903390600401613c1b565b602060405180830381865afa1580156116df573d6000803e3d6000fd5b505050506040513d601f19601f820116820180604052508101906117039190613c32565b609754609a54604051635ae2fb3960e11b81529293506001600160a01b039091169163b5c5f6729161173c913091908690600401613e83565b600060405180830381600087803b15801561175657600080fd5b505af115801561176a573d6000803e3d6000fd5b50505050505b611779816128a6565b61136e6001606555565b609e546040805163c8cc243f60e01b815290516000926001600160a01b03169163c8cc243f9160048083019260209291908290030181865afa1580156117cd573d6000803e3d6000fd5b505050506040513d601f19601f820116820180604052508101906117f19190613c94565b9050806001600160a01b03166391d14854826001600160a01b031663e58378bb6040518163ffffffff1660e01b8152600401602060405180830381865afa158015611840573d6000803e3d6000fd5b505050506040513d601f19601f820116820180604052508101906118649190613c32565b336040518363ffffffff1660e01b8152600401611882929190613c1b565b602060405180830381865afa15801561189f573d6000803e3d6000fd5b505050506040513d601f19601f820116820180604052508101906118c39190613ea4565b806119995750806001600160a01b03166391d14854826001600160a01b031663b536818a6040518163ffffffff1660e01b8152600401602060405180830381865afa158015611916573d6000803e3d6000fd5b505050506040513d601f19601f8201168201806040525081019061193a9190613c32565b336040518363ffffffff1660e01b8152600401611958929190613c1b565b602060405180830381865afa158015611975573d6000803e3d6000fd5b505050506040513d601f19601f820116820180604052508101906119999190613ea4565b6119df5760405162461bcd60e51b815260206004820152601760248201527621286f776e6572526f6c65206f7220676f76526f6c652960481b6044820152606401610780565b61136e612a9a565b6119ef612347565b6119f76123a0565b611a048560008484612648565b611a118585858585612ad7565b611a1b6001606555565b5050505050565b611a2a612347565b611a046123a0565b611a3a612347565b609e546040805163c8cc243f60e01b815290516000926001600160a01b03169163c8cc243f9160048083019260209291908290030181865afa158015611a84573d6000803e3d6000fd5b505050506040513d601f19601f82011682018060405250810190611aa89190613c94565b9050806001600160a01b03166391d14854826001600160a01b031663e58378bb6040518163ffffffff1660e01b8152600401602060405180830381865afa158015611af7573d6000803e3d6000fd5b505050506040513d601f19601f82011682018060405250810190611b1b9190613c32565b336040518363ffffffff1660e01b8152600401611b39929190613c1b565b602060405180830381865afa158015611b56573d6000803e3d6000fd5b505050506040513d601f19601f82011682018060405250810190611b7a9190613ea4565b611b965760405162461bcd60e51b815260040161078090613ec6565b60975460a054611bb5916001600160a01b039182169116600019612110565b506116796001606555565b609e546040805163c8cc243f60e01b815290516000926001600160a01b03169163c8cc243f9160048083019260209291908290030181865afa158015611c0a573d6000803e3d6000fd5b505050506040513d601f19601f82011682018060405250810190611c2e9190613c94565b9050806001600160a01b03166391d14854826001600160a01b031663e58378bb6040518163ffffffff1660e01b8152600401602060405180830381865afa158015611c7d573d6000803e3d6000fd5b505050506040513d601f19601f82011682018060405250810190611ca19190613c32565b336040518363ffffffff1660e01b8152600401611cbf929190613c1b565b602060405180830381865afa158015611cdc573d6000803e3d6000fd5b505050506040513d601f19601f82011682018060405250810190611d009190613ea4565b611d1c5760405162461bcd60e51b815260040161078090613ec6565b609d5415611d6c5760405162461bcd60e51b815260206004820181905260248201527f436f6c6c61746572616c546f6b656e416461707465722f6e6f742d63616765646044820152606401610780565b609754609a5460a554604051630efe6a8b60e01b81526001600160a01b0390931692630efe6a8b92611da2923092600401613e83565b600060405180830381600087803b158015611dbc57600080fd5b505af1158015611dd0573d6000803e3d6000fd5b50506001609d5550506040517f1868a6ced217213f36be87ba9aee25cde5381b42e85c8f88e73b18772c0bd07390600090a150565b609e546040805163c8cc243f60e01b815290516000926001600160a01b03169163c8cc243f9160048083019260209291908290030181865afa158015611e4f573d6000803e3d6000fd5b505050506040513d601f19601f82011682018060405250810190611e739190613c94565b9050806001600160a01b03166391d14854826001600160a01b031663e58378bb6040518163ffffffff1660e01b8152600401602060405180830381865afa158015611ec2573d6000803e3d6000fd5b505050506040513d601f19601f82011682018060405250810190611ee69190613c32565b336040518363ffffffff1660e01b8152600401611f04929190613c1b565b602060405180830381865afa158015611f21573d6000803e3d6000fd5b505050506040513d601f19601f82011682018060405250810190611f459190613ea4565b611f615760405162461bcd60e51b815260040161078090613ec6565b609d54600114611f835760405162461bcd60e51b815260040161078090613eea565b6001600160a01b038216611fa95760405162461bcd60e51b815260040161078090613ded565b609c80546001600160a01b0319166001600160a01b03841690811790915560405190815233907fb4d09ab4c7ddf7a7c96bead0c779f3194bc1c10dd5028fbc751e5abe334cf779906020016110fe565b600060a5546000036120125750670de0b6b3a764000090565b61202661201e60a55490565b60a554613081565b905090565b612033612347565b61203b6123a0565b600080851261204a5784612053565b61205385613f21565b90506120628787838686612ad7565b5061206d6001606555565b505050505050565b6000806120828484612213565b9050600061209d61209583609b546130a7565b61271061310e565b90506120a9828261315f565b95945050505050565b600054610100900460ff166120d95760405162461bcd60e51b815260040161078090613f3d565b6116796131b5565b600054610100900460ff166121085760405162461bcd60e51b815260040161078090613f3d565b6116796131e8565b604080516001600160a01b038481166024830152604480830185905283518084039091018152606490920183526020820180516001600160e01b031663095ea7b360e01b179052915160009283929087169161216c9190613f88565b6000604051808303816000865af19150503d80600081146121a9576040519150601f19603f3d011682016040523d82523d6000602084013e6121ae565b606091505b50915091508180156121d85750805115806121d85750808060200190518101906121d89190613ea4565b611a1b5760405162461bcd60e51b815260206004820152600c60248201526b2173616665417070726f766560a01b6044820152606401610780565b600060a554600003612227575060006106e1565b60a2546040516370a0823160e01b81523060048201526000916122ad916122a59186916001600160a01b03909116906370a0823190602401602060405180830381865afa15801561227c573d6000803e3d6000fd5b505050506040513d601f19601f820116820180604052508101906122a09190613c32565b61320f565b60a65461315f565b905060006122c360a4546122a08460a554613264565b6001600160a01b038616600090815260a86020526040812054919250906122ea908361327d565b6001600160a01b038716600090815260a7602052604090205490915081111561233b576001600160a01b038616600090815260a7602052604090205461233190829061315f565b93505050506106e1565b600093505050506106e1565b6002606554036123995760405162461bcd60e51b815260206004820152601f60248201527f5265656e7472616e637947756172643a207265656e7472616e742063616c6c006044820152606401610780565b6002606555565b60335460ff16156116795760405162461bcd60e51b815260206004820152601060248201526f14185d5cd8589b194e881c185d5cd95960821b6044820152606401610780565b6123ef33613296565b80156125885760006124136124068360a9546130a7565b61240e611ff9565b6134c0565b9050600081136124355760405162461bcd60e51b815260040161078090613fb7565b33600090815260a860205260409020548111156124ae5760405162461bcd60e51b815260206004820152603160248201527f436f6c6c61746572616c546f6b656e416461707465722f696e73756666696369604482015270195b9d081cdd185ad95908185b5bdd5b9d607a1b6064820152608401610780565b609e54609f546001600160a01b039091169063d295927a90336124d085613f21565b6040516001600160e01b031960e086901b16815260048101939093526001600160a01b0390911660248301526044820152606401600060405180830381600087803b15801561251e57600080fd5b505af1158015612532573d6000803e3d6000fd5b5050505061254260a5548261315f565b60a55533600090815260a8602052604090205461255f908261315f565b33600090815260a8602052604090205560a054612586906001600160a01b031684846134dd565b505b33600090815260a8602052604090205460a4546125a591906135e1565b33600090815260a7602090815260409182902092909255518281527f879a83fc17750905b8aef4ef85e6701b84a50e15d4463dc3c2e7fb0f9dbcf75d910160405180910390a15050565b6001606555565b6125fe613602565b6033805460ff191690557f5db9ee0a495bf2e6ff9c91a7834c1ba4fdd244a5e8aa4e537bd38aeae4b073aa335b6040516001600160a01b03909116815260200160405180910390a1565b609d5460011461269a5760405162461bcd60e51b815260206004820152601f60248201527f436f6c6c61746572616c546f6b656e416461707465722f6e6f74206c697665006044820152606401610780565b6126a384613296565b82156127bf5760006126c76126ba8560a9546130a7565b6126c2611ff9565b613081565b9050600081136126e95760405162461bcd60e51b815260040161078090613fb7565b60a054612701906001600160a01b031633308761364b565b609e54609f5460405163694ac93d60e11b815260048101919091526001600160a01b038781166024830152604482018490529091169063d295927a90606401600060405180830381600087803b15801561275a57600080fd5b505af115801561276e573d6000803e3d6000fd5b5050505061277e60a5548261320f565b60a5556001600160a01b038516600090815260a860205260409020546127a4908261320f565b6001600160a01b038616600090815260a86020526040902055505b6001600160a01b038416600090815260a8602052604090205460a4546127e591906135e1565b6001600160a01b038516600090815260a76020526040902055821561286d57609754609a54604051630efe6a8b60e01b81526001600160a01b0390921691630efe6a8b9161283a913091908890600401613e83565b600060405180830381600087803b15801561285457600080fd5b505af1158015612868573d6000803e3d6000fd5b505050505b6040518381527ff641ad64267ca71156d13749ad746155df3095d9afeb604fe3b53016ce5fc8ba9060200160405180910390a150505050565b609e54609f54604051633e2f890b60e21b81526000926001600160a01b03169163f8be242c916128db91903390600401613c1b565b602060405180830381865afa1580156128f8573d6000803e3d6000fd5b505050506040513d601f19601f8201168201806040525081019061291c9190613c32565b9050600160ff1b81106129415760405162461bcd60e51b815260040161078090613fb7565b600061295f61295783612952611ff9565b61375b565b60aa5461375b565b609e54609f549192506001600160a01b03169063d295927a903361298286613f21565b6040516001600160e01b031960e086901b16815260048101939093526001600160a01b0390911660248301526044820152606401600060405180830381600087803b1580156129d057600080fd5b505af11580156129e4573d6000803e3d6000fd5b505050506129f460a5548361315f565b60a55533600090815260a86020526040902054612a11908361315f565b33600090815260a86020526040902081905560a454612a3091906135e1565b33600090815260a7602052604090205560a054612a57906001600160a01b031684836134dd565b6040516001600160a01b038416815233907f6ba7f365fdc489ae6b61ea2021626b6df9cff6f0280e8e1658e5d7f87794f0c89060200160405180910390a2505050565b612aa26123a0565b6033805460ff191660011790557f62e78cea01bee320cd4e420270b5ea74000d11b0c9f74754ebdbfc544b05a25861262b3390565b609e546040805163c8cc243f60e01b815290516000926001600160a01b03169163c8cc243f9160048083019260209291908290030181865afa158015612b21573d6000803e3d6000fd5b505050506040513d601f19601f82011682018060405250810190612b459190613c94565b9050806001600160a01b03166391d14854826001600160a01b0316632e718ab76040518163ffffffff1660e01b8152600401602060405180830381865afa158015612b94573d6000803e3d6000fd5b505050506040513d601f19601f82011682018060405250810190612bb89190613c32565b336040518363ffffffff1660e01b8152600401612bd6929190613c1b565b602060405180830381865afa158015612bf3573d6000803e3d6000fd5b505050506040513d601f19601f82011682018060405250810190612c179190613ea4565b612c585760405162461bcd60e51b815260206004820152601260248201527110b1b7b63630ba32b930b626b0b730b3b2b960711b6044820152606401610780565b6001600160a01b038616600090815260a86020526040902054612c7b818661315f565b6001600160a01b03808916600090815260a860205260408082209390935590881681522054612caa908661320f565b6001600160a01b03808816600090815260a86020908152604080832094909455918a16815260a7909152908120549082612ce483896130a7565b612cee9190613ffc565b9050612cfa8183613cea565b6001600160a01b03808b16600090815260a7602052604080822093909355908a1681522054612d29908261320f565b6001600160a01b03808a16600090815260a7602052604080822093909355609e54609f549351630a76216560e21b815291939216916329d8859491612d7391908e90600401613c1b565b6040805180830381865afa158015612d8f573d6000803e3d6000fd5b505050506040513d601f19601f82011682018060405250810190612db3919061401e565b50609e54609f54604051633e2f890b60e21b8152929350612e35926001600160a01b039092169163f8be242c91612dee918f90600401613c1b565b602060405180830381865afa158015612e0b573d6000803e3d6000fd5b505050506040513d601f19601f82011682018060405250810190612e2f9190613c32565b8261320f565b6001600160a01b038b16600090815260a860205260409020541015612ed55760405162461bcd60e51b815260206004820152604a60248201527f436f6c6c61746572616c546f6b656e416461707465722f7374616b655b736f7560448201527f7263655d203c20636f6c6c61746572616c546f6b656e73202b206c6f636b656460648201526910dbdb1b185d195c985b60b21b608482015260a401610780565b609e54609f54604051630a76216560e21b81526001600160a01b03909216916329d8859491612f08918d90600401613c1b565b6040805180830381865afa158015612f24573d6000803e3d6000fd5b505050506040513d601f19601f82011682018060405250810190612f48919061401e565b50609e54609f54604051633e2f890b60e21b8152929350612f83926001600160a01b039092169163f8be242c91612dee918e90600401613c1b565b6001600160a01b038a16600090815260a8602052604090205411156130285760405162461bcd60e51b815260206004820152604f60248201527f436f6c6c61746572616c546f6b656e416461707465722f7374616b655b64657360448201527f74696e6174696f6e5d203e20636f6c6c61746572616c546f6b656e73202b206c60648201526e1bd8dad95910dbdb1b185d195c985b608a1b608482015260a401610780565b886001600160a01b03168a6001600160a01b03167f11f8877fdec37577921d8bf36ca71ea534c8901eada496d759bce84bba46e2de8a60405161306d91815260200190565b60405180910390a350505050505050505050565b60008161309684670de0b6b3a76400006130a7565b6130a09190613ffc565b9392505050565b60008115806130cb575082826130bd8183614042565b92506130c99083613ffc565b145b6106e15760405162461bcd60e51b815260206004820152601460248201527364732d6d6174682d6d756c2d6f766572666c6f7760601b6044820152606401610780565b60008082116131555760405162461bcd60e51b815260206004820152601360248201527264732d6d6174682d6469762d62792d7a65726f60681b6044820152606401610780565b6130a08284613ffc565b60008261316c8382613cea565b91508111156106e15760405162461bcd60e51b815260206004820152601560248201527464732d6d6174682d7375622d756e646572666c6f7760581b6044820152606401610780565b600054610100900460ff166131dc5760405162461bcd60e51b815260040161078090613f3d565b6033805460ff19169055565b600054610100900460ff166125ef5760405162461bcd60e51b815260040161078090613f3d565b60008261321c8382614059565b91508110156106e15760405162461bcd60e51b815260206004820152601460248201527364732d6d6174682d6164642d6f766572666c6f7760601b6044820152606401610780565b600081613096846b033b2e3c9fd0803ce80000006130a7565b60006b033b2e3c9fd0803ce800000061309684846130a7565b60a354604051633383f9ef60e11b81526001600160a01b0383811660048301526000921690636707f3de90602401602060405180830381865afa1580156132e1573d6000803e3d6000fd5b505050506040513d601f19601f820116820180604052508101906133059190613c94565b90506001600160a01b0381166133185750805b6001600160a01b0381166133855760405162461bcd60e51b815260206004820152602e60248201527f436f6c6c61746572616c546f6b656e416461707465722f686172766573742d7460448201526d6f2d616464726573732d7a65726f60901b6064820152608401610780565b60a554156133aa576133a660a4546122a061339e613770565b60a554613264565b60a4555b6001600160a01b038216600090815260a7602090815260408083205460a890925282205460a4549192916133de919061327d565b90508181111561344b5760006133f4828461315f565b9050600061340761209583609b546130a7565b609c5460a254919250613427916001600160a01b039081169116836134dd565b61344885613435848461315f565b60a2546001600160a01b031691906134dd565b50505b60a2546040516370a0823160e01b81523060048201526001600160a01b03909116906370a0823190602401602060405180830381865afa158015613493573d6000803e3d6000fd5b505050506040513d601f19601f820116820180604052508101906134b79190613c32565b60a65550505050565b60006130a06134d784670de0b6b3a76400006130a7565b83613961565b604080516001600160a01b038481166024830152604480830185905283518084039091018152606490920183526020820180516001600160e01b031663a9059cbb60e01b17905291516000928392908716916135399190613f88565b6000604051808303816000865af19150503d8060008114613576576040519150601f19603f3d011682016040523d82523d6000602084013e61357b565b606091505b50915091508180156135a55750805115806135a55750808060200190518101906135a59190613ea4565b611a1b5760405162461bcd60e51b815260206004820152600d60248201526c10b9b0b332aa3930b739b332b960991b6044820152606401610780565b60006130a06135f084846130a7565b6b033b2e3c9fd0803ce8000000613961565b60335460ff166116795760405162461bcd60e51b815260206004820152601460248201527314185d5cd8589b194e881b9bdd081c185d5cd95960621b6044820152606401610780565b604080516001600160a01b0385811660248301528481166044830152606480830185905283518084039091018152608490920183526020820180516001600160e01b03166323b872dd60e01b17905291516000928392908816916136af9190613f88565b6000604051808303816000865af19150503d80600081146136ec576040519150601f19603f3d011682016040523d82523d6000602084013e6136f1565b606091505b509150915081801561371b57508051158061371b57508080602001905181019061371b9190613ea4565b61206d5760405162461bcd60e51b815260206004820152601160248201527021736166655472616e7366657246726f6d60781b6044820152606401610780565b6000670de0b6b3a764000061309684846130a7565b6000609d546001036138f357609754609a5460405163b31d991360e01b81526000926001600160a01b03169163b31d9913916137b191903090600401613c1b565b602060405180830381865afa1580156137ce573d6000803e3d6000fd5b505050506040513d601f19601f820116820180604052508101906137f29190613c32565b609754609a546040516393f1a40b60e01b81529293506000926001600160a01b03909216916393f1a40b9161382b913090600401613c1b565b608060405180830381865afa158015613848573d6000803e3d6000fd5b505050506040513d601f19601f8201168201806040525081019061386c919061406c565b50505090506000811180156138815750600082115b156138f057609754609a54604051635ae2fb3960e11b81526001600160a01b039092169163b5c5f672916138bd91309190600090600401613e83565b600060405180830381600087803b1580156138d757600080fd5b505af11580156138eb573d6000803e3d6000fd5b505050505b50505b60a2546040516370a0823160e01b8152306004820152612026916001600160a01b0316906370a0823190602401602060405180830381865afa15801561393d573d6000803e3d6000fd5b505050506040513d601f19601f820116820180604052508101906122a59190613c32565b600081613096846122a085600161315f565b6001600160a01b038116811461136e57600080fd5b60006020828403121561399a57600080fd5b81356130a081613973565b60008060008060008060008060008060006101608c8e0312156139c757600080fd5b8b356139d281613973565b9a5060208c0135995060408c01356139e981613973565b985060608c01356139f981613973565b975060808c0135613a0981613973565b965060a08c0135955060c08c0135613a2081613973565b945060e08c0135613a3081613973565b93506101008c013592506101208c0135613a4981613973565b91506101408c0135613a5a81613973565b809150509295989b509295989b9093969950565b60008083601f840112613a8057600080fd5b50813567ffffffffffffffff811115613a9857600080fd5b602083019150836020828501011115613ab057600080fd5b9250929050565b60008060008060608587031215613acd57600080fd5b8435613ad881613973565b935060208501359250604085013567ffffffffffffffff811115613afb57600080fd5b613b0787828801613a6e565b95989497509550505050565b600060208284031215613b2557600080fd5b5035919050565b600080600080600060808688031215613b4457600080fd5b8535613b4f81613973565b94506020860135613b5f81613973565b935060408601359250606086013567ffffffffffffffff811115613b8257600080fd5b613b8e88828901613a6e565b969995985093965092949392505050565b60008060008060008060a08789031215613bb857600080fd5b8635613bc381613973565b95506020870135613bd381613973565b94506040870135935060608701359250608087013567ffffffffffffffff811115613bfd57600080fd5b613c0989828a01613a6e565b979a9699509497509295939492505050565b9182526001600160a01b0316602082015260400190565b600060208284031215613c4457600080fd5b5051919050565b600080600080600060a08688031215613c6357600080fd5b8551613c6e81613973565b602087015160408801516060890151608090990151929a91995097965090945092505050565b600060208284031215613ca657600080fd5b81516130a081613973565b600060208284031215613cc357600080fd5b815160ff811681146130a057600080fd5b634e487b7160e01b600052601160045260246000fd5b818103818111156106e1576106e1613cd4565b600181815b80851115613d38578160001904821115613d1e57613d1e613cd4565b80851615613d2b57918102915b93841c9390800290613d02565b509250929050565b600082613d4f575060016106e1565b81613d5c575060006106e1565b8160018114613d725760028114613d7c57613d98565b60019150506106e1565b60ff841115613d8d57613d8d613cd4565b50506001821b6106e1565b5060208310610133831016604e8410600b8410161715613dbb575081810a6106e1565b613dc58383613cfd565b8060001904821115613dd957613dd9613cd4565b029392505050565b60006130a08383613d40565b6020808252602b908201527f436f6c6c61746572616c546f6b656e416461707465722f62616420747265617360408201526a1d5c9e481858d8dbdd5b9d60aa1b606082015260800190565b6020808252602b908201527f436f6c6c61746572616c546f6b656e416461707465722f62616420747265617360408201526a757279206665652062707360a81b606082015260800190565b6001600160a01b039390931683526020830191909152604082015260600190565b600060208284031215613eb657600080fd5b815180151581146130a057600080fd5b6020808252600a9082015269216f776e6572526f6c6560b01b604082015260600190565b6020808252601f908201527f436f6c6c61746572616c546f6b656e416461707465722f6e6f742d6c69766500604082015260600190565b6000600160ff1b8201613f3657613f36613cd4565b5060000390565b6020808252602b908201527f496e697469616c697a61626c653a20636f6e7472616374206973206e6f74206960408201526a6e697469616c697a696e6760a81b606082015260800190565b6000825160005b81811015613fa95760208186018101518583015201613f8f565b506000920191825250919050565b60208082526025908201527f436f6c6c61746572616c546f6b656e416461707465722f73686172652d6f766560408201526472666c6f7760d81b606082015260800190565b60008261401957634e487b7160e01b600052601260045260246000fd5b500490565b6000806040838503121561403157600080fd5b505080516020909101519092909150565b80820281158282048414176106e1576106e1613cd4565b808201808211156106e1576106e1613cd4565b6000806000806080858703121561408257600080fd5b84519350602085015192506040850151915060608501516140a281613973565b93969295509093505056fea2646970667358221220b2ee7e0e2c1c49d8fe1d329898b613b00deb69fa1be10ed8b5d8c5cfd1fe13e664736f6c63430008110033",
  "immutableReferences": {},
  "source": "// SPDX-License-Identifier: AGPL-3.0-or-later\n\npragma solidity 0.8.17;\n\nimport \"@openzeppelin/contracts-upgradeable/security/PausableUpgradeable.sol\";\nimport \"@openzeppelin/contracts-upgradeable/access/AccessControlUpgradeable.sol\";\nimport \"@openzeppelin/contracts-upgradeable/security/ReentrancyGuardUpgradeable.sol\";\n\nimport \"../../../interfaces/IFathomFairLaunch.sol\";\nimport \"../../../interfaces/IBookKeeper.sol\";\nimport \"../../../interfaces/IFarmableTokenAdapter.sol\";\nimport \"../../../interfaces/ITimeLock.sol\";\nimport \"../../../interfaces/IShield.sol\";\nimport \"../../../interfaces/ICagable.sol\";\nimport \"../../../interfaces/IManager.sol\";\nimport \"../../../utils/SafeToken.sol\";\n\n/// @title CollateralTokenAdapter is the adapter that inherited BaseFarmableTokenAdapter.\n/// It receives Fathom's ibTOKEN from users and deposit in Fathom's FairLaunch.\n/// Hence, users will still earn FATHOM rewards while holding positions.\ncontract CollateralTokenAdapter is IFarmableTokenAdapter, PausableUpgradeable, ReentrancyGuardUpgradeable, ICagable {\n  using SafeToken for address;\n\n  uint256 internal constant WAD = 10**18;\n  uint256 internal constant RAY = 10**27;\n\n  /// @dev The Fathom's Fairlaunch contract\n  IFathomFairLaunch public fairlaunch;\n  /// @dev The Fathom's Shield contract\n  IShield public shield;\n  /// @dev The Timelock that owns Shield\n  ITimeLock public timelock;\n  /// @dev The pool id that this collateralTokenAdapter is working with\n  uint256 public pid;\n\n  uint256 public treasuryFeeBps;\n  address public treasuryAccount;\n\n  uint256 public live;\n\n  /// @dev Book Keeper instance\n  IBookKeeper public bookKeeper;\n  /// @dev Collateral Pool ID\n  bytes32 public override collateralPoolId;\n  /// @dev Token that is used for collateral\n  address public override collateralToken;\n  /// @dev The decimals of collateralToken\n  uint256 public override decimals;\n  /// @dev The token that will get after collateral has been staked\n  IToken public rewardToken;\n\n  IManager public positionManager;\n\n  /// @dev Rewards per collateralToken in RAY\n  uint256 public accRewardPerShare;\n  /// @dev Total CollateralTokens that has been staked in WAD\n  uint256 public totalShare;\n  /// @dev Accummulate reward balance in WAD\n  uint256 public accRewardBalance;\n\n  /// @dev Mapping of user => rewardDebts\n  mapping(address => uint256) public rewardDebts;\n  /// @dev Mapping of user => collteralTokens that he is staking\n\n  mapping(address => uint256) public stake;\n\n  uint256 internal to18ConversionFactor;\n  uint256 internal toTokenConversionFactor;\n\n  /// @notice Events\n  event LogDeposit(uint256 _val);\n  event LogWithdraw(uint256 _val);\n  event LogEmergencyWithdraw(address indexed _caller, address _to);\n  event LogMoveStake(address indexed _src, address indexed _dst, uint256 _wad);\n  event LogSetTreasuryAccount(address indexed _caller, address _treasuryAccount);\n  event LogSetTreasuryFeeBps(address indexed _caller, uint256 _treasuryFeeBps);\n\n  modifier onlyOwner() {\n    IAccessControlConfig _accessControlConfig = IAccessControlConfig(bookKeeper.accessControlConfig());\n    require(_accessControlConfig.hasRole(_accessControlConfig.OWNER_ROLE(), msg.sender), \"!ownerRole\");\n    _;\n  }\n\n  modifier onlyOwnerOrGov() {\n    IAccessControlConfig _accessControlConfig = IAccessControlConfig(bookKeeper.accessControlConfig());\n    require(\n      _accessControlConfig.hasRole(_accessControlConfig.OWNER_ROLE(), msg.sender) ||\n        _accessControlConfig.hasRole(_accessControlConfig.GOV_ROLE(), msg.sender),\n      \"!(ownerRole or govRole)\"\n    );\n    _;\n  }\n\n  modifier onlyCollateralManager() {\n    IAccessControlConfig _accessControlConfig = IAccessControlConfig(bookKeeper.accessControlConfig());\n    require(\n      _accessControlConfig.hasRole(_accessControlConfig.COLLATERAL_MANAGER_ROLE(), msg.sender),\n      \"!collateralManager\"\n    );\n    _;\n  }\n\n    function initialize(\n    address _bookKeeper,\n    bytes32 _collateralPoolId,\n    address _collateralToken,\n    address _rewardToken,\n    address _fairlaunch,\n    uint256 _pid,\n    address _shield,\n    address _timelock,\n    uint256 _treasuryFeeBps,\n    address _treasuryAccount,\n    address _positionManager\n  ) external initializer {\n    // 1. Initialized all dependencies\n    PausableUpgradeable.__Pausable_init();\n    ReentrancyGuardUpgradeable.__ReentrancyGuard_init();\n    // 2. Sanity checks\n    (address _stakeToken, , , , ) = IFathomFairLaunch(_fairlaunch).poolInfo(_pid);\n    require(_stakeToken == _collateralToken, \"CollateralTokenAdapter/collateralToken-not-match\");\n    require(IFathomFairLaunch(_fairlaunch).fathom() == _rewardToken, \"CollateralTokenAdapter/reward-token-not-match\");\n    require(IFathomFairLaunch(_fairlaunch).owner() == _shield, \"CollateralTokenAdapter/shield-not-match\");\n    require(IShield(_shield).owner() == _timelock, \"CollateralTokenAdapter/timelock-not-match\");\n\n    fairlaunch = IFathomFairLaunch(_fairlaunch);\n    shield = IShield(_shield);\n    timelock = ITimeLock(_timelock);\n    pid = _pid;\n\n    live = 1;\n\n    bookKeeper = IBookKeeper(_bookKeeper);\n    collateralPoolId = _collateralPoolId;\n    collateralToken = _collateralToken;\n    decimals = IToken(collateralToken).decimals();\n    require(decimals <= 18, \"CollateralTokenAdapter/decimals > 18\");\n\n    to18ConversionFactor = 10**(18 - decimals);\n    toTokenConversionFactor = 10**decimals;\n    rewardToken = IToken(_rewardToken);\n\n    require(_treasuryAccount != address(0), \"CollateralTokenAdapter/bad treasury account\");\n    require(_treasuryFeeBps <= 5000, \"CollateralTokenAdapter/bad treasury fee bps\");\n    treasuryFeeBps = _treasuryFeeBps;\n    treasuryAccount = _treasuryAccount;\n\n    positionManager = IManager(_positionManager);\n\n    address(collateralToken).safeApprove(address(fairlaunch), type(uint).max);\n  }\n\n  function add(uint256 _x, uint256 _y) internal pure returns (uint256 _z) {\n    require((_z = _x + _y) >= _x, \"ds-math-add-overflow\");\n  }\n\n  function sub(uint256 _x, uint256 _y) internal pure returns (uint256 _z) {\n    require((_z = _x - _y) <= _x, \"ds-math-sub-underflow\");\n  }\n\n  function mul(uint256 _x, uint256 _y) internal pure returns (uint256 _z) {\n    require(_y == 0 || (_z = _x * _y) / _y == _x, \"ds-math-mul-overflow\");\n  }\n\n  function div(uint256 _x, uint256 _y) internal pure returns (uint256 _z) {\n    require(_y > 0, \"ds-math-div-by-zero\");\n    _z = _x / _y;\n  }\n\n  function divup(uint256 _x, uint256 _y) internal pure returns (uint256 _z) {\n    _z = add(_x, sub(_y, 1)) / _y;\n  }\n\n  function wmul(uint256 _x, uint256 _y) internal pure returns (uint256 _z) {\n    _z = mul(_x, _y) / WAD;\n  }\n\n  function wdiv(uint256 _x, uint256 _y) internal pure returns (uint256 _z) {\n    _z = mul(_x, WAD) / _y;\n  }\n\n  function wdivup(uint256 _x, uint256 _y) internal pure returns (uint256 _z) {\n    _z = divup(mul(_x, WAD), _y);\n  }\n\n  function rmul(uint256 _x, uint256 _y) internal pure returns (uint256 _z) {\n    _z = mul(_x, _y) / RAY;\n  }\n\n  function rmulup(uint256 _x, uint256 _y) internal pure returns (uint256 _z) {\n    _z = divup(mul(_x, _y), RAY);\n  }\n\n  function rdiv(uint256 _x, uint256 _y) internal pure returns (uint256 _z) {\n    _z = mul(_x, RAY) / _y;\n  }\n\n  function setTreasuryFeeBps(uint256 _treasuryFeeBps) external onlyOwner {\n    require(live == 1, \"CollateralTokenAdapter/not-live\");\n    require(_treasuryFeeBps <= 5000, \"CollateralTokenAdapter/bad treasury fee bps\");\n    treasuryFeeBps = _treasuryFeeBps;\n    emit LogSetTreasuryFeeBps(msg.sender, _treasuryFeeBps);\n  }\n\n  function setTreasuryAccount(address _treasuryAccount) external onlyOwner {\n    require(live == 1, \"CollateralTokenAdapter/not-live\");\n    require(_treasuryAccount != address(0), \"CollateralTokenAdapter/bad treasury account\");\n    treasuryAccount = _treasuryAccount;\n    emit LogSetTreasuryAccount(msg.sender, _treasuryAccount);\n  }\n\n  /// @dev Ignore collateralTokens that have been directly transferred\n  function netAssetValuation() public view returns (uint256) {\n    return totalShare;\n  }\n\n  /// @dev Return Net Assets per Share in wad\n  function netAssetPerShare() public view returns (uint256) {\n    if (totalShare == 0) return WAD;\n    else return wdiv(netAssetValuation(), totalShare);\n  }\n\n  /// @dev Harvest FATHOM from FairLaunch\n  /// @dev Return the amount of rewards that is harvested.\n  /// Expect that the adapter which inherited BaseFarmableTokenAdapter\n  function _harvestFromFarm() internal returns (uint256) {\n    if (live == 1) {\n      // Withdraw all rewards\n      uint256 _pendingFathom = fairlaunch.pendingFathom(pid, address(this));\n      (uint256 _stakedBalance, , , ) = fairlaunch.userInfo(pid, address(this));\n      if (_stakedBalance > 0 && _pendingFathom > 0) fairlaunch.withdraw(address(this), pid, 0);\n    }\n    return sub(rewardToken.balanceOf(address(this)), accRewardBalance);\n  }\n\n  /// @dev Harvest rewards for \"_positionAddress\" and send to \"to\"\n  /// @param _positionAddress The position address that is owned and staked the collateral tokens\n  function _harvest(address _positionAddress) internal {\n    // 1. Define the address to receive the harvested rewards\n    // Give the rewards to the proxy wallet that owns this position address if there is any\n    address _harvestTo = positionManager.mapPositionHandlerToOwner(_positionAddress);\n    // defeault _harvestTo as _positionAddress if not properly defined\n    if (_harvestTo == address(0)) _harvestTo = _positionAddress;\n    require(_harvestTo != address(0), \"CollateralTokenAdapter/harvest-to-address-zero\");\n    // 2. Perform actual harvest. Calculate the new accRewardPerShare.\n    if (totalShare > 0) accRewardPerShare = add(accRewardPerShare, rdiv(_harvestFromFarm(), totalShare));\n    // 3. Calculate the rewards that \"to\" should get by:\n    // stake[_positionAddress] * accRewardPerShare (rewards that each share should get) - rewardDebts (what already paid)\n    uint256 _rewardDebt = rewardDebts[_positionAddress];\n    uint256 _rewards = rmul(stake[_positionAddress], accRewardPerShare);\n    if (_rewards > _rewardDebt) {\n      uint256 _back = sub(_rewards, _rewardDebt);\n      uint256 _treasuryFee = div(mul(_back, treasuryFeeBps), 10000);\n      address(rewardToken).safeTransfer(treasuryAccount, _treasuryFee);\n      address(rewardToken).safeTransfer(_harvestTo, sub(_back, _treasuryFee));\n    }\n\n    // 3. Update accRewardBalance\n    accRewardBalance = rewardToken.balanceOf(address(this));\n  }\n\n  /// @dev For FE to query pending rewards of a given positionAddress\n  /// @param _positionAddress The address that you want to check pending FATHOM\n  function pendingRewards(address _positionAddress) external view returns (uint256) {\n    return _pendingRewards(_positionAddress, fairlaunch.pendingFathom(pid, address(this)));\n  }\n\n  /// @dev Like pendingRewards, but it is pending rewards after deduected with treasury fee\n  /// @param _positionAddress The address that you want to check pending FATHOM\n  function netPendingRewards(address _positionAddress) external view returns (uint256) {\n    return _netPendingRewards(_positionAddress, fairlaunch.pendingFathom(pid, address(this)));\n  }\n\n  /// @dev Return the amount of rewards to be harvested for a giving position address\n  /// @param _positionAddress The position address\n  /// @param _pending The pending rewards from staking contract\n  function _pendingRewards(address _positionAddress, uint256 _pending) internal view returns (uint256) {\n    if (totalShare == 0) return 0;\n    uint256 _toBeHarvested = sub(add(_pending, rewardToken.balanceOf(address(this))), accRewardBalance);\n    uint256 _pendingAccRewardPerShare = add(accRewardPerShare, rdiv(_toBeHarvested, totalShare));\n    uint256 _pendingAccReward = rmul(stake[_positionAddress], _pendingAccRewardPerShare);\n    if (_pendingAccReward > rewardDebts[_positionAddress]) {\n      return sub(_pendingAccReward, rewardDebts[_positionAddress]);\n    } else {\n      return 0;\n    }\n  }\n\n  /// @dev Return the amount of rewards to be harvested for a giving position address, and deducted with treasury fee\n  /// @param _positionAddress The position address\n  /// @param _pending The pending rewards from staking contract\n  function _netPendingRewards(address _positionAddress, uint256 _pending) internal view returns (uint256) {\n    uint256 _pendingReward = _pendingRewards(_positionAddress, _pending);\n    uint256 _treasuryFee = div(mul(_pendingReward, treasuryFeeBps), 10000);\n\n    return sub(_pendingReward, _treasuryFee);\n  }\n\n  /// @dev Harvest and deposit received ibToken to FairLaunch\n  /// @param _positionAddress The address that holding states of the position\n  /// @param _amount The ibToken amount that being used as a collateral and to be deposited to FairLaunch\n  /// @param _data The extra data that may needs to execute the deposit\n  function deposit(\n    address _positionAddress,\n    uint256 _amount,\n    bytes calldata _data\n  ) external payable override nonReentrant whenNotPaused {\n    _deposit(_positionAddress, _amount, _data);\n  }\n\n  /// @dev Harvest rewardTokens and distribute to user,\n  /// deposit collateral tokens to staking contract, and update BookKeeper\n  /// @param _positionAddress The position address to be updated\n  /// @param _amount The amount to be deposited\n  function _deposit(\n    address _positionAddress,\n    uint256 _amount,\n    bytes calldata /* _data */\n  ) private {\n    require(live == 1, \"CollateralTokenAdapter/not live\");\n\n    _harvest(_positionAddress);\n\n    if (_amount > 0) {\n      uint256 _share = wdiv(mul(_amount, to18ConversionFactor), netAssetPerShare()); // [wad]\n      // Overflow check for int256(wad) cast below\n      // Also enforces a non-zero wad\n      require(int256(_share) > 0, \"CollateralTokenAdapter/share-overflow\");\n      //I think this line below has a hint. - tracking ibToken when liquidated\n      //the wierd thing is that the _amount is 0 in liquidtion process.\n      //the best guess so far is that the ibToken does not directly move to\n      //the usr's EOA but rather is recorded as staked.\n      address(collateralToken).safeTransferFrom(msg.sender, address(this), _amount);\n      bookKeeper.addCollateral(collateralPoolId, _positionAddress, int256(_share));\n      totalShare = add(totalShare, _share);\n      stake[_positionAddress] = add(stake[_positionAddress], _share);\n    }\n    rewardDebts[_positionAddress] = rmulup(stake[_positionAddress], accRewardPerShare);\n\n    if (_amount > 0) fairlaunch.deposit(address(this), pid, _amount);\n\n    emit LogDeposit(_amount);\n  }\n\n  /// @dev Harvest and withdraw ibToken from FairLaunch\n  /// @param _usr The address that holding states of the position\n  /// @param _amount The ibToken amount to be withdrawn from FairLaunch and return to user\n  function withdraw(\n    address _usr,\n    uint256 _amount,\n    bytes calldata /* _data */\n  ) external override nonReentrant whenNotPaused {\n    if (live == 1) {\n      if (_amount > 0) fairlaunch.withdraw(address(this), pid, _amount);\n    }\n    _withdraw(_usr, _amount);\n  }\n\n  /// @dev Harvest rewardTokens and distribute to user,\n  /// withdraw collateral tokens from staking contract, and update BookKeeper\n  /// @param _usr The position address to be updated\n  /// @param _amount The amount to be deposited\n  function _withdraw(address _usr, uint256 _amount) private {\n    _harvest(msg.sender);\n\n    if (_amount > 0) {\n      uint256 _share = wdivup(mul(_amount, to18ConversionFactor), netAssetPerShare()); // [wad]\n      // Overflow check for int256(wad) cast below\n      // Also enforces a non-zero wad\n      require(int256(_share) > 0, \"CollateralTokenAdapter/share-overflow\");\n      require(stake[msg.sender] >= _share, \"CollateralTokenAdapter/insufficient staked amount\");\n\n      bookKeeper.addCollateral(collateralPoolId, msg.sender, -int256(_share));\n      totalShare = sub(totalShare, _share);\n      stake[msg.sender] = sub(stake[msg.sender], _share);\n      address(collateralToken).safeTransfer(_usr, _amount);\n    }\n    rewardDebts[msg.sender] = rmulup(stake[msg.sender], accRewardPerShare);\n    emit LogWithdraw(_amount);\n  }\n\n  /// @dev EMERGENCY ONLY. Withdraw ibToken from FairLaunch with invoking \"_harvest\"\n  function emergencyWithdraw(address _to) external nonReentrant {\n    if (live == 1) {\n      uint256 _amount = bookKeeper.collateralToken(collateralPoolId, msg.sender);\n      fairlaunch.withdraw(address(this), pid, _amount);\n    }\n    _emergencyWithdraw(_to);\n  }\n\n  /// @dev EMERGENCY ONLY. Withdraw collateralTokens from staking contract without invoking _harvest\n  /// @param _to The address to received collateralTokens\n  function _emergencyWithdraw(address _to) private {\n    uint256 _share = bookKeeper.collateralToken(collateralPoolId, msg.sender); //[wad]\n    require(_share < 2**255, \"CollateralTokenAdapter/share-overflow\");\n    uint256 _amount = wmul(wmul(_share, netAssetPerShare()), toTokenConversionFactor);\n    bookKeeper.addCollateral(collateralPoolId, msg.sender, -int256(_share));\n    totalShare = sub(totalShare, _share);\n    stake[msg.sender] = sub(stake[msg.sender], _share);\n    rewardDebts[msg.sender] = rmulup(stake[msg.sender], accRewardPerShare);\n    address(collateralToken).safeTransfer(_to, _amount);\n    emit LogEmergencyWithdraw(msg.sender, _to);\n  }\n\n  function moveStake(\n    address _source,\n    address _destination,\n    uint256 _share,\n    bytes calldata _data\n  ) external override nonReentrant whenNotPaused {\n    _moveStake(_source, _destination, _share, _data);\n  }\n\n  /// @dev Move wad amount of staked balance from source to destination.\n  /// Can only be moved if underlaying assets make sense.\n  /// @param _source The address to be moved staked balance from\n  /// @param _destination The address to be moved staked balance to\n  /// @param _share The amount of staked balance to be moved\n  /// @dev access: COLLATERAL_MANAGER_ROLE\n  function _moveStake(\n    address _source,\n    address _destination,\n    uint256 _share,\n    bytes calldata /* data */\n  ) private onlyCollateralManager {\n    // 1. Update collateral tokens for source and destination\n    uint256 _stakedAmount = stake[_source];\n    stake[_source] = sub(_stakedAmount, _share);\n    stake[_destination] = add(stake[_destination], _share);\n    // 2. Update source's rewardDebt due to collateral tokens have\n    // moved from source to destination. Hence, rewardDebt should be updated.\n    // rewardDebtDiff is how many rewards has been paid for that share.\n    uint256 _rewardDebt = rewardDebts[_source];\n    uint256 _rewardDebtDiff = mul(_rewardDebt, _share) / _stakedAmount;\n    // 3. Update rewardDebts for both source and destination\n    // Safe since rewardDebtDiff <= rewardDebts[source]\n    rewardDebts[_source] = _rewardDebt - _rewardDebtDiff;\n    rewardDebts[_destination] = add(rewardDebts[_destination], _rewardDebtDiff);\n    // 4. Sanity check.\n    // - stake[source] must more than or equal to collateral + lockedCollateral that source has\n    // to prevent a case where someone try to steal stake from source\n    // - stake[destination] must less than or eqal to collateral + lockedCollateral that destination has\n    // to prevent destination from claim stake > actual collateral that he has\n    (uint256 _lockedCollateral, ) = bookKeeper.positions(collateralPoolId, _source);\n    require(\n      stake[_source] >= add(bookKeeper.collateralToken(collateralPoolId, _source), _lockedCollateral),\n      \"CollateralTokenAdapter/stake[source] < collateralTokens + lockedCollateral\"\n    );\n    (_lockedCollateral, ) = bookKeeper.positions(collateralPoolId, _destination);\n    require(\n      stake[_destination] <= add(bookKeeper.collateralToken(collateralPoolId, _destination), _lockedCollateral),\n      \"CollateralTokenAdapter/stake[destination] > collateralTokens + lockedCollateral\"\n    );\n    emit LogMoveStake(_source, _destination, _share);\n  }\n\n  /// @dev Hook function when PositionManager adjust position.\n  function onAdjustPosition(\n    address _source,\n    address _destination,\n    int256 _collateralValue,\n    int256, /* debtShare */\n    bytes calldata _data\n  ) external override nonReentrant whenNotPaused {\n    uint256 _unsignedCollateralValue = _collateralValue < 0 ? uint256(-_collateralValue) : uint256(_collateralValue);\n    _moveStake(_source, _destination, _unsignedCollateralValue, _data);\n  }\n\n  function onMoveCollateral(\n    address _source,\n    address _destination,\n    uint256 _share,\n    bytes calldata _data\n  ) external override nonReentrant whenNotPaused {\n    _deposit(_source, 0, _data);\n    _moveStake(_source, _destination, _share, _data);\n  }\n\n  /// @dev Pause collateralTokenAdapter when assumptions change\n  /// @dev access: OWNER_ROLE\n  function cage() external override nonReentrant {\n    // Allow caging if\n    // - msg.sender is whitelisted to do so\n    // - Shield's owner has been changed\n    IAccessControlConfig _accessControlConfig = IAccessControlConfig(bookKeeper.accessControlConfig());\n    require(\n      _accessControlConfig.hasRole(_accessControlConfig.OWNER_ROLE(), msg.sender) ||\n        shield.owner() != address(timelock),\n      \"CollateralTokenAdapter/not-authorized\"\n    );\n    require(live == 1, \"CollateralTokenAdapter/not-live\");\n    fairlaunch.emergencyWithdraw(pid);\n    live = 0;\n    emit LogCage();\n  }\n\n  /// @dev access: OWNER_ROLE\n  function uncage() external override onlyOwner {\n    require(live == 0, \"CollateralTokenAdapter/not-caged\");\n    fairlaunch.deposit(address(this), pid, totalShare);\n    live = 1;\n    emit LogUncage();\n  }\n\n  // --- pause ---\n  /// @dev access: OWNER_ROLE, GOV_ROLE\n  function pause() external onlyOwnerOrGov {\n    _pause();\n  }\n\n  /// @dev access: OWNER_ROLE, GOV_ROLE\n  function unpause() external onlyOwnerOrGov {\n    _unpause();\n  }\n\n  /// @dev access: OWNER_ROLE\n  function refreshApproval() external nonReentrant onlyOwner {\n    address(collateralToken).safeApprove(address(fairlaunch), type(uint).max);\n  }\n}\n",
  "sourcePath": "/Users/sangjun.lee/Sangjun/fathom-stablecoin-smart-contracts/contracts/8.17/stablecoin-core/adapters/FarmableTokenAdapter/CollateralTokenAdapter.sol",
  "compiler": {
    "name": "solc",
    "version": "0.8.17+commit.8df45f5f.Emscripten.clang"
  },
  "schemaVersion": "3.4.10",
  "updatedAt": "2022-11-24T09:45:49.354Z",
  "devdoc": {
    "kind": "dev",
    "methods": {
      "cage()": {
        "details": "Pause collateralTokenAdapter when assumptions changeaccess: OWNER_ROLE"
      },
      "deposit(address,uint256,bytes)": {
        "details": "Harvest and deposit received ibToken to FairLaunch",
        "params": {
          "_amount": "The ibToken amount that being used as a collateral and to be deposited to FairLaunch",
          "_data": "The extra data that may needs to execute the deposit",
          "_positionAddress": "The address that holding states of the position"
        }
      },
      "emergencyWithdraw(address)": {
        "details": "EMERGENCY ONLY. Withdraw ibToken from FairLaunch with invoking \"_harvest\""
      },
      "netAssetPerShare()": {
        "details": "Return Net Assets per Share in wad"
      },
      "netAssetValuation()": {
        "details": "Ignore collateralTokens that have been directly transferred"
      },
      "netPendingRewards(address)": {
        "details": "Like pendingRewards, but it is pending rewards after deduected with treasury fee",
        "params": {
          "_positionAddress": "The address that you want to check pending FATHOM"
        }
      },
      "onAdjustPosition(address,address,int256,int256,bytes)": {
        "details": "Hook function when PositionManager adjust position."
      },
      "pause()": {
        "details": "access: OWNER_ROLE, GOV_ROLE"
      },
      "paused()": {
        "details": "Returns true if the contract is paused, and false otherwise."
      },
      "pendingRewards(address)": {
        "details": "For FE to query pending rewards of a given positionAddress",
        "params": {
          "_positionAddress": "The address that you want to check pending FATHOM"
        }
      },
      "refreshApproval()": {
        "details": "access: OWNER_ROLE"
      },
      "uncage()": {
        "details": "access: OWNER_ROLE"
      },
      "unpause()": {
        "details": "access: OWNER_ROLE, GOV_ROLE"
      },
      "withdraw(address,uint256,bytes)": {
        "details": "Harvest and withdraw ibToken from FairLaunch",
        "params": {
          "_amount": "The ibToken amount to be withdrawn from FairLaunch and return to user",
          "_usr": "The address that holding states of the position"
        }
      }
    },
    "stateVariables": {
      "accRewardBalance": {
        "details": "Accummulate reward balance in WAD"
      },
      "accRewardPerShare": {
        "details": "Rewards per collateralToken in RAY"
      },
      "bookKeeper": {
        "details": "Book Keeper instance"
      },
      "collateralPoolId": {
        "details": "Collateral Pool ID"
      },
      "collateralToken": {
        "details": "Token that is used for collateral"
      },
      "decimals": {
        "details": "The decimals of collateralToken"
      },
      "fairlaunch": {
        "details": "The Fathom's Fairlaunch contract"
      },
      "pid": {
        "details": "The pool id that this collateralTokenAdapter is working with"
      },
      "rewardDebts": {
        "details": "Mapping of user => rewardDebts"
      },
      "rewardToken": {
        "details": "The token that will get after collateral has been staked"
      },
      "shield": {
        "details": "The Fathom's Shield contract"
      },
      "stake": {
        "details": "Mapping of user => collteralTokens that he is staking"
      },
      "timelock": {
        "details": "The Timelock that owns Shield"
      },
      "totalShare": {
        "details": "Total CollateralTokens that has been staked in WAD"
      }
    },
    "title": "CollateralTokenAdapter is the adapter that inherited BaseFarmableTokenAdapter. It receives Fathom's ibTOKEN from users and deposit in Fathom's FairLaunch. Hence, users will still earn FATHOM rewards while holding positions.",
    "version": 1
  },
  "userdoc": {
    "events": {
      "LogDeposit(uint256)": {
        "notice": "Events"
      }
    },
    "kind": "user",
    "methods": {},
    "version": 1
  }
}