{
  "contractName": "DelaySimplePriceFeed",
  "abi": [
    {
      "inputs": [
        {
          "internalType": "uint256",
          "name": "_timeDelay",
          "type": "uint256"
        }
      ],
      "stateMutability": "nonpayable",
      "type": "constructor"
    },
    {
      "anonymous": false,
      "inputs": [
        {
          "indexed": true,
          "internalType": "address",
          "name": "_caller",
          "type": "address"
        },
        {
          "indexed": false,
          "internalType": "uint256",
          "name": "_price",
          "type": "uint256"
        },
        {
          "indexed": false,
          "internalType": "bool",
          "name": "currentPrice",
          "type": "bool"
        }
      ],
      "name": "LogSetPrice",
      "type": "event"
    },
    {
      "inputs": [],
      "name": "currentPrice",
      "outputs": [
        {
          "internalType": "uint128",
          "name": "val",
          "type": "uint128"
        },
        {
          "internalType": "bool",
          "name": "ok",
          "type": "bool"
        }
      ],
      "stateMutability": "view",
      "type": "function"
    },
    {
      "inputs": [],
      "name": "lastUpdateTSCurrent",
      "outputs": [
        {
          "internalType": "uint256",
          "name": "",
          "type": "uint256"
        }
      ],
      "stateMutability": "view",
      "type": "function"
    },
    {
      "inputs": [],
      "name": "lastUpdateTSNext",
      "outputs": [
        {
          "internalType": "uint256",
          "name": "",
          "type": "uint256"
        }
      ],
      "stateMutability": "view",
      "type": "function"
    },
    {
      "inputs": [],
      "name": "nextPrice",
      "outputs": [
        {
          "internalType": "uint128",
          "name": "val",
          "type": "uint128"
        },
        {
          "internalType": "bool",
          "name": "ok",
          "type": "bool"
        }
      ],
      "stateMutability": "view",
      "type": "function"
    },
    {
      "inputs": [],
      "name": "timeDelay",
      "outputs": [
        {
          "internalType": "uint256",
          "name": "",
          "type": "uint256"
        }
      ],
      "stateMutability": "view",
      "type": "function"
    },
    {
      "inputs": [
        {
          "internalType": "uint128",
          "name": "_nextPrice",
          "type": "uint128"
        }
      ],
      "name": "setPrice",
      "outputs": [],
      "stateMutability": "nonpayable",
      "type": "function"
    },
    {
      "inputs": [],
      "name": "peekPrice",
      "outputs": [
        {
          "internalType": "bytes32",
          "name": "",
          "type": "bytes32"
        },
        {
          "internalType": "bool",
          "name": "",
          "type": "bool"
        }
      ],
      "stateMutability": "nonpayable",
      "type": "function"
    }
  ],
  "bytecode": "0x608060405234801561001057600080fd5b5060405161045f38038061045f83398101604081905261002f91610037565b600455610050565b60006020828403121561004957600080fd5b5051919050565b6104008061005f6000396000f3fe608060405234801561001057600080fd5b506004361061007d5760003560e01c80637dec450b1161005b5780637dec450b146100d05780639d1b464a146100d9578063c9dec36114610117578063ef9089d61461012057600080fd5b8063140d2720146100825780633ae84a82146100a4578063412f0675146100b9575b600080fd5b61008a61013f565b604080519283529015156020830152015b60405180910390f35b6100b76100b2366004610373565b610201565b005b6100c260035481565b60405190815260200161009b565b6100c260025481565b6000546100f8906001600160801b03811690600160801b900460ff1682565b604080516001600160801b03909316835290151560208301520161009b565b6100c260045481565b6001546100f8906001600160801b03811690600160801b900460ff1682565b60008060045460025461015291906103a3565b42101561017f5750506000546001600160801b0381169160ff600160801b90920491909116151560011490565b600354600254036101b05750506000546001600160801b0381169160ff600160801b90920491909116151560011490565b5050600180546000805460ff600160801b8085048216151581026001600160881b03199093166001600160801b03958616179290921792839055600354600255928216949104909116151590911490565b426001600160801b0382166102675760405162461bcd60e51b815260206004820152602260248201527f44656c617953696d706c655072696365466565642f4e65676174697665507269604482015261636560f01b606482015260840160405180910390fd5b6000546001600160801b0316158061028d575060045460025461028a91906103a3565b81115b1561030c57600080546001600160881b0319166001600160801b0384811691909117600160801b179182905560028390556001805460ff60801b1916815560408051939092168352602083015233917f072caec4707b81779a5e5767d8a8c6c977306ac27c89c468511717c211012b3d91015b60405180910390a25050565b600180546001600160881b0319166001600160801b0384811691909117600160801b17918290556003839055604080519290911682526000602083015233917f072caec4707b81779a5e5767d8a8c6c977306ac27c89c468511717c211012b3d9101610300565b60006020828403121561038557600080fd5b81356001600160801b038116811461039c57600080fd5b9392505050565b808201808211156103c457634e487b7160e01b600052601160045260246000fd5b9291505056fea26469706673582212202af090c53879eb2e1d28073520c2e21ad233223d22eaeced52ac73410fb5223964736f6c63430008110033",
  "immutableReferences": {},
  "source": "// SPDX-License-Identifier: MIT\npragma solidity 0.8.17;\n\ncontract DelaySimplePriceFeed {\n\n    struct Feed {\n        uint128 val;\n        bool ok;\n    }\n    Feed public currentPrice;\n    Feed public nextPrice;\n    \n    uint256 public lastUpdateTSCurrent;\n    uint256 public lastUpdateTSNext;\n    uint256 public timeDelay;\n\n    constructor(uint256 _timeDelay) {\n        timeDelay = _timeDelay;\n    }\n\n    event LogSetPrice(address indexed _caller, uint256 _price, bool currentPrice);\n\n    function setPrice(uint128 _nextPrice) external {\n        uint256 currentTS = block.timestamp;\n        require(_nextPrice > 0, \"DelaySimplePriceFeed/NegativePrice\");\n        if(currentPrice.val == 0 || currentTS > lastUpdateTSCurrent + timeDelay) {\n            currentPrice.val = _nextPrice;\n            currentPrice.ok = true;\n            lastUpdateTSCurrent = currentTS;\n            nextPrice.ok = false;\n            emit LogSetPrice(msg.sender, currentPrice.val, true);\n        } else {\n            nextPrice.val = _nextPrice;\n            nextPrice.ok = true;\n            lastUpdateTSNext = currentTS;\n            emit LogSetPrice(msg.sender, nextPrice.val, false);\n        }\n    }\n\n    function peekPrice() external returns (bytes32, bool) {\n        if(block.timestamp < lastUpdateTSCurrent + timeDelay){\n            return (bytes32(uint256(currentPrice.val)), currentPrice.ok == true);\n        } else {\n            if(lastUpdateTSCurrent == lastUpdateTSNext) {\n                return (bytes32(uint256(currentPrice.val)), currentPrice.ok == true);\n            }\n            currentPrice.val = nextPrice.val;\n            currentPrice.ok = nextPrice.ok;\n            lastUpdateTSCurrent = lastUpdateTSNext;\n            return (bytes32(uint256(currentPrice.val)), currentPrice.ok == true);\n        }\n    }\n\n    // this is just testing price delay.\n    // for production, price would be fetched from DEX and saved with 15 min time delay\n}",
  "sourcePath": "/Users/sangjun.lee/Sangjun/fathom-stablecoin-smart-contracts/contracts/8.17/price-feeders/DelaySimplePriceFeed.sol",
  "compiler": {
    "name": "solc",
    "version": "0.8.17+commit.8df45f5f.Emscripten.clang"
  },
  "schemaVersion": "3.4.10",
  "updatedAt": "2022-10-27T10:35:28.552Z",
  "devdoc": {
    "kind": "dev",
    "methods": {},
    "version": 1
  },
  "userdoc": {
    "kind": "user",
    "methods": {},
    "version": 1
  }
}