{
  "contractName": "DelayFathomOraclePriceFeed",
  "abi": [
    {
      "anonymous": false,
      "inputs": [
        {
          "indexed": false,
          "internalType": "uint8",
          "name": "version",
          "type": "uint8"
        }
      ],
      "name": "Initialized",
      "type": "event"
    },
    {
      "anonymous": false,
      "inputs": [
        {
          "indexed": true,
          "internalType": "address",
          "name": "_caller",
          "type": "address"
        },
        {
          "indexed": false,
          "internalType": "uint256",
          "name": "_second",
          "type": "uint256"
        }
      ],
      "name": "LogSetPriceLife",
      "type": "event"
    },
    {
      "anonymous": false,
      "inputs": [
        {
          "indexed": true,
          "internalType": "address",
          "name": "_caller",
          "type": "address"
        },
        {
          "indexed": false,
          "internalType": "uint256",
          "name": "_second",
          "type": "uint256"
        }
      ],
      "name": "LogSetTimeDelay",
      "type": "event"
    },
    {
      "anonymous": false,
      "inputs": [
        {
          "indexed": false,
          "internalType": "address",
          "name": "account",
          "type": "address"
        }
      ],
      "name": "Paused",
      "type": "event"
    },
    {
      "anonymous": false,
      "inputs": [
        {
          "indexed": false,
          "internalType": "address",
          "name": "account",
          "type": "address"
        }
      ],
      "name": "Unpaused",
      "type": "event"
    },
    {
      "inputs": [],
      "name": "accessControlConfig",
      "outputs": [
        {
          "internalType": "contract IAccessControlConfig",
          "name": "",
          "type": "address"
        }
      ],
      "stateMutability": "view",
      "type": "function"
    },
    {
      "inputs": [],
      "name": "currentPrice",
      "outputs": [
        {
          "internalType": "uint256",
          "name": "price",
          "type": "uint256"
        },
        {
          "internalType": "uint256",
          "name": "lastUpdateTS",
          "type": "uint256"
        }
      ],
      "stateMutability": "view",
      "type": "function"
    },
    {
      "inputs": [],
      "name": "fathomOracle",
      "outputs": [
        {
          "internalType": "contract IFathomOracle",
          "name": "",
          "type": "address"
        }
      ],
      "stateMutability": "view",
      "type": "function"
    },
    {
      "inputs": [],
      "name": "paused",
      "outputs": [
        {
          "internalType": "bool",
          "name": "",
          "type": "bool"
        }
      ],
      "stateMutability": "view",
      "type": "function"
    },
    {
      "inputs": [],
      "name": "priceLife",
      "outputs": [
        {
          "internalType": "uint256",
          "name": "",
          "type": "uint256"
        }
      ],
      "stateMutability": "view",
      "type": "function"
    },
    {
      "inputs": [],
      "name": "timeDelay",
      "outputs": [
        {
          "internalType": "uint256",
          "name": "",
          "type": "uint256"
        }
      ],
      "stateMutability": "view",
      "type": "function"
    },
    {
      "inputs": [],
      "name": "token0",
      "outputs": [
        {
          "internalType": "address",
          "name": "",
          "type": "address"
        }
      ],
      "stateMutability": "view",
      "type": "function"
    },
    {
      "inputs": [],
      "name": "token1",
      "outputs": [
        {
          "internalType": "address",
          "name": "",
          "type": "address"
        }
      ],
      "stateMutability": "view",
      "type": "function"
    },
    {
      "inputs": [
        {
          "internalType": "address",
          "name": "_fathomOracle",
          "type": "address"
        },
        {
          "internalType": "address",
          "name": "_token0",
          "type": "address"
        },
        {
          "internalType": "address",
          "name": "_token1",
          "type": "address"
        },
        {
          "internalType": "address",
          "name": "_accessControlConfig",
          "type": "address"
        }
      ],
      "name": "initialize",
      "outputs": [],
      "stateMutability": "nonpayable",
      "type": "function"
    },
    {
      "inputs": [
        {
          "internalType": "uint256",
          "name": "_second",
          "type": "uint256"
        }
      ],
      "name": "setPriceLife",
      "outputs": [],
      "stateMutability": "nonpayable",
      "type": "function"
    },
    {
      "inputs": [
        {
          "internalType": "uint256",
          "name": "_second",
          "type": "uint256"
        }
      ],
      "name": "setTimeDelay",
      "outputs": [],
      "stateMutability": "nonpayable",
      "type": "function"
    },
    {
      "inputs": [],
      "name": "pause",
      "outputs": [],
      "stateMutability": "nonpayable",
      "type": "function"
    },
    {
      "inputs": [],
      "name": "unpause",
      "outputs": [],
      "stateMutability": "nonpayable",
      "type": "function"
    },
    {
      "inputs": [],
      "name": "readPrice",
      "outputs": [
        {
          "internalType": "bytes32",
          "name": "",
          "type": "bytes32"
        }
      ],
      "stateMutability": "view",
      "type": "function"
    },
    {
      "inputs": [],
      "name": "peekPrice",
      "outputs": [
        {
          "internalType": "bytes32",
          "name": "",
          "type": "bytes32"
        },
        {
          "internalType": "bool",
          "name": "",
          "type": "bool"
        }
      ],
      "stateMutability": "nonpayable",
      "type": "function"
    }
  ],
  "bytecode": "0x608060405234801561001057600080fd5b50610fdd806100206000396000f3fe608060405234801561001057600080fd5b50600436106100f55760003560e01c80637e91400f11610097578063c9dec36111610066578063c9dec361146101ea578063d21220a7146101f3578063ef36ee4714610206578063f8c8765e1461021957600080fd5b80637e91400f146101a45780638456cb59146101ac5780639d1b464a146101b4578063c8cc243f146101d757600080fd5b806339af6ba9116100d357806339af6ba91461015a5780633f4ba83a1461016f5780635af639c3146101775780635c975abb1461018e57600080fd5b80630831bf42146100fa5780630dfe16811461012a578063140d27201461013d575b600080fd5b60685461010d906001600160a01b031681565b6040516001600160a01b0390911681526020015b60405180910390f35b606a5461010d906001600160a01b031681565b61014561022c565b60408051928352901515602083015201610121565b61016d610168366004610e31565b610301565b005b61016d6104c6565b610180606c5481565b604051908152602001610121565b60335460ff166040519015158152602001610121565b606554610180565b61016d6106d4565b6065546066546101c2919082565b60408051928352602083019190915201610121565b60695461010d906001600160a01b031681565b61018060675481565b606b5461010d906001600160a01b031681565b61016d610214366004610e31565b6108e0565b61016d610227366004610e66565b610a99565b6000806067546065600101546102429190610ed0565b4210156102605760655460665461025890610c78565b915091509091565b606854606a54606b54604051635620c32d60e11b81526001600160a01b03928316600482015290821660248201526000928392169063ac41865a906044016040805180830381865afa1580156102ba573d6000803e3d6000fd5b505050506040513d601f19601f820116820180604052508101906102de9190610ee3565b606582905560668190559092509050816102f782610c78565b9350935050509091565b6069546040805163e58378bb60e01b815290516001600160a01b03909216916391d1485491839163e58378bb916004808201926020929091908290030181865afa158015610353573d6000803e3d6000fd5b505050506040513d601f19601f820116820180604052508101906103779190610f07565b6040516001600160e01b031960e084901b1681526004810191909152336024820152604401602060405180830381865afa1580156103b9573d6000803e3d6000fd5b505050506040513d601f19601f820116820180604052508101906103dd9190610f20565b61041b5760405162461bcd60e51b815260206004820152600a602482015269216f776e6572526f6c6560b01b60448201526064015b60405180910390fd5b61038481101580156104305750620151808111155b6104885760405162461bcd60e51b8152602060048201526024808201527f466174686f6d4f7261636c655072696365466565642f6261642d64656c61792d60448201526374696d6560e01b6064820152608401610412565b606781905560405181815233907f8c7220e16b36c16980047cfd2faf359f5a489e40edbb55fc4818907c9dde734a906020015b60405180910390a250565b6069546040805163e58378bb60e01b815290516001600160a01b03909216916391d1485491839163e58378bb916004808201926020929091908290030181865afa158015610518573d6000803e3d6000fd5b505050506040513d601f19601f8201168201806040525081019061053c9190610f07565b6040516001600160e01b031960e084901b1681526004810191909152336024820152604401602060405180830381865afa15801561057e573d6000803e3d6000fd5b505050506040513d601f19601f820116820180604052508101906105a29190610f20565b80610684575060695460408051635a9b40c560e11b815290516001600160a01b03909216916391d1485491839163b536818a916004808201926020929091908290030181865afa1580156105fa573d6000803e3d6000fd5b505050506040513d601f19601f8201168201806040525081019061061e9190610f07565b6040516001600160e01b031960e084901b1681526004810191909152336024820152604401602060405180830381865afa158015610660573d6000803e3d6000fd5b505050506040513d601f19601f820116820180604052508101906106849190610f20565b6106ca5760405162461bcd60e51b815260206004820152601760248201527621286f776e6572526f6c65206f7220676f76526f6c652960481b6044820152606401610412565b6106d2610c98565b565b6069546040805163e58378bb60e01b815290516001600160a01b03909216916391d1485491839163e58378bb916004808201926020929091908290030181865afa158015610726573d6000803e3d6000fd5b505050506040513d601f19601f8201168201806040525081019061074a9190610f07565b6040516001600160e01b031960e084901b1681526004810191909152336024820152604401602060405180830381865afa15801561078c573d6000803e3d6000fd5b505050506040513d601f19601f820116820180604052508101906107b09190610f20565b80610892575060695460408051635a9b40c560e11b815290516001600160a01b03909216916391d1485491839163b536818a916004808201926020929091908290030181865afa158015610808573d6000803e3d6000fd5b505050506040513d601f19601f8201168201806040525081019061082c9190610f07565b6040516001600160e01b031960e084901b1681526004810191909152336024820152604401602060405180830381865afa15801561086e573d6000803e3d6000fd5b505050506040513d601f19601f820116820180604052508101906108929190610f20565b6108d85760405162461bcd60e51b815260206004820152601760248201527621286f776e6572526f6c65206f7220676f76526f6c652960481b6044820152606401610412565b6106d2610cea565b6069546040805163e58378bb60e01b815290516001600160a01b03909216916391d1485491839163e58378bb916004808201926020929091908290030181865afa158015610932573d6000803e3d6000fd5b505050506040513d601f19601f820116820180604052508101906109569190610f07565b6040516001600160e01b031960e084901b1681526004810191909152336024820152604401602060405180830381865afa158015610998573d6000803e3d6000fd5b505050506040513d601f19601f820116820180604052508101906109bc9190610f20565b6109f55760405162461bcd60e51b815260206004820152600a602482015269216f776e6572526f6c6560b01b6044820152606401610412565b610e108110158015610a0a5750620151808111155b610a625760405162461bcd60e51b8152602060048201526024808201527f466174686f6d4f7261636c655072696365466565642f6261642d70726963652d6044820152636c69666560e01b6064820152608401610412565b606c81905560405181815233907f472c5e14bb804bd7b201c5c27f2ea820980b37ef7611806e7b3f6db6758f32e0906020016104bb565b600054610100900460ff1615808015610ab95750600054600160ff909116105b80610ad35750303b158015610ad3575060005460ff166001145b610b365760405162461bcd60e51b815260206004820152602e60248201527f496e697469616c697a61626c653a20636f6e747261637420697320616c72656160448201526d191e481a5b9a5d1a585b1a5e995960921b6064820152608401610412565b6000805460ff191660011790558015610b59576000805461ff0019166101001790555b610b61610d27565b606980546001600160a01b038085166001600160a01b03199283161790925560688054888416921691909117905583811690851603610bf45760405162461bcd60e51b815260206004820152602960248201527f466174686f6d4f7261636c655072696365466565642f77726f6e672d746f6b656044820152686e302d746f6b656e3160b81b6064820152608401610412565b606a80546001600160a01b038087166001600160a01b031992831617909255606b80549286169290911691909117905562015180606c558015610c71576000805461ff0019169055604051600181527f7f26b83ff96e1f2b6a682f133852f6798a09c465da95921460cefb38474024989060200160405180910390a15b5050505050565b6000610c8382610d56565b8015610c92575060335460ff16155b92915050565b610ca0610d6f565b6033805460ff191690557f5db9ee0a495bf2e6ff9c91a7834c1ba4fdd244a5e8aa4e537bd38aeae4b073aa335b6040516001600160a01b03909116815260200160405180910390a1565b610cf2610db8565b6033805460ff191660011790557f62e78cea01bee320cd4e420270b5ea74000d11b0c9f74754ebdbfc544b05a258610ccd3390565b600054610100900460ff16610d4e5760405162461bcd60e51b815260040161041290610f49565b6106d2610dfe565b6000606c5442610d669190610f94565b90911015919050565b60335460ff166106d25760405162461bcd60e51b815260206004820152601460248201527314185d5cd8589b194e881b9bdd081c185d5cd95960621b6044820152606401610412565b60335460ff16156106d25760405162461bcd60e51b815260206004820152601060248201526f14185d5cd8589b194e881c185d5cd95960821b6044820152606401610412565b600054610100900460ff16610e255760405162461bcd60e51b815260040161041290610f49565b6033805460ff19169055565b600060208284031215610e4357600080fd5b5035919050565b80356001600160a01b0381168114610e6157600080fd5b919050565b60008060008060808587031215610e7c57600080fd5b610e8585610e4a565b9350610e9360208601610e4a565b9250610ea160408601610e4a565b9150610eaf60608601610e4a565b905092959194509250565b634e487b7160e01b600052601160045260246000fd5b80820180821115610c9257610c92610eba565b60008060408385031215610ef657600080fd5b505080516020909101519092909150565b600060208284031215610f1957600080fd5b5051919050565b600060208284031215610f3257600080fd5b81518015158114610f4257600080fd5b9392505050565b6020808252602b908201527f496e697469616c697a61626c653a20636f6e7472616374206973206e6f74206960408201526a6e697469616c697a696e6760a81b606082015260800190565b81810381811115610c9257610c92610eba56fea26469706673582212204d32a739528c554a9e48a7fa1aeeb8df949194b90aba3c58eca7a076739e5afc64736f6c63430008110033",
  "immutableReferences": {},
  "source": "// SPDX-License-Identifier: AGPL-3.0-or-later\n\npragma solidity 0.8.17;\n\nimport \"@openzeppelin/contracts-upgradeable/security/PausableUpgradeable.sol\";\n\nimport \"../interfaces/IPriceFeed.sol\";\nimport \"../interfaces/IFathomOracle.sol\";\nimport \"../interfaces/IAccessControlConfig.sol\";\n\ncontract DelayFathomOraclePriceFeed is PausableUpgradeable, IPriceFeed {\n\n  struct Feed {\n    uint256 price;\n    uint256 lastUpdateTS;\n  }\n\n  Feed public currentPrice;\n  //need to make timeDelaySetter\n  uint256 public timeDelay;\n\n  IFathomOracle public fathomOracle;\n  IAccessControlConfig public accessControlConfig;\n  address public token0;\n  address public token1;\n  uint256 public priceLife; // [seconds] how old the price is considered stale, default 1 day\n\n  // --- Init ---\n  function initialize(\n    address _fathomOracle,\n    address _token0,\n    address _token1,\n    address _accessControlConfig\n  ) external initializer {\n    PausableUpgradeable.__Pausable_init();\n\n    accessControlConfig = IAccessControlConfig(_accessControlConfig);\n\n    fathomOracle = IFathomOracle(_fathomOracle);\n    require(_token0 != _token1, \"FathomOraclePriceFeed/wrong-token0-token1\");\n    token0 = _token0;\n    token1 = _token1;\n    priceLife = 1 days;\n  }\n\n  modifier onlyOwner() {\n    require(accessControlConfig.hasRole(accessControlConfig.OWNER_ROLE(), msg.sender), \"!ownerRole\");\n    _;\n  }\n\n  modifier onlyOwnerOrGov() {\n    require(\n      accessControlConfig.hasRole(accessControlConfig.OWNER_ROLE(), msg.sender) ||\n        accessControlConfig.hasRole(accessControlConfig.GOV_ROLE(), msg.sender),\n      \"!(ownerRole or govRole)\"\n    );\n    _;\n  }\n\n  event LogSetPriceLife(address indexed _caller, uint256 _second);\n  event LogSetTimeDelay(address indexed _caller, uint256 _second);\n\n  /// @dev access: OWNER_ROLE\n  function setPriceLife(uint256 _second) external onlyOwner \n  {\n    require(_second >= 1 hours && _second <= 1 days, \"FathomOraclePriceFeed/bad-price-life\");\n    priceLife = _second;\n    emit LogSetPriceLife(msg.sender, _second);\n  }\n\n  function setTimeDelay(uint256 _second) external  onlyOwner {\n    require(_second >= 15 minutes && _second <= 1 days, \"FathomOraclePriceFeed/bad-delay-time\");\n    timeDelay = _second;\n    emit LogSetTimeDelay(msg.sender, _second);\n  }\n\n  /// @dev access: OWNER_ROLE, GOV_ROLE\n  function pause() external onlyOwnerOrGov {\n    _pause();\n  }\n\n  /// @dev access: OWNER_ROLE, GOV_ROLE\n  function unpause() external onlyOwnerOrGov {\n    _unpause();\n  }\n\n  function readPrice() external view override returns (bytes32) {\n    (uint256 _price) = currentPrice.price;\n    return bytes32(_price);\n  }\n\n  function peekPrice() external override returns (bytes32, bool) {\n    // [wad], [seconds]\n    //routines\n    //fetch Price from fathomOracle and update currentPrice\n    //if block.timestamp < currentPrice.lastUpdate + timeDelay\n    //does not update currentPrice\n    //else\n    //update currentPrice and return it.\n    if (block.timestamp < currentPrice.lastUpdateTS + timeDelay) {\n        return (bytes32(currentPrice.price), _isPriceOk(currentPrice.lastUpdateTS));\n    } else {\n        (uint256 _price, uint256 _lastUpdate) = fathomOracle.getPrice(token0, token1);\n        currentPrice.price = _price;\n        currentPrice.lastUpdateTS = _lastUpdate;\n        return (bytes32(currentPrice.price), _isPriceOk(currentPrice.lastUpdateTS));\n    }\n\n  }\n\n  function _isPriceFresh(uint256 _lastUpdate) internal view returns (bool) {\n    // solhint-disable not-rely-on-time\n    return _lastUpdate >= block.timestamp - priceLife;\n  }\n\n  function _isPriceOk(uint256 _lastUpdate) internal view returns (bool) {\n    return _isPriceFresh(_lastUpdate) && !paused();\n  }\n}\n",
  "sourcePath": "/Users/sangjun.lee/Sangjun/fathom-stablecoin-smart-contracts/contracts/8.17/price-feeders/DelayFathomOraclePriceFeed.sol",
  "compiler": {
    "name": "solc",
    "version": "0.8.17+commit.8df45f5f.Emscripten.clang"
  },
  "schemaVersion": "3.4.10",
  "updatedAt": "2022-10-28T11:53:17.793Z",
  "devdoc": {
    "kind": "dev",
    "methods": {
      "pause()": {
        "details": "access: OWNER_ROLE, GOV_ROLE"
      },
      "paused()": {
        "details": "Returns true if the contract is paused, and false otherwise."
      },
      "setPriceLife(uint256)": {
        "details": "access: OWNER_ROLE"
      },
      "unpause()": {
        "details": "access: OWNER_ROLE, GOV_ROLE"
      }
    },
    "version": 1
  },
  "userdoc": {
    "kind": "user",
    "methods": {},
    "version": 1
  }
}