{
  "contractName": "DexPriceOracle",
  "abi": [
    {
      "anonymous": false,
      "inputs": [
        {
          "indexed": false,
          "internalType": "uint8",
          "name": "version",
          "type": "uint8"
        }
      ],
      "name": "Initialized",
      "type": "event"
    },
    {
      "inputs": [],
      "name": "dexFactory",
      "outputs": [
        {
          "internalType": "address",
          "name": "",
          "type": "address"
        }
      ],
      "stateMutability": "view",
      "type": "function"
    },
    {
      "inputs": [
        {
          "internalType": "address",
          "name": "_dexFactory",
          "type": "address"
        }
      ],
      "name": "initialize",
      "outputs": [],
      "stateMutability": "nonpayable",
      "type": "function"
    },
    {
      "inputs": [
        {
          "internalType": "address",
          "name": "token0",
          "type": "address"
        },
        {
          "internalType": "address",
          "name": "token1",
          "type": "address"
        }
      ],
      "name": "getPrice",
      "outputs": [
        {
          "internalType": "uint256",
          "name": "",
          "type": "uint256"
        },
        {
          "internalType": "uint256",
          "name": "",
          "type": "uint256"
        }
      ],
      "stateMutability": "view",
      "type": "function"
    }
  ],
  "bytecode": "0x608060405234801561001057600080fd5b50610688806100206000396000f3fe608060405234801561001057600080fd5b50600436106100415760003560e01c8063ac41865a14610046578063b8d8fbb414610073578063c4d66de8146100a4575b600080fd5b610059610054366004610562565b6100b9565b604080519283526020830191909152015b60405180910390f35b60005461008c906201000090046001600160a01b031681565b6040516001600160a01b03909116815260200161006a565b6100b76100b236600461059b565b61014e565b005b600080826001600160a01b0316846001600160a01b0316036100f15750670de0b6b3a7640000905067ffffffffffffffff4216610147565b600080548190610111906201000090046001600160a01b0316878761027f565b909250905060006101348261012e85670de0b6b3a76400006103ba565b906103cf565b94505067ffffffffffffffff4216925050505b9250929050565b600054610100900460ff161580801561016e5750600054600160ff909116105b806101885750303b158015610188575060005460ff166001145b6101f05760405162461bcd60e51b815260206004820152602e60248201527f496e697469616c697a61626c653a20636f6e747261637420697320616c72656160448201526d191e481a5b9a5d1a585b1a5e995960921b60648201526084015b60405180910390fd5b6000805460ff191660011790558015610213576000805461ff0019166101001790555b6000805462010000600160b01b031916620100006001600160a01b03851602179055801561027b576000805461ff0019169055604051600181527f7f26b83ff96e1f2b6a682f133852f6798a09c465da95921460cefb38474024989060200160405180910390a15b5050565b600080600061028e85856103db565b509050600061029e8787876104cc565b60408051600481526024810182526020810180516001600160e01b0316630240bc6b60e21b179052905191925060009182916001600160a01b038516916102e591906105bf565b600060405180830381855afa9150503d8060008114610320576040519150601f19603f3d011682016040523d82523d6000602084013e610325565b606091505b5091509150816103775760405162461bcd60e51b815260206004820152601760248201527f67657452657365727665732063616c6c206661696c656400000000000000000060448201526064016101e7565b604051818152603f19810151605f1990910151906001600160a01b038a8116908716146103a55780826103a8565b81815b909c909b509950505050505050505050565b60006103c682846105ee565b90505b92915050565b60006103c68284610613565b600080826001600160a01b0316846001600160a01b03160361044e5760405162461bcd60e51b815260206004820152602660248201527f466174686f6d537761704c6962726172793a204944454e544943414c5f41444460448201526552455353455360d01b60648201526084016101e7565b826001600160a01b0316846001600160a01b03161061046e578284610471565b83835b90925090506001600160a01b0382166101475760405162461bcd60e51b815260206004820152601f60248201527f466174686f6d537761704c6962726172793a205a45524f5f414444524553530060448201526064016101e7565b60405163e6a4390560e01b81526001600160a01b03838116600483015282811660248301526000919085169063e6a4390590604401602060405180830381865afa15801561051e573d6000803e3d6000fd5b505050506040513d601f19601f820116820180604052508101906105429190610635565b949350505050565b6001600160a01b038116811461055f57600080fd5b50565b6000806040838503121561057557600080fd5b82356105808161054a565b915060208301356105908161054a565b809150509250929050565b6000602082840312156105ad57600080fd5b81356105b88161054a565b9392505050565b6000825160005b818110156105e057602081860181015185830152016105c6565b506000920191825250919050565b80820281158282048414176103c957634e487b7160e01b600052601160045260246000fd5b60008261063057634e487b7160e01b600052601260045260246000fd5b500490565b60006020828403121561064757600080fd5b81516105b88161054a56fea264697066735822122008eb97e09cfb9f6c186712f1d4a0a51fbbd5e4d67da4a0ae7819def0b045f95a64736f6c63430008110033",
  "immutableReferences": {},
  "source": "// SPDX-License-Identifier: AGPL-3.0-or-later\n\npragma solidity 0.8.17;\n\nimport \"@openzeppelin/contracts-upgradeable/proxy/utils/Initializable.sol\";\nimport \"@openzeppelin/contracts-upgradeable/utils/math/SafeMathUpgradeable.sol\";\n\nimport \"./lib/FathomSwapLibrary.sol\";\nimport \"../interfaces/IFathomDEXOracle.sol\";\n\ncontract DexPriceOracle is Initializable, IFathomDEXOracle {\n  using SafeMathUpgradeable for uint256;\n  address public dexFactory;\n\n  function initialize(address _dexFactory) external initializer {\n    dexFactory = _dexFactory;\n  }\n\n  /// @dev Return the wad price of token0/token1, multiplied by 1e18\n  /// NOTE: (if you have 1 token0 how much you can sell it for token1)\n  function getPrice(address token0, address token1) external view override returns (uint256, uint256) {\n    if (token0 == token1) return (1e18, uint64(block.timestamp));\n    (uint256 r0, uint256 r1) = FathomSwapLibrary.getReserves(dexFactory, token0, token1);\n    uint256 price = r0.mul(1e18).div(r1);\n    return (price, uint64(block.timestamp));\n  }\n}\n",
  "sourcePath": "/Users/sangjun.lee/Sangjun/fathom-stablecoin-smart-contracts/contracts/8.17/price-oracles/DexPriceOracle.sol",
  "compiler": {
    "name": "solc",
    "version": "0.8.17+commit.8df45f5f.Emscripten.clang"
  },
  "schemaVersion": "3.4.10",
  "updatedAt": "2022-11-24T09:45:49.237Z",
  "devdoc": {
    "kind": "dev",
    "methods": {
      "getPrice(address,address)": {
        "details": "Return the wad price of token0/token1, multiplied by 1e18 NOTE: (if you have 1 token0 how much you can sell it for token1)"
      }
    },
    "version": 1
  },
  "userdoc": {
    "kind": "user",
    "methods": {},
    "version": 1
  }
}