{
    "contractName": "FairLaunch",
    "abi": [
        {
            "inputs": [
                {
                    "internalType": "contract FathomToken",
                    "name": "_fathom",
                    "type": "address"
                },
                {
                    "internalType": "address",
                    "name": "_devaddr",
                    "type": "address"
                },
                {
                    "internalType": "uint256",
                    "name": "_fathomPerBlock",
                    "type": "uint256"
                },
                {
                    "internalType": "uint256",
                    "name": "_startBlock",
                    "type": "uint256"
                },
                {
                    "internalType": "uint256",
                    "name": "_bonusLockupBps",
                    "type": "uint256"
                },
                {
                    "internalType": "uint256",
                    "name": "_bonusEndBlock",
                    "type": "uint256"
                }
            ],
            "stateMutability": "nonpayable",
            "type": "constructor"
        },
        {
            "anonymous": false,
            "inputs": [
                {
                    "indexed": true,
                    "internalType": "address",
                    "name": "user",
                    "type": "address"
                },
                {
                    "indexed": true,
                    "internalType": "uint256",
                    "name": "pid",
                    "type": "uint256"
                },
                {
                    "indexed": false,
                    "internalType": "uint256",
                    "name": "amount",
                    "type": "uint256"
                }
            ],
            "name": "Deposit",
            "type": "event"
        },
        {
            "anonymous": false,
            "inputs": [
                {
                    "indexed": true,
                    "internalType": "address",
                    "name": "user",
                    "type": "address"
                },
                {
                    "indexed": true,
                    "internalType": "uint256",
                    "name": "pid",
                    "type": "uint256"
                },
                {
                    "indexed": false,
                    "internalType": "uint256",
                    "name": "amount",
                    "type": "uint256"
                }
            ],
            "name": "EmergencyWithdraw",
            "type": "event"
        },
        {
            "anonymous": false,
            "inputs": [
                {
                    "indexed": true,
                    "internalType": "address",
                    "name": "previousOwner",
                    "type": "address"
                },
                {
                    "indexed": true,
                    "internalType": "address",
                    "name": "newOwner",
                    "type": "address"
                }
            ],
            "name": "OwnershipTransferred",
            "type": "event"
        },
        {
            "anonymous": false,
            "inputs": [
                {
                    "indexed": true,
                    "internalType": "address",
                    "name": "user",
                    "type": "address"
                },
                {
                    "indexed": true,
                    "internalType": "uint256",
                    "name": "pid",
                    "type": "uint256"
                },
                {
                    "indexed": false,
                    "internalType": "uint256",
                    "name": "amount",
                    "type": "uint256"
                }
            ],
            "name": "Withdraw",
            "type": "event"
        },
        {
            "inputs": [],
            "name": "bonusEndBlock",
            "outputs": [
                {
                    "internalType": "uint256",
                    "name": "",
                    "type": "uint256"
                }
            ],
            "stateMutability": "view",
            "type": "function"
        },
        {
            "inputs": [],
            "name": "bonusLockUpBps",
            "outputs": [
                {
                    "internalType": "uint256",
                    "name": "",
                    "type": "uint256"
                }
            ],
            "stateMutability": "view",
            "type": "function"
        },
        {
            "inputs": [],
            "name": "bonusMultiplier",
            "outputs": [
                {
                    "internalType": "uint256",
                    "name": "",
                    "type": "uint256"
                }
            ],
            "stateMutability": "view",
            "type": "function"
        },
        {
            "inputs": [],
            "name": "devaddr",
            "outputs": [
                {
                    "internalType": "address",
                    "name": "",
                    "type": "address"
                }
            ],
            "stateMutability": "view",
            "type": "function"
        },
        {
            "inputs": [],
            "name": "fathom",
            "outputs": [
                {
                    "internalType": "contract FathomToken",
                    "name": "",
                    "type": "address"
                }
            ],
            "stateMutability": "view",
            "type": "function"
        },
        {
            "inputs": [],
            "name": "fathomPerBlock",
            "outputs": [
                {
                    "internalType": "uint256",
                    "name": "",
                    "type": "uint256"
                }
            ],
            "stateMutability": "view",
            "type": "function"
        },
        {
            "inputs": [],
            "name": "owner",
            "outputs": [
                {
                    "internalType": "address",
                    "name": "",
                    "type": "address"
                }
            ],
            "stateMutability": "view",
            "type": "function"
        },
        {
            "inputs": [
                {
                    "internalType": "uint256",
                    "name": "",
                    "type": "uint256"
                }
            ],
            "name": "poolInfo",
            "outputs": [
                {
                    "internalType": "address",
                    "name": "stakeToken",
                    "type": "address"
                },
                {
                    "internalType": "uint256",
                    "name": "allocPoint",
                    "type": "uint256"
                },
                {
                    "internalType": "uint256",
                    "name": "lastRewardBlock",
                    "type": "uint256"
                },
                {
                    "internalType": "uint256",
                    "name": "accFathomPerShare",
                    "type": "uint256"
                },
                {
                    "internalType": "uint256",
                    "name": "accFathomPerShareTilBonusEnd",
                    "type": "uint256"
                }
            ],
            "stateMutability": "view",
            "type": "function"
        },
        {
            "inputs": [],
            "name": "renounceOwnership",
            "outputs": [],
            "stateMutability": "nonpayable",
            "type": "function"
        },
        {
            "inputs": [],
            "name": "startBlock",
            "outputs": [
                {
                    "internalType": "uint256",
                    "name": "",
                    "type": "uint256"
                }
            ],
            "stateMutability": "view",
            "type": "function"
        },
        {
            "inputs": [],
            "name": "totalAllocPoint",
            "outputs": [
                {
                    "internalType": "uint256",
                    "name": "",
                    "type": "uint256"
                }
            ],
            "stateMutability": "view",
            "type": "function"
        },
        {
            "inputs": [
                {
                    "internalType": "address",
                    "name": "newOwner",
                    "type": "address"
                }
            ],
            "name": "transferOwnership",
            "outputs": [],
            "stateMutability": "nonpayable",
            "type": "function"
        },
        {
            "inputs": [
                {
                    "internalType": "uint256",
                    "name": "",
                    "type": "uint256"
                },
                {
                    "internalType": "address",
                    "name": "",
                    "type": "address"
                }
            ],
            "name": "userInfo",
            "outputs": [
                {
                    "internalType": "uint256",
                    "name": "amount",
                    "type": "uint256"
                },
                {
                    "internalType": "uint256",
                    "name": "rewardDebt",
                    "type": "uint256"
                },
                {
                    "internalType": "uint256",
                    "name": "bonusDebt",
                    "type": "uint256"
                },
                {
                    "internalType": "address",
                    "name": "fundedBy",
                    "type": "address"
                }
            ],
            "stateMutability": "view",
            "type": "function"
        },
        {
            "inputs": [
                {
                    "internalType": "address",
                    "name": "_devaddr",
                    "type": "address"
                }
            ],
            "name": "setDev",
            "outputs": [],
            "stateMutability": "nonpayable",
            "type": "function"
        },
        {
            "inputs": [
                {
                    "internalType": "uint256",
                    "name": "_fathomPerBlock",
                    "type": "uint256"
                }
            ],
            "name": "setFathomPerBlock",
            "outputs": [],
            "stateMutability": "nonpayable",
            "type": "function"
        },
        {
            "inputs": [
                {
                    "internalType": "uint256",
                    "name": "_bonusMultiplier",
                    "type": "uint256"
                },
                {
                    "internalType": "uint256",
                    "name": "_bonusEndBlock",
                    "type": "uint256"
                },
                {
                    "internalType": "uint256",
                    "name": "_bonusLockUpBps",
                    "type": "uint256"
                }
            ],
            "name": "setBonus",
            "outputs": [],
            "stateMutability": "nonpayable",
            "type": "function"
        },
        {
            "inputs": [
                {
                    "internalType": "uint256",
                    "name": "_allocPoint",
                    "type": "uint256"
                },
                {
                    "internalType": "address",
                    "name": "_stakeToken",
                    "type": "address"
                },
                {
                    "internalType": "bool",
                    "name": "_withUpdate",
                    "type": "bool"
                }
            ],
            "name": "addPool",
            "outputs": [],
            "stateMutability": "nonpayable",
            "type": "function"
        },
        {
            "inputs": [
                {
                    "internalType": "uint256",
                    "name": "_pid",
                    "type": "uint256"
                },
                {
                    "internalType": "uint256",
                    "name": "_allocPoint",
                    "type": "uint256"
                },
                {
                    "internalType": "bool",
                    "name": "_withUpdate",
                    "type": "bool"
                }
            ],
            "name": "setPool",
            "outputs": [],
            "stateMutability": "nonpayable",
            "type": "function"
        },
        {
            "inputs": [
                {
                    "internalType": "address",
                    "name": "_stakeToken",
                    "type": "address"
                }
            ],
            "name": "isDuplicatedPool",
            "outputs": [
                {
                    "internalType": "bool",
                    "name": "",
                    "type": "bool"
                }
            ],
            "stateMutability": "view",
            "type": "function"
        },
        {
            "inputs": [],
            "name": "poolLength",
            "outputs": [
                {
                    "internalType": "uint256",
                    "name": "",
                    "type": "uint256"
                }
            ],
            "stateMutability": "view",
            "type": "function"
        },
        {
            "inputs": [
                {
                    "internalType": "address",
                    "name": "_to",
                    "type": "address"
                },
                {
                    "internalType": "uint256",
                    "name": "_amount",
                    "type": "uint256"
                }
            ],
            "name": "manualMint",
            "outputs": [],
            "stateMutability": "nonpayable",
            "type": "function"
        },
        {
            "inputs": [
                {
                    "internalType": "uint256",
                    "name": "_lastRewardBlock",
                    "type": "uint256"
                },
                {
                    "internalType": "uint256",
                    "name": "_currentBlock",
                    "type": "uint256"
                }
            ],
            "name": "getMultiplier",
            "outputs": [
                {
                    "internalType": "uint256",
                    "name": "",
                    "type": "uint256"
                }
            ],
            "stateMutability": "view",
            "type": "function"
        },
        {
            "inputs": [
                {
                    "internalType": "uint256",
                    "name": "_pid",
                    "type": "uint256"
                },
                {
                    "internalType": "address",
                    "name": "_user",
                    "type": "address"
                }
            ],
            "name": "pendingFathom",
            "outputs": [
                {
                    "internalType": "uint256",
                    "name": "",
                    "type": "uint256"
                }
            ],
            "stateMutability": "view",
            "type": "function"
        },
        {
            "inputs": [],
            "name": "massUpdatePools",
            "outputs": [],
            "stateMutability": "nonpayable",
            "type": "function"
        },
        {
            "inputs": [
                {
                    "internalType": "uint256",
                    "name": "_pid",
                    "type": "uint256"
                }
            ],
            "name": "updatePool",
            "outputs": [],
            "stateMutability": "nonpayable",
            "type": "function"
        },
        {
            "inputs": [
                {
                    "internalType": "address",
                    "name": "_for",
                    "type": "address"
                },
                {
                    "internalType": "uint256",
                    "name": "_pid",
                    "type": "uint256"
                },
                {
                    "internalType": "uint256",
                    "name": "_amount",
                    "type": "uint256"
                }
            ],
            "name": "deposit",
            "outputs": [],
            "stateMutability": "nonpayable",
            "type": "function"
        },
        {
            "inputs": [
                {
                    "internalType": "address",
                    "name": "_for",
                    "type": "address"
                },
                {
                    "internalType": "uint256",
                    "name": "_pid",
                    "type": "uint256"
                },
                {
                    "internalType": "uint256",
                    "name": "_amount",
                    "type": "uint256"
                }
            ],
            "name": "withdraw",
            "outputs": [],
            "stateMutability": "nonpayable",
            "type": "function"
        },
        {
            "inputs": [
                {
                    "internalType": "address",
                    "name": "_for",
                    "type": "address"
                },
                {
                    "internalType": "uint256",
                    "name": "_pid",
                    "type": "uint256"
                }
            ],
            "name": "withdrawAll",
            "outputs": [],
            "stateMutability": "nonpayable",
            "type": "function"
        },
        {
            "inputs": [
                {
                    "internalType": "uint256",
                    "name": "_pid",
                    "type": "uint256"
                }
            ],
            "name": "harvest",
            "outputs": [],
            "stateMutability": "nonpayable",
            "type": "function"
        },
        {
            "inputs": [
                {
                    "internalType": "uint256",
                    "name": "_pid",
                    "type": "uint256"
                }
            ],
            "name": "emergencyWithdraw",
            "outputs": [],
            "stateMutability": "nonpayable",
            "type": "function"
        }
    ],
    "bytecode": "0x60806040523480156200001157600080fd5b5060405162002096380380620020968339810160408190526200003491620000fa565b6200003f3362000091565b60006004819055600955600180546001600160a01b039788166001600160a01b0319918216179091556002805496909716951694909417909455600391909155600692909255600555600a556200015d565b600080546001600160a01b038381166001600160a01b0319831681178455604051919092169283917f8be0079c531659141344cd1fd0a4f28419497f9722a3daafe3b4186f6b6457e09190a35050565b6001600160a01b0381168114620000f757600080fd5b50565b60008060008060008060c087890312156200011457600080fd5b86516200012181620000e1565b60208801519096506200013481620000e1565b6040880151606089015160808a015160a0909a0151989b929a5090989097909650945092505050565b611f29806200016d6000396000f3fe608060405234801561001057600080fd5b50600436106101da5760003560e01c80638dbb1e3a11610104578063cbdec1fc116100a2578063ddc6326211610071578063ddc6326214610434578063e4c5ff4614610447578063f2fde38b1461045a578063fa5be8f81461046d57600080fd5b8063cbdec1fc146103f2578063cc6dbc27146103fb578063d477f05f1461040e578063d49e77cd1461042157600080fd5b8063b03df69d116100de578063b03df69d14610396578063b2a795ca146103b9578063b31d9913146103cc578063b5c5f672146103df57600080fd5b80638dbb1e3a1461030857806393f1a40b1461031b578063a8b973a11461038d57600080fd5b806348cd4cb11161017c578063630b5ba11161014b578063630b5ba1146102c0578063715018a6146102c85780637abceffd146102d05780638da5cb5b146102e357600080fd5b806348cd4cb11461027e57806351eb05a6146102875780635312ea8e1461029a57806354ec5a99146102ad57600080fd5b80631526fe27116101b85780631526fe271461021457806317caf6f1146102595780631aed65531461026257806346ca6bea1461026b57600080fd5b8063081e3eda146101df5780630efe6a8b146101f657806313ff18931461020b575b600080fd5b6007545b6040519081526020015b60405180910390f35b610209610204366004611c1f565b610480565b005b6101e360035481565b610227610222366004611c52565b610666565b604080516001600160a01b0390961686526020860194909452928401919091526060830152608082015260a0016101ed565b6101e360095481565b6101e360055481565b610209610279366004611c79565b6106b1565b6101e3600a5481565b610209610295366004611c52565b610738565b6102096102a8366004611c52565b610b40565b6102096102bb366004611c52565b610be2565b610209610bef565b610209610c1a565b6102096102de366004611cb2565b610c2e565b6000546001600160a01b03165b6040516001600160a01b0390911681526020016101ed565b6101e3610316366004611ce7565b610e28565b610364610329366004611d09565b60086020908152600092835260408084209091529082529020805460018201546002830154600390930154919290916001600160a01b031684565b604080519485526020850193909352918301526001600160a01b031660608201526080016101ed565b6101e360045481565b6103a96103a4366004611d35565b610e9d565b60405190151581526020016101ed565b6001546102f0906001600160a01b031681565b6101e36103da366004611d09565b610f0f565b6102096103ed366004611c1f565b61107e565b6101e360065481565b610209610409366004611d50565b61108e565b61020961041c366004611d35565b6110be565b6002546102f0906001600160a01b031681565b610209610442366004611c52565b611126565b610209610455366004611d50565b6111c7565b610209610468366004611d35565b611239565b61020961047b366004611d7a565b6112b2565b60006007838154811061049557610495611da6565b600091825260208083208684526008825260408085206001600160a01b03808b1687529352909320600381015460059093029093019350161561051d5760038101546001600160a01b0316331461051d5760405162461bcd60e51b81526020600482015260076024820152663130b21039b7b360c91b60448201526064015b60405180910390fd5b81546001600160a01b03166105745760405162461bcd60e51b815260206004820152601b60248201527f6465706f7369743a206e6f7420616363657074206465706f73697400000000006044820152606401610514565b61057d84610738565b80541561058e5761058e8585611367565b60038101546001600160a01b03166105b5576003810180546001600160a01b031916331790555b81546105cc906001600160a01b03163330866115b2565b80546105d9908490611dd2565b808255600383015464e8d4a51000916105f29190611de5565b6105fc9190611dfc565b60018201556004820154815464e8d4a510009161061891611de5565b6106229190611dfc565b6002820155604051838152849033907f90890809c654f11d6e72a28fa60149770a0d11ec6c92319d6ceb2bb0a4ea1a15906020015b60405180910390a35050505050565b6007818154811061067657600080fd5b6000918252602090912060059091020180546001820154600283015460038401546004909401546001600160a01b0390931694509092909185565b6106b9611623565b80156106c7576106c7610bef565b81600784815481106106db576106db611da6565b9060005260206000209060050201600101546009546106fa9190611e1e565b6107049190611dd2565b600981905550816007848154811061071e5761071e611da6565b906000526020600020906005020160010181905550505050565b60006007828154811061074d5761074d611da6565b906000526020600020906005020190508060020154431161076c575050565b80546040516370a0823160e01b81523060048201526000916001600160a01b0316906370a0823190602401602060405180830381865afa1580156107b4573d6000803e3d6000fd5b505050506040513d601f19601f820116820180604052508101906107d89190611e31565b9050806000036107ed57504360029091015550565b60006107fd836002015443610e28565b905060006009548460010154600354846108179190611de5565b6108219190611de5565b61082b9190611dfc565b6001546002549192506001600160a01b03908116916340c10f199116610852600a85611dfc565b6040516001600160e01b031960e085901b1681526001600160a01b0390921660048301526024820152604401600060405180830381600087803b15801561089857600080fd5b505af11580156108ac573d6000803e3d6000fd5b50506001546040516340c10f1960e01b8152306004820152602481018590526001600160a01b0390911692506340c10f199150604401600060405180830381600087803b1580156108fc57600080fd5b505af1158015610910573d6000803e3d6000fd5b50505050828164e8d4a510006109269190611de5565b6109309190611dfc565b846003015461093f9190611dd2565b600385015560055443116109f6576001546002546006546001600160a01b039283169263282d3fdf92169061271090610979600a87611dfc565b6109839190611de5565b61098d9190611dfc565b6040516001600160e01b031960e085901b1681526001600160a01b0390921660048301526024820152604401600060405180830381600087803b1580156109d357600080fd5b505af11580156109e7573d6000803e3d6000fd5b50505060038501546004860155505b60055443118015610a0c57506005548460020154105b15610b3057600060095485600101546003546004548860020154600554610a339190611e1e565b610a3d9190611de5565b610a479190611de5565b610a519190611de5565b610a5b9190611dfc565b6001546002546006549293506001600160a01b039182169263282d3fdf929091169061271090610a8c600a87611dfc565b610a969190611de5565b610aa09190611dfc565b6040516001600160e01b031960e085901b1681526001600160a01b0390921660048301526024820152604401600060405180830381600087803b158015610ae657600080fd5b505af1158015610afa573d6000803e3d6000fd5b50505050838164e8d4a51000610b109190611de5565b610b1a9190611dfc565b8560040154610b299190611dd2565b6004860155505b4384600201819055505050505050565b600060078281548110610b5557610b55611da6565b60009182526020808320858452600882526040808520338087529352909320805460059093029093018054909450610b9a926001600160a01b0391909116919061167d565b8054604051908152839033907fbb757047c2b5f3974fe26b7c10f732e7bce710b0952a71082702781e62ae05959060200160405180910390a360008082556001909101555050565b610bea611623565b600355565b60075460005b81811015610c1657610c0681610738565b610c0f81611e4a565b9050610bf5565b5050565b610c22611623565b610c2c60006116ad565b565b610c36611623565b8015610c4457610c44610bef565b6001600160a01b038216610c9a5760405162461bcd60e51b815260206004820152601860248201527f6164643a206e6f74207374616b65546f6b656e206164647200000000000000006044820152606401610514565b610ca382610e9d565b15610ce65760405162461bcd60e51b815260206004820152601360248201527206164643a207374616b65546f6b656e2064757606c1b6044820152606401610514565b6000600a544311610cf957600a54610cfb565b435b905083600954610d0b9190611dd2565b6009556040805160a0810182526001600160a01b039485168152602081019586529081019182526000606082018181526080830182815260078054600181018255935292517fa66cc928b5edb82af9bd49922954155ab7b0942694bea4ce44661d9a8736c688600590930292830180546001600160a01b031916919097161790955594517fa66cc928b5edb82af9bd49922954155ab7b0942694bea4ce44661d9a8736c68986015590517fa66cc928b5edb82af9bd49922954155ab7b0942694bea4ce44661d9a8736c68a85015591517fa66cc928b5edb82af9bd49922954155ab7b0942694bea4ce44661d9a8736c68b84015550517fa66cc928b5edb82af9bd49922954155ab7b0942694bea4ce44661d9a8736c68c90910155565b60006005548211610e5157600454610e408484611e1e565b610e4a9190611de5565b9050610e97565b6005548310610e6457610e4a8383611e1e565b6005546004548390610e768684611e1e565b610e809190611de5565b610e8a9190611dd2565b610e949190611e1e565b90505b92915050565b600754600090815b81811015610f0557836001600160a01b031660078281548110610eca57610eca611da6565b60009182526020909120600590910201546001600160a01b031603610ef3575060019392505050565b80610efd81611e4a565b915050610ea5565b5060009392505050565b60008060078481548110610f2557610f25611da6565b600091825260208083208784526008825260408085206001600160a01b03898116875293528085206005949094029091016003810154815492516370a0823160e01b815230600482015291965093949291909116906370a0823190602401602060405180830381865afa158015610fa0573d6000803e3d6000fd5b505050506040513d601f19601f82011682018060405250810190610fc49190611e31565b9050836002015443118015610fd857508015155b15611046576000610fed856002015443610e28565b905060006009548660010154600354846110079190611de5565b6110119190611de5565b61101b9190611dfc565b90508261102d8264e8d4a51000611de5565b6110379190611dfc565b6110419085611dd2565b935050505b6001830154835464e8d4a510009061105f908590611de5565b6110699190611dfc565b6110739190611e1e565b979650505050505050565b6110898383836116fd565b505050565b60008181526008602090815260408083206001600160a01b0386168452909152902054610c1690839083906116fd565b6002546001600160a01b031633146111045760405162461bcd60e51b81526020600482015260096024820152686465763a207775743f60b81b6044820152606401610514565b600280546001600160a01b0319166001600160a01b0392909216919091179055565b60006007828154811061113b5761113b611da6565b6000918252602080832085845260088252604080852033865290925292206005909102909101915061116c83610738565b6111763384611367565b6003820154815464e8d4a510009161118d91611de5565b6111979190611dfc565b60018201556004820154815464e8d4a51000916111b391611de5565b6111bd9190611dfc565b6002909101555050565b6111cf611623565b600154604051637262ffa360e11b81526001600160a01b038481166004830152602482018490529091169063e4c5ff4690604401600060405180830381600087803b15801561121d57600080fd5b505af1158015611231573d6000803e3d6000fd5b505050505050565b611241611623565b6001600160a01b0381166112a65760405162461bcd60e51b815260206004820152602660248201527f4f776e61626c653a206e6577206f776e657220697320746865207a65726f206160448201526564647265737360d01b6064820152608401610514565b6112af816116ad565b50565b6112ba611623565b4382116113095760405162461bcd60e51b815260206004820152601b60248201527f736574426f6e75733a2062616420626f6e7573456e64426c6f636b00000000006044820152606401610514565b600183116113595760405162461bcd60e51b815260206004820152601d60248201527f736574426f6e75733a2062616420626f6e75734d756c7469706c6965720000006044820152606401610514565b600492909255600555600655565b60006007828154811061137c5761137c611da6565b600091825260208083208584526008825260408085206001600160a01b038916865290925292208054600590920290920192506113f05760405162461bcd60e51b81526020600482015260126024820152711b9bdd1a1a5b99c81d1bc81a185c9d995cdd60721b6044820152606401610514565b6000816001015464e8d4a51000846003015484600001546114119190611de5565b61141b9190611dfc565b6114259190611e1e565b6001546040516370a0823160e01b81523060048201529192506001600160a01b0316906370a0823190602401602060405180830381865afa15801561146e573d6000803e3d6000fd5b505050506040513d601f19601f820116820180604052508101906114929190611e31565b8111156114d95760405162461bcd60e51b8152602060048201526015602482015274777466206e6f7420656e6f75676820666174686f6d60581b6044820152606401610514565b6000826002015464e8d4a51000856004015485600001546114fa9190611de5565b6115049190611dfc565b61150e9190611e1e565b905061151a8683611896565b6001546006546001600160a01b039091169063282d3fdf908890612710906115429086611de5565b61154c9190611dfc565b6040516001600160e01b031960e085901b1681526001600160a01b0390921660048301526024820152604401600060405180830381600087803b15801561159257600080fd5b505af11580156115a6573d6000803e3d6000fd5b50505050505050505050565b6040516001600160a01b038085166024830152831660448201526064810182905261161d9085906323b872dd60e01b906084015b60408051601f198184030181529190526020810180516001600160e01b03166001600160e01b0319909316929092179091526119be565b50505050565b6000546001600160a01b03163314610c2c5760405162461bcd60e51b815260206004820181905260248201527f4f776e61626c653a2063616c6c6572206973206e6f7420746865206f776e65726044820152606401610514565b6040516001600160a01b03831660248201526044810182905261108990849063a9059cbb60e01b906064016115e6565b600080546001600160a01b038381166001600160a01b0319831681178455604051919092169283917f8be0079c531659141344cd1fd0a4f28419497f9722a3daafe3b4186f6b6457e09190a35050565b60006007838154811061171257611712611da6565b600091825260208083208684526008825260408085206001600160a01b03808b16875293529093206003810154600590930290930193501633146117865760405162461bcd60e51b815260206004820152600b60248201526a37b7363c90333ab73232b960a91b6044820152606401610514565b80548311156117cc5760405162461bcd60e51b81526020600482015260126024820152711dda5d1a191c985dce881b9bdd0819dbdbd960721b6044820152606401610514565b6117d584610738565b6117df8585611367565b80546117ec908490611e1e565b808255600383015464e8d4a51000916118059190611de5565b61180f9190611dfc565b60018201556004820154815464e8d4a510009161182b91611de5565b6118359190611dfc565b600282015581546001600160a01b031615611860578154611860906001600160a01b0316338561167d565b8054604051908152849033907ff279e6a1f5e320cca91135676d9cb6e44ca8a08c0b88342bcdb1144f6511b56890602001610657565b6001546040516370a0823160e01b81523060048201526000916001600160a01b0316906370a0823190602401602060405180830381865afa1580156118df573d6000803e3d6000fd5b505050506040513d601f19601f820116820180604052508101906119039190611e31565b9050808211156119855760015460405163a9059cbb60e01b81526001600160a01b038581166004830152602482018490529091169063a9059cbb906044015b6020604051808303816000875af1158015611961573d6000803e3d6000fd5b505050506040513d601f19601f8201168201806040525081019061161d9190611e63565b60015460405163a9059cbb60e01b81526001600160a01b038581166004830152602482018590529091169063a9059cbb90604401611942565b6000611a13826040518060400160405280602081526020017f5361666545524332303a206c6f772d6c6576656c2063616c6c206661696c6564815250856001600160a01b0316611a909092919063ffffffff16565b8051909150156110895780806020019051810190611a319190611e63565b6110895760405162461bcd60e51b815260206004820152602a60248201527f5361666545524332303a204552433230206f7065726174696f6e20646964206e6044820152691bdd081cdd58d8d9595960b21b6064820152608401610514565b6060611a9f8484600085611aa9565b90505b9392505050565b606082471015611b0a5760405162461bcd60e51b815260206004820152602660248201527f416464726573733a20696e73756666696369656e742062616c616e636520666f6044820152651c8818d85b1b60d21b6064820152608401610514565b6001600160a01b0385163b611b615760405162461bcd60e51b815260206004820152601d60248201527f416464726573733a2063616c6c20746f206e6f6e2d636f6e74726163740000006044820152606401610514565b600080866001600160a01b03168587604051611b7d9190611ea4565b60006040518083038185875af1925050503d8060008114611bba576040519150601f19603f3d011682016040523d82523d6000602084013e611bbf565b606091505b509150915061107382828660608315611bd9575081611aa2565b825115611be95782518084602001fd5b8160405162461bcd60e51b81526004016105149190611ec0565b80356001600160a01b0381168114611c1a57600080fd5b919050565b600080600060608486031215611c3457600080fd5b611c3d84611c03565b95602085013595506040909401359392505050565b600060208284031215611c6457600080fd5b5035919050565b80151581146112af57600080fd5b600080600060608486031215611c8e57600080fd5b83359250602084013591506040840135611ca781611c6b565b809150509250925092565b600080600060608486031215611cc757600080fd5b83359250611cd760208501611c03565b91506040840135611ca781611c6b565b60008060408385031215611cfa57600080fd5b50508035926020909101359150565b60008060408385031215611d1c57600080fd5b82359150611d2c60208401611c03565b90509250929050565b600060208284031215611d4757600080fd5b610e9482611c03565b60008060408385031215611d6357600080fd5b611d6c83611c03565b946020939093013593505050565b600080600060608486031215611d8f57600080fd5b505081359360208301359350604090920135919050565b634e487b7160e01b600052603260045260246000fd5b634e487b7160e01b600052601160045260246000fd5b80820180821115610e9757610e97611dbc565b8082028115828204841417610e9757610e97611dbc565b600082611e1957634e487b7160e01b600052601260045260246000fd5b500490565b81810381811115610e9757610e97611dbc565b600060208284031215611e4357600080fd5b5051919050565b600060018201611e5c57611e5c611dbc565b5060010190565b600060208284031215611e7557600080fd5b8151611aa281611c6b565b60005b83811015611e9b578181015183820152602001611e83565b50506000910152565b60008251611eb6818460208701611e80565b9190910192915050565b6020815260008251806020840152611edf816040850160208701611e80565b601f01601f1916919091016040019291505056fea2646970667358221220a4cb7425e16ef4df936c0005822400d99d8d1c297624a4c8492491ffd0532e3464736f6c63430008110033",
    "immutableReferences": {},
    "source": "// SPDX-License-Identifier: MIT\n\npragma solidity 0.8.17;\n\nimport \"@openzeppelin/contracts/token/ERC20/utils/SafeERC20.sol\";\n\nimport \"./FathomToken.sol\";\nimport \"./interfaces/IFairLaunch.sol\";\n\n// FairLaunch is a smart contract for distributing FATHOM by asking user to stake the ERC20-based token.\ncontract FairLaunch is IFairLaunch, Ownable {\n  using SafeERC20 for IERC20;\n\n  // Info of each user.\n  struct UserInfo {\n    uint256 amount; // How many Staking tokens the user has provided.\n    uint256 rewardDebt; // Reward debt. See explanation below.\n    uint256 bonusDebt; // Last block that user exec something to the pool.\n    address fundedBy; // Funded by who?\n    //\n    // We do some fancy math here. Basically, any point in time, the amount of FATHOMs\n    // entitled to a user but is pending to be distributed is:\n    //\n    //   pending reward = (user.amount * pool.accFathomPerShare) - user.rewardDebt\n    //\n    // Whenever a user deposits or withdraws Staking tokens to a pool. Here's what happens:\n    //   1. The pool's `accFathomPerShare` (and `lastRewardBlock`) gets updated.\n    //   2. User receives the pending reward sent to his/her address.\n    //   3. User's `amount` gets updated.\n    //   4. User's `rewardDebt` gets updated.\n  }\n\n  // Info of each pool.\n  struct PoolInfo {\n    address stakeToken; // Address of Staking token contract.\n    uint256 allocPoint; // How many allocation points assigned to this pool. FATHOMs to distribute per block.\n    uint256 lastRewardBlock; // Last block number that FATHOMs distribution occurs.\n    uint256 accFathomPerShare; // Accumulated FATHOMs per share, times 1e12. See below.\n    uint256 accFathomPerShareTilBonusEnd; // Accumated FATHOMs per share until Bonus End.\n  }\n\n  // The Fathom TOKEN!\n  FathomToken public fathom;\n  // Dev address.\n  address public devaddr;\n  // FATHOM tokens created per block.\n  uint256 public fathomPerBlock;\n  // Bonus muliplier for early fathom makers.\n  uint256 public bonusMultiplier;\n  // Block number when bonus FATHOM period ends.\n  uint256 public bonusEndBlock;\n  // Bonus lock-up in BPS\n  uint256 public bonusLockUpBps;\n\n  // Info of each pool.\n  PoolInfo[] public poolInfo;\n  // Info of each user that stakes Staking tokens.\n  mapping(uint256 => mapping(address => UserInfo)) public userInfo;\n  // Total allocation poitns. Must be the sum of all allocation points in all pools.\n  uint256 public totalAllocPoint;\n  // The block number when FATHOM mining starts.\n  uint256 public startBlock;\n\n  event Deposit(address indexed user, uint256 indexed pid, uint256 amount);\n  event Withdraw(address indexed user, uint256 indexed pid, uint256 amount);\n  event EmergencyWithdraw(address indexed user, uint256 indexed pid, uint256 amount);\n\n  constructor(\n    FathomToken _fathom,\n    address _devaddr,\n    uint256 _fathomPerBlock,\n    uint256 _startBlock,\n    uint256 _bonusLockupBps,\n    uint256 _bonusEndBlock\n  ) {\n    bonusMultiplier = 0;\n    totalAllocPoint = 0;\n    fathom = _fathom;\n    devaddr = _devaddr;\n    fathomPerBlock = _fathomPerBlock;\n    bonusLockUpBps = _bonusLockupBps;\n    bonusEndBlock = _bonusEndBlock;\n    startBlock = _startBlock;\n  }\n\n  /*\n  \n  \n  \n  \n  \n  \n  */\n\n  // Update dev address by the previous dev.\n  function setDev(address _devaddr) public {\n    require(msg.sender == devaddr, \"dev: wut?\");\n    devaddr = _devaddr;\n  }\n\n  function setFathomPerBlock(uint256 _fathomPerBlock) public onlyOwner {\n    fathomPerBlock = _fathomPerBlock;\n  }\n\n  // Set Bonus params. bonus will start to accu on the next block that this function executed\n  // See the calculation and counting in test file.\n  function setBonus(\n    uint256 _bonusMultiplier,\n    uint256 _bonusEndBlock,\n    uint256 _bonusLockUpBps\n  ) public onlyOwner {\n    require(_bonusEndBlock > block.number, \"setBonus: bad bonusEndBlock\");\n    require(_bonusMultiplier > 1, \"setBonus: bad bonusMultiplier\");\n    bonusMultiplier = _bonusMultiplier;\n    bonusEndBlock = _bonusEndBlock;\n    bonusLockUpBps = _bonusLockUpBps;\n  }\n\n  // Add a new lp to the pool. Can only be called by the owner.\n  function addPool(\n    uint256 _allocPoint,\n    address _stakeToken,\n    bool _withUpdate\n  ) public override onlyOwner {\n    if (_withUpdate) {\n      massUpdatePools();\n    }\n    require(_stakeToken != address(0), \"add: not stakeToken addr\");\n    require(!isDuplicatedPool(_stakeToken), \"add: stakeToken dup\");\n    uint256 lastRewardBlock = block.number > startBlock ? block.number : startBlock;\n    totalAllocPoint = totalAllocPoint + _allocPoint;\n    poolInfo.push(\n      PoolInfo({\n        stakeToken: _stakeToken,\n        allocPoint: _allocPoint,\n        lastRewardBlock: lastRewardBlock,\n        accFathomPerShare: 0,\n        accFathomPerShareTilBonusEnd: 0\n      })\n    );\n  }\n\n  // Update the given pool's FATHOM allocation point. Can only be called by the owner.\n  function setPool(\n    uint256 _pid,\n    uint256 _allocPoint,\n    bool _withUpdate\n  ) public override onlyOwner {\n    if (_withUpdate) {\n      massUpdatePools();\n    }\n    totalAllocPoint = totalAllocPoint - poolInfo[_pid].allocPoint + _allocPoint;\n    poolInfo[_pid].allocPoint = _allocPoint;\n  }\n\n  /*\n  \n  \n  \n  \n  \n  \n  */\n\n  function isDuplicatedPool(address _stakeToken) public view returns (bool) {\n    uint256 length = poolInfo.length;\n    for (uint256 _pid = 0; _pid < length; _pid++) {\n      if (poolInfo[_pid].stakeToken == _stakeToken) return true;\n    }\n    return false;\n  }\n\n  function poolLength() external view override returns (uint256) {\n    return poolInfo.length;\n  }\n\n  function manualMint(address _to, uint256 _amount) public onlyOwner {\n    fathom.manualMint(_to, _amount);\n  }\n\n  // Return reward multiplier over the given _from to _to block.\n  function getMultiplier(uint256 _lastRewardBlock, uint256 _currentBlock) public view returns (uint256) {\n    if (_currentBlock <= bonusEndBlock) {\n      return (_currentBlock - _lastRewardBlock) * (bonusMultiplier);\n    }\n    if (_lastRewardBlock >= bonusEndBlock) {\n      return _currentBlock - _lastRewardBlock;\n    }\n    // This is the case where bonusEndBlock is in the middle of _lastRewardBlock and _currentBlock block.\n    return (bonusEndBlock - _lastRewardBlock) * bonusMultiplier + _currentBlock - bonusEndBlock;\n  }\n\n  // View function to see pending FATHOMs on frontend.\n  function pendingFathom(uint256 _pid, address _user) external view override returns (uint256) {\n    PoolInfo storage pool = poolInfo[_pid];\n    UserInfo storage user = userInfo[_pid][_user];\n    uint256 accFathomPerShare = pool.accFathomPerShare;\n    uint256 lpSupply = IERC20(pool.stakeToken).balanceOf(address(this));\n    if (block.number > pool.lastRewardBlock && lpSupply != 0) {\n      uint256 multiplier = getMultiplier(pool.lastRewardBlock, block.number);\n      uint256 fathomReward = multiplier * (fathomPerBlock) * (pool.allocPoint) / (totalAllocPoint);\n      accFathomPerShare = accFathomPerShare + (fathomReward * 1e12 / lpSupply);\n    }\n    return user.amount * accFathomPerShare / (1e12) - (user.rewardDebt);\n  }\n\n  // Update reward vairables for all pools. Be careful of gas spending!\n  function massUpdatePools() public {\n    uint256 length = poolInfo.length;\n    for (uint256 pid = 0; pid < length; ++pid) {\n      updatePool(pid);\n    }\n  }\n\n  // Update reward variables of the given pool to be up-to-date.\n  function updatePool(uint256 _pid) public override {\n    PoolInfo storage pool = poolInfo[_pid];\n    if (block.number <= pool.lastRewardBlock) {\n      return;\n    }\n    uint256 lpSupply = IERC20(pool.stakeToken).balanceOf(address(this));\n    if (lpSupply == 0) {\n      pool.lastRewardBlock = block.number;\n      return;\n    }\n    uint256 multiplier = getMultiplier(pool.lastRewardBlock, block.number);\n    uint256 fathomReward = multiplier * (fathomPerBlock) * (pool.allocPoint) / (totalAllocPoint);\n    fathom.mint(devaddr, fathomReward / 10);\n    fathom.mint(address(this), fathomReward);\n    pool.accFathomPerShare = pool.accFathomPerShare + (fathomReward * 1e12 / lpSupply);\n    // update accFathomPerShareTilBonusEnd\n    if (block.number <= bonusEndBlock) {\n      fathom.lock(devaddr, fathomReward / 10 * bonusLockUpBps / 10000);\n      pool.accFathomPerShareTilBonusEnd = pool.accFathomPerShare;\n    }\n    if (block.number > bonusEndBlock && pool.lastRewardBlock < bonusEndBlock) {\n      uint256 fathomBonusPortion = (bonusEndBlock\n         - pool.lastRewardBlock)\n         * (bonusMultiplier)\n         * (fathomPerBlock)\n         * (pool.allocPoint)\n         / (totalAllocPoint);\n      fathom.lock(devaddr, fathomBonusPortion / 10 * bonusLockUpBps / 10000);\n      pool.accFathomPerShareTilBonusEnd = pool.accFathomPerShareTilBonusEnd + (\n        fathomBonusPortion * 1e12 / lpSupply\n      );\n    }\n    pool.lastRewardBlock = block.number;\n  }\n\n  // Deposit Staking tokens to FairLaunchToken for FATHOM allocation.\n  function deposit(\n    address _for,\n    uint256 _pid,\n    uint256 _amount\n  ) public override {\n    PoolInfo storage pool = poolInfo[_pid];\n    UserInfo storage user = userInfo[_pid][_for];\n    if (user.fundedBy != address(0)) require(user.fundedBy == msg.sender, \"bad sof\");\n    require(pool.stakeToken != address(0), \"deposit: not accept deposit\");\n    updatePool(_pid);\n    if (user.amount > 0) _harvest(_for, _pid);\n    if (user.fundedBy == address(0)) user.fundedBy = msg.sender;\n    IERC20(pool.stakeToken).safeTransferFrom(address(msg.sender), address(this), _amount);\n    user.amount = user.amount + _amount;\n    user.rewardDebt = user.amount * pool.accFathomPerShare / 1e12;\n    user.bonusDebt = user.amount * pool.accFathomPerShareTilBonusEnd / 1e12;\n    emit Deposit(msg.sender, _pid, _amount);\n  }\n\n  // Withdraw Staking tokens from FairLaunchToken.\n  function withdraw(\n    address _for,\n    uint256 _pid,\n    uint256 _amount\n  ) public override {\n    _withdraw(_for, _pid, _amount);\n  }\n\n  function withdrawAll(address _for, uint256 _pid) public override {\n    _withdraw(_for, _pid, userInfo[_pid][_for].amount);\n  }\n\n  function _withdraw(\n    address _for,\n    uint256 _pid,\n    uint256 _amount\n  ) internal {\n    PoolInfo storage pool = poolInfo[_pid];\n    UserInfo storage user = userInfo[_pid][_for];\n    require(user.fundedBy == msg.sender, \"only funder\");\n    require(user.amount >= _amount, \"withdraw: not good\");\n    updatePool(_pid);\n    _harvest(_for, _pid);\n    user.amount = user.amount - _amount;\n    user.rewardDebt = user.amount * pool.accFathomPerShare / 1e12;\n    user.bonusDebt = user.amount * pool.accFathomPerShareTilBonusEnd / 1e12;\n    if (pool.stakeToken != address(0)) {\n      IERC20(pool.stakeToken).safeTransfer(address(msg.sender), _amount);\n    }\n    emit Withdraw(msg.sender, _pid, user.amount);\n  }\n\n  // Harvest FATHOMs earn from the pool.\n  function harvest(uint256 _pid) public override {\n    PoolInfo storage pool = poolInfo[_pid];\n    UserInfo storage user = userInfo[_pid][msg.sender];\n    updatePool(_pid);\n    _harvest(msg.sender, _pid);\n    user.rewardDebt = user.amount * pool.accFathomPerShare / 1e12;\n    user.bonusDebt = user.amount * pool.accFathomPerShareTilBonusEnd / 1e12;\n  }\n\n  function _harvest(address _to, uint256 _pid) internal {\n    PoolInfo storage pool = poolInfo[_pid];\n    UserInfo storage user = userInfo[_pid][_to];\n    require(user.amount > 0, \"nothing to harvest\");\n    uint256 pending = user.amount * (pool.accFathomPerShare) / (1e12) - (user.rewardDebt);\n    require(pending <= fathom.balanceOf(address(this)), \"wtf not enough fathom\");\n    uint256 bonus = user.amount * (pool.accFathomPerShareTilBonusEnd) / (1e12) - (user.bonusDebt);\n    safeFathomTransfer(_to, pending);\n    fathom.lock(_to, bonus * (bonusLockUpBps) / (10000));\n  }\n\n  // Withdraw without caring about rewards. EMERGENCY ONLY.\n  function emergencyWithdraw(uint256 _pid) public {\n    PoolInfo storage pool = poolInfo[_pid];\n    UserInfo storage user = userInfo[_pid][msg.sender];\n    IERC20(pool.stakeToken).safeTransfer(address(msg.sender), user.amount);\n    emit EmergencyWithdraw(msg.sender, _pid, user.amount);\n    user.amount = 0;\n    user.rewardDebt = 0;\n  }\n\n  // Safe fathom transfer function, just in case if rounding error causes pool to not have enough FATHOMs.\n  function safeFathomTransfer(address _to, uint256 _amount) internal {\n    uint256 fathomBal = fathom.balanceOf(address(this));\n    if (_amount > fathomBal) {\n      fathom.transfer(_to, fathomBal);\n    } else {\n      fathom.transfer(_to, _amount);\n    }\n  }\n}\n",
    "sourcePath": "/Users/sangjun.lee/Sangjun/fathom-stablecoin-smart-contracts/contracts/8.17/apis/fathom/FairLaunch.sol",
    "compiler": {
        "name": "solc",
        "version": "0.8.17+commit.8df45f5f.Emscripten.clang"
    },
    "schemaVersion": "3.4.10",
    "updatedAt": "2022-10-21T07:57:44.948Z",
    "devdoc": {
        "kind": "dev",
        "methods": {
            "owner()": {
                "details": "Returns the address of the current owner."
            },
            "renounceOwnership()": {
                "details": "Leaves the contract without owner. It will not be possible to call `onlyOwner` functions anymore. Can only be called by the current owner. NOTE: Renouncing ownership will leave the contract without an owner, thereby removing any functionality that is only available to the owner."
            },
            "transferOwnership(address)": {
                "details": "Transfers ownership of the contract to a new account (`newOwner`). Can only be called by the current owner."
            }
        },
        "version": 1
    },
    "userdoc": {
        "kind": "user",
        "methods": {},
        "version": 1
    }
}