{
  "contractName": "FathomStatsMock",
  "abi": [
    {
      "anonymous": false,
      "inputs": [
        {
          "indexed": false,
          "internalType": "uint8",
          "name": "version",
          "type": "uint8"
        }
      ],
      "name": "Initialized",
      "type": "event"
    },
    {
      "anonymous": false,
      "inputs": [
        {
          "indexed": false,
          "internalType": "address",
          "name": "account",
          "type": "address"
        }
      ],
      "name": "Paused",
      "type": "event"
    },
    {
      "anonymous": false,
      "inputs": [
        {
          "indexed": false,
          "internalType": "address",
          "name": "account",
          "type": "address"
        }
      ],
      "name": "Unpaused",
      "type": "event"
    },
    {
      "inputs": [],
      "name": "BookKeeper",
      "outputs": [
        {
          "internalType": "address",
          "name": "",
          "type": "address"
        }
      ],
      "stateMutability": "view",
      "type": "function"
    },
    {
      "inputs": [],
      "name": "CollateralPoolConfig",
      "outputs": [
        {
          "internalType": "address",
          "name": "",
          "type": "address"
        }
      ],
      "stateMutability": "view",
      "type": "function"
    },
    {
      "inputs": [],
      "name": "CollateralPoolId",
      "outputs": [
        {
          "internalType": "bytes32",
          "name": "",
          "type": "bytes32"
        }
      ],
      "stateMutability": "view",
      "type": "function"
    },
    {
      "inputs": [],
      "name": "DEXPriceOracle",
      "outputs": [
        {
          "internalType": "address",
          "name": "",
          "type": "address"
        }
      ],
      "stateMutability": "view",
      "type": "function"
    },
    {
      "inputs": [],
      "name": "FXD",
      "outputs": [
        {
          "internalType": "address",
          "name": "",
          "type": "address"
        }
      ],
      "stateMutability": "view",
      "type": "function"
    },
    {
      "inputs": [],
      "name": "FairLaunch",
      "outputs": [
        {
          "internalType": "address",
          "name": "",
          "type": "address"
        }
      ],
      "stateMutability": "view",
      "type": "function"
    },
    {
      "inputs": [],
      "name": "USDT",
      "outputs": [
        {
          "internalType": "address",
          "name": "",
          "type": "address"
        }
      ],
      "stateMutability": "view",
      "type": "function"
    },
    {
      "inputs": [],
      "name": "WXDC",
      "outputs": [
        {
          "internalType": "address",
          "name": "",
          "type": "address"
        }
      ],
      "stateMutability": "view",
      "type": "function"
    },
    {
      "inputs": [],
      "name": "paused",
      "outputs": [
        {
          "internalType": "bool",
          "name": "",
          "type": "bool"
        }
      ],
      "stateMutability": "view",
      "type": "function"
    },
    {
      "inputs": [],
      "name": "initialize",
      "outputs": [],
      "stateMutability": "nonpayable",
      "type": "function"
    },
    {
      "inputs": [],
      "name": "getFathomInfo",
      "outputs": [
        {
          "components": [
            {
              "internalType": "uint256",
              "name": "fathomSupplyCap",
              "type": "uint256"
            },
            {
              "internalType": "uint256",
              "name": "totalValueLocked",
              "type": "uint256"
            },
            {
              "internalType": "uint256",
              "name": "FXDPriceFromDex",
              "type": "uint256"
            },
            {
              "internalType": "uint256",
              "name": "liquidationRatio",
              "type": "uint256"
            },
            {
              "internalType": "uint256",
              "name": "closeFactor",
              "type": "uint256"
            }
          ],
          "internalType": "struct FathomStatsMock.FathomInfo",
          "name": "",
          "type": "tuple"
        }
      ],
      "stateMutability": "pure",
      "type": "function"
    },
    {
      "inputs": [],
      "name": "getPoolInfo",
      "outputs": [
        {
          "components": [
            {
              "internalType": "uint256",
              "name": "collateralLockedInPool",
              "type": "uint256"
            },
            {
              "internalType": "uint256",
              "name": "collateralAvailableToWithdraw",
              "type": "uint256"
            },
            {
              "internalType": "uint256",
              "name": "FXDBorrowed",
              "type": "uint256"
            },
            {
              "internalType": "uint256",
              "name": "FXDAvailableToBorrow",
              "type": "uint256"
            },
            {
              "internalType": "uint256",
              "name": "debtRatio",
              "type": "uint256"
            },
            {
              "internalType": "uint256",
              "name": "liquidationRatio",
              "type": "uint256"
            },
            {
              "internalType": "uint256",
              "name": "liquidatorIncentiveBps",
              "type": "uint256"
            }
          ],
          "internalType": "struct FathomStatsMock.PoolInfo",
          "name": "",
          "type": "tuple"
        }
      ],
      "stateMutability": "pure",
      "type": "function"
    }
  ],
  "bytecode": "0x608060405234801561001057600080fd5b50610593806100206000396000f3fe608060405234801561001057600080fd5b50600436106100b45760003560e01c80639dc57e66116100715780639dc57e6614610191578063a23794e5146101a4578063abac618f146101b7578063c54e44eb146101ca578063cd64e420146101dd578063dd9149e11461022757600080fd5b806348994a9e146100b95780635c975abb146100e957806360246c88146100ff5780638129fc1c1461015d57806388734cf014610167578063908eb6211461017e575b600080fd5b6066546100cc906001600160a01b031681565b6040516001600160a01b0390911681526020015b60405180910390f35b60335460ff1660405190151581526020016100e0565b61010761023a565b6040516100e09190600060e082019050825182526020830151602083015260408301516040830152606083015160608301526080830151608083015260a083015160a083015260c083015160c083015292915050565b610165610359565b005b610170606b5481565b6040519081526020016100e0565b6069546100cc906001600160a01b031681565b6065546100cc906001600160a01b031681565b606c546100cc906001600160a01b031681565b606a546100cc906001600160a01b031681565b6068546100cc906001600160a01b031681565b6101e5610466565b6040516100e09190600060a082019050825182526020830151602083015260408301516040830152606083015160608301526080830151608083015292915050565b6067546100cc906001600160a01b031681565b61027a6040518060e00160405280600081526020016000815260200160008152602001600081526020016000815260200160008152602001600081525090565b6102ba6040518060e00160405280600081526020016000815260200160008152602001600081526020016000815260200160008152602001600081525090565b6102cd670de0b6b3a76400006003610510565b81526102e2670de0b6b3a76400006001610510565b60208201526102fa670de0b6b3a76400006002610510565b6040820152670de0b6b3a76400006003610315826002610510565b610321906103e8610510565b61032b919061053b565b6103359190610510565b60808201526b033b2e3c9fd0803ce800000060a082015261290460c0820152919050565b600054610100900460ff16158080156103795750600054600160ff909116105b806103935750303b158015610393575060005460ff166001145b6103fa5760405162461bcd60e51b815260206004820152602e60248201527f496e697469616c697a61626c653a20636f6e747261637420697320616c72656160448201526d191e481a5b9a5d1a585b1a5e995960921b606482015260840160405180910390fd5b6000805460ff19166001179055801561041d576000805461ff0019166101001790555b8015610463576000805461ff0019169055604051600181527f7f26b83ff96e1f2b6a682f133852f6798a09c465da95921460cefb38474024989060200160405180910390a15b50565b6104986040518060a0016040528060008152602001600081526020016000815260200160008152602001600081525090565b6104ca6040518060a0016040528060008152602001600081526020016000815260200160008152602001600081525090565b6298968081526802b5e3af16b188000060208201526b0328fb8e3c0ae3d11200000060408201526b033b2e3c9fd0803ce800000060608201526127106080820152919050565b808202811582820484141761053557634e487b7160e01b600052601160045260246000fd5b92915050565b60008261055857634e487b7160e01b600052601260045260246000fd5b50049056fea26469706673582212203395953ae401255901db50e52d6a78933de15851b944164107d8623d010ab4d364736f6c63430008110033",
  "immutableReferences": {},
  "source": "// SPDX-License-Identifier: AGPL-3.0-or-later\n\npragma solidity 0.8.17;\npragma experimental ABIEncoderV2;\nimport \"@openzeppelin/contracts-upgradeable/security/PausableUpgradeable.sol\";\n\n\nimport \"./interfaces/IBookKeeper.sol\";\nimport \"./interfaces/IDEXPriceOracle.sol\";\nimport \"./interfaces/IERC20.sol\";\nimport \"./interfaces/ICollateralPoolConfig.sol\";\n\ncontract FathomStatsMock is PausableUpgradeable{\n  // --- Math ---\n  uint256 constant WAD = 10**18;\n  uint256 constant RAY = 10**27;\n  uint256 constant RAD = 10**45;\n\n  // --- Data ---\n  address public BookKeeper;\n  address public FairLaunch;\n  address public WXDC;\n  address public USDT;\n  address public FXD;\n  address public DEXPriceOracle;\n  bytes32 public CollateralPoolId;\n  address public CollateralPoolConfig;\n  // --- Structs ---\n  struct FathomInfo {\n      uint256 fathomSupplyCap; // not in WAD. Plain balance that usr usually think\n      uint256 totalValueLocked; //WAD but in dollar\n      uint256 FXDPriceFromDex; //WAD but in dollar\n      uint256 liquidationRatio; //RAY <-reverse of LTV\n      uint256 closeFactor;\n  }\n    //   uint256 stabilityFeeRate; // Collateral-specific, per-second stability fee debtAccumulatedRate or mint interest debtAccumulatedRate [ray]\n  struct PoolInfo {\n      uint256 collateralLockedInPool;\n      uint256 collateralAvailableToWithdraw;\n      uint256 FXDBorrowed;\n      uint256 FXDAvailableToBorrow;\n      uint256 debtRatio; //Pool Specific LTV at the moment\n      uint256 liquidationRatio; //Maximum Debt Ratio\n      uint256 liquidatorIncentiveBps; // it will give 10500, which is 1.05\n  }\n  function initialize() external initializer {\n  }\n\n  function getFathomInfo() external pure returns (FathomInfo memory) {\n      FathomInfo memory fathomInfo;\n      fathomInfo.fathomSupplyCap = 10000000;\n      fathomInfo.totalValueLocked = 50000000000000000000; // <- can be divided by 10**WAD\n      // 50\n      // 000000000000000000\n      fathomInfo.FXDPriceFromDex = 978000000000000000000000000;\n      fathomInfo.liquidationRatio = 1000000000000000000000000000; // Max LTV 100%\n                                    // 1330000000000000000000000000\n      fathomInfo.closeFactor = 10000; // 100%\n      return fathomInfo;\n  }\n  function getPoolInfo() external pure returns (PoolInfo memory) {\n      PoolInfo memory poolInfo;\n      poolInfo.collateralLockedInPool = 3 * WAD;\n      poolInfo.collateralAvailableToWithdraw = 1 * WAD;\n      poolInfo.FXDBorrowed = 2 * WAD;\n      poolInfo.debtRatio = 2 * WAD * 1000 / 3 * WAD;\n      poolInfo.liquidationRatio = 1000000000000000000000000000;\n      poolInfo.liquidatorIncentiveBps = 10500;\n      return poolInfo;\n      //     uint256 collateralLockedInPool;\n      // uint256 collateralAvailableToWithdraw;\n      // uint256 FXDBorrowed;\n      // uint256 FXDAvailableToBorrow;\n      // uint256 debtRatio; //Pool Specific LTV at the moment\n      // uint256 liquidationRatio; //Maximum Debt Ratio\n      // uint256 liquidatorIncentiveBps; // it will give 10500, which is 1.05\n  }\n}\n\n\n\n\n\n\n\n\n\n\n",
  "sourcePath": "/Users/sangjun.lee/Sangjun/fathom-stablecoin-smart-contracts/contracts/8.17/stats/FathomStatsMock.sol",
  "compiler": {
    "name": "solc",
    "version": "0.8.17+commit.8df45f5f.Emscripten.clang"
  },
  "schemaVersion": "3.4.10",
  "updatedAt": "2022-10-21T07:57:45.123Z",
  "devdoc": {
    "kind": "dev",
    "methods": {
      "paused()": {
        "details": "Returns true if the contract is paused, and false otherwise."
      }
    },
    "version": 1
  },
  "userdoc": {
    "kind": "user",
    "methods": {},
    "version": 1
  }
}