{
  "contractName": "FathomStats",
  "abi": [
    {
      "anonymous": false,
      "inputs": [
        {
          "indexed": false,
          "internalType": "uint8",
          "name": "version",
          "type": "uint8"
        }
      ],
      "name": "Initialized",
      "type": "event"
    },
    {
      "anonymous": false,
      "inputs": [
        {
          "indexed": false,
          "internalType": "address",
          "name": "account",
          "type": "address"
        }
      ],
      "name": "Paused",
      "type": "event"
    },
    {
      "anonymous": false,
      "inputs": [
        {
          "indexed": false,
          "internalType": "address",
          "name": "account",
          "type": "address"
        }
      ],
      "name": "Unpaused",
      "type": "event"
    },
    {
      "inputs": [],
      "name": "BookKeeper",
      "outputs": [
        {
          "internalType": "address",
          "name": "",
          "type": "address"
        }
      ],
      "stateMutability": "view",
      "type": "function"
    },
    {
      "inputs": [],
      "name": "CollateralPoolConfig",
      "outputs": [
        {
          "internalType": "address",
          "name": "",
          "type": "address"
        }
      ],
      "stateMutability": "view",
      "type": "function"
    },
    {
      "inputs": [],
      "name": "CollateralPoolId",
      "outputs": [
        {
          "internalType": "bytes32",
          "name": "",
          "type": "bytes32"
        }
      ],
      "stateMutability": "view",
      "type": "function"
    },
    {
      "inputs": [],
      "name": "DEXPriceOracle",
      "outputs": [
        {
          "internalType": "address",
          "name": "",
          "type": "address"
        }
      ],
      "stateMutability": "view",
      "type": "function"
    },
    {
      "inputs": [],
      "name": "FXD",
      "outputs": [
        {
          "internalType": "address",
          "name": "",
          "type": "address"
        }
      ],
      "stateMutability": "view",
      "type": "function"
    },
    {
      "inputs": [],
      "name": "FairLaunch",
      "outputs": [
        {
          "internalType": "address",
          "name": "",
          "type": "address"
        }
      ],
      "stateMutability": "view",
      "type": "function"
    },
    {
      "inputs": [],
      "name": "USDT",
      "outputs": [
        {
          "internalType": "address",
          "name": "",
          "type": "address"
        }
      ],
      "stateMutability": "view",
      "type": "function"
    },
    {
      "inputs": [],
      "name": "WXDC",
      "outputs": [
        {
          "internalType": "address",
          "name": "",
          "type": "address"
        }
      ],
      "stateMutability": "view",
      "type": "function"
    },
    {
      "inputs": [],
      "name": "paused",
      "outputs": [
        {
          "internalType": "bool",
          "name": "",
          "type": "bool"
        }
      ],
      "stateMutability": "view",
      "type": "function"
    },
    {
      "inputs": [
        {
          "internalType": "address",
          "name": "bookKeeper",
          "type": "address"
        },
        {
          "internalType": "address",
          "name": "fairLaunch",
          "type": "address"
        },
        {
          "internalType": "address",
          "name": "wxdc",
          "type": "address"
        },
        {
          "internalType": "address",
          "name": "usdt",
          "type": "address"
        },
        {
          "internalType": "address",
          "name": "fxd",
          "type": "address"
        },
        {
          "internalType": "address",
          "name": "dEXPriceOracle",
          "type": "address"
        },
        {
          "internalType": "bytes32",
          "name": "collateralPoolId",
          "type": "bytes32"
        },
        {
          "internalType": "address",
          "name": "collateralPoolConfig",
          "type": "address"
        }
      ],
      "name": "initialize",
      "outputs": [],
      "stateMutability": "nonpayable",
      "type": "function"
    },
    {
      "inputs": [],
      "name": "getFathomInfo",
      "outputs": [
        {
          "components": [
            {
              "internalType": "uint256",
              "name": "fathomSupplyCap",
              "type": "uint256"
            },
            {
              "internalType": "uint256",
              "name": "totalValueLocked",
              "type": "uint256"
            },
            {
              "internalType": "uint256",
              "name": "FXDPriceFromDex",
              "type": "uint256"
            },
            {
              "internalType": "uint256",
              "name": "liquidationRatio",
              "type": "uint256"
            },
            {
              "internalType": "uint256",
              "name": "closeFactor",
              "type": "uint256"
            }
          ],
          "internalType": "struct FathomStats.FathomInfo",
          "name": "",
          "type": "tuple"
        }
      ],
      "stateMutability": "view",
      "type": "function"
    },
    {
      "inputs": [],
      "name": "getWXDCPrice",
      "outputs": [
        {
          "internalType": "uint256",
          "name": "",
          "type": "uint256"
        }
      ],
      "stateMutability": "view",
      "type": "function"
    }
  ],
  "bytecode": "0x608060405234801561001057600080fd5b50610917806100206000396000f3fe608060405234801561001057600080fd5b50600436106100b45760003560e01c8063a23794e511610071578063a23794e514610144578063abac618f14610157578063c54e44eb1461016a578063cd64e4201461017d578063dd9149e1146101c7578063f39177aa146101da57600080fd5b80631616d75c146100b957806348994a9e146100d45780635c975abb146100ff57806388734cf014610115578063908eb6211461011e5780639dc57e6614610131575b600080fd5b6100c16101ef565b6040519081526020015b60405180910390f35b6066546100e7906001600160a01b031681565b6040516001600160a01b0390911681526020016100cb565b60335460ff1660405190151581526020016100cb565b6100c1606b5481565b6069546100e7906001600160a01b031681565b6065546100e7906001600160a01b031681565b606c546100e7906001600160a01b031681565b606a546100e7906001600160a01b031681565b6068546100e7906001600160a01b031681565b610185610274565b6040516100cb9190600060a082019050825182526020830151602083015260408301516040830152606083015160608301526080830151608083015292915050565b6067546100e7906001600160a01b031681565b6101ed6101e83660046107ac565b610608565b005b606a54606854606754604051635620c32d60e11b81526001600160a01b03928316600482015290821660248201526000928392169063ac41865a906044016040805180830381865afa158015610249573d6000803e3d6000fd5b505050506040513d601f19601f8201168201806040525081019061026d919061083c565b5092915050565b6102a66040518060a0016040528060008152602001600081526020016000815260200160008152602001600081525090565b6102d86040518060a0016040528060008152602001600081526020016000815260200160008152602001600081525090565b60655460408051635b2a512160e01b81529051722cd76fe086b93ce2f768a00b22a00000000000926001600160a01b031691635b2a51219160048083019260209291908290030181865afa158015610334573d6000803e3d6000fd5b505050506040513d601f19601f820116820180604052508101906103589190610860565b610362919061088f565b81526067546066546040516370a0823160e01b81526001600160a01b03918216600482015260009291909116906370a0823190602401602060405180830381865afa1580156103b5573d6000803e3d6000fd5b505050506040513d601f19601f820116820180604052508101906103d99190610860565b606a54606854606754604051635620c32d60e11b81526001600160a01b039283166004820152908216602482015292935060009291169063ac41865a906044016040805180830381865afa158015610435573d6000803e3d6000fd5b505050506040513d601f19601f82011682018060405250810190610459919061083c565b506068546066546040516370a0823160e01b81526001600160a01b0391821660048201529293506000929116906370a0823190602401602060405180830381865afa1580156104ac573d6000803e3d6000fd5b505050506040513d601f19601f820116820180604052508101906104d09190610860565b905080670de0b6b3a76400006104e684866108b1565b6104f0919061088f565b6104fa91906108ce565b6020850152670db28745494f80006040808601829052606c54606b5491516344d0c93760e01b815260048101929092526001600160a01b0316906344d0c93790602401602060405180830381865afa15801561055a573d6000803e3d6000fd5b505050506040513d601f19601f8201168201806040525081019061057e9190610860565b6060860152606c54606b5460405163e73bbc7960e01b81526001600160a01b039092169163e73bbc79916105b89160040190815260200190565b602060405180830381865afa1580156105d5573d6000803e3d6000fd5b505050506040513d601f19601f820116820180604052508101906105f99190610860565b60808601525092949350505050565b600054610100900460ff16158080156106285750600054600160ff909116105b806106425750303b158015610642575060005460ff166001145b6106a95760405162461bcd60e51b815260206004820152602e60248201527f496e697469616c697a61626c653a20636f6e747261637420697320616c72656160448201526d191e481a5b9a5d1a585b1a5e995960921b606482015260840160405180910390fd5b6000805460ff1916600117905580156106cc576000805461ff0019166101001790555b606580546001600160a01b03199081166001600160a01b038c8116919091179092556066805482168b84161790556067805482168a8416179055606880548216898416179055606980548216888416179055606a80548216878416179055606b859055606c80549091169184169190911790558015610785576000805461ff0019169055604051600181527f7f26b83ff96e1f2b6a682f133852f6798a09c465da95921460cefb38474024989060200160405180910390a15b505050505050505050565b80356001600160a01b03811681146107a757600080fd5b919050565b600080600080600080600080610100898b0312156107c957600080fd5b6107d289610790565b97506107e060208a01610790565b96506107ee60408a01610790565b95506107fc60608a01610790565b945061080a60808a01610790565b935061081860a08a01610790565b925060c0890135915061082d60e08a01610790565b90509295985092959890939650565b6000806040838503121561084f57600080fd5b505080516020909101519092909150565b60006020828403121561087257600080fd5b5051919050565b634e487b7160e01b600052601160045260246000fd5b6000826108ac57634e487b7160e01b600052601260045260246000fd5b500490565b80820281158282048414176108c8576108c8610879565b92915050565b808201808211156108c8576108c861087956fea2646970667358221220be37e0f27f84b0460d98733cbec8e16ab800c9f2511635f5de6419e0e050f66464736f6c63430008110033",
  "immutableReferences": {},
  "source": "// SPDX-License-Identifier: AGPL-3.0-or-later\n\npragma solidity 0.8.17;\npragma experimental ABIEncoderV2;\nimport \"@openzeppelin/contracts-upgradeable/security/PausableUpgradeable.sol\";\n\n\nimport \"./interfaces/IBookKeeper.sol\";\nimport \"./interfaces/IDEXPriceOracle.sol\";\nimport \"./interfaces/IERC20.sol\";\nimport \"./interfaces/ICollateralPoolConfig.sol\";\n\ncontract FathomStats is PausableUpgradeable{\n  // --- Math ---\n  uint256 constant WAD = 10**18;\n  uint256 constant RAY = 10**27;\n  uint256 constant RAD = 10**45;\n\n  // --- Data ---\n  address public BookKeeper;\n  address public FairLaunch;\n  address public WXDC;\n  address public USDT;\n  address public FXD;\n  address public DEXPriceOracle;\n  bytes32 public CollateralPoolId;\n  address public CollateralPoolConfig;\n  // --- Structs ---\n  struct FathomInfo {\n      uint256 fathomSupplyCap; // not in WAD. Plain balance that usr usually think\n      uint256 totalValueLocked; //WAD but in dollar\n      uint256 FXDPriceFromDex; //WAD but in dollar\n      uint256 liquidationRatio; //RAY <-reverse of LTV\n      uint256 closeFactor;\n  }\n\n  struct PoolInfo {\n      uint256 collateralLockedInPool;\n      uint256 collateralAvailableToWithdraw;\n      uint256 FXDBorrowed;\n      uint256 FXDAvailableToBorrow;\n      uint256 debtRatio; //Pool Specific LTV at the moment\n      uint256 liquidationRatio; //Maximum Debt Ratio\n      uint256 liquidatorIncentiveBps; // it will give 10500, which is 1.05\n  }\n    //   uint256 stabilityFeeRate; // Collateral-specific, per-second stability fee debtAccumulatedRate or mint interest debtAccumulatedRate [ray]\n\n//needs to expend \n  struct PositionInfo {\n      uint256 collatralAmount;\n      uint256 debtShare; // how much FXD borrowed\n      uint256 positionLTV;\n  }\n\n  function initialize(address bookKeeper, address fairLaunch, address wxdc, address usdt, address fxd, address dEXPriceOracle, bytes32 collateralPoolId, address collateralPoolConfig) external initializer {\n      BookKeeper = bookKeeper;\n      FairLaunch = fairLaunch;\n      WXDC = wxdc;\n      USDT = usdt;\n      FXD = fxd;\n      DEXPriceOracle = dEXPriceOracle;\n      CollateralPoolId = collateralPoolId;\n      CollateralPoolConfig = collateralPoolConfig;\n  }\n\n  function getFathomInfo() external view returns (FathomInfo memory) {\n      FathomInfo memory fathomInfo;\n      fathomInfo.fathomSupplyCap = IBookKeeper(BookKeeper).totalDebtCeiling() / RAD;\n      uint256 WXDCLocked = IERC20(WXDC).balanceOf(FairLaunch);\n      (uint256 WXDCPrice, ) = IDEXPriceOracle(DEXPriceOracle).getPrice(USDT, WXDC);\n      uint256 USDTLocked = IERC20(USDT).balanceOf(FairLaunch);\n      fathomInfo.totalValueLocked = WXDCLocked * WXDCPrice / WAD + USDTLocked;\n                                    //WAD          WAD      WAD    WAD\n    //   (uint256 FXDPrice, ) = IDEXPriceOracle(DEXPriceOracle).getPrice(USDT, FXD);\n      uint256 FXDPrice = 987000000000000000;\n\n      fathomInfo.FXDPriceFromDex = FXDPrice;\n      fathomInfo.liquidationRatio =  ICollateralPoolConfig(CollateralPoolConfig).getLiquidationRatio(CollateralPoolId);\n      fathomInfo.closeFactor = ICollateralPoolConfig(CollateralPoolConfig).getCloseFactorBps(CollateralPoolId);\n      return fathomInfo;\n          //   fathomInfo.MaxLTVProtocol =  1 / ICollateralPoolConfig(CollateralPoolConfig).getLiquidationRatio(CollateralPoolId) / RAY * 100;\n    //   fathomInfo.stabilityFeeRate = ICollateralPoolConfig(CollateralPoolConfig).getStabilityFeeRate(CollateralPoolId);\n  }\n\n  function getWXDCPrice() external view returns (uint256) {\n      (uint256 WXDCPrice, ) = IDEXPriceOracle(DEXPriceOracle).getPrice(USDT, WXDC);\n      return WXDCPrice;\n  }\n}\n\n\n\n\n\n\n\n\n\n\n",
  "sourcePath": "/Users/sangjun.lee/Sangjun/fathom-stablecoin-smart-contracts/contracts/8.17/stats/FathomStats.sol",
  "compiler": {
    "name": "solc",
    "version": "0.8.17+commit.8df45f5f.Emscripten.clang"
  },
  "schemaVersion": "3.4.10",
  "updatedAt": "2022-10-06T11:28:50.348Z",
  "devdoc": {
    "kind": "dev",
    "methods": {
      "paused()": {
        "details": "Returns true if the contract is paused, and false otherwise."
      }
    },
    "version": 1
  },
  "userdoc": {
    "kind": "user",
    "methods": {},
    "version": 1
  }
}