{
  "contractName": "FathomOraclePriceFeed",
  "abi": [
    {
      "anonymous": false,
      "inputs": [
        {
          "indexed": false,
          "internalType": "uint8",
          "name": "version",
          "type": "uint8"
        }
      ],
      "name": "Initialized",
      "type": "event"
    },
    {
      "anonymous": false,
      "inputs": [
        {
          "indexed": true,
          "internalType": "address",
          "name": "_caller",
          "type": "address"
        },
        {
          "indexed": false,
          "internalType": "uint256",
          "name": "_second",
          "type": "uint256"
        }
      ],
      "name": "LogSetPriceLife",
      "type": "event"
    },
    {
      "anonymous": false,
      "inputs": [
        {
          "indexed": false,
          "internalType": "address",
          "name": "account",
          "type": "address"
        }
      ],
      "name": "Paused",
      "type": "event"
    },
    {
      "anonymous": false,
      "inputs": [
        {
          "indexed": false,
          "internalType": "address",
          "name": "account",
          "type": "address"
        }
      ],
      "name": "Unpaused",
      "type": "event"
    },
    {
      "inputs": [],
      "name": "accessControlConfig",
      "outputs": [
        {
          "internalType": "contract IAccessControlConfig",
          "name": "",
          "type": "address"
        }
      ],
      "stateMutability": "view",
      "type": "function"
    },
    {
      "inputs": [],
      "name": "fathomOracle",
      "outputs": [
        {
          "internalType": "contract IFathomOracle",
          "name": "",
          "type": "address"
        }
      ],
      "stateMutability": "view",
      "type": "function"
    },
    {
      "inputs": [],
      "name": "paused",
      "outputs": [
        {
          "internalType": "bool",
          "name": "",
          "type": "bool"
        }
      ],
      "stateMutability": "view",
      "type": "function"
    },
    {
      "inputs": [],
      "name": "priceLife",
      "outputs": [
        {
          "internalType": "uint256",
          "name": "",
          "type": "uint256"
        }
      ],
      "stateMutability": "view",
      "type": "function"
    },
    {
      "inputs": [],
      "name": "token0",
      "outputs": [
        {
          "internalType": "address",
          "name": "",
          "type": "address"
        }
      ],
      "stateMutability": "view",
      "type": "function"
    },
    {
      "inputs": [],
      "name": "token1",
      "outputs": [
        {
          "internalType": "address",
          "name": "",
          "type": "address"
        }
      ],
      "stateMutability": "view",
      "type": "function"
    },
    {
      "inputs": [
        {
          "internalType": "address",
          "name": "_fathomOracle",
          "type": "address"
        },
        {
          "internalType": "address",
          "name": "_token0",
          "type": "address"
        },
        {
          "internalType": "address",
          "name": "_token1",
          "type": "address"
        },
        {
          "internalType": "address",
          "name": "_accessControlConfig",
          "type": "address"
        }
      ],
      "name": "initialize",
      "outputs": [],
      "stateMutability": "nonpayable",
      "type": "function"
    },
    {
      "inputs": [
        {
          "internalType": "uint256",
          "name": "_second",
          "type": "uint256"
        }
      ],
      "name": "setPriceLife",
      "outputs": [],
      "stateMutability": "nonpayable",
      "type": "function"
    },
    {
      "inputs": [],
      "name": "pause",
      "outputs": [],
      "stateMutability": "nonpayable",
      "type": "function"
    },
    {
      "inputs": [],
      "name": "unpause",
      "outputs": [],
      "stateMutability": "nonpayable",
      "type": "function"
    },
    {
      "inputs": [],
      "name": "readPrice",
      "outputs": [
        {
          "internalType": "bytes32",
          "name": "",
          "type": "bytes32"
        }
      ],
      "stateMutability": "view",
      "type": "function"
    },
    {
      "inputs": [],
      "name": "peekPrice",
      "outputs": [
        {
          "internalType": "bytes32",
          "name": "",
          "type": "bytes32"
        },
        {
          "internalType": "bool",
          "name": "",
          "type": "bool"
        }
      ],
      "stateMutability": "view",
      "type": "function"
    }
  ],
  "bytecode": "0x608060405234801561001057600080fd5b50610dd6806100206000396000f3fe608060405234801561001057600080fd5b50600436106100b45760003560e01c80637e91400f116100715780637e91400f146101505780638456cb5914610158578063c8cc243f14610160578063d21220a714610173578063ef36ee4714610186578063f8c8765e1461019957600080fd5b80630831bf42146100b95780630dfe1681146100e9578063140d2720146100fc5780633f4ba83a146101195780635af639c3146101235780635c975abb1461013a575b600080fd5b6065546100cc906001600160a01b031681565b6040516001600160a01b0390911681526020015b60405180910390f35b6067546100cc906001600160a01b031681565b6101046101ac565b604080519283529015156020830152016100e0565b61012161024a565b005b61012c60695481565b6040519081526020016100e0565b60335460ff1660405190151581526020016100e0565b61012c61045d565b6101216104e2565b6066546100cc906001600160a01b031681565b6068546100cc906001600160a01b031681565b610121610194366004610c45565b6106ee565b6101216101a7366004610c7a565b6108ad565b606554606754606854604051635620c32d60e11b81526001600160a01b0392831660048201529082166024820152600092839283928392919091169063ac41865a906044016040805180830381865afa15801561020d573d6000803e3d6000fd5b505050506040513d601f19601f820116820180604052508101906102319190610cce565b90925090508161024082610a8c565b9350935050509091565b6066546040805163e58378bb60e01b815290516001600160a01b03909216916391d1485491839163e58378bb916004808201926020929091908290030181865afa15801561029c573d6000803e3d6000fd5b505050506040513d601f19601f820116820180604052508101906102c09190610cf2565b6040516001600160e01b031960e084901b1681526004810191909152336024820152604401602060405180830381865afa158015610302573d6000803e3d6000fd5b505050506040513d601f19601f820116820180604052508101906103269190610d0b565b80610408575060665460408051635a9b40c560e11b815290516001600160a01b03909216916391d1485491839163b536818a916004808201926020929091908290030181865afa15801561037e573d6000803e3d6000fd5b505050506040513d601f19601f820116820180604052508101906103a29190610cf2565b6040516001600160e01b031960e084901b1681526004810191909152336024820152604401602060405180830381865afa1580156103e4573d6000803e3d6000fd5b505050506040513d601f19601f820116820180604052508101906104089190610d0b565b6104535760405162461bcd60e51b815260206004820152601760248201527621286f776e6572526f6c65206f7220676f76526f6c652960481b60448201526064015b60405180910390fd5b61045b610aac565b565b606554606754606854604051635620c32d60e11b81526001600160a01b03928316600482015290821660248201526000928392169063ac41865a906044016040805180830381865afa1580156104b7573d6000803e3d6000fd5b505050506040513d601f19601f820116820180604052508101906104db9190610cce565b5092915050565b6066546040805163e58378bb60e01b815290516001600160a01b03909216916391d1485491839163e58378bb916004808201926020929091908290030181865afa158015610534573d6000803e3d6000fd5b505050506040513d601f19601f820116820180604052508101906105589190610cf2565b6040516001600160e01b031960e084901b1681526004810191909152336024820152604401602060405180830381865afa15801561059a573d6000803e3d6000fd5b505050506040513d601f19601f820116820180604052508101906105be9190610d0b565b806106a0575060665460408051635a9b40c560e11b815290516001600160a01b03909216916391d1485491839163b536818a916004808201926020929091908290030181865afa158015610616573d6000803e3d6000fd5b505050506040513d601f19601f8201168201806040525081019061063a9190610cf2565b6040516001600160e01b031960e084901b1681526004810191909152336024820152604401602060405180830381865afa15801561067c573d6000803e3d6000fd5b505050506040513d601f19601f820116820180604052508101906106a09190610d0b565b6106e65760405162461bcd60e51b815260206004820152601760248201527621286f776e6572526f6c65206f7220676f76526f6c652960481b604482015260640161044a565b61045b610afe565b6066546040805163e58378bb60e01b815290516001600160a01b03909216916391d1485491839163e58378bb916004808201926020929091908290030181865afa158015610740573d6000803e3d6000fd5b505050506040513d601f19601f820116820180604052508101906107649190610cf2565b6040516001600160e01b031960e084901b1681526004810191909152336024820152604401602060405180830381865afa1580156107a6573d6000803e3d6000fd5b505050506040513d601f19601f820116820180604052508101906107ca9190610d0b565b6108035760405162461bcd60e51b815260206004820152600a602482015269216f776e6572526f6c6560b01b604482015260640161044a565b610e1081101580156108185750620151808111155b6108705760405162461bcd60e51b8152602060048201526024808201527f466174686f6d4f7261636c655072696365466565642f6261642d70726963652d6044820152636c69666560e01b606482015260840161044a565b606981905560405181815233907f472c5e14bb804bd7b201c5c27f2ea820980b37ef7611806e7b3f6db6758f32e09060200160405180910390a250565b600054610100900460ff16158080156108cd5750600054600160ff909116105b806108e75750303b1580156108e7575060005460ff166001145b61094a5760405162461bcd60e51b815260206004820152602e60248201527f496e697469616c697a61626c653a20636f6e747261637420697320616c72656160448201526d191e481a5b9a5d1a585b1a5e995960921b606482015260840161044a565b6000805460ff19166001179055801561096d576000805461ff0019166101001790555b610975610b3b565b606680546001600160a01b038085166001600160a01b03199283161790925560658054888416921691909117905583811690851603610a085760405162461bcd60e51b815260206004820152602960248201527f466174686f6d4f7261636c655072696365466565642f77726f6e672d746f6b656044820152686e302d746f6b656e3160b81b606482015260840161044a565b606780546001600160a01b038087166001600160a01b0319928316179092556068805492861692909116919091179055620151806069558015610a85576000805461ff0019169055604051600181527f7f26b83ff96e1f2b6a682f133852f6798a09c465da95921460cefb38474024989060200160405180910390a15b5050505050565b6000610a9782610b6a565b8015610aa6575060335460ff16155b92915050565b610ab4610b83565b6033805460ff191690557f5db9ee0a495bf2e6ff9c91a7834c1ba4fdd244a5e8aa4e537bd38aeae4b073aa335b6040516001600160a01b03909116815260200160405180910390a1565b610b06610bcc565b6033805460ff191660011790557f62e78cea01bee320cd4e420270b5ea74000d11b0c9f74754ebdbfc544b05a258610ae13390565b600054610100900460ff16610b625760405162461bcd60e51b815260040161044a90610d34565b61045b610c12565b600060695442610b7a9190610d7f565b90911015919050565b60335460ff1661045b5760405162461bcd60e51b815260206004820152601460248201527314185d5cd8589b194e881b9bdd081c185d5cd95960621b604482015260640161044a565b60335460ff161561045b5760405162461bcd60e51b815260206004820152601060248201526f14185d5cd8589b194e881c185d5cd95960821b604482015260640161044a565b600054610100900460ff16610c395760405162461bcd60e51b815260040161044a90610d34565b6033805460ff19169055565b600060208284031215610c5757600080fd5b5035919050565b80356001600160a01b0381168114610c7557600080fd5b919050565b60008060008060808587031215610c9057600080fd5b610c9985610c5e565b9350610ca760208601610c5e565b9250610cb560408601610c5e565b9150610cc360608601610c5e565b905092959194509250565b60008060408385031215610ce157600080fd5b505080516020909101519092909150565b600060208284031215610d0457600080fd5b5051919050565b600060208284031215610d1d57600080fd5b81518015158114610d2d57600080fd5b9392505050565b6020808252602b908201527f496e697469616c697a61626c653a20636f6e7472616374206973206e6f74206960408201526a6e697469616c697a696e6760a81b606082015260800190565b81810381811115610aa657634e487b7160e01b600052601160045260246000fdfea2646970667358221220068fa05c2472f2dbb0376b56a06a505a63d4a631215839a3ba913fc8731a33eb64736f6c63430008110033",
  "immutableReferences": {},
  "source": "// SPDX-License-Identifier: AGPL-3.0-or-later\n\npragma solidity 0.8.17;\n\nimport \"@openzeppelin/contracts-upgradeable/security/PausableUpgradeable.sol\";\n\nimport \"../interfaces/IPriceFeed.sol\";\nimport \"../interfaces/IFathomOracle.sol\";\nimport \"../interfaces/IAccessControlConfig.sol\";\n\ncontract FathomOraclePriceFeed is PausableUpgradeable, IPriceFeed {\n  IFathomOracle public fathomOracle;\n  IAccessControlConfig public accessControlConfig;\n  address public token0;\n  address public token1;\n  uint256 public priceLife; // [seconds] how old the price is considered stale, default 1 day\n\n  // --- Init ---\n  function initialize(\n    address _fathomOracle,\n    address _token0,\n    address _token1,\n    address _accessControlConfig\n  ) external initializer {\n    PausableUpgradeable.__Pausable_init();\n\n    accessControlConfig = IAccessControlConfig(_accessControlConfig);\n\n    fathomOracle = IFathomOracle(_fathomOracle);\n    require(_token0 != _token1, \"FathomOraclePriceFeed/wrong-token0-token1\");\n    token0 = _token0;\n    token1 = _token1;\n    priceLife = 1 days;\n  }\n\n  modifier onlyOwner() {\n    require(accessControlConfig.hasRole(accessControlConfig.OWNER_ROLE(), msg.sender), \"!ownerRole\");\n    _;\n  }\n\n  modifier onlyOwnerOrGov() {\n    require(\n      accessControlConfig.hasRole(accessControlConfig.OWNER_ROLE(), msg.sender) ||\n        accessControlConfig.hasRole(accessControlConfig.GOV_ROLE(), msg.sender),\n      \"!(ownerRole or govRole)\"\n    );\n    _;\n  }\n\n  event LogSetPriceLife(address indexed _caller, uint256 _second);\n\n  /// @dev access: OWNER_ROLE\n  function setPriceLife(uint256 _second) external onlyOwner {\n    require(_second >= 1 hours && _second <= 1 days, \"FathomOraclePriceFeed/bad-price-life\");\n    priceLife = _second;\n    emit LogSetPriceLife(msg.sender, _second);\n  }\n\n  /// @dev access: OWNER_ROLE, GOV_ROLE\n  function pause() external onlyOwnerOrGov {\n    _pause();\n  }\n\n  /// @dev access: OWNER_ROLE, GOV_ROLE\n  function unpause() external onlyOwnerOrGov {\n    _unpause();\n  }\n\n  function readPrice() external view override returns (bytes32) {\n    (uint256 _price, ) = fathomOracle.getPrice(token0, token1);\n    return bytes32(_price);\n  }\n\n  function peekPrice() external view override returns (bytes32, bool) {\n    // [wad], [seconds]\n    (uint256 _price, uint256 _lastUpdate) = fathomOracle.getPrice(token0, token1);\n    return (bytes32(_price), _isPriceOk(_lastUpdate));\n  }\n\n  function _isPriceFresh(uint256 _lastUpdate) internal view returns (bool) {\n    // solhint-disable not-rely-on-time\n    return _lastUpdate >= block.timestamp - priceLife;\n  }\n\n  function _isPriceOk(uint256 _lastUpdate) internal view returns (bool) {\n    return _isPriceFresh(_lastUpdate) && !paused();\n  }\n}\n",
  "sourcePath": "/Users/sangjun.lee/Sangjun/fathom-stablecoin-smart-contracts/contracts/8.17/price-feeders/FathomOraclePriceFeed.sol",
  "compiler": {
    "name": "solc",
    "version": "0.8.17+commit.8df45f5f.Emscripten.clang"
  },
  "schemaVersion": "3.4.10",
  "updatedAt": "2022-10-31T10:44:02.279Z",
  "devdoc": {
    "kind": "dev",
    "methods": {
      "pause()": {
        "details": "access: OWNER_ROLE, GOV_ROLE"
      },
      "paused()": {
        "details": "Returns true if the contract is paused, and false otherwise."
      },
      "setPriceLife(uint256)": {
        "details": "access: OWNER_ROLE"
      },
      "unpause()": {
        "details": "access: OWNER_ROLE, GOV_ROLE"
      }
    },
    "version": 1
  },
  "userdoc": {
    "kind": "user",
    "methods": {},
    "version": 1
  }
}