{
    "contractName": "FathomStablecoin",
    "abi": [
        {
            "anonymous": false,
            "inputs": [
                {
                    "indexed": true,
                    "internalType": "address",
                    "name": "src",
                    "type": "address"
                },
                {
                    "indexed": true,
                    "internalType": "address",
                    "name": "guy",
                    "type": "address"
                },
                {
                    "indexed": false,
                    "internalType": "uint256",
                    "name": "wad",
                    "type": "uint256"
                }
            ],
            "name": "Approval",
            "type": "event"
        },
        {
            "anonymous": false,
            "inputs": [
                {
                    "indexed": false,
                    "internalType": "uint8",
                    "name": "version",
                    "type": "uint8"
                }
            ],
            "name": "Initialized",
            "type": "event"
        },
        {
            "anonymous": false,
            "inputs": [
                {
                    "indexed": true,
                    "internalType": "bytes32",
                    "name": "role",
                    "type": "bytes32"
                },
                {
                    "indexed": true,
                    "internalType": "bytes32",
                    "name": "previousAdminRole",
                    "type": "bytes32"
                },
                {
                    "indexed": true,
                    "internalType": "bytes32",
                    "name": "newAdminRole",
                    "type": "bytes32"
                }
            ],
            "name": "RoleAdminChanged",
            "type": "event"
        },
        {
            "anonymous": false,
            "inputs": [
                {
                    "indexed": true,
                    "internalType": "bytes32",
                    "name": "role",
                    "type": "bytes32"
                },
                {
                    "indexed": true,
                    "internalType": "address",
                    "name": "account",
                    "type": "address"
                },
                {
                    "indexed": true,
                    "internalType": "address",
                    "name": "sender",
                    "type": "address"
                }
            ],
            "name": "RoleGranted",
            "type": "event"
        },
        {
            "anonymous": false,
            "inputs": [
                {
                    "indexed": true,
                    "internalType": "bytes32",
                    "name": "role",
                    "type": "bytes32"
                },
                {
                    "indexed": true,
                    "internalType": "address",
                    "name": "account",
                    "type": "address"
                },
                {
                    "indexed": true,
                    "internalType": "address",
                    "name": "sender",
                    "type": "address"
                }
            ],
            "name": "RoleRevoked",
            "type": "event"
        },
        {
            "anonymous": false,
            "inputs": [
                {
                    "indexed": true,
                    "internalType": "address",
                    "name": "src",
                    "type": "address"
                },
                {
                    "indexed": true,
                    "internalType": "address",
                    "name": "dst",
                    "type": "address"
                },
                {
                    "indexed": false,
                    "internalType": "uint256",
                    "name": "wad",
                    "type": "uint256"
                }
            ],
            "name": "Transfer",
            "type": "event"
        },
        {
            "inputs": [],
            "name": "DEFAULT_ADMIN_ROLE",
            "outputs": [
                {
                    "internalType": "bytes32",
                    "name": "",
                    "type": "bytes32"
                }
            ],
            "stateMutability": "view",
            "type": "function"
        },
        {
            "inputs": [],
            "name": "MINTER_ROLE",
            "outputs": [
                {
                    "internalType": "bytes32",
                    "name": "",
                    "type": "bytes32"
                }
            ],
            "stateMutability": "view",
            "type": "function"
        },
        {
            "inputs": [],
            "name": "OWNER_ROLE",
            "outputs": [
                {
                    "internalType": "bytes32",
                    "name": "",
                    "type": "bytes32"
                }
            ],
            "stateMutability": "view",
            "type": "function"
        },
        {
            "inputs": [
                {
                    "internalType": "address",
                    "name": "",
                    "type": "address"
                },
                {
                    "internalType": "address",
                    "name": "",
                    "type": "address"
                }
            ],
            "name": "allowance",
            "outputs": [
                {
                    "internalType": "uint256",
                    "name": "",
                    "type": "uint256"
                }
            ],
            "stateMutability": "view",
            "type": "function"
        },
        {
            "inputs": [
                {
                    "internalType": "address",
                    "name": "",
                    "type": "address"
                }
            ],
            "name": "balanceOf",
            "outputs": [
                {
                    "internalType": "uint256",
                    "name": "",
                    "type": "uint256"
                }
            ],
            "stateMutability": "view",
            "type": "function"
        },
        {
            "inputs": [],
            "name": "decimals",
            "outputs": [
                {
                    "internalType": "uint8",
                    "name": "",
                    "type": "uint8"
                }
            ],
            "stateMutability": "view",
            "type": "function"
        },
        {
            "inputs": [
                {
                    "internalType": "bytes32",
                    "name": "role",
                    "type": "bytes32"
                }
            ],
            "name": "getRoleAdmin",
            "outputs": [
                {
                    "internalType": "bytes32",
                    "name": "",
                    "type": "bytes32"
                }
            ],
            "stateMutability": "view",
            "type": "function"
        },
        {
            "inputs": [
                {
                    "internalType": "bytes32",
                    "name": "role",
                    "type": "bytes32"
                },
                {
                    "internalType": "address",
                    "name": "account",
                    "type": "address"
                }
            ],
            "name": "grantRole",
            "outputs": [],
            "stateMutability": "nonpayable",
            "type": "function"
        },
        {
            "inputs": [
                {
                    "internalType": "bytes32",
                    "name": "role",
                    "type": "bytes32"
                },
                {
                    "internalType": "address",
                    "name": "account",
                    "type": "address"
                }
            ],
            "name": "hasRole",
            "outputs": [
                {
                    "internalType": "bool",
                    "name": "",
                    "type": "bool"
                }
            ],
            "stateMutability": "view",
            "type": "function"
        },
        {
            "inputs": [],
            "name": "name",
            "outputs": [
                {
                    "internalType": "string",
                    "name": "",
                    "type": "string"
                }
            ],
            "stateMutability": "view",
            "type": "function"
        },
        {
            "inputs": [
                {
                    "internalType": "address",
                    "name": "",
                    "type": "address"
                }
            ],
            "name": "nonces",
            "outputs": [
                {
                    "internalType": "uint256",
                    "name": "",
                    "type": "uint256"
                }
            ],
            "stateMutability": "view",
            "type": "function"
        },
        {
            "inputs": [
                {
                    "internalType": "bytes32",
                    "name": "role",
                    "type": "bytes32"
                },
                {
                    "internalType": "address",
                    "name": "account",
                    "type": "address"
                }
            ],
            "name": "renounceRole",
            "outputs": [],
            "stateMutability": "nonpayable",
            "type": "function"
        },
        {
            "inputs": [
                {
                    "internalType": "bytes32",
                    "name": "role",
                    "type": "bytes32"
                },
                {
                    "internalType": "address",
                    "name": "account",
                    "type": "address"
                }
            ],
            "name": "revokeRole",
            "outputs": [],
            "stateMutability": "nonpayable",
            "type": "function"
        },
        {
            "inputs": [
                {
                    "internalType": "bytes4",
                    "name": "interfaceId",
                    "type": "bytes4"
                }
            ],
            "name": "supportsInterface",
            "outputs": [
                {
                    "internalType": "bool",
                    "name": "",
                    "type": "bool"
                }
            ],
            "stateMutability": "view",
            "type": "function"
        },
        {
            "inputs": [],
            "name": "symbol",
            "outputs": [
                {
                    "internalType": "string",
                    "name": "",
                    "type": "string"
                }
            ],
            "stateMutability": "view",
            "type": "function"
        },
        {
            "inputs": [],
            "name": "totalSupply",
            "outputs": [
                {
                    "internalType": "uint256",
                    "name": "",
                    "type": "uint256"
                }
            ],
            "stateMutability": "view",
            "type": "function"
        },
        {
            "inputs": [],
            "name": "version",
            "outputs": [
                {
                    "internalType": "string",
                    "name": "",
                    "type": "string"
                }
            ],
            "stateMutability": "view",
            "type": "function"
        },
        {
            "inputs": [
                {
                    "internalType": "string",
                    "name": "_name",
                    "type": "string"
                },
                {
                    "internalType": "string",
                    "name": "_symbol",
                    "type": "string"
                }
            ],
            "name": "initialize",
            "outputs": [],
            "stateMutability": "nonpayable",
            "type": "function"
        },
        {
            "inputs": [
                {
                    "internalType": "address",
                    "name": "_dst",
                    "type": "address"
                },
                {
                    "internalType": "uint256",
                    "name": "_wad",
                    "type": "uint256"
                }
            ],
            "name": "transfer",
            "outputs": [
                {
                    "internalType": "bool",
                    "name": "",
                    "type": "bool"
                }
            ],
            "stateMutability": "nonpayable",
            "type": "function"
        },
        {
            "inputs": [
                {
                    "internalType": "address",
                    "name": "_src",
                    "type": "address"
                },
                {
                    "internalType": "address",
                    "name": "_dst",
                    "type": "address"
                },
                {
                    "internalType": "uint256",
                    "name": "_wad",
                    "type": "uint256"
                }
            ],
            "name": "transferFrom",
            "outputs": [
                {
                    "internalType": "bool",
                    "name": "",
                    "type": "bool"
                }
            ],
            "stateMutability": "nonpayable",
            "type": "function"
        },
        {
            "inputs": [
                {
                    "internalType": "address",
                    "name": "_usr",
                    "type": "address"
                },
                {
                    "internalType": "uint256",
                    "name": "_wad",
                    "type": "uint256"
                }
            ],
            "name": "mint",
            "outputs": [],
            "stateMutability": "nonpayable",
            "type": "function"
        },
        {
            "inputs": [
                {
                    "internalType": "address",
                    "name": "_usr",
                    "type": "address"
                },
                {
                    "internalType": "uint256",
                    "name": "_wad",
                    "type": "uint256"
                }
            ],
            "name": "burn",
            "outputs": [],
            "stateMutability": "nonpayable",
            "type": "function"
        },
        {
            "inputs": [
                {
                    "internalType": "address",
                    "name": "_usr",
                    "type": "address"
                },
                {
                    "internalType": "uint256",
                    "name": "_wad",
                    "type": "uint256"
                }
            ],
            "name": "approve",
            "outputs": [
                {
                    "internalType": "bool",
                    "name": "",
                    "type": "bool"
                }
            ],
            "stateMutability": "nonpayable",
            "type": "function"
        },
        {
            "inputs": [
                {
                    "internalType": "address",
                    "name": "_usr",
                    "type": "address"
                },
                {
                    "internalType": "uint256",
                    "name": "_wad",
                    "type": "uint256"
                }
            ],
            "name": "push",
            "outputs": [],
            "stateMutability": "nonpayable",
            "type": "function"
        },
        {
            "inputs": [
                {
                    "internalType": "address",
                    "name": "_usr",
                    "type": "address"
                },
                {
                    "internalType": "uint256",
                    "name": "_wad",
                    "type": "uint256"
                }
            ],
            "name": "pull",
            "outputs": [],
            "stateMutability": "nonpayable",
            "type": "function"
        },
        {
            "inputs": [
                {
                    "internalType": "address",
                    "name": "_src",
                    "type": "address"
                },
                {
                    "internalType": "address",
                    "name": "_dst",
                    "type": "address"
                },
                {
                    "internalType": "uint256",
                    "name": "_wad",
                    "type": "uint256"
                }
            ],
            "name": "move",
            "outputs": [],
            "stateMutability": "nonpayable",
            "type": "function"
        }
    ],
    "bytecode": "0x608060405234801561001057600080fd5b50611524806100206000396000f3fe608060405234801561001057600080fd5b506004361061018e5760003560e01c80637ecebe00116100de578063b753a98c11610097578063d547741f11610071578063d547741f1461038e578063dd62ed3e146103a1578063e58378bb14610326578063f2d5d56b146103cc57600080fd5b8063b753a98c14610341578063bb35783b14610354578063d53913931461036757600080fd5b80637ecebe00146102d857806391d14854146102f857806395d89b411461030b5780639dc29fac14610313578063a217fddf14610326578063a9059cbb1461032e57600080fd5b80632f2ff15d1161014b57806340c10f191161012557806340c10f19146102725780634cd88b761461028557806354fd4d501461029857806370a08231146102b857600080fd5b80632f2ff15d14610230578063313ce5671461024557806336568abe1461025f57600080fd5b806301ffc9a71461019357806306fdde03146101bb578063095ea7b3146101d057806318160ddd146101e357806323b872dd146101fa578063248a9ca31461020d575b600080fd5b6101a66101a1366004610f91565b6103df565b60405190151581526020015b60405180910390f35b6101c3610416565b6040516101b29190610fdf565b6101a66101de36600461102e565b6104a4565b6101ec60995481565b6040519081526020016101b2565b6101a6610208366004611058565b610510565b6101ec61021b366004611094565b60009081526065602052604090206001015490565b61024361023e3660046110ad565b6106e2565b005b61024d601281565b60405160ff90911681526020016101b2565b61024361026d3660046110ad565b61070c565b61024361028036600461102e565b61078a565b61024361029336600461117c565b610880565b6101c3604051806040016040528060018152602001603160f81b81525081565b6101ec6102c63660046111e0565b609a6020526000908152604090205481565b6101ec6102e63660046111e0565b609c6020526000908152604090205481565b6101a66103063660046110ad565b6109b7565b6101c36109e2565b61024361032136600461102e565b6109ef565b6101ec600081565b6101a661033c36600461102e565b610b8a565b61024361034f36600461102e565b610b9e565b610243610362366004611058565b610ba9565b6101ec7f9f2df0fed2c77648de5860a4cc508cd0818c85b8b8a1ab4ceeef8d981c8956a681565b61024361039c3660046110ad565b610bba565b6101ec6103af3660046111fb565b609b60209081526000928352604080842090915290825290205481565b6102436103da36600461102e565b610bdf565b60006001600160e01b03198216637965db0b60e01b148061041057506301ffc9a760e01b6001600160e01b03198316145b92915050565b6097805461042390611225565b80601f016020809104026020016040519081016040528092919081815260200182805461044f90611225565b801561049c5780601f106104715761010080835404028352916020019161049c565b820191906000526020600020905b81548152906001019060200180831161047f57829003601f168201915b505050505081565b336000818152609b602090815260408083206001600160a01b038716808552925280832085905551919290917f8c5be1e5ebec7d5bd14f71427d1e84f3dd0314c0f7b2291e5b200ac8c7c3b925906104ff9086815260200190565b60405180910390a350600192915050565b6001600160a01b0383166000908152609a60205260408120548211156105515760405162461bcd60e51b81526004016105489061125f565b60405180910390fd5b6001600160a01b038416331480159061058f57506001600160a01b0384166000908152609b6020908152604080832033845290915290205460001914155b1561062a576001600160a01b0384166000908152609b602090815260408083203384529091529020548211156105d75760405162461bcd60e51b8152600401610548906112a4565b6001600160a01b0384166000908152609b602090815260408083203384529091529020546106059083610bea565b6001600160a01b0385166000908152609b602090815260408083203384529091529020555b6001600160a01b0384166000908152609a602052604090205461064d9083610bea565b6001600160a01b038086166000908152609a6020526040808220939093559085168152205461067c9083610c05565b6001600160a01b038085166000818152609a602052604090819020939093559151908616907fddf252ad1be2c89b69c2b068fc378daa952ba7f163c4a11628f55a4df523b3ef906106d09086815260200190565b60405180910390a35060019392505050565b6000828152606560205260409020600101546106fd81610c20565b6107078383610c2d565b505050565b6001600160a01b038116331461077c5760405162461bcd60e51b815260206004820152602f60248201527f416363657373436f6e74726f6c3a2063616e206f6e6c792072656e6f756e636560448201526e103937b632b9903337b91039b2b63360891b6064820152608401610548565b6107868282610cb3565b5050565b6107b47f9f2df0fed2c77648de5860a4cc508cd0818c85b8b8a1ab4ceeef8d981c8956a6336109b7565b6107ee5760405162461bcd60e51b815260206004820152600b60248201526a216d696e746572526f6c6560a81b6044820152606401610548565b6001600160a01b0382166000908152609a60205260409020546108119082610c05565b6001600160a01b0383166000908152609a60205260409020556099546108379082610c05565b6099556040518181526001600160a01b038316906000907fddf252ad1be2c89b69c2b068fc378daa952ba7f163c4a11628f55a4df523b3ef906020015b60405180910390a35050565b600054610100900460ff16158080156108a05750600054600160ff909116105b806108ba5750303b1580156108ba575060005460ff166001145b61091d5760405162461bcd60e51b815260206004820152602e60248201527f496e697469616c697a61626c653a20636f6e747261637420697320616c72656160448201526d191e481a5b9a5d1a585b1a5e995960921b6064820152608401610548565b6000805460ff191660011790558015610940576000805461ff0019166101001790555b610948610d1a565b60976109548482611339565b5060986109618382611339565b5061096d600033610d87565b8015610707576000805461ff0019169055604051600181527f7f26b83ff96e1f2b6a682f133852f6798a09c465da95921460cefb38474024989060200160405180910390a1505050565b60009182526065602090815260408084206001600160a01b0393909316845291905290205460ff1690565b6098805461042390611225565b6001600160a01b0382166000908152609a6020526040902054811115610a275760405162461bcd60e51b81526004016105489061125f565b6001600160a01b0382163314801590610a6557506001600160a01b0382166000908152609b6020908152604080832033845290915290205460001914155b15610b00576001600160a01b0382166000908152609b60209081526040808320338452909152902054811115610aad5760405162461bcd60e51b8152600401610548906112a4565b6001600160a01b0382166000908152609b60209081526040808320338452909152902054610adb9082610bea565b6001600160a01b0383166000908152609b602090815260408083203384529091529020555b6001600160a01b0382166000908152609a6020526040902054610b239082610bea565b6001600160a01b0383166000908152609a6020526040902055609954610b499082610bea565b6099556040518181526000906001600160a01b038416907fddf252ad1be2c89b69c2b068fc378daa952ba7f163c4a11628f55a4df523b3ef90602001610874565b6000610b97338484610510565b9392505050565b610707338383610510565b610bb4838383610510565b50505050565b600082815260656020526040902060010154610bd581610c20565b6107078383610cb3565b610707823383610510565b600082610bf7838261140f565b915081111561041057600080fd5b600082610c128382611422565b915081101561041057600080fd5b610c2a8133610d91565b50565b610c3782826109b7565b6107865760008281526065602090815260408083206001600160a01b03851684529091529020805460ff19166001179055610c6f3390565b6001600160a01b0316816001600160a01b0316837f2f8788117e7eff1d82e926ec794901d17c78024a50270940304540a733656f0d60405160405180910390a45050565b610cbd82826109b7565b156107865760008281526065602090815260408083206001600160a01b0385168085529252808320805460ff1916905551339285917ff6391f5c32d9c69d2a47ea670b442974b53935d1edc7fd64eb21e047a839171b9190a45050565b600054610100900460ff16610d855760405162461bcd60e51b815260206004820152602b60248201527f496e697469616c697a61626c653a20636f6e7472616374206973206e6f74206960448201526a6e697469616c697a696e6760a81b6064820152608401610548565b565b6107868282610c2d565b610d9b82826109b7565b61078657610db3816001600160a01b03166014610df5565b610dbe836020610df5565b604051602001610dcf929190611435565b60408051601f198184030181529082905262461bcd60e51b825261054891600401610fdf565b60606000610e048360026114aa565b610e0f906002611422565b67ffffffffffffffff811115610e2757610e276110d9565b6040519080825280601f01601f191660200182016040528015610e51576020820181803683370190505b509050600360fc1b81600081518110610e6c57610e6c6114c1565b60200101906001600160f81b031916908160001a905350600f60fb1b81600181518110610e9b57610e9b6114c1565b60200101906001600160f81b031916908160001a9053506000610ebf8460026114aa565b610eca906001611422565b90505b6001811115610f42576f181899199a1a9b1b9c1cb0b131b232b360811b85600f1660108110610efe57610efe6114c1565b1a60f81b828281518110610f1457610f146114c1565b60200101906001600160f81b031916908160001a90535060049490941c93610f3b816114d7565b9050610ecd565b508315610b975760405162461bcd60e51b815260206004820181905260248201527f537472696e67733a20686578206c656e67746820696e73756666696369656e746044820152606401610548565b600060208284031215610fa357600080fd5b81356001600160e01b031981168114610b9757600080fd5b60005b83811015610fd6578181015183820152602001610fbe565b50506000910152565b6020815260008251806020840152610ffe816040850160208701610fbb565b601f01601f19169190910160400192915050565b80356001600160a01b038116811461102957600080fd5b919050565b6000806040838503121561104157600080fd5b61104a83611012565b946020939093013593505050565b60008060006060848603121561106d57600080fd5b61107684611012565b925061108460208501611012565b9150604084013590509250925092565b6000602082840312156110a657600080fd5b5035919050565b600080604083850312156110c057600080fd5b823591506110d060208401611012565b90509250929050565b634e487b7160e01b600052604160045260246000fd5b600082601f83011261110057600080fd5b813567ffffffffffffffff8082111561111b5761111b6110d9565b604051601f8301601f19908116603f01168101908282118183101715611143576111436110d9565b8160405283815286602085880101111561115c57600080fd5b836020870160208301376000602085830101528094505050505092915050565b6000806040838503121561118f57600080fd5b823567ffffffffffffffff808211156111a757600080fd5b6111b3868387016110ef565b935060208501359150808211156111c957600080fd5b506111d6858286016110ef565b9150509250929050565b6000602082840312156111f257600080fd5b610b9782611012565b6000806040838503121561120e57600080fd5b61121783611012565b91506110d060208401611012565b600181811c9082168061123957607f821691505b60208210810361125957634e487b7160e01b600052602260045260246000fd5b50919050565b60208082526025908201527f466174686f6d537461626c65636f696e2f696e73756666696369656e742d62616040820152646c616e636560d81b606082015260800190565b60208082526027908201527f466174686f6d537461626c65636f696e2f696e73756666696369656e742d616c6040820152666c6f77616e636560c81b606082015260800190565b601f82111561070757600081815260208120601f850160051c810160208610156113125750805b601f850160051c820191505b818110156113315782815560010161131e565b505050505050565b815167ffffffffffffffff811115611353576113536110d9565b611367816113618454611225565b846112eb565b602080601f83116001811461139c57600084156113845750858301515b600019600386901b1c1916600185901b178555611331565b600085815260208120601f198616915b828110156113cb578886015182559484019460019091019084016113ac565b50858210156113e95787850151600019600388901b60f8161c191681555b5050505050600190811b01905550565b634e487b7160e01b600052601160045260246000fd5b81810381811115610410576104106113f9565b80820180821115610410576104106113f9565b7f416363657373436f6e74726f6c3a206163636f756e742000000000000000000081526000835161146d816017850160208801610fbb565b7001034b99036b4b9b9b4b733903937b6329607d1b601791840191820152835161149e816028840160208801610fbb565b01602801949350505050565b8082028115828204841417610410576104106113f9565b634e487b7160e01b600052603260045260246000fd5b6000816114e6576114e66113f9565b50600019019056fea264697066735822122074432ad0558e5bce34bbe6c0ba0377510d01e4931d5b222311eedfbe4daf476d64736f6c63430008110033",
    "immutableReferences": {},
    "source": "// SPDX-License-Identifier: AGPL-3.0-or-later\n\npragma solidity 0.8.17;\n\nimport \"@openzeppelin/contracts-upgradeable/access/AccessControlUpgradeable.sol\";\n\nimport \"../interfaces/IStablecoin.sol\";\n\n// FIXME: This contract was altered compared to the production version.\n// It doesn't use LibNote anymore.\n// New deployments of this contract will need to include custom events (TO DO).\n\ncontract FathomStablecoin is IStablecoin, AccessControlUpgradeable {\n  bytes32 public constant OWNER_ROLE = DEFAULT_ADMIN_ROLE;\n  bytes32 public constant MINTER_ROLE = keccak256(\"MINTER_ROLE\");\n\n  // --- ERC20 Data ---\n  string public name; // Fathom USD Stablecoin\n  string public symbol; // FUSD\n  string public constant version = \"1\";\n  uint8 public constant override decimals = 18;\n  uint256 public totalSupply;\n\n  mapping(address => uint256) public override balanceOf;\n  mapping(address => mapping(address => uint256)) public allowance;\n  mapping(address => uint256) public nonces;\n\n  event Approval(address indexed src, address indexed guy, uint256 wad);\n  event Transfer(address indexed src, address indexed dst, uint256 wad);\n\n  // --- Math ---\n  function add(uint256 _x, uint256 _y) internal pure returns (uint256 _z) {\n    require((_z = _x + _y) >= _x);\n  }\n\n  function sub(uint256 _x, uint256 _y) internal pure returns (uint256 _z) {\n    require((_z = _x - _y) <= _x);\n  }\n\n  // --- Init ---\n  function initialize(string memory _name, string memory _symbol) external initializer {\n    AccessControlUpgradeable.__AccessControl_init();\n\n    name = _name;\n    symbol = _symbol;\n\n    // Grant the contract deployer the default admin role: it will be able\n    // to grant and revoke any roles\n    _setupRole(OWNER_ROLE, msg.sender);\n  }\n\n  // --- Token ---\n  function transfer(address _dst, uint256 _wad) external override returns (bool) {\n    return transferFrom(msg.sender, _dst, _wad);\n  }\n\n  function transferFrom(\n    address _src,\n    address _dst,\n    uint256 _wad\n  ) public override returns (bool) {\n    require(balanceOf[_src] >= _wad, \"FathomStablecoin/insufficient-balance\");\n    if (_src != msg.sender && allowance[_src][msg.sender] != type(uint).max) {\n      require(allowance[_src][msg.sender] >= _wad, \"FathomStablecoin/insufficient-allowance\");\n      allowance[_src][msg.sender] = sub(allowance[_src][msg.sender], _wad);\n    }\n    balanceOf[_src] = sub(balanceOf[_src], _wad);\n    balanceOf[_dst] = add(balanceOf[_dst], _wad);\n    emit Transfer(_src, _dst, _wad);\n    return true;\n  }\n\n  /// @dev access: MINTER_ROLE\n  function mint(address _usr, uint256 _wad) external override {\n    require(hasRole(MINTER_ROLE, msg.sender), \"!minterRole\");\n\n    balanceOf[_usr] = add(balanceOf[_usr], _wad);\n    totalSupply = add(totalSupply, _wad);\n    emit Transfer(address(0), _usr, _wad);\n  }\n\n  function burn(address _usr, uint256 _wad) external override {\n    require(balanceOf[_usr] >= _wad, \"FathomStablecoin/insufficient-balance\");\n    if (_usr != msg.sender && allowance[_usr][msg.sender] != type(uint).max) {\n      require(allowance[_usr][msg.sender] >= _wad, \"FathomStablecoin/insufficient-allowance\");\n      allowance[_usr][msg.sender] = sub(allowance[_usr][msg.sender], _wad);\n    }\n    balanceOf[_usr] = sub(balanceOf[_usr], _wad);\n    totalSupply = sub(totalSupply, _wad);\n    emit Transfer(_usr, address(0), _wad);\n  }\n\n  function approve(address _usr, uint256 _wad) external override returns (bool) {\n    allowance[msg.sender][_usr] = _wad;\n    emit Approval(msg.sender, _usr, _wad);\n    return true;\n  }\n\n  // --- Alias ---\n  function push(address _usr, uint256 _wad) external {\n    transferFrom(msg.sender, _usr, _wad);\n  }\n\n  function pull(address _usr, uint256 _wad) external {\n    transferFrom(_usr, msg.sender, _wad);\n  }\n\n  function move(\n    address _src,\n    address _dst,\n    uint256 _wad\n  ) external {\n    transferFrom(_src, _dst, _wad);\n  }\n}\n",
    "sourcePath": "/Users/sangjun.lee/Sangjun/fathom-stablecoin-smart-contracts/contracts/8.17/stablecoin-core/FathomStablecoin.sol",
    "compiler": {
        "name": "solc",
        "version": "0.8.17+commit.8df45f5f.Emscripten.clang"
    },
    "schemaVersion": "3.4.10",
    "updatedAt": "2022-10-27T10:35:28.636Z",
    "devdoc": {
        "kind": "dev",
        "methods": {
            "getRoleAdmin(bytes32)": {
                "details": "Returns the admin role that controls `role`. See {grantRole} and {revokeRole}. To change a role's admin, use {_setRoleAdmin}."
            },
            "grantRole(bytes32,address)": {
                "details": "Grants `role` to `account`. If `account` had not been already granted `role`, emits a {RoleGranted} event. Requirements: - the caller must have ``role``'s admin role. May emit a {RoleGranted} event."
            },
            "hasRole(bytes32,address)": {
                "details": "Returns `true` if `account` has been granted `role`."
            },
            "mint(address,uint256)": {
                "details": "access: MINTER_ROLE"
            },
            "renounceRole(bytes32,address)": {
                "details": "Revokes `role` from the calling account. Roles are often managed via {grantRole} and {revokeRole}: this function's purpose is to provide a mechanism for accounts to lose their privileges if they are compromised (such as when a trusted device is misplaced). If the calling account had been revoked `role`, emits a {RoleRevoked} event. Requirements: - the caller must be `account`. May emit a {RoleRevoked} event."
            },
            "revokeRole(bytes32,address)": {
                "details": "Revokes `role` from `account`. If `account` had been granted `role`, emits a {RoleRevoked} event. Requirements: - the caller must have ``role``'s admin role. May emit a {RoleRevoked} event."
            },
            "supportsInterface(bytes4)": {
                "details": "See {IERC165-supportsInterface}."
            }
        },
        "version": 1
    },
    "userdoc": {
        "kind": "user",
        "methods": {},
        "version": 1
    }
}