{
  "contractName": "FathomStats",
  "abi": [
    {
      "anonymous": false,
      "inputs": [
        {
          "indexed": false,
          "internalType": "uint8",
          "name": "version",
          "type": "uint8"
        }
      ],
      "name": "Initialized",
      "type": "event"
    },
    {
      "anonymous": false,
      "inputs": [
        {
          "indexed": false,
          "internalType": "address",
          "name": "account",
          "type": "address"
        }
      ],
      "name": "Paused",
      "type": "event"
    },
    {
      "anonymous": false,
      "inputs": [
        {
          "indexed": false,
          "internalType": "address",
          "name": "account",
          "type": "address"
        }
      ],
      "name": "Unpaused",
      "type": "event"
    },
    {
      "inputs": [],
      "name": "BookKeeper",
      "outputs": [
        {
          "internalType": "address",
          "name": "",
          "type": "address"
        }
      ],
      "stateMutability": "view",
      "type": "function"
    },
    {
      "inputs": [],
      "name": "CollateralPoolConfig",
      "outputs": [
        {
          "internalType": "address",
          "name": "",
          "type": "address"
        }
      ],
      "stateMutability": "view",
      "type": "function"
    },
    {
      "inputs": [],
      "name": "CollateralPoolId",
      "outputs": [
        {
          "internalType": "bytes32",
          "name": "",
          "type": "bytes32"
        }
      ],
      "stateMutability": "view",
      "type": "function"
    },
    {
      "inputs": [],
      "name": "DEXPriceOracle",
      "outputs": [
        {
          "internalType": "address",
          "name": "",
          "type": "address"
        }
      ],
      "stateMutability": "view",
      "type": "function"
    },
    {
      "inputs": [],
      "name": "FTHM",
      "outputs": [
        {
          "internalType": "address",
          "name": "",
          "type": "address"
        }
      ],
      "stateMutability": "view",
      "type": "function"
    },
    {
      "inputs": [],
      "name": "FXD",
      "outputs": [
        {
          "internalType": "address",
          "name": "",
          "type": "address"
        }
      ],
      "stateMutability": "view",
      "type": "function"
    },
    {
      "inputs": [],
      "name": "FairLaunch",
      "outputs": [
        {
          "internalType": "address",
          "name": "",
          "type": "address"
        }
      ],
      "stateMutability": "view",
      "type": "function"
    },
    {
      "inputs": [],
      "name": "USDT",
      "outputs": [
        {
          "internalType": "address",
          "name": "",
          "type": "address"
        }
      ],
      "stateMutability": "view",
      "type": "function"
    },
    {
      "inputs": [],
      "name": "WXDC",
      "outputs": [
        {
          "internalType": "address",
          "name": "",
          "type": "address"
        }
      ],
      "stateMutability": "view",
      "type": "function"
    },
    {
      "inputs": [],
      "name": "paused",
      "outputs": [
        {
          "internalType": "bool",
          "name": "",
          "type": "bool"
        }
      ],
      "stateMutability": "view",
      "type": "function"
    },
    {
      "inputs": [
        {
          "internalType": "address",
          "name": "bookKeeper",
          "type": "address"
        },
        {
          "internalType": "address",
          "name": "fairLaunch",
          "type": "address"
        },
        {
          "internalType": "address",
          "name": "wxdc",
          "type": "address"
        },
        {
          "internalType": "address",
          "name": "usdt",
          "type": "address"
        },
        {
          "internalType": "address",
          "name": "fxd",
          "type": "address"
        },
        {
          "internalType": "address",
          "name": "dEXPriceOracle",
          "type": "address"
        },
        {
          "internalType": "bytes32",
          "name": "collateralPoolId",
          "type": "bytes32"
        },
        {
          "internalType": "address",
          "name": "collateralPoolConfig",
          "type": "address"
        },
        {
          "internalType": "address",
          "name": "fthm",
          "type": "address"
        }
      ],
      "name": "initialize",
      "outputs": [],
      "stateMutability": "nonpayable",
      "type": "function"
    },
    {
      "inputs": [],
      "name": "getFathomInfo",
      "outputs": [
        {
          "components": [
            {
              "internalType": "uint256",
              "name": "fathomSupplyCap",
              "type": "uint256"
            },
            {
              "internalType": "uint256",
              "name": "totalValueLocked",
              "type": "uint256"
            },
            {
              "internalType": "uint256",
              "name": "FXDPriceFromDex",
              "type": "uint256"
            },
            {
              "internalType": "uint256",
              "name": "liquidationRatio",
              "type": "uint256"
            },
            {
              "internalType": "uint256",
              "name": "closeFactor",
              "type": "uint256"
            }
          ],
          "internalType": "struct FathomStats.FathomInfo",
          "name": "",
          "type": "tuple"
        }
      ],
      "stateMutability": "view",
      "type": "function"
    },
    {
      "inputs": [],
      "name": "getWXDCPrice",
      "outputs": [
        {
          "internalType": "uint256",
          "name": "",
          "type": "uint256"
        }
      ],
      "stateMutability": "view",
      "type": "function"
    },
    {
      "inputs": [],
      "name": "getFTHMPrice",
      "outputs": [
        {
          "internalType": "uint256",
          "name": "",
          "type": "uint256"
        }
      ],
      "stateMutability": "view",
      "type": "function"
    }
  ],
  "bytecode": "0x608060405234801561001057600080fd5b50610a49806100206000396000f3fe608060405234801561001057600080fd5b50600436106100ea5760003560e01c80639dc57e661161008c578063c54e44eb11610066578063c54e44eb146101bb578063c6587c69146101ce578063cd64e420146101e3578063dd9149e11461022d57600080fd5b80639dc57e6614610182578063a23794e514610195578063abac618f146101a857600080fd5b806348994a9e116100c857806348994a9e1461013d5780635c975abb1461015057806388734cf014610166578063908eb6211461016f57600080fd5b80631616d75c146100ef5780632929e7961461010a5780632df0a5c314610112575b600080fd5b6100f7610240565b6040519081526020015b60405180910390f35b6100f76102c6565b606a54610125906001600160a01b031681565b6040516001600160a01b039091168152602001610101565b606654610125906001600160a01b031681565b60335460ff166040519015158152602001610101565b6100f7606c5481565b606954610125906001600160a01b031681565b606554610125906001600160a01b031681565b606d54610125906001600160a01b031681565b606b54610125906001600160a01b031681565b606854610125906001600160a01b031681565b6101e16101dc3660046108cd565b610309565b005b6101eb61049e565b6040516101019190600060a082019050825182526020830151602083015260408301516040830152606083015160608301526080830151608083015292915050565b606754610125906001600160a01b031681565b606b54606854606754604051635620c32d60e11b81526001600160a01b03928316600482015290821660248201526000928392169063ac41865a906044015b6040805180830381865afa15801561029b573d6000803e3d6000fd5b505050506040513d601f19601f820116820180604052508101906102bf919061096e565b5092915050565b606b54606854606a54604051635620c32d60e11b81526001600160a01b03928316600482015290821660248201526000928392169063ac41865a9060440161027f565b600054610100900460ff16158080156103295750600054600160ff909116105b806103435750303b158015610343575060005460ff166001145b6103aa5760405162461bcd60e51b815260206004820152602e60248201527f496e697469616c697a61626c653a20636f6e747261637420697320616c72656160448201526d191e481a5b9a5d1a585b1a5e995960921b606482015260840160405180910390fd5b6000805460ff1916600117905580156103cd576000805461ff0019166101001790555b606580546001600160a01b03199081166001600160a01b038d8116919091179092556066805482168c84161790556067805482168b84161790556068805482168a8416179055606980548216898416179055606b80548216888416179055606c869055606d80548216868416179055606a80549091169184169190911790558015610492576000805461ff0019169055604051600181527f7f26b83ff96e1f2b6a682f133852f6798a09c465da95921460cefb38474024989060200160405180910390a15b50505050505050505050565b6104d06040518060a0016040528060008152602001600081526020016000815260200160008152602001600081525090565b6105026040518060a0016040528060008152602001600081526020016000815260200160008152602001600081525090565b60655460408051635b2a512160e01b81529051722cd76fe086b93ce2f768a00b22a00000000000926001600160a01b031691635b2a51219160048083019260209291908290030181865afa15801561055e573d6000803e3d6000fd5b505050506040513d601f19601f820116820180604052508101906105829190610992565b61058c91906109c1565b81526067546066546040516370a0823160e01b81526001600160a01b03918216600482015260009291909116906370a0823190602401602060405180830381865afa1580156105df573d6000803e3d6000fd5b505050506040513d601f19601f820116820180604052508101906106039190610992565b606b54606854606754604051635620c32d60e11b81526001600160a01b039283166004820152908216602482015292935060009291169063ac41865a906044016040805180830381865afa15801561065f573d6000803e3d6000fd5b505050506040513d601f19601f82011682018060405250810190610683919061096e565b506068546066546040516370a0823160e01b81526001600160a01b0391821660048201529293506000929116906370a0823190602401602060405180830381865afa1580156106d6573d6000803e3d6000fd5b505050506040513d601f19601f820116820180604052508101906106fa9190610992565b905080670de0b6b3a764000061071084866109e3565b61071a91906109c1565b6107249190610a00565b6020850152606b54606854606954604051635620c32d60e11b81526001600160a01b0392831660048201529082166024820152600092919091169063ac41865a906044016040805180830381865afa158015610784573d6000803e3d6000fd5b505050506040513d601f19601f820116820180604052508101906107a8919061096e565b506040808701829052606d54606c5491516344d0c93760e01b81529293506001600160a01b0316916344d0c937916107e69160040190815260200190565b602060405180830381865afa158015610803573d6000803e3d6000fd5b505050506040513d601f19601f820116820180604052508101906108279190610992565b6060860152606d54606c5460405163e73bbc7960e01b81526001600160a01b039092169163e73bbc79916108619160040190815260200190565b602060405180830381865afa15801561087e573d6000803e3d6000fd5b505050506040513d601f19601f820116820180604052508101906108a29190610992565b60808601525092949350505050565b80356001600160a01b03811681146108c857600080fd5b919050565b60008060008060008060008060006101208a8c0312156108ec57600080fd5b6108f58a6108b1565b985061090360208b016108b1565b975061091160408b016108b1565b965061091f60608b016108b1565b955061092d60808b016108b1565b945061093b60a08b016108b1565b935060c08a0135925061095060e08b016108b1565b915061095f6101008b016108b1565b90509295985092959850929598565b6000806040838503121561098157600080fd5b505080516020909101519092909150565b6000602082840312156109a457600080fd5b5051919050565b634e487b7160e01b600052601160045260246000fd5b6000826109de57634e487b7160e01b600052601260045260246000fd5b500490565b80820281158282048414176109fa576109fa6109ab565b92915050565b808201808211156109fa576109fa6109ab56fea264697066735822122047a56f0f06d8eab6c9f76934fc28e80a73918d3699143d8d0df84dcb2fe8d83764736f6c63430008110033",
  "immutableReferences": {},
  "source": "// SPDX-License-Identifier: AGPL-3.0-or-later\n\npragma solidity 0.8.17;\npragma experimental ABIEncoderV2;\nimport \"@openzeppelin/contracts-upgradeable/security/PausableUpgradeable.sol\";\n\n\nimport \"./interfaces/IBookKeeper.sol\";\nimport \"./interfaces/IDEXPriceOracle.sol\";\nimport \"./interfaces/IERC20.sol\";\nimport \"./interfaces/ICollateralPoolConfig.sol\";\n\ncontract FathomStats is PausableUpgradeable{\n  // --- Math ---\n  uint256 constant WAD = 10**18;\n  uint256 constant RAY = 10**27;\n  uint256 constant RAD = 10**45;\n\n  // --- Data ---\n  address public BookKeeper;\n  address public FairLaunch;\n  address public WXDC;\n  address public USDT;\n  address public FXD;\n  address public FTHM;\n  address public DEXPriceOracle;\n  bytes32 public CollateralPoolId;\n  address public CollateralPoolConfig;\n  // --- Structs ---\n  struct FathomInfo {\n      uint256 fathomSupplyCap; // not in WAD. Plain balance that usr usually think\n      uint256 totalValueLocked; //WAD but in dollar\n      uint256 FXDPriceFromDex; //WAD but in dollar\n      uint256 liquidationRatio; //RAY <-reverse of LTV\n      uint256 closeFactor;\n  }\n\n  struct PoolInfo {\n      uint256 collateralLockedInPool;\n      uint256 collateralAvailableToWithdraw;\n      uint256 FXDBorrowed;\n      uint256 FXDAvailableToBorrow;\n      uint256 debtRatio; //Pool Specific LTV at the moment\n      uint256 liquidationRatio; //Maximum Debt Ratio\n      uint256 liquidatorIncentiveBps; // it will give 10500, which is 1.05\n  }\n    //   uint256 stabilityFeeRate; // Collateral-specific, per-second stability fee debtAccumulatedRate or mint interest debtAccumulatedRate [ray]\n\n//needs to expend \n  struct PositionInfo {\n      uint256 collatralAmount;\n      uint256 debtShare; // how much FXD borrowed\n      uint256 positionLTV;\n  }\n\n  function initialize(address bookKeeper, address fairLaunch, address wxdc, address usdt, address fxd, address dEXPriceOracle, bytes32 collateralPoolId, address collateralPoolConfig, address fthm) external initializer {\n      BookKeeper = bookKeeper;\n      FairLaunch = fairLaunch;\n      WXDC = wxdc;\n      USDT = usdt;\n      FXD = fxd;\n      DEXPriceOracle = dEXPriceOracle;\n      CollateralPoolId = collateralPoolId;\n      CollateralPoolConfig = collateralPoolConfig;\n      FTHM = fthm;\n  }\n\n  function getFathomInfo() external view returns (FathomInfo memory) {\n      FathomInfo memory fathomInfo;\n      fathomInfo.fathomSupplyCap = IBookKeeper(BookKeeper).totalDebtCeiling() / RAD;\n      uint256 WXDCLocked = IERC20(WXDC).balanceOf(FairLaunch);\n      (uint256 WXDCPrice, ) = IDEXPriceOracle(DEXPriceOracle).getPrice(USDT, WXDC);\n      uint256 USDTLocked = IERC20(USDT).balanceOf(FairLaunch);\n      fathomInfo.totalValueLocked = WXDCLocked * WXDCPrice / WAD + USDTLocked;\n                                    //WAD          WAD      WAD    WAD\n      (uint256 FXDPrice, ) = IDEXPriceOracle(DEXPriceOracle).getPrice(USDT, FXD);\n    //   uint256 FXDPrice = 987000000000000000;\n\n      fathomInfo.FXDPriceFromDex = FXDPrice;\n      fathomInfo.liquidationRatio =  ICollateralPoolConfig(CollateralPoolConfig).getLiquidationRatio(CollateralPoolId);\n      fathomInfo.closeFactor = ICollateralPoolConfig(CollateralPoolConfig).getCloseFactorBps(CollateralPoolId);\n      return fathomInfo;\n          //   fathomInfo.MaxLTVProtocol =  1 / ICollateralPoolConfig(CollateralPoolConfig).getLiquidationRatio(CollateralPoolId) / RAY * 100;\n    //   fathomInfo.stabilityFeeRate = ICollateralPoolConfig(CollateralPoolConfig).getStabilityFeeRate(CollateralPoolId);\n  }\n\n  function getWXDCPrice() external view returns (uint256) {\n      (uint256 WXDCPrice, ) = IDEXPriceOracle(DEXPriceOracle).getPrice(USDT, WXDC);\n      return WXDCPrice;\n  }\n  function getFTHMPrice() external view returns (uint256) {\n      (uint256 FTHMPrice, ) = IDEXPriceOracle(DEXPriceOracle).getPrice(USDT, FTHM);\n      return FTHMPrice;\n  }\n}\n\n\n\n\n\n\n\n\n\n\n",
  "sourcePath": "/Users/sangjun.lee/Sangjun/fathom-stablecoin-smart-contracts/contracts/8.17/stats/FathomStats.sol",
  "compiler": {
    "name": "solc",
    "version": "0.8.17+commit.8df45f5f.Emscripten.clang"
  },
  "schemaVersion": "3.4.10",
  "updatedAt": "2022-11-24T09:45:49.421Z",
  "devdoc": {
    "kind": "dev",
    "methods": {
      "paused()": {
        "details": "Returns true if the contract is paused, and false otherwise."
      }
    },
    "version": 1
  },
  "userdoc": {
    "kind": "user",
    "methods": {},
    "version": 1
  }
}