{
  "contractName": "FathomToken",
  "abi": [
    {
      "inputs": [
        {
          "internalType": "uint256",
          "name": "_startReleaseBlock",
          "type": "uint256"
        },
        {
          "internalType": "uint256",
          "name": "_endReleaseBlock",
          "type": "uint256"
        }
      ],
      "stateMutability": "nonpayable",
      "type": "constructor"
    },
    {
      "anonymous": false,
      "inputs": [
        {
          "indexed": true,
          "internalType": "address",
          "name": "owner",
          "type": "address"
        },
        {
          "indexed": true,
          "internalType": "address",
          "name": "spender",
          "type": "address"
        },
        {
          "indexed": false,
          "internalType": "uint256",
          "name": "value",
          "type": "uint256"
        }
      ],
      "name": "Approval",
      "type": "event"
    },
    {
      "anonymous": false,
      "inputs": [
        {
          "indexed": true,
          "internalType": "address",
          "name": "delegator",
          "type": "address"
        },
        {
          "indexed": true,
          "internalType": "address",
          "name": "fromDelegate",
          "type": "address"
        },
        {
          "indexed": true,
          "internalType": "address",
          "name": "toDelegate",
          "type": "address"
        }
      ],
      "name": "DelegateChanged",
      "type": "event"
    },
    {
      "anonymous": false,
      "inputs": [
        {
          "indexed": true,
          "internalType": "address",
          "name": "delegate",
          "type": "address"
        },
        {
          "indexed": false,
          "internalType": "uint256",
          "name": "previousBalance",
          "type": "uint256"
        },
        {
          "indexed": false,
          "internalType": "uint256",
          "name": "newBalance",
          "type": "uint256"
        }
      ],
      "name": "DelegateVotesChanged",
      "type": "event"
    },
    {
      "anonymous": false,
      "inputs": [
        {
          "indexed": true,
          "internalType": "address",
          "name": "to",
          "type": "address"
        },
        {
          "indexed": false,
          "internalType": "uint256",
          "name": "value",
          "type": "uint256"
        }
      ],
      "name": "Lock",
      "type": "event"
    },
    {
      "anonymous": false,
      "inputs": [
        {
          "indexed": true,
          "internalType": "address",
          "name": "previousOwner",
          "type": "address"
        },
        {
          "indexed": true,
          "internalType": "address",
          "name": "newOwner",
          "type": "address"
        }
      ],
      "name": "OwnershipTransferred",
      "type": "event"
    },
    {
      "anonymous": false,
      "inputs": [
        {
          "indexed": true,
          "internalType": "address",
          "name": "from",
          "type": "address"
        },
        {
          "indexed": true,
          "internalType": "address",
          "name": "to",
          "type": "address"
        },
        {
          "indexed": false,
          "internalType": "uint256",
          "name": "value",
          "type": "uint256"
        }
      ],
      "name": "Transfer",
      "type": "event"
    },
    {
      "inputs": [],
      "name": "DELEGATION_TYPEHASH",
      "outputs": [
        {
          "internalType": "bytes32",
          "name": "",
          "type": "bytes32"
        }
      ],
      "stateMutability": "view",
      "type": "function"
    },
    {
      "inputs": [],
      "name": "DOMAIN_TYPEHASH",
      "outputs": [
        {
          "internalType": "bytes32",
          "name": "",
          "type": "bytes32"
        }
      ],
      "stateMutability": "view",
      "type": "function"
    },
    {
      "inputs": [],
      "name": "MANUAL_MINT_LIMIT",
      "outputs": [
        {
          "internalType": "uint256",
          "name": "",
          "type": "uint256"
        }
      ],
      "stateMutability": "view",
      "type": "function"
    },
    {
      "inputs": [
        {
          "internalType": "address",
          "name": "owner",
          "type": "address"
        },
        {
          "internalType": "address",
          "name": "spender",
          "type": "address"
        }
      ],
      "name": "allowance",
      "outputs": [
        {
          "internalType": "uint256",
          "name": "",
          "type": "uint256"
        }
      ],
      "stateMutability": "view",
      "type": "function"
    },
    {
      "inputs": [
        {
          "internalType": "address",
          "name": "spender",
          "type": "address"
        },
        {
          "internalType": "uint256",
          "name": "amount",
          "type": "uint256"
        }
      ],
      "name": "approve",
      "outputs": [
        {
          "internalType": "bool",
          "name": "",
          "type": "bool"
        }
      ],
      "stateMutability": "nonpayable",
      "type": "function"
    },
    {
      "inputs": [
        {
          "internalType": "address",
          "name": "account",
          "type": "address"
        }
      ],
      "name": "balanceOf",
      "outputs": [
        {
          "internalType": "uint256",
          "name": "",
          "type": "uint256"
        }
      ],
      "stateMutability": "view",
      "type": "function"
    },
    {
      "inputs": [
        {
          "internalType": "address",
          "name": "",
          "type": "address"
        },
        {
          "internalType": "uint32",
          "name": "",
          "type": "uint32"
        }
      ],
      "name": "checkpoints",
      "outputs": [
        {
          "internalType": "uint32",
          "name": "fromBlock",
          "type": "uint32"
        },
        {
          "internalType": "uint256",
          "name": "votes",
          "type": "uint256"
        }
      ],
      "stateMutability": "view",
      "type": "function"
    },
    {
      "inputs": [],
      "name": "decimals",
      "outputs": [
        {
          "internalType": "uint8",
          "name": "",
          "type": "uint8"
        }
      ],
      "stateMutability": "view",
      "type": "function"
    },
    {
      "inputs": [
        {
          "internalType": "address",
          "name": "spender",
          "type": "address"
        },
        {
          "internalType": "uint256",
          "name": "subtractedValue",
          "type": "uint256"
        }
      ],
      "name": "decreaseAllowance",
      "outputs": [
        {
          "internalType": "bool",
          "name": "",
          "type": "bool"
        }
      ],
      "stateMutability": "nonpayable",
      "type": "function"
    },
    {
      "inputs": [],
      "name": "endReleaseBlock",
      "outputs": [
        {
          "internalType": "uint256",
          "name": "",
          "type": "uint256"
        }
      ],
      "stateMutability": "view",
      "type": "function"
    },
    {
      "inputs": [
        {
          "internalType": "address",
          "name": "spender",
          "type": "address"
        },
        {
          "internalType": "uint256",
          "name": "addedValue",
          "type": "uint256"
        }
      ],
      "name": "increaseAllowance",
      "outputs": [
        {
          "internalType": "bool",
          "name": "",
          "type": "bool"
        }
      ],
      "stateMutability": "nonpayable",
      "type": "function"
    },
    {
      "inputs": [],
      "name": "manualMinted",
      "outputs": [
        {
          "internalType": "uint256",
          "name": "",
          "type": "uint256"
        }
      ],
      "stateMutability": "view",
      "type": "function"
    },
    {
      "inputs": [],
      "name": "name",
      "outputs": [
        {
          "internalType": "string",
          "name": "",
          "type": "string"
        }
      ],
      "stateMutability": "view",
      "type": "function"
    },
    {
      "inputs": [
        {
          "internalType": "address",
          "name": "",
          "type": "address"
        }
      ],
      "name": "nonces",
      "outputs": [
        {
          "internalType": "uint256",
          "name": "",
          "type": "uint256"
        }
      ],
      "stateMutability": "view",
      "type": "function"
    },
    {
      "inputs": [
        {
          "internalType": "address",
          "name": "",
          "type": "address"
        }
      ],
      "name": "numCheckpoints",
      "outputs": [
        {
          "internalType": "uint32",
          "name": "",
          "type": "uint32"
        }
      ],
      "stateMutability": "view",
      "type": "function"
    },
    {
      "inputs": [],
      "name": "owner",
      "outputs": [
        {
          "internalType": "address",
          "name": "",
          "type": "address"
        }
      ],
      "stateMutability": "view",
      "type": "function"
    },
    {
      "inputs": [],
      "name": "renounceOwnership",
      "outputs": [],
      "stateMutability": "nonpayable",
      "type": "function"
    },
    {
      "inputs": [],
      "name": "startReleaseBlock",
      "outputs": [
        {
          "internalType": "uint256",
          "name": "",
          "type": "uint256"
        }
      ],
      "stateMutability": "view",
      "type": "function"
    },
    {
      "inputs": [],
      "name": "symbol",
      "outputs": [
        {
          "internalType": "string",
          "name": "",
          "type": "string"
        }
      ],
      "stateMutability": "view",
      "type": "function"
    },
    {
      "inputs": [],
      "name": "totalSupply",
      "outputs": [
        {
          "internalType": "uint256",
          "name": "",
          "type": "uint256"
        }
      ],
      "stateMutability": "view",
      "type": "function"
    },
    {
      "inputs": [
        {
          "internalType": "address",
          "name": "newOwner",
          "type": "address"
        }
      ],
      "name": "transferOwnership",
      "outputs": [],
      "stateMutability": "nonpayable",
      "type": "function"
    },
    {
      "inputs": [],
      "name": "cap",
      "outputs": [
        {
          "internalType": "uint256",
          "name": "",
          "type": "uint256"
        }
      ],
      "stateMutability": "pure",
      "type": "function"
    },
    {
      "inputs": [],
      "name": "unlockedSupply",
      "outputs": [
        {
          "internalType": "uint256",
          "name": "",
          "type": "uint256"
        }
      ],
      "stateMutability": "view",
      "type": "function"
    },
    {
      "inputs": [],
      "name": "totalLock",
      "outputs": [
        {
          "internalType": "uint256",
          "name": "",
          "type": "uint256"
        }
      ],
      "stateMutability": "view",
      "type": "function"
    },
    {
      "inputs": [
        {
          "internalType": "address",
          "name": "_to",
          "type": "address"
        },
        {
          "internalType": "uint256",
          "name": "_amount",
          "type": "uint256"
        }
      ],
      "name": "manualMint",
      "outputs": [],
      "stateMutability": "nonpayable",
      "type": "function"
    },
    {
      "inputs": [
        {
          "internalType": "address",
          "name": "_to",
          "type": "address"
        },
        {
          "internalType": "uint256",
          "name": "_amount",
          "type": "uint256"
        }
      ],
      "name": "mint",
      "outputs": [],
      "stateMutability": "nonpayable",
      "type": "function"
    },
    {
      "inputs": [
        {
          "internalType": "address",
          "name": "_account",
          "type": "address"
        },
        {
          "internalType": "uint256",
          "name": "_amount",
          "type": "uint256"
        }
      ],
      "name": "burn",
      "outputs": [],
      "stateMutability": "nonpayable",
      "type": "function"
    },
    {
      "inputs": [
        {
          "internalType": "address",
          "name": "recipient",
          "type": "address"
        },
        {
          "internalType": "uint256",
          "name": "amount",
          "type": "uint256"
        }
      ],
      "name": "transfer",
      "outputs": [
        {
          "internalType": "bool",
          "name": "",
          "type": "bool"
        }
      ],
      "stateMutability": "nonpayable",
      "type": "function"
    },
    {
      "inputs": [
        {
          "internalType": "address",
          "name": "sender",
          "type": "address"
        },
        {
          "internalType": "address",
          "name": "recipient",
          "type": "address"
        },
        {
          "internalType": "uint256",
          "name": "amount",
          "type": "uint256"
        }
      ],
      "name": "transferFrom",
      "outputs": [
        {
          "internalType": "bool",
          "name": "",
          "type": "bool"
        }
      ],
      "stateMutability": "nonpayable",
      "type": "function"
    },
    {
      "inputs": [
        {
          "internalType": "address",
          "name": "_account",
          "type": "address"
        }
      ],
      "name": "totalBalanceOf",
      "outputs": [
        {
          "internalType": "uint256",
          "name": "",
          "type": "uint256"
        }
      ],
      "stateMutability": "view",
      "type": "function"
    },
    {
      "inputs": [
        {
          "internalType": "address",
          "name": "_account",
          "type": "address"
        }
      ],
      "name": "lockOf",
      "outputs": [
        {
          "internalType": "uint256",
          "name": "",
          "type": "uint256"
        }
      ],
      "stateMutability": "view",
      "type": "function"
    },
    {
      "inputs": [
        {
          "internalType": "address",
          "name": "_account",
          "type": "address"
        }
      ],
      "name": "lastUnlockBlock",
      "outputs": [
        {
          "internalType": "uint256",
          "name": "",
          "type": "uint256"
        }
      ],
      "stateMutability": "view",
      "type": "function"
    },
    {
      "inputs": [
        {
          "internalType": "address",
          "name": "_account",
          "type": "address"
        },
        {
          "internalType": "uint256",
          "name": "_amount",
          "type": "uint256"
        }
      ],
      "name": "lock",
      "outputs": [],
      "stateMutability": "nonpayable",
      "type": "function"
    },
    {
      "inputs": [
        {
          "internalType": "address",
          "name": "_account",
          "type": "address"
        }
      ],
      "name": "canUnlockAmount",
      "outputs": [
        {
          "internalType": "uint256",
          "name": "",
          "type": "uint256"
        }
      ],
      "stateMutability": "view",
      "type": "function"
    },
    {
      "inputs": [],
      "name": "unlock",
      "outputs": [],
      "stateMutability": "nonpayable",
      "type": "function"
    },
    {
      "inputs": [
        {
          "internalType": "address",
          "name": "_to",
          "type": "address"
        }
      ],
      "name": "transferAll",
      "outputs": [],
      "stateMutability": "nonpayable",
      "type": "function"
    },
    {
      "inputs": [
        {
          "internalType": "address",
          "name": "delegator",
          "type": "address"
        }
      ],
      "name": "delegates",
      "outputs": [
        {
          "internalType": "address",
          "name": "",
          "type": "address"
        }
      ],
      "stateMutability": "view",
      "type": "function"
    },
    {
      "inputs": [
        {
          "internalType": "address",
          "name": "delegatee",
          "type": "address"
        }
      ],
      "name": "delegate",
      "outputs": [],
      "stateMutability": "nonpayable",
      "type": "function"
    },
    {
      "inputs": [
        {
          "internalType": "address",
          "name": "delegatee",
          "type": "address"
        },
        {
          "internalType": "uint256",
          "name": "nonce",
          "type": "uint256"
        },
        {
          "internalType": "uint256",
          "name": "expiry",
          "type": "uint256"
        },
        {
          "internalType": "uint8",
          "name": "v",
          "type": "uint8"
        },
        {
          "internalType": "bytes32",
          "name": "r",
          "type": "bytes32"
        },
        {
          "internalType": "bytes32",
          "name": "s",
          "type": "bytes32"
        }
      ],
      "name": "delegateBySig",
      "outputs": [],
      "stateMutability": "nonpayable",
      "type": "function"
    },
    {
      "inputs": [
        {
          "internalType": "address",
          "name": "account",
          "type": "address"
        }
      ],
      "name": "getCurrentVotes",
      "outputs": [
        {
          "internalType": "uint256",
          "name": "",
          "type": "uint256"
        }
      ],
      "stateMutability": "view",
      "type": "function"
    },
    {
      "inputs": [
        {
          "internalType": "address",
          "name": "account",
          "type": "address"
        },
        {
          "internalType": "uint256",
          "name": "blockNumber",
          "type": "uint256"
        }
      ],
      "name": "getPriorVotes",
      "outputs": [
        {
          "internalType": "uint256",
          "name": "",
          "type": "uint256"
        }
      ],
      "stateMutability": "view",
      "type": "function"
    }
  ],
  "bytecode": "0x608060405260006009553480156200001657600080fd5b5060405162002bf038038062002bf0833981016040819052620000399162000780565b6040518060400160405280600b81526020016a2330ba3437b6aa37b5b2b760a91b815250604051806040016040528060048152602001634654484d60e01b81525081600390816200008b919062000841565b5060046200009a828262000841565b505050620000b7620000b16200014360201b60201c565b62000147565b818111620001185760405162461bcd60e51b815260206004820152602360248201527f656e6452656c65617365426c6f636b203c20737461727452656c65617365426c6044820152626f636b60e81b60648201526084015b60405180910390fd5b600782905560088190556200013b336c3f1bdf10116048a5934000000062000199565b5050620009e6565b3390565b600580546001600160a01b038381166001600160a01b0319831681179093556040519116919082907f8be0079c531659141344cd1fd0a4f28419497f9722a3daafe3b4186f6b6457e090600090a35050565b620001a362000238565b70373f8c4ba27af8499f017127000000000081600954620001c5919062000923565b1115620002155760405162461bcd60e51b815260206004820152601360248201527f6d696e74206c696d69742065786365656465640000000000000000000000000060448201526064016200010f565b8060095462000225919062000923565b60095562000234828262000296565b5050565b6005546001600160a01b03163314620002945760405162461bcd60e51b815260206004820181905260248201527f4f776e61626c653a2063616c6c6572206973206e6f7420746865206f776e657260448201526064016200010f565b565b620002a062000238565b70373f8c4ba27af8499f017127000000000081620002bd60025490565b620002c9919062000923565b1115620003085760405162461bcd60e51b815260206004820152600c60248201526b18d85c08195e18d95959195960a21b60448201526064016200010f565b6200031482826200033b565b6001600160a01b038083166000908152600c60205260408120546200023492168362000420565b6001600160a01b038216620003935760405162461bcd60e51b815260206004820152601f60248201527f45524332303a206d696e7420746f20746865207a65726f20616464726573730060448201526064016200010f565b8060026000828254620003a7919062000923565b90915550506001600160a01b03821660009081526020819052604081208054839290620003d690849062000923565b90915550506040518181526001600160a01b038316906000907fddf252ad1be2c89b69c2b068fc378daa952ba7f163c4a11628f55a4df523b3ef9060200160405180910390a35050565b816001600160a01b0316836001600160a01b031614158015620004435750600081115b1562000597576001600160a01b03831615620004f0576001600160a01b0383166000908152600e602052604081205463ffffffff16908162000487576000620004cc565b6001600160a01b0385166000908152600d6020526040812090620004ad60018562000939565b63ffffffff1663ffffffff168152602001908152602001600020600101545b90506000620004dc848362000960565b9050620004ec868484846200059c565b5050505b6001600160a01b0382161562000597576001600160a01b0382166000908152600e602052604081205463ffffffff1690816200052e57600062000573565b6001600160a01b0384166000908152600d60205260408120906200055460018562000939565b63ffffffff1663ffffffff168152602001908152602001600020600101545b9050600062000583848362000923565b905062000593858484846200059c565b5050505b505050565b6000620005c34360405180606001604052806036815260200162002bba603691396200074a565b905060008463ffffffff161180156200062057506001600160a01b0385166000908152600d6020526040812063ffffffff8316916200060460018862000939565b63ffffffff908116825260208201929092526040016000205416145b156200066d576001600160a01b0385166000908152600d6020526040812083916200064d60018862000939565b63ffffffff168152602081019190915260400160002060010155620006ff565b60408051808201825263ffffffff838116825260208083018681526001600160a01b038a166000908152600d83528581208a851682529092529390209151825463ffffffff191691161781559051600191820155620006ce90859062000976565b6001600160a01b0386166000908152600e60205260409020805463ffffffff191663ffffffff929092169190911790555b60408051848152602081018490526001600160a01b038716917fdec2bacdd2f05b59de34da9b523dff8be42e5e38e818c82fdb0bae774387a724910160405180910390a25050505050565b6000816401000000008410620007755760405162461bcd60e51b81526004016200010f919062000996565b508290505b92915050565b600080604083850312156200079457600080fd5b505080516020909101519092909150565b634e487b7160e01b600052604160045260246000fd5b600181811c90821680620007d057607f821691505b602082108103620007f157634e487b7160e01b600052602260045260246000fd5b50919050565b601f8211156200059757600081815260208120601f850160051c81016020861015620008205750805b601f850160051c820191505b8181101562000593578281556001016200082c565b81516001600160401b038111156200085d576200085d620007a5565b62000875816200086e8454620007bb565b84620007f7565b602080601f831160018114620008ad5760008415620008945750858301515b600019600386901b1c1916600185901b17855562000593565b600085815260208120601f198616915b82811015620008de57888601518255948401946001909101908401620008bd565b5085821015620008fd5787850151600019600388901b60f8161c191681555b5050505050600190811b01905550565b634e487b7160e01b600052601160045260246000fd5b808201808211156200077a576200077a6200090d565b63ffffffff8281168282160390808211156200095957620009596200090d565b5092915050565b818103818111156200077a576200077a6200090d565b63ffffffff8181168382160190808211156200095957620009596200090d565b600060208083528351808285015260005b81811015620009c557858101830151858201604001528201620009a7565b506000604082860101526040601f19601f8301168501019250505092915050565b6121c480620009f66000396000f3fe608060405234801561001057600080fd5b50600436106102535760003560e01c8063782d6fe111610146578063a9059cbb116100c3578063e4c5ff4611610087578063e4c5ff4614610588578063e6b2fb4a1461059b578063e7a324dc146105a4578063f1127ed8146105cb578063f2fde38b14610622578063fd3d27b81461063557600080fd5b8063a9059cbb14610533578063b4b5ea5714610546578063c3cda52014610559578063ce4079ef1461056c578063dd62ed3e1461057557600080fd5b806395d89b411161010a57806395d89b41146104ea5780639dc29fac146104f2578063a3a7e7f314610505578063a457c2d714610518578063a69df4b51461052b57600080fd5b8063782d6fe1146104745780637ecebe00146104875780637ee41615146104a757806389a2867c146104b05780638da5cb5b146104d957600080fd5b80633a1aae35116101d45780635c19a95c116101985780635c19a95c146103df57806368fe6e1d146103f25780636fcfff451461040857806370a0823114610443578063715018a61461046c57600080fd5b80633a1aae351461034457806340c10f191461034c5780634b0ee02a1461035f578063587cde1e146103725780635a46d3b5146103b657600080fd5b806323b872dd1161021b57806323b872dd146102e5578063282d3fdf146102f8578063313ce5671461030d578063355274ea1461031c578063395093511461033157600080fd5b806306fdde0314610258578063095ea7b31461027657806318160ddd14610299578063202b1760146102ab57806320606b70146102be575b600080fd5b61026061063d565b60405161026d9190611e6b565b60405180910390f35b610289610284366004611ed0565b6106cf565b604051901515815260200161026d565b6002545b60405190815260200161026d565b61029d6102b9366004611efa565b6106e9565b61029d7f8cad95687ba82c2ce50e74f7b754645e5117c3a5bec8151c0726d5857980a86681565b6102896102f3366004611f15565b6107b0565b61030b610306366004611ed0565b610884565b005b6040516012815260200161026d565b6b373f8c4ba27af8499f01712760281b61029d565b61028961033f366004611ed0565b610a18565b60065461029d565b61030b61035a366004611ed0565b610a3a565b61029d61036d366004611efa565b610ad6565b61039e610380366004611efa565b6001600160a01b039081166000908152600c60205260409020541690565b6040516001600160a01b03909116815260200161026d565b61029d6103c4366004611efa565b6001600160a01b03166000908152600a602052604090205490565b61030b6103ed366004611efa565b610b02565b61029d6b373f8c4ba27af8499f01712760281b81565b61042e610416366004611efa565b600e6020526000908152604090205463ffffffff1681565b60405163ffffffff909116815260200161026d565b61029d610451366004611efa565b6001600160a01b031660009081526020819052604090205490565b61030b610b0f565b61029d610482366004611ed0565b610b23565b61029d610495366004611efa565b600f6020526000908152604090205481565b61029d60075481565b61029d6104be366004611efa565b6001600160a01b03166000908152600b602052604090205490565b6005546001600160a01b031661039e565b610260610d8d565b61030b610500366004611ed0565b610d9c565b61030b610513366004611efa565b610dae565b610289610526366004611ed0565b610eed565b61030b610f68565b610289610541366004611ed0565b61101d565b61029d610554366004611efa565b611064565b61030b610567366004611f51565b6110d9565b61029d60085481565b61029d610583366004611fb1565b6113ac565b61030b610596366004611ed0565b6113d7565b61029d60095481565b61029d7fe48329057bfd03d55e49b547132e39cffd9c1820ad7b9d4c5307691425d15adf81565b6106066105d9366004611fe4565b600d6020908152600092835260408084209091529082529020805460019091015463ffffffff9091169082565b6040805163ffffffff909316835260208301919091520161026d565b61030b610630366004611efa565b61145c565b61029d6114d2565b60606003805461064c90612024565b80601f016020809104026020016040519081016040528092919081815260200182805461067890612024565b80156106c55780601f1061069a576101008083540402835291602001916106c5565b820191906000526020600020905b8154815290600101906020018083116106a857829003601f168201915b5050505050905090565b6000336106dd8185856114ef565b60019150505b92915050565b60006007544310156106fd57506000919050565b600854431061072257506001600160a01b03166000908152600a602052604090205490565b6001600160a01b0382166000908152600b60205260408120546107459043612074565b6001600160a01b0384166000908152600b602052604081205460085492935090916107709190612074565b6001600160a01b0385166000908152600a60205260409020549091508190610799908490612087565b6107a391906120b4565b949350505050565b919050565b60006107bd848484611613565b60006107c985336113ac565b90508281116108305760405162461bcd60e51b815260206004820152602860248201527f45524332303a207472616e7366657220616d6f756e74206578636565647320616044820152676c6c6f77616e636560c01b60648201526084015b60405180910390fd5b61083a8382612074565b90506108478533836114ef565b6001600160a01b038086166000908152600c6020526040808220548784168352912054610879929182169116856117e3565b506001949350505050565b61088c611947565b6001600160a01b0382166108da5760405162461bcd60e51b81526020600482015260156024820152746e6f206c6f636b20746f206164647265737328302960581b6044820152606401610827565b6001600160a01b0382166000908152602081905260409020548111156109395760405162461bcd60e51b81526020600482015260146024820152736e6f206c6f636b206f7665722062616c616e636560601b6044820152606401610827565b610944823083611613565b6001600160a01b0382166000908152600a60205260409020546109689082906120c8565b6001600160a01b0383166000908152600a602052604090205560065461098f9082906120c8565b6006556007546001600160a01b0383166000908152600b602052604090205410156109d1576007546001600160a01b0383166000908152600b60205260409020555b816001600160a01b03167f625fed9875dada8643f2418b838ae0bc78d9a148a18eee4ee1979ff0f3f5d42782604051610a0c91815260200190565b60405180910390a25050565b6000336106dd818585610a2b83836113ac565b610a3591906120c8565b6114ef565b610a42611947565b6b373f8c4ba27af8499f01712760281b81610a5c60025490565b610a6691906120c8565b1115610aa35760405162461bcd60e51b815260206004820152600c60248201526b18d85c08195e18d95959195960a21b6044820152606401610827565b610aad82826119a1565b6001600160a01b038083166000908152600c6020526040812054610ad29216836117e3565b5050565b6001600160a01b03811660009081526020818152604080832054600a9092528220546106e391906120c8565b610b0c3382611a80565b50565b610b17611947565b610b216000611af9565b565b6000438210610b865760405162461bcd60e51b815260206004820152602960248201527f464154484f4d3a3a6765745072696f72566f7465733a206e6f74207965742064604482015268195d195c9b5a5b995960ba1b6064820152608401610827565b6001600160a01b0383166000908152600e602052604081205463ffffffff1690819003610bb75760009150506106e3565b6001600160a01b0384166000908152600d602052604081208491610bdc6001856120db565b63ffffffff90811682526020820192909252604001600020541611610c45576001600160a01b0384166000908152600d6020526040812090610c1f6001846120db565b63ffffffff1663ffffffff168152602001908152602001600020600101549150506106e3565b6001600160a01b0384166000908152600d6020908152604080832083805290915290205463ffffffff16831015610c805760009150506106e3565b600080610c8e6001846120db565b90505b8163ffffffff168163ffffffff161115610d565760006002610cb384846120db565b610cbd91906120ff565b610cc790836120db565b6001600160a01b0388166000908152600d6020908152604080832063ffffffff8086168552908352928190208151808301909252805490931680825260019093015491810191909152919250879003610d2a576020015194506106e39350505050565b805163ffffffff16871115610d4157819350610d4f565b610d4c6001836120db565b92505b5050610c91565b506001600160a01b0385166000908152600d6020908152604080832063ffffffff9094168352929052206001015491505092915050565b60606004805461064c90612024565b610da4611947565b610ad28282611b4b565b6001600160a01b0381163303610dfc5760405162461bcd60e51b81526020600482015260136024820152721b9bc81cd95b198b5d1c985b9cd9995c905b1b606a1b6044820152606401610827565b336000908152600a6020526040808220546001600160a01b0384168352912054610e2691906120c8565b6001600160a01b0382166000908152600a6020908152604080832093909355600754600b909152919020541015610e74576007546001600160a01b0382166000908152600b60205260409020555b336000908152600b6020526040808220546001600160a01b03841683529120541015610ebb57336000908152600b6020526040808220546001600160a01b03841683529120555b336000818152600a60209081526040808320839055600b825280832083905590829052902054610b0c91908390611613565b60003381610efb82866113ac565b905083811015610f5b5760405162461bcd60e51b815260206004820152602560248201527f45524332303a2064656372656173656420616c6c6f77616e63652062656c6f77604482015264207a65726f60d81b6064820152608401610827565b61087982868684036114ef565b336000908152600a6020526040902054610fb85760405162461bcd60e51b81526020600482015260116024820152706e6f206c6f636b656420464154484f4d7360781b6044820152606401610827565b6000610fc3336106e9565b9050610fd0303383611613565b336000908152600a6020526040902054610feb908290612074565b336000908152600a6020908152604080832093909355600b905220439055600654611017908290612074565b60065550565b600061102a338484611613565b336000908152600c6020526040808220546001600160a01b038681168452919092205461105b9282169116846117e3565b50600192915050565b6001600160a01b0381166000908152600e602052604081205463ffffffff168061108f5760006110d2565b6001600160a01b0383166000908152600d60205260408120906110b36001846120db565b63ffffffff1663ffffffff168152602001908152602001600020600101545b9392505050565b60007f8cad95687ba82c2ce50e74f7b754645e5117c3a5bec8151c0726d5857980a86661110461063d565b805190602001206111124690565b60408051602080820195909552808201939093526060830191909152306080808401919091528151808403909101815260a0830182528051908401207fe48329057bfd03d55e49b547132e39cffd9c1820ad7b9d4c5307691425d15adf60c08401526001600160a01b038b1660e084015261010083018a90526101208084018a90528251808503909101815261014084019092528151919093012061190160f01b610160830152610162820183905261018282018190529192506000906101a20160408051601f198184030181528282528051602091820120600080855291840180845281905260ff8a169284019290925260608301889052608083018790529092509060019060a0016020604051602081039080840390855afa15801561123e573d6000803e3d6000fd5b5050604051601f1901519150506001600160a01b0381166112b25760405162461bcd60e51b815260206004820152602860248201527f464154484f4d3a3a64656c656761746542795369673a20696e76616c6964207360448201526769676e617475726560c01b6064820152608401610827565b6001600160a01b0381166000908152600f602052604081208054916112d683612122565b9190505589146113345760405162461bcd60e51b8152602060048201526024808201527f464154484f4d3a3a64656c656761746542795369673a20696e76616c6964206e6044820152636f6e636560e01b6064820152608401610827565b874211156113955760405162461bcd60e51b815260206004820152602860248201527f464154484f4d3a3a64656c656761746542795369673a207369676e617475726560448201526708195e1c1a5c995960c21b6064820152608401610827565b61139f818b611a80565b505050505b505050505050565b6001600160a01b03918216600090815260016020908152604080832093909416825291909152205490565b6113df611947565b6b373f8c4ba27af8499f01712760281b816009546113fd91906120c8565b11156114415760405162461bcd60e51b81526020600482015260136024820152721b5a5b9d081b1a5b5a5d08195e18d959591959606a1b6044820152606401610827565b8060095461144f91906120c8565b600955610ad28282610a3a565b611464611947565b6001600160a01b0381166114c95760405162461bcd60e51b815260206004820152602660248201527f4f776e61626c653a206e6577206f776e657220697320746865207a65726f206160448201526564647265737360d01b6064820152608401610827565b610b0c81611af9565b60006114dd60065490565b6002546114ea9190612074565b905090565b6001600160a01b0383166115515760405162461bcd60e51b8152602060048201526024808201527f45524332303a20617070726f76652066726f6d20746865207a65726f206164646044820152637265737360e01b6064820152608401610827565b6001600160a01b0382166115b25760405162461bcd60e51b815260206004820152602260248201527f45524332303a20617070726f766520746f20746865207a65726f206164647265604482015261737360f01b6064820152608401610827565b6001600160a01b0383811660008181526001602090815260408083209487168084529482529182902085905590518481527f8c5be1e5ebec7d5bd14f71427d1e84f3dd0314c0f7b2291e5b200ac8c7c3b925910160405180910390a3505050565b6001600160a01b0383166116775760405162461bcd60e51b815260206004820152602560248201527f45524332303a207472616e736665722066726f6d20746865207a65726f206164604482015264647265737360d81b6064820152608401610827565b6001600160a01b0382166116d95760405162461bcd60e51b815260206004820152602360248201527f45524332303a207472616e7366657220746f20746865207a65726f206164647260448201526265737360e81b6064820152608401610827565b6001600160a01b038316600090815260208190526040902054818110156117515760405162461bcd60e51b815260206004820152602660248201527f45524332303a207472616e7366657220616d6f756e7420657863656564732062604482015265616c616e636560d01b6064820152608401610827565b6001600160a01b038085166000908152602081905260408082208585039055918516815290812080548492906117889084906120c8565b92505081905550826001600160a01b0316846001600160a01b03167fddf252ad1be2c89b69c2b068fc378daa952ba7f163c4a11628f55a4df523b3ef846040516117d491815260200190565b60405180910390a35b50505050565b816001600160a01b0316836001600160a01b0316141580156118055750600081115b15611942576001600160a01b038316156118a8576001600160a01b0383166000908152600e602052604081205463ffffffff169081611845576000611888565b6001600160a01b0385166000908152600d60205260408120906118696001856120db565b63ffffffff1663ffffffff168152602001908152602001600020600101545b905060006118968483612074565b90506118a486848484611c99565b5050505b6001600160a01b03821615611942576001600160a01b0382166000908152600e602052604081205463ffffffff1690816118e3576000611926565b6001600160a01b0384166000908152600d60205260408120906119076001856120db565b63ffffffff1663ffffffff168152602001908152602001600020600101545b9050600061193484836120c8565b90506113a485848484611c99565b505050565b6005546001600160a01b03163314610b215760405162461bcd60e51b815260206004820181905260248201527f4f776e61626c653a2063616c6c6572206973206e6f7420746865206f776e65726044820152606401610827565b6001600160a01b0382166119f75760405162461bcd60e51b815260206004820152601f60248201527f45524332303a206d696e7420746f20746865207a65726f2061646472657373006044820152606401610827565b8060026000828254611a0991906120c8565b90915550506001600160a01b03821660009081526020819052604081208054839290611a369084906120c8565b90915550506040518181526001600160a01b038316906000907fddf252ad1be2c89b69c2b068fc378daa952ba7f163c4a11628f55a4df523b3ef9060200160405180910390a35050565b6001600160a01b038281166000818152600c60208181526040808420805485845282862054949093528787166001600160a01b03198416811790915590519190951694919391928592917f3134e8a2e6d97e929a7e54011ea5485d7d196dd5f0ba4d4ef95803e8e3fc257f9190a46117dd8284836117e3565b600580546001600160a01b038381166001600160a01b0319831681179093556040519116919082907f8be0079c531659141344cd1fd0a4f28419497f9722a3daafe3b4186f6b6457e090600090a35050565b6001600160a01b038216611bab5760405162461bcd60e51b815260206004820152602160248201527f45524332303a206275726e2066726f6d20746865207a65726f206164647265736044820152607360f81b6064820152608401610827565b6001600160a01b03821660009081526020819052604090205481811015611c1f5760405162461bcd60e51b815260206004820152602260248201527f45524332303a206275726e20616d6f756e7420657863656564732062616c616e604482015261636560f01b6064820152608401610827565b6001600160a01b0383166000908152602081905260408120838303905560028054849290611c4e908490612074565b90915550506040518281526000906001600160a01b038516907fddf252ad1be2c89b69c2b068fc378daa952ba7f163c4a11628f55a4df523b3ef9060200160405180910390a3505050565b6000611cbd4360405180606001604052806036815260200161215960369139611e3b565b905060008463ffffffff16118015611d1757506001600160a01b0385166000908152600d6020526040812063ffffffff831691611cfb6001886120db565b63ffffffff908116825260208201929092526040016000205416145b15611d60576001600160a01b0385166000908152600d602052604081208391611d416001886120db565b63ffffffff168152602081019190915260400160002060010155611df0565b60408051808201825263ffffffff838116825260208083018681526001600160a01b038a166000908152600d83528581208a851682529092529390209151825463ffffffff191691161781559051600191820155611dbf90859061213b565b6001600160a01b0386166000908152600e60205260409020805463ffffffff191663ffffffff929092169190911790555b60408051848152602081018490526001600160a01b038716917fdec2bacdd2f05b59de34da9b523dff8be42e5e38e818c82fdb0bae774387a724910160405180910390a25050505050565b6000816401000000008410611e635760405162461bcd60e51b81526004016108279190611e6b565b509192915050565b600060208083528351808285015260005b81811015611e9857858101830151858201604001528201611e7c565b506000604082860101526040601f19601f8301168501019250505092915050565b80356001600160a01b03811681146107ab57600080fd5b60008060408385031215611ee357600080fd5b611eec83611eb9565b946020939093013593505050565b600060208284031215611f0c57600080fd5b6110d282611eb9565b600080600060608486031215611f2a57600080fd5b611f3384611eb9565b9250611f4160208501611eb9565b9150604084013590509250925092565b60008060008060008060c08789031215611f6a57600080fd5b611f7387611eb9565b95506020870135945060408701359350606087013560ff81168114611f9757600080fd5b9598949750929560808101359460a0909101359350915050565b60008060408385031215611fc457600080fd5b611fcd83611eb9565b9150611fdb60208401611eb9565b90509250929050565b60008060408385031215611ff757600080fd5b61200083611eb9565b9150602083013563ffffffff8116811461201957600080fd5b809150509250929050565b600181811c9082168061203857607f821691505b60208210810361205857634e487b7160e01b600052602260045260246000fd5b50919050565b634e487b7160e01b600052601160045260246000fd5b818103818111156106e3576106e361205e565b80820281158282048414176106e3576106e361205e565b634e487b7160e01b600052601260045260246000fd5b6000826120c3576120c361209e565b500490565b808201808211156106e3576106e361205e565b63ffffffff8281168282160390808211156120f8576120f861205e565b5092915050565b600063ffffffff808416806121165761211661209e565b92169190910492915050565b6000600182016121345761213461205e565b5060010190565b63ffffffff8181168382160190808211156120f8576120f861205e56fe464154484f4d3a3a5f7772697465436865636b706f696e743a20626c6f636b206e756d62657220657863656564732033322062697473a2646970667358221220ca29e59287ff4817ff245e196832dcbbd11152ccdf29743258e2a77705bd931e64736f6c63430008110033464154484f4d3a3a5f7772697465436865636b706f696e743a20626c6f636b206e756d62657220657863656564732033322062697473",
  "immutableReferences": {},
  "source": "// SPDX-License-Identifier: MIT\n\npragma solidity 0.8.17;\n\nimport \"@openzeppelin/contracts/access/Ownable.sol\";\nimport \"@openzeppelin/contracts/token/ERC20/ERC20.sol\";\nimport \"@openzeppelin/contracts/token/ERC20/IERC20.sol\";\n\n// FathomToken with Governance.\ncontract FathomToken is ERC20(\"FathomToken\", \"FTHM\"), Ownable {\n  uint256 private constant CAP = 18800000000000000000000e18;\n  uint256 private _totalLock;\n\n  uint256 public startReleaseBlock;\n  uint256 public endReleaseBlock;\n  uint256 public constant MANUAL_MINT_LIMIT = 18800000000000000000000e18;\n  uint256 public manualMinted = 0;\n\n  mapping(address => uint256) private _locks;\n  mapping(address => uint256) private _lastUnlockBlock;\n\n  event Lock(address indexed to, uint256 value);\n\n  constructor(uint256 _startReleaseBlock, uint256 _endReleaseBlock) {\n    require(_endReleaseBlock > _startReleaseBlock, \"endReleaseBlock < startReleaseBlock\");\n    startReleaseBlock = _startReleaseBlock;\n    endReleaseBlock = _endReleaseBlock;\n\n    // maunalMint 250k for seeding liquidity\n    manualMint(msg.sender, 5000000000000e18);\n  }\n\n  function cap() public pure returns (uint256) {\n    return CAP;\n  }\n\n  function unlockedSupply() external view returns (uint256) {\n    return totalSupply() - totalLock();\n  }\n\n  function totalLock() public view returns (uint256) {\n    return _totalLock;\n  }\n\n  function manualMint(address _to, uint256 _amount) public onlyOwner {\n    require(manualMinted + _amount <= MANUAL_MINT_LIMIT, \"mint limit exceeded\");\n    manualMinted = manualMinted + _amount;\n    mint(_to, _amount);\n  }\n\n  function mint(address _to, uint256 _amount) public onlyOwner {\n    require(totalSupply() + _amount <= cap(), \"cap exceeded\");\n    _mint(_to, _amount);\n    _moveDelegates(address(0), _delegates[_to], _amount);\n  }\n\n  function burn(address _account, uint256 _amount) external onlyOwner {\n    _burn(_account, _amount);\n  }\n\n  function transfer(address recipient, uint256 amount) public virtual override returns (bool) {\n    _transfer(_msgSender(), recipient, amount);\n    _moveDelegates(_delegates[_msgSender()], _delegates[recipient], amount);\n    return true;\n  }\n\n  function transferFrom(\n    address sender,\n    address recipient,\n    uint256 amount\n  ) public virtual override returns (bool) {\n    _transfer(sender, recipient, amount);\n    uint256 amen = allowance(sender, _msgSender());\n    require( amen > amount, \"ERC20: transfer amount exceeds allowance\");\n    amen = (amen - amount);\n    _approve(\n      sender,\n      _msgSender(),\n      amen\n    );\n    _moveDelegates(_delegates[sender], _delegates[recipient], amount);\n    return true;\n  }\n\n  function totalBalanceOf(address _account) external view returns (uint256) {\n    return _locks[_account] + balanceOf(_account);\n  }\n\n  function lockOf(address _account) external view returns (uint256) {\n    return _locks[_account];\n  }\n\n  function lastUnlockBlock(address _account) external view returns (uint256) {\n    return _lastUnlockBlock[_account];\n  }\n\n  function lock(address _account, uint256 _amount) external onlyOwner {\n    require(_account != address(0), \"no lock to address(0)\");\n    require(_amount <= balanceOf(_account), \"no lock over balance\");\n\n    _transfer(_account, address(this), _amount);\n\n    _locks[_account] = _locks[_account] + _amount;\n    _totalLock = _totalLock + _amount;\n\n    if (_lastUnlockBlock[_account] < startReleaseBlock) {\n      _lastUnlockBlock[_account] = startReleaseBlock;\n    }\n\n    emit Lock(_account, _amount);\n  }\n\n  function canUnlockAmount(address _account) public view returns (uint256) {\n    // When block number less than startReleaseBlock, no FATHOMs can be unlocked\n    if (block.number < startReleaseBlock) {\n      return 0;\n    }\n    // When block number more than endReleaseBlock, all locked FATHOMs can be unlocked\n    else if (block.number >= endReleaseBlock) {\n      return _locks[_account];\n    }\n    // When block number is more than startReleaseBlock but less than endReleaseBlock,\n    // some FATHOMs can be released\n    else {\n      uint256 releasedBlock = block.number - _lastUnlockBlock[_account];\n      uint256 blockLeft = endReleaseBlock - _lastUnlockBlock[_account];\n      return _locks[_account] * releasedBlock / blockLeft;\n    }\n  }\n\n  function unlock() external {\n    require(_locks[msg.sender] > 0, \"no locked FATHOMs\");\n\n    uint256 amount = canUnlockAmount(msg.sender);\n\n    _transfer(address(this), msg.sender, amount);\n    _locks[msg.sender] = _locks[msg.sender] - amount;\n    _lastUnlockBlock[msg.sender] = block.number;\n    _totalLock = _totalLock - amount;\n  }\n\n  // @dev move FATHOMs with its locked funds to another account\n  function transferAll(address _to) external {\n    require(msg.sender != _to, \"no self-transferAll\");\n\n    _locks[_to] = _locks[_to] + _locks[msg.sender];\n\n    if (_lastUnlockBlock[_to] < startReleaseBlock) {\n      _lastUnlockBlock[_to] = startReleaseBlock;\n    }\n\n    if (_lastUnlockBlock[_to] < _lastUnlockBlock[msg.sender]) {\n      _lastUnlockBlock[_to] = _lastUnlockBlock[msg.sender];\n    }\n\n    _locks[msg.sender] = 0;\n    _lastUnlockBlock[msg.sender] = 0;\n\n    _transfer(msg.sender, _to, balanceOf(msg.sender));\n  }\n\n  // Copied and modified from YAM code:\n  // https://github.com/yam-finance/yam-protocol/blob/master/contracts/token/YAMGovernanceStorage.sol\n  // https://github.com/yam-finance/yam-protocol/blob/master/contracts/token/YAMGovernance.sol\n  // Which is copied and modified from COMPOUND:\n  // https://github.com/compound-finance/compound-protocol/blob/master/contracts/Governance/Comp.sol\n\n  /// @notice A record of each accounts delegate\n  mapping(address => address) internal _delegates;\n\n  /// @notice A checkpoint for marking number of votes from a given block\n  struct Checkpoint {\n    uint32 fromBlock;\n    uint256 votes;\n  }\n\n  /// @notice A record of votes checkpoints for each account, by index\n  mapping(address => mapping(uint32 => Checkpoint)) public checkpoints;\n\n  /// @notice The number of checkpoints for each account\n  mapping(address => uint32) public numCheckpoints;\n\n  /// @notice The EIP-712 typehash for the contract's domain\n  bytes32 public constant DOMAIN_TYPEHASH =\n    keccak256(\"EIP712Domain(string name,uint256 chainId,address verifyingContract)\");\n\n  /// @notice The EIP-712 typehash for the delegation struct used by the contract\n  bytes32 public constant DELEGATION_TYPEHASH = keccak256(\"Delegation(address delegatee,uint256 nonce,uint256 expiry)\");\n\n  /// @notice A record of states for signing / validating signatures\n  mapping(address => uint256) public nonces;\n\n  /// @notice An event thats emitted when an account changes its delegate\n  event DelegateChanged(address indexed delegator, address indexed fromDelegate, address indexed toDelegate);\n\n  /// @notice An event thats emitted when a delegate account's vote balance changes\n  event DelegateVotesChanged(address indexed delegate, uint256 previousBalance, uint256 newBalance);\n\n  /**\n   * @notice Delegate votes from `msg.sender` to `delegatee`\n   * @param delegator The address to get delegatee for\n   */\n  function delegates(address delegator) external view returns (address) {\n    return _delegates[delegator];\n  }\n\n  /**\n   * @notice Delegate votes from `msg.sender` to `delegatee`\n   * @param delegatee The address to delegate votes to\n   */\n  function delegate(address delegatee) external {\n    return _delegate(msg.sender, delegatee);\n  }\n\n  /**\n   * @notice Delegates votes from signatory to `delegatee`\n   * @param delegatee The address to delegate votes to\n   * @param nonce The contract state required to match the signature\n   * @param expiry The time at which to expire the signature\n   * @param v The recovery byte of the signature\n   * @param r Half of the ECDSA signature pair\n   * @param s Half of the ECDSA signature pair\n   */\n  function delegateBySig(\n    address delegatee,\n    uint256 nonce,\n    uint256 expiry,\n    uint8 v,\n    bytes32 r,\n    bytes32 s\n  ) external {\n    bytes32 domainSeparator = keccak256(\n      abi.encode(DOMAIN_TYPEHASH, keccak256(bytes(name())), getChainId(), address(this))\n    );\n\n    bytes32 structHash = keccak256(abi.encode(DELEGATION_TYPEHASH, delegatee, nonce, expiry));\n\n    bytes32 digest = keccak256(abi.encodePacked(\"\\x19\\x01\", domainSeparator, structHash));\n\n    address signatory = ecrecover(digest, v, r, s);\n    require(signatory != address(0), \"FATHOM::delegateBySig: invalid signature\");\n    require(nonce == nonces[signatory]++, \"FATHOM::delegateBySig: invalid nonce\");\n    require(block.timestamp <= expiry, \"FATHOM::delegateBySig: signature expired\");\n    return _delegate(signatory, delegatee);\n  }\n\n  /**\n   * @notice Gets the current votes balance for `account`\n   * @param account The address to get votes balance\n   * @return The number of current votes for `account`\n   */\n  function getCurrentVotes(address account) external view returns (uint256) {\n    uint32 nCheckpoints = numCheckpoints[account];\n    return nCheckpoints > 0 ? checkpoints[account][nCheckpoints - 1].votes : 0;\n  }\n\n  /**\n   * @notice Determine the prior number of votes for an account as of a block number\n   * @dev Block number must be a finalized block or else this function will revert to prevent misinformation.\n   * @param account The address of the account to check\n   * @param blockNumber The block number to get the vote balance at\n   * @return The number of votes the account had as of the given block\n   */\n  function getPriorVotes(address account, uint256 blockNumber) external view returns (uint256) {\n    require(blockNumber < block.number, \"FATHOM::getPriorVotes: not yet determined\");\n\n    uint32 nCheckpoints = numCheckpoints[account];\n    if (nCheckpoints == 0) {\n      return 0;\n    }\n\n    // First check most recent balance\n    if (checkpoints[account][nCheckpoints - 1].fromBlock <= blockNumber) {\n      return checkpoints[account][nCheckpoints - 1].votes;\n    }\n\n    // Next check implicit zero balance\n    if (checkpoints[account][0].fromBlock > blockNumber) {\n      return 0;\n    }\n\n    uint32 lower = 0;\n    uint32 upper = nCheckpoints - 1;\n    while (upper > lower) {\n      uint32 center = upper - (upper - lower) / 2; // ceil, avoiding overflow\n      Checkpoint memory cp = checkpoints[account][center];\n      if (cp.fromBlock == blockNumber) {\n        return cp.votes;\n      } else if (cp.fromBlock < blockNumber) {\n        lower = center;\n      } else {\n        upper = center - 1;\n      }\n    }\n    return checkpoints[account][lower].votes;\n  }\n\n  function _delegate(address delegator, address delegatee) internal {\n    address currentDelegate = _delegates[delegator];\n    uint256 delegatorBalance = balanceOf(delegator); // balance of underlying FATHOMs (not scaled);\n    _delegates[delegator] = delegatee;\n\n    emit DelegateChanged(delegator, currentDelegate, delegatee);\n\n    _moveDelegates(currentDelegate, delegatee, delegatorBalance);\n  }\n\n  function _moveDelegates(\n    address srcRep,\n    address dstRep,\n    uint256 amount\n  ) internal {\n    if (srcRep != dstRep && amount > 0) {\n      if (srcRep != address(0)) {\n        // decrease old representative\n        uint32 srcRepNum = numCheckpoints[srcRep];\n        uint256 srcRepOld = srcRepNum > 0 ? checkpoints[srcRep][srcRepNum - 1].votes : 0;\n        uint256 srcRepNew = srcRepOld - amount;\n        _writeCheckpoint(srcRep, srcRepNum, srcRepOld, srcRepNew);\n      }\n\n      if (dstRep != address(0)) {\n        // increase new representative\n        uint32 dstRepNum = numCheckpoints[dstRep];\n        uint256 dstRepOld = dstRepNum > 0 ? checkpoints[dstRep][dstRepNum - 1].votes : 0;\n        uint256 dstRepNew = dstRepOld + amount;\n        _writeCheckpoint(dstRep, dstRepNum, dstRepOld, dstRepNew);\n      }\n    }\n  }\n\n  function _writeCheckpoint(\n    address delegatee,\n    uint32 nCheckpoints,\n    uint256 oldVotes,\n    uint256 newVotes\n  ) internal {\n    uint32 blockNumber = safe32(block.number, \"FATHOM::_writeCheckpoint: block number exceeds 32 bits\");\n\n    if (nCheckpoints > 0 && checkpoints[delegatee][nCheckpoints - 1].fromBlock == blockNumber) {\n      checkpoints[delegatee][nCheckpoints - 1].votes = newVotes;\n    } else {\n      checkpoints[delegatee][nCheckpoints] = Checkpoint(blockNumber, newVotes);\n      numCheckpoints[delegatee] = nCheckpoints + 1;\n    }\n\n    emit DelegateVotesChanged(delegatee, oldVotes, newVotes);\n  }\n\n  function safe32(uint256 n, string memory errorMessage) internal pure returns (uint32) {\n    require(n < 2**32, errorMessage);\n    return uint32(n);\n  }\n\n  function getChainId() internal view returns (uint256) {\n    uint256 chainId;\n    assembly {\n      chainId := chainid()\n    }\n    return chainId;\n  }\n}\n",
  "sourcePath": "/Users/sangjun.lee/Sangjun/fathom-stablecoin-smart-contracts/contracts/8.17/apis/fathom/FathomToken.sol",
  "compiler": {
    "name": "solc",
    "version": "0.8.17+commit.8df45f5f.Emscripten.clang"
  },
  "schemaVersion": "3.4.10",
  "updatedAt": "2022-10-06T11:28:50.060Z",
  "devdoc": {
    "kind": "dev",
    "methods": {
      "allowance(address,address)": {
        "details": "See {IERC20-allowance}."
      },
      "approve(address,uint256)": {
        "details": "See {IERC20-approve}. NOTE: If `amount` is the maximum `uint256`, the allowance is not updated on `transferFrom`. This is semantically equivalent to an infinite approval. Requirements: - `spender` cannot be the zero address."
      },
      "balanceOf(address)": {
        "details": "See {IERC20-balanceOf}."
      },
      "decimals()": {
        "details": "Returns the number of decimals used to get its user representation. For example, if `decimals` equals `2`, a balance of `505` tokens should be displayed to a user as `5.05` (`505 / 10 ** 2`). Tokens usually opt for a value of 18, imitating the relationship between Ether and Wei. This is the value {ERC20} uses, unless this function is overridden; NOTE: This information is only used for _display_ purposes: it in no way affects any of the arithmetic of the contract, including {IERC20-balanceOf} and {IERC20-transfer}."
      },
      "decreaseAllowance(address,uint256)": {
        "details": "Atomically decreases the allowance granted to `spender` by the caller. This is an alternative to {approve} that can be used as a mitigation for problems described in {IERC20-approve}. Emits an {Approval} event indicating the updated allowance. Requirements: - `spender` cannot be the zero address. - `spender` must have allowance for the caller of at least `subtractedValue`."
      },
      "delegate(address)": {
        "params": {
          "delegatee": "The address to delegate votes to"
        }
      },
      "delegateBySig(address,uint256,uint256,uint8,bytes32,bytes32)": {
        "params": {
          "delegatee": "The address to delegate votes to",
          "expiry": "The time at which to expire the signature",
          "nonce": "The contract state required to match the signature",
          "r": "Half of the ECDSA signature pair",
          "s": "Half of the ECDSA signature pair",
          "v": "The recovery byte of the signature"
        }
      },
      "delegates(address)": {
        "params": {
          "delegator": "The address to get delegatee for"
        }
      },
      "getCurrentVotes(address)": {
        "params": {
          "account": "The address to get votes balance"
        },
        "returns": {
          "_0": "The number of current votes for `account`"
        }
      },
      "getPriorVotes(address,uint256)": {
        "details": "Block number must be a finalized block or else this function will revert to prevent misinformation.",
        "params": {
          "account": "The address of the account to check",
          "blockNumber": "The block number to get the vote balance at"
        },
        "returns": {
          "_0": "The number of votes the account had as of the given block"
        }
      },
      "increaseAllowance(address,uint256)": {
        "details": "Atomically increases the allowance granted to `spender` by the caller. This is an alternative to {approve} that can be used as a mitigation for problems described in {IERC20-approve}. Emits an {Approval} event indicating the updated allowance. Requirements: - `spender` cannot be the zero address."
      },
      "name()": {
        "details": "Returns the name of the token."
      },
      "owner()": {
        "details": "Returns the address of the current owner."
      },
      "renounceOwnership()": {
        "details": "Leaves the contract without owner. It will not be possible to call `onlyOwner` functions anymore. Can only be called by the current owner. NOTE: Renouncing ownership will leave the contract without an owner, thereby removing any functionality that is only available to the owner."
      },
      "symbol()": {
        "details": "Returns the symbol of the token, usually a shorter version of the name."
      },
      "totalSupply()": {
        "details": "See {IERC20-totalSupply}."
      },
      "transferOwnership(address)": {
        "details": "Transfers ownership of the contract to a new account (`newOwner`). Can only be called by the current owner."
      }
    },
    "version": 1
  },
  "userdoc": {
    "events": {
      "DelegateChanged(address,address,address)": {
        "notice": "An event thats emitted when an account changes its delegate"
      },
      "DelegateVotesChanged(address,uint256,uint256)": {
        "notice": "An event thats emitted when a delegate account's vote balance changes"
      }
    },
    "kind": "user",
    "methods": {
      "DELEGATION_TYPEHASH()": {
        "notice": "The EIP-712 typehash for the delegation struct used by the contract"
      },
      "DOMAIN_TYPEHASH()": {
        "notice": "The EIP-712 typehash for the contract's domain"
      },
      "checkpoints(address,uint32)": {
        "notice": "A record of votes checkpoints for each account, by index"
      },
      "delegate(address)": {
        "notice": "Delegate votes from `msg.sender` to `delegatee`"
      },
      "delegateBySig(address,uint256,uint256,uint8,bytes32,bytes32)": {
        "notice": "Delegates votes from signatory to `delegatee`"
      },
      "delegates(address)": {
        "notice": "Delegate votes from `msg.sender` to `delegatee`"
      },
      "getCurrentVotes(address)": {
        "notice": "Gets the current votes balance for `account`"
      },
      "getPriorVotes(address,uint256)": {
        "notice": "Determine the prior number of votes for an account as of a block number"
      },
      "nonces(address)": {
        "notice": "A record of states for signing / validating signatures"
      },
      "numCheckpoints(address)": {
        "notice": "The number of checkpoints for each account"
      }
    },
    "version": 1
  }
}