{
  "contractName": "FathomStablecoinProxyActions",
  "abi": [
    {
      "inputs": [
        {
          "internalType": "address",
          "name": "_adapter",
          "type": "address"
        },
        {
          "internalType": "address",
          "name": "_positionAddress",
          "type": "address"
        },
        {
          "internalType": "uint256",
          "name": "_stablecoinAmount",
          "type": "uint256"
        },
        {
          "internalType": "bytes",
          "name": "_data",
          "type": "bytes"
        }
      ],
      "name": "stablecoinAdapterDeposit",
      "outputs": [],
      "stateMutability": "nonpayable",
      "type": "function"
    },
    {
      "inputs": [
        {
          "internalType": "address",
          "name": "_collateralToken",
          "type": "address"
        },
        {
          "internalType": "address",
          "name": "_dst",
          "type": "address"
        },
        {
          "internalType": "uint256",
          "name": "_amt",
          "type": "uint256"
        }
      ],
      "name": "transfer",
      "outputs": [],
      "stateMutability": "nonpayable",
      "type": "function"
    },
    {
      "inputs": [
        {
          "internalType": "address",
          "name": "_adapter",
          "type": "address"
        },
        {
          "internalType": "address",
          "name": "_positionAddress",
          "type": "address"
        },
        {
          "internalType": "bytes",
          "name": "_data",
          "type": "bytes"
        }
      ],
      "name": "bnbAdapterDeposit",
      "outputs": [],
      "stateMutability": "payable",
      "type": "function"
    },
    {
      "inputs": [
        {
          "internalType": "address",
          "name": "_adapter",
          "type": "address"
        },
        {
          "internalType": "address",
          "name": "_positionAddress",
          "type": "address"
        },
        {
          "internalType": "uint256",
          "name": "_amount",
          "type": "uint256"
        },
        {
          "internalType": "bool",
          "name": "_transferFrom",
          "type": "bool"
        },
        {
          "internalType": "bytes",
          "name": "_data",
          "type": "bytes"
        }
      ],
      "name": "tokenAdapterDeposit",
      "outputs": [],
      "stateMutability": "nonpayable",
      "type": "function"
    },
    {
      "inputs": [
        {
          "internalType": "address",
          "name": "_bookKeeper",
          "type": "address"
        },
        {
          "internalType": "address",
          "name": "_usr",
          "type": "address"
        }
      ],
      "name": "whitelist",
      "outputs": [],
      "stateMutability": "nonpayable",
      "type": "function"
    },
    {
      "inputs": [
        {
          "internalType": "address",
          "name": "_bookKeeper",
          "type": "address"
        },
        {
          "internalType": "address",
          "name": "_usr",
          "type": "address"
        }
      ],
      "name": "blacklist",
      "outputs": [],
      "stateMutability": "nonpayable",
      "type": "function"
    },
    {
      "inputs": [
        {
          "internalType": "address",
          "name": "_manager",
          "type": "address"
        },
        {
          "internalType": "bytes32",
          "name": "_collateralPoolId",
          "type": "bytes32"
        },
        {
          "internalType": "address",
          "name": "_usr",
          "type": "address"
        }
      ],
      "name": "open",
      "outputs": [
        {
          "internalType": "uint256",
          "name": "_positionId",
          "type": "uint256"
        }
      ],
      "stateMutability": "nonpayable",
      "type": "function"
    },
    {
      "inputs": [
        {
          "internalType": "address",
          "name": "_manager",
          "type": "address"
        },
        {
          "internalType": "uint256",
          "name": "_positionId",
          "type": "uint256"
        },
        {
          "internalType": "address",
          "name": "_usr",
          "type": "address"
        }
      ],
      "name": "transferOwnership",
      "outputs": [],
      "stateMutability": "nonpayable",
      "type": "function"
    },
    {
      "inputs": [
        {
          "internalType": "address",
          "name": "_proxyRegistry",
          "type": "address"
        },
        {
          "internalType": "address",
          "name": "_manager",
          "type": "address"
        },
        {
          "internalType": "uint256",
          "name": "_positionId",
          "type": "uint256"
        },
        {
          "internalType": "address",
          "name": "_dst",
          "type": "address"
        }
      ],
      "name": "transferOwnershipToProxy",
      "outputs": [],
      "stateMutability": "nonpayable",
      "type": "function"
    },
    {
      "inputs": [
        {
          "internalType": "address",
          "name": "_manager",
          "type": "address"
        },
        {
          "internalType": "uint256",
          "name": "_positionId",
          "type": "uint256"
        },
        {
          "internalType": "address",
          "name": "_user",
          "type": "address"
        },
        {
          "internalType": "uint256",
          "name": "_ok",
          "type": "uint256"
        }
      ],
      "name": "allowManagePosition",
      "outputs": [],
      "stateMutability": "nonpayable",
      "type": "function"
    },
    {
      "inputs": [
        {
          "internalType": "address",
          "name": "_manager",
          "type": "address"
        },
        {
          "internalType": "address",
          "name": "_user",
          "type": "address"
        },
        {
          "internalType": "uint256",
          "name": "_ok",
          "type": "uint256"
        }
      ],
      "name": "allowMigratePosition",
      "outputs": [],
      "stateMutability": "nonpayable",
      "type": "function"
    },
    {
      "inputs": [
        {
          "internalType": "address",
          "name": "_manager",
          "type": "address"
        },
        {
          "internalType": "uint256",
          "name": "_positionId",
          "type": "uint256"
        },
        {
          "internalType": "address",
          "name": "_dst",
          "type": "address"
        },
        {
          "internalType": "uint256",
          "name": "_collateralAmount",
          "type": "uint256"
        },
        {
          "internalType": "address",
          "name": "_adapter",
          "type": "address"
        },
        {
          "internalType": "bytes",
          "name": "_data",
          "type": "bytes"
        }
      ],
      "name": "moveCollateral",
      "outputs": [],
      "stateMutability": "nonpayable",
      "type": "function"
    },
    {
      "inputs": [
        {
          "internalType": "address",
          "name": "_manager",
          "type": "address"
        },
        {
          "internalType": "uint256",
          "name": "_positionId",
          "type": "uint256"
        },
        {
          "internalType": "address",
          "name": "_dst",
          "type": "address"
        },
        {
          "internalType": "uint256",
          "name": "_stablecoinValue",
          "type": "uint256"
        }
      ],
      "name": "moveStablecoin",
      "outputs": [],
      "stateMutability": "nonpayable",
      "type": "function"
    },
    {
      "inputs": [
        {
          "internalType": "address",
          "name": "_manager",
          "type": "address"
        },
        {
          "internalType": "uint256",
          "name": "_positionId",
          "type": "uint256"
        },
        {
          "internalType": "int256",
          "name": "_collateralValue",
          "type": "int256"
        },
        {
          "internalType": "int256",
          "name": "_debtShare",
          "type": "int256"
        },
        {
          "internalType": "address",
          "name": "_adapter",
          "type": "address"
        },
        {
          "internalType": "bytes",
          "name": "_data",
          "type": "bytes"
        }
      ],
      "name": "adjustPosition",
      "outputs": [],
      "stateMutability": "nonpayable",
      "type": "function"
    },
    {
      "inputs": [
        {
          "internalType": "address",
          "name": "_manager",
          "type": "address"
        },
        {
          "internalType": "uint256",
          "name": "_positionId",
          "type": "uint256"
        },
        {
          "internalType": "address",
          "name": "_destination",
          "type": "address"
        }
      ],
      "name": "exportPosition",
      "outputs": [],
      "stateMutability": "nonpayable",
      "type": "function"
    },
    {
      "inputs": [
        {
          "internalType": "address",
          "name": "_manager",
          "type": "address"
        },
        {
          "internalType": "address",
          "name": "_source",
          "type": "address"
        },
        {
          "internalType": "uint256",
          "name": "_positionId",
          "type": "uint256"
        }
      ],
      "name": "importPosition",
      "outputs": [],
      "stateMutability": "nonpayable",
      "type": "function"
    },
    {
      "inputs": [
        {
          "internalType": "address",
          "name": "_manager",
          "type": "address"
        },
        {
          "internalType": "uint256",
          "name": "_source",
          "type": "uint256"
        },
        {
          "internalType": "uint256",
          "name": "_destination",
          "type": "uint256"
        }
      ],
      "name": "movePosition",
      "outputs": [],
      "stateMutability": "nonpayable",
      "type": "function"
    },
    {
      "inputs": [
        {
          "internalType": "address",
          "name": "_vault",
          "type": "address"
        },
        {
          "internalType": "uint256",
          "name": "_amount",
          "type": "uint256"
        },
        {
          "internalType": "bool",
          "name": "_transferTo",
          "type": "bool"
        }
      ],
      "name": "bnbToIbBNB",
      "outputs": [
        {
          "internalType": "uint256",
          "name": "",
          "type": "uint256"
        }
      ],
      "stateMutability": "payable",
      "type": "function"
    },
    {
      "inputs": [
        {
          "internalType": "address",
          "name": "_vault",
          "type": "address"
        },
        {
          "internalType": "uint256",
          "name": "_amount",
          "type": "uint256"
        }
      ],
      "name": "ibBNBToBNB",
      "outputs": [],
      "stateMutability": "payable",
      "type": "function"
    },
    {
      "inputs": [
        {
          "internalType": "address",
          "name": "_vault",
          "type": "address"
        },
        {
          "internalType": "uint256",
          "name": "_amount",
          "type": "uint256"
        },
        {
          "internalType": "bool",
          "name": "_transferTo",
          "type": "bool"
        }
      ],
      "name": "tokenToIbToken",
      "outputs": [
        {
          "internalType": "uint256",
          "name": "",
          "type": "uint256"
        }
      ],
      "stateMutability": "nonpayable",
      "type": "function"
    },
    {
      "inputs": [
        {
          "internalType": "address",
          "name": "_vault",
          "type": "address"
        },
        {
          "internalType": "uint256",
          "name": "_amount",
          "type": "uint256"
        }
      ],
      "name": "ibTokenToToken",
      "outputs": [],
      "stateMutability": "nonpayable",
      "type": "function"
    },
    {
      "inputs": [
        {
          "internalType": "address",
          "name": "_manager",
          "type": "address"
        },
        {
          "internalType": "address",
          "name": "_bnbAdapter",
          "type": "address"
        },
        {
          "internalType": "uint256",
          "name": "_positionId",
          "type": "uint256"
        },
        {
          "internalType": "bytes",
          "name": "_data",
          "type": "bytes"
        }
      ],
      "name": "lockBNB",
      "outputs": [],
      "stateMutability": "payable",
      "type": "function"
    },
    {
      "inputs": [
        {
          "internalType": "address",
          "name": "_manager",
          "type": "address"
        },
        {
          "internalType": "address",
          "name": "_bnbAdapter",
          "type": "address"
        },
        {
          "internalType": "uint256",
          "name": "_positionId",
          "type": "uint256"
        },
        {
          "internalType": "address",
          "name": "_owner",
          "type": "address"
        },
        {
          "internalType": "bytes",
          "name": "_data",
          "type": "bytes"
        }
      ],
      "name": "safeLockBNB",
      "outputs": [],
      "stateMutability": "payable",
      "type": "function"
    },
    {
      "inputs": [
        {
          "internalType": "address",
          "name": "_manager",
          "type": "address"
        },
        {
          "internalType": "address",
          "name": "_tokenAdapter",
          "type": "address"
        },
        {
          "internalType": "uint256",
          "name": "_positionId",
          "type": "uint256"
        },
        {
          "internalType": "uint256",
          "name": "_amount",
          "type": "uint256"
        },
        {
          "internalType": "bool",
          "name": "_transferFrom",
          "type": "bool"
        },
        {
          "internalType": "bytes",
          "name": "_data",
          "type": "bytes"
        }
      ],
      "name": "lockToken",
      "outputs": [],
      "stateMutability": "nonpayable",
      "type": "function"
    },
    {
      "inputs": [
        {
          "internalType": "address",
          "name": "_manager",
          "type": "address"
        },
        {
          "internalType": "address",
          "name": "_tokenAdapter",
          "type": "address"
        },
        {
          "internalType": "uint256",
          "name": "_positionId",
          "type": "uint256"
        },
        {
          "internalType": "uint256",
          "name": "_amount",
          "type": "uint256"
        },
        {
          "internalType": "bool",
          "name": "_transferFrom",
          "type": "bool"
        },
        {
          "internalType": "address",
          "name": "_owner",
          "type": "address"
        },
        {
          "internalType": "bytes",
          "name": "_data",
          "type": "bytes"
        }
      ],
      "name": "safeLockToken",
      "outputs": [],
      "stateMutability": "nonpayable",
      "type": "function"
    },
    {
      "inputs": [
        {
          "internalType": "address",
          "name": "_manager",
          "type": "address"
        },
        {
          "internalType": "address",
          "name": "_bnbAdapter",
          "type": "address"
        },
        {
          "internalType": "uint256",
          "name": "_positionId",
          "type": "uint256"
        },
        {
          "internalType": "uint256",
          "name": "_amount",
          "type": "uint256"
        },
        {
          "internalType": "bytes",
          "name": "_data",
          "type": "bytes"
        }
      ],
      "name": "unlockBNB",
      "outputs": [],
      "stateMutability": "nonpayable",
      "type": "function"
    },
    {
      "inputs": [
        {
          "internalType": "address",
          "name": "_manager",
          "type": "address"
        },
        {
          "internalType": "address",
          "name": "_tokenAdapter",
          "type": "address"
        },
        {
          "internalType": "uint256",
          "name": "_positionId",
          "type": "uint256"
        },
        {
          "internalType": "uint256",
          "name": "_amount",
          "type": "uint256"
        },
        {
          "internalType": "bytes",
          "name": "_data",
          "type": "bytes"
        }
      ],
      "name": "unlockToken",
      "outputs": [],
      "stateMutability": "nonpayable",
      "type": "function"
    },
    {
      "inputs": [
        {
          "internalType": "address",
          "name": "_manager",
          "type": "address"
        },
        {
          "internalType": "address",
          "name": "_bnbAdapter",
          "type": "address"
        },
        {
          "internalType": "uint256",
          "name": "_positionId",
          "type": "uint256"
        },
        {
          "internalType": "uint256",
          "name": "_amount",
          "type": "uint256"
        },
        {
          "internalType": "bytes",
          "name": "_data",
          "type": "bytes"
        }
      ],
      "name": "withdrawBNB",
      "outputs": [],
      "stateMutability": "nonpayable",
      "type": "function"
    },
    {
      "inputs": [
        {
          "internalType": "address",
          "name": "_manager",
          "type": "address"
        },
        {
          "internalType": "address",
          "name": "_tokenAdapter",
          "type": "address"
        },
        {
          "internalType": "uint256",
          "name": "_positionId",
          "type": "uint256"
        },
        {
          "internalType": "uint256",
          "name": "_amount",
          "type": "uint256"
        },
        {
          "internalType": "bytes",
          "name": "_data",
          "type": "bytes"
        }
      ],
      "name": "withdrawToken",
      "outputs": [],
      "stateMutability": "nonpayable",
      "type": "function"
    },
    {
      "inputs": [
        {
          "internalType": "address",
          "name": "_manager",
          "type": "address"
        },
        {
          "internalType": "address",
          "name": "_stabilityFeeCollector",
          "type": "address"
        },
        {
          "internalType": "address",
          "name": "_tokenAdapter",
          "type": "address"
        },
        {
          "internalType": "address",
          "name": "_stablecoinAdapter",
          "type": "address"
        },
        {
          "internalType": "uint256",
          "name": "_positionId",
          "type": "uint256"
        },
        {
          "internalType": "uint256",
          "name": "_amount",
          "type": "uint256"
        },
        {
          "internalType": "bytes",
          "name": "_data",
          "type": "bytes"
        }
      ],
      "name": "draw",
      "outputs": [],
      "stateMutability": "nonpayable",
      "type": "function"
    },
    {
      "inputs": [
        {
          "internalType": "address",
          "name": "_manager",
          "type": "address"
        },
        {
          "internalType": "address",
          "name": "_tokenAdapter",
          "type": "address"
        },
        {
          "internalType": "address",
          "name": "_stablecoinAdapter",
          "type": "address"
        },
        {
          "internalType": "uint256",
          "name": "_positionId",
          "type": "uint256"
        },
        {
          "internalType": "uint256",
          "name": "_amount",
          "type": "uint256"
        },
        {
          "internalType": "bytes",
          "name": "_data",
          "type": "bytes"
        }
      ],
      "name": "wipe",
      "outputs": [],
      "stateMutability": "nonpayable",
      "type": "function"
    },
    {
      "inputs": [
        {
          "internalType": "address",
          "name": "_manager",
          "type": "address"
        },
        {
          "internalType": "address",
          "name": "_tokenAdapter",
          "type": "address"
        },
        {
          "internalType": "address",
          "name": "_stablecoinAdapter",
          "type": "address"
        },
        {
          "internalType": "uint256",
          "name": "_positionId",
          "type": "uint256"
        },
        {
          "internalType": "uint256",
          "name": "_amount",
          "type": "uint256"
        },
        {
          "internalType": "address",
          "name": "_owner",
          "type": "address"
        },
        {
          "internalType": "bytes",
          "name": "_data",
          "type": "bytes"
        }
      ],
      "name": "safeWipe",
      "outputs": [],
      "stateMutability": "nonpayable",
      "type": "function"
    },
    {
      "inputs": [
        {
          "internalType": "address",
          "name": "_manager",
          "type": "address"
        },
        {
          "internalType": "address",
          "name": "_tokenAdapter",
          "type": "address"
        },
        {
          "internalType": "address",
          "name": "_stablecoinAdapter",
          "type": "address"
        },
        {
          "internalType": "uint256",
          "name": "_positionId",
          "type": "uint256"
        },
        {
          "internalType": "bytes",
          "name": "_data",
          "type": "bytes"
        }
      ],
      "name": "wipeAll",
      "outputs": [],
      "stateMutability": "nonpayable",
      "type": "function"
    },
    {
      "inputs": [
        {
          "internalType": "address",
          "name": "_manager",
          "type": "address"
        },
        {
          "internalType": "address",
          "name": "_tokenAdapter",
          "type": "address"
        },
        {
          "internalType": "address",
          "name": "_stablecoinAdapter",
          "type": "address"
        },
        {
          "internalType": "uint256",
          "name": "_positionId",
          "type": "uint256"
        },
        {
          "internalType": "address",
          "name": "_owner",
          "type": "address"
        },
        {
          "internalType": "bytes",
          "name": "_data",
          "type": "bytes"
        }
      ],
      "name": "safeWipeAll",
      "outputs": [],
      "stateMutability": "nonpayable",
      "type": "function"
    },
    {
      "inputs": [
        {
          "internalType": "address",
          "name": "_manager",
          "type": "address"
        },
        {
          "internalType": "address",
          "name": "_stabilityFeeCollector",
          "type": "address"
        },
        {
          "internalType": "address",
          "name": "_bnbAdapter",
          "type": "address"
        },
        {
          "internalType": "address",
          "name": "_stablecoinAdapter",
          "type": "address"
        },
        {
          "internalType": "uint256",
          "name": "_positionId",
          "type": "uint256"
        },
        {
          "internalType": "uint256",
          "name": "_stablecoinAmount",
          "type": "uint256"
        },
        {
          "internalType": "bytes",
          "name": "_data",
          "type": "bytes"
        }
      ],
      "name": "lockBNBAndDraw",
      "outputs": [],
      "stateMutability": "payable",
      "type": "function"
    },
    {
      "inputs": [
        {
          "internalType": "address",
          "name": "_manager",
          "type": "address"
        },
        {
          "internalType": "address",
          "name": "_stabilityFeeCollector",
          "type": "address"
        },
        {
          "internalType": "address",
          "name": "_bnbAdapter",
          "type": "address"
        },
        {
          "internalType": "address",
          "name": "_stablecoinAdapter",
          "type": "address"
        },
        {
          "internalType": "bytes32",
          "name": "_collateralPoolId",
          "type": "bytes32"
        },
        {
          "internalType": "uint256",
          "name": "_stablecoinAmount",
          "type": "uint256"
        },
        {
          "internalType": "bytes",
          "name": "_data",
          "type": "bytes"
        }
      ],
      "name": "openLockBNBAndDraw",
      "outputs": [
        {
          "internalType": "uint256",
          "name": "_positionId",
          "type": "uint256"
        }
      ],
      "stateMutability": "payable",
      "type": "function"
    },
    {
      "inputs": [
        {
          "internalType": "contract IManager",
          "name": "_manager",
          "type": "address"
        },
        {
          "internalType": "address",
          "name": "_stabilityFeeCollector",
          "type": "address"
        },
        {
          "internalType": "address",
          "name": "_tokenAdapter",
          "type": "address"
        },
        {
          "internalType": "address",
          "name": "_stablecoinAdapter",
          "type": "address"
        },
        {
          "internalType": "uint256",
          "name": "_positionId",
          "type": "uint256"
        },
        {
          "internalType": "uint256",
          "name": "_collateralAmount",
          "type": "uint256"
        },
        {
          "internalType": "uint256",
          "name": "_stablecoinAmount",
          "type": "uint256"
        },
        {
          "internalType": "bool",
          "name": "_transferFrom",
          "type": "bool"
        },
        {
          "internalType": "bytes",
          "name": "_data",
          "type": "bytes"
        }
      ],
      "name": "lockTokenAndDraw",
      "outputs": [],
      "stateMutability": "nonpayable",
      "type": "function"
    },
    {
      "inputs": [
        {
          "internalType": "address",
          "name": "_manager",
          "type": "address"
        },
        {
          "internalType": "address",
          "name": "_stabilityFeeCollector",
          "type": "address"
        },
        {
          "internalType": "address",
          "name": "_tokenAdapter",
          "type": "address"
        },
        {
          "internalType": "address",
          "name": "_stablecoinAdapter",
          "type": "address"
        },
        {
          "internalType": "bytes32",
          "name": "_collateralPoolId",
          "type": "bytes32"
        },
        {
          "internalType": "uint256",
          "name": "_collateralAmount",
          "type": "uint256"
        },
        {
          "internalType": "uint256",
          "name": "_stablecoinAmount",
          "type": "uint256"
        },
        {
          "internalType": "bool",
          "name": "_transferFrom",
          "type": "bool"
        },
        {
          "internalType": "bytes",
          "name": "_data",
          "type": "bytes"
        }
      ],
      "name": "openLockTokenAndDraw",
      "outputs": [
        {
          "internalType": "uint256",
          "name": "_positionId",
          "type": "uint256"
        }
      ],
      "stateMutability": "nonpayable",
      "type": "function"
    },
    {
      "inputs": [
        {
          "internalType": "address",
          "name": "_vault",
          "type": "address"
        },
        {
          "internalType": "address",
          "name": "_manager",
          "type": "address"
        },
        {
          "internalType": "address",
          "name": "_tokenAdapter",
          "type": "address"
        },
        {
          "internalType": "uint256",
          "name": "_positionId",
          "type": "uint256"
        },
        {
          "internalType": "uint256",
          "name": "_amount",
          "type": "uint256"
        },
        {
          "internalType": "bytes",
          "name": "_data",
          "type": "bytes"
        }
      ],
      "name": "convertAndLockToken",
      "outputs": [],
      "stateMutability": "nonpayable",
      "type": "function"
    },
    {
      "inputs": [
        {
          "internalType": "address",
          "name": "_vault",
          "type": "address"
        },
        {
          "internalType": "contract IManager",
          "name": "_manager",
          "type": "address"
        },
        {
          "internalType": "address",
          "name": "_stabilityFeeCollector",
          "type": "address"
        },
        {
          "internalType": "address",
          "name": "_tokenAdapter",
          "type": "address"
        },
        {
          "internalType": "address",
          "name": "_stablecoinAdapter",
          "type": "address"
        },
        {
          "internalType": "uint256",
          "name": "_positionId",
          "type": "uint256"
        },
        {
          "internalType": "uint256",
          "name": "_amount",
          "type": "uint256"
        },
        {
          "internalType": "uint256",
          "name": "_stablecoinAmount",
          "type": "uint256"
        },
        {
          "internalType": "bytes",
          "name": "_data",
          "type": "bytes"
        }
      ],
      "name": "convertLockTokenAndDraw",
      "outputs": [],
      "stateMutability": "nonpayable",
      "type": "function"
    },
    {
      "inputs": [
        {
          "internalType": "address",
          "name": "_vault",
          "type": "address"
        },
        {
          "internalType": "address",
          "name": "_manager",
          "type": "address"
        },
        {
          "internalType": "address",
          "name": "_tokenAdapter",
          "type": "address"
        },
        {
          "internalType": "uint256",
          "name": "_positionId",
          "type": "uint256"
        },
        {
          "internalType": "bytes",
          "name": "_data",
          "type": "bytes"
        }
      ],
      "name": "convertBNBAndLockToken",
      "outputs": [],
      "stateMutability": "payable",
      "type": "function"
    },
    {
      "inputs": [
        {
          "internalType": "address",
          "name": "_vault",
          "type": "address"
        },
        {
          "internalType": "contract IManager",
          "name": "_manager",
          "type": "address"
        },
        {
          "internalType": "address",
          "name": "_stabilityFeeCollector",
          "type": "address"
        },
        {
          "internalType": "address",
          "name": "_tokenAdapter",
          "type": "address"
        },
        {
          "internalType": "address",
          "name": "_stablecoinAdapter",
          "type": "address"
        },
        {
          "internalType": "uint256",
          "name": "_positionId",
          "type": "uint256"
        },
        {
          "internalType": "uint256",
          "name": "_stablecoinAmount",
          "type": "uint256"
        },
        {
          "internalType": "bytes",
          "name": "_data",
          "type": "bytes"
        }
      ],
      "name": "convertBNBLockTokenAndDraw",
      "outputs": [],
      "stateMutability": "payable",
      "type": "function"
    },
    {
      "inputs": [
        {
          "internalType": "address",
          "name": "_vault",
          "type": "address"
        },
        {
          "internalType": "address",
          "name": "_manager",
          "type": "address"
        },
        {
          "internalType": "address",
          "name": "_stabilityFeeCollector",
          "type": "address"
        },
        {
          "internalType": "address",
          "name": "_tokenAdapter",
          "type": "address"
        },
        {
          "internalType": "address",
          "name": "_stablecoinAdapter",
          "type": "address"
        },
        {
          "internalType": "bytes32",
          "name": "_collateralPoolId",
          "type": "bytes32"
        },
        {
          "internalType": "uint256",
          "name": "_stablecoinAmount",
          "type": "uint256"
        },
        {
          "internalType": "bytes",
          "name": "_data",
          "type": "bytes"
        }
      ],
      "name": "convertBNBOpenLockTokenAndDraw",
      "outputs": [
        {
          "internalType": "uint256",
          "name": "positionId",
          "type": "uint256"
        }
      ],
      "stateMutability": "payable",
      "type": "function"
    },
    {
      "inputs": [
        {
          "internalType": "address",
          "name": "_vault",
          "type": "address"
        },
        {
          "internalType": "address",
          "name": "_manager",
          "type": "address"
        },
        {
          "internalType": "address",
          "name": "_stabilityFeeCollector",
          "type": "address"
        },
        {
          "internalType": "address",
          "name": "_tokenAdapter",
          "type": "address"
        },
        {
          "internalType": "address",
          "name": "_stablecoinAdapter",
          "type": "address"
        },
        {
          "internalType": "bytes32",
          "name": "_collateralPoolId",
          "type": "bytes32"
        },
        {
          "internalType": "uint256",
          "name": "_tokenAmount",
          "type": "uint256"
        },
        {
          "internalType": "uint256",
          "name": "_stablecoinAmount",
          "type": "uint256"
        },
        {
          "internalType": "bytes",
          "name": "_data",
          "type": "bytes"
        }
      ],
      "name": "convertOpenLockTokenAndDraw",
      "outputs": [
        {
          "internalType": "uint256",
          "name": "positionId",
          "type": "uint256"
        }
      ],
      "stateMutability": "nonpayable",
      "type": "function"
    },
    {
      "inputs": [
        {
          "internalType": "address",
          "name": "_manager",
          "type": "address"
        },
        {
          "internalType": "address",
          "name": "_bnbAdapter",
          "type": "address"
        },
        {
          "internalType": "address",
          "name": "_stablecoinAdapter",
          "type": "address"
        },
        {
          "internalType": "uint256",
          "name": "_positionId",
          "type": "uint256"
        },
        {
          "internalType": "uint256",
          "name": "_collateralAmount",
          "type": "uint256"
        },
        {
          "internalType": "uint256",
          "name": "_stablecoinAmount",
          "type": "uint256"
        },
        {
          "internalType": "bytes",
          "name": "_data",
          "type": "bytes"
        }
      ],
      "name": "wipeAndUnlockBNB",
      "outputs": [],
      "stateMutability": "nonpayable",
      "type": "function"
    },
    {
      "inputs": [
        {
          "internalType": "address",
          "name": "_manager",
          "type": "address"
        },
        {
          "internalType": "address",
          "name": "_bnbAdapter",
          "type": "address"
        },
        {
          "internalType": "address",
          "name": "_stablecoinAdapter",
          "type": "address"
        },
        {
          "internalType": "uint256",
          "name": "_positionId",
          "type": "uint256"
        },
        {
          "internalType": "uint256",
          "name": "_collateralAmount",
          "type": "uint256"
        },
        {
          "internalType": "bytes",
          "name": "_data",
          "type": "bytes"
        }
      ],
      "name": "wipeAllAndUnlockBNB",
      "outputs": [],
      "stateMutability": "nonpayable",
      "type": "function"
    },
    {
      "inputs": [
        {
          "internalType": "address",
          "name": "_manager",
          "type": "address"
        },
        {
          "internalType": "address",
          "name": "_tokenAdapter",
          "type": "address"
        },
        {
          "internalType": "address",
          "name": "_stablecoinAdapter",
          "type": "address"
        },
        {
          "internalType": "uint256",
          "name": "_positionId",
          "type": "uint256"
        },
        {
          "internalType": "uint256",
          "name": "_collateralAmount",
          "type": "uint256"
        },
        {
          "internalType": "uint256",
          "name": "_stablecoinAmount",
          "type": "uint256"
        },
        {
          "internalType": "bytes",
          "name": "_data",
          "type": "bytes"
        }
      ],
      "name": "wipeAndUnlockToken",
      "outputs": [],
      "stateMutability": "nonpayable",
      "type": "function"
    },
    {
      "inputs": [
        {
          "internalType": "address",
          "name": "_vault",
          "type": "address"
        },
        {
          "internalType": "address",
          "name": "_manager",
          "type": "address"
        },
        {
          "internalType": "address",
          "name": "_tokenAdapter",
          "type": "address"
        },
        {
          "internalType": "address",
          "name": "_stablecoinAdapter",
          "type": "address"
        },
        {
          "internalType": "uint256",
          "name": "_positionId",
          "type": "uint256"
        },
        {
          "internalType": "uint256",
          "name": "_collateralAmount",
          "type": "uint256"
        },
        {
          "internalType": "uint256",
          "name": "_stablecoinAmount",
          "type": "uint256"
        },
        {
          "internalType": "bytes",
          "name": "_data",
          "type": "bytes"
        }
      ],
      "name": "wipeUnlockIbBNBAndCovertToBNB",
      "outputs": [],
      "stateMutability": "nonpayable",
      "type": "function"
    },
    {
      "inputs": [
        {
          "internalType": "address",
          "name": "_vault",
          "type": "address"
        },
        {
          "internalType": "address",
          "name": "_manager",
          "type": "address"
        },
        {
          "internalType": "address",
          "name": "_tokenAdapter",
          "type": "address"
        },
        {
          "internalType": "address",
          "name": "_stablecoinAdapter",
          "type": "address"
        },
        {
          "internalType": "uint256",
          "name": "_positionId",
          "type": "uint256"
        },
        {
          "internalType": "uint256",
          "name": "_collateralAmount",
          "type": "uint256"
        },
        {
          "internalType": "uint256",
          "name": "_stablecoinAmount",
          "type": "uint256"
        },
        {
          "internalType": "bytes",
          "name": "_data",
          "type": "bytes"
        }
      ],
      "name": "wipeUnlockTokenAndConvert",
      "outputs": [],
      "stateMutability": "nonpayable",
      "type": "function"
    },
    {
      "inputs": [
        {
          "internalType": "address",
          "name": "_manager",
          "type": "address"
        },
        {
          "internalType": "address",
          "name": "_tokenAdapter",
          "type": "address"
        },
        {
          "internalType": "address",
          "name": "_stablecoinAdapter",
          "type": "address"
        },
        {
          "internalType": "uint256",
          "name": "_positionId",
          "type": "uint256"
        },
        {
          "internalType": "uint256",
          "name": "_collateralAmount",
          "type": "uint256"
        },
        {
          "internalType": "bytes",
          "name": "_data",
          "type": "bytes"
        }
      ],
      "name": "wipeAllAndUnlockToken",
      "outputs": [],
      "stateMutability": "nonpayable",
      "type": "function"
    },
    {
      "inputs": [
        {
          "internalType": "address",
          "name": "_vault",
          "type": "address"
        },
        {
          "internalType": "address",
          "name": "_manager",
          "type": "address"
        },
        {
          "internalType": "address",
          "name": "_tokenAdapter",
          "type": "address"
        },
        {
          "internalType": "address",
          "name": "_stablecoinAdapter",
          "type": "address"
        },
        {
          "internalType": "uint256",
          "name": "_positionId",
          "type": "uint256"
        },
        {
          "internalType": "uint256",
          "name": "_collateralAmount",
          "type": "uint256"
        },
        {
          "internalType": "bytes",
          "name": "_data",
          "type": "bytes"
        }
      ],
      "name": "wipeAllUnlockIbBNBAndConvertToBNB",
      "outputs": [],
      "stateMutability": "nonpayable",
      "type": "function"
    },
    {
      "inputs": [
        {
          "internalType": "address",
          "name": "_vault",
          "type": "address"
        },
        {
          "internalType": "address",
          "name": "_manager",
          "type": "address"
        },
        {
          "internalType": "address",
          "name": "_tokenAdapter",
          "type": "address"
        },
        {
          "internalType": "address",
          "name": "_stablecoinAdapter",
          "type": "address"
        },
        {
          "internalType": "uint256",
          "name": "_positionId",
          "type": "uint256"
        },
        {
          "internalType": "uint256",
          "name": "_collateralAmount",
          "type": "uint256"
        },
        {
          "internalType": "bytes",
          "name": "_data",
          "type": "bytes"
        }
      ],
      "name": "wipeAllUnlockTokenAndConvert",
      "outputs": [],
      "stateMutability": "nonpayable",
      "type": "function"
    },
    {
      "inputs": [
        {
          "internalType": "address",
          "name": "_manager",
          "type": "address"
        },
        {
          "internalType": "address",
          "name": "_tokenAdapter",
          "type": "address"
        },
        {
          "internalType": "uint256",
          "name": "_positionId",
          "type": "uint256"
        },
        {
          "internalType": "address",
          "name": "_harvestToken",
          "type": "address"
        }
      ],
      "name": "harvest",
      "outputs": [],
      "stateMutability": "nonpayable",
      "type": "function"
    },
    {
      "inputs": [
        {
          "internalType": "address",
          "name": "_manager",
          "type": "address"
        },
        {
          "internalType": "address[]",
          "name": "_tokenAdapters",
          "type": "address[]"
        },
        {
          "internalType": "uint256[]",
          "name": "_positionIds",
          "type": "uint256[]"
        },
        {
          "internalType": "address",
          "name": "_harvestToken",
          "type": "address"
        }
      ],
      "name": "harvestMultiple",
      "outputs": [],
      "stateMutability": "nonpayable",
      "type": "function"
    },
    {
      "inputs": [
        {
          "internalType": "address",
          "name": "_manager",
          "type": "address"
        },
        {
          "internalType": "uint256",
          "name": "_positionId",
          "type": "uint256"
        },
        {
          "internalType": "address",
          "name": "_tokenAdapter",
          "type": "address"
        },
        {
          "internalType": "bytes",
          "name": "_data",
          "type": "bytes"
        }
      ],
      "name": "redeemLockedCollateral",
      "outputs": [],
      "stateMutability": "nonpayable",
      "type": "function"
    }
  ],
  "bytecode": "0x608060405234801561001057600080fd5b506159a080620000216000396000f3fe6080604052600436106103505760003560e01c80639a4e5020116101c6578063bf33c1b8116100f7578063d8efea2411610095578063e9db68c71161006f578063e9db68c714610961578063eb6f2b9114610974578063fc4454fa14610994578063fcff5557146109a757600080fd5b8063d8efea2414610901578063db2072e614610921578063e10432361461094157600080fd5b8063ce295efd116100d1578063ce295efd1461088e578063ce4af695146108ae578063cf588ca0146108ce578063d75bf8f1146108ee57600080fd5b8063bf33c1b81461083b578063c6e898711461085b578063c95d17931461087b57600080fd5b8063ad33f40011610164578063b7c9836b1161013e578063b7c9836b146107d5578063bd922999146107f5578063bea603fe14610808578063beabacc81461081b57600080fd5b8063ad33f40014610775578063b092145e14610795578063b66291fb146107b557600080fd5b8063a02ce94d116101a0578063a02ce94d146106f5578063a0d7768d14610715578063a341fab114610735578063ad28ff881461075557600080fd5b80639a4e5020146106955780639cee8e4b146106b55780639cf77f6a146106d557600080fd5b8063602fe0f6116102a057806371a95c611161023e57806385d6aeb41161021857806385d6aeb4146106155780638889d0f4146106355780639758ffcb1461065557806399ea511e1461067557600080fd5b806371a95c61146105c257806378ebec91146105e25780637b4488981461060257600080fd5b806361a2ea071161027a57806361a2ea071461054257806368d7e633146105625780636aa3ee11146105825780637093ceb8146105a257600080fd5b8063602fe0f6146104e257806360a236d914610502578063614145d91461052257600080fd5b80632bd14b6b1161030d5780633cbfed50116102e75780633cbfed501461046f57806342f059ee1461048f57806354a707ef146104af5780635c648c2b146104c257600080fd5b80632bd14b6b1461041c5780632d5e9f1d1461042f5780632d6879411461044f57600080fd5b80630b74a2c01461035557806312c6b9921461037757806314605ba61461039757806316d8bd51146103c957806318bf7ce1146103e95780631c55ac9b146103fc575b600080fd5b34801561036157600080fd5b50610375610370366004614874565b6109c7565b005b34801561038357600080fd5b50610375610392366004614914565b610c79565b3480156103a357600080fd5b506103b76103b236600461499d565b610cfd565b60405190815260200160405180910390f35b3480156103d557600080fd5b506103756103e43660046149df565b610f0e565b6103756103f7366004614a45565b61128b565b34801561040857600080fd5b50610375610417366004614914565b6112ae565b6103b761042a366004614874565b611417565b34801561043b57600080fd5b5061037561044a366004614afb565b611442565b34801561045b57600080fd5b5061037561046a366004614b4e565b61160b565b34801561047b57600080fd5b5061037561048a366004614914565b6112cf565b34801561049b57600080fd5b506103756104aa366004614be5565b6116b6565b6103b76104bd366004614a45565b611715565b3480156104ce57600080fd5b506103756104dd366004614c26565b611748565b3480156104ee57600080fd5b506103756104fd366004614c98565b61180b565b34801561050e57600080fd5b5061037561051d366004614ce0565b61187b565b34801561052e57600080fd5b5061037561053d366004614da1565b6118a7565b34801561054e57600080fd5b506103b761055d366004614ce0565b6118cc565b34801561056e57600080fd5b5061037561057d366004614e2b565b611904565b34801561058e57600080fd5b506103b761059d366004614e76565b611968565b3480156105ae57600080fd5b506103756105bd366004614874565b6119e7565b3480156105ce57600080fd5b506103756105dd366004614914565b611a00565b3480156105ee57600080fd5b506103756105fd366004614ead565b611ac3565b610375610610366004614c26565b611dfe565b34801561062157600080fd5b50610375610630366004614be5565b611e90565b34801561064157600080fd5b50610375610650366004614f1c565b611ec5565b34801561066157600080fd5b50610375610670366004614f82565b611f8e565b34801561068157600080fd5b506103b7610690366004615002565b612031565b3480156106a157600080fd5b506103756106b0366004614e76565b612052565b3480156106c157600080fd5b506103756106d0366004614ead565b612087565b3480156106e157600080fd5b506103756106f036600461509e565b6120a9565b34801561070157600080fd5b50610375610710366004615103565b61214c565b34801561072157600080fd5b50610375610730366004614ead565b6123e2565b34801561074157600080fd5b5061037561075036600461517a565b612775565b34801561076157600080fd5b506103756107703660046151af565b6127a9565b34801561078157600080fd5b506103756107903660046151e8565b612801565b3480156107a157600080fd5b506103756107b03660046151af565b612837565b3480156107c157600080fd5b506103756107d0366004614c98565b612865565b3480156107e157600080fd5b506103756107f0366004614e76565b6128a1565b610375610803366004615225565b6128d6565b6103b761081636600461499d565b612977565b34801561082757600080fd5b50610375610836366004614be5565b612a4b565b34801561084757600080fd5b50610375610856366004615270565b612a64565b34801561086757600080fd5b506103756108763660046152c5565b612ac6565b6103756108893660046152f1565b612c7b565b34801561089a57600080fd5b506103756108a9366004614874565b612d7f565b3480156108ba57600080fd5b506103756108c9366004615002565b612d9c565b3480156108da57600080fd5b506103756108e9366004614ead565b6131a8565b6103756108fc3660046152c5565b6133eb565b34801561090d57600080fd5b5061037561091c366004615355565b613474565b34801561092d57600080fd5b5061037561093c366004614da1565b61350c565b34801561094d57600080fd5b5061037561095c366004614afb565b61352a565b61037561096f366004614874565b61361f565b34801561098057600080fd5b5061037561098f36600461547d565b613789565b6103756109a23660046149df565b613944565b3480156109b357600080fd5b506103756109c2366004615103565b613964565b60405163133f757160e31b8152600481018590526000906001600160a01b038a16906399fbab8890602401602060405180830381865afa158015610a0f573d6000803e3d6000fd5b505050506040513d601f19601f82011682018060405250810190610a339190615563565b90506000896001600160a01b031663e3b3932a6040518163ffffffff1660e01b8152600401602060405180830381865afa158015610a75573d6000803e3d6000fd5b505050506040513d601f19601f82011682018060405250810190610a999190615563565b6040516336df277960e11b8152600481018890529091506000906001600160a01b038c1690636dbe4ef290602401602060405180830381865afa158015610ae4573d6000803e3d6000fd5b505050506040513d601f19601f82011682018060405250810190610b089190615580565b9050610b268b886000610b1e868f89888e613ca5565b8d8a8a611904565b610b358b88306104fd8a613e14565b60405163d9ea915560e01b81523060048201526001600160a01b03898116602483015283169063d9ea915590604401602060405180830381865afa158015610b81573d6000803e3d6000fd5b505050506040513d601f19601f82011682018060405250810190610ba59190615580565b600003610c0857604051634d8c928d60e11b81526001600160a01b038981166004830152831690639b19251a90602401600060405180830381600087803b158015610bef57600080fd5b505af1158015610c03573d6000803e3d6000fd5b505050505b6040516331f0926560e01b81526001600160a01b038916906331f0926590610c3a9033908a908a908a906004016155c2565b600060405180830381600087803b158015610c5457600080fd5b505af1158015610c68573d6000803e3d6000fd5b505050505050505050505050505050565b610c91868530610c898988613e31565b898787612801565b6040516331f0926560e01b81526001600160a01b038616906331f0926590610cc39033908790879087906004016155c2565b600060405180830381600087803b158015610cdd57600080fd5b505af1158015610cf1573d6000803e3d6000fd5b50505050505050505050565b6000610d78333085876001600160a01b031663fc0c546a6040518163ffffffff1660e01b8152600401602060405180830381865afa158015610d43573d6000803e3d6000fd5b505050506040513d601f19601f82011682018060405250810190610d679190615563565b6001600160a01b0316929190613ebd565b610de4846001600160a01b031663fc0c546a6040518163ffffffff1660e01b8152600401602060405180830381865afa158015610db9573d6000803e3d6000fd5b505050506040513d601f19601f82011682018060405250810190610ddd9190615563565b8585613fcd565b6000610df96001600160a01b038616306140d0565b60405163b6b55f2560e01b8152600481018690529091506001600160a01b0386169063b6b55f2590602401600060405180830381600087803b158015610e3e57600080fd5b505af1158015610e52573d6000803e3d6000fd5b5060009250610e6d9150506001600160a01b038716306140d0565b9050610edc866001600160a01b031663fc0c546a6040518163ffffffff1660e01b8152600401602060405180830381865afa158015610eb0573d6000803e3d6000fd5b505050506040513d601f19601f82011682018060405250810190610ed49190615563565b876000613fcd565b6000610ee8828461413e565b90508415610f0457610f046001600160a01b038816338361418b565b9695505050505050565b6000866001600160a01b031663e3b3932a6040518163ffffffff1660e01b8152600401602060405180830381865afa158015610f4e573d6000803e3d6000fd5b505050506040513d601f19601f82011682018060405250810190610f729190615563565b60405163133f757160e31b8152600481018690529091506000906001600160a01b038916906399fbab8890602401602060405180830381865afa158015610fbd573d6000803e3d6000fd5b505050506040513d601f19601f82011682018060405250810190610fe19190615563565b6040516336df277960e11b8152600481018790529091506000906001600160a01b038a1690636dbe4ef290602401602060405180830381865afa15801561102c573d6000803e3d6000fd5b505050506040513d601f19601f820116820180604052508101906110509190615580565b604051630a76216560e21b8152600481018290526001600160a01b0384811660248301529192506000918516906329d88594906044016040805180830381865afa1580156110a2573d6000803e3d6000fd5b505050506040513d601f19601f820116820180604052508101906110c691906155ea565b60405163025e7c2760e01b8152600481018a9052909250600091506001600160a01b038c169063025e7c2790602401602060405180830381865afa158015611112573d6000803e3d6000fd5b505050506040513d601f19601f820116820180604052508101906111369190615563565b90506001600160a01b0381163014806111c5575060405163997cc90f60e01b81526001600160a01b038281166004830152602482018a90523060448301528c169063997cc90f90606401602060405180830381865afa15801561119d573d6000803e3d6000fd5b505050506040513d601f19601f820116820180604052508101906111c19190615580565b6001145b156111ff576111e289856111db8888898961428f565b8a8a611748565b6111fa8b8960006111f286615624565b8e8c8c611904565b61127e565b61121089306111db8830898961428f565b6001600160a01b0385166356bd594a84863080600061122e89615624565b6040516001600160e01b031960e089901b16815260048101969096526001600160a01b039485166024870152928416604486015292166064840152608483019190915260a482015260c401610c3a565b5050505050505050505050565b60006112998a346000612977565b9050610cf18989898989868a60008b8b612d9c565b6112cf86856112bc866144ba565b6112c590615624565b6000898787611904565b6112de86853086898787612801565b6040516331f0926560e01b81526001600160a01b038616906331f09265906113109030908790879087906004016155c2565b600060405180830381600087803b15801561132a57600080fd5b505af115801561133e573d6000803e3d6000fd5b50505050846001600160a01b031663b2016bd46040518163ffffffff1660e01b81526004016020604051808303816000875af1158015611382573d6000803e3d6000fd5b505050506040513d601f19601f820116820180604052508101906113a69190615563565b6001600160a01b0316632e1a7d4d846040518263ffffffff1660e01b81526004016113d391815260200190565b600060405180830381600087803b1580156113ed57600080fd5b505af1158015611401573d6000803e3d6000fd5b5050505061140f3384614500565b505050505050565b6000611424898630611968565b9050611436898989898589898961361f565b98975050505050505050565b60405163c455279160e01b81526001600160a01b0382811660048301526000919086169063c455279190602401602060405180830381865afa15801561148c573d6000803e3d6000fd5b505050506040513d601f19601f820116820180604052508101906114b09190615563565b90506001600160a01b038116158061153b5750816001600160a01b0316816001600160a01b0316638da5cb5b6040518163ffffffff1660e01b8152600401602060405180830381865afa15801561150b573d6000803e3d6000fd5b505050506040513d601f19601f8201168201806040525081019061152f9190615563565b6001600160a01b031614155b156115f957813b80156115895760405162461bcd60e51b8152602060048201526011602482015270111cdd0b5a5ccb584b58dbdb9d1c9858dd607a1b60448201526064015b60405180910390fd5b6040516379b80ed160e11b81526001600160a01b03848116600483015287169063f3701da2906024016020604051808303816000875af11580156115d1573d6000803e3d6000fd5b505050506040513d601f19601f820116820180604052508101906115f59190615563565b9150505b611604848483612052565b5050505050565b60405163025e7c2760e01b8152600481018590526001600160a01b03808516919089169063025e7c2790602401602060405180830381865afa158015611655573d6000803e3d6000fd5b505050506040513d601f19601f820116820180604052508101906116799190615563565b6001600160a01b03161461169f5760405162461bcd60e51b815260040161158090615640565b6116ad878787878686610f0e565b50505050505050565b604051632309463960e01b81526001600160a01b038381166004830152602482018390528416906323094639906044015b600060405180830381600087803b15801561170157600080fd5b505af11580156116ad573d6000803e3d6000fd5b6000806117248b346000612977565b90506117398a8a8a8a8a868b60008c8c612031565b9b9a5050505050505050505050565b6000856001600160a01b031663e9cbd8226040518163ffffffff1660e01b81526004016020604051808303816000875af115801561178a573d6000803e3d6000fd5b505050506040513d601f19601f820116820180604052508101906117ae9190615563565b90506117c56001600160a01b038216333087613ebd565b6117d96001600160a01b0382168786613fcd565b604051630937b85760e31b81526001600160a01b038716906349bdc2b890610cc39088908890889088906004016155c2565b6040516318d326fd60e31b8152600481018490526001600160a01b0383811660248301526044820183905285169063c69937e8906064015b600060405180830381600087803b15801561185d57600080fd5b505af1158015611871573d6000803e3d6000fd5b5050505050505050565b60006118928b61188b8a88613e31565b6000610cfd565b905061127e8a8a8a8a8a868a60008b8b612d9c565b6118b7888888888888888861214c565b6118c189856133eb565b505050505050505050565b6000806118dd8c61188b8b89613e31565b90506118f28b8b8b8b8b868b60008c8c612031565b9150505b9a9950505050505050505050565b6040516319202b7960e01b81526001600160a01b038816906319202b799061193a90899089908990899089908990600401615660565b600060405180830381600087803b15801561195457600080fd5b505af115801561127e573d6000803e3d6000fd5b604051636090dec560e01b8152600481018390526001600160a01b03828116602483015260009190851690636090dec5906044016020604051808303816000875af11580156119bb573d6000803e3d6000fd5b505050506040513d601f19601f820116820180604052508101906119df9190615580565b949350505050565b6119f6878787878787876131a8565b61187188846133eb565b60008115611a1757611a1482840184615694565b90505b6000611a238786613e31565b9050611a468887611a33846144ba565b611a3c90615624565b60008b8989611904565b611a55888730848b8989612801565b6040516331f0926560e01b81526001600160a01b038816906331f0926590611a879033908990899089906004016155c2565b600060405180830381600087803b158015611aa157600080fd5b505af1158015611ab5573d6000803e3d6000fd5b505050505050505050505050565b6000876001600160a01b031663e3b3932a6040518163ffffffff1660e01b8152600401602060405180830381865afa158015611b03573d6000803e3d6000fd5b505050506040513d601f19601f82011682018060405250810190611b279190615563565b60405163133f757160e31b8152600481018790529091506000906001600160a01b038a16906399fbab8890602401602060405180830381865afa158015611b72573d6000803e3d6000fd5b505050506040513d601f19601f82011682018060405250810190611b969190615563565b6040516336df277960e11b8152600481018890529091506000906001600160a01b038b1690636dbe4ef290602401602060405180830381865afa158015611be1573d6000803e3d6000fd5b505050506040513d601f19601f82011682018060405250810190611c059190615580565b604051630a76216560e21b8152600481018290526001600160a01b0384811660248301529192506000918516906329d88594906044016040805180830381865afa158015611c57573d6000803e3d6000fd5b505050506040513d601f19601f82011682018060405250810190611c7b91906155ea565b915050611c968984611c8f8787888861428f565b8989611748565b611cbe8b89611ca48a6144ba565b611cad90615624565b611cb685615624565b8e8b8b611904565b611ccd8b89308a8e8b8b612801565b6040516331f0926560e01b81526001600160a01b038b16906331f0926590611cff9030908b908b908b906004016155c2565b600060405180830381600087803b158015611d1957600080fd5b505af1158015611d2d573d6000803e3d6000fd5b50505050896001600160a01b031663b2016bd46040518163ffffffff1660e01b81526004016020604051808303816000875af1158015611d71573d6000803e3d6000fd5b505050506040513d601f19601f82011682018060405250810190611d959190615563565b6001600160a01b0316632e1a7d4d886040518263ffffffff1660e01b8152600401611dc291815260200190565b600060405180830381600087803b158015611ddc57600080fd5b505af1158015611df0573d6000803e3d6000fd5b5050505061127e3388614500565b60405163133f757160e31b8152600481018490526000906001600160a01b038716906399fbab8890602401602060405180830381865afa158015611e46573d6000803e3d6000fd5b505050506040513d601f19601f82011682018060405250810190611e6a9190615563565b9050611e7885828585612c7b565b61140f8685611e86346144ba565b6000898888611904565b6040516373cc200d60e11b81526001600160a01b0383811660048301526024820183905284169063e798401a906044016116e7565b6000866001600160a01b031663b2016bd46040518163ffffffff1660e01b81526004016020604051808303816000875af1158015611f07573d6000803e3d6000fd5b505050506040513d601f19601f82011682018060405250810190611f2b9190615563565b90508315611f4857611f486001600160a01b038216333088613ebd565b611f5c6001600160a01b0382168887613fcd565b604051630937b85760e31b81526001600160a01b038816906349bdc2b89061193a9089908990889088906004016155c2565b60405163025e7c2760e01b8152600481018690526001600160a01b0380851691908a169063025e7c2790602401602060405180830381865afa158015611fd8573d6000803e3d6000fd5b505050506040513d601f19601f82011682018060405250810190611ffc9190615563565b6001600160a01b0316146120225760405162461bcd60e51b815260040161158090615640565b611871888888888887876123e2565b600061203e8b8830611968565b90506118f68b8b8b8b858b8b8b8b8b612d9c565b604051631f95f98d60e31b8152600481018390526001600160a01b03828116602483015284169063fcafcc68906044016116e7565b60006120978861188b8887613e31565b90506118718787878460008888613474565b60405163025e7c2760e01b8152600481018790526001600160a01b0380851691908a169063025e7c2790602401602060405180830381865afa1580156120f3573d6000803e3d6000fd5b505050506040513d601f19601f820116820180604052508101906121179190615563565b6001600160a01b03161461213d5760405162461bcd60e51b815260040161158090615640565b61187188888888888787613474565b60405163133f757160e31b8152600481018690526000906001600160a01b038a16906399fbab8890602401602060405180830381865afa158015612194573d6000803e3d6000fd5b505050506040513d601f19601f820116820180604052508101906121b89190615563565b90506121c78782868686611748565b60006121d38987613e31565b9050600061237f8b6001600160a01b031663e3b3932a6040518163ffffffff1660e01b8152600401602060405180830381865afa158015612218573d6000803e3d6000fd5b505050506040513d601f19601f8201168201806040525081019061223c9190615563565b8c6001600160a01b031663e3b3932a6040518163ffffffff1660e01b8152600401602060405180830381865afa15801561227a573d6000803e3d6000fd5b505050506040513d601f19601f8201168201806040525081019061229e9190615563565b60405163b4ac08bb60e01b81526001600160a01b038781166004830152919091169063b4ac08bb90602401602060405180830381865afa1580156122e6573d6000803e3d6000fd5b505050506040513d601f19601f8201168201806040525081019061230a9190615580565b858e6001600160a01b0316636dbe4ef28d6040518263ffffffff1660e01b815260040161233991815260200190565b602060405180830381865afa158015612356573d6000803e3d6000fd5b505050506040513d601f19601f8201168201806040525081019061237a9190615580565b6145b0565b90506123a18b8961238f856144ba565b61239890615624565b848e8a8a611904565b6123b08b8930858e8a8a612801565b6040516331f0926560e01b81526001600160a01b038b16906331f0926590610c3a9033908b908a908a906004016155c2565b6000876001600160a01b031663e3b3932a6040518163ffffffff1660e01b8152600401602060405180830381865afa158015612422573d6000803e3d6000fd5b505050506040513d601f19601f820116820180604052508101906124469190615563565b60405163133f757160e31b8152600481018790529091506000906001600160a01b038a16906399fbab8890602401602060405180830381865afa158015612491573d6000803e3d6000fd5b505050506040513d601f19601f820116820180604052508101906124b59190615563565b6040516336df277960e11b8152600481018890529091506000906001600160a01b038b1690636dbe4ef290602401602060405180830381865afa158015612500573d6000803e3d6000fd5b505050506040513d601f19601f820116820180604052508101906125249190615580565b60405163025e7c2760e01b8152600481018990529091506000906001600160a01b038c169063025e7c2790602401602060405180830381865afa15801561256f573d6000803e3d6000fd5b505050506040513d601f19601f820116820180604052508101906125939190615563565b90506001600160a01b038116301480612622575060405163997cc90f60e01b81526001600160a01b038281166004830152602482018a90523060448301528c169063997cc90f90606401602060405180830381865afa1580156125fa573d6000803e3d6000fd5b505050506040513d601f19601f8201168201806040525081019061261e9190615580565b6001145b156126b6576126348984898989611748565b60405163b4ac08bb60e01b81526001600160a01b0384811660048301526111fa918d918b91600091611cb6918a9182169063b4ac08bb90602401602060405180830381865afa15801561268b573d6000803e3d6000fd5b505050506040513d601f19601f820116820180604052508101906126af9190615580565b89896145b0565b6126c38930898989611748565b60006126e5856126de676765c793fa10079d601b1b8b6156b1565b86866145b0565b604051632b5eaca560e11b8152600481018590526001600160a01b038681166024830152306044830181905260648301526000608483015260a48201839052919250908616906356bd594a9060c4015b600060405180830381600087803b15801561274f57600080fd5b505af1158015612763573d6000803e3d6000fd5b50505050505050505050505050505050565b60405163a3cf2f4f60e01b815260048101839052602481018290526001600160a01b0384169063a3cf2f4f906044016116e7565b604051633e7e4af960e21b81526001600160a01b03828116600483015283169063f9f92be4906024015b600060405180830381600087803b1580156127ed57600080fd5b505af115801561140f573d6000803e3d6000fd5b60405163571dbb7960e01b81526001600160a01b0388169063571dbb799061193a908990899089908990899089906004016156c8565b604051634d8c928d60e11b81526001600160a01b038281166004830152831690639b19251a906024016127d3565b604051638876e58960e01b8152600481018490526001600160a01b03838116602483015260448201839052851690638876e58990606401611843565b60405163ba9a392560e01b8152600481018390526001600160a01b03828116602483015284169063ba9a3925906044016116e7565b60405163025e7c2760e01b8152600481018590526001600160a01b03808516919088169063025e7c2790602401602060405180830381865afa158015612920573d6000803e3d6000fd5b505050506040513d601f19601f820116820180604052508101906129449190615563565b6001600160a01b03161461296a5760405162461bcd60e51b815260040161158090615640565b61140f8686868585611dfe565b60006129ba846001600160a01b031663fc0c546a6040518163ffffffff1660e01b8152600401602060405180830381865afa158015610db9573d6000803e3d6000fd5b60006129cf6001600160a01b038616306140d0565b60405163b6b55f2560e01b815234600482018190529192506001600160a01b0387169163b6b55f25916024016000604051808303818588803b158015612a1457600080fd5b505af1158015612a28573d6000803e3d6000fd5b50505050506000610e6d30876001600160a01b03166140d090919063ffffffff16565b612a5f6001600160a01b038416838361418b565b505050565b604051636bd2c56560e01b81526001600160a01b03861690636bd2c56590612a989087908790309088908890600401615702565b600060405180830381600087803b158015612ab257600080fd5b505af11580156118c1573d6000803e3d6000fd5b612adb6001600160a01b038316333084613ebd565b6000612b5230846001600160a01b031663fc0c546a6040518163ffffffff1660e01b8152600401602060405180830381865afa158015612b1f573d6000803e3d6000fd5b505050506040513d601f19601f82011682018060405250810190612b439190615563565b6001600160a01b0316906140d0565b604051632e1a7d4d60e01b8152600481018490529091506001600160a01b03841690632e1a7d4d90602401600060405180830381600087803b158015612b9757600080fd5b505af1158015612bab573d6000803e3d6000fd5b505050506000612bf330856001600160a01b031663fc0c546a6040518163ffffffff1660e01b8152600401602060405180830381865afa158015612b1f573d6000803e3d6000fd5b9050612c7533612c03838561413e565b866001600160a01b031663fc0c546a6040518163ffffffff1660e01b8152600401602060405180830381865afa158015612c41573d6000803e3d6000fd5b505050506040513d601f19601f82011682018060405250810190612c659190615563565b6001600160a01b0316919061418b565b50505050565b6000846001600160a01b031663b2016bd46040518163ffffffff1660e01b81526004016020604051808303816000875af1158015612cbd573d6000803e3d6000fd5b505050506040513d601f19601f82011682018060405250810190612ce19190615563565b9050806001600160a01b031663d0e30db0346040518263ffffffff1660e01b81526004016000604051808303818588803b158015612d1e57600080fd5b505af1158015612d32573d6000803e3d6000fd5b50612d4d935050506001600160a01b03831690508634613fcd565b604051630937b85760e31b81526001600160a01b038616906349bdc2b890612a989087903490889088906004016155c2565b612d8e878787878787876131a8565b611871886108768886613e31565b6040516336df277960e11b8152600481018790526000906001600160a01b038c1690636dbe4ef290602401602060405180830381865afa158015612de4573d6000803e3d6000fd5b505050506040513d601f19601f82011682018060405250810190612e089190615580565b9050612e86898c6001600160a01b03166399fbab888a6040518263ffffffff1660e01b8152600401612e3c91815260200190565b602060405180830381865afa158015612e59573d6000803e3d6000fd5b505050506040513d601f19601f82011682018060405250810190612e7d9190615563565b88878787611ec5565b6000612e9a612e958b89613e31565b6144ba565b90506000612f7a8d6001600160a01b031663e3b3932a6040518163ffffffff1660e01b8152600401602060405180830381865afa158015612edf573d6000803e3d6000fd5b505050506040513d601f19601f82011682018060405250810190612f039190615563565b8d8f6001600160a01b03166399fbab888d6040518263ffffffff1660e01b8152600401612f3291815260200190565b602060405180830381865afa158015612f4f573d6000803e3d6000fd5b505050506040513d601f19601f82011682018060405250810190612f739190615563565b868b613ca5565b9050612f8b8d8a84848f8a8a611904565b612f9a8d8a306104fd8b613e14565b8c6001600160a01b031663e3b3932a6040518163ffffffff1660e01b8152600401602060405180830381865afa158015612fd8573d6000803e3d6000fd5b505050506040513d601f19601f82011682018060405250810190612ffc9190615563565b60405163d9ea915560e01b81523060048201526001600160a01b038c81166024830152919091169063d9ea915590604401602060405180830381865afa15801561304a573d6000803e3d6000fd5b505050506040513d601f19601f8201168201806040525081019061306e9190615580565b600003613135578c6001600160a01b031663e3b3932a6040518163ffffffff1660e01b8152600401602060405180830381865afa1580156130b3573d6000803e3d6000fd5b505050506040513d601f19601f820116820180604052508101906130d79190615563565b604051634d8c928d60e11b81526001600160a01b038c811660048301529190911690639b19251a90602401600060405180830381600087803b15801561311c57600080fd5b505af1158015613130573d6000803e3d6000fd5b505050505b6040516331f0926560e01b81526001600160a01b038b16906331f09265906131679033908b908a908a906004016155c2565b600060405180830381600087803b15801561318157600080fd5b505af1158015613195573d6000803e3d6000fd5b5050505050505050505050505050505050565b6000876001600160a01b031663e3b3932a6040518163ffffffff1660e01b8152600401602060405180830381865afa1580156131e8573d6000803e3d6000fd5b505050506040513d601f19601f8201168201806040525081019061320c9190615563565b60405163133f757160e31b8152600481018790529091506000906001600160a01b038a16906399fbab8890602401602060405180830381865afa158015613257573d6000803e3d6000fd5b505050506040513d601f19601f8201168201806040525081019061327b9190615563565b6040516336df277960e11b8152600481018890529091506000906001600160a01b038b1690636dbe4ef290602401602060405180830381865afa1580156132c6573d6000803e3d6000fd5b505050506040513d601f19601f820116820180604052508101906132ea9190615580565b604051630a76216560e21b8152600481018290526001600160a01b0384811660248301529192506000918516906329d88594906044016040805180830381865afa15801561333c573d6000803e3d6000fd5b505050506040513d601f19601f8201168201806040525081019061336091906155ea565b9150506133748984611c8f8787888861428f565b60006133808b89613e31565b90506133aa8c8a613390846144ba565b61339990615624565b6133a286615624565b8f8c8c611904565b6133b98c8a30848f8c8c612801565b6040516331f0926560e01b81526001600160a01b038c16906331f09265906127359033908c908c908c906004016155c2565b6134006001600160a01b038316333084613ebd565b604051632e1a7d4d60e01b81526004810182905247906001600160a01b03841690632e1a7d4d90602401600060405180830381600087803b15801561344457600080fd5b505af1158015613458573d6000803e3d6000fd5b505050506000479050612c753361346f838561413e565b614500565b60405163133f757160e31b8152600481018690526000906001600160a01b038916906399fbab8890602401602060405180830381865afa1580156134bc573d6000803e3d6000fd5b505050506040513d601f19601f820116820180604052508101906134e09190615563565b90506134f0878287878787611ec5565b6118718887613502612e958b8a613e31565b60008b8888611904565b61351c888888888888888861214c565b6118c1896108768987613e31565b60405163133f757160e31b8152600481018390526000906001600160a01b038616906399fbab8890602401602060405180830381865afa158015613572573d6000803e3d6000fd5b505050506040513d601f19601f820116820180604052508101906135969190615563565b6040805160008082526020820192839052630937b85760e31b9092529192506001600160a01b038616916349bdc2b8916135d69185919060248101615759565b600060405180830381600087803b1580156135f057600080fd5b505af1158015613604573d6000803e3d6000fd5b505050506116048233610836856001600160a01b031661473f565b60405163133f757160e31b8152600481018590526000906001600160a01b038a16906399fbab8890602401602060405180830381865afa158015613667573d6000803e3d6000fd5b505050506040513d601f19601f8201168201806040525081019061368b9190615563565b90506000896001600160a01b031663e3b3932a6040518163ffffffff1660e01b8152600401602060405180830381865afa1580156136cd573d6000803e3d6000fd5b505050506040513d601f19601f820116820180604052508101906136f19190615563565b6040516336df277960e11b8152600481018890529091506000906001600160a01b038c1690636dbe4ef290602401602060405180830381865afa15801561373c573d6000803e3d6000fd5b505050506040513d601f19601f820116820180604052508101906137609190615580565b905061376e89848787612c7b565b610b268b8861377c346144ba565b610b1e868f89888e613ca5565b81518351146137f05760405162461bcd60e51b815260206004820152602d60248201527f746f6b656e416461707465727320616e6420706f736974696f6e496473206c6560448201526c0dccee8d040dad2e6dac2e8c6d609b1b6064820152608401611580565b60005b825181101561392c576000856001600160a01b03166399fbab8885848151811061381f5761381f6157a2565b60200260200101516040518263ffffffff1660e01b815260040161384591815260200190565b602060405180830381865afa158015613862573d6000803e3d6000fd5b505050506040513d601f19601f820116820180604052508101906138869190615563565b905084828151811061389a5761389a6157a2565b60200260200101516001600160a01b03166349bdc2b88260006040516020016040516020818303038152906040526040518463ffffffff1660e01b81526004016138e693929190615759565b600060405180830381600087803b15801561390057600080fd5b505af1158015613914573d6000803e3d6000fd5b50505050508080613924906157b8565b9150506137f3565b50612c758133610836846001600160a01b031661473f565b600061395287346000612977565b90506116ad8686868460008888613474565b60405163133f757160e31b8152600481018690526000906001600160a01b038a16906399fbab8890602401602060405180830381865afa1580156139ac573d6000803e3d6000fd5b505050506040513d601f19601f820116820180604052508101906139d09190615563565b90506139df8782868686611748565b6000613b438a6001600160a01b031663e3b3932a6040518163ffffffff1660e01b8152600401602060405180830381865afa158015613a22573d6000803e3d6000fd5b505050506040513d601f19601f82011682018060405250810190613a469190615563565b8b6001600160a01b031663e3b3932a6040518163ffffffff1660e01b8152600401602060405180830381865afa158015613a84573d6000803e3d6000fd5b505050506040513d601f19601f82011682018060405250810190613aa89190615563565b60405163b4ac08bb60e01b81526001600160a01b038681166004830152919091169063b4ac08bb90602401602060405180830381865afa158015613af0573d6000803e3d6000fd5b505050506040513d601f19601f82011682018060405250810190613b149190615580565b6040516336df277960e11b8152600481018b905285906001600160a01b038f1690636dbe4ef290602401612339565b9050613b658a88613b53896144ba565b613b5c90615624565b848d8989611904565b613b748a8830898d8989612801565b6040516331f0926560e01b81526001600160a01b038a16906331f0926590613ba69030908a90899089906004016155c2565b600060405180830381600087803b158015613bc057600080fd5b505af1158015613bd4573d6000803e3d6000fd5b50505050886001600160a01b031663b2016bd46040518163ffffffff1660e01b81526004016020604051808303816000875af1158015613c18573d6000803e3d6000fd5b505050506040513d601f19601f82011682018060405250810190613c3c9190615563565b6001600160a01b0316632e1a7d4d876040518263ffffffff1660e01b8152600401613c6991815260200190565b600060405180830381600087803b158015613c8357600080fd5b505af1158015613c97573d6000803e3d6000fd5b50505050610cf13387614500565b60405163497777d560e01b81526004810183905260009081906001600160a01b0387169063497777d5906024016020604051808303816000875af1158015613cf1573d6000803e3d6000fd5b505050506040513d601f19601f82011682018060405250810190613d159190615580565b60405163b4ac08bb60e01b81526001600160a01b03878116600483015291925060009189169063b4ac08bb90602401602060405180830381865afa158015613d61573d6000803e3d6000fd5b505050506040513d601f19601f82011682018060405250810190613d859190615580565b9050613d9c84676765c793fa10079d601b1b6147aa565b811015613e0957613dcf82613dc5613dbf87676765c793fa10079d601b1b6147aa565b8461413e565b612e9591906157d1565b9250613de684676765c793fa10079d601b1b6147aa565b613df084846147aa565b10613dfb5782613e06565b613e068360016157f3565b92505b505095945050505050565b6000613e2b82676765c793fa10079d601b1b6147aa565b92915050565b6000613eb682846001600160a01b031663313ce5676040518163ffffffff1660e01b81526004016020604051808303816000875af1158015613e77573d6000803e3d6000fd5b505050506040513d601f19601f82011682018060405250810190613e9b9190615580565b613ea690601261581b565b613eb190600a615912565b6147aa565b9392505050565b604080516001600160a01b0385811660248301528481166044830152606480830185905283518084039091018152608490920183526020820180516001600160e01b03166323b872dd60e01b1790529151600092839290881691613f21919061591e565b6000604051808303816000865af19150503d8060008114613f5e576040519150601f19603f3d011682016040523d82523d6000602084013e613f63565b606091505b5091509150818015613f8d575080511580613f8d575080806020019051810190613f8d919061593a565b61140f5760405162461bcd60e51b815260206004820152601160248201527021736166655472616e7366657246726f6d60781b6044820152606401611580565b604080516001600160a01b038481166024830152604480830185905283518084039091018152606490920183526020820180516001600160e01b031663095ea7b360e01b1790529151600092839290871691614029919061591e565b6000604051808303816000865af19150503d8060008114614066576040519150601f19603f3d011682016040523d82523d6000602084013e61406b565b606091505b5091509150818015614095575080511580614095575080806020019051810190614095919061593a565b6116045760405162461bcd60e51b815260206004820152600c60248201526b2173616665417070726f766560a01b6044820152606401611580565b6040516370a0823160e01b81526001600160a01b038281166004830152600091908416906370a0823190602401602060405180830381865afa15801561411a573d6000803e3d6000fd5b505050506040513d601f19601f82011682018060405250810190613eb69190615580565b60008261414b838261581b565b9150811115613e2b5760405162461bcd60e51b815260206004820152600c60248201526b7375622d6f766572666c6f7760a01b6044820152606401611580565b604080516001600160a01b038481166024830152604480830185905283518084039091018152606490920183526020820180516001600160e01b031663a9059cbb60e01b17905291516000928392908716916141e7919061591e565b6000604051808303816000865af19150503d8060008114614224576040519150601f19603f3d011682016040523d82523d6000602084013e614229565b606091505b5091509150818015614253575080511580614253575080806020019051810190614253919061593a565b6116045760405162461bcd60e51b815260206004820152600d60248201526c10b9b0b332aa3930b739b332b960991b6044820152606401611580565b600080856001600160a01b031663d86824616040518163ffffffff1660e01b8152600401602060405180830381865afa1580156142d0573d6000803e3d6000fd5b505050506040513d601f19601f820116820180604052508101906142f49190615563565b6001600160a01b031663a09b0fe0846040518263ffffffff1660e01b815260040161432191815260200190565b602060405180830381865afa15801561433e573d6000803e3d6000fd5b505050506040513d601f19601f820116820180604052508101906143629190615580565b604051630a76216560e21b8152600481018590526001600160a01b0386811660248301529192506000918816906329d88594906044016040805180830381865afa1580156143b4573d6000803e3d6000fd5b505050506040513d601f19601f820116820180604052508101906143d891906155ea565b60405163b4ac08bb60e01b81526001600160a01b038981166004830152919350600092509089169063b4ac08bb90602401602060405180830381865afa158015614426573d6000803e3d6000fd5b505050506040513d601f19601f8201168201806040525081019061444a9190615580565b9050600061445883856147aa565b905060008282101561446b576000614475565b614475828461413e565b905061448c676765c793fa10079d601b1b826157d1565b9550806144a487676765c793fa10079d601b1b6147aa565b106144af57856118f6565b6118f6866001615957565b8060008112156144fb5760405162461bcd60e51b815260206004820152600c60248201526b696e742d6f766572666c6f7760a01b6044820152606401611580565b919050565b604080516000808252602082019092526001600160a01b03841690839060405161452a919061591e565b60006040518083038185875af1925050503d8060008114614567576040519150601f19603f3d011682016040523d82523d6000602084013e61456c565b606091505b5050905080612a5f5760405162461bcd60e51b815260206004820152601060248201526f042e6c2cccaa8e4c2dce6cccae48aa8960831b6044820152606401611580565b600080856001600160a01b031663d86824616040518163ffffffff1660e01b8152600401602060405180830381865afa1580156145f1573d6000803e3d6000fd5b505050506040513d601f19601f820116820180604052508101906146159190615563565b6001600160a01b031663a09b0fe0846040518263ffffffff1660e01b815260040161464291815260200190565b602060405180830381865afa15801561465f573d6000803e3d6000fd5b505050506040513d601f19601f820116820180604052508101906146839190615580565b604051630a76216560e21b8152600481018590526001600160a01b0386811660248301529192506000918816906329d88594906044016040805180830381865afa1580156146d5573d6000803e3d6000fd5b505050506040513d601f19601f820116820180604052508101906146f991906155ea565b915061470a9050612e9583886157d1565b92508083111561472b5761471d816144ba565b61472690615624565b614734565b61473483615624565b979650505050505050565b6040516370a0823160e01b81523060048201526000906001600160a01b038316906370a0823190602401602060405180830381865afa158015614786573d6000803e3d6000fd5b505050506040513d601f19601f82011682018060405250810190613e2b9190615580565b60008115806147ce575082826147c081836156b1565b92506147cc90836157d1565b145b613e2b5760405162461bcd60e51b815260206004820152600c60248201526b6d756c2d6f766572666c6f7760a01b6044820152606401611580565b6001600160a01b038116811461481e57600080fd5b50565b80356144fb81614809565b60008083601f84011261483e57600080fd5b5081356001600160401b0381111561485557600080fd5b60208301915083602082850101111561486d57600080fd5b9250929050565b60008060008060008060008060e0898b03121561489057600080fd5b883561489b81614809565b975060208901356148ab81614809565b965060408901356148bb81614809565b955060608901356148cb81614809565b94506080890135935060a0890135925060c08901356001600160401b038111156148f457600080fd5b6149008b828c0161482c565b999c989b5096995094979396929594505050565b60008060008060008060a0878903121561492d57600080fd5b863561493881614809565b9550602087013561494881614809565b9450604087013593506060870135925060808701356001600160401b0381111561497157600080fd5b61497d89828a0161482c565b979a9699509497509295939492505050565b801515811461481e57600080fd5b6000806000606084860312156149b257600080fd5b83356149bd81614809565b92506020840135915060408401356149d48161498f565b809150509250925092565b60008060008060008060a087890312156149f857600080fd5b8635614a0381614809565b95506020870135614a1381614809565b94506040870135614a2381614809565b93506060870135925060808701356001600160401b0381111561497157600080fd5b60008060008060008060008060006101008a8c031215614a6457600080fd5b8935614a6f81614809565b985060208a0135614a7f81614809565b975060408a0135614a8f81614809565b965060608a0135614a9f81614809565b955060808a0135614aaf81614809565b945060a08a0135935060c08a0135925060e08a01356001600160401b03811115614ad857600080fd5b614ae48c828d0161482c565b915080935050809150509295985092959850929598565b60008060008060808587031215614b1157600080fd5b8435614b1c81614809565b93506020850135614b2c81614809565b9250604085013591506060850135614b4381614809565b939692955090935050565b600080600080600080600060c0888a031215614b6957600080fd5b8735614b7481614809565b96506020880135614b8481614809565b95506040880135614b9481614809565b9450606088013593506080880135614bab81614809565b925060a08801356001600160401b03811115614bc657600080fd5b614bd28a828b0161482c565b989b979a50959850939692959293505050565b600080600060608486031215614bfa57600080fd5b8335614c0581614809565b92506020840135614c1581614809565b929592945050506040919091013590565b600080600080600060808688031215614c3e57600080fd5b8535614c4981614809565b94506020860135614c5981614809565b93506040860135925060608601356001600160401b03811115614c7b57600080fd5b614c878882890161482c565b969995985093965092949392505050565b60008060008060808587031215614cae57600080fd5b8435614cb981614809565b9350602085013592506040850135614cd081614809565b9396929550929360600135925050565b6000806000806000806000806000806101208b8d031215614d0057600080fd5b8a35614d0b81614809565b995060208b0135614d1b81614809565b985060408b0135614d2b81614809565b975060608b0135614d3b81614809565b965060808b0135614d4b81614809565b955060a08b0135945060c08b0135935060e08b013592506101008b01356001600160401b03811115614d7c57600080fd5b614d888d828e0161482c565b915080935050809150509295989b9194979a5092959850565b60008060008060008060008060006101008a8c031215614dc057600080fd5b8935614dcb81614809565b985060208a0135614ddb81614809565b975060408a0135614deb81614809565b965060608a0135614dfb81614809565b955060808a0135945060a08a0135935060c08a0135925060e08a01356001600160401b03811115614ad857600080fd5b600080600080600080600060c0888a031215614e4657600080fd5b8735614e5181614809565b96506020880135955060408801359450606088013593506080880135614bab81614809565b600080600060608486031215614e8b57600080fd5b8335614e9681614809565b92506020840135915060408401356149d481614809565b600080600080600080600060c0888a031215614ec857600080fd5b8735614ed381614809565b96506020880135614ee381614809565b95506040880135614ef381614809565b9450606088013593506080880135925060a08801356001600160401b03811115614bc657600080fd5b60008060008060008060a08789031215614f3557600080fd5b8635614f4081614809565b95506020870135614f5081614809565b9450604087013593506060870135614f678161498f565b925060808701356001600160401b0381111561497157600080fd5b60008060008060008060008060e0898b031215614f9e57600080fd5b8835614fa981614809565b97506020890135614fb981614809565b96506040890135614fc981614809565b9550606089013594506080890135935060a0890135614fe781614809565b925060c08901356001600160401b038111156148f457600080fd5b6000806000806000806000806000806101208b8d03121561502257600080fd5b8a3561502d81614809565b995060208b013561503d81614809565b985060408b013561504d81614809565b975060608b013561505d81614809565b965060808b0135955060a08b0135945060c08b0135935060e08b01356150828161498f565b92506101008b01356001600160401b03811115614d7c57600080fd5b60008060008060008060008060e0898b0312156150ba57600080fd5b88356150c581614809565b975060208901356150d581614809565b9650604089013595506060890135945060808901356150f38161498f565b935060a0890135614fe781614809565b60008060008060008060008060e0898b03121561511f57600080fd5b883561512a81614809565b9750602089013561513a81614809565b9650604089013561514a81614809565b9550606089013594506080890135935060a0890135925060c08901356001600160401b038111156148f457600080fd5b60008060006060848603121561518f57600080fd5b833561519a81614809565b95602085013595506040909401359392505050565b600080604083850312156151c257600080fd5b82356151cd81614809565b915060208301356151dd81614809565b809150509250929050565b600080600080600080600060c0888a03121561520357600080fd5b873561520e81614809565b9650602088013595506040880135614b9481614809565b60008060008060008060a0878903121561523e57600080fd5b863561524981614809565b9550602087013561525981614809565b9450604087013593506060870135614f6781614809565b60008060008060006080868803121561528857600080fd5b853561529381614809565b94506020860135935060408601356152aa81614809565b925060608601356001600160401b03811115614c7b57600080fd5b600080604083850312156152d857600080fd5b82356152e381614809565b946020939093013593505050565b6000806000806060858703121561530757600080fd5b843561531281614809565b9350602085013561532281614809565b925060408501356001600160401b0381111561533d57600080fd5b6153498782880161482c565b95989497509550505050565b600080600080600080600060c0888a03121561537057600080fd5b873561537b81614809565b9650602088013561538b81614809565b955060408801359450606088013593506080880135614bab8161498f565b634e487b7160e01b600052604160045260246000fd5b604051601f8201601f191681016001600160401b03811182821017156153e7576153e76153a9565b604052919050565b60006001600160401b03821115615408576154086153a9565b5060051b60200190565b600082601f83011261542357600080fd5b81356020615438615433836153ef565b6153bf565b82815260059290921b8401810191818101908684111561545757600080fd5b8286015b84811015615472578035835291830191830161545b565b509695505050505050565b6000806000806080858703121561549357600080fd5b843561549e81614809565b93506020858101356001600160401b03808211156154bb57600080fd5b818801915088601f8301126154cf57600080fd5b81356154dd615433826153ef565b81815260059190911b8301840190848101908b8311156154fc57600080fd5b938501935b8285101561552357843561551481614809565b82529385019390850190615501565b97505050604088013592508083111561553b57600080fd5b505061554987828801615412565b92505061555860608601614821565b905092959194509250565b60006020828403121561557557600080fd5b8151613eb681614809565b60006020828403121561559257600080fd5b5051919050565b81835281816020850137506000828201602090810191909152601f909101601f19169091010190565b60018060a01b0385168152836020820152606060408201526000610f04606083018486615599565b600080604083850312156155fd57600080fd5b505080516020909101519092909150565b634e487b7160e01b600052601160045260246000fd5b6000600160ff1b82016156395761563961560e565b5060000390565b60208082526006908201526510b7bbb732b960d11b604082015260600190565b86815285602082015284604082015260018060a01b038416606082015260a06080820152600061143660a083018486615599565b6000602082840312156156a657600080fd5b8135613eb681614809565b8082028115828204841417613e2b57613e2b61560e565b8681526001600160a01b038681166020830152604082018690528416606082015260a0608082018190526000906114369083018486615599565b8581526001600160a01b038581166020830152841660408201526080606082018190526000906147349083018486615599565b60005b83811015615750578181015183820152602001615738565b50506000910152565b60018060a01b0384168152826020820152606060408201526000825180606084015261578c816080850160208701615735565b601f01601f191691909101608001949350505050565b634e487b7160e01b600052603260045260246000fd5b6000600182016157ca576157ca61560e565b5060010190565b6000826157ee57634e487b7160e01b600052601260045260246000fd5b500490565b80820182811260008312801582168215821617156158135761581361560e565b505092915050565b81810381811115613e2b57613e2b61560e565b600181815b8085111561586957816000190482111561584f5761584f61560e565b8085161561585c57918102915b93841c9390800290615833565b509250929050565b60008261588057506001613e2b565b8161588d57506000613e2b565b81600181146158a357600281146158ad576158c9565b6001915050613e2b565b60ff8411156158be576158be61560e565b50506001821b613e2b565b5060208310610133831016604e8410600b84101617156158ec575081810a613e2b565b6158f6838361582e565b806000190482111561590a5761590a61560e565b029392505050565b6000613eb68383615871565b60008251615930818460208701615735565b9190910192915050565b60006020828403121561594c57600080fd5b8151613eb68161498f565b80820180821115613e2b57613e2b61560e56fea26469706673582212202caf5fa287b5340df80b72321b2e23ab22e24251404c53ab988d7bfa3cdf678a64736f6c63430008110033",
  "immutableReferences": {},
  "source": "// SPDX-License-Identifier: AGPL-3.0-or-later\n\npragma solidity 0.8.17;\npragma experimental ABIEncoderV2;\n\nimport \"../interfaces/IFathomVault.sol\";\nimport \"../interfaces/IBookKeeper.sol\";\nimport \"../interfaces/IWBNB.sol\";\nimport \"../interfaces/IToken.sol\";\nimport \"../interfaces/IManager.sol\";\nimport \"../interfaces/IGenericTokenAdapter.sol\";\nimport \"../interfaces/IFarmableTokenAdapter.sol\";\nimport \"../interfaces/IStablecoinAdapter.sol\";\nimport \"../interfaces/IStabilityFeeCollector.sol\";\nimport \"../interfaces/IProxyRegistry.sol\";\nimport \"../interfaces/IProxy.sol\";\nimport \"../utils/SafeToken.sol\";\n\n/// ==============================\n/// @notice WARNING: These functions meant to be used as a a library for a Proxy.\n/// @notice DO NOT CALL ANY FUNCTION IN THIS CONTRACT DIRECTLY.\n/// @notice Hence, it shouldn't has any state vairables. Some are unsafe if you call them directly.\n/// ==============================\n\ncontract FathomStablecoinProxyActions {\n  using SafeToken for address;\n\n  uint256 internal constant RAY = 10**27;\n\n  /// @dev Internal functions\n  function _safeSub(uint256 _x, uint256 _y) internal pure returns (uint256 _z) {\n    require((_z = _x - _y) <= _x, \"sub-overflow\");\n  }\n\n  function _safeToInt(uint256 _x) internal pure returns (int256 _y) {\n    _y = int256(_x);\n    require(_y >= 0, \"int-overflow\");\n  }\n\n  /// @notice Internal functions\n  /// @dev Safe multiplication to prevent uint overflow\n  function _safeMul(uint256 _x, uint256 _y) internal pure returns (uint256 _z) {\n    require(_y == 0 || (_z = _x * _y) / _y == _x, \"mul-overflow\");\n  }\n\n  function _toRad(uint256 _wad) internal pure returns (uint256 _rad) {\n    _rad = _safeMul(_wad, RAY);\n  }\n\n  function convertTo18(address _tokenAdapter, uint256 _amt) internal returns (uint256 _wad) {\n    // For those collaterals that have less than 18 decimals precision we need to do the conversion before passing to adjustPosition function\n    // Adapters will automatically handle the difference of precision\n    _wad = _safeMul(_amt, 10**(18 - IGenericTokenAdapter(_tokenAdapter).decimals()));\n  }\n\n  function _getDrawDebtShare(\n    address _bookKeeper,\n    address _stabilityFeeCollector,\n    address _positionAddress,\n    bytes32 _collateralPoolId,\n    uint256 _stablecoinAmount // [wad]\n  ) internal returns (int256 _resultDebtShare) {\n    // Updates stability fee rate\n    uint256 _debtAccumulatedRate = IStabilityFeeCollector(_stabilityFeeCollector).collect(_collateralPoolId); // [ray]\n\n    // Gets Fathom Stablecoin balance of the positionAddress in the bookKeeper\n    uint256 _positionStablecoinValue = IBookKeeper(_bookKeeper).stablecoin(_positionAddress); // [rad]\n\n    // If there was already enough Fathom Stablecoin in the bookKeeper balance, just exits it without adding more debt\n    if (_positionStablecoinValue < _safeMul(_stablecoinAmount, RAY)) {\n      // Calculates the needed resultDebtShare so together with the existing positionStablecoinValue in the bookKeeper is enough to exit stablecoinAmount of Fathom Stablecoin tokens\n      _resultDebtShare = _safeToInt(\n        _safeSub(_safeMul(_stablecoinAmount, RAY), _positionStablecoinValue) / _debtAccumulatedRate\n      );\n      // This is neeeded due lack of precision. It might need to sum an extra resultDebtShare wei (for the given Fathom Stablecoin stablecoinAmount)\n      _resultDebtShare = _safeMul(uint256(_resultDebtShare), _debtAccumulatedRate) < _safeMul(_stablecoinAmount, RAY)\n        ? _resultDebtShare + 1\n        : _resultDebtShare;\n    }\n  }\n\n  function _getWipeDebtShare(\n    address _bookKeeper,\n    uint256 _stablecoinValue, // [rad]\n    address _positionAddress,\n    bytes32 _collateralPoolId\n  ) internal view returns (int256 _resultDebtShare) {\n    // Gets actual rate from the bookKeeper\n    uint256 _debtAccumulatedRate = ICollateralPoolConfig(IBookKeeper(_bookKeeper).collateralPoolConfig())\n      .getDebtAccumulatedRate(_collateralPoolId); // [ray]\n\n    // Gets actual debtShare value of the positionAddress\n    (, uint256 _debtShare) = IBookKeeper(_bookKeeper).positions(_collateralPoolId, _positionAddress); // [wad]\n\n    // Uses the whole stablecoin balance in the bookKeeper to reduce the debt\n    _resultDebtShare = _safeToInt(_stablecoinValue / _debtAccumulatedRate); // [wad]\n\n    // Checks the calculated resultDebtShare is not higher than positionAddress.art (total debt), otherwise uses its value\n    _resultDebtShare = uint256(_resultDebtShare) <= _debtShare ? -_resultDebtShare : -_safeToInt(_debtShare); // [wad]\n  }\n\n  function _getWipeAllStablecoinAmount(\n    address _bookKeeper,\n    address _usr,\n    address _positionAddress,\n    bytes32 _collateralPoolId\n  ) internal view returns (uint256 _requiredStablecoinAmount) {\n    // Gets actual rate from the bookKeeper\n    uint256 _debtAccumulatedRate = ICollateralPoolConfig(IBookKeeper(_bookKeeper).collateralPoolConfig())\n      .getDebtAccumulatedRate(_collateralPoolId); // [ray]\n    // Gets actual debtShare value of the positionAddress\n    (, uint256 _debtShare) = IBookKeeper(_bookKeeper).positions(_collateralPoolId, _positionAddress); // [wad]\n    // Gets actual stablecoin amount in the usr\n    uint256 _stablecoinValue = IBookKeeper(_bookKeeper).stablecoin(_usr); // [rad]\n\n    uint256 _positionDebtValue = _safeMul(_debtShare, _debtAccumulatedRate);\n    uint256 _requiredStablecoinValue = _positionDebtValue >= _stablecoinValue\n      ? _safeSub(_positionDebtValue, _stablecoinValue)\n      : 0; // [rad]\n    _requiredStablecoinAmount = _requiredStablecoinValue / RAY; // [wad] = [rad]/[ray]\n\n    // If the value precision has some dust, it will need to request for 1 extra amount wei\n    _requiredStablecoinAmount = _safeMul(_requiredStablecoinAmount, RAY) < _requiredStablecoinValue\n      ? _requiredStablecoinAmount + 1\n      : _requiredStablecoinAmount;\n  }\n\n  /// @notice Public functions\n  /// @param _adapter The address of stablecoin adapter\n  /// @param _positionAddress The address of the Position Handler\n  /// @param _stablecoinAmount The amount in wad to be deposit to Stablecoin adapter [wad]\n  /// @param _data The extra data for stable adapter context\n  function stablecoinAdapterDeposit(\n    address _adapter,\n    address _positionAddress,\n    uint256 _stablecoinAmount, // [wad]\n    bytes calldata _data\n  ) public {\n    address _stablecoin = address(IStablecoinAdapter(_adapter).stablecoin());\n    // Gets Fathom Stablecoin from the user's wallet\n    _stablecoin.safeTransferFrom(msg.sender, address(this), _stablecoinAmount);\n    // Approves adapter to take the Fathom Stablecoin amount\n    _stablecoin.safeApprove(_adapter, _stablecoinAmount);\n    // Deposits Fathom Stablecoin into the bookKeeper\n    IStablecoinAdapter(_adapter).deposit(_positionAddress, _stablecoinAmount, _data);\n  }\n\n  // Public functions\n  function transfer(\n    address _collateralToken,\n    address _dst,\n    uint256 _amt\n  ) public {\n    address(_collateralToken).safeTransfer(_dst, _amt);\n  }\n\n  function bnbAdapterDeposit(\n    address _adapter,\n    address _positionAddress,\n    bytes calldata _data\n  ) public payable {\n    address _collateralToken = address(IGenericTokenAdapter(_adapter).collateralToken());\n    // Wraps BNB into WBNB\n    IWBNB(_collateralToken).deposit{ value: msg.value }();\n    // Approves adapter to take the WBNB amount\n    _collateralToken.safeApprove(address(_adapter), msg.value);\n    // Deposits WBNB collateral into the bookKeeper\n    IGenericTokenAdapter(_adapter).deposit(_positionAddress, msg.value, _data);\n  }\n\n  function tokenAdapterDeposit(\n    address _adapter,\n    address _positionAddress,\n    uint256 _amount, // [wad]\n    bool _transferFrom,\n    bytes calldata _data\n  ) public {\n    address _collateralToken = address(IGenericTokenAdapter(_adapter).collateralToken());\n\n    // Only executes for tokens that have approval/transferFrom implementation\n    if (_transferFrom) {\n      // Gets token from the user's wallet\n      _collateralToken.safeTransferFrom(msg.sender, address(this), _amount);\n    }\n    // Approves adapter to take the token amount\n    _collateralToken.safeApprove(_adapter, _amount);\n    // Deposits token collateral into the bookKeeper\n    IGenericTokenAdapter(_adapter).deposit(_positionAddress, _amount, _data);\n  }\n\n  function whitelist(address _bookKeeper, address _usr) external {\n    IBookKeeper(_bookKeeper).whitelist(_usr);\n  }\n\n  function blacklist(address _bookKeeper, address _usr) external {\n    IBookKeeper(_bookKeeper).blacklist(_usr);\n  }\n\n  function open(\n    address _manager,\n    bytes32 _collateralPoolId,\n    address _usr\n  ) public returns (uint256 _positionId) {\n    _positionId = IManager(_manager).open(_collateralPoolId, _usr);\n  }\n\n  function transferOwnership(\n    address _manager,\n    uint256 _positionId,\n    address _usr\n  ) public {\n    IManager(_manager).give(_positionId, _usr);\n  }\n\n  function transferOwnershipToProxy(\n    address _proxyRegistry,\n    address _manager,\n    uint256 _positionId,\n    address _dst\n  ) external {\n    // Gets actual proxy address\n    address _proxy = IProxyRegistry(_proxyRegistry).proxies(_dst);\n    // Checks if the proxy address already existed and dst address is still the owner\n    if (_proxy == address(0) || IProxy(_proxy).owner() != _dst) {\n      uint256 _codeSize;\n      assembly {\n        _codeSize := extcodesize(_dst)\n      }\n      // We want to avoid creating a proxy for a contract address that might not be able to handle proxies, then losing the CDP\n      require(_codeSize == 0, \"Dst-is-a-contract\");\n      // Creates the proxy for the dst address\n      _proxy = IProxyRegistry(_proxyRegistry).build(_dst);\n    }\n    // Transfers position to the dst proxy\n    transferOwnership(_manager, _positionId, _proxy);\n  }\n\n  /// @dev Allow/Disallow a user to manage the position\n  /// @param _manager The PositionManager address\n  /// @param _user The user address that msg.sender would like to allow to manage his position\n  /// @param _ok The ok flag to allow/disallow\n  function allowManagePosition(\n    address _manager,\n    uint256 _positionId,\n    address _user,\n    uint256 _ok\n  ) external {\n    IManager(_manager).allowManagePosition(_positionId, _user, _ok);\n  }\n\n  /// @dev Allow/Disallow a user to import/export position from/to msg.sender\n  /// @param _manager The PositionManager address\n  /// @param _user The user address that msg.sender would like to allow to import/export position from/to\n  /// @param _ok The ok flag to allow/disallow\n  function allowMigratePosition(\n    address _manager,\n    address _user,\n    uint256 _ok\n  ) external {\n    IManager(_manager).allowMigratePosition(_user, _ok);\n  }\n\n  function moveCollateral(\n    address _manager,\n    uint256 _positionId,\n    address _dst,\n    uint256 _collateralAmount,\n    address _adapter,\n    bytes calldata _data\n  ) public {\n    IManager(_manager).moveCollateral(_positionId, _dst, _collateralAmount, _adapter, _data);\n  }\n\n  function moveStablecoin(\n    address _manager,\n    uint256 _positionId,\n    address _dst,\n    uint256 _stablecoinValue // [rad]\n  ) public {\n    IManager(_manager).moveStablecoin(_positionId, _dst, _stablecoinValue);\n  }\n\n  function adjustPosition(\n    address _manager,\n    uint256 _positionId,\n    int256 _collateralValue,\n    int256 _debtShare, // [wad]\n    address _adapter,\n    bytes calldata _data\n  ) public {\n    IManager(_manager).adjustPosition(_positionId, _collateralValue, _debtShare, _adapter, _data);\n  }\n\n  function exportPosition(\n    address _manager,\n    uint256 _positionId,\n    address _destination\n  ) external {\n    IManager(_manager).exportPosition(_positionId, _destination);\n  }\n\n  function importPosition(\n    address _manager,\n    address _source,\n    uint256 _positionId\n  ) external {\n    IManager(_manager).importPosition(_source, _positionId);\n  }\n\n  function movePosition(\n    address _manager,\n    uint256 _source,\n    uint256 _destination\n  ) external {\n    IManager(_manager).movePosition(_source, _destination);\n  }\n\n  function bnbToIbBNB(\n    address _vault,\n    uint256 _amount, // [wad]\n    bool _transferTo\n  ) public payable returns (uint256) {\n    SafeToken.safeApprove(address(IFathomVault(_vault).token()), address(_vault), _amount);\n    uint256 _ibBNBBefore = _vault.balanceOf(address(this));\n    IFathomVault(_vault).deposit{ value: msg.value }(msg.value);\n    uint256 _ibBNBAfter = _vault.balanceOf(address(this));\n    SafeToken.safeApprove(address(IFathomVault(_vault).token()), address(_vault), 0);\n    uint256 _backIbBNB = _safeSub(_ibBNBAfter, _ibBNBBefore);\n    if (_transferTo) {\n      address(_vault).safeTransfer(msg.sender, _backIbBNB);\n    }\n    return _backIbBNB;\n  }\n\n  function ibBNBToBNB(\n    address _vault,\n    uint256 _amount // [wad]\n  ) public payable {\n    // user requires to approve the proxy wallet before calling this function\n    address(_vault).safeTransferFrom(msg.sender, address(this), _amount);\n    uint256 _bnbBefore = address(this).balance;\n    IFathomVault(_vault).withdraw(_amount);\n    uint256 _bnbAfter = address(this).balance;\n    SafeToken.safeTransferETH(msg.sender, _safeSub(_bnbAfter, _bnbBefore));\n  }\n\n  function tokenToIbToken(\n    address _vault,\n    uint256 _amount, // [wad]\n    bool _transferTo\n  ) public returns (uint256) {\n    // user requires to approve the proxy wallet before calling this function\n    address(IFathomVault(_vault).token()).safeTransferFrom(msg.sender, address(this), _amount);\n    SafeToken.safeApprove(address(IFathomVault(_vault).token()), address(_vault), _amount);\n    uint256 _collateralTokenBefore = _vault.balanceOf(address(this));\n    IFathomVault(_vault).deposit(_amount);\n    uint256 _collateralTokenAfter = _vault.balanceOf(address(this));\n    SafeToken.safeApprove(address(IFathomVault(_vault).token()), address(_vault), 0);\n    uint256 _backCollateralToken = _safeSub(_collateralTokenAfter, _collateralTokenBefore);\n    if (_transferTo) {\n      address(_vault).safeTransfer(msg.sender, _backCollateralToken);\n    }\n    return _backCollateralToken;\n  }\n\n  function ibTokenToToken(\n    address _vault,\n    uint256 _amount // [wad]\n  ) public {\n    // user requires to approve the proxy wallet before calling this function\n    address(_vault).safeTransferFrom(msg.sender, address(this), _amount);\n    uint256 _baseTokenBefore = IFathomVault(_vault).token().balanceOf(address(this));\n    IFathomVault(_vault).withdraw(_amount);\n    uint256 _baseTokenAfter = IFathomVault(_vault).token().balanceOf(address(this));\n    address(IFathomVault(_vault).token()).safeTransfer(msg.sender, _safeSub(_baseTokenAfter, _baseTokenBefore));\n  }\n\n  function lockBNB(\n    address _manager,\n    address _bnbAdapter,\n    uint256 _positionId,\n    bytes calldata _data\n  ) public payable {\n    address _positionAddress = IManager(_manager).positions(_positionId);\n    // Receives BNB amount, converts it to WBNB and joins it into the bookKeeper\n    bnbAdapterDeposit(_bnbAdapter, _positionAddress, _data);\n    // Locks WBNB amount into the CDP\n    adjustPosition(_manager, _positionId, _safeToInt(msg.value), 0, _bnbAdapter, _data);\n  }\n\n  function safeLockBNB(\n    address _manager,\n    address _bnbAdapter,\n    uint256 _positionId,\n    address _owner,\n    bytes calldata _data\n  ) external payable {\n    require(IManager(_manager).owners(_positionId) == _owner, \"!owner\");\n    lockBNB(_manager, _bnbAdapter, _positionId, _data);\n  }\n\n  function lockToken(\n    address _manager,\n    address _tokenAdapter,\n    uint256 _positionId,\n    uint256 _amount, // [in token decimal]\n    bool _transferFrom,\n    bytes calldata _data\n  ) public {\n    address _positionAddress = IManager(_manager).positions(_positionId);\n\n    // Takes token amount from user's wallet and joins into the bookKeeper\n    tokenAdapterDeposit(_tokenAdapter, _positionAddress, _amount, _transferFrom, _data);\n    // Locks token amount into the position manager\n    adjustPosition(_manager, _positionId, _safeToInt(convertTo18(_tokenAdapter, _amount)), 0, _tokenAdapter, _data);\n  }\n\n  function safeLockToken(\n    address _manager,\n    address _tokenAdapter,\n    uint256 _positionId,\n    uint256 _amount, // [wad]\n    bool _transferFrom,\n    address _owner,\n    bytes calldata _data\n  ) external {\n    require(IManager(_manager).owners(_positionId) == _owner, \"!owner\");\n    lockToken(_manager, _tokenAdapter, _positionId, _amount, _transferFrom, _data);\n  }\n\n  function unlockBNB(\n    address _manager,\n    address _bnbAdapter,\n    uint256 _positionId,\n    uint256 _amount, // [wad]\n    bytes calldata _data\n  ) external {\n    // Unlocks WBNB amount from the CDP\n    adjustPosition(_manager, _positionId, -_safeToInt(_amount), 0, _bnbAdapter, _data);\n    // Moves the amount from the CDP positionAddress to proxy's address\n    moveCollateral(_manager, _positionId, address(this), _amount, _bnbAdapter, _data);\n    // Withdraws WBNB amount to proxy address as a token\n    IGenericTokenAdapter(_bnbAdapter).withdraw(address(this), _amount, _data);\n    // Converts WBNB to BNB\n    IWBNB(address(IGenericTokenAdapter(_bnbAdapter).collateralToken())).withdraw(_amount);\n    // Sends BNB back to the user's wallet\n    SafeToken.safeTransferETH(msg.sender, _amount);\n  }\n\n  function unlockToken(\n    address _manager,\n    address _tokenAdapter,\n    uint256 _positionId,\n    uint256 _amount, // [in token decimal]\n    bytes calldata _data\n  ) external {\n    // Try to decode user address for harvested rewards from calldata\n    // if the user address is not passed, then send zero address to `harvest` and let it handle\n    address _user = address(0);\n    if (_data.length > 0) _user = abi.decode(_data, (address));\n    uint256 _amountInWad = convertTo18(_tokenAdapter, _amount);\n    // Unlocks token amount from the position\n    adjustPosition(_manager, _positionId, -_safeToInt(_amountInWad), 0, _tokenAdapter, _data);\n    // Moves the amount from the position to proxy's address\n    moveCollateral(_manager, _positionId, address(this), _amountInWad, _tokenAdapter, _data);\n    // Withdraws token amount to the user's wallet as a token\n    IGenericTokenAdapter(_tokenAdapter).withdraw(msg.sender, _amount, _data);\n  }\n\n  function withdrawBNB(\n    address _manager,\n    address _bnbAdapter,\n    uint256 _positionId,\n    uint256 _amount, // [wad]\n    bytes calldata _data\n  ) external {\n    // Moves the amount from the position to proxy's address\n    moveCollateral(_manager, _positionId, address(this), _amount, _bnbAdapter, _data);\n\n    // Withdraws WBNB amount to proxy address as a token\n    IGenericTokenAdapter(_bnbAdapter).withdraw(address(this), _amount, _data);\n    // Converts WBNB to BNB\n    IWBNB(address(IGenericTokenAdapter(_bnbAdapter).collateralToken())).withdraw(_amount);\n    // Sends BNB back to the user's wallet\n    SafeToken.safeTransferETH(msg.sender, _amount);\n  }\n\n  function withdrawToken(\n    address _manager,\n    address _tokenAdapter,\n    uint256 _positionId,\n    uint256 _amount, // [in token decimal]\n    bytes calldata _data\n  ) external {\n    // Moves the amount from the position to proxy's address\n    moveCollateral(_manager, _positionId, address(this), convertTo18(_tokenAdapter, _amount), _tokenAdapter, _data);\n\n    // Withdraws token amount to the user's wallet as a token\n    IGenericTokenAdapter(_tokenAdapter).withdraw(msg.sender, _amount, _data);\n  }\n\n  function draw(\n    address _manager,\n    address _stabilityFeeCollector,\n    address _tokenAdapter,\n    address _stablecoinAdapter,\n    uint256 _positionId,\n    uint256 _amount, // [wad]\n    bytes calldata _data\n  ) external {\n    address _positionAddress = IManager(_manager).positions(_positionId);\n    address _bookKeeper = IManager(_manager).bookKeeper();\n    bytes32 _collateralPoolId = IManager(_manager).collateralPools(_positionId);\n    // Generates debt in the CDP\n    adjustPosition(\n      _manager,\n      _positionId,\n      0,\n      _getDrawDebtShare(_bookKeeper, _stabilityFeeCollector, _positionAddress, _collateralPoolId, _amount),\n      _tokenAdapter,\n      _data\n    );\n    // Moves the Fathom Stablecoin amount (balance in the bookKeeper in rad) to proxy's address\n    moveStablecoin(_manager, _positionId, address(this), _toRad(_amount));\n    // Allows adapter to access to proxy's Fathom Stablecoin balance in the bookKeeper\n    if (IBookKeeper(_bookKeeper).positionWhitelist(address(this), address(_stablecoinAdapter)) == 0) {\n      IBookKeeper(_bookKeeper).whitelist(_stablecoinAdapter);\n    }\n    // Withdraws Fathom Stablecoin to the user's wallet as a token\n    IStablecoinAdapter(_stablecoinAdapter).withdraw(msg.sender, _amount, _data);\n  }\n\n  function wipe(\n    address _manager,\n    address _tokenAdapter,\n    address _stablecoinAdapter,\n    uint256 _positionId,\n    uint256 _amount, // [wad]\n    bytes calldata _data\n  ) public {\n    address _bookKeeper = IManager(_manager).bookKeeper();\n    address _positionAddress = IManager(_manager).positions(_positionId);\n    bytes32 _collateralPoolId = IManager(_manager).collateralPools(_positionId);\n\n    address owner = IManager(_manager).owners(_positionId);\n    if (owner == address(this) || IManager(_manager).ownerWhitelist(owner, _positionId, address(this)) == 1) {\n      // Deposits Fathom Stablecoin amount into the bookKeeper\n      stablecoinAdapterDeposit(_stablecoinAdapter, _positionAddress, _amount, _data);\n      // Paybacks debt to the CDP\n      adjustPosition(\n        _manager,\n        _positionId,\n        0,\n        _getWipeDebtShare(\n          _bookKeeper,\n          IBookKeeper(_bookKeeper).stablecoin(_positionAddress),\n          _positionAddress,\n          _collateralPoolId\n        ),\n        _tokenAdapter,\n        _data\n      );\n    } else {\n      // Deposits Fathom Stablecoin amount into the bookKeeper\n      stablecoinAdapterDeposit(_stablecoinAdapter, address(this), _amount, _data);\n      // Paybacks debt to the position\n      int256 _wipeDebtShare = _getWipeDebtShare(_bookKeeper, _amount * RAY, _positionAddress, _collateralPoolId);\n      IBookKeeper(_bookKeeper).adjustPosition(\n        _collateralPoolId,\n        _positionAddress,\n        address(this),\n        address(this),\n        0,\n        _wipeDebtShare\n      );\n    }\n  }\n\n  function safeWipe(\n    address _manager,\n    address _tokenAdapter,\n    address _stablecoinAdapter,\n    uint256 _positionId,\n    uint256 _amount, // [wad]\n    address _owner,\n    bytes calldata _data\n  ) external {\n    require(IManager(_manager).owners(_positionId) == _owner, \"!owner\");\n    wipe(_manager, _tokenAdapter, _stablecoinAdapter, _positionId, _amount, _data);\n  }\n\n  function wipeAll(\n    address _manager,\n    address _tokenAdapter,\n    address _stablecoinAdapter,\n    uint256 _positionId,\n    bytes calldata _data\n  ) public {\n    address _bookKeeper = IManager(_manager).bookKeeper();\n    address _positionAddress = IManager(_manager).positions(_positionId);\n    bytes32 _collateralPoolId = IManager(_manager).collateralPools(_positionId);\n    (, uint256 _debtShare) = IBookKeeper(_bookKeeper).positions(_collateralPoolId, _positionAddress); // [wad]\n\n    address _owner = IManager(_manager).owners(_positionId);\n    if (_owner == address(this) || IManager(_manager).ownerWhitelist(_owner, _positionId, address(this)) == 1) {\n      // Deposits Fathom Stablecoin amount into the bookKeeper\n      stablecoinAdapterDeposit(\n        _stablecoinAdapter,\n        _positionAddress,\n        _getWipeAllStablecoinAmount(_bookKeeper, _positionAddress, _positionAddress, _collateralPoolId),\n        _data\n      );\n      // Paybacks debt to the CDP\n      adjustPosition(_manager, _positionId, 0, -int256(_debtShare), _tokenAdapter, _data);\n    } else {\n      // Deposits Fathom Stablecoin amount into the bookKeeper\n      stablecoinAdapterDeposit(\n        _stablecoinAdapter,\n        address(this),\n        _getWipeAllStablecoinAmount(_bookKeeper, address(this), _positionAddress, _collateralPoolId),\n        _data\n      );\n      // Paybacks debt to the position\n      IBookKeeper(_bookKeeper).adjustPosition(\n        _collateralPoolId,\n        _positionAddress,\n        address(this),\n        address(this),\n        0,\n        -int256(_debtShare)\n      );\n    }\n  }\n\n  function safeWipeAll(\n    address _manager,\n    address _tokenAdapter,\n    address _stablecoinAdapter,\n    uint256 _positionId,\n    address _owner,\n    bytes calldata _data\n  ) external {\n    require(IManager(_manager).owners(_positionId) == _owner, \"!owner\");\n    wipeAll(_manager, _tokenAdapter, _stablecoinAdapter, _positionId, _data);\n  }\n\n  function lockBNBAndDraw(\n    address _manager,\n    address _stabilityFeeCollector,\n    address _bnbAdapter,\n    address _stablecoinAdapter,\n    uint256 _positionId,\n    uint256 _stablecoinAmount, // [wad]\n    bytes calldata _data\n  ) public payable {\n    address _positionAddress = IManager(_manager).positions(_positionId);\n    address _bookKeeper = IManager(_manager).bookKeeper();\n    bytes32 _collateralPoolId = IManager(_manager).collateralPools(_positionId);\n    // Receives BNB amount, converts it to WBNB and joins it into the bookKeeper\n    bnbAdapterDeposit(_bnbAdapter, _positionAddress, _data);\n    // Locks WBNB amount into the CDP and generates debt\n    adjustPosition(\n      _manager,\n      _positionId,\n      _safeToInt(msg.value),\n      _getDrawDebtShare(_bookKeeper, _stabilityFeeCollector, _positionAddress, _collateralPoolId, _stablecoinAmount),\n      _bnbAdapter,\n      _data\n    );\n    // Moves the Fathom Stablecoin amount (balance in the bookKeeper in rad) to proxy's address\n    moveStablecoin(_manager, _positionId, address(this), _toRad(_stablecoinAmount));\n    // Allows adapter to access to proxy's Fathom Stablecoin balance in the bookKeeper\n    if (IBookKeeper(_bookKeeper).positionWhitelist(address(this), address(_stablecoinAdapter)) == 0) {\n      IBookKeeper(_bookKeeper).whitelist(_stablecoinAdapter);\n    }\n    // Withdraws Fathom Stablecoin to the user's wallet as a token\n    IStablecoinAdapter(_stablecoinAdapter).withdraw(msg.sender, _stablecoinAmount, _data);\n  }\n\n  /// @notice\n  function openLockBNBAndDraw(\n    address _manager,\n    address _stabilityFeeCollector,\n    address _bnbAdapter,\n    address _stablecoinAdapter,\n    bytes32 _collateralPoolId,\n    uint256 _stablecoinAmount, // [wad]\n    bytes calldata _data\n  ) external payable returns (uint256 _positionId) {\n    _positionId = open(_manager, _collateralPoolId, address(this));\n    lockBNBAndDraw(\n      _manager,\n      _stabilityFeeCollector,\n      _bnbAdapter,\n      _stablecoinAdapter,\n      _positionId,\n      _stablecoinAmount,\n      _data\n    );\n  }\n\n  function lockTokenAndDraw(\n    IManager _manager,\n    address _stabilityFeeCollector,\n    address _tokenAdapter,\n    address _stablecoinAdapter,\n    uint256 _positionId,\n    uint256 _collateralAmount, // [in token decimal]\n    uint256 _stablecoinAmount, // [wad]\n    bool _transferFrom,\n    bytes calldata _data\n  ) public {\n    bytes32 _collateralPoolId = _manager.collateralPools(_positionId);\n    // Takes token amount from user's wallet and joins into the bookKeeper\n    tokenAdapterDeposit(_tokenAdapter, _manager.positions(_positionId), _collateralAmount, _transferFrom, _data);\n    // Locks token amount into the position and generates debt\n    int256 _collateralAmountInWad = _safeToInt(convertTo18(_tokenAdapter, _collateralAmount));\n\n    int256 _drawDebtShare = _getDrawDebtShare(\n      _manager.bookKeeper(),\n      _stabilityFeeCollector,\n      _manager.positions(_positionId),\n      _collateralPoolId,\n      _stablecoinAmount\n    ); // [wad]\n\n    adjustPosition(address(_manager), _positionId, _collateralAmountInWad, _drawDebtShare, _tokenAdapter, _data);\n    // Moves the Fathom Stablecoin amount (balance in the bookKeeper in rad) to proxy's address\n    moveStablecoin(address(_manager), _positionId, address(this), _toRad(_stablecoinAmount));\n    // Allows adapter to access to proxy's Fathom Stablecoin balance in the bookKeeper\n    if (IBookKeeper(_manager.bookKeeper()).positionWhitelist(address(this), address(_stablecoinAdapter)) == 0) {\n      IBookKeeper(_manager.bookKeeper()).whitelist(_stablecoinAdapter);\n    }\n    // Withdraws Fathom Stablecoin to the user's wallet as a token\n    IStablecoinAdapter(_stablecoinAdapter).withdraw(msg.sender, _stablecoinAmount, _data);\n  }\n\n  function openLockTokenAndDraw(\n    address _manager,\n    address _stabilityFeeCollector,\n    address _tokenAdapter,\n    address _stablecoinAdapter,\n    bytes32 _collateralPoolId,\n    uint256 _collateralAmount, // [in token decimal]\n    uint256 _stablecoinAmount, // [wad]\n    bool _transferFrom,\n    bytes calldata _data\n  ) public returns (uint256 _positionId) {\n    _positionId = open(_manager, _collateralPoolId, address(this));\n    lockTokenAndDraw(\n      IManager(_manager),\n      _stabilityFeeCollector,\n      _tokenAdapter,\n      _stablecoinAdapter,\n      _positionId,\n      _collateralAmount,\n      _stablecoinAmount,\n      _transferFrom,\n      _data\n    );\n  }\n\n  function convertAndLockToken(\n    address _vault,\n    address _manager,\n    address _tokenAdapter,\n    uint256 _positionId,\n    uint256 _amount, // [wad]\n    bytes calldata _data\n  ) external {\n    uint256 _collateralAmount = tokenToIbToken(_vault, convertTo18(_tokenAdapter, _amount), false);\n    lockToken(_manager, _tokenAdapter, _positionId, _collateralAmount, false, _data);\n  }\n\n  function convertLockTokenAndDraw(\n    address _vault,\n    IManager _manager,\n    address _stabilityFeeCollector,\n    address _tokenAdapter,\n    address _stablecoinAdapter,\n    uint256 _positionId,\n    uint256 _amount, // [in token decimal]\n    uint256 _stablecoinAmount, // [wad]\n    bytes calldata _data\n  ) external {\n    uint256 _collateralAmount = tokenToIbToken(_vault, convertTo18(_tokenAdapter, _amount), false);\n    lockTokenAndDraw(\n      IManager(_manager),\n      _stabilityFeeCollector,\n      _tokenAdapter,\n      _stablecoinAdapter,\n      _positionId,\n      _collateralAmount,\n      _stablecoinAmount,\n      false,\n      _data\n    );\n  }\n\n  function convertBNBAndLockToken(\n    address _vault,\n    address _manager,\n    address _tokenAdapter,\n    uint256 _positionId,\n    bytes calldata _data\n  ) external payable {\n    uint256 _collateralAmount = bnbToIbBNB(_vault, msg.value, false);\n    lockToken(_manager, _tokenAdapter, _positionId, _collateralAmount, false, _data);\n  }\n\n  function convertBNBLockTokenAndDraw(\n    address _vault,\n    IManager _manager,\n    address _stabilityFeeCollector,\n    address _tokenAdapter,\n    address _stablecoinAdapter,\n    uint256 _positionId,\n    uint256 _stablecoinAmount, // [wad]\n    bytes calldata _data\n  ) external payable {\n    uint256 _collateralAmount = bnbToIbBNB(_vault, msg.value, false);\n    lockTokenAndDraw(\n      IManager(_manager),\n      _stabilityFeeCollector,\n      _tokenAdapter,\n      _stablecoinAdapter,\n      _positionId,\n      _collateralAmount,\n      _stablecoinAmount,\n      false,\n      _data\n    );\n  }\n\n  function convertBNBOpenLockTokenAndDraw(\n    address _vault,\n    address _manager,\n    address _stabilityFeeCollector,\n    address _tokenAdapter,\n    address _stablecoinAdapter,\n    bytes32 _collateralPoolId,\n    uint256 _stablecoinAmount, // [wad]\n    bytes calldata _data\n  ) external payable returns (uint256 positionId) {\n    uint256 _collateralAmount = bnbToIbBNB(_vault, msg.value, false);\n    return\n      openLockTokenAndDraw(\n        _manager,\n        _stabilityFeeCollector,\n        _tokenAdapter,\n        _stablecoinAdapter,\n        _collateralPoolId,\n        _collateralAmount,\n        _stablecoinAmount,\n        false,\n        _data\n      );\n  }\n\n  function convertOpenLockTokenAndDraw(\n    address _vault,\n    address _manager,\n    address _stabilityFeeCollector,\n    address _tokenAdapter,\n    address _stablecoinAdapter,\n    bytes32 _collateralPoolId,\n    uint256 _tokenAmount, // [in token decimal]\n    uint256 _stablecoinAmount, // [wad]\n    bytes calldata _data\n  ) external returns (uint256 positionId) {\n    uint256 _collateralAmount = tokenToIbToken(_vault, convertTo18(_tokenAdapter, _tokenAmount), false);\n    return\n      openLockTokenAndDraw(\n        _manager,\n        _stabilityFeeCollector,\n        _tokenAdapter,\n        _stablecoinAdapter,\n        _collateralPoolId,\n        _collateralAmount,\n        _stablecoinAmount,\n        false,\n        _data\n      );\n  }\n\n  function wipeAndUnlockBNB(\n    address _manager,\n    address _bnbAdapter,\n    address _stablecoinAdapter,\n    uint256 _positionId,\n    uint256 _collateralAmount, // [wad]\n    uint256 _stablecoinAmount, // [wad]\n    bytes calldata _data\n  ) external {\n    address _positionAddress = IManager(_manager).positions(_positionId);\n    // Deposits Fathom Stablecoin amount into the bookKeeper\n    stablecoinAdapterDeposit(_stablecoinAdapter, _positionAddress, _stablecoinAmount, _data);\n    // Paybacks debt to the position and unlocks WBNB amount from it\n    int256 _wipeDebtShare = _getWipeDebtShare(\n      IManager(_manager).bookKeeper(),\n      IBookKeeper(IManager(_manager).bookKeeper()).stablecoin(_positionAddress),\n      _positionAddress,\n      IManager(_manager).collateralPools(_positionId)\n    ); // [wad]\n    adjustPosition(_manager, _positionId, -_safeToInt(_collateralAmount), _wipeDebtShare, _bnbAdapter, _data);\n    // Moves the amount from the position to proxy's address\n    moveCollateral(_manager, _positionId, address(this), _collateralAmount, _bnbAdapter, _data);\n    // Withdraws WBNB amount to proxy address as a token\n    IGenericTokenAdapter(_bnbAdapter).withdraw(address(this), _collateralAmount, _data);\n    // Converts WBNB to BNB\n    IWBNB(address(IGenericTokenAdapter(_bnbAdapter).collateralToken())).withdraw(_collateralAmount);\n    // Sends BNB back to the user's wallet\n    SafeToken.safeTransferETH(msg.sender, _collateralAmount);\n  }\n\n  function wipeAllAndUnlockBNB(\n    address _manager,\n    address _bnbAdapter,\n    address _stablecoinAdapter,\n    uint256 _positionId,\n    uint256 _collateralAmount, // [wad]\n    bytes calldata _data\n  ) external {\n    address _bookKeeper = IManager(_manager).bookKeeper();\n    address _positionAddress = IManager(_manager).positions(_positionId);\n    bytes32 _collateralPoolId = IManager(_manager).collateralPools(_positionId);\n    (, uint256 _debtShare) = IBookKeeper(_bookKeeper).positions(_collateralPoolId, _positionAddress); // [wad]\n\n    // Deposits Fathom Stablecoin amount into the bookKeeper\n    stablecoinAdapterDeposit(\n      _stablecoinAdapter,\n      _positionAddress,\n      _getWipeAllStablecoinAmount(_bookKeeper, _positionAddress, _positionAddress, _collateralPoolId),\n      _data\n    );\n    // Paybacks debt to the CDP and unlocks WBNB amount from it\n    adjustPosition(_manager, _positionId, -_safeToInt(_collateralAmount), -int256(_debtShare), _bnbAdapter, _data);\n    // Moves the amount from the CDP positionAddress to proxy's address\n    moveCollateral(_manager, _positionId, address(this), _collateralAmount, _bnbAdapter, _data);\n    // Withdraws WBNB amount to proxy address as a token\n    IGenericTokenAdapter(_bnbAdapter).withdraw(address(this), _collateralAmount, _data);\n    // Converts WBNB to BNB\n    IWBNB(address(IGenericTokenAdapter(_bnbAdapter).collateralToken())).withdraw(_collateralAmount);\n    // Sends BNB back to the user's wallet\n    SafeToken.safeTransferETH(msg.sender, _collateralAmount);\n  }\n\n  function wipeAndUnlockToken(\n    address _manager,\n    address _tokenAdapter,\n    address _stablecoinAdapter,\n    uint256 _positionId,\n    uint256 _collateralAmount, // [in token decimal]\n    uint256 _stablecoinAmount, // [wad]\n    bytes calldata _data\n  ) public {\n    address _positionAddress = IManager(_manager).positions(_positionId);\n    // Deposits Fathom Stablecoin amount into the bookKeeper\n    stablecoinAdapterDeposit(_stablecoinAdapter, _positionAddress, _stablecoinAmount, _data);\n    uint256 _collateralAmountInWad = convertTo18(_tokenAdapter, _collateralAmount);\n    // Paybacks debt to the CDP and unlocks token amount from it\n    int256 _wipeDebtShare = _getWipeDebtShare(\n      IManager(_manager).bookKeeper(),\n      IBookKeeper(IManager(_manager).bookKeeper()).stablecoin(_positionAddress),\n      _positionAddress,\n      IManager(_manager).collateralPools(_positionId)\n    );\n    adjustPosition(_manager, _positionId, -_safeToInt(_collateralAmountInWad), _wipeDebtShare, _tokenAdapter, _data);\n    // Moves the amount from the position to proxy's address\n    moveCollateral(_manager, _positionId, address(this), _collateralAmountInWad, _tokenAdapter, _data);\n    // Withdraws token amount to the user's wallet as a token\n    IGenericTokenAdapter(_tokenAdapter).withdraw(msg.sender, _collateralAmount, _data);\n  }\n\n  function wipeUnlockIbBNBAndCovertToBNB(\n    address _vault,\n    address _manager,\n    address _tokenAdapter,\n    address _stablecoinAdapter,\n    uint256 _positionId,\n    uint256 _collateralAmount, // [wad]\n    uint256 _stablecoinAmount, // [wad]\n    bytes calldata _data\n  ) external {\n    wipeAndUnlockToken(\n      _manager,\n      _tokenAdapter,\n      _stablecoinAdapter,\n      _positionId,\n      _collateralAmount,\n      _stablecoinAmount,\n      _data\n    );\n    ibBNBToBNB(_vault, _collateralAmount);\n  }\n\n  function wipeUnlockTokenAndConvert(\n    address _vault,\n    address _manager,\n    address _tokenAdapter,\n    address _stablecoinAdapter,\n    uint256 _positionId,\n    uint256 _collateralAmount, // [token decimal]\n    uint256 _stablecoinAmount, // [wad]\n    bytes calldata _data\n  ) external {\n    wipeAndUnlockToken(\n      _manager,\n      _tokenAdapter,\n      _stablecoinAdapter,\n      _positionId,\n      _collateralAmount,\n      _stablecoinAmount,\n      _data\n    );\n    ibTokenToToken(_vault, convertTo18(_tokenAdapter, _collateralAmount));\n  }\n\n  function wipeAllAndUnlockToken(\n    address _manager,\n    address _tokenAdapter,\n    address _stablecoinAdapter,\n    uint256 _positionId,\n    uint256 _collateralAmount, // [token decimal]\n    bytes calldata _data\n  ) public {\n    address _bookKeeper = IManager(_manager).bookKeeper();\n    address _positionAddress = IManager(_manager).positions(_positionId);\n    bytes32 _collateralPoolId = IManager(_manager).collateralPools(_positionId);\n    (, uint256 _debtShare) = IBookKeeper(_bookKeeper).positions(_collateralPoolId, _positionAddress);\n    // Deposits Fathom Stablecoin amount into the bookKeeper\n    stablecoinAdapterDeposit(\n      _stablecoinAdapter,\n      _positionAddress,\n      _getWipeAllStablecoinAmount(_bookKeeper, _positionAddress, _positionAddress, _collateralPoolId),\n      _data\n    );\n    uint256 _collateralAmountInWad = convertTo18(_tokenAdapter, _collateralAmount);\n\n    adjustPosition(\n      _manager,\n      _positionId,\n      -_safeToInt(_collateralAmountInWad),\n      -int256(_debtShare),\n      _tokenAdapter,\n      _data\n    );\n\n    // Moves the amount from the position to proxy's address\n    moveCollateral(_manager, _positionId, address(this), _collateralAmountInWad, _tokenAdapter, _data);\n    // Withdraws token amount to the user's wallet as a token\n    IGenericTokenAdapter(_tokenAdapter).withdraw(msg.sender, _collateralAmount, _data);\n  }\n\n  function wipeAllUnlockIbBNBAndConvertToBNB(\n    address _vault,\n    address _manager,\n    address _tokenAdapter,\n    address _stablecoinAdapter,\n    uint256 _positionId,\n    uint256 _collateralAmount, // [wad]\n    bytes calldata _data\n  ) external {\n    wipeAllAndUnlockToken(_manager, _tokenAdapter, _stablecoinAdapter, _positionId, _collateralAmount, _data);\n    ibBNBToBNB(_vault, _collateralAmount);\n  }\n\n  function wipeAllUnlockTokenAndConvert(\n    address _vault,\n    address _manager,\n    address _tokenAdapter,\n    address _stablecoinAdapter,\n    uint256 _positionId,\n    uint256 _collateralAmount, // [in token decimal]\n    bytes calldata _data\n  ) external {\n    wipeAllAndUnlockToken(_manager, _tokenAdapter, _stablecoinAdapter, _positionId, _collateralAmount, _data);\n    ibTokenToToken(_vault, convertTo18(_tokenAdapter, _collateralAmount));\n  }\n\n  function harvest(\n    address _manager,\n    address _tokenAdapter,\n    uint256 _positionId,\n    address _harvestToken\n  ) external {\n    address _positionAddress = IManager(_manager).positions(_positionId);\n    IGenericTokenAdapter(_tokenAdapter).deposit(_positionAddress, 0, abi.encode());\n    transfer(_harvestToken, msg.sender, _harvestToken.myBalance());\n  }\n\n  function harvestMultiple(\n    address _manager,\n    address[] memory _tokenAdapters,\n    uint256[] memory _positionIds,\n    address _harvestToken\n  ) external {\n    require(_tokenAdapters.length == _positionIds.length, \"tokenAdapters and positionIds length mismatch\");\n\n    for (uint256 i = 0; i < _positionIds.length; i++) {\n      address _positionAddress = IManager(_manager).positions(_positionIds[i]);\n      IGenericTokenAdapter(_tokenAdapters[i]).deposit(_positionAddress, 0, abi.encode());\n    }\n\n    transfer(_harvestToken, msg.sender, _harvestToken.myBalance());\n  }\n\n  function redeemLockedCollateral(\n    address _manager,\n    uint256 _positionId,\n    address _tokenAdapter,\n    bytes calldata _data\n  ) external {\n    IManager(_manager).redeemLockedCollateral(_positionId, _tokenAdapter, address(this), _data);\n  }\n}\n",
  "sourcePath": "/Users/sangjun.lee/Sangjun/fathom-stablecoin-smart-contracts/contracts/8.17/proxy-actions/FathomStablecoinProxyActions.sol",
  "compiler": {
    "name": "solc",
    "version": "0.8.17+commit.8df45f5f.Emscripten.clang"
  },
  "schemaVersion": "3.4.10",
  "updatedAt": "2022-10-06T11:28:50.190Z",
  "devdoc": {
    "kind": "dev",
    "methods": {
      "allowManagePosition(address,uint256,address,uint256)": {
        "details": "Allow/Disallow a user to manage the position",
        "params": {
          "_manager": "The PositionManager address",
          "_ok": "The ok flag to allow/disallow",
          "_user": "The user address that msg.sender would like to allow to manage his position"
        }
      },
      "allowMigratePosition(address,address,uint256)": {
        "details": "Allow/Disallow a user to import/export position from/to msg.sender",
        "params": {
          "_manager": "The PositionManager address",
          "_ok": "The ok flag to allow/disallow",
          "_user": "The user address that msg.sender would like to allow to import/export position from/to"
        }
      },
      "stablecoinAdapterDeposit(address,address,uint256,bytes)": {
        "params": {
          "_adapter": "The address of stablecoin adapter",
          "_data": "The extra data for stable adapter context",
          "_positionAddress": "The address of the Position Handler",
          "_stablecoinAmount": "The amount in wad to be deposit to Stablecoin adapter [wad]"
        }
      }
    },
    "version": 1
  },
  "userdoc": {
    "kind": "user",
    "methods": {
      "stablecoinAdapterDeposit(address,address,uint256,bytes)": {
        "notice": "Public functions"
      }
    },
    "notice": "==============================WARNING: These functions meant to be used as a a library for a Proxy.DO NOT CALL ANY FUNCTION IN THIS CONTRACT DIRECTLY.Hence, it shouldn't has any state vairables. Some are unsafe if you call them directly. ==============================",
    "version": 1
  }
}