{
  "contractName": "Faucet",
  "abi": [
    {
      "inputs": [
        {
          "internalType": "address",
          "name": "tokenAddress",
          "type": "address"
        }
      ],
      "stateMutability": "payable",
      "type": "constructor"
    },
    {
      "anonymous": false,
      "inputs": [
        {
          "indexed": true,
          "internalType": "address",
          "name": "from",
          "type": "address"
        },
        {
          "indexed": true,
          "internalType": "uint256",
          "name": "amount",
          "type": "uint256"
        }
      ],
      "name": "Deposit",
      "type": "event"
    },
    {
      "anonymous": false,
      "inputs": [
        {
          "indexed": true,
          "internalType": "address",
          "name": "to",
          "type": "address"
        },
        {
          "indexed": true,
          "internalType": "uint256",
          "name": "amount",
          "type": "uint256"
        }
      ],
      "name": "Withdrawal",
      "type": "event"
    },
    {
      "inputs": [],
      "name": "lockTime",
      "outputs": [
        {
          "internalType": "uint256",
          "name": "",
          "type": "uint256"
        }
      ],
      "stateMutability": "view",
      "type": "function"
    },
    {
      "inputs": [],
      "name": "token",
      "outputs": [
        {
          "internalType": "contract IERC20",
          "name": "",
          "type": "address"
        }
      ],
      "stateMutability": "view",
      "type": "function"
    },
    {
      "inputs": [],
      "name": "withdrawalAmount",
      "outputs": [
        {
          "internalType": "uint256",
          "name": "",
          "type": "uint256"
        }
      ],
      "stateMutability": "view",
      "type": "function"
    },
    {
      "stateMutability": "payable",
      "type": "receive"
    },
    {
      "inputs": [],
      "name": "requestTokens",
      "outputs": [],
      "stateMutability": "nonpayable",
      "type": "function"
    },
    {
      "inputs": [],
      "name": "getBalance",
      "outputs": [
        {
          "internalType": "uint256",
          "name": "",
          "type": "uint256"
        }
      ],
      "stateMutability": "view",
      "type": "function"
    },
    {
      "inputs": [
        {
          "internalType": "uint256",
          "name": "amount",
          "type": "uint256"
        }
      ],
      "name": "setWithdrawalAmount",
      "outputs": [],
      "stateMutability": "nonpayable",
      "type": "function"
    },
    {
      "inputs": [
        {
          "internalType": "uint256",
          "name": "amount",
          "type": "uint256"
        }
      ],
      "name": "setLockTime",
      "outputs": [],
      "stateMutability": "nonpayable",
      "type": "function"
    },
    {
      "inputs": [],
      "name": "withdraw",
      "outputs": [],
      "stateMutability": "nonpayable",
      "type": "function"
    }
  ],
  "bytecode": "0x6080604052674563918244f40000600255603c60035560405161084038038061084083398101604081905261003391610061565b600180546001600160a01b039092166001600160a01b03199283161790556000805490911633179055610091565b60006020828403121561007357600080fd5b81516001600160a01b038116811461008a57600080fd5b9392505050565b6107a0806100a06000396000f3fe60806040526004361061007f5760003560e01c80633ccfd60b1161004e5780633ccfd60b1461012d578063ae04d45d14610142578063e6e268f414610162578063fc0c546a1461017857600080fd5b80630d668087146100b857806312065fe0146100e1578063168ee33a146100f6578063359cf2b71461011857600080fd5b366100b357604051349033907fe1fffcc4923d04b559f4d29a8bfc6cda04eb5b0d3c460751c2402c5c5cc9109c90600090a3005b600080fd5b3480156100c457600080fd5b506100ce60035481565b6040519081526020015b60405180910390f35b3480156100ed57600080fd5b506100ce6101b0565b34801561010257600080fd5b5061011661011136600461067b565b610222565b005b34801561012457600080fd5b5061011661026d565b34801561013957600080fd5b506101166104d8565b34801561014e57600080fd5b5061011661015d36600461067b565b610640565b34801561016e57600080fd5b506100ce60025481565b34801561018457600080fd5b50600154610198906001600160a01b031681565b6040516001600160a01b0390911681526020016100d8565b6001546040516370a0823160e01b81523060048201526000916001600160a01b0316906370a0823190602401602060405180830381865afa1580156101f9573d6000803e3d6000fd5b505050506040513d601f19601f8201168201806040525081019061021d9190610694565b905090565b6000546001600160a01b031633146102555760405162461bcd60e51b815260040161024c906106ad565b60405180910390fd5b61026781670de0b6b3a7640000610711565b60025550565b336102d15760405162461bcd60e51b815260206004820152602e60248201527f52657175657374206d757374206e6f74206f726967696e6174652066726f6d2060448201526d18481e995c9bc81858d8dbdd5b9d60921b606482015260840161024c565b6002546001546040516370a0823160e01b81523060048201526001600160a01b03909116906370a0823190602401602060405180830381865afa15801561031c573d6000803e3d6000fd5b505050506040513d601f19601f820116820180604052508101906103409190610694565b10156103ac5760405162461bcd60e51b815260206004820152603560248201527f496e73756666696369656e742062616c616e636520696e2066617563657420666044820152741bdc881dda5d1a191c985dd85b081c995c5d595cdd605a1b606482015260840161024c565b3360009081526004602052604090205442101561043c5760405162461bcd60e51b815260206004820152604260248201527f496e73756666696369656e742074696d6520656c61707365642073696e63652060448201527f6c617374207769746864726177616c202d2074727920616761696e206c617465606482015261391760f11b608482015260a40161024c565b600354610449904261072e565b3360008181526004602081905260409182902093909355600154600254915163a9059cbb60e01b81529384019290925260248301526001600160a01b03169063a9059cbb906044015b6020604051808303816000875af11580156104b1573d6000803e3d6000fd5b505050506040513d601f19601f820116820180604052508101906104d59190610741565b50565b6000546001600160a01b031633146105025760405162461bcd60e51b815260040161024c906106ad565b6001546040516370a0823160e01b81523060048201526001600160a01b03909116906370a0823190602401602060405180830381865afa15801561054a573d6000803e3d6000fd5b505050506040513d601f19601f8201168201806040525081019061056e9190610694565b60405133907f7fcf532c15f0a6db0bd6d0e038bea71d30d808c7d98cb3bf7268a95bf5081b6590600090a36001546040516370a0823160e01b81523060048201526001600160a01b039091169063a9059cbb90339083906370a0823190602401602060405180830381865afa1580156105eb573d6000803e3d6000fd5b505050506040513d601f19601f8201168201806040525081019061060f9190610694565b6040516001600160e01b031960e085901b1681526001600160a01b0390921660048301526024820152604401610492565b6000546001600160a01b0316331461066a5760405162461bcd60e51b815260040161024c906106ad565b61067581603c610711565b60035550565b60006020828403121561068d57600080fd5b5035919050565b6000602082840312156106a657600080fd5b5051919050565b6020808252602e908201527f4f6e6c792074686520636f6e7472616374206f776e65722063616e2063616c6c60408201526d103a3434b990333ab731ba34b7b760911b606082015260800190565b634e487b7160e01b600052601160045260246000fd5b8082028115828204841417610728576107286106fb565b92915050565b80820180821115610728576107286106fb565b60006020828403121561075357600080fd5b8151801515811461076357600080fd5b939250505056fea26469706673582212206f40245ae51c996b2c5f9557cb572605f9c7b8c6c56a37ee21bee16239e750fd64736f6c63430008110033",
  "immutableReferences": {},
  "source": "// contracts/Faucet.sol\n// SPDX-License-Identifier: MIT\n\npragma solidity ^0.8.17;\n\ninterface IERC20 {\n    function transfer(address to, uint256 amount) external returns (bool);\n\n    function balanceOf(address account) external view returns (uint256);\n\n    event Transfer(address indexed from, address indexed to, uint256 value);\n}\n\ncontract Faucet {\n    address payable owner;\n    IERC20 public token;\n\n    uint256 public withdrawalAmount = 5 * (10**18);\n    uint256 public lockTime = 1 minutes;\n\n    event Withdrawal(address indexed to, uint256 indexed amount);\n    event Deposit(address indexed from, uint256 indexed amount);\n\n    mapping(address => uint256) nextAccessTime;\n\n    constructor(address tokenAddress) payable {\n        token = IERC20(tokenAddress);\n        owner = payable(msg.sender);\n    }\n\n    function requestTokens() public {\n        require(\n            msg.sender != address(0),\n            \"Request must not originate from a zero account\"\n        );\n        require(\n            token.balanceOf(address(this)) >= withdrawalAmount,\n            \"Insufficient balance in faucet for withdrawal request\"\n        );\n        require(\n            block.timestamp >= nextAccessTime[msg.sender],\n            \"Insufficient time elapsed since last withdrawal - try again later.\"\n        );\n\n        nextAccessTime[msg.sender] = block.timestamp + lockTime;\n\n        token.transfer(msg.sender, withdrawalAmount);\n    }\n\n    receive() external payable {\n        emit Deposit(msg.sender, msg.value);\n    }\n\n    function getBalance() external view returns (uint256) {\n        return token.balanceOf(address(this));\n    }\n\n    function setWithdrawalAmount(uint256 amount) public onlyOwner {\n        withdrawalAmount = amount * (10**18);\n    }\n\n    function setLockTime(uint256 amount) public onlyOwner {\n        lockTime = amount * 1 minutes;\n    }\n\n    function withdraw() external onlyOwner {\n        emit Withdrawal(msg.sender, token.balanceOf(address(this)));\n        token.transfer(msg.sender, token.balanceOf(address(this)));\n    }\n\n    modifier onlyOwner() {\n        require(\n            msg.sender == owner,\n            \"Only the contract owner can call this function\"\n        );\n        _;\n    }\n}",
  "sourcePath": "/Users/sangjun.lee/Sangjun/fathom-stablecoin-smart-contracts/contracts/8.17/faucet/Faucet.sol",
  "compiler": {
    "name": "solc",
    "version": "0.8.17+commit.8df45f5f.Emscripten.clang"
  },
  "schemaVersion": "3.4.10",
  "updatedAt": "2022-10-21T12:59:12.500Z",
  "devdoc": {
    "kind": "dev",
    "methods": {},
    "version": 1
  },
  "userdoc": {
    "kind": "user",
    "methods": {},
    "version": 1
  }
}