{
  "contractName": "FixedSpreadLiquidationStrategy",
  "abi": [
    {
      "anonymous": false,
      "inputs": [
        {
          "indexed": false,
          "internalType": "uint8",
          "name": "version",
          "type": "uint8"
        }
      ],
      "name": "Initialized",
      "type": "event"
    },
    {
      "anonymous": false,
      "inputs": [
        {
          "indexed": true,
          "internalType": "bytes32",
          "name": "_collateralPoolId",
          "type": "bytes32"
        },
        {
          "indexed": false,
          "internalType": "uint256",
          "name": "_positionDebtShare",
          "type": "uint256"
        },
        {
          "indexed": false,
          "internalType": "uint256",
          "name": "_positionCollateralAmount",
          "type": "uint256"
        },
        {
          "indexed": true,
          "internalType": "address",
          "name": "_positionAddress",
          "type": "address"
        },
        {
          "indexed": false,
          "internalType": "uint256",
          "name": "_debtShareToBeLiquidated",
          "type": "uint256"
        },
        {
          "indexed": false,
          "internalType": "uint256",
          "name": "_maxDebtShareToBeLiquidated",
          "type": "uint256"
        },
        {
          "indexed": true,
          "internalType": "address",
          "name": "_liquidatorAddress",
          "type": "address"
        },
        {
          "indexed": false,
          "internalType": "address",
          "name": "_collateralRecipient",
          "type": "address"
        },
        {
          "indexed": false,
          "internalType": "uint256",
          "name": "_actualDebtShareToBeLiquidated",
          "type": "uint256"
        },
        {
          "indexed": false,
          "internalType": "uint256",
          "name": "_actualDebtValueToBeLiquidated",
          "type": "uint256"
        },
        {
          "indexed": false,
          "internalType": "uint256",
          "name": "_collateralAmountToBeLiquidated",
          "type": "uint256"
        },
        {
          "indexed": false,
          "internalType": "uint256",
          "name": "_treasuryFees",
          "type": "uint256"
        }
      ],
      "name": "LogFixedSpreadLiquidate",
      "type": "event"
    },
    {
      "anonymous": false,
      "inputs": [
        {
          "indexed": true,
          "internalType": "address",
          "name": "caller",
          "type": "address"
        },
        {
          "indexed": false,
          "internalType": "uint256",
          "name": "_flashLendingEnabled",
          "type": "uint256"
        }
      ],
      "name": "LogSetFlashLendingEnabled",
      "type": "event"
    },
    {
      "anonymous": false,
      "inputs": [
        {
          "indexed": false,
          "internalType": "address",
          "name": "account",
          "type": "address"
        }
      ],
      "name": "Paused",
      "type": "event"
    },
    {
      "anonymous": false,
      "inputs": [
        {
          "indexed": false,
          "internalType": "address",
          "name": "account",
          "type": "address"
        }
      ],
      "name": "Unpaused",
      "type": "event"
    },
    {
      "inputs": [],
      "name": "bookKeeper",
      "outputs": [
        {
          "internalType": "contract IBookKeeper",
          "name": "",
          "type": "address"
        }
      ],
      "stateMutability": "view",
      "type": "function"
    },
    {
      "inputs": [],
      "name": "flashLendingEnabled",
      "outputs": [
        {
          "internalType": "uint256",
          "name": "",
          "type": "uint256"
        }
      ],
      "stateMutability": "view",
      "type": "function"
    },
    {
      "inputs": [],
      "name": "liquidationEngine",
      "outputs": [
        {
          "internalType": "contract ILiquidationEngine",
          "name": "",
          "type": "address"
        }
      ],
      "stateMutability": "view",
      "type": "function"
    },
    {
      "inputs": [],
      "name": "paused",
      "outputs": [
        {
          "internalType": "bool",
          "name": "",
          "type": "bool"
        }
      ],
      "stateMutability": "view",
      "type": "function"
    },
    {
      "inputs": [],
      "name": "priceOracle",
      "outputs": [
        {
          "internalType": "contract IPriceOracle",
          "name": "",
          "type": "address"
        }
      ],
      "stateMutability": "view",
      "type": "function"
    },
    {
      "inputs": [],
      "name": "systemDebtEngine",
      "outputs": [
        {
          "internalType": "contract ISystemDebtEngine",
          "name": "",
          "type": "address"
        }
      ],
      "stateMutability": "view",
      "type": "function"
    },
    {
      "inputs": [
        {
          "internalType": "address",
          "name": "_bookKeeper",
          "type": "address"
        },
        {
          "internalType": "address",
          "name": "_priceOracle",
          "type": "address"
        },
        {
          "internalType": "address",
          "name": "_liquidationEngine",
          "type": "address"
        },
        {
          "internalType": "address",
          "name": "_systemDebtEngine",
          "type": "address"
        }
      ],
      "name": "initialize",
      "outputs": [],
      "stateMutability": "nonpayable",
      "type": "function"
    },
    {
      "inputs": [
        {
          "internalType": "uint256",
          "name": "_flashLendingEnabled",
          "type": "uint256"
        }
      ],
      "name": "setFlashLendingEnabled",
      "outputs": [],
      "stateMutability": "nonpayable",
      "type": "function"
    },
    {
      "inputs": [
        {
          "internalType": "bytes32",
          "name": "_collateralPoolId",
          "type": "bytes32"
        },
        {
          "internalType": "uint256",
          "name": "_positionDebtShare",
          "type": "uint256"
        },
        {
          "internalType": "uint256",
          "name": "_positionCollateralAmount",
          "type": "uint256"
        },
        {
          "internalType": "address",
          "name": "_positionAddress",
          "type": "address"
        },
        {
          "internalType": "uint256",
          "name": "_debtShareToBeLiquidated",
          "type": "uint256"
        },
        {
          "internalType": "uint256",
          "name": "_maxDebtShareToBeLiquidated",
          "type": "uint256"
        },
        {
          "internalType": "address",
          "name": "_liquidatorAddress",
          "type": "address"
        },
        {
          "internalType": "address",
          "name": "_collateralRecipient",
          "type": "address"
        },
        {
          "internalType": "bytes",
          "name": "_data",
          "type": "bytes"
        }
      ],
      "name": "execute",
      "outputs": [],
      "stateMutability": "nonpayable",
      "type": "function"
    },
    {
      "inputs": [],
      "name": "pause",
      "outputs": [],
      "stateMutability": "nonpayable",
      "type": "function"
    },
    {
      "inputs": [],
      "name": "unpause",
      "outputs": [],
      "stateMutability": "nonpayable",
      "type": "function"
    }
  ],
  "bytecode": "0x608060405234801561001057600080fd5b50612766806100206000396000f3fe608060405234801561001057600080fd5b50600436106100a95760003560e01c80635c975abb116100715780635c975abb146101215780638456cb5914610137578063df1a4b731461013f578063e3b3932a14610156578063f79b9f4a14610169578063f8c8765e1461017c57600080fd5b806316d8d291146100ae5780632630c12f146100c357806328e49a42146100f35780633f4ba83a1461010657806344bf3c721461010e575b600080fd5b6100c16100bc366004612369565b61018f565b005b609a546100d6906001600160a01b031681565b6040516001600160a01b0390911681526020015b60405180910390f35b6099546100d6906001600160a01b031681565b6100c1610c91565b6098546100d6906001600160a01b031681565b60335460ff1660405190151581526020016100ea565b6100c1610edc565b610148609b5481565b6040519081526020016100ea565b6097546100d6906001600160a01b031681565b6100c1610177366004612445565b611124565b6100c161018a36600461245e565b6113a2565b6101976116dd565b61019f611736565b609760009054906101000a90046001600160a01b03166001600160a01b031663c8cc243f6040518163ffffffff1660e01b8152600401602060405180830381865afa1580156101f2573d6000803e3d6000fd5b505050506040513d601f19601f8201168201806040525081019061021691906124ba565b604051632474521560e21b81527f73cc1824a5ac1764c2e141cf3615a9dcb73677c4e5be5154addc88d3e0cc148060048201523360248201526001600160a01b0391909116906391d1485490604401602060405180830381865afa158015610282573d6000803e3d6000fd5b505050506040513d601f19601f820116820180604052508101906102a691906124f3565b6102f05760405162461bcd60e51b8152602060048201526016602482015275216c69717569646174696f6e456e67696e67526f6c6560501b60448201526064015b60405180910390fd5b6000891161033f5760405162461bcd60e51b81526020600482015260286024820152600080516020612711833981519152604482015267195c9bcb5919589d60c21b60648201526084016102e7565b6000881161039b5760405162461bcd60e51b81526020600482015260356024820152600080516020612711833981519152604482015274195c9bcb58dbdb1b185d195c985b0b585b5bdd5b9d605a1b60648201526084016102e7565b6001600160a01b0387166103fc5760405162461bcd60e51b8152602060048201526034602482015260008051602061271183398151915260448201527365726f2d706f736974696f6e2d6164647265737360601b60648201526084016102e7565b60006104078b61177e565b9050600081116104645760405162461bcd60e51b8152602060048201526034602482015260008051602061271183398151915260448201527365726f2d636f6c6c61746572616c2d707269636560601b60648201526084016102e7565b60006104738c89848d8f6119d0565b9050868160a0015111156104fd5760405162461bcd60e51b815260206004820152604560248201527f46697865645370726561644c69717569646174696f6e53747261746567792f6560448201527f78636565642d6d61782d646562742d76616c75652d746f2d62652d6c6971756960648201526419185d195960da1b608482015260a4016102e7565b600160ff1b8160c0015110801561051b5750600160ff1b8160a00151105b6105775760405162461bcd60e51b815260206004820152602760248201527f46697865645370726561644c69717569646174696f6e53747261746567792f6f604482015266766572666c6f7760c81b60648201526084016102e7565b609760009054906101000a90046001600160a01b03166001600160a01b031663b1df25948d8b30609960009054906101000a90046001600160a01b03168660c001516105c290612524565b8760a001516105d090612524565b6040516001600160e01b031960e089901b16815260048101969096526001600160a01b039485166024870152928416604486015292166064840152608483019190915260a482015260c401600060405180830381600087803b15801561063557600080fd5b505af1158015610649573d6000803e3d6000fd5b505050506000609760009054906101000a90046001600160a01b03166001600160a01b031663d86824616040518163ffffffff1660e01b8152600401602060405180830381865afa1580156106a2573d6000803e3d6000fd5b505050506040513d601f19601f820116820180604052508101906106c691906124ba565b6001600160a01b0316638272e1388e6040518263ffffffff1660e01b81526004016106f391815260200190565b602060405180830381865afa158015610710573d6000803e3d6000fd5b505050506040513d601f19601f8201168201806040525081019061073491906124ba565b60c083015160408051600060208201529293506001600160a01b038416926399443616928e923092016040516020818303038152906040526040518563ffffffff1660e01b815260040161078b9493929190612540565b600060405180830381600087803b1580156107a557600080fd5b505af11580156107b9573d6000803e3d6000fd5b50505050609760009054906101000a90046001600160a01b03166001600160a01b031663b5d993298e30896107ff8760e001518860c001516120ef90919063ffffffff16565b6040516001600160e01b031960e087901b16815260048101949094526001600160a01b039283166024850152911660448301526064820152608401600060405180830381600087803b15801561085457600080fd5b505af1158015610868573d6000803e3d6000fd5b50505050806001600160a01b0316639944361630886108988660e001518760c001516120ef90919063ffffffff16565b6040805160006020820152016040516020818303038152906040526040518563ffffffff1660e01b81526004016108d29493929190612540565b600060405180830381600087803b1580156108ec57600080fd5b505af1158015610900573d6000803e3d6000fd5b5050505060e082015115610a4c57609760009054906101000a90046001600160a01b03166001600160a01b031663b5d993298e30609960009054906101000a90046001600160a01b03168660e001516040518563ffffffff1660e01b815260040161098e94939291909384526001600160a01b03928316602085015291166040830152606082015260800190565b600060405180830381600087803b1580156109a857600080fd5b505af11580156109bc573d6000803e3d6000fd5b505060995460e085015160408051600060208201526001600160a01b038781169650639944361695503094169291016040516020818303038152906040526040518563ffffffff1660e01b8152600401610a199493929190612540565b600060405180830381600087803b158015610a3357600080fd5b505af1158015610a47573d6000803e3d6000fd5b505050505b609b546001148015610a5d57508315155b8015610a7757506097546001600160a01b03878116911614155b8015610a9157506098546001600160a01b03878116911614155b15610b1b57856001600160a01b031663af7bd142338460800151610ac68660e001518760c001516120ef90919063ffffffff16565b89896040518663ffffffff1660e01b8152600401610ae89594939291906125b1565b600060405180830381600087803b158015610b0257600080fd5b505af1158015610b16573d6000803e3d6000fd5b505050505b60975460995460808401516040516323055e1560e21b81526001600160a01b038b8116600483015292831660248201526044810191909152911690638c15785490606401600060405180830381600087803b158015610b7957600080fd5b505af1158015610b8d573d6000803e3d6000fd5b505050508b8260000181815250508a8260200181815250508882604001818152505087826060018181525050866001600160a01b03168a6001600160a01b03168e7f498293dc3e787b3f04a320f39b6d8853b395dbbccb2abadfb92ec74a01f1338185600001518660200151876040015188606001518d8a60a001518b608001518c60c001518d60e00151604051610c70999897969594939291909889526020890197909752604088019590955260608701939093526001600160a01b0391909116608086015260a085015260c084015260e08301526101008201526101200190565b60405180910390a4505050610c856001606555565b50505050505050505050565b6097546040805163c8cc243f60e01b815290516000926001600160a01b03169163c8cc243f9160048083019260209291908290030181865afa158015610cdb573d6000803e3d6000fd5b505050506040513d601f19601f82011682018060405250810190610cff91906124ba565b9050806001600160a01b03166391d14854826001600160a01b031663e58378bb6040518163ffffffff1660e01b8152600401602060405180830381865afa158015610d4e573d6000803e3d6000fd5b505050506040513d601f19601f82011682018060405250810190610d7291906125fd565b6040516001600160e01b031960e084901b1681526004810191909152336024820152604401602060405180830381865afa158015610db4573d6000803e3d6000fd5b505050506040513d601f19601f82011682018060405250810190610dd891906124f3565b80610eb55750806001600160a01b03166391d14854826001600160a01b031663b536818a6040518163ffffffff1660e01b8152600401602060405180830381865afa158015610e2b573d6000803e3d6000fd5b505050506040513d601f19601f82011682018060405250810190610e4f91906125fd565b6040516001600160e01b031960e084901b1681526004810191909152336024820152604401602060405180830381865afa158015610e91573d6000803e3d6000fd5b505050506040513d601f19601f82011682018060405250810190610eb591906124f3565b610ed15760405162461bcd60e51b81526004016102e790612616565b610ed961210b565b50565b6097546040805163c8cc243f60e01b815290516000926001600160a01b03169163c8cc243f9160048083019260209291908290030181865afa158015610f26573d6000803e3d6000fd5b505050506040513d601f19601f82011682018060405250810190610f4a91906124ba565b9050806001600160a01b03166391d14854826001600160a01b031663e58378bb6040518163ffffffff1660e01b8152600401602060405180830381865afa158015610f99573d6000803e3d6000fd5b505050506040513d601f19601f82011682018060405250810190610fbd91906125fd565b6040516001600160e01b031960e084901b1681526004810191909152336024820152604401602060405180830381865afa158015610fff573d6000803e3d6000fd5b505050506040513d601f19601f8201168201806040525081019061102391906124f3565b806111005750806001600160a01b03166391d14854826001600160a01b031663b536818a6040518163ffffffff1660e01b8152600401602060405180830381865afa158015611076573d6000803e3d6000fd5b505050506040513d601f19601f8201168201806040525081019061109a91906125fd565b6040516001600160e01b031960e084901b1681526004810191909152336024820152604401602060405180830381865afa1580156110dc573d6000803e3d6000fd5b505050506040513d601f19601f8201168201806040525081019061110091906124f3565b61111c5760405162461bcd60e51b81526004016102e790612616565b610ed961215d565b6097546040805163c8cc243f60e01b815290516000926001600160a01b03169163c8cc243f9160048083019260209291908290030181865afa15801561116e573d6000803e3d6000fd5b505050506040513d601f19601f8201168201806040525081019061119291906124ba565b9050806001600160a01b03166391d14854826001600160a01b031663e58378bb6040518163ffffffff1660e01b8152600401602060405180830381865afa1580156111e1573d6000803e3d6000fd5b505050506040513d601f19601f8201168201806040525081019061120591906125fd565b6040516001600160e01b031960e084901b1681526004810191909152336024820152604401602060405180830381865afa158015611247573d6000803e3d6000fd5b505050506040513d601f19601f8201168201806040525081019061126b91906124f3565b806113485750806001600160a01b03166391d14854826001600160a01b031663b536818a6040518163ffffffff1660e01b8152600401602060405180830381865afa1580156112be573d6000803e3d6000fd5b505050506040513d601f19601f820116820180604052508101906112e291906125fd565b6040516001600160e01b031960e084901b1681526004810191909152336024820152604401602060405180830381865afa158015611324573d6000803e3d6000fd5b505050506040513d601f19601f8201168201806040525081019061134891906124f3565b6113645760405162461bcd60e51b81526004016102e790612616565b609b82905560405182815233907f684f8e172a780a0039365d294d89561032ab348a858ed68283e8f531a22981079060200160405180910390a25050565b600054610100900460ff16158080156113c25750600054600160ff909116105b806113dc5750303b1580156113dc575060005460ff166001145b61143f5760405162461bcd60e51b815260206004820152602e60248201527f496e697469616c697a61626c653a20636f6e747261637420697320616c72656160448201526d191e481a5b9a5d1a585b1a5e995960921b60648201526084016102e7565b6000805460ff191660011790558015611462576000805461ff0019166101001790555b61146a61219a565b6114726121c9565b846001600160a01b0316636f3a3bfc6040518163ffffffff1660e01b81526004016020604051808303816000875af11580156114b2573d6000803e3d6000fd5b505050506040513d601f19601f820116820180604052508101906114d691906125fd565b5084609760006101000a8154816001600160a01b0302191690836001600160a01b03160217905550836001600160a01b0316639d1eea786040518163ffffffff1660e01b8152600401602060405180830381865afa15801561153c573d6000803e3d6000fd5b505050506040513d601f19601f8201168201806040525081019061156091906125fd565b5083609a60006101000a8154816001600160a01b0302191690836001600160a01b03160217905550826001600160a01b031663957aa58c6040518163ffffffff1660e01b8152600401602060405180830381865afa1580156115c6573d6000803e3d6000fd5b505050506040513d601f19601f820116820180604052508101906115ea91906125fd565b5082609860006101000a8154816001600160a01b0302191690836001600160a01b03160217905550816001600160a01b0316632a608d5b6040518163ffffffff1660e01b8152600401602060405180830381865afa158015611650573d6000803e3d6000fd5b505050506040513d601f19601f8201168201806040525081019061167491906125fd565b50609980546001600160a01b0319166001600160a01b03841617905580156116d6576000805461ff0019169055604051600181527f7f26b83ff96e1f2b6a682f133852f6798a09c465da95921460cefb38474024989060200160405180910390a15b5050505050565b60026065540361172f5760405162461bcd60e51b815260206004820152601f60248201527f5265656e7472616e637947756172643a207265656e7472616e742063616c6c0060448201526064016102e7565b6002606555565b60335460ff161561177c5760405162461bcd60e51b815260206004820152601060248201526f14185d5cd8589b194e881c185d5cd95960821b60448201526064016102e7565b565b600080609760009054906101000a90046001600160a01b03166001600160a01b031663d86824616040518163ffffffff1660e01b8152600401602060405180830381865afa1580156117d4573d6000803e3d6000fd5b505050506040513d601f19601f820116820180604052508101906117f891906124ba565b6001600160a01b0316638c0adf62846040518263ffffffff1660e01b815260040161182591815260200190565b602060405180830381865afa158015611842573d6000803e3d6000fd5b505050506040513d601f19601f8201168201806040525081019061186691906124ba565b90506000819050600080826001600160a01b031663140d27206040518163ffffffff1660e01b815260040160408051808303816000875af11580156118af573d6000803e3d6000fd5b505050506040513d601f19601f820116820180604052508101906118d3919061264d565b91509150806119395760405162461bcd60e51b815260206004820152602c60248201527f46697865645370726561644c69717569646174696f6e53747261746567792f6960448201526b6e76616c69642d707269636560a01b60648201526084016102e7565b6119c661194a83633b9aca006121f8565b609a60009054906101000a90046001600160a01b03166001600160a01b0316639d1eea786040518163ffffffff1660e01b8152600401602060405180830381865afa15801561199d573d6000803e3d6000fd5b505050506040513d601f19601f820116820180604052508101906119c191906125fd565b612225565b9695505050505050565b611a1f6040518061012001604052806000815260200160008152602001600081526020016000815260200160008152602001600081526020016000815260200160008152602001600081525090565b611a516040518060a0016040528060008152602001600081526020016000815260200160008152602001600081525090565b609760009054906101000a90046001600160a01b03166001600160a01b031663d86824616040518163ffffffff1660e01b8152600401602060405180830381865afa158015611aa4573d6000803e3d6000fd5b505050506040513d601f19601f82011682018060405250810190611ac891906124ba565b6001600160a01b031663a09b0fe0886040518263ffffffff1660e01b8152600401611af591815260200190565b602060405180830381865afa158015611b12573d6000803e3d6000fd5b505050506040513d601f19601f82011682018060405250810190611b3691906125fd565b81526097546040805163d868246160e01b815290516001600160a01b039092169163d8682461916004808201926020929091908290030181865afa158015611b82573d6000803e3d6000fd5b505050506040513d601f19601f82011682018060405250810190611ba691906124ba565b6001600160a01b031663e73bbc79886040518263ffffffff1660e01b8152600401611bd391815260200190565b602060405180830381865afa158015611bf0573d6000803e3d6000fd5b505050506040513d601f19601f82011682018060405250810190611c1491906125fd565b6020808301919091526097546040805163d868246160e01b815290516001600160a01b039092169263d8682461926004808401938290030181865afa158015611c61573d6000803e3d6000fd5b505050506040513d601f19601f82011682018060405250810190611c8591906124ba565b6001600160a01b0316630ec057e5886040518263ffffffff1660e01b8152600401611cb291815260200190565b602060405180830381865afa158015611ccf573d6000803e3d6000fd5b505050506040513d601f19601f82011682018060405250810190611cf391906125fd565b604080830191909152609754815163d868246160e01b815291516001600160a01b039091169163d86824619160048083019260209291908290030181865afa158015611d43573d6000803e3d6000fd5b505050506040513d601f19601f82011682018060405250810190611d6791906124ba565b6001600160a01b0316639c1985d5886040518263ffffffff1660e01b8152600401611d9491815260200190565b602060405180830381865afa158015611db1573d6000803e3d6000fd5b505050506040513d601f19601f82011682018060405250810190611dd591906125fd565b60608201526097546040805163d868246160e01b815290516001600160a01b039092169163d8682461916004808201926020929091908290030181865afa158015611e24573d6000803e3d6000fd5b505050506040513d601f19601f82011682018060405250810190611e4891906124ba565b6001600160a01b03166373a4f962886040518263ffffffff1660e01b8152600401611e7591815260200190565b602060405180830381865afa158015611e92573d6000803e3d6000fd5b505050506040513d601f19601f82011682018060405250810190611eb691906125fd565b60808201528051600090611ecb908590612299565b90506000826020015111611f475760405162461bcd60e51b815260206004820152603760248201527f46697865645370726561644c69717569646174696f6e53747261746567792f6360448201527f6c6f73652d666163746f722d6270732d6e6f742d73657400000000000000000060648201526084016102e7565b611f6a612710611f6484602001518761229990919063ffffffff16565b906122a5565b61010084018190528711611f7e5786611f85565b8261010001515b60a084018190528251611f989190612299565b608084018190526040830151600091611fbc918991611f6491612710918391612299565b905085811180611fed57506080840151611fd79083906120ef565b611feb88611fe589856120ef565b90612299565b105b1561201c5760c08401869052604083015161201290611f64612710611fe58b8b612299565b608085015261207b565b83608001518211801561204157506060830151608085015161203f9084906120ef565b105b1561207357608084018290526040830151612069908890611f64906127109082908790612299565b60c085015261207b565b60c084018190525b8251608085015161208b916122a5565b60a0850152604083015160c08501516000916120bd916120b29190611f6490612710612299565b60c0870151906120ef565b90506120dc612710611f6486608001518461229990919063ffffffff16565b60e0860152509298975050505050505050565b60006120fb8284612679565b90505b92915050565b6001606555565b6121136122b1565b6033805460ff191690557f5db9ee0a495bf2e6ff9c91a7834c1ba4fdd244a5e8aa4e537bd38aeae4b073aa335b6040516001600160a01b03909116815260200160405180910390a1565b612165611736565b6033805460ff191660011790557f62e78cea01bee320cd4e420270b5ea74000d11b0c9f74754ebdbfc544b05a2586121403390565b600054610100900460ff166121c15760405162461bcd60e51b81526004016102e79061268c565b61177c6122fa565b600054610100900460ff166121f05760405162461bcd60e51b81526004016102e79061268c565b61177c61232d565b600081158061221c5750828261220e81836126d7565b925061221a90836126ee565b145b6120fe57600080fd5b60008082116122785760405162461bcd60e51b815260206004820152602b602482015260008051602061271183398151915260448201526a32b93796b234bb34b9b7b960a91b60648201526084016102e7565b8161228f846b033b2e3c9fd0803ce80000006121f8565b6120fb91906126ee565b60006120fb82846126d7565b60006120fb82846126ee565b60335460ff1661177c5760405162461bcd60e51b815260206004820152601460248201527314185d5cd8589b194e881b9bdd081c185d5cd95960621b60448201526064016102e7565b600054610100900460ff166123215760405162461bcd60e51b81526004016102e79061268c565b6033805460ff19169055565b600054610100900460ff166121045760405162461bcd60e51b81526004016102e79061268c565b6001600160a01b0381168114610ed957600080fd5b6000806000806000806000806000806101208b8d03121561238957600080fd5b8a35995060208b0135985060408b0135975060608b01356123a981612354565b965060808b0135955060a08b0135945060c08b01356123c781612354565b935060e08b01356123d781612354565b92506101008b013567ffffffffffffffff808211156123f557600080fd5b818d0191508d601f83011261240957600080fd5b81358181111561241857600080fd5b8e602082850101111561242a57600080fd5b6020830194508093505050509295989b9194979a5092959850565b60006020828403121561245757600080fd5b5035919050565b6000806000806080858703121561247457600080fd5b843561247f81612354565b9350602085013561248f81612354565b9250604085013561249f81612354565b915060608501356124af81612354565b939692955090935050565b6000602082840312156124cc57600080fd5b81516124d781612354565b9392505050565b805180151581146124ee57600080fd5b919050565b60006020828403121561250557600080fd5b6120fb826124de565b634e487b7160e01b600052601160045260246000fd5b6000600160ff1b82016125395761253961250e565b5060000390565b600060018060a01b038087168352602081871681850152856040850152608060608501528451915081608085015260005b8281101561258d5785810182015185820160a001528101612571565b5050600060a0828501015260a0601f19601f83011684010191505095945050505050565b60018060a01b038616815284602082015283604082015260806060820152816080820152818360a0830137600081830160a090810191909152601f909201601f19160101949350505050565b60006020828403121561260f57600080fd5b5051919050565b60208082526017908201527f21286f776e6572526f6c65206f7220676f76526f6c6529000000000000000000604082015260600190565b6000806040838503121561266057600080fd5b82519150612670602084016124de565b90509250929050565b818103818111156120fe576120fe61250e565b6020808252602b908201527f496e697469616c697a61626c653a20636f6e7472616374206973206e6f74206960408201526a6e697469616c697a696e6760a81b606082015260800190565b80820281158282048414176120fe576120fe61250e565b60008261270b57634e487b7160e01b600052601260045260246000fd5b50049056fe46697865645370726561644c69717569646174696f6e53747261746567792f7aa26469706673582212205ab1031970e4a189a68b4884c2bca84443225778f36e29f563da6be3363f17cd64736f6c63430008110033",
  "immutableReferences": {},
  "source": "// SPDX-License-Identifier: AGPL-3.0-or-later\n\npragma solidity 0.8.17;\npragma experimental ABIEncoderV2;\n\nimport \"@openzeppelin/contracts-upgradeable/security/PausableUpgradeable.sol\";\nimport \"@openzeppelin/contracts-upgradeable/access/AccessControlUpgradeable.sol\";\nimport \"@openzeppelin/contracts-upgradeable/security/ReentrancyGuardUpgradeable.sol\";\nimport \"@openzeppelin/contracts-upgradeable/utils/math/SafeMathUpgradeable.sol\";\n\nimport \"../../interfaces/IBookKeeper.sol\";\nimport \"../../interfaces/IPriceFeed.sol\";\nimport \"../../interfaces/IPriceOracle.sol\";\nimport \"../../interfaces/ILiquidationEngine.sol\";\nimport \"../../interfaces/ILiquidationStrategy.sol\";\nimport \"../../interfaces/ISystemDebtEngine.sol\";\nimport \"../../interfaces/IFlashLendingCallee.sol\";\nimport \"../../interfaces/IGenericTokenAdapter.sol\";\nimport \"../../interfaces/IManager.sol\";\n\ncontract FixedSpreadLiquidationStrategy is PausableUpgradeable, ReentrancyGuardUpgradeable, ILiquidationStrategy {\n  using SafeMathUpgradeable for uint256;\n\n  struct LiquidationInfo {\n    uint256 positionDebtShare; // [wad]\n    uint256 positionCollateralAmount; // [wad]\n    uint256 debtShareToBeLiquidated; // [wad]\n    uint256 maxDebtShareToBeLiquidated; // [wad]\n    uint256 actualDebtValueToBeLiquidated; // [rad]\n    uint256 actualDebtShareToBeLiquidated; // [wad]\n    uint256 collateralAmountToBeLiquidated; // [wad]\n    uint256 treasuryFees; // [wad]\n    uint256 maxLiquidatableDebtShare; // [wad]\n  }\n\n  struct LocalVars {\n    uint256 debtAccumulatedRate; // [ray]\n    uint256 closeFactorBps;\n    uint256 liquidatorIncentiveBps;\n    uint256 debtFloor; // [rad]\n    uint256 treasuryFeesBps;\n  }\n\n  // --- Data ---\n  IBookKeeper public bookKeeper; // Core CDP Engine\n  ILiquidationEngine public liquidationEngine; // Liquidation module\n  ISystemDebtEngine public systemDebtEngine; // Recipient of FUSD raised in auctions\n  IPriceOracle public priceOracle; // Collateral price module\n\n  uint256 public flashLendingEnabled;\n\n  /// @param _positionCollateralAmount [wad]\n  /// @param _debtShareToBeLiquidated [wad]\n  /// @param _maxDebtShareToBeLiquidated [wad]\n  /// @param _actualDebtShareToBeLiquidated [wad]\n  /// @param _actualDebtValueToBeLiquidated [rad]\n  /// @param _collateralAmountToBeLiquidated [wad]\n  /// @param _treasuryFees [wad]\n  event LogFixedSpreadLiquidate(\n    bytes32 indexed _collateralPoolId,\n    uint256 _positionDebtShare,\n    uint256 _positionCollateralAmount,\n    address indexed _positionAddress,\n    uint256 _debtShareToBeLiquidated,\n    uint256 _maxDebtShareToBeLiquidated,\n    address indexed _liquidatorAddress,\n    address _collateralRecipient,\n    uint256 _actualDebtShareToBeLiquidated,\n    uint256 _actualDebtValueToBeLiquidated,\n    uint256 _collateralAmountToBeLiquidated,\n    uint256 _treasuryFees\n  );\n\n  event LogSetFlashLendingEnabled(address indexed caller, uint256 _flashLendingEnabled);\n\n  modifier onlyOwnerOrGov() {\n    IAccessControlConfig _accessControlConfig = IAccessControlConfig(IBookKeeper(bookKeeper).accessControlConfig());\n    require(\n      _accessControlConfig.hasRole(_accessControlConfig.OWNER_ROLE(), msg.sender) ||\n        _accessControlConfig.hasRole(_accessControlConfig.GOV_ROLE(), msg.sender),\n      \"!(ownerRole or govRole)\"\n    );\n    _;\n  }\n\n  // --- Init ---\n  function initialize(\n    address _bookKeeper,\n    address _priceOracle,\n    address _liquidationEngine,\n    address _systemDebtEngine\n  ) external initializer {\n    PausableUpgradeable.__Pausable_init();\n    ReentrancyGuardUpgradeable.__ReentrancyGuard_init();\n\n    IBookKeeper(_bookKeeper).totalStablecoinIssued(); // Sanity Check Call\n    bookKeeper = IBookKeeper(_bookKeeper);\n\n    IPriceOracle(_priceOracle).stableCoinReferencePrice(); // Sanity Check Call\n    priceOracle = IPriceOracle(_priceOracle);\n\n    ILiquidationEngine(_liquidationEngine).live(); // Sanity Check Call\n    liquidationEngine = ILiquidationEngine(_liquidationEngine);\n\n    ISystemDebtEngine(_systemDebtEngine).surplusBuffer(); // Sanity Check Call\n    systemDebtEngine = ISystemDebtEngine(_systemDebtEngine);\n  }\n\n  // --- Math ---\n  uint256 constant BLN = 10**9;\n  uint256 constant WAD = 10**18;\n  uint256 constant RAY = 10**27;\n\n  function mul(uint256 x, uint256 y) internal pure returns (uint256 z) {\n    require(y == 0 || (z = x * y) / y == x);\n  }\n\n  function rdiv(uint256 x, uint256 y) internal pure returns (uint256 z) {\n    require(y > 0, \"FixedSpreadLiquidationStrategy/zero-divisor\");\n    z = mul(x, RAY) / y;\n  }\n\n  // --- Setter ---\n  /// @dev access: OWNER_ROLE, GOV_ROLE\n  function setFlashLendingEnabled(uint256 _flashLendingEnabled) external onlyOwnerOrGov {\n    flashLendingEnabled = _flashLendingEnabled;\n    emit LogSetFlashLendingEnabled(msg.sender, _flashLendingEnabled);\n  }\n\n  // get the price directly from the PriceOracle\n  function getFeedPrice(bytes32 collateralPoolId) internal returns (uint256 feedPrice) {\n    address _priceFeedAddress = ICollateralPoolConfig(bookKeeper.collateralPoolConfig()).getPriceFeed(collateralPoolId);\n    IPriceFeed _priceFeed = IPriceFeed(_priceFeedAddress);\n    (bytes32 price, bool priceOk) = _priceFeed.peekPrice();\n    require(priceOk, \"FixedSpreadLiquidationStrategy/invalid-price\");\n    // (price [wad] * BLN [10 ** 9] ) [ray] / priceOracle.stableCoinReferencePrice [ray]\n    feedPrice = rdiv(mul(uint256(price), BLN), priceOracle.stableCoinReferencePrice()); // [ray]\n  }\n\n  function _calculateLiquidationInfo(\n    bytes32 _collateralPoolId,\n    uint256 _debtShareToBeLiquidated,\n    uint256 _currentCollateralPrice,\n    uint256 _positionCollateralAmount,\n    uint256 _positionDebtShare\n  ) internal view returns (LiquidationInfo memory info) {\n    LocalVars memory _vars;\n    _vars.debtAccumulatedRate = ICollateralPoolConfig(bookKeeper.collateralPoolConfig()).getDebtAccumulatedRate(\n      _collateralPoolId\n    ); // [ray]\n    _vars.closeFactorBps = ICollateralPoolConfig(bookKeeper.collateralPoolConfig()).getCloseFactorBps(\n      _collateralPoolId\n    );\n    _vars.liquidatorIncentiveBps = ICollateralPoolConfig(bookKeeper.collateralPoolConfig()).getLiquidatorIncentiveBps(\n      _collateralPoolId\n    );\n    _vars.debtFloor = ICollateralPoolConfig(bookKeeper.collateralPoolConfig()).getDebtFloor(_collateralPoolId); // [rad]\n    _vars.treasuryFeesBps = ICollateralPoolConfig(bookKeeper.collateralPoolConfig()).getTreasuryFeesBps(\n      _collateralPoolId\n    );\n\n    uint256 _positionDebtValue = _positionDebtShare.mul(_vars.debtAccumulatedRate);\n\n    // Calculate max liquidatable debt value based on the close factor\n    // (_positionDebtShare [wad] * closeFactorBps [bps]) / 10000\n    require(_vars.closeFactorBps > 0, \"FixedSpreadLiquidationStrategy/close-factor-bps-not-set\");\n    info.maxLiquidatableDebtShare = _positionDebtShare.mul(_vars.closeFactorBps).div(10000); // [wad]\n\n    // Choose to use the minimum amount between `_debtValueToBeLiquidated` and `_maxLiquidatableDebtShare`\n    // to not exceed the close factor\n    info.actualDebtShareToBeLiquidated = _debtShareToBeLiquidated > info.maxLiquidatableDebtShare\n      ? info.maxLiquidatableDebtShare\n      : _debtShareToBeLiquidated; // [wad]\n    // actualDebtShareToBeLiquidated [wad] * _debtAccumulatedRate [ray]\n    info.actualDebtValueToBeLiquidated = info.actualDebtShareToBeLiquidated.mul(_vars.debtAccumulatedRate); // [rad]\n\n    // Calculate the max collateral amount to be liquidated by taking all the fees into account\n    // ( actualDebtValueToBeLiquidated [rad] * liquidatorIncentiveBps [bps] / 10000 / _currentCollateralPrice [ray]\n    uint256 _maxCollateralAmountToBeLiquidated = info\n      .actualDebtValueToBeLiquidated\n      .mul(_vars.liquidatorIncentiveBps)\n      .div(10000)\n      .div(_currentCollateralPrice); // [wad]\n\n    // If the calculated collateral amount to be liquidated exceeds the position collateral amount,\n    // then we need to recalculate the debt value to be liquidated that would be enough to liquidate the position entirely\n    // Or if the remaining collateral or the remaining debt is very small and smaller than `debtFloor`, we will force full collateral liquidation\n    if (\n      // If the max collateral amount (including liquidator incentive) that should be liquidated exceeds the total collateral amount of that position\n      _maxCollateralAmountToBeLiquidated > _positionCollateralAmount ||\n      // If the remaining collateral amount value in stablecoin is smaller than `debtFloor`\n      // (_positionCollateralAmount [wad] - _maxCollateralAmountToBeLiquidated [wad]) * _currentCollateralPrice [ray] = [rad]\n      _positionCollateralAmount.sub(_maxCollateralAmountToBeLiquidated).mul(_currentCollateralPrice) <\n      _positionDebtValue.sub(info.actualDebtValueToBeLiquidated)\n    ) {\n      // Full Collateral Liquidation\n      // Take all collateral amount of the position\n      info.collateralAmountToBeLiquidated = _positionCollateralAmount;\n\n      // Calculate how much debt value to be liquidated should be\n      // based on the entire collateral amount of the position\n      // (_currentCollateralPrice [ray] * _positionCollateralAmount [wad]) * 10000 / liquidatorIncentiveBps [bps])\n\n      info.actualDebtValueToBeLiquidated = _currentCollateralPrice.mul(_positionCollateralAmount).mul(10000).div(\n        _vars.liquidatorIncentiveBps\n      ); // [rad]\n    } else {\n      // If the remaining debt after liquidation is smaller than `debtFloor`\n      if (\n        _positionDebtValue > info.actualDebtValueToBeLiquidated &&\n        _positionDebtValue.sub(info.actualDebtValueToBeLiquidated) < _vars.debtFloor\n      ) {\n        // Full Debt Liquidation\n        info.actualDebtValueToBeLiquidated = _positionDebtValue; // [rad]\n\n        // actualDebtValueToBeLiquidated [rad] * liquidatorIncentiveBps [bps] / 10000 / _currentCollateralPrice [ray] /\n        info.collateralAmountToBeLiquidated = info\n          .actualDebtValueToBeLiquidated\n          .mul(_vars.liquidatorIncentiveBps)\n          .div(10000)\n          .div(_currentCollateralPrice); // [wad]\n      } else {\n        // Partial Liquidation\n        info.collateralAmountToBeLiquidated = _maxCollateralAmountToBeLiquidated; // [wad]\n      }\n    }\n\n    info.actualDebtShareToBeLiquidated = info.actualDebtValueToBeLiquidated.div(_vars.debtAccumulatedRate); // [wad]\n\n    // collateralAmountToBeLiquidated - (collateralAmountToBeLiquidated * 10000 / liquidatorIncentiveBps)\n    // e.a.\n    // 1 - (1 * 10000 / 10500) = 0.047619048 which is roughly around 0.05\n    uint256 liquidatorIncentiveCollectedFromPosition = info.collateralAmountToBeLiquidated.sub(\n      info.collateralAmountToBeLiquidated.mul(10000).div(_vars.liquidatorIncentiveBps)\n    ); // [wad]\n\n    // liquidatorIncentiveCollectedFromPosition * (treasuryFeesBps) / 10000\n    // e.a.\n    // 0.047619048 * 5000 / 10000  \n    info.treasuryFees = liquidatorIncentiveCollectedFromPosition.mul(_vars.treasuryFeesBps).div(10000); // [wad]\n  }\n\n  function execute(\n    bytes32 _collateralPoolId,\n    uint256 _positionDebtShare, // Debt Value                  [rad]\n    uint256 _positionCollateralAmount, // Collateral Amount           [wad]\n    address _positionAddress, // Address that will receive any leftover collateral\n    uint256 _debtShareToBeLiquidated, // The value of debt to be liquidated as specified by the liquidator [rad]\n    uint256 _maxDebtShareToBeLiquidated, // The maximum value of debt to be liquidated as specified by the liquidator in case of full liquidation for slippage control [rad]\n    address _liquidatorAddress,\n    address _collateralRecipient,\n    bytes calldata _data // Data to pass in external call; if length 0, no call is done\n  ) external override nonReentrant whenNotPaused {\n    require(\n      IAccessControlConfig(bookKeeper.accessControlConfig()).hasRole(keccak256(\"LIQUIDATION_ENGINE_ROLE\"), msg.sender),\n      \"!liquidationEngingRole\"\n    );\n\n    // Input validation\n    require(_positionDebtShare > 0, \"FixedSpreadLiquidationStrategy/zero-debt\");\n    require(_positionCollateralAmount > 0, \"FixedSpreadLiquidationStrategy/zero-collateral-amount\");\n    require(_positionAddress != address(0), \"FixedSpreadLiquidationStrategy/zero-position-address\");\n\n    // 1. Get current collateral price from Oracle\n    uint256 _currentCollateralPrice = getFeedPrice(_collateralPoolId); // [ray]\n    require(_currentCollateralPrice > 0, \"FixedSpreadLiquidationStrategy/zero-collateral-price\");\n\n    // 2.. Calculate collateral amount to be liquidated according to the current price and liquidator incentive\n    LiquidationInfo memory info = _calculateLiquidationInfo(\n      _collateralPoolId,\n      _debtShareToBeLiquidated,\n      _currentCollateralPrice,\n      _positionCollateralAmount,\n      _positionDebtShare\n    );\n\n    // 4. Confiscate position\n    // Slippage check\n    require(\n      info.actualDebtShareToBeLiquidated <= _maxDebtShareToBeLiquidated,\n      \"FixedSpreadLiquidationStrategy/exceed-max-debt-value-to-be-liquidated\"\n    );\n    // Overflow check\n    require(\n      info.collateralAmountToBeLiquidated < 2**255 && info.actualDebtShareToBeLiquidated < 2**255,\n      \"FixedSpreadLiquidationStrategy/overflow\"\n    );\n    bookKeeper.confiscatePosition(\n      _collateralPoolId,\n      _positionAddress,\n      address(this),\n      address(systemDebtEngine),\n      -int256(info.collateralAmountToBeLiquidated),\n      -int256(info.actualDebtShareToBeLiquidated)\n    );\n    IGenericTokenAdapter _adapter = IGenericTokenAdapter(\n      ICollateralPoolConfig(bookKeeper.collateralPoolConfig()).getAdapter(_collateralPoolId)\n    );\n    _adapter.onMoveCollateral(_positionAddress, address(this), info.collateralAmountToBeLiquidated, abi.encode(0));\n\n    // 5. Give the collateral to the collateralRecipient\n\n    bookKeeper.moveCollateral(\n      _collateralPoolId,\n      address(this),\n      _collateralRecipient,\n      info.collateralAmountToBeLiquidated.sub(info.treasuryFees)\n    );\n    _adapter.onMoveCollateral(\n      address(this),\n      _collateralRecipient,\n      info.collateralAmountToBeLiquidated.sub(info.treasuryFees),\n      abi.encode(0)\n    );\n\n    // 6. Give the treasury fees to System Debt Engine to be stored as system surplus\n    if (info.treasuryFees > 0) {\n      bookKeeper.moveCollateral(_collateralPoolId, address(this), address(systemDebtEngine), info.treasuryFees);\n      _adapter.onMoveCollateral(address(this), address(systemDebtEngine), info.treasuryFees, abi.encode(0));\n    }\n\n    // 7. Do external call (if data is defined) but to be\n    // extremely careful we don't allow to do it to the two\n    // contracts which the FixedSpreadLiquidationStrategy needs to be authorized\n    if (\n      flashLendingEnabled == 1 &&\n      _data.length > 0 &&\n      _collateralRecipient != address(bookKeeper) &&\n      _collateralRecipient != address(liquidationEngine)\n    ) {\n      IFlashLendingCallee(_collateralRecipient).flashLendingCall(\n        msg.sender,\n        info.actualDebtValueToBeLiquidated,\n        info.collateralAmountToBeLiquidated.sub(info.treasuryFees),\n        _data\n      );\n    }\n\n    // Get Fathom Stablecoin from the liquidator for debt repayment\n    bookKeeper.moveStablecoin(_liquidatorAddress, address(systemDebtEngine), info.actualDebtValueToBeLiquidated);\n\n    info.positionDebtShare = _positionDebtShare;\n    info.positionCollateralAmount = _positionCollateralAmount;\n    info.debtShareToBeLiquidated = _debtShareToBeLiquidated;\n    info.maxDebtShareToBeLiquidated = _maxDebtShareToBeLiquidated;\n    emit LogFixedSpreadLiquidate(\n      _collateralPoolId,\n      info.positionDebtShare,\n      info.positionCollateralAmount,\n      _positionAddress,\n      info.debtShareToBeLiquidated,\n      info.maxDebtShareToBeLiquidated,\n      _liquidatorAddress,\n      _collateralRecipient,\n      info.actualDebtShareToBeLiquidated,\n      info.actualDebtValueToBeLiquidated,\n      info.collateralAmountToBeLiquidated,\n      info.treasuryFees\n    );\n  }\n\n  // --- pause ---\n  /// @dev access: OWNER_ROLE, GOV_ROLE\n  function pause() external onlyOwnerOrGov {\n    _pause();\n  }\n\n  /// @dev access: OWNER_ROLE, GOV_ROLE\n  function unpause() external onlyOwnerOrGov {\n    _unpause();\n  }\n}\n",
  "sourcePath": "/Users/sangjun.lee/Sangjun/fathom-stablecoin-smart-contracts/contracts/8.17/stablecoin-core/liquidation-strategies/FixedSpreadLiquidationStrategy.sol",
  "compiler": {
    "name": "solc",
    "version": "0.8.17+commit.8df45f5f.Emscripten.clang"
  },
  "schemaVersion": "3.4.10",
  "updatedAt": "2022-11-24T09:45:49.415Z",
  "devdoc": {
    "events": {
      "LogFixedSpreadLiquidate(bytes32,uint256,uint256,address,uint256,uint256,address,address,uint256,uint256,uint256,uint256)": {
        "params": {
          "_actualDebtShareToBeLiquidated": "[wad]",
          "_actualDebtValueToBeLiquidated": "[rad]",
          "_collateralAmountToBeLiquidated": "[wad]",
          "_debtShareToBeLiquidated": "[wad]",
          "_maxDebtShareToBeLiquidated": "[wad]",
          "_positionCollateralAmount": "[wad]",
          "_treasuryFees": "[wad]"
        }
      }
    },
    "kind": "dev",
    "methods": {
      "pause()": {
        "details": "access: OWNER_ROLE, GOV_ROLE"
      },
      "paused()": {
        "details": "Returns true if the contract is paused, and false otherwise."
      },
      "setFlashLendingEnabled(uint256)": {
        "details": "access: OWNER_ROLE, GOV_ROLE"
      },
      "unpause()": {
        "details": "access: OWNER_ROLE, GOV_ROLE"
      }
    },
    "version": 1
  },
  "userdoc": {
    "kind": "user",
    "methods": {},
    "version": 1
  }
}