{
  "contractName": "FlashMintModule",
  "abi": [
    {
      "anonymous": false,
      "inputs": [
        {
          "indexed": false,
          "internalType": "uint8",
          "name": "version",
          "type": "uint8"
        }
      ],
      "name": "Initialized",
      "type": "event"
    },
    {
      "anonymous": false,
      "inputs": [
        {
          "indexed": true,
          "internalType": "address",
          "name": "_receiver",
          "type": "address"
        },
        {
          "indexed": false,
          "internalType": "uint256",
          "name": "_amount",
          "type": "uint256"
        },
        {
          "indexed": false,
          "internalType": "uint256",
          "name": "_fee",
          "type": "uint256"
        }
      ],
      "name": "LogBookKeeperFlashLoan",
      "type": "event"
    },
    {
      "anonymous": false,
      "inputs": [
        {
          "indexed": true,
          "internalType": "address",
          "name": "_receiver",
          "type": "address"
        },
        {
          "indexed": false,
          "internalType": "address",
          "name": "_token",
          "type": "address"
        },
        {
          "indexed": false,
          "internalType": "uint256",
          "name": "_amount",
          "type": "uint256"
        },
        {
          "indexed": false,
          "internalType": "uint256",
          "name": "_fee",
          "type": "uint256"
        }
      ],
      "name": "LogFlashLoan",
      "type": "event"
    },
    {
      "anonymous": false,
      "inputs": [
        {
          "indexed": false,
          "internalType": "uint256",
          "name": "_data",
          "type": "uint256"
        }
      ],
      "name": "LogSetFeeRate",
      "type": "event"
    },
    {
      "anonymous": false,
      "inputs": [
        {
          "indexed": false,
          "internalType": "uint256",
          "name": "_data",
          "type": "uint256"
        }
      ],
      "name": "LogSetMax",
      "type": "event"
    },
    {
      "anonymous": false,
      "inputs": [
        {
          "indexed": false,
          "internalType": "address",
          "name": "account",
          "type": "address"
        }
      ],
      "name": "Paused",
      "type": "event"
    },
    {
      "anonymous": false,
      "inputs": [
        {
          "indexed": false,
          "internalType": "address",
          "name": "account",
          "type": "address"
        }
      ],
      "name": "Unpaused",
      "type": "event"
    },
    {
      "inputs": [],
      "name": "CALLBACK_SUCCESS",
      "outputs": [
        {
          "internalType": "bytes32",
          "name": "",
          "type": "bytes32"
        }
      ],
      "stateMutability": "view",
      "type": "function"
    },
    {
      "inputs": [],
      "name": "CALLBACK_SUCCESS_BOOK_KEEPER_STABLE_COIN",
      "outputs": [
        {
          "internalType": "bytes32",
          "name": "",
          "type": "bytes32"
        }
      ],
      "stateMutability": "view",
      "type": "function"
    },
    {
      "inputs": [],
      "name": "bookKeeper",
      "outputs": [
        {
          "internalType": "contract IBookKeeper",
          "name": "",
          "type": "address"
        }
      ],
      "stateMutability": "view",
      "type": "function"
    },
    {
      "inputs": [],
      "name": "feeRate",
      "outputs": [
        {
          "internalType": "uint256",
          "name": "",
          "type": "uint256"
        }
      ],
      "stateMutability": "view",
      "type": "function"
    },
    {
      "inputs": [],
      "name": "max",
      "outputs": [
        {
          "internalType": "uint256",
          "name": "",
          "type": "uint256"
        }
      ],
      "stateMutability": "view",
      "type": "function"
    },
    {
      "inputs": [],
      "name": "paused",
      "outputs": [
        {
          "internalType": "bool",
          "name": "",
          "type": "bool"
        }
      ],
      "stateMutability": "view",
      "type": "function"
    },
    {
      "inputs": [],
      "name": "stablecoin",
      "outputs": [
        {
          "internalType": "contract IStablecoin",
          "name": "",
          "type": "address"
        }
      ],
      "stateMutability": "view",
      "type": "function"
    },
    {
      "inputs": [],
      "name": "stablecoinAdapter",
      "outputs": [
        {
          "internalType": "contract IStablecoinAdapter",
          "name": "",
          "type": "address"
        }
      ],
      "stateMutability": "view",
      "type": "function"
    },
    {
      "inputs": [],
      "name": "systemDebtEngine",
      "outputs": [
        {
          "internalType": "address",
          "name": "",
          "type": "address"
        }
      ],
      "stateMutability": "view",
      "type": "function"
    },
    {
      "inputs": [
        {
          "internalType": "address",
          "name": "_stablecoinAdapter",
          "type": "address"
        },
        {
          "internalType": "address",
          "name": "_systemDebtEngine",
          "type": "address"
        }
      ],
      "name": "initialize",
      "outputs": [],
      "stateMutability": "nonpayable",
      "type": "function"
    },
    {
      "inputs": [
        {
          "internalType": "uint256",
          "name": "_data",
          "type": "uint256"
        }
      ],
      "name": "setMax",
      "outputs": [],
      "stateMutability": "nonpayable",
      "type": "function"
    },
    {
      "inputs": [
        {
          "internalType": "uint256",
          "name": "_data",
          "type": "uint256"
        }
      ],
      "name": "setFeeRate",
      "outputs": [],
      "stateMutability": "nonpayable",
      "type": "function"
    },
    {
      "inputs": [
        {
          "internalType": "address",
          "name": "_token",
          "type": "address"
        }
      ],
      "name": "maxFlashLoan",
      "outputs": [
        {
          "internalType": "uint256",
          "name": "",
          "type": "uint256"
        }
      ],
      "stateMutability": "view",
      "type": "function"
    },
    {
      "inputs": [
        {
          "internalType": "address",
          "name": "_token",
          "type": "address"
        },
        {
          "internalType": "uint256",
          "name": "_amount",
          "type": "uint256"
        }
      ],
      "name": "flashFee",
      "outputs": [
        {
          "internalType": "uint256",
          "name": "",
          "type": "uint256"
        }
      ],
      "stateMutability": "view",
      "type": "function"
    },
    {
      "inputs": [
        {
          "internalType": "contract IERC3156FlashBorrower",
          "name": "_receiver",
          "type": "address"
        },
        {
          "internalType": "address",
          "name": "_token",
          "type": "address"
        },
        {
          "internalType": "uint256",
          "name": "_amount",
          "type": "uint256"
        },
        {
          "internalType": "bytes",
          "name": "_data",
          "type": "bytes"
        }
      ],
      "name": "flashLoan",
      "outputs": [
        {
          "internalType": "bool",
          "name": "",
          "type": "bool"
        }
      ],
      "stateMutability": "nonpayable",
      "type": "function"
    },
    {
      "inputs": [
        {
          "internalType": "contract IBookKeeperFlashBorrower",
          "name": "_receiver",
          "type": "address"
        },
        {
          "internalType": "uint256",
          "name": "_amount",
          "type": "uint256"
        },
        {
          "internalType": "bytes",
          "name": "_data",
          "type": "bytes"
        }
      ],
      "name": "bookKeeperFlashLoan",
      "outputs": [
        {
          "internalType": "bool",
          "name": "",
          "type": "bool"
        }
      ],
      "stateMutability": "nonpayable",
      "type": "function"
    },
    {
      "inputs": [],
      "name": "convert",
      "outputs": [],
      "stateMutability": "nonpayable",
      "type": "function"
    },
    {
      "inputs": [],
      "name": "accrue",
      "outputs": [],
      "stateMutability": "nonpayable",
      "type": "function"
    },
    {
      "inputs": [],
      "name": "refreshApproval",
      "outputs": [],
      "stateMutability": "nonpayable",
      "type": "function"
    }
  ],
  "bytecode": "0x608060405234801561001057600080fd5b50611d4c806100206000396000f3fe608060405234801561001057600080fd5b50600436106101215760003560e01c80638237e538116100ad578063d9d98ce411610071578063d9d98ce41461024b578063e3b3932a1461025e578063e4d25b6a14610271578063e9cbd82214610298578063f8ba4cff146102ab57600080fd5b80638237e538146101f857806391bbdcc71461021f578063978bbdb914610227578063bf33a1f514610230578063c3bd28491461023857600080fd5b8063485cc955116100f4578063485cc955146101915780635c975abb146101a45780635cffe9de146101bb578063613255ab146101ce5780636ac5db19146101ef57600080fd5b80631fe9eabc1461012657806328e49a421461013b57806345596e2e1461016b57806346a311d31461017e575b600080fd5b61013961013436600461184f565b6102b3565b005b60685461014e906001600160a01b031681565b6040516001600160a01b0390911681526020015b60405180910390f35b61013961017936600461184f565b6104bf565b60665461014e906001600160a01b031681565b61013961019f366004611880565b610657565b60335460ff165b6040519015158152602001610162565b6101ab6101c9366004611902565b61096e565b6101e16101dc366004611975565b610d8f565b604051908152602001610162565b6101e160695481565b6101e17f439148f0bbc682ca079e46d6e2c2f0c1e3b820f1a291b069d8882abf8cf18dd981565b610139610dc4565b6101e1606a5481565b610139610ed7565b6101ab610246366004611999565b611086565b6101e16102593660046119f5565b61146c565b60655461014e906001600160a01b031681565b6101e17f0a749ded14b97653a44d6e6b0b8342c23ed955e329d919b01a4ee7ef7907f64c81565b60675461014e906001600160a01b031681565b6101396114c4565b6065546040805163c8cc243f60e01b815290516000926001600160a01b03169163c8cc243f9160048083019260209291908290030181865afa1580156102fd573d6000803e3d6000fd5b505050506040513d601f19601f820116820180604052508101906103219190611a21565b9050806001600160a01b03166391d14854826001600160a01b031663e58378bb6040518163ffffffff1660e01b8152600401602060405180830381865afa158015610370573d6000803e3d6000fd5b505050506040513d601f19601f820116820180604052508101906103949190611a3e565b6040516001600160e01b031960e084901b1681526004810191909152336024820152604401602060405180830381865afa1580156103d6573d6000803e3d6000fd5b505050506040513d601f19601f820116820180604052508101906103fa9190611a57565b61041f5760405162461bcd60e51b815260040161041690611a79565b60405180910390fd5b722cd76fe086b93ce2f768a00b22a0000000000082606981905511156104875760405162461bcd60e51b815260206004820181905260248201527f466c6173684d696e744d6f64756c652f6365696c696e672d746f6f2d686967686044820152606401610416565b6040518281527fb47210f61fd67d0b135076271cd36095371fb8b518cf6ce72df1ccb44adfa7dd906020015b60405180910390a15050565b6065546040805163c8cc243f60e01b815290516000926001600160a01b03169163c8cc243f9160048083019260209291908290030181865afa158015610509573d6000803e3d6000fd5b505050506040513d601f19601f8201168201806040525081019061052d9190611a21565b9050806001600160a01b03166391d14854826001600160a01b031663e58378bb6040518163ffffffff1660e01b8152600401602060405180830381865afa15801561057c573d6000803e3d6000fd5b505050506040513d601f19601f820116820180604052508101906105a09190611a3e565b6040516001600160e01b031960e084901b1681526004810191909152336024820152604401602060405180830381865afa1580156105e2573d6000803e3d6000fd5b505050506040513d601f19601f820116820180604052508101906106069190611a57565b6106225760405162461bcd60e51b815260040161041690611a79565b606a8290556040518281527f051e0af931842372a862a69a47843d7dd4bca2f1298058b45839d9c0a96949e3906020016104b3565b600054610100900460ff16158080156106775750600054600160ff909116105b806106915750303b158015610691575060005460ff166001145b6106f45760405162461bcd60e51b815260206004820152602e60248201527f496e697469616c697a61626c653a20636f6e747261637420697320616c72656160448201526d191e481a5b9a5d1a585b1a5e995960921b6064820152608401610416565b6000805460ff191660011790558015610717576000805461ff0019166101001790555b61071f611585565b826001600160a01b031663e3b3932a6040518163ffffffff1660e01b81526004016020604051808303816000875af115801561075f573d6000803e3d6000fd5b505050506040513d601f19601f820116820180604052508101906107839190611a21565b606580546001600160a01b039283166001600160a01b031991821617909155606680549286169290911682179055604080516374e5ec1160e11b8152905163e9cbd8229160048082019260209290919082900301816000875af11580156107ee573d6000803e3d6000fd5b505050506040513d601f19601f820116820180604052508101906108129190611a21565b606780546001600160a01b0319166001600160a01b0392831617905582166108935760405162461bcd60e51b815260206004820152602e60248201527f466c6173684d696e744d6f64756c652f6261642d73797374656d2d646562742d60448201526d656e67696e652d6164647265737360901b6064820152608401610416565b606880546001600160a01b0319166001600160a01b0384811691909117909155606554604051634d8c928d60e11b81528583166004820152911690639b19251a90602401600060405180830381600087803b1580156108f157600080fd5b505af1158015610905573d6000803e3d6000fd5b505060675461092392506001600160a01b03169050846000196115b6565b8015610969576000805461ff0019169055604051600181527f7f26b83ff96e1f2b6a682f133852f6798a09c465da95921460cefb38474024989060200160405180910390a15b505050565b6000606b546000146109925760405162461bcd60e51b815260040161041690611a9d565b6001606b556067546001600160a01b038681169116146109c45760405162461bcd60e51b815260040161041690611ad2565b606954841115610a165760405162461bcd60e51b815260206004820181905260248201527f466c6173684d696e744d6f64756c652f6365696c696e672d65786365656465646044820152606401610416565b6000610a2e856b033b2e3c9fd0803ce80000006116c0565b90506000670de0b6b3a7640000610a4787606a546116c0565b610a519190611b29565b90506000610a5f87836116ed565b606554604051636a32115160e01b81529192506001600160a01b031690636a32115190610a9490309081908890600401611b4b565b600060405180830381600087803b158015610aae57600080fd5b505af1158015610ac2573d6000803e3d6000fd5b505060665460408051600060208201526001600160a01b0390921693506331f0926592508c918b91016040516020818303038152906040526040518463ffffffff1660e01b8152600401610b1893929190611b93565b600060405180830381600087803b158015610b3257600080fd5b505af1158015610b46573d6000803e3d6000fd5b5050604080516001600160a01b038c81168252602082018c9052918101869052908c1692507fd4b73b1eb5368aa51ca6d75d7e5971b37e1dd58a72650f866c4f97018f836d5e915060600160405180910390a26040516323e30c8b60e01b81527f439148f0bbc682ca079e46d6e2c2f0c1e3b820f1a291b069d8882abf8cf18dd9906001600160a01b038b16906323e30c8b90610bf19033908d908d9089908e908e90600401611c05565b6020604051808303816000875af1158015610c10573d6000803e3d6000fd5b505050506040513d601f19601f82011682018060405250810190610c349190611a3e565b14610c815760405162461bcd60e51b815260206004820152601f60248201527f466c6173684d696e744d6f64756c652f63616c6c6261636b2d6661696c6564006044820152606401610416565b606754610c99906001600160a01b03168a3084611708565b60665460408051600060208201526001600160a01b03909216916349bdc2b89130918591016040516020818303038152906040526040518463ffffffff1660e01b8152600401610ceb93929190611b93565b600060405180830381600087803b158015610d0557600080fd5b505af1158015610d19573d6000803e3d6000fd5b5050606554604051632054443b60e21b8152600481018790526001600160a01b03909116925063815110ec9150602401600060405180830381600087803b158015610d6357600080fd5b505af1158015610d77573d6000803e3d6000fd5b50506000606b555060019a9950505050505050505050565b6067546000906001600160a01b038381169116148015610daf5750606b54155b15610dbc57505060695490565b506000919050565b606b5415610de45760405162461bcd60e51b815260040161041690611a9d565b6001606b556066546067546040516370a0823160e01b815230600482018190526001600160a01b03938416936349bdc2b89391929116906370a0823190602401602060405180830381865afa158015610e41573d6000803e3d6000fd5b505050506040513d601f19601f82011682018060405250810190610e659190611a3e565b6040805160006020820152016040516020818303038152906040526040518463ffffffff1660e01b8152600401610e9e93929190611b93565b600060405180830381600087803b158015610eb857600080fd5b505af1158015610ecc573d6000803e3d6000fd5b50506000606b555050565b606b5415610ef75760405162461bcd60e51b815260040161041690611a9d565b6001606b556065546040805163c8cc243f60e01b815290516000926001600160a01b03169163c8cc243f9160048083019260209291908290030181865afa158015610f46573d6000803e3d6000fd5b505050506040513d601f19601f82011682018060405250810190610f6a9190611a21565b9050806001600160a01b03166391d14854826001600160a01b031663e58378bb6040518163ffffffff1660e01b8152600401602060405180830381865afa158015610fb9573d6000803e3d6000fd5b505050506040513d601f19601f82011682018060405250810190610fdd9190611a3e565b6040516001600160e01b031960e084901b1681526004810191909152336024820152604401602060405180830381865afa15801561101f573d6000803e3d6000fd5b505050506040513d601f19601f820116820180604052508101906110439190611a57565b61105f5760405162461bcd60e51b815260040161041690611a79565b60665460675461107e916001600160a01b0391821691166000196115b6565b506000606b55565b6000606b546000146110aa5760405162461bcd60e51b815260040161041690611a9d565b6001606b556069546110c8906b033b2e3c9fd0803ce80000006116c0565b8411156111175760405162461bcd60e51b815260206004820181905260248201527f466c6173684d696e744d6f64756c652f6365696c696e672d65786365656465646044820152606401610416565b60655460405163b4ac08bb60e01b81523060048201526000916001600160a01b03169063b4ac08bb90602401602060405180830381865afa158015611160573d6000803e3d6000fd5b505050506040513d601f19601f820116820180604052508101906111849190611a3e565b90506000670de0b6b3a764000061119d87606a546116c0565b6111a79190611b29565b606554604051636a32115160e01b81529192506001600160a01b031690636a321151906111dc9030908b908b90600401611b4b565b600060405180830381600087803b1580156111f657600080fd5b505af115801561120a573d6000803e3d6000fd5b505060408051898152602081018590526001600160a01b038b1693507f01f9095585cb155b3e18f715ec33e0b6924266ed39f29ab63907c677d635d15192500160405180910390a2604051631596aa8d60e31b81527f0a749ded14b97653a44d6e6b0b8342c23ed955e329d919b01a4ee7ef7907f64c906001600160a01b0389169063acb55468906112a89033908b9087908c908c90600401611c4c565b6020604051808303816000875af11580156112c7573d6000803e3d6000fd5b505050506040513d601f19601f820116820180604052508101906112eb9190611a3e565b146113385760405162461bcd60e51b815260206004820152601f60248201527f466c6173684d696e744d6f64756c652f63616c6c6261636b2d6661696c6564006044820152606401610416565b606554604051632054443b60e21b8152600481018890526001600160a01b039091169063815110ec90602401600060405180830381600087803b15801561137e57600080fd5b505af1158015611392573d6000803e3d6000fd5b505050506113a082826116ed565b60655460405163b4ac08bb60e01b81523060048201526001600160a01b039091169063b4ac08bb90602401602060405180830381865afa1580156113e8573d6000803e3d6000fd5b505050506040513d601f19601f8201168201806040525081019061140c9190611a3e565b101561145a5760405162461bcd60e51b815260206004820181905260248201527f466c6173684d696e744d6f64756c652f696e73756666696369656e742d6665656044820152606401610416565b50506000606b55506001949350505050565b6067546000906001600160a01b0384811691161461149c5760405162461bcd60e51b815260040161041690611ad2565b670de0b6b3a76400006114b183606a546116c0565b6114bb9190611b29565b90505b92915050565b606b54156114e45760405162461bcd60e51b815260040161041690611a9d565b6001606b5560655460685460405163b4ac08bb60e01b815230600482018190526001600160a01b0393841693638c157854939192911690849063b4ac08bb90602401602060405180830381865afa158015611543573d6000803e3d6000fd5b505050506040513d601f19601f820116820180604052508101906115679190611a3e565b6040518463ffffffff1660e01b8152600401610e9e93929190611b4b565b600054610100900460ff166115ac5760405162461bcd60e51b815260040161041690611c85565b6115b461181c565b565b604080516001600160a01b038481166024830152604480830185905283518084039091018152606490920183526020820180516001600160e01b031663095ea7b360e01b17905291516000928392908716916116129190611cd0565b6000604051808303816000865af19150503d806000811461164f576040519150601f19603f3d011682016040523d82523d6000602084013e611654565b606091505b509150915081801561167e57508051158061167e57508080602001905181019061167e9190611a57565b6116b95760405162461bcd60e51b815260206004820152600c60248201526b2173616665417070726f766560a01b6044820152606401610416565b5050505050565b60008115806116e4575082826116d68183611cec565b92506116e29083611b29565b145b6114be57600080fd5b6000826116fa8382611d03565b91508110156114be57600080fd5b600080856001600160a01b03166323b872dd86868660405160240161172f93929190611b4b565b6040516020818303038152906040529060e01b6020820180516001600160e01b0383818316178352505050506040516117689190611cd0565b6000604051808303816000865af19150503d80600081146117a5576040519150601f19603f3d011682016040523d82523d6000602084013e6117aa565b606091505b50915091508180156117d45750805115806117d45750808060200190518101906117d49190611a57565b6118145760405162461bcd60e51b815260206004820152601160248201527021736166655472616e7366657246726f6d60781b6044820152606401610416565b505050505050565b600054610100900460ff166118435760405162461bcd60e51b815260040161041690611c85565b6033805460ff19169055565b60006020828403121561186157600080fd5b5035919050565b6001600160a01b038116811461187d57600080fd5b50565b6000806040838503121561189357600080fd5b823561189e81611868565b915060208301356118ae81611868565b809150509250929050565b60008083601f8401126118cb57600080fd5b50813567ffffffffffffffff8111156118e357600080fd5b6020830191508360208285010111156118fb57600080fd5b9250929050565b60008060008060006080868803121561191a57600080fd5b853561192581611868565b9450602086013561193581611868565b935060408601359250606086013567ffffffffffffffff81111561195857600080fd5b611964888289016118b9565b969995985093965092949392505050565b60006020828403121561198757600080fd5b813561199281611868565b9392505050565b600080600080606085870312156119af57600080fd5b84356119ba81611868565b935060208501359250604085013567ffffffffffffffff8111156119dd57600080fd5b6119e9878288016118b9565b95989497509550505050565b60008060408385031215611a0857600080fd5b8235611a1381611868565b946020939093013593505050565b600060208284031215611a3357600080fd5b815161199281611868565b600060208284031215611a5057600080fd5b5051919050565b600060208284031215611a6957600080fd5b8151801515811461199257600080fd5b6020808252600a9082015269216f776e6572526f6c6560b01b604082015260600190565b6020808252818101527f466c6173684d696e744d6f64756c652f7265656e7472616e63792d6775617264604082015260600190565b60208082526021908201527f466c6173684d696e744d6f64756c652f746f6b656e2d756e737570706f7274656040820152601960fa1b606082015260800190565b634e487b7160e01b600052601160045260246000fd5b600082611b4657634e487b7160e01b600052601260045260246000fd5b500490565b6001600160a01b039384168152919092166020820152604081019190915260600190565b60005b83811015611b8a578181015183820152602001611b72565b50506000910152565b60018060a01b03841681528260208201526060604082015260008251806060840152611bc6816080850160208701611b6f565b601f01601f191691909101608001949350505050565b81835281816020850137506000828201602090810191909152601f909101601f19169091010190565b6001600160a01b03878116825286166020820152604081018590526060810184905260a060808201819052600090611c409083018486611bdc565b98975050505050505050565b60018060a01b0386168152846020820152836040820152608060608201526000611c7a608083018486611bdc565b979650505050505050565b6020808252602b908201527f496e697469616c697a61626c653a20636f6e7472616374206973206e6f74206960408201526a6e697469616c697a696e6760a81b606082015260800190565b60008251611ce2818460208701611b6f565b9190910192915050565b80820281158282048414176114be576114be611b13565b808201808211156114be576114be611b1356fea2646970667358221220d81a3b51869ee7d6db5ff1f566b2e2974a8ceca7b73ec1a76970fb2ee6a3221e64736f6c63430008110033",
  "immutableReferences": {},
  "source": "// SPDX-License-Identifier: AGPL-3.0-or-later\n\npragma solidity 0.8.17;\n\nimport \"@openzeppelin/contracts-upgradeable/security/PausableUpgradeable.sol\";\nimport \"@openzeppelin/contracts-upgradeable/access/AccessControlUpgradeable.sol\";\n\nimport \"../interfaces/IERC3156FlashLender.sol\";\nimport \"../interfaces/IERC3156FlashBorrower.sol\";\nimport \"../interfaces/IBookKeeperFlashLender.sol\";\nimport \"../interfaces/IStablecoin.sol\";\nimport \"../interfaces/IStablecoinAdapter.sol\";\nimport \"../interfaces/IBookKeeper.sol\";\nimport \"../utils/SafeToken.sol\";\n\ncontract FlashMintModule is PausableUpgradeable, IERC3156FlashLender, IBookKeeperFlashLender {\n  using SafeToken for address;\n\n  modifier onlyOwner() {\n    IAccessControlConfig _accessControlConfig = IAccessControlConfig(bookKeeper.accessControlConfig());\n    require(_accessControlConfig.hasRole(_accessControlConfig.OWNER_ROLE(), msg.sender), \"!ownerRole\");\n    _;\n  }\n\n  // --- Data ---\n  IBookKeeper public bookKeeper;\n  IStablecoinAdapter public stablecoinAdapter;\n  IStablecoin public stablecoin;\n  address public systemDebtEngine; // systemDebtEngine intentionally set immutable to save gas\n\n  uint256 public max; // Maximum borrowable stablecoin  [wad]\n  uint256 public feeRate; // Fee                     [wad = 100%]\n  uint256 private locked; // Reentrancy guard\n\n  bytes32 public constant CALLBACK_SUCCESS = keccak256(\"ERC3156FlashBorrower.onFlashLoan\");\n  bytes32 public constant CALLBACK_SUCCESS_BOOK_KEEPER_STABLE_COIN =\n    keccak256(\"BookKeeperFlashBorrower.onBookKeeperFlashLoan\");\n\n  // --- Events ---\n  event LogSetMax(uint256 _data);\n  event LogSetFeeRate(uint256 _data);\n  event LogFlashLoan(address indexed _receiver, address _token, uint256 _amount, uint256 _fee);\n  event LogBookKeeperFlashLoan(address indexed _receiver, uint256 _amount, uint256 _fee);\n\n  modifier lock() {\n    require(locked == 0, \"FlashMintModule/reentrancy-guard\");\n    locked = 1;\n    _;\n    locked = 0;\n  }\n\n  // --- Init ---\n  function initialize(address _stablecoinAdapter, address _systemDebtEngine) external initializer {\n    // 1. Initialized all dependencies\n    PausableUpgradeable.__Pausable_init();\n\n    bookKeeper = IBookKeeper(IStablecoinAdapter(_stablecoinAdapter).bookKeeper());\n    stablecoinAdapter = IStablecoinAdapter(_stablecoinAdapter);\n    stablecoin = IStablecoin(IStablecoinAdapter(_stablecoinAdapter).stablecoin());\n    require(_systemDebtEngine != address(0), \"FlashMintModule/bad-system-debt-engine-address\");\n    systemDebtEngine = _systemDebtEngine;\n\n    bookKeeper.whitelist(_stablecoinAdapter);\n    address(stablecoin).safeApprove(_stablecoinAdapter, type(uint256).max);\n  }\n\n  // --- Math ---\n  uint256 constant WAD = 10**18;\n  uint256 constant RAY = 10**27;\n  uint256 constant RAD = 10**45;\n\n  function _add(uint256 _x, uint256 _y) internal pure returns (uint256 _z) {\n    require((_z = _x + _y) >= _x);\n  }\n\n  function _mul(uint256 _x, uint256 _y) internal pure returns (uint256 _z) {\n    require(_y == 0 || (_z = _x * _y) / _y == _x);\n  }\n\n  // --- Administration ---\n  /// @dev access: OWNER_ROLE\n  function setMax(uint256 _data) external onlyOwner {\n    // Add an upper limit of 10^27 Stablecoin to avoid breaking technical assumptions of Stablecoin << 2^256 - 1\n    require((max = _data) <= RAD, \"FlashMintModule/ceiling-too-high\");\n    emit LogSetMax(_data);\n  }\n\n  /// @dev access: OWNER_ROLE\n  function setFeeRate(uint256 _data) external onlyOwner {\n    feeRate = _data;\n    emit LogSetFeeRate(_data);\n  }\n\n  // --- ERC 3156 Spec ---\n  function maxFlashLoan(address _token) external view override returns (uint256) {\n    if (_token == address(stablecoin) && locked == 0) {\n      return max;\n    } else {\n      return 0;\n    }\n  }\n\n  function flashFee(address _token, uint256 _amount) external view override returns (uint256) {\n    require(_token == address(stablecoin), \"FlashMintModule/token-unsupported\");\n\n    return _mul(_amount, feeRate) / WAD;\n  }\n\n  function flashLoan(\n    IERC3156FlashBorrower _receiver,\n    address _token,\n    uint256 _amount,\n    bytes calldata _data\n  ) external override lock returns (bool) {\n    require(_token == address(stablecoin), \"FlashMintModule/token-unsupported\");\n    require(_amount <= max, \"FlashMintModule/ceiling-exceeded\");\n\n    uint256 _amt = _mul(_amount, RAY);\n    uint256 _fee = _mul(_amount, feeRate) / WAD;\n    uint256 _total = _add(_amount, _fee);\n\n    bookKeeper.mintUnbackedStablecoin(address(this), address(this), _amt);\n    stablecoinAdapter.withdraw(address(_receiver), _amount, abi.encode(0));\n\n    emit LogFlashLoan(address(_receiver), _token, _amount, _fee);\n\n    require(\n      _receiver.onFlashLoan(msg.sender, _token, _amount, _fee, _data) == CALLBACK_SUCCESS,\n      \"FlashMintModule/callback-failed\"\n    );\n\n    address(stablecoin).safeTransferFrom(address(_receiver), address(this), _total); // The fee is also enforced here\n    stablecoinAdapter.deposit(address(this), _total, abi.encode(0));\n    bookKeeper.settleSystemBadDebt(_amt);\n\n    return true;\n  }\n\n  // --- BookKeeper Flash Loan ---\n  function bookKeeperFlashLoan(\n    IBookKeeperFlashBorrower _receiver, // address of conformant IBookKeeperFlashBorrower\n    uint256 _amount, // amount to flash loan [rad]\n    bytes calldata _data // arbitrary data to pass to the receiver\n  ) external override lock returns (bool) {\n    require(_amount <= _mul(max, RAY), \"FlashMintModule/ceiling-exceeded\");\n\n    uint256 _prev = bookKeeper.stablecoin(address(this));\n    uint256 _fee = _mul(_amount, feeRate) / WAD;\n\n    bookKeeper.mintUnbackedStablecoin(address(this), address(_receiver), _amount);\n\n    emit LogBookKeeperFlashLoan(address(_receiver), _amount, _fee);\n\n    require(\n      _receiver.onBookKeeperFlashLoan(msg.sender, _amount, _fee, _data) == CALLBACK_SUCCESS_BOOK_KEEPER_STABLE_COIN,\n      \"FlashMintModule/callback-failed\"\n    );\n\n    bookKeeper.settleSystemBadDebt(_amount);\n    require(bookKeeper.stablecoin(address(this)) >= _add(_prev, _fee), \"FlashMintModule/insufficient-fee\");\n\n    return true;\n  }\n\n  function convert() external lock {\n    stablecoinAdapter.deposit(address(this), stablecoin.balanceOf(address(this)), abi.encode(0));\n  }\n\n  function accrue() external lock {\n    bookKeeper.moveStablecoin(address(this), systemDebtEngine, bookKeeper.stablecoin(address(this)));\n  }\n\n  /// @dev access: OWNER_ROLE\n  function refreshApproval() external lock onlyOwner {\n    address(stablecoin).safeApprove(address(stablecoinAdapter), type(uint256).max);\n  }\n}\n",
  "sourcePath": "/Users/sangjun.lee/Sangjun/fathom-stablecoin-smart-contracts/contracts/8.17/flash-mint/FlashMintModule.sol",
  "compiler": {
    "name": "solc",
    "version": "0.8.17+commit.8df45f5f.Emscripten.clang"
  },
  "schemaVersion": "3.4.10",
  "updatedAt": "2022-10-06T11:28:50.074Z",
  "devdoc": {
    "kind": "dev",
    "methods": {
      "paused()": {
        "details": "Returns true if the contract is paused, and false otherwise."
      },
      "refreshApproval()": {
        "details": "access: OWNER_ROLE"
      },
      "setFeeRate(uint256)": {
        "details": "access: OWNER_ROLE"
      },
      "setMax(uint256)": {
        "details": "access: OWNER_ROLE"
      }
    },
    "version": 1
  },
  "userdoc": {
    "kind": "user",
    "methods": {},
    "version": 1
  }
}