{
  "contractName": "GetPositionsV2",
  "abi": [
    {
      "anonymous": false,
      "inputs": [
        {
          "indexed": false,
          "internalType": "uint8",
          "name": "version",
          "type": "uint8"
        }
      ],
      "name": "Initialized",
      "type": "event"
    },
    {
      "inputs": [],
      "name": "FathomStatsAddress",
      "outputs": [
        {
          "internalType": "address",
          "name": "",
          "type": "address"
        }
      ],
      "stateMutability": "view",
      "type": "function"
    },
    {
      "inputs": [
        {
          "internalType": "address",
          "name": "fathomStatsAddress",
          "type": "address"
        }
      ],
      "name": "initialize",
      "outputs": [],
      "stateMutability": "nonpayable",
      "type": "function"
    },
    {
      "inputs": [
        {
          "internalType": "address",
          "name": "_manager",
          "type": "address"
        },
        {
          "internalType": "address",
          "name": "_user",
          "type": "address"
        }
      ],
      "name": "getAllPositionsAsc",
      "outputs": [
        {
          "internalType": "uint256[]",
          "name": "_ids",
          "type": "uint256[]"
        },
        {
          "internalType": "address[]",
          "name": "_positions",
          "type": "address[]"
        },
        {
          "internalType": "bytes32[]",
          "name": "_collateralPools",
          "type": "bytes32[]"
        }
      ],
      "stateMutability": "view",
      "type": "function"
    },
    {
      "inputs": [
        {
          "internalType": "address",
          "name": "_manager",
          "type": "address"
        },
        {
          "internalType": "uint256",
          "name": "_fromId",
          "type": "uint256"
        },
        {
          "internalType": "uint256",
          "name": "_size",
          "type": "uint256"
        }
      ],
      "name": "getPositionsAsc",
      "outputs": [
        {
          "internalType": "uint256[]",
          "name": "_ids",
          "type": "uint256[]"
        },
        {
          "internalType": "address[]",
          "name": "_positions",
          "type": "address[]"
        },
        {
          "internalType": "bytes32[]",
          "name": "_collateralPools",
          "type": "bytes32[]"
        }
      ],
      "stateMutability": "view",
      "type": "function"
    },
    {
      "inputs": [
        {
          "internalType": "address",
          "name": "_manager",
          "type": "address"
        },
        {
          "internalType": "address",
          "name": "_user",
          "type": "address"
        }
      ],
      "name": "getAllPositionsDesc",
      "outputs": [
        {
          "internalType": "uint256[]",
          "name": "",
          "type": "uint256[]"
        },
        {
          "internalType": "address[]",
          "name": "",
          "type": "address[]"
        },
        {
          "internalType": "bytes32[]",
          "name": "",
          "type": "bytes32[]"
        }
      ],
      "stateMutability": "view",
      "type": "function"
    },
    {
      "inputs": [
        {
          "internalType": "address",
          "name": "_manager",
          "type": "address"
        },
        {
          "internalType": "uint256",
          "name": "_fromId",
          "type": "uint256"
        },
        {
          "internalType": "uint256",
          "name": "_size",
          "type": "uint256"
        }
      ],
      "name": "getPositionsDesc",
      "outputs": [
        {
          "internalType": "uint256[]",
          "name": "",
          "type": "uint256[]"
        },
        {
          "internalType": "address[]",
          "name": "",
          "type": "address[]"
        },
        {
          "internalType": "bytes32[]",
          "name": "",
          "type": "bytes32[]"
        }
      ],
      "stateMutability": "view",
      "type": "function"
    },
    {
      "inputs": [
        {
          "internalType": "address",
          "name": "_manager",
          "type": "address"
        },
        {
          "internalType": "uint256",
          "name": "_startIndex",
          "type": "uint256"
        },
        {
          "internalType": "uint256",
          "name": "_offset",
          "type": "uint256"
        }
      ],
      "name": "getPositionWithSafetyBuffer",
      "outputs": [
        {
          "internalType": "address[]",
          "name": "_positions",
          "type": "address[]"
        },
        {
          "internalType": "uint256[]",
          "name": "_debtShares",
          "type": "uint256[]"
        },
        {
          "internalType": "uint256[]",
          "name": "_lockedCollaterals",
          "type": "uint256[]"
        },
        {
          "internalType": "uint256[]",
          "name": "_lockedValues",
          "type": "uint256[]"
        },
        {
          "internalType": "uint256[]",
          "name": "_positionLTVs",
          "type": "uint256[]"
        }
      ],
      "stateMutability": "view",
      "type": "function"
    }
  ],
  "bytecode": "0x608060405234801561001057600080fd5b506113a5806100206000396000f3fe608060405234801561001057600080fd5b506004361061007d5760003560e01c8063c49c05011161005b578063c49c0501146100e4578063c4d66de814610115578063e64cfdae1461012a578063ed5d876a1461013d57600080fd5b806313286b2b1461008257806377d05607146100ad578063833175d2146100c0575b600080fd5b61009561009036600461107f565b610150565b6040516100a493929190611128565b60405180910390f35b6100956100bb36600461107f565b61016f565b6100d36100ce36600461107f565b61017f565b6040516100a4959493929190611191565b6000546100fd906201000090046001600160a01b031681565b6040516001600160a01b0390911681526020016100a4565b6101286101233660046111fe565b6107eb565b005b610095610138366004611222565b61091b565b61009561014b366004611222565b610a1b565b6060806060610160868686610b0c565b92509250925093509350939050565b6060806060610160868686610dae565b6060806060806060876001600160a01b031663583545026040518163ffffffff1660e01b8152600401602060405180830381865afa1580156101c5573d6000803e3d6000fd5b505050506040513d601f19601f820116820180604052508101906101e9919061125b565b6101f38888611046565b111561027357610270600161026a898b6001600160a01b031663583545026040518163ffffffff1660e01b8152600401602060405180830381865afa158015610240573d6000803e3d6000fd5b505050506040513d601f19601f82011682018060405250810190610264919061125b565b9061105b565b90611046565b95505b6000886001600160a01b031663e3b3932a6040518163ffffffff1660e01b8152600401602060405180830381865afa1580156102b3573d6000803e3d6000fd5b505050506040513d601f19601f820116820180604052508101906102d79190611274565b90508667ffffffffffffffff8111156102f2576102f2611291565b60405190808252806020026020018201604052801561031b578160200160208202803683370190505b5095508667ffffffffffffffff81111561033757610337611291565b604051908082528060200260200182016040528015610360578160200160208202803683370190505b5094508667ffffffffffffffff81111561037c5761037c611291565b6040519080825280602002602001820160405280156103a5578160200160208202803683370190505b5093508667ffffffffffffffff8111156103c1576103c1611291565b6040519080825280602002602001820160405280156103ea578160200160208202803683370190505b5092508667ffffffffffffffff81111561040657610406611291565b60405190808252806020026020018201604052801561042f578160200160208202803683370190505b5091506000885b6104408a8a611046565b8110156107dd5760405163133f757160e31b8152600481018290526000906001600160a01b038d16906399fbab8890602401602060405180830381865afa15801561048f573d6000803e3d6000fd5b505050506040513d601f19601f820116820180604052508101906104b39190611274565b6001600160a01b0316146107dd5760405163133f757160e31b8152600481018290526001600160a01b038c16906399fbab8890602401602060405180830381865afa158015610506573d6000803e3d6000fd5b505050506040513d601f19601f8201168201806040525081019061052a9190611274565b88838151811061053c5761053c6112a7565b6001600160a01b0392831660209182029290920101526040516336df277960e11b8152600481018390526000918d1690636dbe4ef290602401602060405180830381865afa158015610592573d6000803e3d6000fd5b505050506040513d601f19601f820116820180604052508101906105b6919061125b565b9050600080856001600160a01b03166329d88594848d88815181106105dd576105dd6112a7565b60200260200101516040518363ffffffff1660e01b81526004016106149291909182526001600160a01b0316602082015260400190565b6040805180830381865afa158015610630573d6000803e3d6000fd5b505050506040513d601f19601f8201168201806040525081019061065491906112bd565b915091508189868151811061066b5761066b6112a7565b60209081029190910101526000635758444360e01b84900361070557600060029054906101000a90046001600160a01b03166001600160a01b0316631616d75c6040518163ffffffff1660e01b8152600401602060405180830381865afa1580156106da573d6000803e3d6000fd5b505050506040513d601f19601f820116820180604052508101906106fe919061125b565b9050610710565b50670de0b6b3a76400005b670de0b6b3a764000061072382856112f7565b61072d919061130e565b89878151811061073f5761073f6112a7565b60200260200101818152505088868151811061075d5761075d6112a7565b6020026020010151826103e861077391906112f7565b61077d919061130e565b88878151811061078f5761078f6112a7565b602002602001018181525050818b87815181106107ae576107ae6112a7565b6020908102919091010152856107c381611330565b9650505050505080806107d590611330565b915050610436565b505050939792965093509350565b600054610100900460ff161580801561080b5750600054600160ff909116105b806108255750303b158015610825575060005460ff166001145b61088c5760405162461bcd60e51b815260206004820152602e60248201527f496e697469616c697a61626c653a20636f6e747261637420697320616c72656160448201526d191e481a5b9a5d1a585b1a5e995960921b606482015260840160405180910390fd5b6000805460ff1916600117905580156108af576000805461ff0019166101001790555b6000805462010000600160b01b031916620100006001600160a01b038516021790558015610917576000805461ff0019169055604051600181527f7f26b83ff96e1f2b6a682f133852f6798a09c465da95921460cefb38474024989060200160405180910390a15b5050565b604051634afa727160e01b81526001600160a01b03828116600483015260609182918291600091871690634afa727190602401602060405180830381865afa15801561096b573d6000803e3d6000fd5b505050506040513d601f19601f8201168201806040525081019061098f919061125b565b604051632ef09ae160e21b81526001600160a01b03878116600483015291925060009188169063bbc26b8490602401602060405180830381865afa1580156109db573d6000803e3d6000fd5b505050506040513d601f19601f820116820180604052508101906109ff919061125b565b9050610a0c878284610b0c565b94509450945050509250925092565b604051634afa727160e01b81526001600160a01b03828116600483015260609182918291600091871690634afa727190602401602060405180830381865afa158015610a6b573d6000803e3d6000fd5b505050506040513d601f19601f82011682018060405250810190610a8f919061125b565b60405163e93cb1b960e01b81526001600160a01b03878116600483015291925060009188169063e93cb1b990602401602060405180830381865afa158015610adb573d6000803e3d6000fd5b505050506040513d601f19601f82011682018060405250810190610aff919061125b565b9050610a0c878284610dae565b60608060608367ffffffffffffffff811115610b2a57610b2a611291565b604051908082528060200260200182016040528015610b53578160200160208202803683370190505b5092508367ffffffffffffffff811115610b6f57610b6f611291565b604051908082528060200260200182016040528015610b98578160200160208202803683370190505b5091508367ffffffffffffffff811115610bb457610bb4611291565b604051908082528060200260200182016040528015610bdd578160200160208202803683370190505b5090506000855b600081118015610bf357508582105b15610da35780858381518110610c0b57610c0b6112a7565b602090810291909101015260405163133f757160e31b8152600481018290526001600160a01b038916906399fbab8890602401602060405180830381865afa158015610c5b573d6000803e3d6000fd5b505050506040513d601f19601f82011682018060405250810190610c7f9190611274565b848381518110610c9157610c916112a7565b6001600160a01b0392831660209182029290920101526040516336df277960e11b81526004810183905290891690636dbe4ef290602401602060405180830381865afa158015610ce5573d6000803e3d6000fd5b505050506040513d601f19601f82011682018060405250810190610d09919061125b565b838381518110610d1b57610d1b6112a7565b6020908102919091010152604051634064a0cf60e11b8152600481018290526001600160a01b038916906380c9419e906024016040805180830381865afa158015610d6a573d6000803e3d6000fd5b505050506040513d601f19601f82011682018060405250810190610d8e91906112bd565b50905081610d9b81611330565b925050610be4565b505093509350939050565b60608060608367ffffffffffffffff811115610dcc57610dcc611291565b604051908082528060200260200182016040528015610df5578160200160208202803683370190505b5092508367ffffffffffffffff811115610e1157610e11611291565b604051908082528060200260200182016040528015610e3a578160200160208202803683370190505b5091508367ffffffffffffffff811115610e5657610e56611291565b604051908082528060200260200182016040528015610e7f578160200160208202803683370190505b5090506000855b600081118015610e9557508582105b15610da35780858381518110610ead57610ead6112a7565b602090810291909101015260405163133f757160e31b8152600481018290526001600160a01b038916906399fbab8890602401602060405180830381865afa158015610efd573d6000803e3d6000fd5b505050506040513d601f19601f82011682018060405250810190610f219190611274565b848381518110610f3357610f336112a7565b6001600160a01b0392831660209182029290920101526040516336df277960e11b81526004810183905290891690636dbe4ef290602401602060405180830381865afa158015610f87573d6000803e3d6000fd5b505050506040513d601f19601f82011682018060405250810190610fab919061125b565b838381518110610fbd57610fbd6112a7565b6020908102919091010152604051634064a0cf60e11b8152600481018290526001600160a01b038916906380c9419e906024016040805180830381865afa15801561100c573d6000803e3d6000fd5b505050506040513d601f19601f8201168201806040525081019061103091906112bd565b915082905061103e81611330565b925050610e86565b60006110528284611349565b90505b92915050565b6000611052828461135c565b6001600160a01b038116811461107c57600080fd5b50565b60008060006060848603121561109457600080fd5b833561109f81611067565b95602085013595506040909401359392505050565b600081518084526020808501945080840160005b838110156110e4578151875295820195908201906001016110c8565b509495945050505050565b600081518084526020808501945080840160005b838110156110e45781516001600160a01b031687529582019590820190600101611103565b60608152600061113b60608301866110b4565b60208382038185015261114e82876110ef565b8481036040860152855180825282870193509082019060005b8181101561118357845183529383019391830191600101611167565b509098975050505050505050565b60a0815260006111a460a08301886110ef565b82810360208401526111b681886110b4565b905082810360408401526111ca81876110b4565b905082810360608401526111de81866110b4565b905082810360808401526111f281856110b4565b98975050505050505050565b60006020828403121561121057600080fd5b813561121b81611067565b9392505050565b6000806040838503121561123557600080fd5b823561124081611067565b9150602083013561125081611067565b809150509250929050565b60006020828403121561126d57600080fd5b5051919050565b60006020828403121561128657600080fd5b815161121b81611067565b634e487b7160e01b600052604160045260246000fd5b634e487b7160e01b600052603260045260246000fd5b600080604083850312156112d057600080fd5b505080516020909101519092909150565b634e487b7160e01b600052601160045260246000fd5b8082028115828204841417611055576110556112e1565b60008261132b57634e487b7160e01b600052601260045260246000fd5b500490565b600060018201611342576113426112e1565b5060010190565b80820180821115611055576110556112e1565b81810381811115611055576110556112e156fea264697066735822122095f60a7b0973278a13287128ead8c931d1b0e203c72f9e7c0dcc8bcf4935f7b264736f6c63430008110033",
  "immutableReferences": {},
  "source": "// SPDX-License-Identifier: AGPL-3.0-or-later\npragma solidity 0.8.17;\npragma experimental ABIEncoderV2;\n\nimport \"@openzeppelin/contracts-upgradeable/utils/math/SafeMathUpgradeable.sol\";\nimport \"@openzeppelin/contracts-upgradeable/proxy/utils/Initializable.sol\";\n\nimport \"../managers/PositionManager.sol\";\nimport \"../interfaces/IBookKeeper.sol\";\nimport \"../interfaces/ICollateralPoolConfig.sol\";\n//added 2022 Sep 28th,  05:02 pm\nimport \"./interfaces/IFathomStats.sol\";\n\n\ncontract GetPositionsV2 is Initializable {\n  using SafeMathUpgradeable for uint256;\n  address public FathomStatsAddress;\n\n  // --- Math ---\n  uint256 constant WAD = 10**18;\n  uint256 constant RAY = 10**27;\n  uint256 constant RAD = 10**45;\n\n  // --- Init ---\n  function initialize(address fathomStatsAddress) external initializer {\n    FathomStatsAddress = fathomStatsAddress;\n  }\n\n  function getAllPositionsAsc(address _manager, address _user)\n    external\n    view\n    returns (\n      uint256[] memory _ids,\n      address[] memory _positions,\n      bytes32[] memory _collateralPools\n    )\n  {\n    uint256 _count = PositionManager(_manager).ownerPositionCount(_user);\n    uint256 _id = PositionManager(_manager).ownerFirstPositionId(_user);\n    return _getPositionsAsc(_manager, _id, _count);\n  }\n\n  function getPositionsAsc(\n    address _manager,\n    uint256 _fromId,\n    uint256 _size\n  )\n    external\n    view\n    returns (\n      uint256[] memory _ids,\n      address[] memory _positions,\n      bytes32[] memory _collateralPools\n    )\n  {\n    return _getPositionsAsc(_manager, _fromId, _size);\n  }\n\n  function _getPositionsAsc(\n    address _manager,\n    uint256 _fromId,\n    uint256 _size\n  )\n    internal\n    view\n    returns (\n      uint256[] memory _ids,\n      address[] memory _positions,\n      bytes32[] memory _collateralPools\n    )\n  {\n    _ids = new uint256[](_size);\n    _positions = new address[](_size);\n    _collateralPools = new bytes32[](_size);\n    uint256 _i = 0;\n    uint256 _id = _fromId;\n\n    while (_id > 0 && _i < _size) {\n      _ids[_i] = _id;\n      _positions[_i] = PositionManager(_manager).positions(_id);\n      _collateralPools[_i] = PositionManager(_manager).collateralPools(_id);\n      (, _id) = PositionManager(_manager).list(_id);\n      _i++;\n    }\n  }\n\n  function getAllPositionsDesc(address _manager, address _user)\n    external\n    view\n    returns (\n      uint256[] memory,\n      address[] memory,\n      bytes32[] memory\n    )\n  {\n    uint256 _count = PositionManager(_manager).ownerPositionCount(_user);\n    uint256 _id = PositionManager(_manager).ownerLastPositionId(_user);\n    return _getPositionsDesc(_manager, _id, _count);\n  }\n\n  function getPositionsDesc(\n    address _manager,\n    uint256 _fromId,\n    uint256 _size\n  )\n    external\n    view\n    returns (\n      uint256[] memory,\n      address[] memory,\n      bytes32[] memory\n    )\n  {\n    return _getPositionsDesc(_manager, _fromId, _size);\n  }\n\n  function _getPositionsDesc(\n    address _manager,\n    uint256 _fromId,\n    uint256 _size\n  )\n    internal\n    view\n    returns (\n      uint256[] memory _ids,\n      address[] memory _positions,\n      bytes32[] memory _collateralPools\n    )\n  {\n    _ids = new uint256[](_size);\n    _positions = new address[](_size);\n    _collateralPools = new bytes32[](_size);\n    uint256 _i = 0;\n    uint256 _id = _fromId;\n\n    while (_id > 0 && _i < _size) {\n      _ids[_i] = _id;\n      _positions[_i] = PositionManager(_manager).positions(_id);\n      _collateralPools[_i] = PositionManager(_manager).collateralPools(_id);\n      (_id, ) = PositionManager(_manager).list(_id);\n      _i++;\n    }\n  }\n\n  function getPositionWithSafetyBuffer(\n    address _manager,\n    uint256 _startIndex,\n    uint256 _offset\n  )\n    external\n    view\n    returns (\n      address[] memory _positions,\n      uint256[] memory _debtShares,\n      // uint256[] memory _safetyBuffers,\n      uint256[] memory _lockedCollaterals,\n      uint256[] memory _lockedValues,\n      uint256[] memory _positionLTVs\n      // uint256[] memory _colPrices,\n      // uint256[] memory _liquidationPrices\n    )\n  {\n    if (_startIndex.add(_offset) > PositionManager(_manager).lastPositionId())\n      _offset = PositionManager(_manager).lastPositionId().sub(_startIndex).add(1);\n\n    IBookKeeper _bookKeeper = IBookKeeper(PositionManager(_manager).bookKeeper());\n    _positions = new address[](_offset);\n    _debtShares = new uint256[](_offset);\n    // _safetyBuffers = new uint256[](_offset);\n\n    //2022 Sep 28th Wed 4:56 PM added\n    _lockedCollaterals = new uint256[](_offset);\n    _lockedValues = new uint256[](_offset);\n    _positionLTVs = new uint256[](_offset);\n    // _colPrices = new uint256[](_offset);\n    // _liquidationPrices = new uint256[](_offset);\n    uint256 _resultIndex = 0;\n    for (uint256 _positionIndex = _startIndex; _positionIndex < _startIndex.add(_offset); _positionIndex++) {\n      if (PositionManager(_manager).positions(_positionIndex) == address(0)) break;\n      _positions[_resultIndex] = PositionManager(_manager).positions(_positionIndex);\n\n      bytes32 _collateralPoolId = PositionManager(_manager).collateralPools(_positionIndex);\n      (uint256 _lockedCollateral, uint256 _debtShare) = _bookKeeper.positions(\n        _collateralPoolId,\n        _positions[_resultIndex]\n      );\n      //2022 Sep 28th Wed 4:57 PM added\n      _lockedCollaterals[_resultIndex] = _lockedCollateral;\n      uint256 _colPrice;\n      //PriceFetch from DexPriceOracle\n      if (_collateralPoolId == 0x5758444300000000000000000000000000000000000000000000000000000000) {\n        _colPrice = IFathomStats(FathomStatsAddress).getWXDCPrice();\n      } else {\n        _colPrice = 1000000000000000000;\n      }\n      // _colPrices[_resultIndex] = _colPrice;\n      //calculate LockedValue\n      _lockedValues[_resultIndex] = _lockedCollateral * _colPrice / WAD;\n      // we assume FXD is 1 dollar. \n      _positionLTVs[_resultIndex] = (_debtShare * 1000 / _lockedValues[_resultIndex]);\n\n      // ICollateralPoolConfig collateralPoolConfig = ICollateralPoolConfig(_bookKeeper.collateralPoolConfig());\n\n      // uint256 _safetyBuffer = calculateSafetyBuffer(\n      //   _debtShare,\n      //   collateralPoolConfig.getDebtAccumulatedRate(_collateralPoolId),\n      //   _lockedCollateral,\n      //   collateralPoolConfig.getPriceWithSafetyMargin(_collateralPoolId)\n        // _colPrice\n      // );\n      // _liquidationPrices[_resultIndex] = _liquidationPrice;\n      // _safetyBuffers[_resultIndex] = _safetyBuffer;\n      _debtShares[_resultIndex] = _debtShare;\n      _resultIndex++;\n    }\n  }\n\n\n\n  function calculateSafetyBuffer(\n    uint256 _debtShare, // [wad]\n    uint256 _debtAccumulatedRate, // [ray]\n    uint256 _lockedCollateral, // [wad]\n    uint256 _priceWithSafetyMargin // [ray]\n    // uint256 _colPrice // [wad]\n  )\n    internal\n    pure\n    returns (\n      uint256 _safetyBuffer // [rad]\n      // uint256 _liquidationPrice // [ray]\n    )\n  {\n    uint256 _collateralValue = _lockedCollateral.mul(_priceWithSafetyMargin);\n    uint256 _debtValue = _debtShare.mul(_debtAccumulatedRate);\n    _safetyBuffer = _collateralValue >= _debtValue ? _collateralValue.sub(_debtValue) : 0;\n    // _liquidationPrice = _colPrice - (_safetyBuffer / _lockedCollateral);\n    // if(_safetyBuffer == 0) {\n    //   _liquidationPrice = 0;\n    // }\n    // if(_colPrice * RAY < (_safetyBuffer / _lockedCollateral)) {\n    //   _liquidationPrice = 0;\n    // } else {\n    //   _liquidationPrice = _colPrice - (_safetyBuffer / _lockedCollateral);\n    // }\n  }\n}\n",
  "sourcePath": "/Users/sangjun.lee/Sangjun/fathom-stablecoin-smart-contracts/contracts/8.17/stats/GetPositionsV2.sol",
  "compiler": {
    "name": "solc",
    "version": "0.8.17+commit.8df45f5f.Emscripten.clang"
  },
  "schemaVersion": "3.4.10",
  "updatedAt": "2022-10-06T11:28:50.353Z",
  "devdoc": {
    "kind": "dev",
    "methods": {},
    "version": 1
  },
  "userdoc": {
    "kind": "user",
    "methods": {},
    "version": 1
  }
}