{
  "contractName": "GetPositions",
  "abi": [
    {
      "anonymous": false,
      "inputs": [
        {
          "indexed": false,
          "internalType": "uint8",
          "name": "version",
          "type": "uint8"
        }
      ],
      "name": "Initialized",
      "type": "event"
    },
    {
      "inputs": [],
      "name": "initialize",
      "outputs": [],
      "stateMutability": "nonpayable",
      "type": "function"
    },
    {
      "inputs": [
        {
          "internalType": "address",
          "name": "_manager",
          "type": "address"
        },
        {
          "internalType": "address",
          "name": "_user",
          "type": "address"
        }
      ],
      "name": "getAllPositionsAsc",
      "outputs": [
        {
          "internalType": "uint256[]",
          "name": "_ids",
          "type": "uint256[]"
        },
        {
          "internalType": "address[]",
          "name": "_positions",
          "type": "address[]"
        },
        {
          "internalType": "bytes32[]",
          "name": "_collateralPools",
          "type": "bytes32[]"
        }
      ],
      "stateMutability": "view",
      "type": "function"
    },
    {
      "inputs": [
        {
          "internalType": "address",
          "name": "_manager",
          "type": "address"
        },
        {
          "internalType": "uint256",
          "name": "_fromId",
          "type": "uint256"
        },
        {
          "internalType": "uint256",
          "name": "_size",
          "type": "uint256"
        }
      ],
      "name": "getPositionsAsc",
      "outputs": [
        {
          "internalType": "uint256[]",
          "name": "_ids",
          "type": "uint256[]"
        },
        {
          "internalType": "address[]",
          "name": "_positions",
          "type": "address[]"
        },
        {
          "internalType": "bytes32[]",
          "name": "_collateralPools",
          "type": "bytes32[]"
        }
      ],
      "stateMutability": "view",
      "type": "function"
    },
    {
      "inputs": [
        {
          "internalType": "address",
          "name": "_manager",
          "type": "address"
        },
        {
          "internalType": "address",
          "name": "_user",
          "type": "address"
        }
      ],
      "name": "getAllPositionsDesc",
      "outputs": [
        {
          "internalType": "uint256[]",
          "name": "",
          "type": "uint256[]"
        },
        {
          "internalType": "address[]",
          "name": "",
          "type": "address[]"
        },
        {
          "internalType": "bytes32[]",
          "name": "",
          "type": "bytes32[]"
        }
      ],
      "stateMutability": "view",
      "type": "function"
    },
    {
      "inputs": [
        {
          "internalType": "address",
          "name": "_manager",
          "type": "address"
        },
        {
          "internalType": "uint256",
          "name": "_fromId",
          "type": "uint256"
        },
        {
          "internalType": "uint256",
          "name": "_size",
          "type": "uint256"
        }
      ],
      "name": "getPositionsDesc",
      "outputs": [
        {
          "internalType": "uint256[]",
          "name": "",
          "type": "uint256[]"
        },
        {
          "internalType": "address[]",
          "name": "",
          "type": "address[]"
        },
        {
          "internalType": "bytes32[]",
          "name": "",
          "type": "bytes32[]"
        }
      ],
      "stateMutability": "view",
      "type": "function"
    },
    {
      "inputs": [
        {
          "internalType": "address",
          "name": "_manager",
          "type": "address"
        },
        {
          "internalType": "uint256",
          "name": "_startIndex",
          "type": "uint256"
        },
        {
          "internalType": "uint256",
          "name": "_offset",
          "type": "uint256"
        }
      ],
      "name": "getPositionWithSafetyBuffer",
      "outputs": [
        {
          "internalType": "address[]",
          "name": "_positions",
          "type": "address[]"
        },
        {
          "internalType": "uint256[]",
          "name": "_debtShares",
          "type": "uint256[]"
        },
        {
          "internalType": "uint256[]",
          "name": "_safetyBuffers",
          "type": "uint256[]"
        }
      ],
      "stateMutability": "view",
      "type": "function"
    }
  ],
  "bytecode": "0x608060405234801561001057600080fd5b506112a5806100206000396000f3fe608060405234801561001057600080fd5b50600436106100625760003560e01c806313286b2b1461006757806377d05607146100925780638129fc1c146100a5578063833175d2146100af578063e64cfdae146100d1578063ed5d876a146100e4575b600080fd5b61007a610075366004610fe8565b6100f7565b60405161008993929190611091565b60405180910390f35b61007a6100a0366004610fe8565b610116565b6100ad610126565b005b6100c26100bd366004610fe8565b610233565b604051610089939291906110fa565b61007a6100df36600461113d565b61083a565b61007a6100f236600461113d565b61093a565b6060806060610107868686610a2b565b92509250925093509350939050565b6060806060610107868686610ccd565b600054610100900460ff16158080156101465750600054600160ff909116105b806101605750303b158015610160575060005460ff166001145b6101c75760405162461bcd60e51b815260206004820152602e60248201527f496e697469616c697a61626c653a20636f6e747261637420697320616c72656160448201526d191e481a5b9a5d1a585b1a5e995960921b606482015260840160405180910390fd5b6000805460ff1916600117905580156101ea576000805461ff0019166101001790555b8015610230576000805461ff0019169055604051600181527f7f26b83ff96e1f2b6a682f133852f6798a09c465da95921460cefb38474024989060200160405180910390a15b50565b6060806060856001600160a01b031663583545026040518163ffffffff1660e01b8152600401602060405180830381865afa158015610276573d6000803e3d6000fd5b505050506040513d601f19601f8201168201806040525081019061029a9190611176565b6102a48686610f65565b111561032457610321600161031b87896001600160a01b031663583545026040518163ffffffff1660e01b8152600401602060405180830381865afa1580156102f1573d6000803e3d6000fd5b505050506040513d601f19601f820116820180604052508101906103159190611176565b90610f7a565b90610f65565b93505b6000866001600160a01b031663e3b3932a6040518163ffffffff1660e01b8152600401602060405180830381865afa158015610364573d6000803e3d6000fd5b505050506040513d601f19601f82011682018060405250810190610388919061118f565b90508467ffffffffffffffff8111156103a3576103a36111b3565b6040519080825280602002602001820160405280156103cc578160200160208202803683370190505b5093508467ffffffffffffffff8111156103e8576103e86111b3565b604051908082528060200260200182016040528015610411578160200160208202803683370190505b5092508467ffffffffffffffff81111561042d5761042d6111b3565b604051908082528060200260200182016040528015610456578160200160208202803683370190505b5091506000865b6104678888610f65565b81101561082e5760405163133f757160e31b8152600481018290526000906001600160a01b038b16906399fbab8890602401602060405180830381865afa1580156104b6573d6000803e3d6000fd5b505050506040513d601f19601f820116820180604052508101906104da919061118f565b6001600160a01b03161461082e5760405163133f757160e31b8152600481018290526001600160a01b038a16906399fbab8890602401602060405180830381865afa15801561052d573d6000803e3d6000fd5b505050506040513d601f19601f82011682018060405250810190610551919061118f565b868381518110610563576105636111c9565b6001600160a01b0392831660209182029290920101526040516336df277960e11b8152600481018390526000918b1690636dbe4ef290602401602060405180830381865afa1580156105b9573d6000803e3d6000fd5b505050506040513d601f19601f820116820180604052508101906105dd9190611176565b9050600080856001600160a01b03166329d88594848b8881518110610604576106046111c9565b60200260200101516040518363ffffffff1660e01b815260040161063b9291909182526001600160a01b0316602082015260400190565b6040805180830381865afa158015610657573d6000803e3d6000fd5b505050506040513d601f19601f8201168201806040525081019061067b91906111df565b915091506000866001600160a01b031663d86824616040518163ffffffff1660e01b8152600401602060405180830381865afa1580156106bf573d6000803e3d6000fd5b505050506040513d601f19601f820116820180604052508101906106e3919061118f565b905060006107ca83836001600160a01b031663a09b0fe0886040518263ffffffff1660e01b815260040161071991815260200190565b602060405180830381865afa158015610736573d6000803e3d6000fd5b505050506040513d601f19601f8201168201806040525081019061075a9190611176565b604051638c492d0760e01b81526004810189905287906001600160a01b03871690638c492d0790602401602060405180830381865afa1580156107a1573d6000803e3d6000fd5b505050506040513d601f19601f820116820180604052508101906107c59190611176565b610f86565b9050808988815181106107df576107df6111c9565b602002602001018181525050828a88815181106107fe576107fe6111c9565b60209081029190910101528661081381611219565b9750505050505050808061082690611219565b91505061045d565b50505093509350939050565b604051634afa727160e01b81526001600160a01b03828116600483015260609182918291600091871690634afa727190602401602060405180830381865afa15801561088a573d6000803e3d6000fd5b505050506040513d601f19601f820116820180604052508101906108ae9190611176565b604051632ef09ae160e21b81526001600160a01b03878116600483015291925060009188169063bbc26b8490602401602060405180830381865afa1580156108fa573d6000803e3d6000fd5b505050506040513d601f19601f8201168201806040525081019061091e9190611176565b905061092b878284610a2b565b94509450945050509250925092565b604051634afa727160e01b81526001600160a01b03828116600483015260609182918291600091871690634afa727190602401602060405180830381865afa15801561098a573d6000803e3d6000fd5b505050506040513d601f19601f820116820180604052508101906109ae9190611176565b60405163e93cb1b960e01b81526001600160a01b03878116600483015291925060009188169063e93cb1b990602401602060405180830381865afa1580156109fa573d6000803e3d6000fd5b505050506040513d601f19601f82011682018060405250810190610a1e9190611176565b905061092b878284610ccd565b60608060608367ffffffffffffffff811115610a4957610a496111b3565b604051908082528060200260200182016040528015610a72578160200160208202803683370190505b5092508367ffffffffffffffff811115610a8e57610a8e6111b3565b604051908082528060200260200182016040528015610ab7578160200160208202803683370190505b5091508367ffffffffffffffff811115610ad357610ad36111b3565b604051908082528060200260200182016040528015610afc578160200160208202803683370190505b5090506000855b600081118015610b1257508582105b15610cc25780858381518110610b2a57610b2a6111c9565b602090810291909101015260405163133f757160e31b8152600481018290526001600160a01b038916906399fbab8890602401602060405180830381865afa158015610b7a573d6000803e3d6000fd5b505050506040513d601f19601f82011682018060405250810190610b9e919061118f565b848381518110610bb057610bb06111c9565b6001600160a01b0392831660209182029290920101526040516336df277960e11b81526004810183905290891690636dbe4ef290602401602060405180830381865afa158015610c04573d6000803e3d6000fd5b505050506040513d601f19601f82011682018060405250810190610c289190611176565b838381518110610c3a57610c3a6111c9565b6020908102919091010152604051634064a0cf60e11b8152600481018290526001600160a01b038916906380c9419e906024016040805180830381865afa158015610c89573d6000803e3d6000fd5b505050506040513d601f19601f82011682018060405250810190610cad91906111df565b50905081610cba81611219565b925050610b03565b505093509350939050565b60608060608367ffffffffffffffff811115610ceb57610ceb6111b3565b604051908082528060200260200182016040528015610d14578160200160208202803683370190505b5092508367ffffffffffffffff811115610d3057610d306111b3565b604051908082528060200260200182016040528015610d59578160200160208202803683370190505b5091508367ffffffffffffffff811115610d7557610d756111b3565b604051908082528060200260200182016040528015610d9e578160200160208202803683370190505b5090506000855b600081118015610db457508582105b15610cc25780858381518110610dcc57610dcc6111c9565b602090810291909101015260405163133f757160e31b8152600481018290526001600160a01b038916906399fbab8890602401602060405180830381865afa158015610e1c573d6000803e3d6000fd5b505050506040513d601f19601f82011682018060405250810190610e40919061118f565b848381518110610e5257610e526111c9565b6001600160a01b0392831660209182029290920101526040516336df277960e11b81526004810183905290891690636dbe4ef290602401602060405180830381865afa158015610ea6573d6000803e3d6000fd5b505050506040513d601f19601f82011682018060405250810190610eca9190611176565b838381518110610edc57610edc6111c9565b6020908102919091010152604051634064a0cf60e11b8152600481018290526001600160a01b038916906380c9419e906024016040805180830381865afa158015610f2b573d6000803e3d6000fd5b505050506040513d601f19601f82011682018060405250810190610f4f91906111df565b9150829050610f5d81611219565b925050610da5565b6000610f718284611232565b90505b92915050565b6000610f718284611245565b600080610f938484610fc7565b90506000610fa18787610fc7565b905080821015610fb2576000610fbc565b610fbc8282610f7a565b979650505050505050565b6000610f718284611258565b6001600160a01b038116811461023057600080fd5b600080600060608486031215610ffd57600080fd5b833561100881610fd3565b95602085013595506040909401359392505050565b600081518084526020808501945080840160005b8381101561104d57815187529582019590820190600101611031565b509495945050505050565b600081518084526020808501945080840160005b8381101561104d5781516001600160a01b03168752958201959082019060010161106c565b6060815260006110a4606083018661101d565b6020838203818501526110b78287611058565b8481036040860152855180825282870193509082019060005b818110156110ec578451835293830193918301916001016110d0565b509098975050505050505050565b60608152600061110d6060830186611058565b828103602084015261111f818661101d565b90508281036040840152611133818561101d565b9695505050505050565b6000806040838503121561115057600080fd5b823561115b81610fd3565b9150602083013561116b81610fd3565b809150509250929050565b60006020828403121561118857600080fd5b5051919050565b6000602082840312156111a157600080fd5b81516111ac81610fd3565b9392505050565b634e487b7160e01b600052604160045260246000fd5b634e487b7160e01b600052603260045260246000fd5b600080604083850312156111f257600080fd5b505080516020909101519092909150565b634e487b7160e01b600052601160045260246000fd5b60006001820161122b5761122b611203565b5060010190565b80820180821115610f7457610f74611203565b81810381811115610f7457610f74611203565b8082028115828204841417610f7457610f7461120356fea2646970667358221220ae14fc0a16b3e436420bb19c6e14867d15275b9d5c1be73de772d5f1c6d8518264736f6c63430008110033",
  "immutableReferences": {},
  "source": "// SPDX-License-Identifier: AGPL-3.0-or-later\npragma solidity 0.8.17;\npragma experimental ABIEncoderV2;\n\nimport \"@openzeppelin/contracts-upgradeable/utils/math/SafeMathUpgradeable.sol\";\nimport \"@openzeppelin/contracts-upgradeable/proxy/utils/Initializable.sol\";\n\nimport \"./PositionManager.sol\";\nimport \"../interfaces/IBookKeeper.sol\";\nimport \"../interfaces/ICollateralPoolConfig.sol\";\n\ncontract GetPositions is Initializable {\n  using SafeMathUpgradeable for uint256;\n\n  // --- Math ---\n  uint256 constant WAD = 10**18;\n  uint256 constant RAY = 10**27;\n  uint256 constant RAD = 10**45;\n\n  // --- Init ---\n  function initialize() external initializer {}\n\n  function getAllPositionsAsc(address _manager, address _user)\n    external\n    view\n    returns (\n      uint256[] memory _ids,\n      address[] memory _positions,\n      bytes32[] memory _collateralPools\n    )\n  {\n    uint256 _count = PositionManager(_manager).ownerPositionCount(_user);\n    uint256 _id = PositionManager(_manager).ownerFirstPositionId(_user);\n    return _getPositionsAsc(_manager, _id, _count);\n  }\n\n  function getPositionsAsc(\n    address _manager,\n    uint256 _fromId,\n    uint256 _size\n  )\n    external\n    view\n    returns (\n      uint256[] memory _ids,\n      address[] memory _positions,\n      bytes32[] memory _collateralPools\n    )\n  {\n    return _getPositionsAsc(_manager, _fromId, _size);\n  }\n\n  function _getPositionsAsc(\n    address _manager,\n    uint256 _fromId,\n    uint256 _size\n  )\n    internal\n    view\n    returns (\n      uint256[] memory _ids,\n      address[] memory _positions,\n      bytes32[] memory _collateralPools\n    )\n  {\n    _ids = new uint256[](_size);\n    _positions = new address[](_size);\n    _collateralPools = new bytes32[](_size);\n    uint256 _i = 0;\n    uint256 _id = _fromId;\n\n    while (_id > 0 && _i < _size) {\n      _ids[_i] = _id;\n      _positions[_i] = PositionManager(_manager).positions(_id);\n      _collateralPools[_i] = PositionManager(_manager).collateralPools(_id);\n      (, _id) = PositionManager(_manager).list(_id);\n      _i++;\n    }\n  }\n\n  function getAllPositionsDesc(address _manager, address _user)\n    external\n    view\n    returns (\n      uint256[] memory,\n      address[] memory,\n      bytes32[] memory\n    )\n  {\n    uint256 _count = PositionManager(_manager).ownerPositionCount(_user);\n    uint256 _id = PositionManager(_manager).ownerLastPositionId(_user);\n    return _getPositionsDesc(_manager, _id, _count);\n  }\n\n  function getPositionsDesc(\n    address _manager,\n    uint256 _fromId,\n    uint256 _size\n  )\n    external\n    view\n    returns (\n      uint256[] memory,\n      address[] memory,\n      bytes32[] memory\n    )\n  {\n    return _getPositionsDesc(_manager, _fromId, _size);\n  }\n\n  function _getPositionsDesc(\n    address _manager,\n    uint256 _fromId,\n    uint256 _size\n  )\n    internal\n    view\n    returns (\n      uint256[] memory _ids,\n      address[] memory _positions,\n      bytes32[] memory _collateralPools\n    )\n  {\n    _ids = new uint256[](_size);\n    _positions = new address[](_size);\n    _collateralPools = new bytes32[](_size);\n    uint256 _i = 0;\n    uint256 _id = _fromId;\n\n    while (_id > 0 && _i < _size) {\n      _ids[_i] = _id;\n      _positions[_i] = PositionManager(_manager).positions(_id);\n      _collateralPools[_i] = PositionManager(_manager).collateralPools(_id);\n      (_id, ) = PositionManager(_manager).list(_id);\n      _i++;\n    }\n  }\n\n  function getPositionWithSafetyBuffer(\n    address _manager,\n    uint256 _startIndex,\n    uint256 _offset\n  )\n    external\n    view\n    returns (\n      address[] memory _positions,\n      uint256[] memory _debtShares,\n      uint256[] memory _safetyBuffers\n    )\n  {\n    if (_startIndex.add(_offset) > PositionManager(_manager).lastPositionId())\n      _offset = PositionManager(_manager).lastPositionId().sub(_startIndex).add(1);\n\n    IBookKeeper _bookKeeper = IBookKeeper(PositionManager(_manager).bookKeeper());\n    _positions = new address[](_offset);\n    _debtShares = new uint256[](_offset);\n    _safetyBuffers = new uint256[](_offset);\n    uint256 _resultIndex = 0;\n    for (uint256 _positionIndex = _startIndex; _positionIndex < _startIndex.add(_offset); _positionIndex++) {\n      if (PositionManager(_manager).positions(_positionIndex) == address(0)) break;\n      _positions[_resultIndex] = PositionManager(_manager).positions(_positionIndex);\n\n      bytes32 _collateralPoolId = PositionManager(_manager).collateralPools(_positionIndex);\n      (uint256 _lockedCollateral, uint256 _debtShare) = _bookKeeper.positions(\n        _collateralPoolId,\n        _positions[_resultIndex]\n      );\n\n      ICollateralPoolConfig collateralPoolConfig = ICollateralPoolConfig(_bookKeeper.collateralPoolConfig());\n\n      uint256 _safetyBuffer = calculateSafetyBuffer(\n        _debtShare,\n        collateralPoolConfig.getDebtAccumulatedRate(_collateralPoolId),\n        _lockedCollateral,\n        collateralPoolConfig.getPriceWithSafetyMargin(_collateralPoolId)\n      );\n\n      _safetyBuffers[_resultIndex] = _safetyBuffer;\n      _debtShares[_resultIndex] = _debtShare;\n      _resultIndex++;\n    }\n  }\n\n  function calculateSafetyBuffer(\n    uint256 _debtShare, // [wad]\n    uint256 _debtAccumulatedRate, // [ray]\n    uint256 _lockedCollateral, // [wad]\n    uint256 _priceWithSafetyMargin // [ray]\n  )\n    internal\n    pure\n    returns (\n      uint256 _safetyBuffer // [rad]\n    )\n  {\n    uint256 _collateralValue = _lockedCollateral.mul(_priceWithSafetyMargin);\n    uint256 _debtValue = _debtShare.mul(_debtAccumulatedRate);\n    _safetyBuffer = _collateralValue >= _debtValue ? _collateralValue.sub(_debtValue) : 0;\n  }\n\n  //   function calculateMaxStablecoinAmount(\n  //   uint256 _lockedCollateral, // [wad]\n  //   uint256 _priceWithSafetyMargin // [ray]\n  // )\n  //   internal\n  //   view\n  //   returns (\n  //     uint256 _MaxStablecoinAmount // [rad]\n  //   )\n  // {\n  //   uint256 _MaxStablecoinAmount = _lockedCollateral.mul(_priceWithSafetyMargin);\n  // }\n}\n",
  "sourcePath": "/Users/sangjun.lee/Sangjun/fathom-stablecoin-smart-contracts/contracts/8.17/managers/GetPositions.sol",
  "compiler": {
    "name": "solc",
    "version": "0.8.17+commit.8df45f5f.Emscripten.clang"
  },
  "schemaVersion": "3.4.10",
  "updatedAt": "2022-11-24T09:45:49.118Z",
  "devdoc": {
    "kind": "dev",
    "methods": {},
    "version": 1
  },
  "userdoc": {
    "kind": "user",
    "methods": {},
    "version": 1
  }
}