{
  "contractName": "GetPositionsBot",
  "abi": [
    {
      "anonymous": false,
      "inputs": [
        {
          "indexed": false,
          "internalType": "uint8",
          "name": "version",
          "type": "uint8"
        }
      ],
      "name": "Initialized",
      "type": "event"
    },
    {
      "inputs": [],
      "name": "initialize",
      "outputs": [],
      "stateMutability": "nonpayable",
      "type": "function"
    },
    {
      "inputs": [
        {
          "internalType": "address",
          "name": "_manager",
          "type": "address"
        },
        {
          "internalType": "address",
          "name": "_user",
          "type": "address"
        }
      ],
      "name": "getAllPositionsAsc",
      "outputs": [
        {
          "internalType": "uint256[]",
          "name": "_ids",
          "type": "uint256[]"
        },
        {
          "internalType": "address[]",
          "name": "_positions",
          "type": "address[]"
        },
        {
          "internalType": "bytes32[]",
          "name": "_collateralPools",
          "type": "bytes32[]"
        }
      ],
      "stateMutability": "view",
      "type": "function"
    },
    {
      "inputs": [
        {
          "internalType": "address",
          "name": "_manager",
          "type": "address"
        },
        {
          "internalType": "uint256",
          "name": "_fromId",
          "type": "uint256"
        },
        {
          "internalType": "uint256",
          "name": "_size",
          "type": "uint256"
        }
      ],
      "name": "getPositionsAsc",
      "outputs": [
        {
          "internalType": "uint256[]",
          "name": "_ids",
          "type": "uint256[]"
        },
        {
          "internalType": "address[]",
          "name": "_positions",
          "type": "address[]"
        },
        {
          "internalType": "bytes32[]",
          "name": "_collateralPools",
          "type": "bytes32[]"
        }
      ],
      "stateMutability": "view",
      "type": "function"
    },
    {
      "inputs": [
        {
          "internalType": "address",
          "name": "_manager",
          "type": "address"
        },
        {
          "internalType": "address",
          "name": "_user",
          "type": "address"
        }
      ],
      "name": "getAllPositionsDesc",
      "outputs": [
        {
          "internalType": "uint256[]",
          "name": "",
          "type": "uint256[]"
        },
        {
          "internalType": "address[]",
          "name": "",
          "type": "address[]"
        },
        {
          "internalType": "bytes32[]",
          "name": "",
          "type": "bytes32[]"
        }
      ],
      "stateMutability": "view",
      "type": "function"
    },
    {
      "inputs": [
        {
          "internalType": "address",
          "name": "_manager",
          "type": "address"
        },
        {
          "internalType": "uint256",
          "name": "_fromId",
          "type": "uint256"
        },
        {
          "internalType": "uint256",
          "name": "_size",
          "type": "uint256"
        }
      ],
      "name": "getPositionsDesc",
      "outputs": [
        {
          "internalType": "uint256[]",
          "name": "",
          "type": "uint256[]"
        },
        {
          "internalType": "address[]",
          "name": "",
          "type": "address[]"
        },
        {
          "internalType": "bytes32[]",
          "name": "",
          "type": "bytes32[]"
        }
      ],
      "stateMutability": "view",
      "type": "function"
    },
    {
      "inputs": [
        {
          "internalType": "address",
          "name": "_manager",
          "type": "address"
        },
        {
          "internalType": "uint256",
          "name": "_startIndex",
          "type": "uint256"
        },
        {
          "internalType": "uint256",
          "name": "_offset",
          "type": "uint256"
        }
      ],
      "name": "getPositionWithSafetyBuffer",
      "outputs": [
        {
          "internalType": "address[]",
          "name": "_positions",
          "type": "address[]"
        },
        {
          "internalType": "uint256[]",
          "name": "_debtShares",
          "type": "uint256[]"
        },
        {
          "internalType": "uint256[]",
          "name": "_safetyBuffers",
          "type": "uint256[]"
        },
        {
          "internalType": "bytes32[]",
          "name": "_poolId",
          "type": "bytes32[]"
        }
      ],
      "stateMutability": "view",
      "type": "function"
    }
  ],
  "bytecode": "0x608060405234801561001057600080fd5b506112ef806100206000396000f3fe608060405234801561001057600080fd5b50600436106100625760003560e01c806313286b2b1461006757806377d05607146100925780638129fc1c146100a5578063833175d2146100af578063e64cfdae146100d2578063ed5d876a146100e5575b600080fd5b61007a61007536600461104e565b6100f8565b604051610089939291906110f7565b60405180910390f35b61007a6100a036600461104e565b610117565b6100ad610127565b005b6100c26100bd36600461104e565b610234565b604051610089949392919061113a565b61007a6100e0366004611187565b6108a0565b61007a6100f3366004611187565b6109a0565b6060806060610108868686610a91565b92509250925093509350939050565b6060806060610108868686610d33565b600054610100900460ff16158080156101475750600054600160ff909116105b806101615750303b158015610161575060005460ff166001145b6101c85760405162461bcd60e51b815260206004820152602e60248201527f496e697469616c697a61626c653a20636f6e747261637420697320616c72656160448201526d191e481a5b9a5d1a585b1a5e995960921b606482015260840160405180910390fd5b6000805460ff1916600117905580156101eb576000805461ff0019166101001790555b8015610231576000805461ff0019169055604051600181527f7f26b83ff96e1f2b6a682f133852f6798a09c465da95921460cefb38474024989060200160405180910390a15b50565b606080606080866001600160a01b031663583545026040518163ffffffff1660e01b8152600401602060405180830381865afa158015610278573d6000803e3d6000fd5b505050506040513d601f19601f8201168201806040525081019061029c91906111c0565b6102a68787610fcb565b111561032657610323600161031d888a6001600160a01b031663583545026040518163ffffffff1660e01b8152600401602060405180830381865afa1580156102f3573d6000803e3d6000fd5b505050506040513d601f19601f8201168201806040525081019061031791906111c0565b90610fe0565b90610fcb565b94505b6000876001600160a01b031663e3b3932a6040518163ffffffff1660e01b8152600401602060405180830381865afa158015610366573d6000803e3d6000fd5b505050506040513d601f19601f8201168201806040525081019061038a91906111d9565b90508567ffffffffffffffff8111156103a5576103a56111fd565b6040519080825280602002602001820160405280156103ce578160200160208202803683370190505b5094508567ffffffffffffffff8111156103ea576103ea6111fd565b604051908082528060200260200182016040528015610413578160200160208202803683370190505b5093508567ffffffffffffffff81111561042f5761042f6111fd565b604051908082528060200260200182016040528015610458578160200160208202803683370190505b5092508567ffffffffffffffff811115610474576104746111fd565b60405190808252806020026020018201604052801561049d578160200160208202803683370190505b5091506000875b6104ae8989610fcb565b8110156108945760405163133f757160e31b8152600481018290526000906001600160a01b038c16906399fbab8890602401602060405180830381865afa1580156104fd573d6000803e3d6000fd5b505050506040513d601f19601f8201168201806040525081019061052191906111d9565b6001600160a01b0316146108945760405163133f757160e31b8152600481018290526001600160a01b038b16906399fbab8890602401602060405180830381865afa158015610574573d6000803e3d6000fd5b505050506040513d601f19601f8201168201806040525081019061059891906111d9565b8783815181106105aa576105aa611213565b6001600160a01b0392831660209182029290920101526040516336df277960e11b8152600481018390526000918c1690636dbe4ef290602401602060405180830381865afa158015610600573d6000803e3d6000fd5b505050506040513d601f19601f8201168201806040525081019061062491906111c0565b90508085848151811061063957610639611213565b602002602001018181525050600080856001600160a01b03166329d88594848c888151811061066a5761066a611213565b60200260200101516040518363ffffffff1660e01b81526004016106a19291909182526001600160a01b0316602082015260400190565b6040805180830381865afa1580156106bd573d6000803e3d6000fd5b505050506040513d601f19601f820116820180604052508101906106e19190611229565b915091506000866001600160a01b031663d86824616040518163ffffffff1660e01b8152600401602060405180830381865afa158015610725573d6000803e3d6000fd5b505050506040513d601f19601f8201168201806040525081019061074991906111d9565b9050600061083083836001600160a01b031663a09b0fe0886040518263ffffffff1660e01b815260040161077f91815260200190565b602060405180830381865afa15801561079c573d6000803e3d6000fd5b505050506040513d601f19601f820116820180604052508101906107c091906111c0565b604051638c492d0760e01b81526004810189905287906001600160a01b03871690638c492d0790602401602060405180830381865afa158015610807573d6000803e3d6000fd5b505050506040513d601f19601f8201168201806040525081019061082b91906111c0565b610fec565b9050808a888151811061084557610845611213565b602002602001018181525050828b888151811061086457610864611213565b60209081029190910101528661087981611263565b9750505050505050808061088c90611263565b9150506104a4565b50505093509350935093565b604051634afa727160e01b81526001600160a01b03828116600483015260609182918291600091871690634afa727190602401602060405180830381865afa1580156108f0573d6000803e3d6000fd5b505050506040513d601f19601f8201168201806040525081019061091491906111c0565b604051632ef09ae160e21b81526001600160a01b03878116600483015291925060009188169063bbc26b8490602401602060405180830381865afa158015610960573d6000803e3d6000fd5b505050506040513d601f19601f8201168201806040525081019061098491906111c0565b9050610991878284610a91565b94509450945050509250925092565b604051634afa727160e01b81526001600160a01b03828116600483015260609182918291600091871690634afa727190602401602060405180830381865afa1580156109f0573d6000803e3d6000fd5b505050506040513d601f19601f82011682018060405250810190610a1491906111c0565b60405163e93cb1b960e01b81526001600160a01b03878116600483015291925060009188169063e93cb1b990602401602060405180830381865afa158015610a60573d6000803e3d6000fd5b505050506040513d601f19601f82011682018060405250810190610a8491906111c0565b9050610991878284610d33565b60608060608367ffffffffffffffff811115610aaf57610aaf6111fd565b604051908082528060200260200182016040528015610ad8578160200160208202803683370190505b5092508367ffffffffffffffff811115610af457610af46111fd565b604051908082528060200260200182016040528015610b1d578160200160208202803683370190505b5091508367ffffffffffffffff811115610b3957610b396111fd565b604051908082528060200260200182016040528015610b62578160200160208202803683370190505b5090506000855b600081118015610b7857508582105b15610d285780858381518110610b9057610b90611213565b602090810291909101015260405163133f757160e31b8152600481018290526001600160a01b038916906399fbab8890602401602060405180830381865afa158015610be0573d6000803e3d6000fd5b505050506040513d601f19601f82011682018060405250810190610c0491906111d9565b848381518110610c1657610c16611213565b6001600160a01b0392831660209182029290920101526040516336df277960e11b81526004810183905290891690636dbe4ef290602401602060405180830381865afa158015610c6a573d6000803e3d6000fd5b505050506040513d601f19601f82011682018060405250810190610c8e91906111c0565b838381518110610ca057610ca0611213565b6020908102919091010152604051634064a0cf60e11b8152600481018290526001600160a01b038916906380c9419e906024016040805180830381865afa158015610cef573d6000803e3d6000fd5b505050506040513d601f19601f82011682018060405250810190610d139190611229565b50905081610d2081611263565b925050610b69565b505093509350939050565b60608060608367ffffffffffffffff811115610d5157610d516111fd565b604051908082528060200260200182016040528015610d7a578160200160208202803683370190505b5092508367ffffffffffffffff811115610d9657610d966111fd565b604051908082528060200260200182016040528015610dbf578160200160208202803683370190505b5091508367ffffffffffffffff811115610ddb57610ddb6111fd565b604051908082528060200260200182016040528015610e04578160200160208202803683370190505b5090506000855b600081118015610e1a57508582105b15610d285780858381518110610e3257610e32611213565b602090810291909101015260405163133f757160e31b8152600481018290526001600160a01b038916906399fbab8890602401602060405180830381865afa158015610e82573d6000803e3d6000fd5b505050506040513d601f19601f82011682018060405250810190610ea691906111d9565b848381518110610eb857610eb8611213565b6001600160a01b0392831660209182029290920101526040516336df277960e11b81526004810183905290891690636dbe4ef290602401602060405180830381865afa158015610f0c573d6000803e3d6000fd5b505050506040513d601f19601f82011682018060405250810190610f3091906111c0565b838381518110610f4257610f42611213565b6020908102919091010152604051634064a0cf60e11b8152600481018290526001600160a01b038916906380c9419e906024016040805180830381865afa158015610f91573d6000803e3d6000fd5b505050506040513d601f19601f82011682018060405250810190610fb59190611229565b9150829050610fc381611263565b925050610e0b565b6000610fd7828461127c565b90505b92915050565b6000610fd7828461128f565b600080610ff9848461102d565b90506000611007878761102d565b905080821015611018576000611022565b6110228282610fe0565b979650505050505050565b6000610fd782846112a2565b6001600160a01b038116811461023157600080fd5b60008060006060848603121561106357600080fd5b833561106e81611039565b95602085013595506040909401359392505050565b600081518084526020808501945080840160005b838110156110b357815187529582019590820190600101611097565b509495945050505050565b600081518084526020808501945080840160005b838110156110b35781516001600160a01b0316875295820195908201906001016110d2565b60608152600061110a6060830186611083565b828103602084015261111c81866110be565b905082810360408401526111308185611083565b9695505050505050565b60808152600061114d60808301876110be565b828103602084015261115f8187611083565b905082810360408401526111738186611083565b905082810360608401526110228185611083565b6000806040838503121561119a57600080fd5b82356111a581611039565b915060208301356111b581611039565b809150509250929050565b6000602082840312156111d257600080fd5b5051919050565b6000602082840312156111eb57600080fd5b81516111f681611039565b9392505050565b634e487b7160e01b600052604160045260246000fd5b634e487b7160e01b600052603260045260246000fd5b6000806040838503121561123c57600080fd5b505080516020909101519092909150565b634e487b7160e01b600052601160045260246000fd5b6000600182016112755761127561124d565b5060010190565b80820180821115610fda57610fda61124d565b81810381811115610fda57610fda61124d565b8082028115828204841417610fda57610fda61124d56fea2646970667358221220b6ae624abbe5284966e086fc6a0ef2d12cb41d9c2459be4ecf386edd8849f65f64736f6c63430008110033",
  "immutableReferences": {},
  "source": "// SPDX-License-Identifier: AGPL-3.0-or-later\npragma solidity 0.8.17;\npragma experimental ABIEncoderV2;\n\nimport \"@openzeppelin/contracts-upgradeable/utils/math/SafeMathUpgradeable.sol\";\nimport \"@openzeppelin/contracts-upgradeable/proxy/utils/Initializable.sol\";\n\nimport \"./PositionManager.sol\";\nimport \"../interfaces/IBookKeeper.sol\";\nimport \"../interfaces/ICollateralPoolConfig.sol\";\n\ncontract GetPositionsBot is Initializable {\n  using SafeMathUpgradeable for uint256;\n\n  // --- Math ---\n  uint256 constant WAD = 10**18;\n  uint256 constant RAY = 10**27;\n  uint256 constant RAD = 10**45;\n\n  // --- Init ---\n  function initialize() external initializer {}\n\n  function getAllPositionsAsc(address _manager, address _user)\n    external\n    view\n    returns (\n      uint256[] memory _ids,\n      address[] memory _positions,\n      bytes32[] memory _collateralPools\n    )\n  {\n    uint256 _count = PositionManager(_manager).ownerPositionCount(_user);\n    uint256 _id = PositionManager(_manager).ownerFirstPositionId(_user);\n    return _getPositionsAsc(_manager, _id, _count);\n  }\n\n  function getPositionsAsc(\n    address _manager,\n    uint256 _fromId,\n    uint256 _size\n  )\n    external\n    view\n    returns (\n      uint256[] memory _ids,\n      address[] memory _positions,\n      bytes32[] memory _collateralPools\n    )\n  {\n    return _getPositionsAsc(_manager, _fromId, _size);\n  }\n\n  function _getPositionsAsc(\n    address _manager,\n    uint256 _fromId,\n    uint256 _size\n  )\n    internal\n    view\n    returns (\n      uint256[] memory _ids,\n      address[] memory _positions,\n      bytes32[] memory _collateralPools\n    )\n  {\n    _ids = new uint256[](_size);\n    _positions = new address[](_size);\n    _collateralPools = new bytes32[](_size);\n    uint256 _i = 0;\n    uint256 _id = _fromId;\n\n    while (_id > 0 && _i < _size) {\n      _ids[_i] = _id;\n      _positions[_i] = PositionManager(_manager).positions(_id);\n      _collateralPools[_i] = PositionManager(_manager).collateralPools(_id);\n      (, _id) = PositionManager(_manager).list(_id);\n      _i++;\n    }\n  }\n\n  function getAllPositionsDesc(address _manager, address _user)\n    external\n    view\n    returns (\n      uint256[] memory,\n      address[] memory,\n      bytes32[] memory\n    )\n  {\n    uint256 _count = PositionManager(_manager).ownerPositionCount(_user);\n    uint256 _id = PositionManager(_manager).ownerLastPositionId(_user);\n    return _getPositionsDesc(_manager, _id, _count);\n  }\n\n  function getPositionsDesc(\n    address _manager,\n    uint256 _fromId,\n    uint256 _size\n  )\n    external\n    view\n    returns (\n      uint256[] memory,\n      address[] memory,\n      bytes32[] memory\n    )\n  {\n    return _getPositionsDesc(_manager, _fromId, _size);\n  }\n\n  function _getPositionsDesc(\n    address _manager,\n    uint256 _fromId,\n    uint256 _size\n  )\n    internal\n    view\n    returns (\n      uint256[] memory _ids,\n      address[] memory _positions,\n      bytes32[] memory _collateralPools\n    )\n  {\n    _ids = new uint256[](_size);\n    _positions = new address[](_size);\n    _collateralPools = new bytes32[](_size);\n    uint256 _i = 0;\n    uint256 _id = _fromId;\n\n    while (_id > 0 && _i < _size) {\n      _ids[_i] = _id;\n      _positions[_i] = PositionManager(_manager).positions(_id);\n      _collateralPools[_i] = PositionManager(_manager).collateralPools(_id);\n      (_id, ) = PositionManager(_manager).list(_id);\n      _i++;\n    }\n  }\n\n  function getPositionWithSafetyBuffer(\n    address _manager,\n    uint256 _startIndex,\n    uint256 _offset\n  )\n    external\n    view\n    returns (\n      address[] memory _positions,\n      uint256[] memory _debtShares,\n      uint256[] memory _safetyBuffers,\n      bytes32[] memory _poolId\n      //_positions => _positionId => _poolId\n    )\n  {\n    if (_startIndex.add(_offset) > PositionManager(_manager).lastPositionId())\n      _offset = PositionManager(_manager).lastPositionId().sub(_startIndex).add(1);\n\n    IBookKeeper _bookKeeper = IBookKeeper(PositionManager(_manager).bookKeeper());\n    _positions = new address[](_offset);\n    _debtShares = new uint256[](_offset);\n    _safetyBuffers = new uint256[](_offset);\n    _poolId = new bytes32[](_offset);\n    uint256 _resultIndex = 0;\n    for (uint256 _positionIndex = _startIndex; _positionIndex < _startIndex.add(_offset); _positionIndex++) {\n      if (PositionManager(_manager).positions(_positionIndex) == address(0)) break;\n      _positions[_resultIndex] = PositionManager(_manager).positions(_positionIndex);\n      // _poolId[_resultIndex] = PositionManager(_manager).collateralPools(_positionIndex);\n      bytes32 _collateralPoolId = PositionManager(_manager).collateralPools(_positionIndex);\n      _poolId[_resultIndex] = _collateralPoolId;\n      (uint256 _lockedCollateral, uint256 _debtShare) = _bookKeeper.positions(\n        _collateralPoolId,\n        _positions[_resultIndex]\n      );\n\n      ICollateralPoolConfig collateralPoolConfig = ICollateralPoolConfig(_bookKeeper.collateralPoolConfig());\n\n      uint256 _safetyBuffer = calculateSafetyBuffer(\n        _debtShare,\n        collateralPoolConfig.getDebtAccumulatedRate(_collateralPoolId),\n        _lockedCollateral,\n        collateralPoolConfig.getPriceWithSafetyMargin(_collateralPoolId)\n      );\n\n      _safetyBuffers[_resultIndex] = _safetyBuffer;\n      _debtShares[_resultIndex] = _debtShare;\n      _resultIndex++;\n\n    }\n  }\n\n  function calculateSafetyBuffer(\n    uint256 _debtShare, // [wad]\n    uint256 _debtAccumulatedRate, // [ray]\n    uint256 _lockedCollateral, // [wad]\n    uint256 _priceWithSafetyMargin // [ray]\n  )\n    internal\n    pure\n    returns (\n      uint256 _safetyBuffer // [rad]\n    )\n  {\n    uint256 _collateralValue = _lockedCollateral.mul(_priceWithSafetyMargin);\n    uint256 _debtValue = _debtShare.mul(_debtAccumulatedRate);\n    _safetyBuffer = _collateralValue >= _debtValue ? _collateralValue.sub(_debtValue) : 0;\n  }\n\n  //   function calculateMaxStablecoinAmount(\n  //   uint256 _lockedCollateral, // [wad]\n  //   uint256 _priceWithSafetyMargin // [ray]\n  // )\n  //   internal\n  //   view\n  //   returns (\n  //     uint256 _MaxStablecoinAmount // [rad]\n  //   )\n  // {\n  //   uint256 _MaxStablecoinAmount = _lockedCollateral.mul(_priceWithSafetyMargin);\n  // }\n}\n",
  "sourcePath": "/Users/sangjun.lee/Sangjun/fathom-stablecoin-smart-contracts/contracts/8.17/managers/GetPositionsBot.sol",
  "compiler": {
    "name": "solc",
    "version": "0.8.17+commit.8df45f5f.Emscripten.clang"
  },
  "schemaVersion": "3.4.10",
  "updatedAt": "2022-11-24T09:45:49.124Z",
  "devdoc": {
    "kind": "dev",
    "methods": {},
    "version": 1
  },
  "userdoc": {
    "kind": "user",
    "methods": {},
    "version": 1
  }
}