{
  "contractName": "IbTokenPriceFeed",
  "abi": [
    {
      "anonymous": false,
      "inputs": [
        {
          "indexed": false,
          "internalType": "uint8",
          "name": "version",
          "type": "uint8"
        }
      ],
      "name": "Initialized",
      "type": "event"
    },
    {
      "anonymous": false,
      "inputs": [
        {
          "indexed": true,
          "internalType": "address",
          "name": "caller",
          "type": "address"
        },
        {
          "indexed": false,
          "internalType": "uint256",
          "name": "newTimeDelay",
          "type": "uint256"
        }
      ],
      "name": "LogSetTimeDelay",
      "type": "event"
    },
    {
      "anonymous": false,
      "inputs": [
        {
          "indexed": false,
          "internalType": "bytes32",
          "name": "val",
          "type": "bytes32"
        }
      ],
      "name": "LogValue",
      "type": "event"
    },
    {
      "anonymous": false,
      "inputs": [
        {
          "indexed": false,
          "internalType": "address",
          "name": "account",
          "type": "address"
        }
      ],
      "name": "Paused",
      "type": "event"
    },
    {
      "anonymous": false,
      "inputs": [
        {
          "indexed": true,
          "internalType": "bytes32",
          "name": "role",
          "type": "bytes32"
        },
        {
          "indexed": true,
          "internalType": "bytes32",
          "name": "previousAdminRole",
          "type": "bytes32"
        },
        {
          "indexed": true,
          "internalType": "bytes32",
          "name": "newAdminRole",
          "type": "bytes32"
        }
      ],
      "name": "RoleAdminChanged",
      "type": "event"
    },
    {
      "anonymous": false,
      "inputs": [
        {
          "indexed": true,
          "internalType": "bytes32",
          "name": "role",
          "type": "bytes32"
        },
        {
          "indexed": true,
          "internalType": "address",
          "name": "account",
          "type": "address"
        },
        {
          "indexed": true,
          "internalType": "address",
          "name": "sender",
          "type": "address"
        }
      ],
      "name": "RoleGranted",
      "type": "event"
    },
    {
      "anonymous": false,
      "inputs": [
        {
          "indexed": true,
          "internalType": "bytes32",
          "name": "role",
          "type": "bytes32"
        },
        {
          "indexed": true,
          "internalType": "address",
          "name": "account",
          "type": "address"
        },
        {
          "indexed": true,
          "internalType": "address",
          "name": "sender",
          "type": "address"
        }
      ],
      "name": "RoleRevoked",
      "type": "event"
    },
    {
      "anonymous": false,
      "inputs": [
        {
          "indexed": true,
          "internalType": "address",
          "name": "caller",
          "type": "address"
        },
        {
          "indexed": false,
          "internalType": "address",
          "name": "newBaseInUserPriceFeed",
          "type": "address"
        }
      ],
      "name": "SetBaseInUsdPriceFeed",
      "type": "event"
    },
    {
      "anonymous": false,
      "inputs": [
        {
          "indexed": true,
          "internalType": "address",
          "name": "caller",
          "type": "address"
        },
        {
          "indexed": false,
          "internalType": "address",
          "name": "newIbInBasePriceFeed",
          "type": "address"
        }
      ],
      "name": "SetIbInBasePriceFeed",
      "type": "event"
    },
    {
      "anonymous": false,
      "inputs": [
        {
          "indexed": false,
          "internalType": "address",
          "name": "account",
          "type": "address"
        }
      ],
      "name": "Unpaused",
      "type": "event"
    },
    {
      "inputs": [],
      "name": "DEFAULT_ADMIN_ROLE",
      "outputs": [
        {
          "internalType": "bytes32",
          "name": "",
          "type": "bytes32"
        }
      ],
      "stateMutability": "view",
      "type": "function"
    },
    {
      "inputs": [],
      "name": "accessControlConfig",
      "outputs": [
        {
          "internalType": "contract IAccessControlConfig",
          "name": "",
          "type": "address"
        }
      ],
      "stateMutability": "view",
      "type": "function"
    },
    {
      "inputs": [],
      "name": "baseInUsdPriceFeed",
      "outputs": [
        {
          "internalType": "contract IPriceFeed",
          "name": "",
          "type": "address"
        }
      ],
      "stateMutability": "view",
      "type": "function"
    },
    {
      "inputs": [
        {
          "internalType": "bytes32",
          "name": "role",
          "type": "bytes32"
        }
      ],
      "name": "getRoleAdmin",
      "outputs": [
        {
          "internalType": "bytes32",
          "name": "",
          "type": "bytes32"
        }
      ],
      "stateMutability": "view",
      "type": "function"
    },
    {
      "inputs": [
        {
          "internalType": "bytes32",
          "name": "role",
          "type": "bytes32"
        },
        {
          "internalType": "address",
          "name": "account",
          "type": "address"
        }
      ],
      "name": "grantRole",
      "outputs": [],
      "stateMutability": "nonpayable",
      "type": "function"
    },
    {
      "inputs": [
        {
          "internalType": "bytes32",
          "name": "role",
          "type": "bytes32"
        },
        {
          "internalType": "address",
          "name": "account",
          "type": "address"
        }
      ],
      "name": "hasRole",
      "outputs": [
        {
          "internalType": "bool",
          "name": "",
          "type": "bool"
        }
      ],
      "stateMutability": "view",
      "type": "function"
    },
    {
      "inputs": [],
      "name": "ibInBasePriceFeed",
      "outputs": [
        {
          "internalType": "contract IPriceFeed",
          "name": "",
          "type": "address"
        }
      ],
      "stateMutability": "view",
      "type": "function"
    },
    {
      "inputs": [],
      "name": "lastUpdateTimestamp",
      "outputs": [
        {
          "internalType": "uint256",
          "name": "",
          "type": "uint256"
        }
      ],
      "stateMutability": "view",
      "type": "function"
    },
    {
      "inputs": [],
      "name": "paused",
      "outputs": [
        {
          "internalType": "bool",
          "name": "",
          "type": "bool"
        }
      ],
      "stateMutability": "view",
      "type": "function"
    },
    {
      "inputs": [
        {
          "internalType": "bytes32",
          "name": "role",
          "type": "bytes32"
        },
        {
          "internalType": "address",
          "name": "account",
          "type": "address"
        }
      ],
      "name": "renounceRole",
      "outputs": [],
      "stateMutability": "nonpayable",
      "type": "function"
    },
    {
      "inputs": [
        {
          "internalType": "bytes32",
          "name": "role",
          "type": "bytes32"
        },
        {
          "internalType": "address",
          "name": "account",
          "type": "address"
        }
      ],
      "name": "revokeRole",
      "outputs": [],
      "stateMutability": "nonpayable",
      "type": "function"
    },
    {
      "inputs": [
        {
          "internalType": "bytes4",
          "name": "interfaceId",
          "type": "bytes4"
        }
      ],
      "name": "supportsInterface",
      "outputs": [
        {
          "internalType": "bool",
          "name": "",
          "type": "bool"
        }
      ],
      "stateMutability": "view",
      "type": "function"
    },
    {
      "inputs": [],
      "name": "timeDelay",
      "outputs": [
        {
          "internalType": "uint256",
          "name": "",
          "type": "uint256"
        }
      ],
      "stateMutability": "view",
      "type": "function"
    },
    {
      "inputs": [
        {
          "internalType": "address",
          "name": "_ibInBasePriceFeed",
          "type": "address"
        },
        {
          "internalType": "address",
          "name": "_baseInUsdPriceFeed",
          "type": "address"
        },
        {
          "internalType": "address",
          "name": "_accessControlConfig",
          "type": "address"
        },
        {
          "internalType": "uint256",
          "name": "_timeDelay",
          "type": "uint256"
        }
      ],
      "name": "initialize",
      "outputs": [],
      "stateMutability": "nonpayable",
      "type": "function"
    },
    {
      "inputs": [],
      "name": "pause",
      "outputs": [],
      "stateMutability": "nonpayable",
      "type": "function"
    },
    {
      "inputs": [],
      "name": "unpause",
      "outputs": [],
      "stateMutability": "nonpayable",
      "type": "function"
    },
    {
      "inputs": [
        {
          "internalType": "uint256",
          "name": "_newTimeDelay",
          "type": "uint256"
        }
      ],
      "name": "setTimeDelay",
      "outputs": [],
      "stateMutability": "nonpayable",
      "type": "function"
    },
    {
      "inputs": [
        {
          "internalType": "contract IPriceFeed",
          "name": "_newIbInBasePriceFeed",
          "type": "address"
        }
      ],
      "name": "setIbInBasePriceFeed",
      "outputs": [],
      "stateMutability": "nonpayable",
      "type": "function"
    },
    {
      "inputs": [
        {
          "internalType": "contract IPriceFeed",
          "name": "_newBaseInUsdPriceFeed",
          "type": "address"
        }
      ],
      "name": "setBaseInUsdPriceFeed",
      "outputs": [],
      "stateMutability": "nonpayable",
      "type": "function"
    },
    {
      "inputs": [],
      "name": "readPrice",
      "outputs": [
        {
          "internalType": "bytes32",
          "name": "",
          "type": "bytes32"
        }
      ],
      "stateMutability": "view",
      "type": "function"
    },
    {
      "inputs": [],
      "name": "peekPrice",
      "outputs": [
        {
          "internalType": "bytes32",
          "name": "",
          "type": "bytes32"
        },
        {
          "internalType": "bool",
          "name": "",
          "type": "bool"
        }
      ],
      "stateMutability": "view",
      "type": "function"
    },
    {
      "inputs": [],
      "name": "peekNextPrice",
      "outputs": [
        {
          "internalType": "bytes32",
          "name": "",
          "type": "bytes32"
        },
        {
          "internalType": "bool",
          "name": "",
          "type": "bool"
        }
      ],
      "stateMutability": "view",
      "type": "function"
    },
    {
      "inputs": [],
      "name": "setPrice",
      "outputs": [],
      "stateMutability": "nonpayable",
      "type": "function"
    },
    {
      "inputs": [],
      "name": "pass",
      "outputs": [
        {
          "internalType": "bool",
          "name": "ok",
          "type": "bool"
        }
      ],
      "stateMutability": "view",
      "type": "function"
    }
  ],
  "bytecode": "0x608060405234801561001057600080fd5b50611e39806100206000396000f3fe608060405234801561001057600080fd5b50600436106101585760003560e01c80637e91400f116100c3578063c8cc243f1161007c578063c8cc243f146102f1578063c9dec36114610304578063cf756fdf1461030d578063d547741f14610320578063da93d0d114610333578063de3e96c01461033b57600080fd5b80637e91400f146102a25780638456cb59146102b357806391d14854146102bb578063a217fddf146102ce578063a7a1ed72146102d6578063bf43d6bf146102de57600080fd5b80632f2ff15d116101155780632f2ff15d1461023557806336568abe1461024857806339af6ba91461025b5780633f4ba83a1461026e5780635bf851b7146102765780635c975abb1461029757600080fd5b806301ffc9a71461015d578063140d27201461018557806314a0b644146101bb57806314bcec9f146101e6578063248a9ca3146101fd57806325da73bf14610220575b600080fd5b61017061016b366004611a2e565b61034e565b60405190151581526020015b60405180910390f35b6101a660ce546001600160801b0380821692600160801b9092041660011490565b6040805192835290151560208301520161017c565b60cb546101ce906001600160a01b031681565b6040516001600160a01b03909116815260200161017c565b6101ef60cd5481565b60405190815260200161017c565b6101ef61020b366004611a58565b60009081526097602052604090206001015490565b61023361022e366004611a86565b610385565b005b610233610243366004611aa3565b610630565b610233610256366004611aa3565b61065a565b610233610269366004611a58565b6106d8565b61023361091a565b6101a660cf546001600160801b0380821692600160801b9092041660011490565b60335460ff16610170565b60ce546001600160801b03166101ef565b610233610afe565b6101706102c9366004611aa3565b610ce0565b6101ef600081565b610170610d0b565b60ca546101ce906001600160a01b031681565b60c9546101ce906001600160a01b031681565b6101ef60cc5481565b61023361031b366004611ad3565b610d2c565b61023361032e366004611aa3565b610f91565b610233610fb6565b610233610349366004611a86565b611230565b60006001600160e01b03198216637965db0b60e01b148061037f57506301ffc9a760e01b6001600160e01b03198316145b92915050565b60c95460408051635a9b40c560e11b815290516001600160a01b03909216916391d1485491839163b536818a916004808201926020929091908290030181865afa1580156103d7573d6000803e3d6000fd5b505050506040513d601f19601f820116820180604052508101906103fb9190611b24565b6040516001600160e01b031960e084901b1681526004810191909152336024820152604401602060405180830381865afa15801561043d573d6000803e3d6000fd5b505050506040513d601f19601f820116820180604052508101906104619190611b52565b80610543575060c9546040805163e58378bb60e01b815290516001600160a01b03909216916391d1485491839163e58378bb916004808201926020929091908290030181865afa1580156104b9573d6000803e3d6000fd5b505050506040513d601f19601f820116820180604052508101906104dd9190611b24565b6040516001600160e01b031960e084901b1681526004810191909152336024820152604401602060405180830381865afa15801561051f573d6000803e3d6000fd5b505050506040513d601f19601f820116820180604052508101906105439190611b52565b6105685760405162461bcd60e51b815260040161055f90611b6d565b60405180910390fd5b60ca80546001600160a01b0319166001600160a01b0383169081179091556040805162a0693960e51b8152815163140d2720926004808401939192918290030181865afa1580156105bd573d6000803e3d6000fd5b505050506040513d601f19601f820116820180604052508101906105e19190611ba4565b50506105ea3390565b6040516001600160a01b03838116825291909116907fd07251be46c9e4fdfb5bd46ba022dd2efbc0d8338799eb409a406b78c78b0207906020015b60405180910390a250565b60008281526097602052604090206001015461064b816114cb565b61065583836114d8565b505050565b6001600160a01b03811633146106ca5760405162461bcd60e51b815260206004820152602f60248201527f416363657373436f6e74726f6c3a2063616e206f6e6c792072656e6f756e636560448201526e103937b632b9903337b91039b2b63360891b606482015260840161055f565b6106d4828261155e565b5050565b60c95460408051635a9b40c560e11b815290516001600160a01b03909216916391d1485491839163b536818a916004808201926020929091908290030181865afa15801561072a573d6000803e3d6000fd5b505050506040513d601f19601f8201168201806040525081019061074e9190611b24565b6040516001600160e01b031960e084901b1681526004810191909152336024820152604401602060405180830381865afa158015610790573d6000803e3d6000fd5b505050506040513d601f19601f820116820180604052508101906107b49190611b52565b80610896575060c9546040805163e58378bb60e01b815290516001600160a01b03909216916391d1485491839163e58378bb916004808201926020929091908290030181865afa15801561080c573d6000803e3d6000fd5b505050506040513d601f19601f820116820180604052508101906108309190611b24565b6040516001600160e01b031960e084901b1681526004810191909152336024820152604401602060405180830381865afa158015610872573d6000803e3d6000fd5b505050506040513d601f19601f820116820180604052508101906108969190611b52565b6108b25760405162461bcd60e51b815260040161055f90611b6d565b61038481101580156108c757506202a3008111155b6108e35760405162461bcd60e51b815260040161055f90611bd0565b60cc81905560405181815233907f8c7220e16b36c16980047cfd2faf359f5a489e40edbb55fc4818907c9dde734a90602001610625565b60c95460408051635a9b40c560e11b815290516001600160a01b03909216916391d1485491839163b536818a916004808201926020929091908290030181865afa15801561096c573d6000803e3d6000fd5b505050506040513d601f19601f820116820180604052508101906109909190611b24565b6040516001600160e01b031960e084901b1681526004810191909152336024820152604401602060405180830381865afa1580156109d2573d6000803e3d6000fd5b505050506040513d601f19601f820116820180604052508101906109f69190611b52565b80610ad8575060c9546040805163e58378bb60e01b815290516001600160a01b03909216916391d1485491839163e58378bb916004808201926020929091908290030181865afa158015610a4e573d6000803e3d6000fd5b505050506040513d601f19601f82011682018060405250810190610a729190611b24565b6040516001600160e01b031960e084901b1681526004810191909152336024820152604401602060405180830381865afa158015610ab4573d6000803e3d6000fd5b505050506040513d601f19601f82011682018060405250810190610ad89190611b52565b610af45760405162461bcd60e51b815260040161055f90611b6d565b610afc6115c5565b565b60c95460408051635a9b40c560e11b815290516001600160a01b03909216916391d1485491839163b536818a916004808201926020929091908290030181865afa158015610b50573d6000803e3d6000fd5b505050506040513d601f19601f82011682018060405250810190610b749190611b24565b6040516001600160e01b031960e084901b1681526004810191909152336024820152604401602060405180830381865afa158015610bb6573d6000803e3d6000fd5b505050506040513d601f19601f82011682018060405250810190610bda9190611b52565b80610cbc575060c9546040805163e58378bb60e01b815290516001600160a01b03909216916391d1485491839163e58378bb916004808201926020929091908290030181865afa158015610c32573d6000803e3d6000fd5b505050506040513d601f19601f82011682018060405250810190610c569190611b24565b6040516001600160e01b031960e084901b1681526004810191909152336024820152604401602060405180830381865afa158015610c98573d6000803e3d6000fd5b505050506040513d601f19601f82011682018060405250810190610cbc9190611b52565b610cd85760405162461bcd60e51b815260040161055f90611b6d565b610afc611617565b60009182526097602090815260408084206001600160a01b0393909316845291905290205460ff1690565b6000610d2460cc5460cd5461165490919063ffffffff16565b421015905090565b600054610100900460ff1615808015610d4c5750600054600160ff909116105b80610d665750303b158015610d66575060005460ff166001145b610dc95760405162461bcd60e51b815260206004820152602e60248201527f496e697469616c697a61626c653a20636f6e747261637420697320616c72656160448201526d191e481a5b9a5d1a585b1a5e995960921b606482015260840161055f565b6000805460ff191660011790558015610dec576000805461ff0019166101001790555b610df4611667565b610dfc611696565b60ca80546001600160a01b038088166001600160a01b0319928316811790935560cb8054918816919092161790556040805162a0693960e51b8152815163140d2720926004808401939192918290030181865afa158015610e61573d6000803e3d6000fd5b505050506040513d601f19601f82011682018060405250810190610e859190611ba4565b505060cb546040805162a0693960e51b815281516001600160a01b039093169263140d2720926004808401939192918290030181865afa158015610ecd573d6000803e3d6000fd5b505050506040513d601f19601f82011682018060405250810190610ef19190611ba4565b505060c980546001600160a01b0319166001600160a01b0385161790556103848210801590610f2357506202a3008211155b610f3f5760405162461bcd60e51b815260040161055f90611bd0565b60cc8290558015610f8a576000805461ff0019169055604051600181527f7f26b83ff96e1f2b6a682f133852f6798a09c465da95921460cefb38474024989060200160405180910390a15b5050505050565b600082815260976020526040902060010154610fac816114cb565b610655838361155e565b610fbe6116bd565b610fc6610d0b565b6110255760405162461bcd60e51b815260206004820152602a60248201527f4962546f6b656e5072696365466565642f74696d652d64656c61792d6861732d6044820152691b9bdd0b5c185cdcd95960b21b606482015260840161055f565b60ca546040805162a0693960e51b8152815160009384936001600160a01b039091169263140d272092600480830193928290030181865afa15801561106e573d6000803e3d6000fd5b505050506040513d601f19601f820116820180604052508101906110929190611ba4565b9150915060008060cb60009054906101000a90046001600160a01b03166001600160a01b031663140d27206040518163ffffffff1660e01b81526004016040805180830381865afa1580156110eb573d6000803e3d6000fd5b505050506040513d601f19601f8201168201806040525081019061110f9190611ba4565b90925090506000611132670de0b6b3a764000061112c8786611703565b9061170f565b905060008480156111405750825b801561114f575060335460ff16155b90508061119e5760405162461bcd60e51b815260206004820152601760248201527f4962546f6b656e5072696365466565642f6e6f742d6f6b000000000000000000604482015260640161055f565b60cf80546001600160801b03808216600160801b92839004821683021760ce556040805180820190915290851680825260016020909201919091521790556111e54261171b565b60cd5560ce546040516001600160801b0390911681527f296ba4ca62c6c21c95e828080cb8aec7481b71390585605300a8a76f9e95b5279060200160405180910390a1505050505050565b60c95460408051635a9b40c560e11b815290516001600160a01b03909216916391d1485491839163b536818a916004808201926020929091908290030181865afa158015611282573d6000803e3d6000fd5b505050506040513d601f19601f820116820180604052508101906112a69190611b24565b6040516001600160e01b031960e084901b1681526004810191909152336024820152604401602060405180830381865afa1580156112e8573d6000803e3d6000fd5b505050506040513d601f19601f8201168201806040525081019061130c9190611b52565b806113ee575060c9546040805163e58378bb60e01b815290516001600160a01b03909216916391d1485491839163e58378bb916004808201926020929091908290030181865afa158015611364573d6000803e3d6000fd5b505050506040513d601f19601f820116820180604052508101906113889190611b24565b6040516001600160e01b031960e084901b1681526004810191909152336024820152604401602060405180830381865afa1580156113ca573d6000803e3d6000fd5b505050506040513d601f19601f820116820180604052508101906113ee9190611b52565b61140a5760405162461bcd60e51b815260040161055f90611b6d565b60cb80546001600160a01b0319166001600160a01b0383169081179091556040805162a0693960e51b8152815163140d2720926004808401939192918290030181865afa15801561145f573d6000803e3d6000fd5b505050506040513d601f19601f820116820180604052508101906114839190611ba4565b505061148c3390565b6040516001600160a01b03838116825291909116907fece191b909212c7268932ec871cc923d3136f67cdd560fec977a1dceec0b42eb90602001610625565b6114d5813361179a565b50565b6114e28282610ce0565b6106d45760008281526097602090815260408083206001600160a01b03851684529091529020805460ff1916600117905561151a3390565b6001600160a01b0316816001600160a01b0316837f2f8788117e7eff1d82e926ec794901d17c78024a50270940304540a733656f0d60405160405180910390a45050565b6115688282610ce0565b156106d45760008281526097602090815260408083206001600160a01b0385168085529252808320805460ff1916905551339285917ff6391f5c32d9c69d2a47ea670b442974b53935d1edc7fd64eb21e047a839171b9190a45050565b6115cd6117fe565b6033805460ff191690557f5db9ee0a495bf2e6ff9c91a7834c1ba4fdd244a5e8aa4e537bd38aeae4b073aa335b6040516001600160a01b03909116815260200160405180910390a1565b61161f6116bd565b6033805460ff191660011790557f62e78cea01bee320cd4e420270b5ea74000d11b0c9f74754ebdbfc544b05a2586115fa3390565b60006116608284611c2e565b9392505050565b600054610100900460ff1661168e5760405162461bcd60e51b815260040161055f90611c41565b610afc611847565b600054610100900460ff16610afc5760405162461bcd60e51b815260040161055f90611c41565b60335460ff1615610afc5760405162461bcd60e51b815260206004820152601060248201526f14185d5cd8589b194e881c185d5cd95960821b604482015260640161055f565b60006116608284611c8c565b60006116608284611cb9565b600060cc5460000361177b5760405162461bcd60e51b815260206004820152602360248201527f4962546f6b656e5072696365466565642f74696d652d64656c61792d69732d7a60448201526265726f60e81b606482015260840161055f565b61037f61179360cc548461187a90919063ffffffff16565b8390611886565b6117a48282610ce0565b6106d4576117bc816001600160a01b03166014611892565b6117c7836020611892565b6040516020016117d8929190611cf1565b60408051601f198184030181529082905262461bcd60e51b825261055f91600401611d66565b60335460ff16610afc5760405162461bcd60e51b815260206004820152601460248201527314185d5cd8589b194e881b9bdd081c185d5cd95960621b604482015260640161055f565b600054610100900460ff1661186e5760405162461bcd60e51b815260040161055f90611c41565b6033805460ff19169055565b60006116608284611d99565b60006116608284611dad565b606060006118a1836002611c8c565b6118ac906002611c2e565b67ffffffffffffffff8111156118c4576118c4611dc0565b6040519080825280601f01601f1916602001820160405280156118ee576020820181803683370190505b509050600360fc1b8160008151811061190957611909611dd6565b60200101906001600160f81b031916908160001a905350600f60fb1b8160018151811061193857611938611dd6565b60200101906001600160f81b031916908160001a905350600061195c846002611c8c565b611967906001611c2e565b90505b60018111156119df576f181899199a1a9b1b9c1cb0b131b232b360811b85600f166010811061199b5761199b611dd6565b1a60f81b8282815181106119b1576119b1611dd6565b60200101906001600160f81b031916908160001a90535060049490941c936119d881611dec565b905061196a565b5083156116605760405162461bcd60e51b815260206004820181905260248201527f537472696e67733a20686578206c656e67746820696e73756666696369656e74604482015260640161055f565b600060208284031215611a4057600080fd5b81356001600160e01b03198116811461166057600080fd5b600060208284031215611a6a57600080fd5b5035919050565b6001600160a01b03811681146114d557600080fd5b600060208284031215611a9857600080fd5b813561166081611a71565b60008060408385031215611ab657600080fd5b823591506020830135611ac881611a71565b809150509250929050565b60008060008060808587031215611ae957600080fd5b8435611af481611a71565b93506020850135611b0481611a71565b92506040850135611b1481611a71565b9396929550929360600135925050565b600060208284031215611b3657600080fd5b5051919050565b80518015158114611b4d57600080fd5b919050565b600060208284031215611b6457600080fd5b61166082611b3d565b60208082526017908201527f21286f776e6572526f6c65206f7220676f76526f6c6529000000000000000000604082015260600190565b60008060408385031215611bb757600080fd5b82519150611bc760208401611b3d565b90509250929050565b60208082526028908201527f4962546f6b656e5072696365466565642f74696d652d64656c61792d6f75742d6040820152671bd98b589bdd5b9960c21b606082015260800190565b634e487b7160e01b600052601160045260246000fd5b8082018082111561037f5761037f611c18565b6020808252602b908201527f496e697469616c697a61626c653a20636f6e7472616374206973206e6f74206960408201526a6e697469616c697a696e6760a81b606082015260800190565b808202811582820484141761037f5761037f611c18565b634e487b7160e01b600052601260045260246000fd5b600082611cc857611cc8611ca3565b500490565b60005b83811015611ce8578181015183820152602001611cd0565b50506000910152565b7f416363657373436f6e74726f6c3a206163636f756e7420000000000000000000815260008351611d29816017850160208801611ccd565b7001034b99036b4b9b9b4b733903937b6329607d1b6017918401918201528351611d5a816028840160208801611ccd565b01602801949350505050565b6020815260008251806020840152611d85816040850160208701611ccd565b601f01601f19169190910160400192915050565b600082611da857611da8611ca3565b500690565b8181038181111561037f5761037f611c18565b634e487b7160e01b600052604160045260246000fd5b634e487b7160e01b600052603260045260246000fd5b600081611dfb57611dfb611c18565b50600019019056fea2646970667358221220f7801b80aed11e047029a0d5addc8e9cd5535f1ee5f23d4b8b5e567f266eb36464736f6c63430008110033",
  "immutableReferences": {},
  "source": "// SPDX-License-Identifier: AGPL-3.0-or-later\n\npragma solidity 0.8.17;\n\nimport \"@openzeppelin/contracts-upgradeable/security/PausableUpgradeable.sol\";\nimport \"@openzeppelin/contracts-upgradeable/utils/math/SafeMathUpgradeable.sol\";\nimport \"@openzeppelin/contracts-upgradeable/access/AccessControlUpgradeable.sol\";\n\nimport \"../interfaces/IPriceFeed.sol\";\nimport \"../interfaces/IFathomOracle.sol\";\nimport \"../interfaces/IAccessControlConfig.sol\";\n\ncontract IbTokenPriceFeed is PausableUpgradeable, AccessControlUpgradeable, IPriceFeed {\n  using SafeMathUpgradeable for uint256;\n\n  IAccessControlConfig public accessControlConfig;\n\n  IPriceFeed public ibInBasePriceFeed;\n  IPriceFeed public baseInUsdPriceFeed;\n\n  uint256 public timeDelay; // in seconds\n  uint256 public lastUpdateTimestamp; // block timestamp\n\n  struct Feed {\n    uint128 val;\n    uint128 ok;\n  }\n\n  Feed private currentPrice;\n  Feed private nextPrice;\n\n  event LogValue(bytes32 val);\n  event LogSetTimeDelay(address indexed caller, uint256 newTimeDelay);\n  event SetIbInBasePriceFeed(address indexed caller, address newIbInBasePriceFeed);\n  event SetBaseInUsdPriceFeed(address indexed caller, address newBaseInUserPriceFeed);\n\n  // --- Init ---\n  function initialize(\n    address _ibInBasePriceFeed,\n    address _baseInUsdPriceFeed,\n    address _accessControlConfig,\n    uint256 _timeDelay\n  ) external initializer {\n    PausableUpgradeable.__Pausable_init();\n    AccessControlUpgradeable.__AccessControl_init();\n\n    ibInBasePriceFeed = IPriceFeed(_ibInBasePriceFeed);\n    baseInUsdPriceFeed = IPriceFeed(_baseInUsdPriceFeed);\n\n    ibInBasePriceFeed.peekPrice();\n    baseInUsdPriceFeed.peekPrice();\n\n    accessControlConfig = IAccessControlConfig(_accessControlConfig);\n\n    require(_timeDelay >= 15 minutes && _timeDelay <= 2 days, \"IbTokenPriceFeed/time-delay-out-of-bound\");\n    timeDelay = _timeDelay;\n  }\n\n  modifier onlyOwnerOrGov() {\n    require(\n      accessControlConfig.hasRole(accessControlConfig.GOV_ROLE(), msg.sender) ||\n        accessControlConfig.hasRole(accessControlConfig.OWNER_ROLE(), msg.sender),\n      \"!(ownerRole or govRole)\"\n    );\n    _;\n  }\n\n  // --- Math ---\n  function add(uint64 x, uint64 y) internal pure returns (uint64 z) {\n    z = x + y;\n    require(z >= x);\n  }\n\n  /// @dev access: OWNER_ROLE, GOV_ROLE\n  function pause() external onlyOwnerOrGov {\n    _pause();\n  }\n\n  /// @dev access: OWNER_ROLE, GOV_ROLE\n  function unpause() external onlyOwnerOrGov {\n    _unpause();\n  }\n\n  /// @dev access: OWNER_ROLE, GOV_ROLE\n  function setTimeDelay(uint256 _newTimeDelay) external onlyOwnerOrGov {\n    require(_newTimeDelay >= 15 minutes && _newTimeDelay <= 2 days, \"IbTokenPriceFeed/time-delay-out-of-bound\");\n    timeDelay = _newTimeDelay;\n    emit LogSetTimeDelay(_msgSender(), _newTimeDelay);\n  }\n\n  /// @dev access: OWNER_ROLE, GOV_ROLE\n  function setIbInBasePriceFeed(IPriceFeed _newIbInBasePriceFeed) external onlyOwnerOrGov {\n    ibInBasePriceFeed = _newIbInBasePriceFeed;\n    IPriceFeed(ibInBasePriceFeed).peekPrice();\n    emit SetIbInBasePriceFeed(_msgSender(), address(_newIbInBasePriceFeed));\n  }\n\n  /// @dev access: OWNER_ROLE, GOV_ROLE\n  function setBaseInUsdPriceFeed(IPriceFeed _newBaseInUsdPriceFeed) external onlyOwnerOrGov {\n    baseInUsdPriceFeed = _newBaseInUsdPriceFeed;\n    IPriceFeed(baseInUsdPriceFeed).peekPrice();\n    emit SetBaseInUsdPriceFeed(_msgSender(), address(_newBaseInUsdPriceFeed));\n  }\n\n  function readPrice() external view override returns (bytes32) {\n    return (bytes32(uint256(currentPrice.val)));\n  }\n\n  function peekPrice() external view override returns (bytes32, bool) {\n    return (bytes32(uint256(currentPrice.val)), currentPrice.ok == 1);\n  }\n\n  function peekNextPrice() external view returns (bytes32, bool) {\n    return (bytes32(uint256(nextPrice.val)), nextPrice.ok == 1);\n  }\n\n  function setPrice() public whenNotPaused {\n    require(pass(), \"IbTokenPriceFeed/time-delay-has-not-passed\");\n    (bytes32 ibInBasePrice, bool ibInBasePriceOk) = ibInBasePriceFeed.peekPrice();\n    (bytes32 baseInUsdPrice, bool baseInUsdPriceOk) = baseInUsdPriceFeed.peekPrice();\n\n    uint256 price = uint256(ibInBasePrice).mul(uint256(baseInUsdPrice)).div(1e18);\n    bool ok = ibInBasePriceOk && baseInUsdPriceOk && !paused();\n\n    require(ok, \"IbTokenPriceFeed/not-ok\");\n    currentPrice = nextPrice;\n    nextPrice = Feed(uint128(price), 1);\n    lastUpdateTimestamp = getStartOfIntervalTimestamp(block.timestamp);\n    emit LogValue(bytes32(uint256(currentPrice.val)));\n  }\n\n  function getStartOfIntervalTimestamp(uint256 ts) internal view returns (uint256) {\n    require(timeDelay != 0, \"IbTokenPriceFeed/time-delay-is-zero\");\n    return ts.sub(ts.mod(timeDelay));\n  }\n\n  function pass() public view returns (bool ok) {\n    return block.timestamp >= lastUpdateTimestamp.add(timeDelay);\n  }\n}\n",
  "sourcePath": "/Users/sangjun.lee/Sangjun/fathom-stablecoin-smart-contracts/contracts/8.17/price-feeders/IbTokenPriceFeed.sol",
  "compiler": {
    "name": "solc",
    "version": "0.8.17+commit.8df45f5f.Emscripten.clang"
  },
  "schemaVersion": "3.4.10",
  "updatedAt": "2022-10-06T11:28:50.152Z",
  "devdoc": {
    "kind": "dev",
    "methods": {
      "getRoleAdmin(bytes32)": {
        "details": "Returns the admin role that controls `role`. See {grantRole} and {revokeRole}. To change a role's admin, use {_setRoleAdmin}."
      },
      "grantRole(bytes32,address)": {
        "details": "Grants `role` to `account`. If `account` had not been already granted `role`, emits a {RoleGranted} event. Requirements: - the caller must have ``role``'s admin role. May emit a {RoleGranted} event."
      },
      "hasRole(bytes32,address)": {
        "details": "Returns `true` if `account` has been granted `role`."
      },
      "pause()": {
        "details": "access: OWNER_ROLE, GOV_ROLE"
      },
      "paused()": {
        "details": "Returns true if the contract is paused, and false otherwise."
      },
      "renounceRole(bytes32,address)": {
        "details": "Revokes `role` from the calling account. Roles are often managed via {grantRole} and {revokeRole}: this function's purpose is to provide a mechanism for accounts to lose their privileges if they are compromised (such as when a trusted device is misplaced). If the calling account had been revoked `role`, emits a {RoleRevoked} event. Requirements: - the caller must be `account`. May emit a {RoleRevoked} event."
      },
      "revokeRole(bytes32,address)": {
        "details": "Revokes `role` from `account`. If `account` had been granted `role`, emits a {RoleRevoked} event. Requirements: - the caller must have ``role``'s admin role. May emit a {RoleRevoked} event."
      },
      "setBaseInUsdPriceFeed(address)": {
        "details": "access: OWNER_ROLE, GOV_ROLE"
      },
      "setIbInBasePriceFeed(address)": {
        "details": "access: OWNER_ROLE, GOV_ROLE"
      },
      "setTimeDelay(uint256)": {
        "details": "access: OWNER_ROLE, GOV_ROLE"
      },
      "supportsInterface(bytes4)": {
        "details": "See {IERC165-supportsInterface}."
      },
      "unpause()": {
        "details": "access: OWNER_ROLE, GOV_ROLE"
      }
    },
    "version": 1
  },
  "userdoc": {
    "kind": "user",
    "methods": {},
    "version": 1
  }
}