{
  "contractName": "LiquidationEngine",
  "abi": [
    {
      "anonymous": false,
      "inputs": [
        {
          "indexed": false,
          "internalType": "uint8",
          "name": "version",
          "type": "uint8"
        }
      ],
      "name": "Initialized",
      "type": "event"
    },
    {
      "anonymous": false,
      "inputs": [],
      "name": "LogCage",
      "type": "event"
    },
    {
      "anonymous": false,
      "inputs": [],
      "name": "LogUncage",
      "type": "event"
    },
    {
      "anonymous": false,
      "inputs": [
        {
          "indexed": false,
          "internalType": "address",
          "name": "account",
          "type": "address"
        }
      ],
      "name": "Paused",
      "type": "event"
    },
    {
      "anonymous": false,
      "inputs": [
        {
          "indexed": false,
          "internalType": "address",
          "name": "account",
          "type": "address"
        }
      ],
      "name": "Unpaused",
      "type": "event"
    },
    {
      "inputs": [],
      "name": "bookKeeper",
      "outputs": [
        {
          "internalType": "contract IBookKeeper",
          "name": "",
          "type": "address"
        }
      ],
      "stateMutability": "view",
      "type": "function"
    },
    {
      "inputs": [],
      "name": "live",
      "outputs": [
        {
          "internalType": "uint256",
          "name": "",
          "type": "uint256"
        }
      ],
      "stateMutability": "view",
      "type": "function"
    },
    {
      "inputs": [],
      "name": "paused",
      "outputs": [
        {
          "internalType": "bool",
          "name": "",
          "type": "bool"
        }
      ],
      "stateMutability": "view",
      "type": "function"
    },
    {
      "inputs": [],
      "name": "priceOracle",
      "outputs": [
        {
          "internalType": "address",
          "name": "",
          "type": "address"
        }
      ],
      "stateMutability": "view",
      "type": "function"
    },
    {
      "inputs": [],
      "name": "systemDebtEngine",
      "outputs": [
        {
          "internalType": "contract ISystemDebtEngine",
          "name": "",
          "type": "address"
        }
      ],
      "stateMutability": "view",
      "type": "function"
    },
    {
      "inputs": [
        {
          "internalType": "address",
          "name": "_bookKeeper",
          "type": "address"
        },
        {
          "internalType": "address",
          "name": "_systemDebtEngine",
          "type": "address"
        }
      ],
      "name": "initialize",
      "outputs": [],
      "stateMutability": "nonpayable",
      "type": "function"
    },
    {
      "inputs": [
        {
          "internalType": "bytes32",
          "name": "_collateralPoolId",
          "type": "bytes32"
        },
        {
          "internalType": "address",
          "name": "_positionAddress",
          "type": "address"
        },
        {
          "internalType": "uint256",
          "name": "_debtShareToBeLiquidated",
          "type": "uint256"
        },
        {
          "internalType": "uint256",
          "name": "_maxDebtShareToBeLiquidated",
          "type": "uint256"
        },
        {
          "internalType": "address",
          "name": "_collateralRecipient",
          "type": "address"
        },
        {
          "internalType": "bytes",
          "name": "_data",
          "type": "bytes"
        }
      ],
      "name": "liquidate",
      "outputs": [],
      "stateMutability": "nonpayable",
      "type": "function"
    },
    {
      "inputs": [
        {
          "internalType": "address",
          "name": "_priceOracle",
          "type": "address"
        }
      ],
      "name": "setPriceOracle",
      "outputs": [],
      "stateMutability": "nonpayable",
      "type": "function"
    },
    {
      "inputs": [],
      "name": "cage",
      "outputs": [],
      "stateMutability": "nonpayable",
      "type": "function"
    },
    {
      "inputs": [],
      "name": "uncage",
      "outputs": [],
      "stateMutability": "nonpayable",
      "type": "function"
    },
    {
      "inputs": [],
      "name": "pause",
      "outputs": [],
      "stateMutability": "nonpayable",
      "type": "function"
    },
    {
      "inputs": [],
      "name": "unpause",
      "outputs": [],
      "stateMutability": "nonpayable",
      "type": "function"
    }
  ],
  "bytecode": "0x608060405234801561001057600080fd5b5061207a806100206000396000f3fe608060405234801561001057600080fd5b50600436106100b45760003560e01c80635c975abb116100715780635c975abb1461013f57806369245009146101555780638456cb591461015d578063957aa58c14610165578063d63b23b21461017c578063e3b3932a1461018457600080fd5b80631ebce593146100b95780632630c12f146100ce57806328e49a42146100fe5780633f4ba83a14610111578063485cc95514610119578063530e784f1461012c575b600080fd5b6100cc6100c7366004611d23565b610197565b005b6097546100e1906001600160a01b031681565b6040516001600160a01b0390911681526020015b60405180910390f35b6099546100e1906001600160a01b031681565b6100cc610bc2565b6100cc610127366004611dd8565b610e37565b6100cc61013a366004611e11565b611061565b60335460ff1660405190151581526020016100f5565b6100cc611348565b6100cc6115db565b61016e609a5481565b6040519081526020016100f5565b6100cc61184d565b6098546100e1906001600160a01b031681565b6002606554036101ee5760405162461bcd60e51b815260206004820152601f60248201527f5265656e7472616e637947756172643a207265656e7472616e742063616c6c0060448201526064015b60405180910390fd5b60026065556101fb611b0e565b60975460405163285da53b60e01b8152600481018990526001600160a01b039091169063285da53b9060240160006040518083038186803b15801561023f57600080fd5b505afa158015610253573d6000803e3d6000fd5b50505050609a546001146102795760405162461bcd60e51b81526004016101e590611e35565b846000036102e45760405162461bcd60e51b815260206004820152603260248201527f4c69717569646174696f6e456e67696e652f7a65726f2d646562742d76616c75604482015271194b5d1bcb58994b5b1a5c5d5a59185d195960721b60648201526084016101e5565b836000036103535760405162461bcd60e51b815260206004820152603660248201527f4c69717569646174696f6e456e67696e652f7a65726f2d6d61782d646562742d6044820152751d985b1d594b5d1bcb58994b5b1a5c5d5a59185d195960521b60648201526084016101e5565b61038c6040518060c001604052806000815260200160008152602001600081526020016000815260200160008152602001600081525090565b609854604051630a76216560e21b8152600481018a90526001600160a01b038981166024830152909116906329d88594906044016040805180830381865afa1580156103dc573d6000803e3d6000fd5b505050506040513d601f19601f820116820180604052508101906104009190611e6c565b60208381019190915290825260408051606081018252600080825281840181905281830152609854825163d868246160e01b8152925191936001600160a01b039091169263d868246192600480830193928290030181865afa15801561046a573d6000803e3d6000fd5b505050506040513d601f19601f8201168201806040525081019061048e9190611e90565b6001600160a01b03166328c84bbd8a6040518263ffffffff1660e01b81526004016104bb91815260200190565b602060405180830381865afa1580156104d8573d6000803e3d6000fd5b505050506040513d601f19601f820116820180604052508101906104fc9190611e90565b6001600160a01b0390811682526098546040805163d868246160e01b81529051919092169163d86824619160048083019260209291908290030181865afa15801561054b573d6000803e3d6000fd5b505050506040513d601f19601f8201168201806040525081019061056f9190611e90565b6001600160a01b0316638c492d078a6040518263ffffffff1660e01b815260040161059c91815260200190565b602060405180830381865afa1580156105b9573d6000803e3d6000fd5b505050506040513d601f19601f820116820180604052508101906105dd9190611ead565b6020808301919091526098546040805163d868246160e01b815290516001600160a01b039092169263d8682461926004808401938290030181865afa15801561062a573d6000803e3d6000fd5b505050506040513d601f19601f8201168201806040525081019061064e9190611e90565b6001600160a01b031663a09b0fe08a6040518263ffffffff1660e01b815260040161067b91815260200190565b602060405180830381865afa158015610698573d6000803e3d6000fd5b505050506040513d601f19601f820116820180604052508101906106bc9190611ead565b604082015280516001600160a01b0381166107245760405162461bcd60e51b815260206004820152602260248201527f4c69717569646174696f6e456e67696e652f6e6f742d7365742d737472617465604482015261677960f01b60648201526084016101e5565b6000826020015111801561075857506040820151602084015161074691611b56565b6020830151845161075691611b56565b105b6107af5760405162461bcd60e51b815260206004820152602260248201527f4c69717569646174696f6e456e67696e652f706f736974696f6e2d69732d7361604482015261666560f01b60648201526084016101e5565b60985460995460405163b4ac08bb60e01b81526001600160a01b03918216600482015291169063b4ac08bb90602401602060405180830381865afa1580156107fb573d6000803e3d6000fd5b505050506040513d601f19601f8201168201806040525081019061081f9190611ead565b836040018181525050806001600160a01b03166316d8d2918b856020015186600001518d8d8d338e8e8e6040518b63ffffffff1660e01b815260040161086e9a99989796959493929190611ec6565b600060405180830381600087803b15801561088857600080fd5b505af115801561089c573d6000803e3d6000fd5b5050609854604051630a76216560e21b8152600481018e90526001600160a01b038d8116602483015290911692506329d8859491506044016040805180830381865afa1580156108f0573d6000803e3d6000fd5b505050506040513d601f19601f820116820180604052508101906109149190611e6c565b6080850181905260608501919091526020840151116109835760405162461bcd60e51b815260206004820152602560248201527f4c69717569646174696f6e456e67696e652f646562742d6e6f742d6c6971756960448201526419185d195960da1b60648201526084016101e5565b6109ac82604001516109a685608001518660200151611b6b90919063ffffffff16565b90611b56565b60a08401819052604080850151609854609954925163b4ac08bb60e01b81526001600160a01b039384166004820152610a33939091169063b4ac08bb90602401602060405180830381865afa158015610a09573d6000803e3d6000fd5b505050506040513d601f19601f82011682018060405250810190610a2d9190611ead565b90611b6b565b1015610a905760405162461bcd60e51b815260206004820152602660248201527f4c69717569646174696f6e456e67696e652f7061796d656e742d6e6f742d726560448201526518d95a5d995960d21b60648201526084016101e5565b6060830151158015610aa6575060008360800151115b15610bb157600160ff1b836080015110610b025760405162461bcd60e51b815260206004820152601a60248201527f4c69717569646174696f6e456e67696e652f6f766572666c6f7700000000000060448201526064016101e5565b60985460995460808501516001600160a01b039283169263b1df2594928e928e9283921690600090610b3390611f5a565b6040516001600160e01b031960e089901b16815260048101969096526001600160a01b039485166024870152928416604486015292166064840152608483019190915260a482015260c401600060405180830381600087803b158015610b9857600080fd5b505af1158015610bac573d6000803e3d6000fd5b505050505b505060016065555050505050505050565b6098546040805163c8cc243f60e01b815290516000926001600160a01b03169163c8cc243f9160048083019260209291908290030181865afa158015610c0c573d6000803e3d6000fd5b505050506040513d601f19601f82011682018060405250810190610c309190611e90565b9050806001600160a01b03166391d14854826001600160a01b031663e58378bb6040518163ffffffff1660e01b8152600401602060405180830381865afa158015610c7f573d6000803e3d6000fd5b505050506040513d601f19601f82011682018060405250810190610ca39190611ead565b6040516001600160e01b031960e084901b1681526004810191909152336024820152604401602060405180830381865afa158015610ce5573d6000803e3d6000fd5b505050506040513d601f19601f82011682018060405250810190610d099190611f76565b80610de65750806001600160a01b03166391d14854826001600160a01b031663b536818a6040518163ffffffff1660e01b8152600401602060405180830381865afa158015610d5c573d6000803e3d6000fd5b505050506040513d601f19601f82011682018060405250810190610d809190611ead565b6040516001600160e01b031960e084901b1681526004810191909152336024820152604401602060405180830381865afa158015610dc2573d6000803e3d6000fd5b505050506040513d601f19601f82011682018060405250810190610de69190611f76565b610e2c5760405162461bcd60e51b815260206004820152601760248201527621286f776e6572526f6c65206f7220676f76526f6c652960481b60448201526064016101e5565b610e34611b77565b50565b600054610100900460ff1615808015610e575750600054600160ff909116105b80610e715750303b158015610e71575060005460ff166001145b610ed45760405162461bcd60e51b815260206004820152602e60248201527f496e697469616c697a61626c653a20636f6e747261637420697320616c72656160448201526d191e481a5b9a5d1a585b1a5e995960921b60648201526084016101e5565b6000805460ff191660011790558015610ef7576000805461ff0019166101001790555b610eff611bc9565b610f07611bf8565b826001600160a01b0316636f3a3bfc6040518163ffffffff1660e01b81526004016020604051808303816000875af1158015610f47573d6000803e3d6000fd5b505050506040513d601f19601f82011682018060405250810190610f6b9190611ead565b5082609860006101000a8154816001600160a01b0302191690836001600160a01b03160217905550816001600160a01b0316632a608d5b6040518163ffffffff1660e01b8152600401602060405180830381865afa158015610fd1573d6000803e3d6000fd5b505050506040513d601f19601f82011682018060405250810190610ff59190611ead565b50609980546001600160a01b0319166001600160a01b0384161790556001609a55801561105c576000805461ff0019169055604051600181527f7f26b83ff96e1f2b6a682f133852f6798a09c465da95921460cefb38474024989060200160405180910390a15b505050565b6098546040805163c8cc243f60e01b815290516000926001600160a01b03169163c8cc243f9160048083019260209291908290030181865afa1580156110ab573d6000803e3d6000fd5b505050506040513d601f19601f820116820180604052508101906110cf9190611e90565b9050806001600160a01b03166391d14854826001600160a01b031663e58378bb6040518163ffffffff1660e01b8152600401602060405180830381865afa15801561111e573d6000803e3d6000fd5b505050506040513d601f19601f820116820180604052508101906111429190611ead565b6040516001600160e01b031960e084901b1681526004810191909152336024820152604401602060405180830381865afa158015611184573d6000803e3d6000fd5b505050506040513d601f19601f820116820180604052508101906111a89190611f76565b806112855750806001600160a01b03166391d14854826001600160a01b031663d7a47a696040518163ffffffff1660e01b8152600401602060405180830381865afa1580156111fb573d6000803e3d6000fd5b505050506040513d601f19601f8201168201806040525081019061121f9190611ead565b6040516001600160e01b031960e084901b1681526004810191909152336024820152604401602060405180830381865afa158015611261573d6000803e3d6000fd5b505050506040513d601f19601f820116820180604052508101906112859190611f76565b6112a15760405162461bcd60e51b81526004016101e590611f98565b6001600160a01b0382166113035760405162461bcd60e51b815260206004820152602360248201527f5f70726963654f7261636c652063616e6e6f74206265207a65726f206164647260448201526265737360e81b60648201526084016101e5565b609a546001146113255760405162461bcd60e51b81526004016101e590611e35565b50609780546001600160a01b0319166001600160a01b0392909216919091179055565b6098546040805163c8cc243f60e01b815290516000926001600160a01b03169163c8cc243f9160048083019260209291908290030181865afa158015611392573d6000803e3d6000fd5b505050506040513d601f19601f820116820180604052508101906113b69190611e90565b9050806001600160a01b03166391d14854826001600160a01b031663e58378bb6040518163ffffffff1660e01b8152600401602060405180830381865afa158015611405573d6000803e3d6000fd5b505050506040513d601f19601f820116820180604052508101906114299190611ead565b6040516001600160e01b031960e084901b1681526004810191909152336024820152604401602060405180830381865afa15801561146b573d6000803e3d6000fd5b505050506040513d601f19601f8201168201806040525081019061148f9190611f76565b8061156c5750806001600160a01b03166391d14854826001600160a01b031663d7a47a696040518163ffffffff1660e01b8152600401602060405180830381865afa1580156114e2573d6000803e3d6000fd5b505050506040513d601f19601f820116820180604052508101906115069190611ead565b6040516001600160e01b031960e084901b1681526004810191909152336024820152604401602060405180830381865afa158015611548573d6000803e3d6000fd5b505050506040513d601f19601f8201168201806040525081019061156c9190611f76565b6115885760405162461bcd60e51b81526004016101e590611f98565b609a546001146115aa5760405162461bcd60e51b81526004016101e590611e35565b6000609a8190556040517fbf689b4aae670d200b1d2b971ace2e0c3bef88a9c5e93f36705c7b86eab630b99190a150565b6098546040805163c8cc243f60e01b815290516000926001600160a01b03169163c8cc243f9160048083019260209291908290030181865afa158015611625573d6000803e3d6000fd5b505050506040513d601f19601f820116820180604052508101906116499190611e90565b9050806001600160a01b03166391d14854826001600160a01b031663e58378bb6040518163ffffffff1660e01b8152600401602060405180830381865afa158015611698573d6000803e3d6000fd5b505050506040513d601f19601f820116820180604052508101906116bc9190611ead565b6040516001600160e01b031960e084901b1681526004810191909152336024820152604401602060405180830381865afa1580156116fe573d6000803e3d6000fd5b505050506040513d601f19601f820116820180604052508101906117229190611f76565b806117ff5750806001600160a01b03166391d14854826001600160a01b031663b536818a6040518163ffffffff1660e01b8152600401602060405180830381865afa158015611775573d6000803e3d6000fd5b505050506040513d601f19601f820116820180604052508101906117999190611ead565b6040516001600160e01b031960e084901b1681526004810191909152336024820152604401602060405180830381865afa1580156117db573d6000803e3d6000fd5b505050506040513d601f19601f820116820180604052508101906117ff9190611f76565b6118455760405162461bcd60e51b815260206004820152601760248201527621286f776e6572526f6c65206f7220676f76526f6c652960481b60448201526064016101e5565b610e34611c27565b6098546040805163c8cc243f60e01b815290516000926001600160a01b03169163c8cc243f9160048083019260209291908290030181865afa158015611897573d6000803e3d6000fd5b505050506040513d601f19601f820116820180604052508101906118bb9190611e90565b9050806001600160a01b03166391d14854826001600160a01b031663e58378bb6040518163ffffffff1660e01b8152600401602060405180830381865afa15801561190a573d6000803e3d6000fd5b505050506040513d601f19601f8201168201806040525081019061192e9190611ead565b6040516001600160e01b031960e084901b1681526004810191909152336024820152604401602060405180830381865afa158015611970573d6000803e3d6000fd5b505050506040513d601f19601f820116820180604052508101906119949190611f76565b80611a715750806001600160a01b03166391d14854826001600160a01b031663d7a47a696040518163ffffffff1660e01b8152600401602060405180830381865afa1580156119e7573d6000803e3d6000fd5b505050506040513d601f19601f82011682018060405250810190611a0b9190611ead565b6040516001600160e01b031960e084901b1681526004810191909152336024820152604401602060405180830381865afa158015611a4d573d6000803e3d6000fd5b505050506040513d601f19601f82011682018060405250810190611a719190611f76565b611a8d5760405162461bcd60e51b81526004016101e590611f98565b609a5415611add5760405162461bcd60e51b815260206004820152601b60248201527f4c69717569646174696f6e456e67696e652f6e6f742d6361676564000000000060448201526064016101e5565b6001609a556040517f1868a6ced217213f36be87ba9aee25cde5381b42e85c8f88e73b18772c0bd07390600090a150565b60335460ff1615611b545760405162461bcd60e51b815260206004820152601060248201526f14185d5cd8589b194e881c185d5cd95960821b60448201526064016101e5565b565b6000611b628284611fcf565b90505b92915050565b6000611b628284611fe6565b611b7f611c64565b6033805460ff191690557f5db9ee0a495bf2e6ff9c91a7834c1ba4fdd244a5e8aa4e537bd38aeae4b073aa335b6040516001600160a01b03909116815260200160405180910390a1565b600054610100900460ff16611bf05760405162461bcd60e51b81526004016101e590611ff9565b611b54611cad565b600054610100900460ff16611c1f5760405162461bcd60e51b81526004016101e590611ff9565b611b54611ce0565b611c2f611b0e565b6033805460ff191660011790557f62e78cea01bee320cd4e420270b5ea74000d11b0c9f74754ebdbfc544b05a258611bac3390565b60335460ff16611b545760405162461bcd60e51b815260206004820152601460248201527314185d5cd8589b194e881b9bdd081c185d5cd95960621b60448201526064016101e5565b600054610100900460ff16611cd45760405162461bcd60e51b81526004016101e590611ff9565b6033805460ff19169055565b600054610100900460ff16611d075760405162461bcd60e51b81526004016101e590611ff9565b6001606555565b6001600160a01b0381168114610e3457600080fd5b600080600080600080600060c0888a031215611d3e57600080fd5b873596506020880135611d5081611d0e565b955060408801359450606088013593506080880135611d6e81611d0e565b925060a088013567ffffffffffffffff80821115611d8b57600080fd5b818a0191508a601f830112611d9f57600080fd5b813581811115611dae57600080fd5b8b6020828501011115611dc057600080fd5b60208301945080935050505092959891949750929550565b60008060408385031215611deb57600080fd5b8235611df681611d0e565b91506020830135611e0681611d0e565b809150509250929050565b600060208284031215611e2357600080fd5b8135611e2e81611d0e565b9392505050565b6020808252601a908201527f4c69717569646174696f6e456e67696e652f6e6f742d6c697665000000000000604082015260600190565b60008060408385031215611e7f57600080fd5b505080516020909101519092909150565b600060208284031215611ea257600080fd5b8151611e2e81611d0e565b600060208284031215611ebf57600080fd5b5051919050565b8a8152602081018a9052604081018990526001600160a01b0388811660608301526080820188905260a0820187905285811660c0830152841660e08201526101206101008201819052810182905260006101408385828501376000838501820152601f909301601f19169091019091019a9950505050505050505050565b634e487b7160e01b600052601160045260246000fd5b6000600160ff1b8201611f6f57611f6f611f44565b5060000390565b600060208284031215611f8857600080fd5b81518015158114611e2e57600080fd5b6020808252601f908201527f21286f776e6572526f6c65206f722073686f7753746f70706572526f6c652900604082015260600190565b8082028115828204841417611b6557611b65611f44565b81810381811115611b6557611b65611f44565b6020808252602b908201527f496e697469616c697a61626c653a20636f6e7472616374206973206e6f74206960408201526a6e697469616c697a696e6760a81b60608201526080019056fea2646970667358221220691b9af180a10b1ed2f4404748d22152ca87d106b12d6b7501f913c639f5939a64736f6c63430008110033",
  "immutableReferences": {},
  "source": "// SPDX-License-Identifier: AGPL-3.0-or-later\n\npragma solidity 0.8.17;\npragma experimental ABIEncoderV2;\n\nimport \"@openzeppelin/contracts-upgradeable/security/PausableUpgradeable.sol\";\nimport \"@openzeppelin/contracts-upgradeable/access/AccessControlUpgradeable.sol\";\nimport \"@openzeppelin/contracts-upgradeable/security/ReentrancyGuardUpgradeable.sol\";\nimport \"@openzeppelin/contracts-upgradeable/utils/math/SafeMathUpgradeable.sol\";\n\nimport \"../interfaces/IBookKeeper.sol\";\nimport \"../interfaces/ISystemDebtEngine.sol\";\nimport \"../interfaces/ILiquidationEngine.sol\";\nimport \"../interfaces/ILiquidationStrategy.sol\";\nimport \"../interfaces/ICagable.sol\";\nimport \"../interfaces/ISetPrice.sol\";\n\n/// @title LiquidationEngine\n/** @notice A contract which is the manager for all of the liquidations of the protocol.\n    LiquidationEngine will be the interface for the liquidator to trigger any positions into the liquidation process.\n*/\n\ncontract LiquidationEngine is PausableUpgradeable, ReentrancyGuardUpgradeable, ICagable, ILiquidationEngine {\n  using SafeMathUpgradeable for uint256;\n  address public priceOracle;\n\n  struct LocalVars {\n    uint256 positionLockedCollateral;\n    uint256 positionDebtShare;\n    uint256 systemDebtEngineStablecoinBefore;\n    uint256 newPositionLockedCollateral;\n    uint256 newPositionDebtShare;\n    uint256 wantStablecoinValueFromLiquidation;\n  }\n\n  struct CollateralPoolLocalVars {\n    address strategy;\n    uint256 priceWithSafetyMargin; // [ray]\n    uint256 debtAccumulatedRate; // [ray]\n  }\n\n  IBookKeeper public bookKeeper; // CDP Engine\n  ISystemDebtEngine public systemDebtEngine; // Debt Engine\n  uint256 public override live; // Active Flag\n\n  modifier onlyOwnerOrShowStopper() {\n    IAccessControlConfig _accessControlConfig = IAccessControlConfig(IBookKeeper(bookKeeper).accessControlConfig());\n    require(\n      _accessControlConfig.hasRole(_accessControlConfig.OWNER_ROLE(), msg.sender) ||\n        _accessControlConfig.hasRole(_accessControlConfig.SHOW_STOPPER_ROLE(), msg.sender),\n      \"!(ownerRole or showStopperRole)\"\n    );\n    _;\n  }\n\n  modifier onlyOwnerOrGov() {\n    IAccessControlConfig _accessControlConfig = IAccessControlConfig(IBookKeeper(bookKeeper).accessControlConfig());\n    require(\n      _accessControlConfig.hasRole(_accessControlConfig.OWNER_ROLE(), msg.sender) ||\n        _accessControlConfig.hasRole(_accessControlConfig.GOV_ROLE(), msg.sender),\n      \"!(ownerRole or govRole)\"\n    );\n    _;\n  }\n\n  // --- Init ---\n  function initialize(address _bookKeeper, address _systemDebtEngine) external initializer {\n    PausableUpgradeable.__Pausable_init();\n    ReentrancyGuardUpgradeable.__ReentrancyGuard_init();\n\n    IBookKeeper(_bookKeeper).totalStablecoinIssued(); // Sanity Check Call\n    bookKeeper = IBookKeeper(_bookKeeper);\n\n    ISystemDebtEngine(_systemDebtEngine).surplusBuffer(); // Sanity Check Call\n    systemDebtEngine = ISystemDebtEngine(_systemDebtEngine);\n\n    live = 1;\n  }\n\n  // --- Math ---\n  uint256 constant WAD = 10**18;\n\n  function liquidate(\n    bytes32 _collateralPoolId,\n    address _positionAddress,\n    uint256 _debtShareToBeLiquidated, // [rad]\n    uint256 _maxDebtShareToBeLiquidated, // [wad]\n    address _collateralRecipient,\n    bytes calldata _data\n  ) external override nonReentrant whenNotPaused {\n\n    ISetPrice(priceOracle).setPrice(_collateralPoolId);\n\n    require(live == 1, \"LiquidationEngine/not-live\");\n    require(_debtShareToBeLiquidated != 0, \"LiquidationEngine/zero-debt-value-to-be-liquidated\");\n    require(_maxDebtShareToBeLiquidated != 0, \"LiquidationEngine/zero-max-debt-value-to-be-liquidated\");\n\n    LocalVars memory _vars;\n\n    (_vars.positionLockedCollateral, _vars.positionDebtShare) = bookKeeper.positions(\n      _collateralPoolId,\n      _positionAddress\n    );\n    // 1. Check if the position is underwater\n    CollateralPoolLocalVars memory _collateralPoolLocalVars;\n    _collateralPoolLocalVars.strategy = ICollateralPoolConfig(bookKeeper.collateralPoolConfig()).getStrategy(\n      _collateralPoolId\n    );\n    _collateralPoolLocalVars.priceWithSafetyMargin = ICollateralPoolConfig(bookKeeper.collateralPoolConfig())\n      .getPriceWithSafetyMargin(_collateralPoolId); // [ray]\n    _collateralPoolLocalVars.debtAccumulatedRate = ICollateralPoolConfig(bookKeeper.collateralPoolConfig())\n      .getDebtAccumulatedRate(_collateralPoolId); // [ray]\n\n    ILiquidationStrategy _strategy = ILiquidationStrategy(_collateralPoolLocalVars.strategy);\n    require(address(_strategy) != address(0), \"LiquidationEngine/not-set-strategy\");\n\n    // (positionLockedCollateral [wad] * priceWithSafetyMargin [ray]) [rad]\n    // (positionDebtShare [wad] * debtAccumulatedRate [ray]) [rad]\n    require(\n      _collateralPoolLocalVars.priceWithSafetyMargin > 0 &&\n        _vars.positionLockedCollateral.mul(_collateralPoolLocalVars.priceWithSafetyMargin) <\n        _vars.positionDebtShare.mul(_collateralPoolLocalVars.debtAccumulatedRate),\n      \"LiquidationEngine/position-is-safe\"\n    );\n\n    _vars.systemDebtEngineStablecoinBefore = bookKeeper.stablecoin(address(systemDebtEngine));\n\n    _strategy.execute(\n      _collateralPoolId,\n      _vars.positionDebtShare,\n      _vars.positionLockedCollateral,\n      _positionAddress,\n      _debtShareToBeLiquidated,\n      _maxDebtShareToBeLiquidated,\n      msg.sender,\n      _collateralRecipient,\n      _data\n    );\n    (_vars.newPositionLockedCollateral, _vars.newPositionDebtShare) = bookKeeper.positions(\n      _collateralPoolId,\n      _positionAddress\n    );\n    require(_vars.newPositionDebtShare < _vars.positionDebtShare, \"LiquidationEngine/debt-not-liquidated\");\n\n    // (positionDebtShare [wad] - newPositionDebtShare [wad]) * debtAccumulatedRate [ray]\n\n    _vars.wantStablecoinValueFromLiquidation = _vars.positionDebtShare.sub(_vars.newPositionDebtShare).mul(\n      _collateralPoolLocalVars.debtAccumulatedRate\n    ); // [rad]\n    require(\n      bookKeeper.stablecoin(address(systemDebtEngine)).sub(_vars.systemDebtEngineStablecoinBefore) >=\n        _vars.wantStablecoinValueFromLiquidation,\n      \"LiquidationEngine/payment-not-received\"\n    );\n\n    // If collateral has been depleted from liquidation whilst there is remaining debt in the position\n    if (_vars.newPositionLockedCollateral == 0 && _vars.newPositionDebtShare > 0) {\n      // Overflow check\n      require(_vars.newPositionDebtShare < 2**255, \"LiquidationEngine/overflow\");\n      // Record the bad debt to the system and close the position\n      bookKeeper.confiscatePosition(\n        _collateralPoolId,\n        _positionAddress,\n        _positionAddress,\n        address(systemDebtEngine),\n        0,\n        -int256(_vars.newPositionDebtShare)\n      );\n    }\n  }\n\n  function setPriceOracle(address _priceOracle) external onlyOwnerOrShowStopper {\n    require(_priceOracle != address(0), \"_priceOracle cannot be zero address\");\n    require(live == 1, \"LiquidationEngine/not-live\");\n    priceOracle = _priceOracle;\n  }\n\n  /// @dev access: OWNER_ROLE, SHOW_STOPPER_ROLE\n  function cage() external override onlyOwnerOrShowStopper {\n    require(live == 1, \"LiquidationEngine/not-live\");\n    live = 0;\n    emit LogCage();\n  }\n\n  /// @dev access: OWNER_ROLE, SHOW_STOPPER_ROLE\n  function uncage() external override onlyOwnerOrShowStopper {\n    require(live == 0, \"LiquidationEngine/not-caged\");\n    live = 1;\n    emit LogUncage();\n  }\n\n  // --- pause ---\n  /// @dev access: OWNER_ROLE, GOV_ROLE\n  function pause() external onlyOwnerOrGov {\n    _pause();\n  }\n\n  /// @dev access: OWNER_ROLE, GOV_ROLE\n  function unpause() external onlyOwnerOrGov {\n    _unpause();\n  }\n}\n",
  "sourcePath": "/Users/sangjun.lee/Sangjun/fathom-stablecoin-smart-contracts/contracts/8.17/stablecoin-core/LiquidationEngine.sol",
  "compiler": {
    "name": "solc",
    "version": "0.8.17+commit.8df45f5f.Emscripten.clang"
  },
  "schemaVersion": "3.4.10",
  "updatedAt": "2022-10-06T11:28:50.239Z",
  "devdoc": {
    "kind": "dev",
    "methods": {
      "cage()": {
        "details": "access: OWNER_ROLE, SHOW_STOPPER_ROLE"
      },
      "pause()": {
        "details": "access: OWNER_ROLE, GOV_ROLE"
      },
      "paused()": {
        "details": "Returns true if the contract is paused, and false otherwise."
      },
      "uncage()": {
        "details": "access: OWNER_ROLE, SHOW_STOPPER_ROLE"
      },
      "unpause()": {
        "details": "access: OWNER_ROLE, GOV_ROLE"
      }
    },
    "version": 1
  },
  "userdoc": {
    "kind": "user",
    "methods": {},
    "notice": "A contract which is the manager for all of the liquidations of the protocol. LiquidationEngine will be the interface for the liquidator to trigger any positions into the liquidation process.",
    "version": 1
  }
}