{
  "contractName": "LiquidationEngine",
  "abi": [
    {
      "anonymous": false,
      "inputs": [
        {
          "indexed": false,
          "internalType": "uint8",
          "name": "version",
          "type": "uint8"
        }
      ],
      "name": "Initialized",
      "type": "event"
    },
    {
      "anonymous": false,
      "inputs": [],
      "name": "LogCage",
      "type": "event"
    },
    {
      "anonymous": false,
      "inputs": [],
      "name": "LogUncage",
      "type": "event"
    },
    {
      "anonymous": false,
      "inputs": [
        {
          "indexed": false,
          "internalType": "address",
          "name": "account",
          "type": "address"
        }
      ],
      "name": "Paused",
      "type": "event"
    },
    {
      "anonymous": false,
      "inputs": [
        {
          "indexed": false,
          "internalType": "address",
          "name": "account",
          "type": "address"
        }
      ],
      "name": "Unpaused",
      "type": "event"
    },
    {
      "inputs": [],
      "name": "bookKeeper",
      "outputs": [
        {
          "internalType": "contract IBookKeeper",
          "name": "",
          "type": "address"
        }
      ],
      "stateMutability": "view",
      "type": "function"
    },
    {
      "inputs": [],
      "name": "live",
      "outputs": [
        {
          "internalType": "uint256",
          "name": "",
          "type": "uint256"
        }
      ],
      "stateMutability": "view",
      "type": "function"
    },
    {
      "inputs": [],
      "name": "paused",
      "outputs": [
        {
          "internalType": "bool",
          "name": "",
          "type": "bool"
        }
      ],
      "stateMutability": "view",
      "type": "function"
    },
    {
      "inputs": [],
      "name": "priceOracle",
      "outputs": [
        {
          "internalType": "address",
          "name": "",
          "type": "address"
        }
      ],
      "stateMutability": "view",
      "type": "function"
    },
    {
      "inputs": [],
      "name": "systemDebtEngine",
      "outputs": [
        {
          "internalType": "contract ISystemDebtEngine",
          "name": "",
          "type": "address"
        }
      ],
      "stateMutability": "view",
      "type": "function"
    },
    {
      "inputs": [
        {
          "internalType": "address",
          "name": "_bookKeeper",
          "type": "address"
        },
        {
          "internalType": "address",
          "name": "_systemDebtEngine",
          "type": "address"
        },
        {
          "internalType": "address",
          "name": "_priceOracle",
          "type": "address"
        }
      ],
      "name": "initialize",
      "outputs": [],
      "stateMutability": "nonpayable",
      "type": "function"
    },
    {
      "inputs": [
        {
          "internalType": "bytes32",
          "name": "_collateralPoolId",
          "type": "bytes32"
        },
        {
          "internalType": "address",
          "name": "_positionAddress",
          "type": "address"
        },
        {
          "internalType": "uint256",
          "name": "_debtShareToBeLiquidated",
          "type": "uint256"
        },
        {
          "internalType": "uint256",
          "name": "_maxDebtShareToBeLiquidated",
          "type": "uint256"
        },
        {
          "internalType": "address",
          "name": "_collateralRecipient",
          "type": "address"
        },
        {
          "internalType": "bytes",
          "name": "_data",
          "type": "bytes"
        }
      ],
      "name": "liquidate",
      "outputs": [],
      "stateMutability": "nonpayable",
      "type": "function"
    },
    {
      "inputs": [
        {
          "internalType": "address",
          "name": "_priceOracle",
          "type": "address"
        }
      ],
      "name": "setPriceOracle",
      "outputs": [],
      "stateMutability": "nonpayable",
      "type": "function"
    },
    {
      "inputs": [],
      "name": "cage",
      "outputs": [],
      "stateMutability": "nonpayable",
      "type": "function"
    },
    {
      "inputs": [],
      "name": "uncage",
      "outputs": [],
      "stateMutability": "nonpayable",
      "type": "function"
    },
    {
      "inputs": [],
      "name": "pause",
      "outputs": [],
      "stateMutability": "nonpayable",
      "type": "function"
    },
    {
      "inputs": [],
      "name": "unpause",
      "outputs": [],
      "stateMutability": "nonpayable",
      "type": "function"
    }
  ],
  "bytecode": "0x608060405234801561001057600080fd5b506120a4806100206000396000f3fe608060405234801561001057600080fd5b50600436106100b45760003560e01c8063692450091161007157806369245009146101425780638456cb591461014a578063957aa58c14610152578063c0c53b8b14610169578063d63b23b21461017c578063e3b3932a1461018457600080fd5b80631ebce593146100b95780632630c12f146100ce57806328e49a42146100fe5780633f4ba83a14610111578063530e784f146101195780635c975abb1461012c575b600080fd5b6100cc6100c7366004611d3b565b610197565b005b6097546100e1906001600160a01b031681565b6040516001600160a01b0390911681526020015b60405180910390f35b6099546100e1906001600160a01b031681565b6100cc610bc4565b6100cc610127366004611df0565b610e39565b60335460ff1660405190151581526020016100f5565b6100cc611120565b6100cc6113b3565b61015b609a5481565b6040519081526020016100f5565b6100cc610177366004611e14565b611625565b6100cc611865565b6098546100e1906001600160a01b031681565b6002606554036101ee5760405162461bcd60e51b815260206004820152601f60248201527f5265656e7472616e637947756172643a207265656e7472616e742063616c6c0060448201526064015b60405180910390fd5b60026065556101fb611b26565b60975460405163285da53b60e01b8152600481018990526001600160a01b039091169063285da53b90602401600060405180830381600087803b15801561024157600080fd5b505af1158015610255573d6000803e3d6000fd5b50505050609a5460011461027b5760405162461bcd60e51b81526004016101e590611e5f565b846000036102e65760405162461bcd60e51b815260206004820152603260248201527f4c69717569646174696f6e456e67696e652f7a65726f2d646562742d76616c75604482015271194b5d1bcb58994b5b1a5c5d5a59185d195960721b60648201526084016101e5565b836000036103555760405162461bcd60e51b815260206004820152603660248201527f4c69717569646174696f6e456e67696e652f7a65726f2d6d61782d646562742d6044820152751d985b1d594b5d1bcb58994b5b1a5c5d5a59185d195960521b60648201526084016101e5565b61038e6040518060c001604052806000815260200160008152602001600081526020016000815260200160008152602001600081525090565b609854604051630a76216560e21b8152600481018a90526001600160a01b038981166024830152909116906329d88594906044016040805180830381865afa1580156103de573d6000803e3d6000fd5b505050506040513d601f19601f820116820180604052508101906104029190611e96565b60208381019190915290825260408051606081018252600080825281840181905281830152609854825163d868246160e01b8152925191936001600160a01b039091169263d868246192600480830193928290030181865afa15801561046c573d6000803e3d6000fd5b505050506040513d601f19601f820116820180604052508101906104909190611eba565b6001600160a01b03166328c84bbd8a6040518263ffffffff1660e01b81526004016104bd91815260200190565b602060405180830381865afa1580156104da573d6000803e3d6000fd5b505050506040513d601f19601f820116820180604052508101906104fe9190611eba565b6001600160a01b0390811682526098546040805163d868246160e01b81529051919092169163d86824619160048083019260209291908290030181865afa15801561054d573d6000803e3d6000fd5b505050506040513d601f19601f820116820180604052508101906105719190611eba565b6001600160a01b0316638c492d078a6040518263ffffffff1660e01b815260040161059e91815260200190565b602060405180830381865afa1580156105bb573d6000803e3d6000fd5b505050506040513d601f19601f820116820180604052508101906105df9190611ed7565b6020808301919091526098546040805163d868246160e01b815290516001600160a01b039092169263d8682461926004808401938290030181865afa15801561062c573d6000803e3d6000fd5b505050506040513d601f19601f820116820180604052508101906106509190611eba565b6001600160a01b031663a09b0fe08a6040518263ffffffff1660e01b815260040161067d91815260200190565b602060405180830381865afa15801561069a573d6000803e3d6000fd5b505050506040513d601f19601f820116820180604052508101906106be9190611ed7565b604082015280516001600160a01b0381166107265760405162461bcd60e51b815260206004820152602260248201527f4c69717569646174696f6e456e67696e652f6e6f742d7365742d737472617465604482015261677960f01b60648201526084016101e5565b6000826020015111801561075a57506040820151602084015161074891611b6e565b6020830151845161075891611b6e565b105b6107b15760405162461bcd60e51b815260206004820152602260248201527f4c69717569646174696f6e456e67696e652f706f736974696f6e2d69732d7361604482015261666560f01b60648201526084016101e5565b60985460995460405163b4ac08bb60e01b81526001600160a01b03918216600482015291169063b4ac08bb90602401602060405180830381865afa1580156107fd573d6000803e3d6000fd5b505050506040513d601f19601f820116820180604052508101906108219190611ed7565b836040018181525050806001600160a01b03166316d8d2918b856020015186600001518d8d8d338e8e8e6040518b63ffffffff1660e01b81526004016108709a99989796959493929190611ef0565b600060405180830381600087803b15801561088a57600080fd5b505af115801561089e573d6000803e3d6000fd5b5050609854604051630a76216560e21b8152600481018e90526001600160a01b038d8116602483015290911692506329d8859491506044016040805180830381865afa1580156108f2573d6000803e3d6000fd5b505050506040513d601f19601f820116820180604052508101906109169190611e96565b6080850181905260608501919091526020840151116109855760405162461bcd60e51b815260206004820152602560248201527f4c69717569646174696f6e456e67696e652f646562742d6e6f742d6c6971756960448201526419185d195960da1b60648201526084016101e5565b6109ae82604001516109a885608001518660200151611b8390919063ffffffff16565b90611b6e565b60a08401819052604080850151609854609954925163b4ac08bb60e01b81526001600160a01b039384166004820152610a35939091169063b4ac08bb90602401602060405180830381865afa158015610a0b573d6000803e3d6000fd5b505050506040513d601f19601f82011682018060405250810190610a2f9190611ed7565b90611b83565b1015610a925760405162461bcd60e51b815260206004820152602660248201527f4c69717569646174696f6e456e67696e652f7061796d656e742d6e6f742d726560448201526518d95a5d995960d21b60648201526084016101e5565b6060830151158015610aa8575060008360800151115b15610bb357600160ff1b836080015110610b045760405162461bcd60e51b815260206004820152601a60248201527f4c69717569646174696f6e456e67696e652f6f766572666c6f7700000000000060448201526064016101e5565b60985460995460808501516001600160a01b039283169263b1df2594928e928e9283921690600090610b3590611f84565b6040516001600160e01b031960e089901b16815260048101969096526001600160a01b039485166024870152928416604486015292166064840152608483019190915260a482015260c401600060405180830381600087803b158015610b9a57600080fd5b505af1158015610bae573d6000803e3d6000fd5b505050505b505060016065555050505050505050565b6098546040805163c8cc243f60e01b815290516000926001600160a01b03169163c8cc243f9160048083019260209291908290030181865afa158015610c0e573d6000803e3d6000fd5b505050506040513d601f19601f82011682018060405250810190610c329190611eba565b9050806001600160a01b03166391d14854826001600160a01b031663e58378bb6040518163ffffffff1660e01b8152600401602060405180830381865afa158015610c81573d6000803e3d6000fd5b505050506040513d601f19601f82011682018060405250810190610ca59190611ed7565b6040516001600160e01b031960e084901b1681526004810191909152336024820152604401602060405180830381865afa158015610ce7573d6000803e3d6000fd5b505050506040513d601f19601f82011682018060405250810190610d0b9190611fa0565b80610de85750806001600160a01b03166391d14854826001600160a01b031663b536818a6040518163ffffffff1660e01b8152600401602060405180830381865afa158015610d5e573d6000803e3d6000fd5b505050506040513d601f19601f82011682018060405250810190610d829190611ed7565b6040516001600160e01b031960e084901b1681526004810191909152336024820152604401602060405180830381865afa158015610dc4573d6000803e3d6000fd5b505050506040513d601f19601f82011682018060405250810190610de89190611fa0565b610e2e5760405162461bcd60e51b815260206004820152601760248201527621286f776e6572526f6c65206f7220676f76526f6c652960481b60448201526064016101e5565b610e36611b8f565b50565b6098546040805163c8cc243f60e01b815290516000926001600160a01b03169163c8cc243f9160048083019260209291908290030181865afa158015610e83573d6000803e3d6000fd5b505050506040513d601f19601f82011682018060405250810190610ea79190611eba565b9050806001600160a01b03166391d14854826001600160a01b031663e58378bb6040518163ffffffff1660e01b8152600401602060405180830381865afa158015610ef6573d6000803e3d6000fd5b505050506040513d601f19601f82011682018060405250810190610f1a9190611ed7565b6040516001600160e01b031960e084901b1681526004810191909152336024820152604401602060405180830381865afa158015610f5c573d6000803e3d6000fd5b505050506040513d601f19601f82011682018060405250810190610f809190611fa0565b8061105d5750806001600160a01b03166391d14854826001600160a01b031663d7a47a696040518163ffffffff1660e01b8152600401602060405180830381865afa158015610fd3573d6000803e3d6000fd5b505050506040513d601f19601f82011682018060405250810190610ff79190611ed7565b6040516001600160e01b031960e084901b1681526004810191909152336024820152604401602060405180830381865afa158015611039573d6000803e3d6000fd5b505050506040513d601f19601f8201168201806040525081019061105d9190611fa0565b6110795760405162461bcd60e51b81526004016101e590611fc2565b6001600160a01b0382166110db5760405162461bcd60e51b815260206004820152602360248201527f5f70726963654f7261636c652063616e6e6f74206265207a65726f206164647260448201526265737360e81b60648201526084016101e5565b609a546001146110fd5760405162461bcd60e51b81526004016101e590611e5f565b50609780546001600160a01b0319166001600160a01b0392909216919091179055565b6098546040805163c8cc243f60e01b815290516000926001600160a01b03169163c8cc243f9160048083019260209291908290030181865afa15801561116a573d6000803e3d6000fd5b505050506040513d601f19601f8201168201806040525081019061118e9190611eba565b9050806001600160a01b03166391d14854826001600160a01b031663e58378bb6040518163ffffffff1660e01b8152600401602060405180830381865afa1580156111dd573d6000803e3d6000fd5b505050506040513d601f19601f820116820180604052508101906112019190611ed7565b6040516001600160e01b031960e084901b1681526004810191909152336024820152604401602060405180830381865afa158015611243573d6000803e3d6000fd5b505050506040513d601f19601f820116820180604052508101906112679190611fa0565b806113445750806001600160a01b03166391d14854826001600160a01b031663d7a47a696040518163ffffffff1660e01b8152600401602060405180830381865afa1580156112ba573d6000803e3d6000fd5b505050506040513d601f19601f820116820180604052508101906112de9190611ed7565b6040516001600160e01b031960e084901b1681526004810191909152336024820152604401602060405180830381865afa158015611320573d6000803e3d6000fd5b505050506040513d601f19601f820116820180604052508101906113449190611fa0565b6113605760405162461bcd60e51b81526004016101e590611fc2565b609a546001146113825760405162461bcd60e51b81526004016101e590611e5f565b6000609a8190556040517fbf689b4aae670d200b1d2b971ace2e0c3bef88a9c5e93f36705c7b86eab630b99190a150565b6098546040805163c8cc243f60e01b815290516000926001600160a01b03169163c8cc243f9160048083019260209291908290030181865afa1580156113fd573d6000803e3d6000fd5b505050506040513d601f19601f820116820180604052508101906114219190611eba565b9050806001600160a01b03166391d14854826001600160a01b031663e58378bb6040518163ffffffff1660e01b8152600401602060405180830381865afa158015611470573d6000803e3d6000fd5b505050506040513d601f19601f820116820180604052508101906114949190611ed7565b6040516001600160e01b031960e084901b1681526004810191909152336024820152604401602060405180830381865afa1580156114d6573d6000803e3d6000fd5b505050506040513d601f19601f820116820180604052508101906114fa9190611fa0565b806115d75750806001600160a01b03166391d14854826001600160a01b031663b536818a6040518163ffffffff1660e01b8152600401602060405180830381865afa15801561154d573d6000803e3d6000fd5b505050506040513d601f19601f820116820180604052508101906115719190611ed7565b6040516001600160e01b031960e084901b1681526004810191909152336024820152604401602060405180830381865afa1580156115b3573d6000803e3d6000fd5b505050506040513d601f19601f820116820180604052508101906115d79190611fa0565b61161d5760405162461bcd60e51b815260206004820152601760248201527621286f776e6572526f6c65206f7220676f76526f6c652960481b60448201526064016101e5565b610e36611be1565b600054610100900460ff16158080156116455750600054600160ff909116105b8061165f5750303b15801561165f575060005460ff166001145b6116c25760405162461bcd60e51b815260206004820152602e60248201527f496e697469616c697a61626c653a20636f6e747261637420697320616c72656160448201526d191e481a5b9a5d1a585b1a5e995960921b60648201526084016101e5565b6000805460ff1916600117905580156116e5576000805461ff0019166101001790555b6116ed611c1e565b6116f5611c4d565b836001600160a01b0316636f3a3bfc6040518163ffffffff1660e01b81526004016020604051808303816000875af1158015611735573d6000803e3d6000fd5b505050506040513d601f19601f820116820180604052508101906117599190611ed7565b5083609860006101000a8154816001600160a01b0302191690836001600160a01b03160217905550826001600160a01b0316632a608d5b6040518163ffffffff1660e01b8152600401602060405180830381865afa1580156117bf573d6000803e3d6000fd5b505050506040513d601f19601f820116820180604052508101906117e39190611ed7565b50609980546001600160a01b038086166001600160a01b03199283161790925560978054928516929091169190911790556001609a55801561185f576000805461ff0019169055604051600181527f7f26b83ff96e1f2b6a682f133852f6798a09c465da95921460cefb38474024989060200160405180910390a15b50505050565b6098546040805163c8cc243f60e01b815290516000926001600160a01b03169163c8cc243f9160048083019260209291908290030181865afa1580156118af573d6000803e3d6000fd5b505050506040513d601f19601f820116820180604052508101906118d39190611eba565b9050806001600160a01b03166391d14854826001600160a01b031663e58378bb6040518163ffffffff1660e01b8152600401602060405180830381865afa158015611922573d6000803e3d6000fd5b505050506040513d601f19601f820116820180604052508101906119469190611ed7565b6040516001600160e01b031960e084901b1681526004810191909152336024820152604401602060405180830381865afa158015611988573d6000803e3d6000fd5b505050506040513d601f19601f820116820180604052508101906119ac9190611fa0565b80611a895750806001600160a01b03166391d14854826001600160a01b031663d7a47a696040518163ffffffff1660e01b8152600401602060405180830381865afa1580156119ff573d6000803e3d6000fd5b505050506040513d601f19601f82011682018060405250810190611a239190611ed7565b6040516001600160e01b031960e084901b1681526004810191909152336024820152604401602060405180830381865afa158015611a65573d6000803e3d6000fd5b505050506040513d601f19601f82011682018060405250810190611a899190611fa0565b611aa55760405162461bcd60e51b81526004016101e590611fc2565b609a5415611af55760405162461bcd60e51b815260206004820152601b60248201527f4c69717569646174696f6e456e67696e652f6e6f742d6361676564000000000060448201526064016101e5565b6001609a556040517f1868a6ced217213f36be87ba9aee25cde5381b42e85c8f88e73b18772c0bd07390600090a150565b60335460ff1615611b6c5760405162461bcd60e51b815260206004820152601060248201526f14185d5cd8589b194e881c185d5cd95960821b60448201526064016101e5565b565b6000611b7a8284611ff9565b90505b92915050565b6000611b7a8284612010565b611b97611c7c565b6033805460ff191690557f5db9ee0a495bf2e6ff9c91a7834c1ba4fdd244a5e8aa4e537bd38aeae4b073aa335b6040516001600160a01b03909116815260200160405180910390a1565b611be9611b26565b6033805460ff191660011790557f62e78cea01bee320cd4e420270b5ea74000d11b0c9f74754ebdbfc544b05a258611bc43390565b600054610100900460ff16611c455760405162461bcd60e51b81526004016101e590612023565b611b6c611cc5565b600054610100900460ff16611c745760405162461bcd60e51b81526004016101e590612023565b611b6c611cf8565b60335460ff16611b6c5760405162461bcd60e51b815260206004820152601460248201527314185d5cd8589b194e881b9bdd081c185d5cd95960621b60448201526064016101e5565b600054610100900460ff16611cec5760405162461bcd60e51b81526004016101e590612023565b6033805460ff19169055565b600054610100900460ff16611d1f5760405162461bcd60e51b81526004016101e590612023565b6001606555565b6001600160a01b0381168114610e3657600080fd5b600080600080600080600060c0888a031215611d5657600080fd5b873596506020880135611d6881611d26565b955060408801359450606088013593506080880135611d8681611d26565b925060a088013567ffffffffffffffff80821115611da357600080fd5b818a0191508a601f830112611db757600080fd5b813581811115611dc657600080fd5b8b6020828501011115611dd857600080fd5b60208301945080935050505092959891949750929550565b600060208284031215611e0257600080fd5b8135611e0d81611d26565b9392505050565b600080600060608486031215611e2957600080fd5b8335611e3481611d26565b92506020840135611e4481611d26565b91506040840135611e5481611d26565b809150509250925092565b6020808252601a908201527f4c69717569646174696f6e456e67696e652f6e6f742d6c697665000000000000604082015260600190565b60008060408385031215611ea957600080fd5b505080516020909101519092909150565b600060208284031215611ecc57600080fd5b8151611e0d81611d26565b600060208284031215611ee957600080fd5b5051919050565b8a8152602081018a9052604081018990526001600160a01b0388811660608301526080820188905260a0820187905285811660c0830152841660e08201526101206101008201819052810182905260006101408385828501376000838501820152601f909301601f19169091019091019a9950505050505050505050565b634e487b7160e01b600052601160045260246000fd5b6000600160ff1b8201611f9957611f99611f6e565b5060000390565b600060208284031215611fb257600080fd5b81518015158114611e0d57600080fd5b6020808252601f908201527f21286f776e6572526f6c65206f722073686f7753746f70706572526f6c652900604082015260600190565b8082028115828204841417611b7d57611b7d611f6e565b81810381811115611b7d57611b7d611f6e565b6020808252602b908201527f496e697469616c697a61626c653a20636f6e7472616374206973206e6f74206960408201526a6e697469616c697a696e6760a81b60608201526080019056fea2646970667358221220a7b521d57132768754e26cc10eced83cc1ab4d557fcdf132961b3c85b140a90364736f6c63430008110033",
  "immutableReferences": {},
  "source": "// SPDX-License-Identifier: AGPL-3.0-or-later\n\npragma solidity 0.8.17;\npragma experimental ABIEncoderV2;\n\nimport \"@openzeppelin/contracts-upgradeable/security/PausableUpgradeable.sol\";\nimport \"@openzeppelin/contracts-upgradeable/access/AccessControlUpgradeable.sol\";\nimport \"@openzeppelin/contracts-upgradeable/security/ReentrancyGuardUpgradeable.sol\";\nimport \"@openzeppelin/contracts-upgradeable/utils/math/SafeMathUpgradeable.sol\";\n\nimport \"../interfaces/IBookKeeper.sol\";\nimport \"../interfaces/ISystemDebtEngine.sol\";\nimport \"../interfaces/ILiquidationEngine.sol\";\nimport \"../interfaces/ILiquidationStrategy.sol\";\nimport \"../interfaces/ICagable.sol\";\nimport \"../interfaces/ISetPrice.sol\";\n\n/// @title LiquidationEngine\n/** @notice A contract which is the manager for all of the liquidations of the protocol.\n    LiquidationEngine will be the interface for the liquidator to trigger any positions into the liquidation process.\n*/\n\ncontract LiquidationEngine is PausableUpgradeable, ReentrancyGuardUpgradeable, ICagable, ILiquidationEngine {\n  using SafeMathUpgradeable for uint256;\n  address public priceOracle;\n\n  struct LocalVars {\n    uint256 positionLockedCollateral;\n    uint256 positionDebtShare;\n    uint256 systemDebtEngineStablecoinBefore;\n    uint256 newPositionLockedCollateral;\n    uint256 newPositionDebtShare;\n    uint256 wantStablecoinValueFromLiquidation;\n  }\n\n  struct CollateralPoolLocalVars {\n    address strategy;\n    uint256 priceWithSafetyMargin; // [ray]\n    uint256 debtAccumulatedRate; // [ray]\n  }\n\n  IBookKeeper public bookKeeper; // CDP Engine\n  ISystemDebtEngine public systemDebtEngine; // Debt Engine\n  uint256 public override live; // Active Flag\n\n  modifier onlyOwnerOrShowStopper() {\n    IAccessControlConfig _accessControlConfig = IAccessControlConfig(IBookKeeper(bookKeeper).accessControlConfig());\n    require(\n      _accessControlConfig.hasRole(_accessControlConfig.OWNER_ROLE(), msg.sender) ||\n        _accessControlConfig.hasRole(_accessControlConfig.SHOW_STOPPER_ROLE(), msg.sender),\n      \"!(ownerRole or showStopperRole)\"\n    );\n    _;\n  }\n\n  modifier onlyOwnerOrGov() {\n    IAccessControlConfig _accessControlConfig = IAccessControlConfig(IBookKeeper(bookKeeper).accessControlConfig());\n    require(\n      _accessControlConfig.hasRole(_accessControlConfig.OWNER_ROLE(), msg.sender) ||\n        _accessControlConfig.hasRole(_accessControlConfig.GOV_ROLE(), msg.sender),\n      \"!(ownerRole or govRole)\"\n    );\n    _;\n  }\n\n  // --- Init ---\n  function initialize(address _bookKeeper, address _systemDebtEngine, address _priceOracle) external initializer {\n    PausableUpgradeable.__Pausable_init();\n    ReentrancyGuardUpgradeable.__ReentrancyGuard_init();\n\n    IBookKeeper(_bookKeeper).totalStablecoinIssued(); // Sanity Check Call\n    bookKeeper = IBookKeeper(_bookKeeper);\n\n    ISystemDebtEngine(_systemDebtEngine).surplusBuffer(); // Sanity Check Call\n    systemDebtEngine = ISystemDebtEngine(_systemDebtEngine);\n\n    priceOracle = _priceOracle;\n\n    live = 1;\n  }\n\n  // --- Math ---\n  uint256 constant WAD = 10**18;\n\n  function liquidate(\n    bytes32 _collateralPoolId,\n    address _positionAddress,\n    uint256 _debtShareToBeLiquidated, // [rad]\n    uint256 _maxDebtShareToBeLiquidated, // [wad]\n    address _collateralRecipient,\n    bytes calldata _data\n  ) external override nonReentrant whenNotPaused {\n\n    ISetPrice(priceOracle).setPrice(_collateralPoolId);\n\n    require(live == 1, \"LiquidationEngine/not-live\");\n    require(_debtShareToBeLiquidated != 0, \"LiquidationEngine/zero-debt-value-to-be-liquidated\");\n    require(_maxDebtShareToBeLiquidated != 0, \"LiquidationEngine/zero-max-debt-value-to-be-liquidated\");\n\n    LocalVars memory _vars;\n\n    (_vars.positionLockedCollateral, _vars.positionDebtShare) = bookKeeper.positions(\n      _collateralPoolId,\n      _positionAddress\n    );\n    // 1. Check if the position is underwater\n    CollateralPoolLocalVars memory _collateralPoolLocalVars;\n    _collateralPoolLocalVars.strategy = ICollateralPoolConfig(bookKeeper.collateralPoolConfig()).getStrategy(\n      _collateralPoolId\n    );\n    _collateralPoolLocalVars.priceWithSafetyMargin = ICollateralPoolConfig(bookKeeper.collateralPoolConfig())\n      .getPriceWithSafetyMargin(_collateralPoolId); // [ray]\n    _collateralPoolLocalVars.debtAccumulatedRate = ICollateralPoolConfig(bookKeeper.collateralPoolConfig())\n      .getDebtAccumulatedRate(_collateralPoolId); // [ray]\n\n    ILiquidationStrategy _strategy = ILiquidationStrategy(_collateralPoolLocalVars.strategy);\n    require(address(_strategy) != address(0), \"LiquidationEngine/not-set-strategy\");\n\n    // (positionLockedCollateral [wad] * priceWithSafetyMargin [ray]) [rad]\n    // (positionDebtShare [wad] * debtAccumulatedRate [ray]) [rad]\n    require(\n      _collateralPoolLocalVars.priceWithSafetyMargin > 0 &&\n        _vars.positionLockedCollateral.mul(_collateralPoolLocalVars.priceWithSafetyMargin) <\n        _vars.positionDebtShare.mul(_collateralPoolLocalVars.debtAccumulatedRate),\n      \"LiquidationEngine/position-is-safe\"\n    );\n\n    _vars.systemDebtEngineStablecoinBefore = bookKeeper.stablecoin(address(systemDebtEngine));\n\n    _strategy.execute(\n      _collateralPoolId,\n      _vars.positionDebtShare,\n      _vars.positionLockedCollateral,\n      _positionAddress,\n      _debtShareToBeLiquidated,\n      _maxDebtShareToBeLiquidated,\n      msg.sender,\n      _collateralRecipient,\n      _data\n    );\n    (_vars.newPositionLockedCollateral, _vars.newPositionDebtShare) = bookKeeper.positions(\n      _collateralPoolId,\n      _positionAddress\n    );\n    require(_vars.newPositionDebtShare < _vars.positionDebtShare, \"LiquidationEngine/debt-not-liquidated\");\n\n    // (positionDebtShare [wad] - newPositionDebtShare [wad]) * debtAccumulatedRate [ray]\n\n    _vars.wantStablecoinValueFromLiquidation = _vars.positionDebtShare.sub(_vars.newPositionDebtShare).mul(\n      _collateralPoolLocalVars.debtAccumulatedRate\n    ); // [rad]\n    require(\n      bookKeeper.stablecoin(address(systemDebtEngine)).sub(_vars.systemDebtEngineStablecoinBefore) >=\n        _vars.wantStablecoinValueFromLiquidation,\n      \"LiquidationEngine/payment-not-received\"\n    );\n\n    // If collateral has been depleted from liquidation whilst there is remaining debt in the position\n    if (_vars.newPositionLockedCollateral == 0 && _vars.newPositionDebtShare > 0) {\n      // Overflow check\n      require(_vars.newPositionDebtShare < 2**255, \"LiquidationEngine/overflow\");\n      // Record the bad debt to the system and close the position\n      bookKeeper.confiscatePosition(\n        _collateralPoolId,\n        _positionAddress,\n        _positionAddress,\n        address(systemDebtEngine),\n        0,\n        -int256(_vars.newPositionDebtShare)\n      );\n    }\n  }\n\n  function setPriceOracle(address _priceOracle) external onlyOwnerOrShowStopper {\n    require(_priceOracle != address(0), \"_priceOracle cannot be zero address\");\n    require(live == 1, \"LiquidationEngine/not-live\");\n    priceOracle = _priceOracle;\n  }\n\n  /// @dev access: OWNER_ROLE, SHOW_STOPPER_ROLE\n  function cage() external override onlyOwnerOrShowStopper {\n    require(live == 1, \"LiquidationEngine/not-live\");\n    live = 0;\n    emit LogCage();\n  }\n\n  /// @dev access: OWNER_ROLE, SHOW_STOPPER_ROLE\n  function uncage() external override onlyOwnerOrShowStopper {\n    require(live == 0, \"LiquidationEngine/not-caged\");\n    live = 1;\n    emit LogUncage();\n  }\n\n  // --- pause ---\n  /// @dev access: OWNER_ROLE, GOV_ROLE\n  function pause() external onlyOwnerOrGov {\n    _pause();\n  }\n\n  /// @dev access: OWNER_ROLE, GOV_ROLE\n  function unpause() external onlyOwnerOrGov {\n    _unpause();\n  }\n}\n",
  "sourcePath": "/Users/sangjun.lee/Sangjun/fathom-stablecoin-smart-contracts/contracts/8.17/stablecoin-core/LiquidationEngine.sol",
  "compiler": {
    "name": "solc",
    "version": "0.8.17+commit.8df45f5f.Emscripten.clang"
  },
  "schemaVersion": "3.4.10",
  "updatedAt": "2022-10-28T11:53:17.840Z",
  "devdoc": {
    "kind": "dev",
    "methods": {
      "cage()": {
        "details": "access: OWNER_ROLE, SHOW_STOPPER_ROLE"
      },
      "pause()": {
        "details": "access: OWNER_ROLE, GOV_ROLE"
      },
      "paused()": {
        "details": "Returns true if the contract is paused, and false otherwise."
      },
      "uncage()": {
        "details": "access: OWNER_ROLE, SHOW_STOPPER_ROLE"
      },
      "unpause()": {
        "details": "access: OWNER_ROLE, GOV_ROLE"
      }
    },
    "version": 1
  },
  "userdoc": {
    "kind": "user",
    "methods": {},
    "notice": "A contract which is the manager for all of the liquidations of the protocol. LiquidationEngine will be the interface for the liquidator to trigger any positions into the liquidation process.",
    "version": 1
  }
}