{
  "contractName": "MockStdReference",
  "abi": [
    {
      "inputs": [
        {
          "internalType": "string",
          "name": "_base",
          "type": "string"
        },
        {
          "internalType": "string",
          "name": "_quote",
          "type": "string"
        }
      ],
      "name": "getReferenceData",
      "outputs": [
        {
          "components": [
            {
              "internalType": "uint256",
              "name": "rate",
              "type": "uint256"
            },
            {
              "internalType": "uint256",
              "name": "lastUpdatedBase",
              "type": "uint256"
            },
            {
              "internalType": "uint256",
              "name": "lastUpdatedQuote",
              "type": "uint256"
            }
          ],
          "internalType": "struct IStdReference.ReferenceData",
          "name": "data",
          "type": "tuple"
        }
      ],
      "stateMutability": "pure",
      "type": "function"
    },
    {
      "inputs": [
        {
          "internalType": "string[]",
          "name": "_bases",
          "type": "string[]"
        },
        {
          "internalType": "string[]",
          "name": "_quotes",
          "type": "string[]"
        }
      ],
      "name": "getReferenceDataBulk",
      "outputs": [
        {
          "components": [
            {
              "internalType": "uint256",
              "name": "rate",
              "type": "uint256"
            },
            {
              "internalType": "uint256",
              "name": "lastUpdatedBase",
              "type": "uint256"
            },
            {
              "internalType": "uint256",
              "name": "lastUpdatedQuote",
              "type": "uint256"
            }
          ],
          "internalType": "struct IStdReference.ReferenceData[]",
          "name": "arr",
          "type": "tuple[]"
        }
      ],
      "stateMutability": "pure",
      "type": "function"
    }
  ],
  "bytecode": "0x608060405234801561001057600080fd5b50610395806100206000396000f3fe608060405234801561001057600080fd5b50600436106100365760003560e01c806365555bcc1461003b578063e42a071b14610064575b600080fd5b61004e61004936600461017f565b610084565b60405161005b91906101e3565b60405180910390f35b6100776100723660046102a3565b6100bf565b60405161005b91906102fd565b6100a860405180606001604052806000815260200160008152602001600081525090565b600080825260208201819052604082015292915050565b60605b92915050565b634e487b7160e01b600052604160045260246000fd5b604051601f8201601f1916810167ffffffffffffffff81118282101715610107576101076100c8565b604052919050565b600082601f83011261012057600080fd5b813567ffffffffffffffff81111561013a5761013a6100c8565b61014d601f8201601f19166020016100de565b81815284602083860101111561016257600080fd5b816020850160208301376000918101602001919091529392505050565b6000806040838503121561019257600080fd5b823567ffffffffffffffff808211156101aa57600080fd5b6101b68683870161010f565b935060208501359150808211156101cc57600080fd5b506101d98582860161010f565b9150509250929050565b815181526020808301519082015260408083015190820152606081016100c2565b600082601f83011261021557600080fd5b8135602067ffffffffffffffff80831115610232576102326100c8565b8260051b6102418382016100de565b938452858101830193838101908886111561025b57600080fd5b84880192505b85831015610297578235848111156102795760008081fd5b6102878a87838c010161010f565b8352509184019190840190610261565b98975050505050505050565b600080604083850312156102b657600080fd5b823567ffffffffffffffff808211156102ce57600080fd5b6102da86838701610204565b935060208501359150808211156102f057600080fd5b506101d985828601610204565b6020808252825182820181905260009190848201906040850190845b81811015610353576103408385518051825260208082015190830152604090810151910152565b9284019260609290920191600101610319565b5090969550505050505056fea264697066735822122072cdc6a9944e80fba5a91c380a5279e054d145b457dedf4bc24d2c1ee5cf213064736f6c63430008110033",
  "immutableReferences": {},
  "source": "// SPDX-License-Identifier: AGPL-3.0-or-later\n\npragma solidity 0.8.17;\npragma experimental ABIEncoderV2;\n\nimport \"../interfaces/IPriceFeed.sol\";\nimport \"../interfaces/IStdReference.sol\";\n\ncontract MockStdReference is IStdReference {\n  function getReferenceData(string memory _base, string memory _quote)\n    external\n    pure\n    override\n    returns (IStdReference.ReferenceData memory data)\n  {\n    data.rate = 0;\n    data.lastUpdatedBase = 0;\n    data.lastUpdatedQuote = 0;\n  }\n\n  function getReferenceDataBulk(string[] memory _bases, string[] memory _quotes)\n    external\n    pure\n    override\n    returns (IStdReference.ReferenceData[] memory arr)\n  {\n    return arr;\n  }\n}\n",
  "sourcePath": "/Users/sangjun.lee/Sangjun/fathom-stablecoin-smart-contracts/contracts/8.17/mocks/MockStdReference.sol",
  "compiler": {
    "name": "solc",
    "version": "0.8.17+commit.8df45f5f.Emscripten.clang"
  },
  "schemaVersion": "3.4.10",
  "updatedAt": "2022-10-27T10:35:28.538Z",
  "devdoc": {
    "kind": "dev",
    "methods": {},
    "version": 1
  },
  "userdoc": {
    "kind": "user",
    "methods": {
      "getReferenceData(string,string)": {
        "notice": "Returns the price data for the given base/quote pair. Revert if not available."
      },
      "getReferenceDataBulk(string[],string[])": {
        "notice": "Similar to getReferenceData, but with multiple base/quote pairs at once."
      }
    },
    "version": 1
  }
}