{
  "contractName": "MockDexPriceOracle",
  "abi": [
    {
      "inputs": [
        {
          "internalType": "address",
          "name": "token0",
          "type": "address"
        },
        {
          "internalType": "address",
          "name": "token1",
          "type": "address"
        }
      ],
      "name": "getPrice",
      "outputs": [
        {
          "internalType": "uint256",
          "name": "",
          "type": "uint256"
        },
        {
          "internalType": "uint256",
          "name": "",
          "type": "uint256"
        }
      ],
      "stateMutability": "view",
      "type": "function"
    },
    {
      "inputs": [
        {
          "internalType": "uint256",
          "name": "_mockPrice",
          "type": "uint256"
        }
      ],
      "name": "changePrice",
      "outputs": [],
      "stateMutability": "nonpayable",
      "type": "function"
    }
  ],
  "bytecode": "0x608060405234801561001057600080fd5b50610118806100206000396000f3fe6080604052348015600f57600080fd5b506004361060325760003560e01c8063a2b40d19146037578063ac41865a146049575b600080fd5b604760423660046081565b600055565b005b6068605436600460b4565b5050600054904267ffffffffffffffff1690565b6040805192835260208301919091520160405180910390f35b600060208284031215609257600080fd5b5035919050565b80356001600160a01b038116811460af57600080fd5b919050565b6000806040838503121560c657600080fd5b60cd836099565b915060d9602084016099565b9050925092905056fea2646970667358221220f2230a37c5c8ce909c58808ef605a692117f4a35825e804771953af830c857cb64736f6c63430008110033",
  "immutableReferences": {},
  "source": "// SPDX-License-Identifier: AGPL-3.0-or-later\n\npragma solidity 0.8.17;\n\n\ncontract MockDexPriceOracle{\n    uint256 mockPrice;\n\n  /// @dev Return the wad price of token0/token1, multiplied by 1e18\n  /// NOTE: (if you have 1 token0 how much you can sell it for token1)\n  function getPrice(address token0, address token1) external view returns (uint256, uint256) {\n    return (mockPrice, uint64(block.timestamp));\n  }\n\n  function changePrice(uint256 _mockPrice) external {\n      mockPrice = _mockPrice;\n  }\n}\n",
  "sourcePath": "/Users/sangjun.lee/Sangjun/fathom-stablecoin-smart-contracts/contracts/8.17/mocks/MockDexPriceOracle.sol",
  "compiler": {
    "name": "solc",
    "version": "0.8.17+commit.8df45f5f.Emscripten.clang"
  },
  "schemaVersion": "3.4.10",
  "updatedAt": "2022-11-24T09:45:49.160Z",
  "devdoc": {
    "kind": "dev",
    "methods": {
      "getPrice(address,address)": {
        "details": "Return the wad price of token0/token1, multiplied by 1e18 NOTE: (if you have 1 token0 how much you can sell it for token1)"
      }
    },
    "version": 1
  },
  "userdoc": {
    "kind": "user",
    "methods": {},
    "version": 1
  }
}