{
  "contractName": "MockFathomOracle",
  "abi": [
    {
      "inputs": [
        {
          "internalType": "address",
          "name": "",
          "type": "address"
        },
        {
          "internalType": "address",
          "name": "",
          "type": "address"
        }
      ],
      "name": "getPrice",
      "outputs": [
        {
          "internalType": "uint256",
          "name": "price",
          "type": "uint256"
        },
        {
          "internalType": "uint256",
          "name": "lastUpdate",
          "type": "uint256"
        }
      ],
      "stateMutability": "view",
      "type": "function"
    }
  ],
  "bytecode": "0x608060405234801561001057600080fd5b5060d98061001f6000396000f3fe6080604052348015600f57600080fd5b506004361060285760003560e01c8063ac41865a14602d575b600080fd5b604160383660046075565b50600091829150565b6040805192835260208301919091520160405180910390f35b80356001600160a01b0381168114607057600080fd5b919050565b60008060408385031215608757600080fd5b608e83605a565b9150609a60208401605a565b9050925092905056fea2646970667358221220f3966329e6273f265857dd5f4bd31e9868e83659fabc5991ace910070c33b81564736f6c63430008110033",
  "immutableReferences": {},
  "source": "// SPDX-License-Identifier: AGPL-3.0-or-later\n\npragma solidity 0.8.17;\n\nimport \"../interfaces/IFathomOracle.sol\";\n\ncontract MockFathomOracle is IFathomOracle {\n  function getPrice(address, address) external view override returns (uint256 price, uint256 lastUpdate) {\n    return (0, 0);\n  }\n}\n",
  "sourcePath": "/Users/sangjun.lee/Sangjun/fathom-stablecoin-smart-contracts/contracts/8.17/mocks/MockFathomOracle.sol",
  "compiler": {
    "name": "solc",
    "version": "0.8.17+commit.8df45f5f.Emscripten.clang"
  },
  "schemaVersion": "3.4.10",
  "updatedAt": "2022-10-21T07:57:45.003Z",
  "devdoc": {
    "kind": "dev",
    "methods": {},
    "version": 1
  },
  "userdoc": {
    "kind": "user",
    "methods": {},
    "version": 1
  }
}