{
  "contractName": "MockFlashLendingCalleeMintable",
  "abi": [
    {
      "anonymous": false,
      "inputs": [
        {
          "indexed": false,
          "internalType": "uint8",
          "name": "version",
          "type": "uint8"
        }
      ],
      "name": "Initialized",
      "type": "event"
    },
    {
      "anonymous": false,
      "inputs": [
        {
          "indexed": false,
          "internalType": "address",
          "name": "account",
          "type": "address"
        }
      ],
      "name": "Paused",
      "type": "event"
    },
    {
      "anonymous": false,
      "inputs": [
        {
          "indexed": false,
          "internalType": "address",
          "name": "account",
          "type": "address"
        }
      ],
      "name": "Unpaused",
      "type": "event"
    },
    {
      "inputs": [],
      "name": "bookKeeper",
      "outputs": [
        {
          "internalType": "contract IBookKeeper",
          "name": "",
          "type": "address"
        }
      ],
      "stateMutability": "view",
      "type": "function"
    },
    {
      "inputs": [],
      "name": "paused",
      "outputs": [
        {
          "internalType": "bool",
          "name": "",
          "type": "bool"
        }
      ],
      "stateMutability": "view",
      "type": "function"
    },
    {
      "inputs": [
        {
          "internalType": "address",
          "name": "_bookKeeper",
          "type": "address"
        }
      ],
      "name": "initialize",
      "outputs": [],
      "stateMutability": "nonpayable",
      "type": "function"
    },
    {
      "inputs": [
        {
          "internalType": "address",
          "name": "caller",
          "type": "address"
        },
        {
          "internalType": "uint256",
          "name": "debtValueToRepay",
          "type": "uint256"
        },
        {
          "internalType": "uint256",
          "name": "collateralAmountToLiquidate",
          "type": "uint256"
        },
        {
          "internalType": "bytes",
          "name": "data",
          "type": "bytes"
        }
      ],
      "name": "flashLendingCall",
      "outputs": [],
      "stateMutability": "nonpayable",
      "type": "function"
    }
  ],
  "bytecode": "0x608060405234801561001057600080fd5b506104da806100206000396000f3fe608060405234801561001057600080fd5b506004361061004c5760003560e01c80635c975abb14610051578063af7bd1421461006c578063c4d66de814610081578063e3b3932a14610094575b600080fd5b60335460ff1660405190151581526020015b60405180910390f35b61007f61007a366004610373565b6100bf565b005b61007f61008f366004610409565b6101c5565b6065546100a7906001600160a01b031681565b6040516001600160a01b039091168152602001610063565b606554604051636a32115160e01b815230600482018190526024820152604481018690526001600160a01b0390911690636a32115190606401600060405180830381600087803b15801561011257600080fd5b505af1158015610126573d6000803e3d6000fd5b5050821591506101be9050576000806101418385018561042d565b60655460405163b5d9932960e01b8152600481018390523060248201526001600160a01b038085166044830152606482018a9052939550919350919091169063b5d9932990608401600060405180830381600087803b1580156101a357600080fd5b505af11580156101b7573d6000803e3d6000fd5b5050505050505b5050505050565b600054610100900460ff16158080156101e55750600054600160ff909116105b806101ff5750303b1580156101ff575060005460ff166001145b6102675760405162461bcd60e51b815260206004820152602e60248201527f496e697469616c697a61626c653a20636f6e747261637420697320616c72656160448201526d191e481a5b9a5d1a585b1a5e995960921b60648201526084015b60405180910390fd5b6000805460ff19166001179055801561028a576000805461ff0019166101001790555b6102926102f7565b606580546001600160a01b0319166001600160a01b03841617905580156102f3576000805461ff0019169055604051600181527f7f26b83ff96e1f2b6a682f133852f6798a09c465da95921460cefb38474024989060200160405180910390a15b5050565b600054610100900460ff1661031e5760405162461bcd60e51b815260040161025e90610459565b610326610328565b565b600054610100900460ff1661034f5760405162461bcd60e51b815260040161025e90610459565b6033805460ff19169055565b6001600160a01b038116811461037057600080fd5b50565b60008060008060006080868803121561038b57600080fd5b85356103968161035b565b94506020860135935060408601359250606086013567ffffffffffffffff808211156103c157600080fd5b818801915088601f8301126103d557600080fd5b8135818111156103e457600080fd5b8960208285010111156103f657600080fd5b9699959850939650602001949392505050565b60006020828403121561041b57600080fd5b81356104268161035b565b9392505050565b6000806040838503121561044057600080fd5b823561044b8161035b565b946020939093013593505050565b6020808252602b908201527f496e697469616c697a61626c653a20636f6e7472616374206973206e6f74206960408201526a6e697469616c697a696e6760a81b60608201526080019056fea2646970667358221220594cb826c5a167a5421e4dbd0c374ecf3b99cd613fcf9510eb16d9e5d8d5746f64736f6c63430008110033",
  "immutableReferences": {},
  "source": "// SPDX-License-Identifier: AGPL-3.0-or-later\n\npragma solidity 0.8.17;\n\nimport \"../interfaces/IFlashLendingCallee.sol\";\nimport \"../interfaces/IBookKeeper.sol\";\nimport \"@openzeppelin/contracts-upgradeable/security/PausableUpgradeable.sol\";\n\nimport \"hardhat/console.sol\";\n\ncontract MockFlashLendingCalleeMintable is IFlashLendingCallee, PausableUpgradeable {\n  IBookKeeper public bookKeeper;\n\n  // --- Init ---\n  function initialize(address _bookKeeper) external initializer {\n    PausableUpgradeable.__Pausable_init();\n\n    bookKeeper = IBookKeeper(_bookKeeper);\n  }\n\n  function flashLendingCall(\n    address caller,\n    uint256 debtValueToRepay, // [rad]\n    uint256 collateralAmountToLiquidate, // [wad]\n    bytes calldata data\n  ) external override {\n    bookKeeper.mintUnbackedStablecoin(address(this), address(this), debtValueToRepay);\n    if (data.length > 0) {\n      (address treasuryAccount, bytes32 collateralPoolId) = abi.decode(data, (address, bytes32));\n      bookKeeper.moveCollateral(collateralPoolId, address(this), treasuryAccount, collateralAmountToLiquidate);\n    }\n  }\n}\n",
  "sourcePath": "/Users/sangjun.lee/Sangjun/fathom-stablecoin-smart-contracts/contracts/8.17/mocks/MockFlashLendingCalleeMintable.sol",
  "compiler": {
    "name": "solc",
    "version": "0.8.17+commit.8df45f5f.Emscripten.clang"
  },
  "schemaVersion": "3.4.10",
  "updatedAt": "2022-10-06T11:28:50.133Z",
  "devdoc": {
    "kind": "dev",
    "methods": {
      "paused()": {
        "details": "Returns true if the contract is paused, and false otherwise."
      }
    },
    "version": 1
  },
  "userdoc": {
    "kind": "user",
    "methods": {},
    "version": 1
  }
}