{
  "contractName": "MockMyFlashLoan",
  "abi": [
    {
      "inputs": [
        {
          "internalType": "address",
          "name": "_flash",
          "type": "address"
        }
      ],
      "stateMutability": "nonpayable",
      "type": "constructor"
    },
    {
      "inputs": [],
      "name": "CALLBACK_SUCCESS",
      "outputs": [
        {
          "internalType": "bytes32",
          "name": "",
          "type": "bytes32"
        }
      ],
      "stateMutability": "view",
      "type": "function"
    },
    {
      "inputs": [],
      "name": "CALLBACK_SUCCESS_BOOK_KEEPER_STABLE_COIN",
      "outputs": [
        {
          "internalType": "bytes32",
          "name": "",
          "type": "bytes32"
        }
      ],
      "stateMutability": "view",
      "type": "function"
    },
    {
      "inputs": [],
      "name": "flash",
      "outputs": [
        {
          "internalType": "contract FlashMintModule",
          "name": "",
          "type": "address"
        }
      ],
      "stateMutability": "view",
      "type": "function"
    },
    {
      "inputs": [
        {
          "internalType": "address",
          "name": "initiator",
          "type": "address"
        },
        {
          "internalType": "address",
          "name": "token",
          "type": "address"
        },
        {
          "internalType": "uint256",
          "name": "amount",
          "type": "uint256"
        },
        {
          "internalType": "uint256",
          "name": "fee",
          "type": "uint256"
        },
        {
          "internalType": "bytes",
          "name": "data",
          "type": "bytes"
        }
      ],
      "name": "onFlashLoan",
      "outputs": [
        {
          "internalType": "bytes32",
          "name": "",
          "type": "bytes32"
        }
      ],
      "stateMutability": "nonpayable",
      "type": "function"
    },
    {
      "inputs": [
        {
          "internalType": "address",
          "name": "initiator",
          "type": "address"
        },
        {
          "internalType": "uint256",
          "name": "amount",
          "type": "uint256"
        },
        {
          "internalType": "uint256",
          "name": "fee",
          "type": "uint256"
        },
        {
          "internalType": "bytes",
          "name": "data",
          "type": "bytes"
        }
      ],
      "name": "onBookKeeperFlashLoan",
      "outputs": [
        {
          "internalType": "bytes32",
          "name": "",
          "type": "bytes32"
        }
      ],
      "stateMutability": "nonpayable",
      "type": "function"
    }
  ],
  "bytecode": "0x608060405234801561001057600080fd5b5060405161036738038061036783398101604081905261002f91610054565b600080546001600160a01b0319166001600160a01b0392909216919091179055610084565b60006020828403121561006657600080fd5b81516001600160a01b038116811461007d57600080fd5b9392505050565b6102d4806100936000396000f3fe608060405234801561001057600080fd5b50600436106100575760003560e01c806323e30c8b1461005c5780638237e538146100a8578063acb55468146100cf578063d336c82d14610107578063e4d25b6a14610132575b600080fd5b61009561006a3660046101be565b7f439148f0bbc682ca079e46d6e2c2f0c1e3b820f1a291b069d8882abf8cf18dd99695505050505050565b6040519081526020015b60405180910390f35b6100957f439148f0bbc682ca079e46d6e2c2f0c1e3b820f1a291b069d8882abf8cf18dd981565b6100956100dd366004610236565b7f0a749ded14b97653a44d6e6b0b8342c23ed955e329d919b01a4ee7ef7907f64c95945050505050565b60005461011a906001600160a01b031681565b6040516001600160a01b03909116815260200161009f565b6100957f0a749ded14b97653a44d6e6b0b8342c23ed955e329d919b01a4ee7ef7907f64c81565b80356001600160a01b038116811461017057600080fd5b919050565b60008083601f84011261018757600080fd5b50813567ffffffffffffffff81111561019f57600080fd5b6020830191508360208285010111156101b757600080fd5b9250929050565b60008060008060008060a087890312156101d757600080fd5b6101e087610159565b95506101ee60208801610159565b94506040870135935060608701359250608087013567ffffffffffffffff81111561021857600080fd5b61022489828a01610175565b979a9699509497509295939492505050565b60008060008060006080868803121561024e57600080fd5b61025786610159565b94506020860135935060408601359250606086013567ffffffffffffffff81111561028157600080fd5b61028d88828901610175565b96999598509396509294939250505056fea2646970667358221220bb76d125a85bbb5c3b03713744cd562979fc000e2550e0c4d7ca1b260a7d673964736f6c63430008110033",
  "immutableReferences": {},
  "source": "// SPDX-License-Identifier: AGPL-3.0-or-later\n\npragma solidity 0.8.17;\n\nimport \"../flash-mint/base/FlashLoanReceiverBase.sol\";\n\ncontract MockMyFlashLoan is FlashLoanReceiverBase {\n  // --- Init ---\n  constructor(address _flash) FlashLoanReceiverBase(_flash) {}\n\n  function onFlashLoan(\n    address initiator,\n    address token,\n    uint256 amount,\n    uint256 fee,\n    bytes calldata data\n  ) external override returns (bytes32) {\n    return CALLBACK_SUCCESS;\n  }\n\n  function onBookKeeperFlashLoan(\n    address initiator,\n    uint256 amount,\n    uint256 fee,\n    bytes calldata data\n  ) external override returns (bytes32) {\n    return CALLBACK_SUCCESS_BOOK_KEEPER_STABLE_COIN;\n  }\n}\n",
  "sourcePath": "/Users/sangjun.lee/Sangjun/fathom-stablecoin-smart-contracts/contracts/8.17/mocks/MockMyFlashLoan.sol",
  "compiler": {
    "name": "solc",
    "version": "0.8.17+commit.8df45f5f.Emscripten.clang"
  },
  "schemaVersion": "3.4.10",
  "updatedAt": "2022-10-21T12:59:12.540Z",
  "devdoc": {
    "kind": "dev",
    "methods": {
      "onBookKeeperFlashLoan(address,uint256,uint256,bytes)": {
        "details": "Receive a flash loan.",
        "params": {
          "amount": "The amount of tokens lent. [rad]",
          "data": "Arbitrary data structure, intended to contain user-defined parameters.",
          "fee": "The additional amount of tokens to repay. [rad]",
          "initiator": "The initiator of the loan."
        },
        "returns": {
          "_0": "The keccak256 hash of \"IBookKeeperFlashLoanReceiver.onBookKeeperFlashLoan\""
        }
      },
      "onFlashLoan(address,address,uint256,uint256,bytes)": {
        "details": "Receive a flash loan.",
        "params": {
          "amount": "The amount of tokens lent.",
          "data": "Arbitrary data structure, intended to contain user-defined parameters.",
          "fee": "The additional amount of tokens to repay.",
          "initiator": "The initiator of the loan.",
          "token": "The loan currency."
        },
        "returns": {
          "_0": "The keccak256 hash of \"ERC3156FlashBorrower.onFlashLoan\""
        }
      }
    },
    "version": 1
  },
  "userdoc": {
    "kind": "user",
    "methods": {},
    "version": 1
  }
}