{
  "contractName": "MockPriceFeed",
  "abi": [
    {
      "inputs": [],
      "name": "readPrice",
      "outputs": [
        {
          "internalType": "bytes32",
          "name": "",
          "type": "bytes32"
        }
      ],
      "stateMutability": "pure",
      "type": "function"
    },
    {
      "inputs": [],
      "name": "peekPrice",
      "outputs": [
        {
          "internalType": "bytes32",
          "name": "",
          "type": "bytes32"
        },
        {
          "internalType": "bool",
          "name": "",
          "type": "bool"
        }
      ],
      "stateMutability": "pure",
      "type": "function"
    }
  ],
  "bytecode": "0x6080604052348015600f57600080fd5b5060958061001e6000396000f3fe6080604052348015600f57600080fd5b506004361060325760003560e01c8063140d27201460375780637e91400f146051575b600080fd5b604080516000815260016020820152015b60405180910390f35b60405160008152602001604856fea26469706673582212206ac1d59be64a1671f78b6b56934a74814ed816eb6a206a79ad851d2b55b5d1d064736f6c63430008110033",
  "immutableReferences": {},
  "source": "// SPDX-License-Identifier: AGPL-3.0-or-later\n\npragma solidity 0.8.17;\n\nimport \"../interfaces/IPriceFeed.sol\";\n\ncontract MockPriceFeed is IPriceFeed {\n  function readPrice() external pure override returns (bytes32) {\n    return 0;\n  }\n\n  function peekPrice() external pure override returns (bytes32, bool) {\n    return (0, true);\n  }\n}\n",
  "sourcePath": "/Users/sangjun.lee/Sangjun/fathom-stablecoin-smart-contracts/contracts/8.17/mocks/MockPriceFeed.sol",
  "compiler": {
    "name": "solc",
    "version": "0.8.17+commit.8df45f5f.Emscripten.clang"
  },
  "schemaVersion": "3.4.10",
  "updatedAt": "2022-10-06T11:28:50.135Z",
  "devdoc": {
    "kind": "dev",
    "methods": {},
    "version": 1
  },
  "userdoc": {
    "kind": "user",
    "methods": {},
    "version": 1
  }
}