{
    "contractName": "ProxyWalletFactory",
    "abi": [
        {
            "inputs": [],
            "stateMutability": "nonpayable",
            "type": "constructor"
        },
        {
            "anonymous": false,
            "inputs": [
                {
                    "indexed": true,
                    "internalType": "address",
                    "name": "_sender",
                    "type": "address"
                },
                {
                    "indexed": true,
                    "internalType": "address",
                    "name": "_owner",
                    "type": "address"
                },
                {
                    "indexed": false,
                    "internalType": "address",
                    "name": "_proxy",
                    "type": "address"
                },
                {
                    "indexed": false,
                    "internalType": "address",
                    "name": "_cache",
                    "type": "address"
                }
            ],
            "name": "LogCreated",
            "type": "event"
        },
        {
            "inputs": [],
            "name": "cache",
            "outputs": [
                {
                    "internalType": "contract ProxyWalletCache",
                    "name": "",
                    "type": "address"
                }
            ],
            "stateMutability": "view",
            "type": "function"
        },
        {
            "inputs": [
                {
                    "internalType": "address",
                    "name": "",
                    "type": "address"
                }
            ],
            "name": "isProxy",
            "outputs": [
                {
                    "internalType": "bool",
                    "name": "",
                    "type": "bool"
                }
            ],
            "stateMutability": "view",
            "type": "function"
        },
        {
            "inputs": [],
            "name": "build0",
            "outputs": [
                {
                    "internalType": "address payable",
                    "name": "_proxy",
                    "type": "address"
                }
            ],
            "stateMutability": "nonpayable",
            "type": "function"
        },
        {
            "inputs": [
                {
                    "internalType": "address",
                    "name": "_owner",
                    "type": "address"
                }
            ],
            "name": "build",
            "outputs": [
                {
                    "internalType": "address payable",
                    "name": "_proxy",
                    "type": "address"
                }
            ],
            "stateMutability": "nonpayable",
            "type": "function"
        }
    ],
    "bytecode": "0x608060405234801561001057600080fd5b5060405161001d9061005f565b604051809103906000f080158015610039573d6000803e3d6000fd5b50600180546001600160a01b0319166001600160a01b039290921691909117905561006c565b61020780610fd583390190565b610f5a8061007b6000396000f3fe608060405234801561001057600080fd5b506004361061004c5760003560e01c8063297103881461005157806360c7d295146100895780637748f425146100b4578063f3701da2146100bc575b600080fd5b61007461005f366004610208565b60006020819052908152604090205460ff1681565b60405190151581526020015b60405180910390f35b60015461009c906001600160a01b031681565b6040516001600160a01b039091168152602001610080565b61009c6100cf565b61009c6100ca366004610208565b6100df565b60006100da336100df565b905090565b6001546040516000916001600160a01b0316906100fb906101fb565b6001600160a01b039091168152602001604051809103906000f080158015610127573d6000803e3d6000fd5b50600154604080516001600160a01b03808516825292831660208201529293509084169133917f460d1004ae97c08315a739e456cdf01eb3bb7a6d76b6a5f422f5f42a25c9e865910160405180910390a36040516313af403560e01b81526001600160a01b0383811660048301528216906313af403590602401600060405180830381600087803b1580156101bb57600080fd5b505af11580156101cf573d6000803e3d6000fd5b5050506001600160a01b0382166000908152602081905260409020805460ff1916600117905550919050565b610cec8061023983390190565b60006020828403121561021a57600080fd5b81356001600160a01b038116811461023157600080fd5b939250505056fe60806040523480156200001157600080fd5b5060405162000cec38038062000cec833981016040819052620000349162000299565b600180546001600160a01b031916339081179091556040517fce241d7ca1f669fee44b6fc00b8eba2df3bb514eed0f6f668f8f89096e81ed9490600090a26200007d8162000085565b505062000325565b60006200009e336001600160e01b0319833516620001b3565b620000f05760405162461bcd60e51b815260206004820152601860248201527f666174686f6d2d617574682d756e617574686f72697a6564000000000000000060448201526064015b60405180910390fd5b600435602435346001600160a01b0385166200015b5760405162461bcd60e51b815260206004820152602360248201527f70726f78792d77616c6c65742d63616368652d616464726573732d72657175696044820152621c995960ea1b6064820152608401620000e7565b600280546001600160a01b0387166001600160a01b031990911617905560405160019450829084903390600080356001600160e01b03191691620001a39187913690620002cb565b60405180910390a4505050919050565b6000306001600160a01b03841603620001cf5750600162000293565b6001546001600160a01b0390811690841603620001ef5750600162000293565b6000546001600160a01b0316620002095750600062000293565b60005460405163b700961360e01b81526001600160a01b0385811660048301523060248301526001600160e01b0319851660448301529091169063b700961390606401602060405180830381865afa1580156200026a573d6000803e3d6000fd5b505050506040513d601f19601f8201168201806040525081019062000290919062000301565b90505b92915050565b600060208284031215620002ac57600080fd5b81516001600160a01b0381168114620002c457600080fd5b9392505050565b83815260406020820152816040820152818360608301376000818301606090810191909152601f909201601f1916010192915050565b6000602082840312156200031457600080fd5b81518015158114620002c457600080fd5b6109b780620003356000396000f3fe60806040526004361061007f5760003560e01c80637a9e5e4b1161004e5780637a9e5e4b1461012f5780638da5cb5b1461014f578063948f50761461016f578063bf7e214f1461019f57600080fd5b806313af40351461008b5780631f6a1eb9146100ad5780632282ccf8146100d757806360c7d295146100f757600080fd5b3661008657005b600080fd5b34801561009757600080fd5b506100ab6100a63660046106df565b6101bf565b005b6100c06100bb3660046107a6565b610244565b6040516100ce929190610850565b60405180910390f35b6100ea6100e536600461087c565b610354565b6040516100ce91906108c2565b34801561010357600080fd5b50600254610117906001600160a01b031681565b6040516001600160a01b0390911681526020016100ce565b34801561013b57600080fd5b506100ab61014a3660046106df565b61047d565b34801561015b57600080fd5b50600154610117906001600160a01b031681565b34801561017b57600080fd5b5061018f61018a3660046106df565b6104f7565b60405190151581526020016100ce565b3480156101ab57600080fd5b50600054610117906001600160a01b031681565b6101d5336000356001600160e01b0319166105ea565b6101fa5760405162461bcd60e51b81526004016101f1906108d5565b60405180910390fd5b600180546001600160a01b0319166001600160a01b0383169081179091556040517fce241d7ca1f669fee44b6fc00b8eba2df3bb514eed0f6f668f8f89096e81ed9490600090a250565b6002546040516322fd145760e21b81526000916060916001600160a01b0390911690638bf4515c9061027a9087906004016108c2565b602060405180830381865afa158015610297573d6000803e3d6000fd5b505050506040513d601f19601f820116820180604052508101906102bb919061090c565b91506001600160a01b03821661034157600254604051633f6861d960e11b81526001600160a01b0390911690637ed0c3b2906102fb9087906004016108c2565b6020604051808303816000875af115801561031a573d6000803e3d6000fd5b505050506040513d601f19601f8201168201806040525081019061033e919061090c565b91505b61034b8284610354565b90509250929050565b606061036c336000356001600160e01b0319166105ea565b6103885760405162461bcd60e51b81526004016101f1906108d5565b600435602435346001600160a01b0386166103f15760405162461bcd60e51b8152602060048201526024808201527f70726f78792d77616c6c65742d7461726765742d616464726573732d726571756044820152631a5c995960e21b60648201526084016101f1565b600080865160208801896113885a03f43d6040519550601f19601f6020830101168601604052808652806000602088013e811560018103610433578160208801fd5b5050508183336001600160a01b03166000356001600160e01b0319166001600160e01b0319168460003660405161046c93929190610929565b60405180910390a450505092915050565b610493336000356001600160e01b0319166105ea565b6104af5760405162461bcd60e51b81526004016101f1906108d5565b600080546001600160a01b0319166001600160a01b038316908117825560405190917f1abebea81bfa2637f28358c371278fb15ede7ea8dd28d2e03b112ff6d936ada491a250565b600061050f336000356001600160e01b0319166105ea565b61052b5760405162461bcd60e51b81526004016101f1906108d5565b600435602435346001600160a01b0385166105945760405162461bcd60e51b815260206004820152602360248201527f70726f78792d77616c6c65742d63616368652d616464726573732d72657175696044820152621c995960ea1b60648201526084016101f1565b600280546001600160a01b0387166001600160a01b031990911617905560405160019450829084903390600080356001600160e01b031916916105da9187913690610929565b60405180910390a4505050919050565b6000306001600160a01b03841603610604575060016106c1565b6001546001600160a01b0390811690841603610622575060016106c1565b6000546001600160a01b031661063a575060006106c1565b60005460405163b700961360e01b81526001600160a01b0385811660048301523060248301526001600160e01b0319851660448301529091169063b700961390606401602060405180830381865afa15801561069a573d6000803e3d6000fd5b505050506040513d601f19601f820116820180604052508101906106be919061095f565b90505b92915050565b6001600160a01b03811681146106dc57600080fd5b50565b6000602082840312156106f157600080fd5b81356106fc816106c7565b9392505050565b634e487b7160e01b600052604160045260246000fd5b600082601f83011261072a57600080fd5b813567ffffffffffffffff8082111561074557610745610703565b604051601f8301601f19908116603f0116810190828211818310171561076d5761076d610703565b8160405283815286602085880101111561078657600080fd5b836020870160208301376000602085830101528094505050505092915050565b600080604083850312156107b957600080fd5b823567ffffffffffffffff808211156107d157600080fd5b6107dd86838701610719565b935060208501359150808211156107f357600080fd5b5061080085828601610719565b9150509250929050565b6000815180845260005b8181101561083057602081850181015186830182015201610814565b506000602082860101526020601f19601f83011685010191505092915050565b6001600160a01b03831681526040602082018190526000906108749083018461080a565b949350505050565b6000806040838503121561088f57600080fd5b823561089a816106c7565b9150602083013567ffffffffffffffff8111156108b657600080fd5b61080085828601610719565b6020815260006106fc602083018461080a565b60208082526018908201527f666174686f6d2d617574682d756e617574686f72697a65640000000000000000604082015260600190565b60006020828403121561091e57600080fd5b81516106fc816106c7565b83815260406020820152816040820152818360608301376000818301606090810191909152601f909201601f1916010192915050565b60006020828403121561097157600080fd5b815180151581146106fc57600080fdfea2646970667358221220f587ed9cc58a0ad6c0628d996d7f44263c9490483c5f825782c42c91bed99d3b64736f6c63430008110033a264697066735822122080042ecdf03db60f44aec550b73f4e3d9582e2139bfd41b3f0935d5ae6c61e0564736f6c63430008110033608060405234801561001057600080fd5b506101e7806100206000396000f3fe608060405234801561001057600080fd5b50600436106100365760003560e01c80637ed0c3b21461003b5780638bf4515c1461006a575b600080fd5b61004e610049366004610100565b61009a565b6040516001600160a01b03909116815260200160405180910390f35b61004e610078366004610100565b805160209182012060009081529081905260409020546001600160a01b031690565b60008151602083016000f09050803b15600181036100b757600080fd5b508151602092830120600090815291829052604090912080546001600160a01b0319166001600160a01b03831617905590565b634e487b7160e01b600052604160045260246000fd5b60006020828403121561011257600080fd5b813567ffffffffffffffff8082111561012a57600080fd5b818401915084601f83011261013e57600080fd5b813581811115610150576101506100ea565b604051601f8201601f19908116603f01168101908382118183101715610178576101786100ea565b8160405282815287602084870101111561019157600080fd5b82602086016020830137600092810160200192909252509594505050505056fea26469706673582212204bfb78810bc140569b7fcb0d82536c0fc293a68c095dfb879c2e91412eef5e7664736f6c63430008110033",
    "immutableReferences": {},
    "source": "// SPDX-License-Identifier: AGPL-3.0-or-later\n\npragma solidity 0.8.17;\n\nimport \"./ProxyWallet.sol\";\nimport \"./ProxyWalletCache.sol\";\n\n// ProxyWalletFactory\n// This factory deploys new proxy instances through build()\n// Deployed proxy addresses are logged\ncontract ProxyWalletFactory {\n  event LogCreated(address indexed _sender, address indexed _owner, address _proxy, address _cache);\n  mapping(address => bool) public isProxy;\n  ProxyWalletCache public cache;\n\n  constructor() {\n    cache = new ProxyWalletCache();\n  }\n\n  // deploys a new proxy instance\n  // sets owner of proxy to caller\n  function build0() external returns (address payable _proxy) {\n    _proxy = build(msg.sender);\n  }\n\n  // deploys a new proxy instance\n  // sets custom owner of proxy\n  function build(address _owner) public returns (address payable _proxy) {\n    _proxy = payable(address(new ProxyWallet(address(cache))));\n    emit LogCreated(msg.sender, _owner, address(_proxy), address(cache));\n    ProxyWallet(_proxy).setOwner(_owner);\n    isProxy[_proxy] = true;\n  }\n}\n",
    "sourcePath": "/Users/sangjun.lee/Sangjun/fathom-stablecoin-smart-contracts/contracts/8.17/proxy-wallet/ProxyWalletFactory.sol",
    "compiler": {
        "name": "solc",
        "version": "0.8.17+commit.8df45f5f.Emscripten.clang"
    },
    "schemaVersion": "3.4.10",
    "updatedAt": "2022-10-27T10:35:28.618Z",
    "devdoc": {
        "kind": "dev",
        "methods": {},
        "version": 1
    },
    "userdoc": {
        "kind": "user",
        "methods": {},
        "version": 1
    }
}