{
  "contractName": "ProxyWallet",
  "abi": [
    {
      "inputs": [
        {
          "internalType": "address",
          "name": "_cacheAddr",
          "type": "address"
        }
      ],
      "stateMutability": "nonpayable",
      "type": "constructor"
    },
    {
      "anonymous": true,
      "inputs": [
        {
          "indexed": true,
          "internalType": "bytes4",
          "name": "sig",
          "type": "bytes4"
        },
        {
          "indexed": true,
          "internalType": "address",
          "name": "guy",
          "type": "address"
        },
        {
          "indexed": true,
          "internalType": "bytes32",
          "name": "foo",
          "type": "bytes32"
        },
        {
          "indexed": true,
          "internalType": "bytes32",
          "name": "bar",
          "type": "bytes32"
        },
        {
          "indexed": false,
          "internalType": "uint256",
          "name": "wad",
          "type": "uint256"
        },
        {
          "indexed": false,
          "internalType": "bytes",
          "name": "fax",
          "type": "bytes"
        }
      ],
      "name": "LogNote",
      "type": "event"
    },
    {
      "anonymous": false,
      "inputs": [
        {
          "indexed": true,
          "internalType": "address",
          "name": "_authority",
          "type": "address"
        }
      ],
      "name": "LogSetAuthority",
      "type": "event"
    },
    {
      "anonymous": false,
      "inputs": [
        {
          "indexed": true,
          "internalType": "address",
          "name": "_owner",
          "type": "address"
        }
      ],
      "name": "LogSetOwner",
      "type": "event"
    },
    {
      "inputs": [],
      "name": "authority",
      "outputs": [
        {
          "internalType": "contract IAuthority",
          "name": "",
          "type": "address"
        }
      ],
      "stateMutability": "view",
      "type": "function"
    },
    {
      "inputs": [],
      "name": "cache",
      "outputs": [
        {
          "internalType": "contract ProxyWalletCache",
          "name": "",
          "type": "address"
        }
      ],
      "stateMutability": "view",
      "type": "function"
    },
    {
      "inputs": [],
      "name": "owner",
      "outputs": [
        {
          "internalType": "address",
          "name": "",
          "type": "address"
        }
      ],
      "stateMutability": "view",
      "type": "function"
    },
    {
      "inputs": [
        {
          "internalType": "contract IAuthority",
          "name": "_authority",
          "type": "address"
        }
      ],
      "name": "setAuthority",
      "outputs": [],
      "stateMutability": "nonpayable",
      "type": "function"
    },
    {
      "inputs": [
        {
          "internalType": "address",
          "name": "_owner",
          "type": "address"
        }
      ],
      "name": "setOwner",
      "outputs": [],
      "stateMutability": "nonpayable",
      "type": "function"
    },
    {
      "stateMutability": "payable",
      "type": "receive"
    },
    {
      "inputs": [
        {
          "internalType": "bytes",
          "name": "_code",
          "type": "bytes"
        },
        {
          "internalType": "bytes",
          "name": "_data",
          "type": "bytes"
        }
      ],
      "name": "execute",
      "outputs": [
        {
          "internalType": "address",
          "name": "_target",
          "type": "address"
        },
        {
          "internalType": "bytes",
          "name": "_response",
          "type": "bytes"
        }
      ],
      "stateMutability": "payable",
      "type": "function"
    },
    {
      "inputs": [
        {
          "internalType": "address",
          "name": "_target",
          "type": "address"
        },
        {
          "internalType": "bytes",
          "name": "_data",
          "type": "bytes"
        }
      ],
      "name": "execute2",
      "outputs": [
        {
          "internalType": "bytes",
          "name": "_response",
          "type": "bytes"
        }
      ],
      "stateMutability": "payable",
      "type": "function"
    },
    {
      "inputs": [
        {
          "internalType": "address",
          "name": "_cacheAddr",
          "type": "address"
        }
      ],
      "name": "setCache",
      "outputs": [
        {
          "internalType": "bool",
          "name": "",
          "type": "bool"
        }
      ],
      "stateMutability": "nonpayable",
      "type": "function"
    }
  ],
  "bytecode": "0x60806040523480156200001157600080fd5b5060405162000cec38038062000cec833981016040819052620000349162000299565b600180546001600160a01b031916339081179091556040517fce241d7ca1f669fee44b6fc00b8eba2df3bb514eed0f6f668f8f89096e81ed9490600090a26200007d8162000085565b505062000325565b60006200009e336001600160e01b0319833516620001b3565b620000f05760405162461bcd60e51b815260206004820152601860248201527f666174686f6d2d617574682d756e617574686f72697a6564000000000000000060448201526064015b60405180910390fd5b600435602435346001600160a01b0385166200015b5760405162461bcd60e51b815260206004820152602360248201527f70726f78792d77616c6c65742d63616368652d616464726573732d72657175696044820152621c995960ea1b6064820152608401620000e7565b600280546001600160a01b0387166001600160a01b031990911617905560405160019450829084903390600080356001600160e01b03191691620001a39187913690620002cb565b60405180910390a4505050919050565b6000306001600160a01b03841603620001cf5750600162000293565b6001546001600160a01b0390811690841603620001ef5750600162000293565b6000546001600160a01b0316620002095750600062000293565b60005460405163b700961360e01b81526001600160a01b0385811660048301523060248301526001600160e01b0319851660448301529091169063b700961390606401602060405180830381865afa1580156200026a573d6000803e3d6000fd5b505050506040513d601f19601f8201168201806040525081019062000290919062000301565b90505b92915050565b600060208284031215620002ac57600080fd5b81516001600160a01b0381168114620002c457600080fd5b9392505050565b83815260406020820152816040820152818360608301376000818301606090810191909152601f909201601f1916010192915050565b6000602082840312156200031457600080fd5b81518015158114620002c457600080fd5b6109b780620003356000396000f3fe60806040526004361061007f5760003560e01c80637a9e5e4b1161004e5780637a9e5e4b1461012f5780638da5cb5b1461014f578063948f50761461016f578063bf7e214f1461019f57600080fd5b806313af40351461008b5780631f6a1eb9146100ad5780632282ccf8146100d757806360c7d295146100f757600080fd5b3661008657005b600080fd5b34801561009757600080fd5b506100ab6100a63660046106df565b6101bf565b005b6100c06100bb3660046107a6565b610244565b6040516100ce929190610850565b60405180910390f35b6100ea6100e536600461087c565b610354565b6040516100ce91906108c2565b34801561010357600080fd5b50600254610117906001600160a01b031681565b6040516001600160a01b0390911681526020016100ce565b34801561013b57600080fd5b506100ab61014a3660046106df565b61047d565b34801561015b57600080fd5b50600154610117906001600160a01b031681565b34801561017b57600080fd5b5061018f61018a3660046106df565b6104f7565b60405190151581526020016100ce565b3480156101ab57600080fd5b50600054610117906001600160a01b031681565b6101d5336000356001600160e01b0319166105ea565b6101fa5760405162461bcd60e51b81526004016101f1906108d5565b60405180910390fd5b600180546001600160a01b0319166001600160a01b0383169081179091556040517fce241d7ca1f669fee44b6fc00b8eba2df3bb514eed0f6f668f8f89096e81ed9490600090a250565b6002546040516322fd145760e21b81526000916060916001600160a01b0390911690638bf4515c9061027a9087906004016108c2565b602060405180830381865afa158015610297573d6000803e3d6000fd5b505050506040513d601f19601f820116820180604052508101906102bb919061090c565b91506001600160a01b03821661034157600254604051633f6861d960e11b81526001600160a01b0390911690637ed0c3b2906102fb9087906004016108c2565b6020604051808303816000875af115801561031a573d6000803e3d6000fd5b505050506040513d601f19601f8201168201806040525081019061033e919061090c565b91505b61034b8284610354565b90509250929050565b606061036c336000356001600160e01b0319166105ea565b6103885760405162461bcd60e51b81526004016101f1906108d5565b600435602435346001600160a01b0386166103f15760405162461bcd60e51b8152602060048201526024808201527f70726f78792d77616c6c65742d7461726765742d616464726573732d726571756044820152631a5c995960e21b60648201526084016101f1565b600080865160208801896113885a03f43d6040519550601f19601f6020830101168601604052808652806000602088013e811560018103610433578160208801fd5b5050508183336001600160a01b03166000356001600160e01b0319166001600160e01b0319168460003660405161046c93929190610929565b60405180910390a450505092915050565b610493336000356001600160e01b0319166105ea565b6104af5760405162461bcd60e51b81526004016101f1906108d5565b600080546001600160a01b0319166001600160a01b038316908117825560405190917f1abebea81bfa2637f28358c371278fb15ede7ea8dd28d2e03b112ff6d936ada491a250565b600061050f336000356001600160e01b0319166105ea565b61052b5760405162461bcd60e51b81526004016101f1906108d5565b600435602435346001600160a01b0385166105945760405162461bcd60e51b815260206004820152602360248201527f70726f78792d77616c6c65742d63616368652d616464726573732d72657175696044820152621c995960ea1b60648201526084016101f1565b600280546001600160a01b0387166001600160a01b031990911617905560405160019450829084903390600080356001600160e01b031916916105da9187913690610929565b60405180910390a4505050919050565b6000306001600160a01b03841603610604575060016106c1565b6001546001600160a01b0390811690841603610622575060016106c1565b6000546001600160a01b031661063a575060006106c1565b60005460405163b700961360e01b81526001600160a01b0385811660048301523060248301526001600160e01b0319851660448301529091169063b700961390606401602060405180830381865afa15801561069a573d6000803e3d6000fd5b505050506040513d601f19601f820116820180604052508101906106be919061095f565b90505b92915050565b6001600160a01b03811681146106dc57600080fd5b50565b6000602082840312156106f157600080fd5b81356106fc816106c7565b9392505050565b634e487b7160e01b600052604160045260246000fd5b600082601f83011261072a57600080fd5b813567ffffffffffffffff8082111561074557610745610703565b604051601f8301601f19908116603f0116810190828211818310171561076d5761076d610703565b8160405283815286602085880101111561078657600080fd5b836020870160208301376000602085830101528094505050505092915050565b600080604083850312156107b957600080fd5b823567ffffffffffffffff808211156107d157600080fd5b6107dd86838701610719565b935060208501359150808211156107f357600080fd5b5061080085828601610719565b9150509250929050565b6000815180845260005b8181101561083057602081850181015186830182015201610814565b506000602082860101526020601f19601f83011685010191505092915050565b6001600160a01b03831681526040602082018190526000906108749083018461080a565b949350505050565b6000806040838503121561088f57600080fd5b823561089a816106c7565b9150602083013567ffffffffffffffff8111156108b657600080fd5b61080085828601610719565b6020815260006106fc602083018461080a565b60208082526018908201527f666174686f6d2d617574682d756e617574686f72697a65640000000000000000604082015260600190565b60006020828403121561091e57600080fd5b81516106fc816106c7565b83815260406020820152816040820152818360608301376000818301606090810191909152601f909201601f1916010192915050565b60006020828403121561097157600080fd5b815180151581146106fc57600080fdfea264697066735822122097f73b955c7acae8e54c8bd7823f5e02070a213ae89764d11acfee97ecb6a23a64736f6c63430008110033",
  "immutableReferences": {},
  "source": "// SPDX-License-Identifier: AGPL-3.0-or-later\n\npragma solidity 0.8.17;\n\nimport \"./FathomAuth.sol\";\nimport \"./FathomNote.sol\";\nimport \"./ProxyWalletCache.sol\";\n\n// ProxyWallet\n// Allows code execution using a persistant identity This can be very\n// useful to execute a sequence of atomic actions. Since the owner of\n// the proxy can be changed, this allows for dynamic ownership models\n// i.e. a multisig\ncontract ProxyWallet is FathomAuth, FathomNote {\n  ProxyWalletCache public cache; // global cache for contracts\n\n  constructor(address _cacheAddr) {\n    setCache(_cacheAddr);\n  }\n\n  receive() external payable {}\n\n  // use the proxy to execute calldata _data on contract _code\n  function execute(bytes memory _code, bytes memory _data)\n    external\n    payable\n    returns (address _target, bytes memory _response)\n  {\n    _target = cache.read(_code);\n    if (_target == address(0)) {\n      // deploy contract & store its address in cache\n      _target = cache.write(_code);\n    }\n\n    _response = execute2(_target, _data);\n  }\n\n  function execute2(address _target, bytes memory _data) public payable auth note returns (bytes memory _response) {\n    require(_target != address(0), \"proxy-wallet-target-address-required\");\n\n    // call contract in current context\n    assembly {\n      let _succeeded := delegatecall(sub(gas(), 5000), _target, add(_data, 0x20), mload(_data), 0, 0)\n      let _size := returndatasize()\n\n      _response := mload(0x40)\n      mstore(0x40, add(_response, and(add(add(_size, 0x20), 0x1f), not(0x1f))))\n      mstore(_response, _size)\n      returndatacopy(add(_response, 0x20), 0, _size)\n\n      switch iszero(_succeeded)\n      case 1 {\n        // throw if delegatecall failed\n        revert(add(_response, 0x20), _size)\n      }\n    }\n  }\n\n  //set new cache\n  function setCache(address _cacheAddr) public auth note returns (bool) {\n    require(_cacheAddr != address(0), \"proxy-wallet-cache-address-required\");\n    cache = ProxyWalletCache(_cacheAddr); // overwrite cache\n    return true;\n  }\n}\n",
  "sourcePath": "/Users/sangjun.lee/Sangjun/fathom-stablecoin-smart-contracts/contracts/8.17/proxy-wallet/ProxyWallet.sol",
  "compiler": {
    "name": "solc",
    "version": "0.8.17+commit.8df45f5f.Emscripten.clang"
  },
  "schemaVersion": "3.4.10",
  "updatedAt": "2022-10-06T11:28:50.212Z",
  "devdoc": {
    "kind": "dev",
    "methods": {},
    "version": 1
  },
  "userdoc": {
    "kind": "user",
    "methods": {},
    "version": 1
  }
}