{
  "contractName": "Shield",
  "abi": [
    {
      "inputs": [
        {
          "internalType": "address",
          "name": "_owner",
          "type": "address"
        },
        {
          "internalType": "contract IFairLaunchV1",
          "name": "_fairLaunchV1",
          "type": "address"
        }
      ],
      "stateMutability": "nonpayable",
      "type": "constructor"
    },
    {
      "anonymous": false,
      "inputs": [
        {
          "indexed": true,
          "internalType": "uint256",
          "name": "_pid",
          "type": "uint256"
        },
        {
          "indexed": false,
          "internalType": "uint256",
          "name": "_allocPoint",
          "type": "uint256"
        },
        {
          "indexed": true,
          "internalType": "address",
          "name": "_stakeToken",
          "type": "address"
        }
      ],
      "name": "AddPool",
      "type": "event"
    },
    {
      "anonymous": false,
      "inputs": [
        {
          "indexed": true,
          "internalType": "address",
          "name": "_to",
          "type": "address"
        },
        {
          "indexed": false,
          "internalType": "uint256",
          "name": "_amount",
          "type": "uint256"
        }
      ],
      "name": "MintWarchest",
      "type": "event"
    },
    {
      "anonymous": false,
      "inputs": [
        {
          "indexed": true,
          "internalType": "address",
          "name": "previousOwner",
          "type": "address"
        },
        {
          "indexed": true,
          "internalType": "address",
          "name": "newOwner",
          "type": "address"
        }
      ],
      "name": "OwnershipTransferred",
      "type": "event"
    },
    {
      "anonymous": false,
      "inputs": [
        {
          "indexed": false,
          "internalType": "uint256",
          "name": "_bonusMultiplier",
          "type": "uint256"
        },
        {
          "indexed": false,
          "internalType": "uint256",
          "name": "_bonusEndBlock",
          "type": "uint256"
        },
        {
          "indexed": false,
          "internalType": "uint256",
          "name": "_bonusLockUpBps",
          "type": "uint256"
        }
      ],
      "name": "SetBonus",
      "type": "event"
    },
    {
      "anonymous": false,
      "inputs": [
        {
          "indexed": true,
          "internalType": "uint256",
          "name": "_fathomPerBlock",
          "type": "uint256"
        }
      ],
      "name": "SetFathomPerBlock",
      "type": "event"
    },
    {
      "anonymous": false,
      "inputs": [
        {
          "indexed": true,
          "internalType": "uint256",
          "name": "_pid",
          "type": "uint256"
        },
        {
          "indexed": false,
          "internalType": "uint256",
          "name": "_allocPoint",
          "type": "uint256"
        }
      ],
      "name": "SetPool",
      "type": "event"
    },
    {
      "inputs": [],
      "name": "fairLaunchV1",
      "outputs": [
        {
          "internalType": "contract IFairLaunchV1",
          "name": "",
          "type": "address"
        }
      ],
      "stateMutability": "view",
      "type": "function"
    },
    {
      "inputs": [],
      "name": "mintCount",
      "outputs": [
        {
          "internalType": "uint256",
          "name": "",
          "type": "uint256"
        }
      ],
      "stateMutability": "view",
      "type": "function"
    },
    {
      "inputs": [],
      "name": "mintLimit",
      "outputs": [
        {
          "internalType": "uint256",
          "name": "",
          "type": "uint256"
        }
      ],
      "stateMutability": "view",
      "type": "function"
    },
    {
      "inputs": [],
      "name": "owner",
      "outputs": [
        {
          "internalType": "address",
          "name": "",
          "type": "address"
        }
      ],
      "stateMutability": "view",
      "type": "function"
    },
    {
      "inputs": [],
      "name": "renounceOwnership",
      "outputs": [],
      "stateMutability": "nonpayable",
      "type": "function"
    },
    {
      "inputs": [
        {
          "internalType": "address",
          "name": "newOwner",
          "type": "address"
        }
      ],
      "name": "transferOwnership",
      "outputs": [],
      "stateMutability": "nonpayable",
      "type": "function"
    },
    {
      "inputs": [
        {
          "internalType": "uint256",
          "name": "_fathomPerBlock",
          "type": "uint256"
        }
      ],
      "name": "setFathomPerBlock",
      "outputs": [],
      "stateMutability": "nonpayable",
      "type": "function"
    },
    {
      "inputs": [
        {
          "internalType": "uint256",
          "name": "_bonusMultiplier",
          "type": "uint256"
        },
        {
          "internalType": "uint256",
          "name": "_bonusEndBlock",
          "type": "uint256"
        },
        {
          "internalType": "uint256",
          "name": "_bonusLockUpBps",
          "type": "uint256"
        }
      ],
      "name": "setBonus",
      "outputs": [],
      "stateMutability": "nonpayable",
      "type": "function"
    },
    {
      "inputs": [
        {
          "internalType": "address",
          "name": "_to",
          "type": "address"
        },
        {
          "internalType": "uint256",
          "name": "_amount",
          "type": "uint256"
        }
      ],
      "name": "mintWarchest",
      "outputs": [],
      "stateMutability": "nonpayable",
      "type": "function"
    },
    {
      "inputs": [
        {
          "internalType": "uint256",
          "name": "_allocPoint",
          "type": "uint256"
        },
        {
          "internalType": "address",
          "name": "_stakeToken",
          "type": "address"
        },
        {
          "internalType": "bool",
          "name": "_withUpdate",
          "type": "bool"
        }
      ],
      "name": "addPool",
      "outputs": [],
      "stateMutability": "nonpayable",
      "type": "function"
    },
    {
      "inputs": [
        {
          "internalType": "uint256",
          "name": "_pid",
          "type": "uint256"
        },
        {
          "internalType": "uint256",
          "name": "_allocPoint",
          "type": "uint256"
        },
        {
          "internalType": "bool",
          "name": "_withUpdate",
          "type": "bool"
        }
      ],
      "name": "setPool",
      "outputs": [],
      "stateMutability": "nonpayable",
      "type": "function"
    }
  ],
  "bytecode": "0x60806040526a069e10de76676d080000006002556934f086f3b33b6840000060035534801561002d57600080fd5b50604051610b0f380380610b0f83398101604081905261004c916101c3565b61005533610084565b61005e826100d4565b600180546001600160a01b0319166001600160a01b0392909216919091179055506101fd565b600080546001600160a01b038381166001600160a01b0319831681178455604051919092169283917f8be0079c531659141344cd1fd0a4f28419497f9722a3daafe3b4186f6b6457e09190a35050565b6100dc610152565b6001600160a01b0381166101465760405162461bcd60e51b815260206004820152602660248201527f4f776e61626c653a206e6577206f776e657220697320746865207a65726f206160448201526564647265737360d01b60648201526084015b60405180910390fd5b61014f81610084565b50565b6000546001600160a01b031633146101ac5760405162461bcd60e51b815260206004820181905260248201527f4f776e61626c653a2063616c6c6572206973206e6f7420746865206f776e6572604482015260640161013d565b565b6001600160a01b038116811461014f57600080fd5b600080604083850312156101d657600080fd5b82516101e1816101ae565b60208401519092506101f2816101ae565b809150509250929050565b6109038061020c6000396000f3fe608060405234801561001057600080fd5b50600436106100a95760003560e01c80638da5cb5b116100715780638da5cb5b146101215780639659867e1461013257806396903beb14610149578063996517cf1461015c578063f2fde38b14610165578063fa5be8f81461017857600080fd5b806346ca6bea146100ae57806354ec5a99146100c357806366a546b1146100d6578063715018a6146101065780637abceffd1461010e575b600080fd5b6100c16100bc36600461076f565b61018b565b005b6100c16100d13660046107a4565b61023f565b6001546100e9906001600160a01b031681565b6040516001600160a01b0390911681526020015b60405180910390f35b6100c16102d3565b6100c161011c3660046107d4565b6102e7565b6000546001600160a01b03166100e9565b61013b60035481565b6040519081526020016100fd565b6100c1610157366004610807565b610420565b61013b60025481565b6100c1610173366004610831565b61055b565b6100c161018636600461084c565b6105d4565b61019361068f565b60015460405163236535f560e11b8152600481018590526024810184905282151560448201526001600160a01b03909116906346ca6bea90606401600060405180830381600087803b1580156101e857600080fd5b505af11580156101fc573d6000803e3d6000fd5b50505050827fc0cfd54d2de2b55f1e6e108d3ec53ff0a1abe6055401d32c61e9433b747ef9f88360405161023291815260200190565b60405180910390a2505050565b61024761068f565b6001546040516354ec5a9960e01b8152600481018390526001600160a01b03909116906354ec5a9990602401600060405180830381600087803b15801561028d57600080fd5b505af11580156102a1573d6000803e3d6000fd5b50506040518392507fd1d3f772dca176c0559955bd5fada714fdc67343d2428f2b0f44bcb3539d4c459150600090a250565b6102db61068f565b6102e560006106e9565b565b6102ef61068f565b600154604051637abceffd60e01b8152600481018590526001600160a01b038481166024830152831515604483015290911690637abceffd90606401600060405180830381600087803b15801561034557600080fd5b505af1158015610359573d6000803e3d6000fd5b50505050816001600160a01b03166103e860018060009054906101000a90046001600160a01b03166001600160a01b031663081e3eda6040518163ffffffff1660e01b8152600401602060405180830381865afa1580156103be573d6000803e3d6000fd5b505050506040513d601f19601f820116820180604052508101906103e29190610878565b90610739565b6040518581527f44f06e62408d549dc25356ed3ab6326c665b66ce934c0e8d13bd1957a6031d4c9060200160405180910390a3505050565b61042861068f565b600254600354610438908361074e565b11156104a25760405162461bcd60e51b815260206004820152602e60248201527f536869656c643a3a6d696e7457617263686573743a3a206d696e74206578636560448201526d19591959081b5a5b9d131a5b5a5d60921b60648201526084015b60405180910390fd5b600154604051637262ffa360e11b81526001600160a01b038481166004830152602482018490529091169063e4c5ff4690604401600060405180830381600087803b1580156104f057600080fd5b505af1158015610504573d6000803e3d6000fd5b5050600354610516925090508261074e565b6003556040518181526001600160a01b038316907f20b0488820e356da4caf57d3dd40bd86ce781d846380de53fa2363bde132d72d9060200160405180910390a25050565b61056361068f565b6001600160a01b0381166105c85760405162461bcd60e51b815260206004820152602660248201527f4f776e61626c653a206e6577206f776e657220697320746865207a65726f206160448201526564647265737360d01b6064820152608401610499565b6105d1816106e9565b50565b6105dc61068f565b600154604051631f4b7d1f60e31b81526004810185905260248101849052604481018390526001600160a01b039091169063fa5be8f890606401600060405180830381600087803b15801561063057600080fd5b505af1158015610644573d6000803e3d6000fd5b505060408051868152602081018690529081018490527fc792ade3e5d9b37fc2fd56ab64f9565275ad09c1b491d55839dadc83cb7090569250606001905060405180910390a1505050565b6000546001600160a01b031633146102e55760405162461bcd60e51b815260206004820181905260248201527f4f776e61626c653a2063616c6c6572206973206e6f7420746865206f776e65726044820152606401610499565b600080546001600160a01b038381166001600160a01b0319831681178455604051919092169283917f8be0079c531659141344cd1fd0a4f28419497f9722a3daafe3b4186f6b6457e09190a35050565b600061074582846108a7565b90505b92915050565b600061074582846108ba565b8035801515811461076a57600080fd5b919050565b60008060006060848603121561078457600080fd5b833592506020840135915061079b6040850161075a565b90509250925092565b6000602082840312156107b657600080fd5b5035919050565b80356001600160a01b038116811461076a57600080fd5b6000806000606084860312156107e957600080fd5b833592506107f9602085016107bd565b915061079b6040850161075a565b6000806040838503121561081a57600080fd5b610823836107bd565b946020939093013593505050565b60006020828403121561084357600080fd5b610745826107bd565b60008060006060848603121561086157600080fd5b505081359360208301359350604090920135919050565b60006020828403121561088a57600080fd5b5051919050565b634e487b7160e01b600052601160045260246000fd5b8181038181111561074857610748610891565b808201808211156107485761074861089156fea2646970667358221220c1a5a414fb7c644f03fd43183b85e1c8e7d40cd71da74dadb892ed793f00bf3764736f6c63430008110033",
  "immutableReferences": {},
  "source": "// SPDX-License-Identifier: MIT\n\npragma solidity 0.8.17;\n\nimport \"@openzeppelin/contracts/access/Ownable.sol\";\nimport \"@openzeppelin/contracts/utils/math/SafeMath.sol\";\n\nimport \"./interfaces/IFairLaunchV1.sol\";\n\ncontract Shield is Ownable {\n  using SafeMath for uint256;\n\n  IFairLaunchV1 public fairLaunchV1;\n\n  uint256 public mintLimit = 8000000e18;\n  uint256 public mintCount = 250000e18;\n\n  event SetFathomPerBlock(uint256 indexed _fathomPerBlock);\n  event SetBonus(uint256 _bonusMultiplier, uint256 _bonusEndBlock, uint256 _bonusLockUpBps);\n  event MintWarchest(address indexed _to, uint256 _amount);\n  event AddPool(uint256 indexed _pid, uint256 _allocPoint, address indexed _stakeToken);\n  event SetPool(uint256 indexed _pid, uint256 _allocPoint);\n\n  constructor(address _owner, IFairLaunchV1 _fairLaunchV1) {\n    transferOwnership(_owner);\n    fairLaunchV1 = _fairLaunchV1;\n  }\n\n  /// @dev Set FATHOM per Block on FLV1. Effect immediately on the next block.\n  /// @param _fathomPerBlock The new fathomPerBlock\n  function setFathomPerBlock(uint256 _fathomPerBlock) external onlyOwner {\n    fairLaunchV1.setFathomPerBlock(_fathomPerBlock);\n    emit SetFathomPerBlock(_fathomPerBlock);\n  }\n\n  /// @dev Set Bonus period on FLV1. This shouldn't be used much. Better use FLV2\n  /// @param _bonusMultiplier New bonusMultiplier\n  /// @param _bonusEndBlock The block that this bonus will be ended\n  /// @param _bonusLockUpBps The % that will rewards on bonus period will be locked\n  function setBonus(\n    uint256 _bonusMultiplier,\n    uint256 _bonusEndBlock,\n    uint256 _bonusLockUpBps\n  ) external onlyOwner {\n    fairLaunchV1.setBonus(_bonusMultiplier, _bonusEndBlock, _bonusLockUpBps);\n    emit SetBonus(_bonusMultiplier, _bonusEndBlock, _bonusLockUpBps);\n  }\n\n  /// @dev Maunally mint FATHOM warchest portion.\n  /// @param _to Mint to which address\n  /// @param _amount Amount to be minted\n  function mintWarchest(address _to, uint256 _amount) external onlyOwner {\n    require(mintCount.add(_amount) <= mintLimit, \"Shield::mintWarchest:: mint exceeded mintLimit\");\n    fairLaunchV1.manualMint(_to, _amount);\n    mintCount = mintCount.add(_amount);\n    emit MintWarchest(_to, _amount);\n  }\n\n  /// @dev Add new pool to FLV1\n  /// @param _allocPoint Allocation point of a new pool\n  /// @param _stakeToken Token to be staked\n  /// @param _withUpdate Mass update pool?\n  function addPool(\n    uint256 _allocPoint,\n    address _stakeToken,\n    bool _withUpdate\n  ) external onlyOwner {\n    fairLaunchV1.addPool(_allocPoint, _stakeToken, _withUpdate);\n    emit AddPool(fairLaunchV1.poolLength().sub(1), _allocPoint, _stakeToken);\n  }\n\n  /// @dev Set pool on FLV1. Update pool allocation point\n  /// @param _pid PoolId to be updated\n  /// @param _allocPoint New allocPoint\n  /// @param _withUpdate Mass update pool?\n  function setPool(\n    uint256 _pid,\n    uint256 _allocPoint,\n    bool _withUpdate\n  ) external onlyOwner {\n    fairLaunchV1.setPool(_pid, _allocPoint, _withUpdate);\n    emit SetPool(_pid, _allocPoint);\n  }\n}\n",
  "sourcePath": "/Users/sangjun.lee/Sangjun/fathom-stablecoin-smart-contracts/contracts/8.17/apis/fathom/Shield.sol",
  "compiler": {
    "name": "solc",
    "version": "0.8.17+commit.8df45f5f.Emscripten.clang"
  },
  "schemaVersion": "3.4.10",
  "updatedAt": "2022-10-06T11:28:50.068Z",
  "devdoc": {
    "kind": "dev",
    "methods": {
      "addPool(uint256,address,bool)": {
        "details": "Add new pool to FLV1",
        "params": {
          "_allocPoint": "Allocation point of a new pool",
          "_stakeToken": "Token to be staked",
          "_withUpdate": "Mass update pool?"
        }
      },
      "mintWarchest(address,uint256)": {
        "details": "Maunally mint FATHOM warchest portion.",
        "params": {
          "_amount": "Amount to be minted",
          "_to": "Mint to which address"
        }
      },
      "owner()": {
        "details": "Returns the address of the current owner."
      },
      "renounceOwnership()": {
        "details": "Leaves the contract without owner. It will not be possible to call `onlyOwner` functions anymore. Can only be called by the current owner. NOTE: Renouncing ownership will leave the contract without an owner, thereby removing any functionality that is only available to the owner."
      },
      "setBonus(uint256,uint256,uint256)": {
        "details": "Set Bonus period on FLV1. This shouldn't be used much. Better use FLV2",
        "params": {
          "_bonusEndBlock": "The block that this bonus will be ended",
          "_bonusLockUpBps": "The % that will rewards on bonus period will be locked",
          "_bonusMultiplier": "New bonusMultiplier"
        }
      },
      "setFathomPerBlock(uint256)": {
        "details": "Set FATHOM per Block on FLV1. Effect immediately on the next block.",
        "params": {
          "_fathomPerBlock": "The new fathomPerBlock"
        }
      },
      "setPool(uint256,uint256,bool)": {
        "details": "Set pool on FLV1. Update pool allocation point",
        "params": {
          "_allocPoint": "New allocPoint",
          "_pid": "PoolId to be updated",
          "_withUpdate": "Mass update pool?"
        }
      },
      "transferOwnership(address)": {
        "details": "Transfers ownership of the contract to a new account (`newOwner`). Can only be called by the current owner."
      }
    },
    "version": 1
  },
  "userdoc": {
    "kind": "user",
    "methods": {},
    "version": 1
  }
}