{
  "contractName": "ShowStopper",
  "abi": [
    {
      "anonymous": false,
      "inputs": [
        {
          "indexed": false,
          "internalType": "uint8",
          "name": "version",
          "type": "uint8"
        }
      ],
      "name": "Initialized",
      "type": "event"
    },
    {
      "anonymous": false,
      "inputs": [
        {
          "indexed": true,
          "internalType": "bytes32",
          "name": "collateralPoolId",
          "type": "bytes32"
        },
        {
          "indexed": true,
          "internalType": "address",
          "name": "positionAddress",
          "type": "address"
        },
        {
          "indexed": false,
          "internalType": "uint256",
          "name": "amount",
          "type": "uint256"
        },
        {
          "indexed": false,
          "internalType": "uint256",
          "name": "debtShare",
          "type": "uint256"
        }
      ],
      "name": "LogAccumulateBadDebt",
      "type": "event"
    },
    {
      "anonymous": false,
      "inputs": [
        {
          "indexed": true,
          "internalType": "address",
          "name": "ownerAddress",
          "type": "address"
        },
        {
          "indexed": false,
          "internalType": "uint256",
          "name": "amount",
          "type": "uint256"
        }
      ],
      "name": "LogAccumulateStablecoin",
      "type": "event"
    },
    {
      "anonymous": false,
      "inputs": [],
      "name": "LogCage",
      "type": "event"
    },
    {
      "anonymous": false,
      "inputs": [
        {
          "indexed": true,
          "internalType": "bytes32",
          "name": "collateralPoolId",
          "type": "bytes32"
        }
      ],
      "name": "LogCageCollateralPool",
      "type": "event"
    },
    {
      "anonymous": false,
      "inputs": [
        {
          "indexed": true,
          "internalType": "bytes32",
          "name": "collateralPoolId",
          "type": "bytes32"
        }
      ],
      "name": "LogFinalizeCashPrice",
      "type": "event"
    },
    {
      "anonymous": false,
      "inputs": [],
      "name": "LogFinalizeDebt",
      "type": "event"
    },
    {
      "anonymous": false,
      "inputs": [
        {
          "indexed": true,
          "internalType": "bytes32",
          "name": "collateralPoolId",
          "type": "bytes32"
        },
        {
          "indexed": true,
          "internalType": "address",
          "name": "positionAddress",
          "type": "address"
        },
        {
          "indexed": false,
          "internalType": "uint256",
          "name": "lockedCollateral",
          "type": "uint256"
        }
      ],
      "name": "LogRedeemLockedCollateral",
      "type": "event"
    },
    {
      "anonymous": false,
      "inputs": [
        {
          "indexed": true,
          "internalType": "bytes32",
          "name": "collateralPoolId",
          "type": "bytes32"
        },
        {
          "indexed": true,
          "internalType": "address",
          "name": "ownerAddress",
          "type": "address"
        },
        {
          "indexed": false,
          "internalType": "uint256",
          "name": "amount",
          "type": "uint256"
        }
      ],
      "name": "LogRedeemStablecoin",
      "type": "event"
    },
    {
      "anonymous": false,
      "inputs": [
        {
          "indexed": true,
          "internalType": "address",
          "name": "caller",
          "type": "address"
        },
        {
          "indexed": false,
          "internalType": "address",
          "name": "_bookKeeper",
          "type": "address"
        }
      ],
      "name": "LogSetBookKeeper",
      "type": "event"
    },
    {
      "anonymous": false,
      "inputs": [
        {
          "indexed": true,
          "internalType": "address",
          "name": "caller",
          "type": "address"
        },
        {
          "indexed": false,
          "internalType": "uint256",
          "name": "_cageCoolDown",
          "type": "uint256"
        }
      ],
      "name": "LogSetCageCoolDown",
      "type": "event"
    },
    {
      "anonymous": false,
      "inputs": [
        {
          "indexed": true,
          "internalType": "address",
          "name": "caller",
          "type": "address"
        },
        {
          "indexed": false,
          "internalType": "address",
          "name": "_liquidationEngine",
          "type": "address"
        }
      ],
      "name": "LogSetLiquidationEngine",
      "type": "event"
    },
    {
      "anonymous": false,
      "inputs": [
        {
          "indexed": true,
          "internalType": "address",
          "name": "caller",
          "type": "address"
        },
        {
          "indexed": false,
          "internalType": "address",
          "name": "_priceOracle",
          "type": "address"
        }
      ],
      "name": "LogSetPriceOracle",
      "type": "event"
    },
    {
      "anonymous": false,
      "inputs": [
        {
          "indexed": true,
          "internalType": "address",
          "name": "caller",
          "type": "address"
        },
        {
          "indexed": false,
          "internalType": "address",
          "name": "_systemDebtEngine",
          "type": "address"
        }
      ],
      "name": "LogSetSystemDebtEngine",
      "type": "event"
    },
    {
      "anonymous": false,
      "inputs": [
        {
          "indexed": false,
          "internalType": "address",
          "name": "account",
          "type": "address"
        }
      ],
      "name": "Paused",
      "type": "event"
    },
    {
      "anonymous": false,
      "inputs": [
        {
          "indexed": false,
          "internalType": "address",
          "name": "account",
          "type": "address"
        }
      ],
      "name": "Unpaused",
      "type": "event"
    },
    {
      "inputs": [
        {
          "internalType": "bytes32",
          "name": "",
          "type": "bytes32"
        }
      ],
      "name": "badDebtAccumulator",
      "outputs": [
        {
          "internalType": "uint256",
          "name": "",
          "type": "uint256"
        }
      ],
      "stateMutability": "view",
      "type": "function"
    },
    {
      "inputs": [],
      "name": "bookKeeper",
      "outputs": [
        {
          "internalType": "contract IBookKeeper",
          "name": "",
          "type": "address"
        }
      ],
      "stateMutability": "view",
      "type": "function"
    },
    {
      "inputs": [],
      "name": "cageCoolDown",
      "outputs": [
        {
          "internalType": "uint256",
          "name": "",
          "type": "uint256"
        }
      ],
      "stateMutability": "view",
      "type": "function"
    },
    {
      "inputs": [
        {
          "internalType": "bytes32",
          "name": "",
          "type": "bytes32"
        }
      ],
      "name": "cagePrice",
      "outputs": [
        {
          "internalType": "uint256",
          "name": "",
          "type": "uint256"
        }
      ],
      "stateMutability": "view",
      "type": "function"
    },
    {
      "inputs": [],
      "name": "cagedTimestamp",
      "outputs": [
        {
          "internalType": "uint256",
          "name": "",
          "type": "uint256"
        }
      ],
      "stateMutability": "view",
      "type": "function"
    },
    {
      "inputs": [],
      "name": "debt",
      "outputs": [
        {
          "internalType": "uint256",
          "name": "",
          "type": "uint256"
        }
      ],
      "stateMutability": "view",
      "type": "function"
    },
    {
      "inputs": [
        {
          "internalType": "bytes32",
          "name": "",
          "type": "bytes32"
        }
      ],
      "name": "finalCashPrice",
      "outputs": [
        {
          "internalType": "uint256",
          "name": "",
          "type": "uint256"
        }
      ],
      "stateMutability": "view",
      "type": "function"
    },
    {
      "inputs": [],
      "name": "liquidationEngine",
      "outputs": [
        {
          "internalType": "contract ILiquidationEngine",
          "name": "",
          "type": "address"
        }
      ],
      "stateMutability": "view",
      "type": "function"
    },
    {
      "inputs": [],
      "name": "live",
      "outputs": [
        {
          "internalType": "uint256",
          "name": "",
          "type": "uint256"
        }
      ],
      "stateMutability": "view",
      "type": "function"
    },
    {
      "inputs": [],
      "name": "paused",
      "outputs": [
        {
          "internalType": "bool",
          "name": "",
          "type": "bool"
        }
      ],
      "stateMutability": "view",
      "type": "function"
    },
    {
      "inputs": [],
      "name": "priceOracle",
      "outputs": [
        {
          "internalType": "contract IPriceOracle",
          "name": "",
          "type": "address"
        }
      ],
      "stateMutability": "view",
      "type": "function"
    },
    {
      "inputs": [
        {
          "internalType": "bytes32",
          "name": "",
          "type": "bytes32"
        },
        {
          "internalType": "address",
          "name": "",
          "type": "address"
        }
      ],
      "name": "redeemedStablecoinAmount",
      "outputs": [
        {
          "internalType": "uint256",
          "name": "",
          "type": "uint256"
        }
      ],
      "stateMutability": "view",
      "type": "function"
    },
    {
      "inputs": [
        {
          "internalType": "address",
          "name": "",
          "type": "address"
        }
      ],
      "name": "stablecoinAccumulator",
      "outputs": [
        {
          "internalType": "uint256",
          "name": "",
          "type": "uint256"
        }
      ],
      "stateMutability": "view",
      "type": "function"
    },
    {
      "inputs": [],
      "name": "systemDebtEngine",
      "outputs": [
        {
          "internalType": "contract ISystemDebtEngine",
          "name": "",
          "type": "address"
        }
      ],
      "stateMutability": "view",
      "type": "function"
    },
    {
      "inputs": [
        {
          "internalType": "bytes32",
          "name": "",
          "type": "bytes32"
        }
      ],
      "name": "totalDebtShare",
      "outputs": [
        {
          "internalType": "uint256",
          "name": "",
          "type": "uint256"
        }
      ],
      "stateMutability": "view",
      "type": "function"
    },
    {
      "inputs": [
        {
          "internalType": "address",
          "name": "_bookKeeper",
          "type": "address"
        }
      ],
      "name": "initialize",
      "outputs": [],
      "stateMutability": "nonpayable",
      "type": "function"
    },
    {
      "inputs": [
        {
          "internalType": "address",
          "name": "_bookKeeper",
          "type": "address"
        }
      ],
      "name": "setBookKeeper",
      "outputs": [],
      "stateMutability": "nonpayable",
      "type": "function"
    },
    {
      "inputs": [
        {
          "internalType": "address",
          "name": "_liquidationEngine",
          "type": "address"
        }
      ],
      "name": "setLiquidationEngine",
      "outputs": [],
      "stateMutability": "nonpayable",
      "type": "function"
    },
    {
      "inputs": [
        {
          "internalType": "address",
          "name": "_systemDebtEngine",
          "type": "address"
        }
      ],
      "name": "setSystemDebtEngine",
      "outputs": [],
      "stateMutability": "nonpayable",
      "type": "function"
    },
    {
      "inputs": [
        {
          "internalType": "address",
          "name": "_priceOracle",
          "type": "address"
        }
      ],
      "name": "setPriceOracle",
      "outputs": [],
      "stateMutability": "nonpayable",
      "type": "function"
    },
    {
      "inputs": [
        {
          "internalType": "uint256",
          "name": "_cageCoolDown",
          "type": "uint256"
        }
      ],
      "name": "setCageCoolDown",
      "outputs": [],
      "stateMutability": "nonpayable",
      "type": "function"
    },
    {
      "inputs": [],
      "name": "cage",
      "outputs": [],
      "stateMutability": "nonpayable",
      "type": "function"
    },
    {
      "inputs": [
        {
          "internalType": "bytes32",
          "name": "_collateralPoolId",
          "type": "bytes32"
        }
      ],
      "name": "cagePool",
      "outputs": [],
      "stateMutability": "nonpayable",
      "type": "function"
    },
    {
      "inputs": [
        {
          "internalType": "bytes32",
          "name": "_collateralPoolId",
          "type": "bytes32"
        },
        {
          "internalType": "address",
          "name": "_positionAddress",
          "type": "address"
        }
      ],
      "name": "accumulateBadDebt",
      "outputs": [],
      "stateMutability": "nonpayable",
      "type": "function"
    },
    {
      "inputs": [
        {
          "internalType": "bytes32",
          "name": "_collateralPoolId",
          "type": "bytes32"
        },
        {
          "internalType": "contract IGenericTokenAdapter",
          "name": "_adapter",
          "type": "address"
        },
        {
          "internalType": "address",
          "name": "_positionAddress",
          "type": "address"
        },
        {
          "internalType": "address",
          "name": "_collateralReceiver",
          "type": "address"
        },
        {
          "internalType": "bytes",
          "name": "_data",
          "type": "bytes"
        }
      ],
      "name": "redeemLockedCollateral",
      "outputs": [],
      "stateMutability": "nonpayable",
      "type": "function"
    },
    {
      "inputs": [],
      "name": "finalizeDebt",
      "outputs": [],
      "stateMutability": "nonpayable",
      "type": "function"
    },
    {
      "inputs": [
        {
          "internalType": "bytes32",
          "name": "_collateralPoolId",
          "type": "bytes32"
        }
      ],
      "name": "finalizeCashPrice",
      "outputs": [],
      "stateMutability": "nonpayable",
      "type": "function"
    },
    {
      "inputs": [
        {
          "internalType": "uint256",
          "name": "_amount",
          "type": "uint256"
        }
      ],
      "name": "accumulateStablecoin",
      "outputs": [],
      "stateMutability": "nonpayable",
      "type": "function"
    },
    {
      "inputs": [
        {
          "internalType": "bytes32",
          "name": "_collateralPoolId",
          "type": "bytes32"
        },
        {
          "internalType": "uint256",
          "name": "_amount",
          "type": "uint256"
        }
      ],
      "name": "redeemStablecoin",
      "outputs": [],
      "stateMutability": "nonpayable",
      "type": "function"
    }
  ],
  "bytecode": "0x608060405234801561001057600080fd5b50612c24806100206000396000f3fe608060405234801561001057600080fd5b50600436106101ce5760003560e01c80635983633311610104578063957aa58c116100a2578063bfb934c411610071578063bfb934c4146103df578063c4d66de8146103ff578063e3b3932a14610412578063f25e7ee51461042557600080fd5b8063957aa58c1461039a578063acb5f847146103a3578063b5a297b1146103ac578063be0c4a11146103bf57600080fd5b806369245009116100de578063692450091461034c57806372bac359146103545780637e0972f514610374578063855719891461038757600080fd5b8063598363331461031b5780635c975abb1461032e5780636920c9cb1461034457600080fd5b8063267750c11161017157806340a29d181161014b57806340a29d18146102cf57806344bf3c72146102e25780634d298abd146102f5578063530e784f1461030857600080fd5b8063267750c11461028857806328e49a42146102b35780633b4a5210146102c657600080fd5b8063094ad0cb116101ad578063094ad0cb1461022e5780630c91102d146102415780630dca59c1146102545780632630c12f1461025d57600080fd5b80621a0fda146101d357806307d8bd8814610206578063088d23a91461021b575b600080fd5b6101f36101e1366004612885565b60716020526000908152604090205481565b6040519081526020015b60405180910390f35b610219610214366004612885565b610445565b005b6102196102293660046128a2565b610690565b61021961023c3660046128bb565b610b87565b61021961024f3660046128a2565b610f17565b6101f3606c5481565b606854610270906001600160a01b031681565b6040516001600160a01b0390911681526020016101fd565b6101f36102963660046128bb565b607260209081526000928352604080842090915290825290205481565b606754610270906001600160a01b031681565b6101f3606b5481565b6102196102dd3660046128eb565b611189565b606654610270906001600160a01b031681565b610219610303366004612885565b6113f2565b610219610316366004612885565b6115c7565b61021961032936600461290d565b61179c565b60335460ff1660405190151581526020016101fd565b610219611b01565b610219611d42565b6101f36103623660046128a2565b606e6020526000908152604090205481565b610219610382366004612885565b61208e565b6102196103953660046128a2565b612263565b6101f360695481565b6101f3606a5481565b6102196103ba3660046128a2565b6123fb565b6101f36103cd3660046128a2565b606f6020526000908152604090205481565b6101f36103ed3660046128a2565b606d6020526000908152604090205481565b61021961040d366004612885565b6125b7565b606554610270906001600160a01b031681565b6101f36104333660046128a2565b60706020526000908152604090205481565b6065546040805163c8cc243f60e01b815290516000926001600160a01b03169163c8cc243f9160048083019260209291908290030181865afa15801561048f573d6000803e3d6000fd5b505050506040513d601f19601f820116820180604052508101906104b391906129c0565b9050806001600160a01b03166391d14854826001600160a01b031663e58378bb6040518163ffffffff1660e01b8152600401602060405180830381865afa158015610502573d6000803e3d6000fd5b505050506040513d601f19601f8201168201806040525081019061052691906129dd565b6040516001600160e01b031960e084901b1681526004810191909152336024820152604401602060405180830381865afa158015610568573d6000803e3d6000fd5b505050506040513d601f19601f8201168201806040525081019061058c91906129f6565b6105b15760405162461bcd60e51b81526004016105a890612a18565b60405180910390fd5b6069546001146105d35760405162461bcd60e51b81526004016105a890612a3c565b816001600160a01b0316636f3a3bfc6040518163ffffffff1660e01b81526004016020604051808303816000875af1158015610613573d6000803e3d6000fd5b505050506040513d601f19601f8201168201806040525081019061063791906129dd565b50606580546001600160a01b0319166001600160a01b03841690811790915560405190815233907f2dbdc2d9ab1d00dae4c8616a09875d464749cf2b95c105a3e590740214eed3b7906020015b60405180910390a25050565b6065546040805163c8cc243f60e01b815290516000926001600160a01b03169163c8cc243f9160048083019260209291908290030181865afa1580156106da573d6000803e3d6000fd5b505050506040513d601f19601f820116820180604052508101906106fe91906129c0565b9050806001600160a01b03166391d14854826001600160a01b031663e58378bb6040518163ffffffff1660e01b8152600401602060405180830381865afa15801561074d573d6000803e3d6000fd5b505050506040513d601f19601f8201168201806040525081019061077191906129dd565b6040516001600160e01b031960e084901b1681526004810191909152336024820152604401602060405180830381865afa1580156107b3573d6000803e3d6000fd5b505050506040513d601f19601f820116820180604052508101906107d791906129f6565b6107f35760405162461bcd60e51b81526004016105a890612a18565b606954156108135760405162461bcd60e51b81526004016105a890612a6a565b6000828152606d6020526040902054156108955760405162461bcd60e51b815260206004820152603960248201527f53686f7753746f707065722f636167652d70726963652d636f6c6c617465726160448201527f6c2d706f6f6c2d69642d616c72656164792d646566696e65640000000000000060648201526084016105a8565b6065546040805163d868246160e01b815290516000926001600160a01b03169163d86824619160048083019260209291908290030181865afa1580156108df573d6000803e3d6000fd5b505050506040513d601f19601f8201168201806040525081019061090391906129c0565b6001600160a01b0316637a8bd02e846040518263ffffffff1660e01b815260040161093091815260200190565b602060405180830381865afa15801561094d573d6000803e3d6000fd5b505050506040513d601f19601f8201168201806040525081019061097191906129dd565b90506000606560009054906101000a90046001600160a01b03166001600160a01b031663d86824616040518163ffffffff1660e01b8152600401602060405180830381865afa1580156109c8573d6000803e3d6000fd5b505050506040513d601f19601f820116820180604052508101906109ec91906129c0565b6001600160a01b0316638c0adf62856040518263ffffffff1660e01b8152600401610a1991815260200190565b602060405180830381865afa158015610a36573d6000803e3d6000fd5b505050506040513d601f19601f82011682018060405250810190610a5a91906129c0565b6000858152606f602090815260409182902085905560685482516313a3dd4f60e31b815292519394508493610b46936001600160a01b0390921692639d1eea7892600480820193918290030181865afa158015610abb573d6000803e3d6000fd5b505050506040513d601f19601f82011682018060405250810190610adf91906129dd565b826001600160a01b0316637e91400f6040518163ffffffff1660e01b8152600401602060405180830381865afa158015610b1d573d6000803e3d6000fd5b505050506040513d601f19601f82011682018060405250810190610b4191906129dd565b61274e565b6000868152606d602052604080822092909255905186917fbd1c95632282a2358063f487ff1e4525000d7c339f7afebf6744f972d0a98ba191a25050505050565b6000828152606d60205260408120549003610c025760405162461bcd60e51b815260206004820152603560248201527f53686f7753746f707065722f636167652d70726963652d636f6c6c61746572616044820152741b0b5c1bdbdb0b5a590b5b9bdd0b5919599a5b9959605a1b60648201526084016105a8565b6065546040805163d868246160e01b815290516000926001600160a01b03169163d86824619160048083019260209291908290030181865afa158015610c4c573d6000803e3d6000fd5b505050506040513d601f19601f82011682018060405250810190610c7091906129c0565b6001600160a01b031663a09b0fe0846040518263ffffffff1660e01b8152600401610c9d91815260200190565b602060405180830381865afa158015610cba573d6000803e3d6000fd5b505050506040513d601f19601f82011682018060405250810190610cde91906129dd565b606554604051630a76216560e21b8152600481018690526001600160a01b038581166024830152929350600092839216906329d88594906044016040805180830381865afa158015610d34573d6000803e3d6000fd5b505050506040513d601f19601f82011682018060405250810190610d589190612a9a565b915091506000610d7f610d6b8386612774565b6000888152606d6020526040902054612774565b90506000610d8d848361278d565b6000888152606e6020526040902054909150610db290610dad84846127a6565b6127c1565b6000888152606e6020526040902055600160ff1b81108015610dd75750600160ff1b83105b610e1a5760405162461bcd60e51b815260206004820152601460248201527353686f7753746f707065722f6f766572666c6f7760601b60448201526064016105a8565b6065546067546001600160a01b039182169163b1df2594918a918a91309116610e4287612ad4565b610e4b8a612ad4565b6040516001600160e01b031960e089901b16815260048101969096526001600160a01b039485166024870152928416604486015292166064840152608483019190915260a482015260c401600060405180830381600087803b158015610eb057600080fd5b505af1158015610ec4573d6000803e3d6000fd5b505060408051848152602081018790526001600160a01b038a1693508a92507f293e4e60f641b49922533fbeeac17db015a503c90dbb303eb7a873cf88d9539f910160405180910390a350505050505050565b606c54600003610f615760405162461bcd60e51b815260206004820152601560248201527453686f7753746f707065722f646562742d7a65726f60581b60448201526064016105a8565b60008181526070602052604090205415610fe35760405162461bcd60e51b815260206004820152603f60248201527f53686f7753746f707065722f66696e616c2d636173682d70726963652d636f6c60448201527f6c61746572616c2d706f6f6c2d69642d616c72656164792d646566696e65640060648201526084016105a8565b6065546040805163d868246160e01b815290516000926001600160a01b03169163d86824619160048083019260209291908290030181865afa15801561102d573d6000803e3d6000fd5b505050506040513d601f19601f8201168201806040525081019061105191906129c0565b6001600160a01b031663a09b0fe0836040518263ffffffff1660e01b815260040161107e91815260200190565b602060405180830381865afa15801561109b573d6000803e3d6000fd5b505050506040513d601f19601f820116820180604052508101906110bf91906129dd565b6000838152606f6020526040812054919250906110f4906110e09084612774565b6000858152606d6020526040902054612774565b90506b033b2e3c9fd0803ce8000000606c546111109190612af0565b6000848152606e60205260409020546111409061112e9084906127a6565b6b033b2e3c9fd0803ce80000006127dc565b61114a9190612af0565b60008481526070602052604080822092909255905184917fe3784a448612e2ede1104caa7905e411b93502dd4dc33d032bf343c5917b43c891a2505050565b806000036111d35760405162461bcd60e51b815260206004820152601760248201527653686f7753746f707065722f616d6f756e742d7a65726f60481b60448201526064016105a8565b60008281526070602052604081205490036112565760405162461bcd60e51b815260206004820152603b60248201527f53686f7753746f707065722f66696e616c2d636173682d70726963652d636f6c60448201527f6c61746572616c2d706f6f6c2d69642d6e6f742d646566696e6564000000000060648201526084016105a8565b6065546000838152607060205260409020546001600160a01b039091169063b5d993299084903090339061128b908790612774565b6040516001600160e01b031960e087901b16815260048101949094526001600160a01b039283166024850152911660448301526064820152608401600060405180830381600087803b1580156112e057600080fd5b505af11580156112f4573d6000803e3d6000fd5b505050600083815260726020908152604080832033845290915290205461131c9150826127c1565b60008381526072602090815260408083203384528083528184208590556071835292205491905210156113b75760405162461bcd60e51b815260206004820152603760248201527f53686f7753746f707065722f696e73756666696369656e742d737461626c656360448201527f6f696e2d616363756d756c61746f722d62616c616e636500000000000000000060648201526084016105a8565b604051818152339083907f276115163114a9fc56b72ce487409e28a2d9dc521d5edb93623d4ae286c548539060200160405180910390a35050565b6065546040805163c8cc243f60e01b815290516000926001600160a01b03169163c8cc243f9160048083019260209291908290030181865afa15801561143c573d6000803e3d6000fd5b505050506040513d601f19601f8201168201806040525081019061146091906129c0565b9050806001600160a01b03166391d14854826001600160a01b031663e58378bb6040518163ffffffff1660e01b8152600401602060405180830381865afa1580156114af573d6000803e3d6000fd5b505050506040513d601f19601f820116820180604052508101906114d391906129dd565b6040516001600160e01b031960e084901b1681526004810191909152336024820152604401602060405180830381865afa158015611515573d6000803e3d6000fd5b505050506040513d601f19601f8201168201806040525081019061153991906129f6565b6115555760405162461bcd60e51b81526004016105a890612a18565b6069546001146115775760405162461bcd60e51b81526004016105a890612a3c565b606680546001600160a01b0319166001600160a01b03841690811790915560405190815233907f599e6dd25180262019a2297440c3ca5d90e3fdb763a03e04e1ab11bb0ead154b90602001610684565b6065546040805163c8cc243f60e01b815290516000926001600160a01b03169163c8cc243f9160048083019260209291908290030181865afa158015611611573d6000803e3d6000fd5b505050506040513d601f19601f8201168201806040525081019061163591906129c0565b9050806001600160a01b03166391d14854826001600160a01b031663e58378bb6040518163ffffffff1660e01b8152600401602060405180830381865afa158015611684573d6000803e3d6000fd5b505050506040513d601f19601f820116820180604052508101906116a891906129dd565b6040516001600160e01b031960e084901b1681526004810191909152336024820152604401602060405180830381865afa1580156116ea573d6000803e3d6000fd5b505050506040513d601f19601f8201168201806040525081019061170e91906129f6565b61172a5760405162461bcd60e51b81526004016105a890612a18565b60695460011461174c5760405162461bcd60e51b81526004016105a890612a3c565b606880546001600160a01b0319166001600160a01b03841690811790915560405190815233907f23a4a5c78e3d84f844d749b85830c9b1f4c9d4c036c10b4a2343afb46f0f0fe890602001610684565b606954156117bc5760405162461bcd60e51b81526004016105a890612a6a565b6001600160a01b038416331480611846575060655460405163d9ea915560e01b81526001600160a01b0386811660048301523360248301529091169063d9ea915590604401602060405180830381865afa15801561181e573d6000803e3d6000fd5b505050506040513d601f19601f8201168201806040525081019061184291906129dd565b6001145b6118925760405162461bcd60e51b815260206004820152601760248201527f53686f7753746f707065722f6e6f742d616c6c6f77656400000000000000000060448201526064016105a8565b606554604051630a76216560e21b8152600481018890526001600160a01b03868116602483015260009283929116906329d88594906044016040805180830381865afa1580156118e6573d6000803e3d6000fd5b505050506040513d601f19601f8201168201806040525081019061190a9190612a9a565b915091508060001461195e5760405162461bcd60e51b815260206004820152601e60248201527f53686f7753746f707065722f6465627453686172652d6e6f742d7a65726f000060448201526064016105a8565b600160ff1b82106119a85760405162461bcd60e51b815260206004820152601460248201527353686f7753746f707065722f6f766572666c6f7760601b60448201526064016105a8565b6065546067546001600160a01b039182169163b1df2594918b918a918a91166119d088612ad4565b60405160e087901b6001600160e01b031916815260048101959095526001600160a01b039384166024860152918316604485015290911660648301526084820152600060a482015260c401600060405180830381600087803b158015611a3557600080fd5b505af1158015611a49573d6000803e3d6000fd5b5050604051634ca21b0b60e11b81526001600160a01b038a16925063994436169150611a81908990899087908a908a90600401612b12565b600060405180830381600087803b158015611a9b57600080fd5b505af1158015611aaf573d6000803e3d6000fd5b50505050846001600160a01b0316887ff2ac336db333e2ae75aa12cd2daa676109d3c95bf5b1cd3a952048f7f799cffb84604051611aef91815260200190565b60405180910390a35050505050505050565b60695415611b215760405162461bcd60e51b81526004016105a890612a6a565b606c5415611b715760405162461bcd60e51b815260206004820152601960248201527f53686f7753746f707065722f646562742d6e6f742d7a65726f0000000000000060448201526064016105a8565b60655460675460405163b4ac08bb60e01b81526001600160a01b03918216600482015291169063b4ac08bb90602401602060405180830381865afa158015611bbd573d6000803e3d6000fd5b505050506040513d601f19601f82011682018060405250810190611be191906129dd565b15611c2e5760405162461bcd60e51b815260206004820152601c60248201527f53686f7753746f707065722f737572706c75732d6e6f742d7a65726f0000000060448201526064016105a8565b611c3c606a54606b546127c1565b421015611c9b5760405162461bcd60e51b815260206004820152602760248201527f53686f7753746f707065722f636167652d636f6f6c2d646f776e2d6e6f742d666044820152661a5b9a5cda195960ca1b60648201526084016105a8565b606560009054906101000a90046001600160a01b03166001600160a01b0316636f3a3bfc6040518163ffffffff1660e01b81526004016020604051808303816000875af1158015611cf0573d6000803e3d6000fd5b505050506040513d601f19601f82011682018060405250810190611d1491906129dd565b606c556040517f0e3725bc56837c9af795ff76d008a9b5e8d0c95f11f3df03ff9c9225370b4bd290600090a1565b6065546040805163c8cc243f60e01b815290516000926001600160a01b03169163c8cc243f9160048083019260209291908290030181865afa158015611d8c573d6000803e3d6000fd5b505050506040513d601f19601f82011682018060405250810190611db091906129c0565b9050806001600160a01b03166391d14854826001600160a01b031663e58378bb6040518163ffffffff1660e01b8152600401602060405180830381865afa158015611dff573d6000803e3d6000fd5b505050506040513d601f19601f82011682018060405250810190611e2391906129dd565b6040516001600160e01b031960e084901b1681526004810191909152336024820152604401602060405180830381865afa158015611e65573d6000803e3d6000fd5b505050506040513d601f19601f82011682018060405250810190611e8991906129f6565b611ea55760405162461bcd60e51b81526004016105a890612a18565b606954600114611ec75760405162461bcd60e51b81526004016105a890612a3c565b6000606981905542606a5560655460408051636924500960e01b815290516001600160a01b039092169263692450099260048084019382900301818387803b158015611f1257600080fd5b505af1158015611f26573d6000803e3d6000fd5b50505050606660009054906101000a90046001600160a01b03166001600160a01b031663692450096040518163ffffffff1660e01b8152600401600060405180830381600087803b158015611f7a57600080fd5b505af1158015611f8e573d6000803e3d6000fd5b50505050606760009054906101000a90046001600160a01b03166001600160a01b031663692450096040518163ffffffff1660e01b8152600401600060405180830381600087803b158015611fe257600080fd5b505af1158015611ff6573d6000803e3d6000fd5b50505050606860009054906101000a90046001600160a01b03166001600160a01b031663692450096040518163ffffffff1660e01b8152600401600060405180830381600087803b15801561204a57600080fd5b505af115801561205e573d6000803e3d6000fd5b50506040517fbf689b4aae670d200b1d2b971ace2e0c3bef88a9c5e93f36705c7b86eab630b9925060009150a150565b6065546040805163c8cc243f60e01b815290516000926001600160a01b03169163c8cc243f9160048083019260209291908290030181865afa1580156120d8573d6000803e3d6000fd5b505050506040513d601f19601f820116820180604052508101906120fc91906129c0565b9050806001600160a01b03166391d14854826001600160a01b031663e58378bb6040518163ffffffff1660e01b8152600401602060405180830381865afa15801561214b573d6000803e3d6000fd5b505050506040513d601f19601f8201168201806040525081019061216f91906129dd565b6040516001600160e01b031960e084901b1681526004810191909152336024820152604401602060405180830381865afa1580156121b1573d6000803e3d6000fd5b505050506040513d601f19601f820116820180604052508101906121d591906129f6565b6121f15760405162461bcd60e51b81526004016105a890612a18565b6069546001146122135760405162461bcd60e51b81526004016105a890612a3c565b606780546001600160a01b0319166001600160a01b03841690811790915560405190815233907f28c02b7fb4c1c94c7b73df5dd0863593970575d3a1faf5271e73ee27155c402190602001610684565b806000036122ad5760405162461bcd60e51b815260206004820152601760248201527653686f7753746f707065722f616d6f756e742d7a65726f60481b60448201526064016105a8565b606c546000036122f75760405162461bcd60e51b815260206004820152601560248201527453686f7753746f707065722f646562742d7a65726f60581b60448201526064016105a8565b6065546067546001600160a01b0391821691638c15785491339116612328856b033b2e3c9fd0803ce80000006127dc565b6040516001600160e01b031960e086901b1681526001600160a01b0393841660048201529290911660248301526044820152606401600060405180830381600087803b15801561237757600080fd5b505af115801561238b573d6000803e3d6000fd5b5050336000908152607160205260409020546123aa92509050826127c1565b33600081815260716020526040908190209290925590517fc50ee2f6bfb3dfbf11848560b2f455c3b655a6046bd89eda50b5b2ffcd6fc1f9906123f09084815260200190565b60405180910390a250565b6065546040805163c8cc243f60e01b815290516000926001600160a01b03169163c8cc243f9160048083019260209291908290030181865afa158015612445573d6000803e3d6000fd5b505050506040513d601f19601f8201168201806040525081019061246991906129c0565b9050806001600160a01b03166391d14854826001600160a01b031663e58378bb6040518163ffffffff1660e01b8152600401602060405180830381865afa1580156124b8573d6000803e3d6000fd5b505050506040513d601f19601f820116820180604052508101906124dc91906129dd565b6040516001600160e01b031960e084901b1681526004810191909152336024820152604401602060405180830381865afa15801561251e573d6000803e3d6000fd5b505050506040513d601f19601f8201168201806040525081019061254291906129f6565b61255e5760405162461bcd60e51b81526004016105a890612a18565b6069546001146125805760405162461bcd60e51b81526004016105a890612a3c565b606b82905560405182815233907f0fbe15c55a6ffa7c9d38f88af449a911fad669e3c5de3215a833fb9fa53b7e5c90602001610684565b600054610100900460ff16158080156125d75750600054600160ff909116105b806125f15750303b1580156125f1575060005460ff166001145b6126545760405162461bcd60e51b815260206004820152602e60248201527f496e697469616c697a61626c653a20636f6e747261637420697320616c72656160448201526d191e481a5b9a5d1a585b1a5e995960921b60648201526084016105a8565b6000805460ff191660011790558015612677576000805461ff0019166101001790555b61267f612809565b816001600160a01b0316636f3a3bfc6040518163ffffffff1660e01b81526004016020604051808303816000875af11580156126bf573d6000803e3d6000fd5b505050506040513d601f19601f820116820180604052508101906126e391906129dd565b50606580546001600160a01b0319166001600160a01b0384161790556001606955801561274a576000805461ff0019169055604051600181527f7f26b83ff96e1f2b6a682f133852f6798a09c465da95921460cefb38474024989060200160405180910390a15b5050565b60008161276384670de0b6b3a76400006127dc565b61276d9190612af0565b9392505050565b60006b033b2e3c9fd0803ce800000061276384846127dc565b60008183111561279d578161276d565b50815b92915050565b6000826127b38382612b66565b91508111156127a057600080fd5b60006127cd8284612b79565b9050828110156127a057600080fd5b6000811580612800575082826127f28183612b8c565b92506127fe9083612af0565b145b6127a057600080fd5b600054610100900460ff166128305760405162461bcd60e51b81526004016105a890612ba3565b61283861283a565b565b600054610100900460ff166128615760405162461bcd60e51b81526004016105a890612ba3565b6033805460ff19169055565b6001600160a01b038116811461288257600080fd5b50565b60006020828403121561289757600080fd5b813561276d8161286d565b6000602082840312156128b457600080fd5b5035919050565b600080604083850312156128ce57600080fd5b8235915060208301356128e08161286d565b809150509250929050565b600080604083850312156128fe57600080fd5b50508035926020909101359150565b60008060008060008060a0878903121561292657600080fd5b8635955060208701356129388161286d565b945060408701356129488161286d565b935060608701356129588161286d565b9250608087013567ffffffffffffffff8082111561297557600080fd5b818901915089601f83011261298957600080fd5b81358181111561299857600080fd5b8a60208285010111156129aa57600080fd5b6020830194508093505050509295509295509295565b6000602082840312156129d257600080fd5b815161276d8161286d565b6000602082840312156129ef57600080fd5b5051919050565b600060208284031215612a0857600080fd5b8151801515811461276d57600080fd5b6020808252600a9082015269216f776e6572526f6c6560b01b604082015260600190565b60208082526014908201527353686f7753746f707065722f6e6f742d6c69766560601b604082015260600190565b60208082526016908201527553686f7753746f707065722f7374696c6c2d6c69766560501b604082015260600190565b60008060408385031215612aad57600080fd5b505080516020909101519092909150565b634e487b7160e01b600052601160045260246000fd5b6000600160ff1b8201612ae957612ae9612abe565b5060000390565b600082612b0d57634e487b7160e01b600052601260045260246000fd5b500490565b6001600160a01b038681168252851660208201526040810184905260806060820181905281018290526000828460a0840137600060a0848401015260a0601f19601f85011683010190509695505050505050565b818103818111156127a0576127a0612abe565b808201808211156127a0576127a0612abe565b80820281158282048414176127a0576127a0612abe565b6020808252602b908201527f496e697469616c697a61626c653a20636f6e7472616374206973206e6f74206960408201526a6e697469616c697a696e6760a81b60608201526080019056fea26469706673582212209f099d6f5d7c1bd6980f655421debf0842a0243cc0997e4a32147def9eea62fc64736f6c63430008110033",
  "immutableReferences": {},
  "source": "// SPDX-License-Identifier: AGPL-3.0-or-later\n\npragma solidity 0.8.17;\npragma experimental ABIEncoderV2;\n\nimport \"@openzeppelin/contracts-upgradeable/security/PausableUpgradeable.sol\";\nimport \"@openzeppelin/contracts-upgradeable/access/AccessControlUpgradeable.sol\";\n\nimport \"../interfaces/IBookKeeper.sol\";\nimport \"../interfaces/ILiquidationEngine.sol\";\nimport \"../interfaces/IPriceFeed.sol\";\nimport \"../interfaces/IPriceOracle.sol\";\nimport \"../interfaces/ISystemDebtEngine.sol\";\nimport \"../interfaces/IGenericTokenAdapter.sol\";\nimport \"../interfaces/ICagable.sol\";\nimport \"../interfaces/IShowStopper.sol\";\n\n/*\n    This is the `End` and it coordinates Global Settlement. This is an\n    involved, stateful process that takes place over nine steps.\n\n    First we freeze the system and lock the prices for each collateralPoolId.\n\n    1. `cage()`:\n        - freezes user entrypoints\n        - cancels flop/flap auctions\n        - starts cooldown period\n        - stops pot drips\n\n    2. `cage(collateralPoolId)`:\n       - set the cage price for each `collateralPoolId`, reading off the price feed\n\n    We must process some system state before it is possible to calculate\n    the final FUSD / collateral price. In particular, we need to determine\n\n      a. `badDebtAccumulator`, the collateral badDebtAccumulator per collateral type by\n         considering under-collateralised CDPs.\n\n      b. `debt`, the outstanding FUSD supply after including system\n         surplus / deficit\n\n    We determine (a) by processing all under-collateralised CDPs with\n    `accumulateBadDebt`:\n\n    3. `accumulateBadDebt(collateralPoolId, urn)`:\n       - cancels CDP debt\n       - any excess collateral remains\n       - backing collateral taken\n\n    We determine (b) by processing ongoing FUSD generating processes,\n    i.e. auctions. We need to ensure that auctions will not generate any\n    further FUSD income.\n\n    In the two-way auction model (Flipper) this occurs cagedTimestamp\n    all auctions are in the reverse (`dent`) phase. There are two ways\n    of ensuring this:\n\n    4a. i) `cageCoolDown`: set the cooldown period to be at least as long as the\n           longest auction duration, which needs to be determined by the\n           cage administrator.\n\n           This takes a fairly predictable time to occur but with altered\n           auction dynamics due to the block.timestamp varying price of FUSD.\n\n       ii) `skip`: cancel all ongoing auctions and seize the collateral.\n\n           This allows for faster processing at the expense of more\n           processing calls. This option allows FUSD holders to retrieve\n           their collateral faster.\n\n           `skip(collateralPoolId, id)`:\n            - cancel individual flip auctions in the `tend` (forward) phase\n            - retrieves collateral and debt (including penalty) to owner's CDP\n            - returns FUSD to last bidder\n            - `dent` (reverse) phase auctions can continue normally\n\n    Option (i), `cageCoolDown`, is sufficient (if all auctions were bidded at least\n    once) for processing the system settlement but option (ii), `skip`,\n    will speed it up. Both options are available in this implementation,\n    with `skip` being enabled on a per-auction basis.\n\n    In the case of the Dutch Auctions model (Clipper) they keep recovering\n    debt during the whole lifetime and there isn't a max duration time\n    guaranteed for the auction to end.\n    So the way to ensure the protocol will not receive extra FUSD income is:\n\n    4b. i) `snip`: cancel all ongoing auctions and seize the collateral.\n\n           `snip(collateralPoolId, id)`:\n            - cancel individual running clip auctions\n            - retrieves remaining collateral and debt (including penalty)\n              to owner's CDP\n\n    cagedTimestamp a CDP has been processed and has no debt remaining, the\n    remaining collateral can be removed.\n\n    5. `redeemLockedCollateral(collateralPoolId)`:\n        - remove collateral from the caller's CDP\n        - owner can call as needed\n\n    After the processing period has elapsed, we enable calculation of\n    the final price for each collateral type.\n\n    6. `finalizeDebt()`:\n       - only callable after processing time period elapsed\n       - assumption that all under-collateralised CDPs are processed\n       - fixes the total outstanding supply of FUSD\n       - may also require extra CDP processing to cover systemDebtEngine surplus\n\n    7. `finalizeCashPrice(collateralPoolId)`:\n        - calculate the `fix`, the redeemStablecoin price for a given collateralPoolId\n        - adjusts the `fix` in the case of deficit / surplus\n\n    At this point we have computed the final price for each collateral\n    type and FUSD holders can block.timestamp turn their FUSD into collateral. Each\n    unit FUSD can claim a fixed basket of collateral.\n\n    FUSD holders must first `accumulateStablecoin` some FUSD into a `stablecoinAccumulator`. Once packed,\n    FUSD cannot be unpacked and is not transferrable. More FUSD can be\n    added to a stablecoinAccumulator later.\n\n    8. `accumulateStablecoin(wad)`:\n        - put some FUSD into a stablecoinAccumulator in preparation for `redeemStablecoin`\n\n    Finally, collateral can be obtained with `redeemStablecoin`. The bigger the stablecoinAccumulator,\n    the more collateral can be released.\n\n    9. `redeemStablecoin(collateralPoolId, wad)`:\n        - exchange some FUSD from your stablecoinAccumulator for gems from a specific collateralPoolId\n        - the number of gems is limited by how big your stablecoinAccumulator is\n*/\n\ncontract ShowStopper is PausableUpgradeable, IShowStopper {\n  // --- Data ---\n  IBookKeeper public bookKeeper; // CDP Engine\n  ILiquidationEngine public liquidationEngine;\n  ISystemDebtEngine public systemDebtEngine; // Debt Engine\n  IPriceOracle public priceOracle;\n\n  uint256 public override live; // Active Flag\n  uint256 public cagedTimestamp; // Time of cage                   [unix epoch time]\n  uint256 public cageCoolDown; // Processing Cooldown Length             [seconds]\n  uint256 public debt; // Total outstanding stablecoin following processing [rad]\n\n  mapping(bytes32 => uint256) public cagePrice; // Cage price              [ray]\n  mapping(bytes32 => uint256) public badDebtAccumulator; // Collateral badDebtAccumulator    [wad]\n  mapping(bytes32 => uint256) public totalDebtShare; // Total debt per collateralPoolId      [wad]\n  mapping(bytes32 => uint256) public finalCashPrice; // Final redeemStablecoin price        [ray]\n\n  mapping(address => uint256) public stablecoinAccumulator; //    [wad]\n  mapping(bytes32 => mapping(address => uint256)) public redeemedStablecoinAmount; //    [wad]\n\n  event LogCage();\n  event LogCageCollateralPool(bytes32 indexed collateralPoolId);\n\n  event LogAccumulateBadDebt(\n    bytes32 indexed collateralPoolId,\n    address indexed positionAddress,\n    uint256 amount,\n    uint256 debtShare\n  );\n  event LogRedeemLockedCollateral(\n    bytes32 indexed collateralPoolId,\n    address indexed positionAddress,\n    uint256 lockedCollateral\n  );\n  event LogFinalizeDebt();\n  event LogFinalizeCashPrice(bytes32 indexed collateralPoolId);\n  event LogAccumulateStablecoin(address indexed ownerAddress, uint256 amount);\n  event LogRedeemStablecoin(bytes32 indexed collateralPoolId, address indexed ownerAddress, uint256 amount);\n\n  // --- Init ---\n  function initialize(address _bookKeeper) external initializer {\n    PausableUpgradeable.__Pausable_init();\n\n    IBookKeeper(_bookKeeper).totalStablecoinIssued(); // Sanity Check Call\n    bookKeeper = IBookKeeper(_bookKeeper);\n    live = 1;\n  }\n\n  // --- Math ---\n  uint256 constant WAD = 10**18;\n  uint256 constant RAY = 10**27;\n\n  function add(uint256 _x, uint256 _y) internal pure returns (uint256 _z) {\n    _z = _x + _y;\n    require(_z >= _x);\n  }\n\n  function sub(uint256 _x, uint256 _y) internal pure returns (uint256 _z) {\n    require((_z = _x - _y) <= _x);\n  }\n\n  function mul(uint256 _x, uint256 _y) internal pure returns (uint256 _z) {\n    require(_y == 0 || (_z = _x * _y) / _y == _x);\n  }\n\n  function min(uint256 _x, uint256 _y) internal pure returns (uint256 _z) {\n    return _x <= _y ? _x : _y;\n  }\n\n  function rmul(uint256 _x, uint256 _y) internal pure returns (uint256 _z) {\n    _z = mul(_x, _y) / RAY;\n  }\n\n  function wdiv(uint256 _x, uint256 _y) internal pure returns (uint256 _z) {\n    _z = mul(_x, WAD) / _y;\n  }\n\n  // --- Administration ---\n  event LogSetBookKeeper(address indexed caller, address _bookKeeper);\n  event LogSetLiquidationEngine(address indexed caller, address _liquidationEngine);\n  event LogSetSystemDebtEngine(address indexed caller, address _systemDebtEngine);\n  event LogSetPriceOracle(address indexed caller, address _priceOracle);\n  event LogSetCageCoolDown(address indexed caller, uint256 _cageCoolDown);\n\n  modifier onlyOwner() {\n    IAccessControlConfig _accessControlConfig = IAccessControlConfig(bookKeeper.accessControlConfig());\n    require(_accessControlConfig.hasRole(_accessControlConfig.OWNER_ROLE(), msg.sender), \"!ownerRole\");\n    _;\n  }\n\n  /// @dev access: OWNER_ROLE\n  function setBookKeeper(address _bookKeeper) external onlyOwner {\n    require(live == 1, \"ShowStopper/not-live\");\n\n    IBookKeeper(_bookKeeper).totalStablecoinIssued(); // Sanity Check Call\n    bookKeeper = IBookKeeper(_bookKeeper);\n    emit LogSetBookKeeper(msg.sender, _bookKeeper);\n  }\n\n  /// @dev access: OWNER_ROLE\n  function setLiquidationEngine(address _liquidationEngine) external onlyOwner {\n    require(live == 1, \"ShowStopper/not-live\");\n    liquidationEngine = ILiquidationEngine(_liquidationEngine);\n    emit LogSetLiquidationEngine(msg.sender, _liquidationEngine);\n  }\n\n  /// @dev access: OWNER_ROLE\n  function setSystemDebtEngine(address _systemDebtEngine) external onlyOwner {\n    require(live == 1, \"ShowStopper/not-live\");\n    systemDebtEngine = ISystemDebtEngine(_systemDebtEngine);\n    emit LogSetSystemDebtEngine(msg.sender, _systemDebtEngine);\n  }\n\n  /// @dev access: OWNER_ROLE\n  function setPriceOracle(address _priceOracle) external onlyOwner {\n    require(live == 1, \"ShowStopper/not-live\");\n    priceOracle = IPriceOracle(_priceOracle);\n    emit LogSetPriceOracle(msg.sender, _priceOracle);\n  }\n\n  /// @dev access: OWNER_ROLE\n  function setCageCoolDown(uint256 _cageCoolDown) external onlyOwner {\n    require(live == 1, \"ShowStopper/not-live\");\n    cageCoolDown = _cageCoolDown;\n    emit LogSetCageCoolDown(msg.sender, _cageCoolDown);\n  }\n\n  // --- Settlement ---\n  /** @dev Start the process of emergency shutdown. The following will happen in order:\n      - Start a cooldown period of the emergency shutdown\n      - BookKeeper will be paused: locking/unlocking collateral and mint/repay Fathom Stablecoin will not be allow for any positions\n      - LiquidationEngine will be paused: positions will not be liquidated\n      - SystemDebtEngine will be paused: no accrual of new debt, no system debt settlement\n      - PriceOracle will be paused: no new price update, no liquidation trigger\n   */\n  /// @dev access: OWNER_ROLE\n  function cage() external onlyOwner {\n    require(live == 1, \"ShowStopper/not-live\");\n    live = 0;\n    cagedTimestamp = block.timestamp;\n    ICagable(address(bookKeeper)).cage();\n    ICagable(address(liquidationEngine)).cage();\n    ICagable(address(systemDebtEngine)).cage();\n    ICagable(address(priceOracle)).cage();\n    emit LogCage();\n  }\n\n  /// @dev Set the cage price of the collateral pool with the latest price from the price oracle\n  /// @param _collateralPoolId Collateral pool id\n  /// @dev access: OWNER_ROLE\n  function cagePool(bytes32 _collateralPoolId) external onlyOwner {\n    require(live == 0, \"ShowStopper/still-live\");\n    require(cagePrice[_collateralPoolId] == 0, \"ShowStopper/cage-price-collateral-pool-id-already-defined\");\n    uint256 _totalDebtShare = ICollateralPoolConfig(bookKeeper.collateralPoolConfig()).getTotalDebtShare(\n      _collateralPoolId\n    );\n    address _priceFeedAddress = ICollateralPoolConfig(bookKeeper.collateralPoolConfig()).getPriceFeed(\n      _collateralPoolId\n    );\n    IPriceFeed _priceFeed = IPriceFeed(_priceFeedAddress);\n    totalDebtShare[_collateralPoolId] = _totalDebtShare;\n    // par is a ray, priceFeed returns a wad\n    cagePrice[_collateralPoolId] = wdiv(priceOracle.stableCoinReferencePrice(), uint256(_priceFeed.readPrice()));\n    emit LogCageCollateralPool(_collateralPoolId);\n  }\n\n  /** @dev Inspect the specified position and use the cage price of the collateral pool id to calculate the current badDebtAccumulator of the position.\n      The badDebtAccumulator will be tracked per collateral pool. It will be used in the determination of the stablecoin redemption price \n      to make sure that all badDebtAccumulator will be covered. This process will clear the debt from the position.\n  */\n  /// @param _collateralPoolId Collateral pool id\n  /// @param _positionAddress Position address\n  function accumulateBadDebt(bytes32 _collateralPoolId, address _positionAddress) external {\n    require(cagePrice[_collateralPoolId] != 0, \"ShowStopper/cage-price-collateral-pool-id-not-defined\");\n    uint256 _debtAccumulatedRate = ICollateralPoolConfig(IBookKeeper(bookKeeper).collateralPoolConfig())\n      .getDebtAccumulatedRate(_collateralPoolId); // [ray]\n    (uint256 _lockedCollateralAmount, uint256 _debtShare) = bookKeeper.positions(_collateralPoolId, _positionAddress);\n\n    // find the amount of debt in the unit of collateralToken\n    uint256 _debtAmount = rmul(rmul(_debtShare, _debtAccumulatedRate), cagePrice[_collateralPoolId]); // unit = collateralToken\n\n    // if debt > lockedCollateralAmount, that's mean bad debt occur\n    uint256 _amount = min(_lockedCollateralAmount, _debtAmount);\n\n    // accumulate bad debt in badDebtAccumulator (if there is any)\n    badDebtAccumulator[_collateralPoolId] = add(badDebtAccumulator[_collateralPoolId], sub(_debtAmount, _amount));\n\n    require(_amount < 2**255 && _debtShare < 2**255, \"ShowStopper/overflow\");\n\n    // force close the position with the best amount we could achieve\n    bookKeeper.confiscatePosition(\n      _collateralPoolId,\n      _positionAddress,\n      address(this),\n      address(systemDebtEngine),\n      -int256(_amount),\n      -int256(_debtShare)\n    );\n    emit LogAccumulateBadDebt(_collateralPoolId, _positionAddress, _amount, _debtShare);\n  }\n\n  /** @dev Redeem locked collateral from the position which has been safely settled by the emergency shutdown and give the collateral back to the position owner.\n      The position to be freed must has no debt at all. That means it must have gone through the process of `accumulateBadDebt` or `smip` already.\n      The position will be limited to the caller address. If the position address is not an EOA address but is managed by a position manager contract,\n      the owner of the position will have to move the collateral inside the position to the owner address first before calling `redeemLockedCollateral`.\n  */\n  /// @param _collateralPoolId Collateral pool id\n  function redeemLockedCollateral(\n    bytes32 _collateralPoolId,\n    IGenericTokenAdapter _adapter,\n    address _positionAddress,\n    address _collateralReceiver,\n    bytes calldata _data\n  ) external override {\n    require(live == 0, \"ShowStopper/still-live\");\n    require(\n      _positionAddress == msg.sender || bookKeeper.positionWhitelist(_positionAddress, msg.sender) == 1,\n      \"ShowStopper/not-allowed\"\n    );\n    (uint256 _lockedCollateralAmount, uint256 _debtShare) = bookKeeper.positions(_collateralPoolId, _positionAddress);\n    require(_debtShare == 0, \"ShowStopper/debtShare-not-zero\");\n    require(_lockedCollateralAmount < 2**255, \"ShowStopper/overflow\");\n    bookKeeper.confiscatePosition(\n      _collateralPoolId,\n      _positionAddress,\n      _collateralReceiver,\n      address(systemDebtEngine),\n      -int256(_lockedCollateralAmount),\n      0\n    );\n    _adapter.onMoveCollateral(_positionAddress, _collateralReceiver, _lockedCollateralAmount, _data);\n    emit LogRedeemLockedCollateral(_collateralPoolId, _collateralReceiver, _lockedCollateralAmount);\n  }\n\n  /** @dev Finalize the total debt of the system after the emergency shutdown.\n      This function should be called after:\n      - Every positions has undergone `accumulateBadDebt` or `snip` to settle all the debt.\n      - System surplus must be zero, this means all surplus should be used to settle bad debt already.\n      - The emergency shutdown cooldown period must have passed.\n      This total debt will be equivalent to the total stablecoin issued which should already reflect \n      the correct value if all the above requirements before calling `finalizeDebt` are satisfied.\n  */\n  function finalizeDebt() external {\n    require(live == 0, \"ShowStopper/still-live\");\n    require(debt == 0, \"ShowStopper/debt-not-zero\");\n    require(bookKeeper.stablecoin(address(systemDebtEngine)) == 0, \"ShowStopper/surplus-not-zero\");\n    require(block.timestamp >= add(cagedTimestamp, cageCoolDown), \"ShowStopper/cage-cool-down-not-finished\");\n    debt = bookKeeper.totalStablecoinIssued();\n    emit LogFinalizeDebt();\n  }\n\n  /** @dev Calculate the redeemStablecoin price of the collateral pool id.\n      The redeemStablecoin price is the price where the Fathom Stablecoin owner will be entitled to cagedTimestamp redeeming from Fathom Stablecoin -> collateral token.\n      The redeemStablecoin price will take into account the deficit/surplus of this collateral pool and calculate the price so that any bad debt will be covered.\n  */\n  /// @param _collateralPoolId Collateral pool id\n  function finalizeCashPrice(bytes32 _collateralPoolId) external {\n    require(debt != 0, \"ShowStopper/debt-zero\");\n    require(finalCashPrice[_collateralPoolId] == 0, \"ShowStopper/final-cash-price-collateral-pool-id-already-defined\");\n\n    uint256 _debtAccumulatedRate = ICollateralPoolConfig(IBookKeeper(bookKeeper).collateralPoolConfig())\n      .getDebtAccumulatedRate(_collateralPoolId); // [ray]\n    uint256 _wad = rmul(rmul(totalDebtShare[_collateralPoolId], _debtAccumulatedRate), cagePrice[_collateralPoolId]);\n    finalCashPrice[_collateralPoolId] = mul(sub(_wad, badDebtAccumulator[_collateralPoolId]), RAY) / (debt / RAY);\n    emit LogFinalizeCashPrice(_collateralPoolId);\n  }\n\n  /// @dev Accumulate the deposited stablecoin of the caller into a stablecoinAccumulator to be redeemed into collateral token later\n  /// @param _amount the amount of stablecoin to be accumulated [wad]\n  function accumulateStablecoin(uint256 _amount) external {\n    require(_amount != 0, \"ShowStopper/amount-zero\");\n    require(debt != 0, \"ShowStopper/debt-zero\");\n    bookKeeper.moveStablecoin(msg.sender, address(systemDebtEngine), mul(_amount, RAY));\n    stablecoinAccumulator[msg.sender] = add(stablecoinAccumulator[msg.sender], _amount);\n    emit LogAccumulateStablecoin(msg.sender, _amount);\n  }\n\n  /// @dev Redeem all the stablecoin in the stablecoinAccumulator of the caller into the corresponding collateral token\n  /// @param _collateralPoolId Collateral pool id\n  /// @param _amount the amount of stablecoin to be redeemed [wad]\n  function redeemStablecoin(bytes32 _collateralPoolId, uint256 _amount) external {\n    require(_amount != 0, \"ShowStopper/amount-zero\");\n    require(finalCashPrice[_collateralPoolId] != 0, \"ShowStopper/final-cash-price-collateral-pool-id-not-defined\");\n    bookKeeper.moveCollateral(\n      _collateralPoolId,\n      address(this),\n      msg.sender,\n      rmul(_amount, finalCashPrice[_collateralPoolId])\n    );\n    redeemedStablecoinAmount[_collateralPoolId][msg.sender] = add(\n      redeemedStablecoinAmount[_collateralPoolId][msg.sender],\n      _amount\n    );\n    require(\n      redeemedStablecoinAmount[_collateralPoolId][msg.sender] <= stablecoinAccumulator[msg.sender],\n      \"ShowStopper/insufficient-stablecoin-accumulator-balance\"\n    );\n    emit LogRedeemStablecoin(_collateralPoolId, msg.sender, _amount);\n  }\n}\n",
  "sourcePath": "/Users/sangjun.lee/Sangjun/fathom-stablecoin-smart-contracts/contracts/8.17/stablecoin-core/ShowStopper.sol",
  "compiler": {
    "name": "solc",
    "version": "0.8.17+commit.8df45f5f.Emscripten.clang"
  },
  "schemaVersion": "3.4.10",
  "updatedAt": "2022-10-28T11:53:17.852Z",
  "devdoc": {
    "kind": "dev",
    "methods": {
      "accumulateBadDebt(bytes32,address)": {
        "params": {
          "_collateralPoolId": "Collateral pool id",
          "_positionAddress": "Position address"
        }
      },
      "accumulateStablecoin(uint256)": {
        "details": "Accumulate the deposited stablecoin of the caller into a stablecoinAccumulator to be redeemed into collateral token later",
        "params": {
          "_amount": "the amount of stablecoin to be accumulated [wad]"
        }
      },
      "cage()": {
        "details": "access: OWNER_ROLE"
      },
      "cagePool(bytes32)": {
        "details": "Set the cage price of the collateral pool with the latest price from the price oracleaccess: OWNER_ROLE",
        "params": {
          "_collateralPoolId": "Collateral pool id"
        }
      },
      "finalizeCashPrice(bytes32)": {
        "params": {
          "_collateralPoolId": "Collateral pool id"
        }
      },
      "finalizeDebt()": {
        "details": "Finalize the total debt of the system after the emergency shutdown. This function should be called after: - Every positions has undergone `accumulateBadDebt` or `snip` to settle all the debt. - System surplus must be zero, this means all surplus should be used to settle bad debt already. - The emergency shutdown cooldown period must have passed. This total debt will be equivalent to the total stablecoin issued which should already reflect  the correct value if all the above requirements before calling `finalizeDebt` are satisfied."
      },
      "paused()": {
        "details": "Returns true if the contract is paused, and false otherwise."
      },
      "redeemLockedCollateral(bytes32,address,address,address,bytes)": {
        "params": {
          "_collateralPoolId": "Collateral pool id"
        }
      },
      "redeemStablecoin(bytes32,uint256)": {
        "details": "Redeem all the stablecoin in the stablecoinAccumulator of the caller into the corresponding collateral token",
        "params": {
          "_amount": "the amount of stablecoin to be redeemed [wad]",
          "_collateralPoolId": "Collateral pool id"
        }
      },
      "setBookKeeper(address)": {
        "details": "access: OWNER_ROLE"
      },
      "setCageCoolDown(uint256)": {
        "details": "access: OWNER_ROLE"
      },
      "setLiquidationEngine(address)": {
        "details": "access: OWNER_ROLE"
      },
      "setPriceOracle(address)": {
        "details": "access: OWNER_ROLE"
      },
      "setSystemDebtEngine(address)": {
        "details": "access: OWNER_ROLE"
      }
    },
    "version": 1
  },
  "userdoc": {
    "kind": "user",
    "methods": {},
    "version": 1
  }
}