{
  "contractName": "SimplePriceFeed",
  "abi": [
    {
      "anonymous": false,
      "inputs": [
        {
          "indexed": false,
          "internalType": "uint8",
          "name": "version",
          "type": "uint8"
        }
      ],
      "name": "Initialized",
      "type": "event"
    },
    {
      "anonymous": false,
      "inputs": [
        {
          "indexed": true,
          "internalType": "address",
          "name": "_caller",
          "type": "address"
        },
        {
          "indexed": false,
          "internalType": "uint256",
          "name": "_price",
          "type": "uint256"
        },
        {
          "indexed": true,
          "internalType": "uint256",
          "name": "_lastUpdate",
          "type": "uint256"
        }
      ],
      "name": "LogSetPrice",
      "type": "event"
    },
    {
      "anonymous": false,
      "inputs": [
        {
          "indexed": true,
          "internalType": "address",
          "name": "_caller",
          "type": "address"
        },
        {
          "indexed": false,
          "internalType": "uint256",
          "name": "_second",
          "type": "uint256"
        }
      ],
      "name": "LogSetPriceLife",
      "type": "event"
    },
    {
      "anonymous": false,
      "inputs": [
        {
          "indexed": false,
          "internalType": "address",
          "name": "account",
          "type": "address"
        }
      ],
      "name": "Paused",
      "type": "event"
    },
    {
      "anonymous": false,
      "inputs": [
        {
          "indexed": true,
          "internalType": "bytes32",
          "name": "role",
          "type": "bytes32"
        },
        {
          "indexed": true,
          "internalType": "bytes32",
          "name": "previousAdminRole",
          "type": "bytes32"
        },
        {
          "indexed": true,
          "internalType": "bytes32",
          "name": "newAdminRole",
          "type": "bytes32"
        }
      ],
      "name": "RoleAdminChanged",
      "type": "event"
    },
    {
      "anonymous": false,
      "inputs": [
        {
          "indexed": true,
          "internalType": "bytes32",
          "name": "role",
          "type": "bytes32"
        },
        {
          "indexed": true,
          "internalType": "address",
          "name": "account",
          "type": "address"
        },
        {
          "indexed": true,
          "internalType": "address",
          "name": "sender",
          "type": "address"
        }
      ],
      "name": "RoleGranted",
      "type": "event"
    },
    {
      "anonymous": false,
      "inputs": [
        {
          "indexed": true,
          "internalType": "bytes32",
          "name": "role",
          "type": "bytes32"
        },
        {
          "indexed": true,
          "internalType": "address",
          "name": "account",
          "type": "address"
        },
        {
          "indexed": true,
          "internalType": "address",
          "name": "sender",
          "type": "address"
        }
      ],
      "name": "RoleRevoked",
      "type": "event"
    },
    {
      "anonymous": false,
      "inputs": [
        {
          "indexed": false,
          "internalType": "address",
          "name": "account",
          "type": "address"
        }
      ],
      "name": "Unpaused",
      "type": "event"
    },
    {
      "inputs": [],
      "name": "DEFAULT_ADMIN_ROLE",
      "outputs": [
        {
          "internalType": "bytes32",
          "name": "",
          "type": "bytes32"
        }
      ],
      "stateMutability": "view",
      "type": "function"
    },
    {
      "inputs": [],
      "name": "accessControlConfig",
      "outputs": [
        {
          "internalType": "contract IAccessControlConfig",
          "name": "",
          "type": "address"
        }
      ],
      "stateMutability": "view",
      "type": "function"
    },
    {
      "inputs": [
        {
          "internalType": "bytes32",
          "name": "role",
          "type": "bytes32"
        }
      ],
      "name": "getRoleAdmin",
      "outputs": [
        {
          "internalType": "bytes32",
          "name": "",
          "type": "bytes32"
        }
      ],
      "stateMutability": "view",
      "type": "function"
    },
    {
      "inputs": [
        {
          "internalType": "bytes32",
          "name": "role",
          "type": "bytes32"
        },
        {
          "internalType": "address",
          "name": "account",
          "type": "address"
        }
      ],
      "name": "grantRole",
      "outputs": [],
      "stateMutability": "nonpayable",
      "type": "function"
    },
    {
      "inputs": [
        {
          "internalType": "bytes32",
          "name": "role",
          "type": "bytes32"
        },
        {
          "internalType": "address",
          "name": "account",
          "type": "address"
        }
      ],
      "name": "hasRole",
      "outputs": [
        {
          "internalType": "bool",
          "name": "",
          "type": "bool"
        }
      ],
      "stateMutability": "view",
      "type": "function"
    },
    {
      "inputs": [],
      "name": "lastUpdate",
      "outputs": [
        {
          "internalType": "uint256",
          "name": "",
          "type": "uint256"
        }
      ],
      "stateMutability": "view",
      "type": "function"
    },
    {
      "inputs": [],
      "name": "paused",
      "outputs": [
        {
          "internalType": "bool",
          "name": "",
          "type": "bool"
        }
      ],
      "stateMutability": "view",
      "type": "function"
    },
    {
      "inputs": [],
      "name": "price",
      "outputs": [
        {
          "internalType": "uint256",
          "name": "",
          "type": "uint256"
        }
      ],
      "stateMutability": "view",
      "type": "function"
    },
    {
      "inputs": [],
      "name": "priceLife",
      "outputs": [
        {
          "internalType": "uint256",
          "name": "",
          "type": "uint256"
        }
      ],
      "stateMutability": "view",
      "type": "function"
    },
    {
      "inputs": [
        {
          "internalType": "bytes32",
          "name": "role",
          "type": "bytes32"
        },
        {
          "internalType": "address",
          "name": "account",
          "type": "address"
        }
      ],
      "name": "renounceRole",
      "outputs": [],
      "stateMutability": "nonpayable",
      "type": "function"
    },
    {
      "inputs": [
        {
          "internalType": "bytes32",
          "name": "role",
          "type": "bytes32"
        },
        {
          "internalType": "address",
          "name": "account",
          "type": "address"
        }
      ],
      "name": "revokeRole",
      "outputs": [],
      "stateMutability": "nonpayable",
      "type": "function"
    },
    {
      "inputs": [
        {
          "internalType": "bytes4",
          "name": "interfaceId",
          "type": "bytes4"
        }
      ],
      "name": "supportsInterface",
      "outputs": [
        {
          "internalType": "bool",
          "name": "",
          "type": "bool"
        }
      ],
      "stateMutability": "view",
      "type": "function"
    },
    {
      "inputs": [
        {
          "internalType": "address",
          "name": "_accessControlConfig",
          "type": "address"
        }
      ],
      "name": "initialize",
      "outputs": [],
      "stateMutability": "nonpayable",
      "type": "function"
    },
    {
      "inputs": [
        {
          "internalType": "uint256",
          "name": "_price",
          "type": "uint256"
        }
      ],
      "name": "setPrice",
      "outputs": [],
      "stateMutability": "nonpayable",
      "type": "function"
    },
    {
      "inputs": [
        {
          "internalType": "uint256",
          "name": "_second",
          "type": "uint256"
        }
      ],
      "name": "setPriceLife",
      "outputs": [],
      "stateMutability": "nonpayable",
      "type": "function"
    },
    {
      "inputs": [],
      "name": "pause",
      "outputs": [],
      "stateMutability": "nonpayable",
      "type": "function"
    },
    {
      "inputs": [],
      "name": "unpause",
      "outputs": [],
      "stateMutability": "nonpayable",
      "type": "function"
    },
    {
      "inputs": [],
      "name": "readPrice",
      "outputs": [
        {
          "internalType": "bytes32",
          "name": "",
          "type": "bytes32"
        }
      ],
      "stateMutability": "view",
      "type": "function"
    },
    {
      "inputs": [],
      "name": "peekPrice",
      "outputs": [
        {
          "internalType": "bytes32",
          "name": "",
          "type": "bytes32"
        },
        {
          "internalType": "bool",
          "name": "",
          "type": "bool"
        }
      ],
      "stateMutability": "view",
      "type": "function"
    }
  ],
  "bytecode": "0x608060405234801561001057600080fd5b506113e5806100206000396000f3fe608060405234801561001057600080fd5b50600436106101215760003560e01c80638456cb59116100ad578063c046371111610071578063c046371114610227578063c4d66de814610230578063c8cc243f14610243578063d547741f1461026e578063ef36ee471461028157600080fd5b80638456cb59146101e857806391b7f5ed146101f057806391d1485414610203578063a035b1fe14610216578063a217fddf1461021f57600080fd5b806336568abe116100f457806336568abe146101b15780633f4ba83a146101c45780635af639c3146101cc5780635c975abb146101d55780637e91400f146101e057600080fd5b806301ffc9a714610126578063140d27201461014e578063248a9ca31461016b5780632f2ff15d1461019c575b600080fd5b610139610134366004611121565b610294565b60405190151581526020015b60405180910390f35b6101566102cb565b60408051928352901515602083015201610145565b61018e61017936600461114b565b60009081526097602052604090206001015490565b604051908152602001610145565b6101af6101aa366004611180565b6102e4565b005b6101af6101bf366004611180565b61030e565b6101af610391565b61018e60cc5481565b60335460ff16610139565b60ca5461018e565b6101af61059f565b6101af6101fe36600461114b565b6107ab565b610139610211366004611180565b610903565b61018e60ca5481565b61018e600081565b61018e60cb5481565b6101af61023e3660046111ac565b61092e565b60c954610256906001600160a01b031681565b6040516001600160a01b039091168152602001610145565b6101af61027c366004611180565b610a69565b6101af61028f36600461114b565b610a8e565b60006001600160e01b03198216637965db0b60e01b14806102c557506301ffc9a760e01b6001600160e01b03198316145b92915050565b60008060ca5460001b6102dc610c41565b915091509091565b6000828152609760205260409020600101546102ff81610c5f565b6103098383610c6c565b505050565b6001600160a01b03811633146103835760405162461bcd60e51b815260206004820152602f60248201527f416363657373436f6e74726f6c3a2063616e206f6e6c792072656e6f756e636560448201526e103937b632b9903337b91039b2b63360891b60648201526084015b60405180910390fd5b61038d8282610cf2565b5050565b60c9546040805163e58378bb60e01b815290516001600160a01b03909216916391d1485491839163e58378bb916004808201926020929091908290030181865afa1580156103e3573d6000803e3d6000fd5b505050506040513d601f19601f8201168201806040525081019061040791906111c7565b6040516001600160e01b031960e084901b1681526004810191909152336024820152604401602060405180830381865afa158015610449573d6000803e3d6000fd5b505050506040513d601f19601f8201168201806040525081019061046d91906111e0565b8061054f575060c95460408051635a9b40c560e11b815290516001600160a01b03909216916391d1485491839163b536818a916004808201926020929091908290030181865afa1580156104c5573d6000803e3d6000fd5b505050506040513d601f19601f820116820180604052508101906104e991906111c7565b6040516001600160e01b031960e084901b1681526004810191909152336024820152604401602060405180830381865afa15801561052b573d6000803e3d6000fd5b505050506040513d601f19601f8201168201806040525081019061054f91906111e0565b6105955760405162461bcd60e51b815260206004820152601760248201527621286f776e6572526f6c65206f7220676f76526f6c652960481b604482015260640161037a565b61059d610d59565b565b60c9546040805163e58378bb60e01b815290516001600160a01b03909216916391d1485491839163e58378bb916004808201926020929091908290030181865afa1580156105f1573d6000803e3d6000fd5b505050506040513d601f19601f8201168201806040525081019061061591906111c7565b6040516001600160e01b031960e084901b1681526004810191909152336024820152604401602060405180830381865afa158015610657573d6000803e3d6000fd5b505050506040513d601f19601f8201168201806040525081019061067b91906111e0565b8061075d575060c95460408051635a9b40c560e11b815290516001600160a01b03909216916391d1485491839163b536818a916004808201926020929091908290030181865afa1580156106d3573d6000803e3d6000fd5b505050506040513d601f19601f820116820180604052508101906106f791906111c7565b6040516001600160e01b031960e084901b1681526004810191909152336024820152604401602060405180830381865afa158015610739573d6000803e3d6000fd5b505050506040513d601f19601f8201168201806040525081019061075d91906111e0565b6107a35760405162461bcd60e51b815260206004820152601760248201527621286f776e6572526f6c65206f7220676f76526f6c652960481b604482015260640161037a565b61059d610dab565b60c9546040805163e58378bb60e01b815290516001600160a01b03909216916391d1485491839163e58378bb916004808201926020929091908290030181865afa1580156107fd573d6000803e3d6000fd5b505050506040513d601f19601f8201168201806040525081019061082191906111c7565b6040516001600160e01b031960e084901b1681526004810191909152336024820152604401602060405180830381865afa158015610863573d6000803e3d6000fd5b505050506040513d601f19601f8201168201806040525081019061088791906111e0565b6108c05760405162461bcd60e51b815260206004820152600a602482015269216f776e6572526f6c6560b01b604482015260640161037a565b60ca8190554260cb81905560405182815233907f0c1bf5d6a7e7580edc1650a8e69b1d64c5fc49d95f46e11527f49bce8caaed2f9060200160405180910390a350565b60009182526097602090815260408084206001600160a01b0393909316845291905290205460ff1690565b600054610100900460ff161580801561094e5750600054600160ff909116105b806109685750303b158015610968575060005460ff166001145b6109cb5760405162461bcd60e51b815260206004820152602e60248201527f496e697469616c697a61626c653a20636f6e747261637420697320616c72656160448201526d191e481a5b9a5d1a585b1a5e995960921b606482015260840161037a565b6000805460ff1916600117905580156109ee576000805461ff0019166101001790555b6109f6610de8565b6109fe610e17565b6201518060cc5560c980546001600160a01b0319166001600160a01b038416179055801561038d576000805461ff0019169055604051600181527f7f26b83ff96e1f2b6a682f133852f6798a09c465da95921460cefb38474024989060200160405180910390a15050565b600082815260976020526040902060010154610a8481610c5f565b6103098383610cf2565b60c9546040805163e58378bb60e01b815290516001600160a01b03909216916391d1485491839163e58378bb916004808201926020929091908290030181865afa158015610ae0573d6000803e3d6000fd5b505050506040513d601f19601f82011682018060405250810190610b0491906111c7565b6040516001600160e01b031960e084901b1681526004810191909152336024820152604401602060405180830381865afa158015610b46573d6000803e3d6000fd5b505050506040513d601f19601f82011682018060405250810190610b6a91906111e0565b610ba35760405162461bcd60e51b815260206004820152600a602482015269216f776e6572526f6c6560b01b604482015260640161037a565b610e108110158015610bb85750620151808111155b610c045760405162461bcd60e51b815260206004820152601e60248201527f53696d706c655072696365466565642f6261642d70726963652d6c6966650000604482015260640161037a565b60cc81905560405181815233907f472c5e14bb804bd7b201c5c27f2ea820980b37ef7611806e7b3f6db6758f32e09060200160405180910390a250565b6000610c4b610e3e565b8015610c5a575060335460ff16155b905090565b610c698133610e58565b50565b610c768282610903565b61038d5760008281526097602090815260408083206001600160a01b03851684529091529020805460ff19166001179055610cae3390565b6001600160a01b0316816001600160a01b0316837f2f8788117e7eff1d82e926ec794901d17c78024a50270940304540a733656f0d60405160405180910390a45050565b610cfc8282610903565b1561038d5760008281526097602090815260408083206001600160a01b0385168085529252808320805460ff1916905551339285917ff6391f5c32d9c69d2a47ea670b442974b53935d1edc7fd64eb21e047a839171b9190a45050565b610d61610ebc565b6033805460ff191690557f5db9ee0a495bf2e6ff9c91a7834c1ba4fdd244a5e8aa4e537bd38aeae4b073aa335b6040516001600160a01b03909116815260200160405180910390a1565b610db3610f05565b6033805460ff191660011790557f62e78cea01bee320cd4e420270b5ea74000d11b0c9f74754ebdbfc544b05a258610d8e3390565b600054610100900460ff16610e0f5760405162461bcd60e51b815260040161037a90611202565b61059d610f4b565b600054610100900460ff1661059d5760405162461bcd60e51b815260040161037a90611202565b600060cc5442610e4e9190611263565b60cb541015905090565b610e628282610903565b61038d57610e7a816001600160a01b03166014610f7e565b610e85836020610f7e565b604051602001610e9692919061129a565b60408051601f198184030181529082905262461bcd60e51b825261037a9160040161130f565b60335460ff1661059d5760405162461bcd60e51b815260206004820152601460248201527314185d5cd8589b194e881b9bdd081c185d5cd95960621b604482015260640161037a565b60335460ff161561059d5760405162461bcd60e51b815260206004820152601060248201526f14185d5cd8589b194e881c185d5cd95960821b604482015260640161037a565b600054610100900460ff16610f725760405162461bcd60e51b815260040161037a90611202565b6033805460ff19169055565b60606000610f8d836002611342565b610f98906002611359565b67ffffffffffffffff811115610fb057610fb061136c565b6040519080825280601f01601f191660200182016040528015610fda576020820181803683370190505b509050600360fc1b81600081518110610ff557610ff5611382565b60200101906001600160f81b031916908160001a905350600f60fb1b8160018151811061102457611024611382565b60200101906001600160f81b031916908160001a9053506000611048846002611342565b611053906001611359565b90505b60018111156110cb576f181899199a1a9b1b9c1cb0b131b232b360811b85600f166010811061108757611087611382565b1a60f81b82828151811061109d5761109d611382565b60200101906001600160f81b031916908160001a90535060049490941c936110c481611398565b9050611056565b50831561111a5760405162461bcd60e51b815260206004820181905260248201527f537472696e67733a20686578206c656e67746820696e73756666696369656e74604482015260640161037a565b9392505050565b60006020828403121561113357600080fd5b81356001600160e01b03198116811461111a57600080fd5b60006020828403121561115d57600080fd5b5035919050565b80356001600160a01b038116811461117b57600080fd5b919050565b6000806040838503121561119357600080fd5b823591506111a360208401611164565b90509250929050565b6000602082840312156111be57600080fd5b61111a82611164565b6000602082840312156111d957600080fd5b5051919050565b6000602082840312156111f257600080fd5b8151801515811461111a57600080fd5b6020808252602b908201527f496e697469616c697a61626c653a20636f6e7472616374206973206e6f74206960408201526a6e697469616c697a696e6760a81b606082015260800190565b634e487b7160e01b600052601160045260246000fd5b818103818111156102c5576102c561124d565b60005b83811015611291578181015183820152602001611279565b50506000910152565b7f416363657373436f6e74726f6c3a206163636f756e74200000000000000000008152600083516112d2816017850160208801611276565b7001034b99036b4b9b9b4b733903937b6329607d1b6017918401918201528351611303816028840160208801611276565b01602801949350505050565b602081526000825180602084015261132e816040850160208701611276565b601f01601f19169190910160400192915050565b80820281158282048414176102c5576102c561124d565b808201808211156102c5576102c561124d565b634e487b7160e01b600052604160045260246000fd5b634e487b7160e01b600052603260045260246000fd5b6000816113a7576113a761124d565b50600019019056fea2646970667358221220d24241ef0b702775de78bb28c9036f894dd64bbdcbfbf389248e4ae2773f86c664736f6c63430008110033",
  "immutableReferences": {},
  "source": "// SPDX-License-Identifier: AGPL-3.0-or-later\n\npragma solidity 0.8.17;\n\nimport \"@openzeppelin/contracts-upgradeable/security/PausableUpgradeable.sol\";\nimport \"@openzeppelin/contracts-upgradeable/access/AccessControlUpgradeable.sol\";\n\nimport \"../interfaces/IPriceFeed.sol\";\nimport \"../interfaces/IAccessControlConfig.sol\";\n\n// SimplePriceFeed is intended to be used for unit test only\ncontract SimplePriceFeed is PausableUpgradeable, AccessControlUpgradeable, IPriceFeed {\n  IAccessControlConfig public accessControlConfig;\n\n  uint256 public price;\n  uint256 public lastUpdate;\n\n  uint256 public priceLife;\n\n  // --- Init ---\n  function initialize(address _accessControlConfig) external initializer {\n    PausableUpgradeable.__Pausable_init();\n    AccessControlUpgradeable.__AccessControl_init();\n\n    priceLife = 1 days; // [seconds] how old the price is considered stale, default 1 day\n\n    accessControlConfig = IAccessControlConfig(_accessControlConfig);\n  }\n\n  modifier onlyOwner() {\n    require(accessControlConfig.hasRole(accessControlConfig.OWNER_ROLE(), msg.sender), \"!ownerRole\");\n    _;\n  }\n\n  modifier onlyOwnerOrGov() {\n    require(\n      accessControlConfig.hasRole(accessControlConfig.OWNER_ROLE(), msg.sender) ||\n        accessControlConfig.hasRole(accessControlConfig.GOV_ROLE(), msg.sender),\n      \"!(ownerRole or govRole)\"\n    );\n    _;\n  }\n\n  event LogSetPrice(address indexed _caller, uint256 _price, uint256 indexed _lastUpdate);\n  event LogSetPriceLife(address indexed _caller, uint256 _second);\n\n  /// @dev access: OWNER_ROLE\n  function setPrice(uint256 _price) external onlyOwner {\n    price = _price;\n    lastUpdate = block.timestamp;\n    emit LogSetPrice(msg.sender, price, lastUpdate);\n  }\n\n  /// @dev access: OWNER_ROLE\n  function setPriceLife(uint256 _second) external onlyOwner {\n    require(_second >= 1 hours && _second <= 1 days, \"SimplePriceFeed/bad-price-life\");\n    priceLife = _second;\n    emit LogSetPriceLife(msg.sender, _second);\n  }\n\n  /// @dev access: OWNER_ROLE, GOV_ROLE\n  function pause() external onlyOwnerOrGov {\n    _pause();\n  }\n\n  /// @dev access: OWNER_ROLE, GOV_ROLE\n  function unpause() external onlyOwnerOrGov {\n    _unpause();\n  }\n\n  function readPrice() external view override returns (bytes32) {\n    return bytes32(price);\n  }\n\n  function peekPrice() external view override returns (bytes32, bool) {\n    return (bytes32(price), _isPriceOk());\n  }\n\n  function _isPriceFresh() internal view returns (bool) {\n    // solhint-disable not-rely-on-time\n    return lastUpdate >= block.timestamp - priceLife;\n  }\n\n  function _isPriceOk() internal view returns (bool) {\n    return _isPriceFresh() && !paused();\n  }\n}\n",
  "sourcePath": "/Users/sangjun.lee/Sangjun/fathom-stablecoin-smart-contracts/contracts/8.17/price-feeders/SimplePriceFeed.sol",
  "compiler": {
    "name": "solc",
    "version": "0.8.17+commit.8df45f5f.Emscripten.clang"
  },
  "schemaVersion": "3.4.10",
  "updatedAt": "2022-10-06T11:28:50.157Z",
  "devdoc": {
    "kind": "dev",
    "methods": {
      "getRoleAdmin(bytes32)": {
        "details": "Returns the admin role that controls `role`. See {grantRole} and {revokeRole}. To change a role's admin, use {_setRoleAdmin}."
      },
      "grantRole(bytes32,address)": {
        "details": "Grants `role` to `account`. If `account` had not been already granted `role`, emits a {RoleGranted} event. Requirements: - the caller must have ``role``'s admin role. May emit a {RoleGranted} event."
      },
      "hasRole(bytes32,address)": {
        "details": "Returns `true` if `account` has been granted `role`."
      },
      "pause()": {
        "details": "access: OWNER_ROLE, GOV_ROLE"
      },
      "paused()": {
        "details": "Returns true if the contract is paused, and false otherwise."
      },
      "renounceRole(bytes32,address)": {
        "details": "Revokes `role` from the calling account. Roles are often managed via {grantRole} and {revokeRole}: this function's purpose is to provide a mechanism for accounts to lose their privileges if they are compromised (such as when a trusted device is misplaced). If the calling account had been revoked `role`, emits a {RoleRevoked} event. Requirements: - the caller must be `account`. May emit a {RoleRevoked} event."
      },
      "revokeRole(bytes32,address)": {
        "details": "Revokes `role` from `account`. If `account` had been granted `role`, emits a {RoleRevoked} event. Requirements: - the caller must have ``role``'s admin role. May emit a {RoleRevoked} event."
      },
      "setPrice(uint256)": {
        "details": "access: OWNER_ROLE"
      },
      "setPriceLife(uint256)": {
        "details": "access: OWNER_ROLE"
      },
      "supportsInterface(bytes4)": {
        "details": "See {IERC165-supportsInterface}."
      },
      "unpause()": {
        "details": "access: OWNER_ROLE, GOV_ROLE"
      }
    },
    "version": 1
  },
  "userdoc": {
    "kind": "user",
    "methods": {},
    "version": 1
  }
}