{
  "contractName": "StableSwapModule",
  "abi": [
    {
      "anonymous": false,
      "inputs": [
        {
          "indexed": false,
          "internalType": "uint8",
          "name": "version",
          "type": "uint8"
        }
      ],
      "name": "Initialized",
      "type": "event"
    },
    {
      "anonymous": false,
      "inputs": [
        {
          "indexed": true,
          "internalType": "address",
          "name": "_caller",
          "type": "address"
        },
        {
          "indexed": false,
          "internalType": "uint256",
          "name": "_feeIn",
          "type": "uint256"
        }
      ],
      "name": "LogSetFeeIn",
      "type": "event"
    },
    {
      "anonymous": false,
      "inputs": [
        {
          "indexed": true,
          "internalType": "address",
          "name": "_caller",
          "type": "address"
        },
        {
          "indexed": false,
          "internalType": "uint256",
          "name": "_feeOut",
          "type": "uint256"
        }
      ],
      "name": "LogSetFeeOut",
      "type": "event"
    },
    {
      "anonymous": false,
      "inputs": [
        {
          "indexed": true,
          "internalType": "address",
          "name": "_owner",
          "type": "address"
        },
        {
          "indexed": false,
          "internalType": "uint256",
          "name": "_value",
          "type": "uint256"
        },
        {
          "indexed": false,
          "internalType": "uint256",
          "name": "_fee",
          "type": "uint256"
        }
      ],
      "name": "LogSwapStablecoinToToken",
      "type": "event"
    },
    {
      "anonymous": false,
      "inputs": [
        {
          "indexed": true,
          "internalType": "address",
          "name": "_owner",
          "type": "address"
        },
        {
          "indexed": false,
          "internalType": "uint256",
          "name": "_value",
          "type": "uint256"
        },
        {
          "indexed": false,
          "internalType": "uint256",
          "name": "_fee",
          "type": "uint256"
        }
      ],
      "name": "LogSwapTokenToStablecoin",
      "type": "event"
    },
    {
      "anonymous": false,
      "inputs": [
        {
          "indexed": false,
          "internalType": "address",
          "name": "account",
          "type": "address"
        }
      ],
      "name": "Paused",
      "type": "event"
    },
    {
      "anonymous": false,
      "inputs": [
        {
          "indexed": false,
          "internalType": "address",
          "name": "account",
          "type": "address"
        }
      ],
      "name": "Unpaused",
      "type": "event"
    },
    {
      "inputs": [],
      "name": "authTokenAdapter",
      "outputs": [
        {
          "internalType": "contract IAuthTokenAdapter",
          "name": "",
          "type": "address"
        }
      ],
      "stateMutability": "view",
      "type": "function"
    },
    {
      "inputs": [],
      "name": "bookKeeper",
      "outputs": [
        {
          "internalType": "contract IBookKeeper",
          "name": "",
          "type": "address"
        }
      ],
      "stateMutability": "view",
      "type": "function"
    },
    {
      "inputs": [],
      "name": "collateralPoolId",
      "outputs": [
        {
          "internalType": "bytes32",
          "name": "",
          "type": "bytes32"
        }
      ],
      "stateMutability": "view",
      "type": "function"
    },
    {
      "inputs": [],
      "name": "feeIn",
      "outputs": [
        {
          "internalType": "uint256",
          "name": "",
          "type": "uint256"
        }
      ],
      "stateMutability": "view",
      "type": "function"
    },
    {
      "inputs": [],
      "name": "feeOut",
      "outputs": [
        {
          "internalType": "uint256",
          "name": "",
          "type": "uint256"
        }
      ],
      "stateMutability": "view",
      "type": "function"
    },
    {
      "inputs": [],
      "name": "paused",
      "outputs": [
        {
          "internalType": "bool",
          "name": "",
          "type": "bool"
        }
      ],
      "stateMutability": "view",
      "type": "function"
    },
    {
      "inputs": [],
      "name": "stablecoin",
      "outputs": [
        {
          "internalType": "contract IStablecoin",
          "name": "",
          "type": "address"
        }
      ],
      "stateMutability": "view",
      "type": "function"
    },
    {
      "inputs": [],
      "name": "stablecoinAdapter",
      "outputs": [
        {
          "internalType": "contract IStablecoinAdapter",
          "name": "",
          "type": "address"
        }
      ],
      "stateMutability": "view",
      "type": "function"
    },
    {
      "inputs": [],
      "name": "systemDebtEngine",
      "outputs": [
        {
          "internalType": "address",
          "name": "",
          "type": "address"
        }
      ],
      "stateMutability": "view",
      "type": "function"
    },
    {
      "inputs": [
        {
          "internalType": "address",
          "name": "_authTokenAdapter",
          "type": "address"
        },
        {
          "internalType": "address",
          "name": "_stablecoinAdapter",
          "type": "address"
        },
        {
          "internalType": "address",
          "name": "_systemDebtEngine",
          "type": "address"
        }
      ],
      "name": "initialize",
      "outputs": [],
      "stateMutability": "nonpayable",
      "type": "function"
    },
    {
      "inputs": [
        {
          "internalType": "uint256",
          "name": "_feeIn",
          "type": "uint256"
        }
      ],
      "name": "setFeeIn",
      "outputs": [],
      "stateMutability": "nonpayable",
      "type": "function"
    },
    {
      "inputs": [
        {
          "internalType": "uint256",
          "name": "_feeOut",
          "type": "uint256"
        }
      ],
      "name": "setFeeOut",
      "outputs": [],
      "stateMutability": "nonpayable",
      "type": "function"
    },
    {
      "inputs": [
        {
          "internalType": "address",
          "name": "_usr",
          "type": "address"
        }
      ],
      "name": "whitelist",
      "outputs": [],
      "stateMutability": "nonpayable",
      "type": "function"
    },
    {
      "inputs": [
        {
          "internalType": "address",
          "name": "_usr",
          "type": "address"
        }
      ],
      "name": "blacklist",
      "outputs": [],
      "stateMutability": "nonpayable",
      "type": "function"
    },
    {
      "inputs": [
        {
          "internalType": "address",
          "name": "_usr",
          "type": "address"
        },
        {
          "internalType": "uint256",
          "name": "_tokenAmount",
          "type": "uint256"
        }
      ],
      "name": "swapTokenToStablecoin",
      "outputs": [],
      "stateMutability": "nonpayable",
      "type": "function"
    },
    {
      "inputs": [
        {
          "internalType": "address",
          "name": "_usr",
          "type": "address"
        },
        {
          "internalType": "uint256",
          "name": "_tokenAmount",
          "type": "uint256"
        }
      ],
      "name": "swapStablecoinToToken",
      "outputs": [],
      "stateMutability": "nonpayable",
      "type": "function"
    },
    {
      "inputs": [],
      "name": "pause",
      "outputs": [],
      "stateMutability": "nonpayable",
      "type": "function"
    },
    {
      "inputs": [],
      "name": "unpause",
      "outputs": [],
      "stateMutability": "nonpayable",
      "type": "function"
    }
  ],
  "bytecode": "0x608060405234801561001057600080fd5b5061213b806100206000396000f3fe608060405234801561001057600080fd5b50600436106101165760003560e01c806381e28cc7116100a2578063dca07dc511610071578063dca07dc514610218578063e3b3932a14610221578063e723b97714610234578063e9cbd82214610247578063f9f92be41461025a57600080fd5b806381e28cc7146101d75780638456cb59146101ea5780639b19251a146101f2578063c0c53b8b1461020557600080fd5b806342e8a972116100e957806342e8a9721461017f57806346a311d31461019257806355725d41146101a55780635c975abb146101b8578063769a48d9146101ce57600080fd5b80630696819f1461011b57806328e49a42146101375780633f4ba83a1461016257806340853dce1461016c575b600080fd5b610124609f5481565b6040519081526020015b60405180910390f35b609c5461014a906001600160a01b031681565b6040516001600160a01b03909116815260200161012e565b61016a61026d565b005b61016a61017a366004611d80565b6104e7565b61016a61018d366004611dac565b6107e7565b609a5461014a906001600160a01b031681565b61016a6101b3366004611dac565b6109e1565b60335460ff16604051901515815260200161012e565b610124609e5481565b61016a6101e5366004611d80565b610bd3565b61016a610efa565b61016a610200366004611dc5565b61116c565b61016a610213366004611de9565b611333565b610124609b5481565b60975461014a906001600160a01b031681565b60985461014a906001600160a01b031681565b60995461014a906001600160a01b031681565b61016a610268366004611dc5565b61171b565b6097546040805163c8cc243f60e01b815290516000926001600160a01b03169163c8cc243f9160048083019260209291908290030181865afa1580156102b7573d6000803e3d6000fd5b505050506040513d601f19601f820116820180604052508101906102db9190611e34565b9050806001600160a01b03166391d14854826001600160a01b031663e58378bb6040518163ffffffff1660e01b8152600401602060405180830381865afa15801561032a573d6000803e3d6000fd5b505050506040513d601f19601f8201168201806040525081019061034e9190611e51565b6040516001600160e01b031960e084901b1681526004810191909152336024820152604401602060405180830381865afa158015610390573d6000803e3d6000fd5b505050506040513d601f19601f820116820180604052508101906103b49190611e6a565b806104915750806001600160a01b03166391d14854826001600160a01b031663b536818a6040518163ffffffff1660e01b8152600401602060405180830381865afa158015610407573d6000803e3d6000fd5b505050506040513d601f19601f8201168201806040525081019061042b9190611e51565b6040516001600160e01b031960e084901b1681526004810191909152336024820152604401602060405180830381865afa15801561046d573d6000803e3d6000fd5b505050506040513d601f19601f820116820180604052508101906104919190611e6a565b6104dc5760405162461bcd60e51b815260206004820152601760248201527621286f776e6572526f6c65206f7220676f76526f6c652960481b60448201526064015b60405180910390fd5b6104e46118b0565b50565b6104ef611902565b6104f761195b565b806000036105475760405162461bcd60e51b815260206004820152601c60248201527f537461626c65537761704d6f64756c652f616d6f756e742d7a65726f0000000060448201526064016104d3565b600061055582609d546119a3565b90506000670de0b6b3a764000061056e83609e546119a3565b6105789190611ea2565b9050600061058683836119d6565b609854604051633d14d1b760e21b8152306004820152602481018790523360448201529192506001600160a01b03169063f45346dc90606401600060405180830381600087803b1580156105d957600080fd5b505af11580156105ed573d6000803e3d6000fd5b5050609754609b54604051632b5eaca560e11b8152600481019190915230602482018190526044820181905260648201526084810187905260a481018790526001600160a01b0390911692506356bd594a915060c401600060405180830381600087803b15801561065d57600080fd5b505af1158015610671573d6000803e3d6000fd5b5050609754609c546001600160a01b039182169350638c15785492503091166106a6866b033b2e3c9fd0803ce80000006119a3565b6040516001600160e01b031960e086901b1681526001600160a01b0393841660048201529290911660248301526044820152606401600060405180830381600087803b1580156106f557600080fd5b505af1158015610709573d6000803e3d6000fd5b5050609a5460408051600060208201526001600160a01b0390921693506331f09265925088918591016040516020818303038152906040526040518463ffffffff1660e01b815260040161075f93929190611ee8565b600060405180830381600087803b15801561077957600080fd5b505af115801561078d573d6000803e3d6000fd5b505060408051878152602081018690526001600160a01b03891693507febeefb54ae6b697f8f7b14ec942871ef2fc051ec90c2a221007e5a5702a4d7f29250015b60405180910390a25050506107e36001606555565b5050565b6097546040805163c8cc243f60e01b815290516000926001600160a01b03169163c8cc243f9160048083019260209291908290030181865afa158015610831573d6000803e3d6000fd5b505050506040513d601f19601f820116820180604052508101906108559190611e34565b9050806001600160a01b03166391d14854826001600160a01b031663e58378bb6040518163ffffffff1660e01b8152600401602060405180830381865afa1580156108a4573d6000803e3d6000fd5b505050506040513d601f19601f820116820180604052508101906108c89190611e51565b6040516001600160e01b031960e084901b1681526004810191909152336024820152604401602060405180830381865afa15801561090a573d6000803e3d6000fd5b505050506040513d601f19601f8201168201806040525081019061092e9190611e6a565b61094a5760405162461bcd60e51b81526004016104d390611f31565b6706f05b59d3b200008211156109a25760405162461bcd60e51b815260206004820152601f60248201527f537461626c65537761704d6f64756c652f696e76616c69642d6665652d696e0060448201526064016104d3565b609f82905560405182815233907fca068f6ffd884c8217e477778ef3821efcb5e96690cff9e680c7dbd077d1d1bd906020015b60405180910390a25050565b6097546040805163c8cc243f60e01b815290516000926001600160a01b03169163c8cc243f9160048083019260209291908290030181865afa158015610a2b573d6000803e3d6000fd5b505050506040513d601f19601f82011682018060405250810190610a4f9190611e34565b9050806001600160a01b03166391d14854826001600160a01b031663e58378bb6040518163ffffffff1660e01b8152600401602060405180830381865afa158015610a9e573d6000803e3d6000fd5b505050506040513d601f19601f82011682018060405250810190610ac29190611e51565b6040516001600160e01b031960e084901b1681526004810191909152336024820152604401602060405180830381865afa158015610b04573d6000803e3d6000fd5b505050506040513d601f19601f82011682018060405250810190610b289190611e6a565b610b445760405162461bcd60e51b81526004016104d390611f31565b6706f05b59d3b20000821115610b9c5760405162461bcd60e51b815260206004820152601f60248201527f537461626c65537761704d6f64756c652f696e76616c69642d6665652d696e0060448201526064016104d3565b609e82905560405182815233907f761b3141cbb42e607f4e550cf06b417f5d0fe476ee4fb6b9fbb34c4ae134b813906020016109d5565b610bdb611902565b610be361195b565b80600003610c335760405162461bcd60e51b815260206004820152601c60248201527f537461626c65537761704d6f64756c652f616d6f756e742d7a65726f0000000060448201526064016104d3565b6000610c4182609d546119a3565b90506000670de0b6b3a7640000610c5a83609f546119a3565b610c649190611ea2565b90506000610c7283836119f8565b609954909150610c8d906001600160a01b0316333084611a13565b609a5460408051600060208201526001600160a01b03909216916349bdc2b89130918591016040516020818303038152906040526040518463ffffffff1660e01b8152600401610cdf93929190611ee8565b600060405180830381600087803b158015610cf957600080fd5b505af1158015610d0d573d6000803e3d6000fd5b5050609754609b546001600160a01b0390911692506356bd594a9150308080610d3589611f55565b610d3e8a611f55565b6040516001600160e01b031960e089901b16815260048101969096526001600160a01b039485166024870152928416604486015292166064840152608483019190915260a482015260c401600060405180830381600087803b158015610da357600080fd5b505af1158015610db7573d6000803e3d6000fd5b505060985460405163f3fef3a360e01b81526001600160a01b03898116600483015260248201899052909116925063f3fef3a39150604401600060405180830381600087803b158015610e0957600080fd5b505af1158015610e1d573d6000803e3d6000fd5b5050609754609c546001600160a01b039182169350638c1578549250309116610e52866b033b2e3c9fd0803ce80000006119a3565b6040516001600160e01b031960e086901b1681526001600160a01b0393841660048201529290911660248301526044820152606401600060405180830381600087803b158015610ea157600080fd5b505af1158015610eb5573d6000803e3d6000fd5b505060408051878152602081018690526001600160a01b03891693507f19db3e213473ea73ae4b6c76a26cbcb2a43d954d78caca305d507dec79b24e829250016107ce565b6097546040805163c8cc243f60e01b815290516000926001600160a01b03169163c8cc243f9160048083019260209291908290030181865afa158015610f44573d6000803e3d6000fd5b505050506040513d601f19601f82011682018060405250810190610f689190611e34565b9050806001600160a01b03166391d14854826001600160a01b031663e58378bb6040518163ffffffff1660e01b8152600401602060405180830381865afa158015610fb7573d6000803e3d6000fd5b505050506040513d601f19601f82011682018060405250810190610fdb9190611e51565b6040516001600160e01b031960e084901b1681526004810191909152336024820152604401602060405180830381865afa15801561101d573d6000803e3d6000fd5b505050506040513d601f19601f820116820180604052508101906110419190611e6a565b8061111e5750806001600160a01b03166391d14854826001600160a01b031663b536818a6040518163ffffffff1660e01b8152600401602060405180830381865afa158015611094573d6000803e3d6000fd5b505050506040513d601f19601f820116820180604052508101906110b89190611e51565b6040516001600160e01b031960e084901b1681526004810191909152336024820152604401602060405180830381865afa1580156110fa573d6000803e3d6000fd5b505050506040513d601f19601f8201168201806040525081019061111e9190611e6a565b6111645760405162461bcd60e51b815260206004820152601760248201527621286f776e6572526f6c65206f7220676f76526f6c652960481b60448201526064016104d3565b6104e4611b23565b6097546040805163c8cc243f60e01b815290516000926001600160a01b03169163c8cc243f9160048083019260209291908290030181865afa1580156111b6573d6000803e3d6000fd5b505050506040513d601f19601f820116820180604052508101906111da9190611e34565b9050806001600160a01b03166391d14854826001600160a01b031663e58378bb6040518163ffffffff1660e01b8152600401602060405180830381865afa158015611229573d6000803e3d6000fd5b505050506040513d601f19601f8201168201806040525081019061124d9190611e51565b6040516001600160e01b031960e084901b1681526004810191909152336024820152604401602060405180830381865afa15801561128f573d6000803e3d6000fd5b505050506040513d601f19601f820116820180604052508101906112b39190611e6a565b6112cf5760405162461bcd60e51b81526004016104d390611f31565b609754604051634d8c928d60e11b81526001600160a01b03848116600483015290911690639b19251a906024015b600060405180830381600087803b15801561131757600080fd5b505af115801561132b573d6000803e3d6000fd5b505050505050565b600054610100900460ff16158080156113535750600054600160ff909116105b8061136d5750303b15801561136d575060005460ff166001145b6113d05760405162461bcd60e51b815260206004820152602e60248201527f496e697469616c697a61626c653a20636f6e747261637420697320616c72656160448201526d191e481a5b9a5d1a585b1a5e995960921b60648201526084016104d3565b6000805460ff1916600117905580156113f3576000805461ff0019166101001790555b6113fb611b60565b611403611b8f565b609880546001600160a01b038087166001600160a01b03199283168117909355609a805491871691909216179055604080516371d9c99560e11b815290518692869260009263e3b3932a91600480820192602092909190829003018187875af1158015611474573d6000803e3d6000fd5b505050506040513d601f19601f820116820180604052508101906114989190611e34565b609760006101000a8154816001600160a01b0302191690836001600160a01b03160217905590506000826001600160a01b031663e9cbd8226040518163ffffffff1660e01b81526004016020604051808303816000875af1158015611501573d6000803e3d6000fd5b505050506040513d601f19601f820116820180604052508101906115259190611e34565b609960006101000a8154816001600160a01b0302191690836001600160a01b0316021790559050836001600160a01b031663dca07dc56040518163ffffffff1660e01b81526004016020604051808303816000875af115801561158c573d6000803e3d6000fd5b505050506040513d601f19601f820116820180604052508101906115b09190611e51565b609b8190555085609c60006101000a8154816001600160a01b0302191690836001600160a01b03160217905550836001600160a01b031663313ce5676040518163ffffffff1660e01b81526004016020604051808303816000875af115801561161d573d6000803e3d6000fd5b505050506040513d601f19601f820116820180604052508101906116419190611e51565b61164c906012611f71565b61165790600a612068565b609d556116706001600160a01b03821688600019611bbe565b604051634d8c928d60e11b81526001600160a01b038881166004830152831690639b19251a90602401600060405180830381600087803b1580156116b357600080fd5b505af11580156116c7573d6000803e3d6000fd5b50505050505050508015611715576000805461ff0019169055604051600181527f7f26b83ff96e1f2b6a682f133852f6798a09c465da95921460cefb38474024989060200160405180910390a15b50505050565b6097546040805163c8cc243f60e01b815290516000926001600160a01b03169163c8cc243f9160048083019260209291908290030181865afa158015611765573d6000803e3d6000fd5b505050506040513d601f19601f820116820180604052508101906117899190611e34565b9050806001600160a01b03166391d14854826001600160a01b031663e58378bb6040518163ffffffff1660e01b8152600401602060405180830381865afa1580156117d8573d6000803e3d6000fd5b505050506040513d601f19601f820116820180604052508101906117fc9190611e51565b6040516001600160e01b031960e084901b1681526004810191909152336024820152604401602060405180830381865afa15801561183e573d6000803e3d6000fd5b505050506040513d601f19601f820116820180604052508101906118629190611e6a565b61187e5760405162461bcd60e51b81526004016104d390611f31565b609754604051633e7e4af960e21b81526001600160a01b0384811660048301529091169063f9f92be4906024016112fd565b6118b8611cc8565b6033805460ff191690557f5db9ee0a495bf2e6ff9c91a7834c1ba4fdd244a5e8aa4e537bd38aeae4b073aa335b6040516001600160a01b03909116815260200160405180910390a1565b6002606554036119545760405162461bcd60e51b815260206004820152601f60248201527f5265656e7472616e637947756172643a207265656e7472616e742063616c6c0060448201526064016104d3565b6002606555565b60335460ff16156119a15760405162461bcd60e51b815260206004820152601060248201526f14185d5cd8589b194e881c185d5cd95960821b60448201526064016104d3565b565b60008115806119c7575082826119b98183612074565b92506119c59083611ea2565b145b6119d057600080fd5b92915050565b6000826119e38382611f71565b91508111156119d057600080fd5b6001606555565b600082611a05838261208b565b91508110156119d057600080fd5b604080516001600160a01b0385811660248301528481166044830152606480830185905283518084039091018152608490920183526020820180516001600160e01b03166323b872dd60e01b1790529151600092839290881691611a77919061209e565b6000604051808303816000865af19150503d8060008114611ab4576040519150601f19603f3d011682016040523d82523d6000602084013e611ab9565b606091505b5091509150818015611ae3575080511580611ae3575080806020019051810190611ae39190611e6a565b61132b5760405162461bcd60e51b815260206004820152601160248201527021736166655472616e7366657246726f6d60781b60448201526064016104d3565b611b2b61195b565b6033805460ff191660011790557f62e78cea01bee320cd4e420270b5ea74000d11b0c9f74754ebdbfc544b05a2586118e53390565b600054610100900460ff16611b875760405162461bcd60e51b81526004016104d3906120ba565b6119a1611d11565b600054610100900460ff16611bb65760405162461bcd60e51b81526004016104d3906120ba565b6119a1611d44565b604080516001600160a01b038481166024830152604480830185905283518084039091018152606490920183526020820180516001600160e01b031663095ea7b360e01b1790529151600092839290871691611c1a919061209e565b6000604051808303816000865af19150503d8060008114611c57576040519150601f19603f3d011682016040523d82523d6000602084013e611c5c565b606091505b5091509150818015611c86575080511580611c86575080806020019051810190611c869190611e6a565b611cc15760405162461bcd60e51b815260206004820152600c60248201526b2173616665417070726f766560a01b60448201526064016104d3565b5050505050565b60335460ff166119a15760405162461bcd60e51b815260206004820152601460248201527314185d5cd8589b194e881b9bdd081c185d5cd95960621b60448201526064016104d3565b600054610100900460ff16611d385760405162461bcd60e51b81526004016104d3906120ba565b6033805460ff19169055565b600054610100900460ff166119f15760405162461bcd60e51b81526004016104d3906120ba565b6001600160a01b03811681146104e457600080fd5b60008060408385031215611d9357600080fd5b8235611d9e81611d6b565b946020939093013593505050565b600060208284031215611dbe57600080fd5b5035919050565b600060208284031215611dd757600080fd5b8135611de281611d6b565b9392505050565b600080600060608486031215611dfe57600080fd5b8335611e0981611d6b565b92506020840135611e1981611d6b565b91506040840135611e2981611d6b565b809150509250925092565b600060208284031215611e4657600080fd5b8151611de281611d6b565b600060208284031215611e6357600080fd5b5051919050565b600060208284031215611e7c57600080fd5b81518015158114611de257600080fd5b634e487b7160e01b600052601160045260246000fd5b600082611ebf57634e487b7160e01b600052601260045260246000fd5b500490565b60005b83811015611edf578181015183820152602001611ec7565b50506000910152565b60018060a01b03841681528260208201526060604082015260008251806060840152611f1b816080850160208701611ec4565b601f01601f191691909101608001949350505050565b6020808252600a9082015269216f776e6572526f6c6560b01b604082015260600190565b6000600160ff1b8201611f6a57611f6a611e8c565b5060000390565b818103818111156119d0576119d0611e8c565b600181815b80851115611fbf578160001904821115611fa557611fa5611e8c565b80851615611fb257918102915b93841c9390800290611f89565b509250929050565b600082611fd6575060016119d0565b81611fe3575060006119d0565b8160018114611ff957600281146120035761201f565b60019150506119d0565b60ff84111561201457612014611e8c565b50506001821b6119d0565b5060208310610133831016604e8410600b8410161715612042575081810a6119d0565b61204c8383611f84565b806000190482111561206057612060611e8c565b029392505050565b6000611de28383611fc7565b80820281158282048414176119d0576119d0611e8c565b808201808211156119d0576119d0611e8c565b600082516120b0818460208701611ec4565b9190910192915050565b6020808252602b908201527f496e697469616c697a61626c653a20636f6e7472616374206973206e6f74206960408201526a6e697469616c697a696e6760a81b60608201526080019056fea264697066735822122009fa58f3c2ebcc8f1b0e26bc72a1c8810649e003ba0972caa7ff91ab8186633764736f6c63430008110033",
  "immutableReferences": {},
  "source": "// SPDX-License-Identifier: AGPL-3.0-or-later\n\npragma solidity 0.8.17;\n\nimport \"@openzeppelin/contracts-upgradeable/access/OwnableUpgradeable.sol\";\nimport \"@openzeppelin/contracts-upgradeable/security/PausableUpgradeable.sol\";\nimport \"@openzeppelin/contracts-upgradeable/access/AccessControlUpgradeable.sol\";\nimport \"@openzeppelin/contracts-upgradeable/security/ReentrancyGuardUpgradeable.sol\";\n\nimport \"../interfaces/IStablecoinAdapter.sol\";\nimport \"../interfaces/IStablecoin.sol\";\nimport \"../interfaces/IBookKeeper.sol\";\nimport \"../interfaces/IAuthTokenAdapter.sol\";\nimport \"../interfaces/IStableSwapModule.sol\";\nimport \"../utils/SafeToken.sol\";\n\n// Stable Swap Module\n// Allows anyone to go between FUSD and the Token by pooling the liquidity\n// An optional fee is charged for incoming and outgoing transfers\n\ncontract StableSwapModule is PausableUpgradeable, ReentrancyGuardUpgradeable, IStableSwapModule {\n  using SafeToken for address;\n\n  IBookKeeper public bookKeeper;\n  IAuthTokenAdapter public override authTokenAdapter;\n  IStablecoin public stablecoin;\n  IStablecoinAdapter public override stablecoinAdapter;\n  bytes32 public collateralPoolId;\n  address public systemDebtEngine;\n\n  uint256 internal to18ConversionFactor;\n\n  uint256 public feeIn; // fee in [wad]\n  uint256 public feeOut; // fee out [wad]\n\n  // --- Events ---\n  event LogSetFeeIn(address indexed _caller, uint256 _feeIn);\n  event LogSetFeeOut(address indexed _caller, uint256 _feeOut);\n  event LogSwapTokenToStablecoin(address indexed _owner, uint256 _value, uint256 _fee);\n  event LogSwapStablecoinToToken(address indexed _owner, uint256 _value, uint256 _fee);\n\n  modifier onlyOwner() {\n    IAccessControlConfig _accessControlConfig = IAccessControlConfig(bookKeeper.accessControlConfig());\n    require(_accessControlConfig.hasRole(_accessControlConfig.OWNER_ROLE(), msg.sender), \"!ownerRole\");\n    _;\n  }\n\n  modifier onlyOwnerOrGov() {\n    IAccessControlConfig _accessControlConfig = IAccessControlConfig(IBookKeeper(bookKeeper).accessControlConfig());\n    require(\n      _accessControlConfig.hasRole(_accessControlConfig.OWNER_ROLE(), msg.sender) ||\n        _accessControlConfig.hasRole(_accessControlConfig.GOV_ROLE(), msg.sender),\n      \"!(ownerRole or govRole)\"\n    );\n    _;\n  }\n\n  // --- Init ---\n  function initialize(\n    address _authTokenAdapter,\n    address _stablecoinAdapter,\n    address _systemDebtEngine\n  ) external initializer {\n    PausableUpgradeable.__Pausable_init();\n    ReentrancyGuardUpgradeable.__ReentrancyGuard_init();\n\n    IAuthTokenAdapter __authTokenAdapter = authTokenAdapter = IAuthTokenAdapter(_authTokenAdapter);\n    IStablecoinAdapter __stablecoinAdapter = stablecoinAdapter = IStablecoinAdapter(_stablecoinAdapter);\n    IBookKeeper _bookKeeper = bookKeeper = IBookKeeper(address(__authTokenAdapter.bookKeeper()));\n    IStablecoin _stablecoin = stablecoin = IStablecoin(address(__stablecoinAdapter.stablecoin()));\n    collateralPoolId = __authTokenAdapter.collateralPoolId();\n    systemDebtEngine = _systemDebtEngine;\n    to18ConversionFactor = 10**(18 - __authTokenAdapter.decimals());\n    address(_stablecoin).safeApprove(_stablecoinAdapter, type(uint).max);\n    _bookKeeper.whitelist(_stablecoinAdapter);\n  }\n\n  // --- Math ---\n  uint256 constant WAD = 10**18;\n  uint256 constant RAY = 10**27;\n\n  function add(uint256 _x, uint256 _y) internal pure returns (uint256 _z) {\n    require((_z = _x + _y) >= _x);\n  }\n\n  function sub(uint256 _x, uint256 _y) internal pure returns (uint256 _z) {\n    require((_z = _x - _y) <= _x);\n  }\n\n  function mul(uint256 _x, uint256 _y) internal pure returns (uint256 _z) {\n    require(_y == 0 || (_z = _x * _y) / _y == _x);\n  }\n\n  /// @dev access: OWNER_ROLE\n  function setFeeIn(uint256 _feeIn) external onlyOwner {\n    require(_feeIn <= 5 * 1e17, \"StableSwapModule/invalid-fee-in\"); // Max feeIn is 0.5 Ethers or 50%\n    feeIn = _feeIn;\n    emit LogSetFeeIn(msg.sender, _feeIn);\n  }\n\n  /// @dev access: OWNER_ROLE\n  function setFeeOut(uint256 _feeOut) external onlyOwner {\n    require(_feeOut <= 5 * 1e17, \"StableSwapModule/invalid-fee-in\"); // Max feeOut is 0.5 Ethers or 50%\n    feeOut = _feeOut;\n    emit LogSetFeeOut(msg.sender, _feeOut);\n  }\n\n  // hope can be used to transfer control of the PSM vault to another contract\n  // This can be used to upgrade the contract\n  /// @dev access: OWNER_ROLE\n  function whitelist(address _usr) external onlyOwner {\n    bookKeeper.whitelist(_usr);\n  }\n\n  /// @dev access: OWNER_ROLE\n  function blacklist(address _usr) external onlyOwner {\n    bookKeeper.blacklist(_usr);\n  }\n\n  // --- Primary Functions ---\n  /**\n   * @dev Deposit token into the system and withdraw to receive stablecoin\n   * @param _usr The address of the account to sell\n   * @param _tokenAmount The Amount of token to sell\n   */\n  function swapTokenToStablecoin(address _usr, uint256 _tokenAmount) external override nonReentrant whenNotPaused {\n    require(_tokenAmount != 0, \"StableSwapModule/amount-zero\");\n    uint256 _tokenAmount18 = mul(_tokenAmount, to18ConversionFactor);\n    uint256 _fee = mul(_tokenAmount18, feeIn) / WAD;\n    uint256 _stablecoinAmount = sub(_tokenAmount18, _fee);\n    authTokenAdapter.deposit(address(this), _tokenAmount, msg.sender);\n    bookKeeper.adjustPosition(\n      collateralPoolId,\n      address(this),\n      address(this),\n      address(this),\n      int256(_tokenAmount18),\n      int256(_tokenAmount18)\n    );\n    bookKeeper.moveStablecoin(address(this), systemDebtEngine, mul(_fee, RAY));\n    stablecoinAdapter.withdraw(_usr, _stablecoinAmount, abi.encode(0));\n\n    emit LogSwapTokenToStablecoin(_usr, _tokenAmount, _fee);\n  }\n\n  /**\n   * @dev Deposit stablecoin into the system and withdraw to receive token\n   * @param _usr The address of the account to buy\n   * @param _tokenAmount The Amount of token to buy\n   */\n  function swapStablecoinToToken(address _usr, uint256 _tokenAmount) external override nonReentrant whenNotPaused {\n    require(_tokenAmount != 0, \"StableSwapModule/amount-zero\");\n    uint256 _tokenAmount18 = mul(_tokenAmount, to18ConversionFactor);\n    uint256 _fee = mul(_tokenAmount18, feeOut) / WAD;\n    uint256 _stablecoinAmount = add(_tokenAmount18, _fee);\n    address(stablecoin).safeTransferFrom(msg.sender, address(this), _stablecoinAmount);\n    stablecoinAdapter.deposit(address(this), _stablecoinAmount, abi.encode(0));\n    bookKeeper.adjustPosition(\n      collateralPoolId,\n      address(this),\n      address(this),\n      address(this),\n      -int256(_tokenAmount18),\n      -int256(_tokenAmount18)\n    );\n    authTokenAdapter.withdraw(_usr, _tokenAmount);\n    bookKeeper.moveStablecoin(address(this), systemDebtEngine, mul(_fee, RAY));\n    emit LogSwapStablecoinToToken(_usr, _tokenAmount, _fee);\n  }\n\n  // --- pause ---\n  /// @dev access: OWNER_ROLE, GOV_ROLE\n  function pause() external onlyOwnerOrGov {\n    _pause();\n  }\n\n  /// @dev access: OWNER_ROLE, GOV_ROLE\n  function unpause() external onlyOwnerOrGov {\n    _unpause();\n  }\n}\n",
  "sourcePath": "/Users/sangjun.lee/Sangjun/fathom-stablecoin-smart-contracts/contracts/8.17/stablecoin-core/StableSwapModule.sol",
  "compiler": {
    "name": "solc",
    "version": "0.8.17+commit.8df45f5f.Emscripten.clang"
  },
  "schemaVersion": "3.4.10",
  "updatedAt": "2022-11-24T09:45:49.329Z",
  "devdoc": {
    "kind": "dev",
    "methods": {
      "blacklist(address)": {
        "details": "access: OWNER_ROLE"
      },
      "pause()": {
        "details": "access: OWNER_ROLE, GOV_ROLE"
      },
      "paused()": {
        "details": "Returns true if the contract is paused, and false otherwise."
      },
      "setFeeIn(uint256)": {
        "details": "access: OWNER_ROLE"
      },
      "setFeeOut(uint256)": {
        "details": "access: OWNER_ROLE"
      },
      "swapStablecoinToToken(address,uint256)": {
        "details": "Deposit stablecoin into the system and withdraw to receive token",
        "params": {
          "_tokenAmount": "The Amount of token to buy",
          "_usr": "The address of the account to buy"
        }
      },
      "swapTokenToStablecoin(address,uint256)": {
        "details": "Deposit token into the system and withdraw to receive stablecoin",
        "params": {
          "_tokenAmount": "The Amount of token to sell",
          "_usr": "The address of the account to sell"
        }
      },
      "unpause()": {
        "details": "access: OWNER_ROLE, GOV_ROLE"
      },
      "whitelist(address)": {
        "details": "access: OWNER_ROLE"
      }
    },
    "version": 1
  },
  "userdoc": {
    "kind": "user",
    "methods": {},
    "version": 1
  }
}