{
  "contractName": "StabilityFeeCollector",
  "abi": [
    {
      "anonymous": false,
      "inputs": [
        {
          "indexed": false,
          "internalType": "uint8",
          "name": "version",
          "type": "uint8"
        }
      ],
      "name": "Initialized",
      "type": "event"
    },
    {
      "anonymous": false,
      "inputs": [
        {
          "indexed": true,
          "internalType": "address",
          "name": "_caller",
          "type": "address"
        },
        {
          "indexed": false,
          "internalType": "uint256",
          "name": "_data",
          "type": "uint256"
        }
      ],
      "name": "LogSetGlobalStabilityFeeRate",
      "type": "event"
    },
    {
      "anonymous": false,
      "inputs": [
        {
          "indexed": true,
          "internalType": "address",
          "name": "_caller",
          "type": "address"
        },
        {
          "indexed": false,
          "internalType": "address",
          "name": "_data",
          "type": "address"
        }
      ],
      "name": "LogSetSystemDebtEngine",
      "type": "event"
    },
    {
      "anonymous": false,
      "inputs": [
        {
          "indexed": false,
          "internalType": "address",
          "name": "account",
          "type": "address"
        }
      ],
      "name": "Paused",
      "type": "event"
    },
    {
      "anonymous": false,
      "inputs": [
        {
          "indexed": false,
          "internalType": "address",
          "name": "account",
          "type": "address"
        }
      ],
      "name": "Unpaused",
      "type": "event"
    },
    {
      "inputs": [],
      "name": "bookKeeper",
      "outputs": [
        {
          "internalType": "contract IBookKeeper",
          "name": "",
          "type": "address"
        }
      ],
      "stateMutability": "view",
      "type": "function"
    },
    {
      "inputs": [],
      "name": "globalStabilityFeeRate",
      "outputs": [
        {
          "internalType": "uint256",
          "name": "",
          "type": "uint256"
        }
      ],
      "stateMutability": "view",
      "type": "function"
    },
    {
      "inputs": [],
      "name": "paused",
      "outputs": [
        {
          "internalType": "bool",
          "name": "",
          "type": "bool"
        }
      ],
      "stateMutability": "view",
      "type": "function"
    },
    {
      "inputs": [],
      "name": "systemDebtEngine",
      "outputs": [
        {
          "internalType": "address",
          "name": "",
          "type": "address"
        }
      ],
      "stateMutability": "view",
      "type": "function"
    },
    {
      "inputs": [
        {
          "internalType": "address",
          "name": "_bookKeeper",
          "type": "address"
        },
        {
          "internalType": "address",
          "name": "_systemDebtEngine",
          "type": "address"
        }
      ],
      "name": "initialize",
      "outputs": [],
      "stateMutability": "nonpayable",
      "type": "function"
    },
    {
      "inputs": [
        {
          "internalType": "uint256",
          "name": "_globalStabilityFeeRate",
          "type": "uint256"
        }
      ],
      "name": "setGlobalStabilityFeeRate",
      "outputs": [],
      "stateMutability": "nonpayable",
      "type": "function"
    },
    {
      "inputs": [
        {
          "internalType": "address",
          "name": "_systemDebtEngine",
          "type": "address"
        }
      ],
      "name": "setSystemDebtEngine",
      "outputs": [],
      "stateMutability": "nonpayable",
      "type": "function"
    },
    {
      "inputs": [
        {
          "internalType": "bytes32",
          "name": "_collateralPool",
          "type": "bytes32"
        }
      ],
      "name": "collect",
      "outputs": [
        {
          "internalType": "uint256",
          "name": "_debtAccumulatedRate",
          "type": "uint256"
        }
      ],
      "stateMutability": "nonpayable",
      "type": "function"
    },
    {
      "inputs": [],
      "name": "pause",
      "outputs": [],
      "stateMutability": "nonpayable",
      "type": "function"
    },
    {
      "inputs": [],
      "name": "unpause",
      "outputs": [],
      "stateMutability": "nonpayable",
      "type": "function"
    }
  ],
  "bytecode": "0x608060405234801561001057600080fd5b506117b0806100206000396000f3fe608060405234801561001057600080fd5b506004361061009e5760003560e01c8063796a39bb11610066578063796a39bb146101275780637e0972f51461013a5780638456cb591461014d578063a985bdcf14610155578063e3b3932a1461015e57600080fd5b806328e49a42146100a35780633f4ba83a146100d3578063485cc955146100dd578063497777d5146100f05780635c975abb14610111575b600080fd5b6098546100b6906001600160a01b031681565b6040516001600160a01b0390911681526020015b60405180910390f35b6100db610171565b005b6100db6100eb366004611578565b6103eb565b6101036100fe3660046115b1565b61055f565b6040519081526020016100ca565b60335460ff1660405190151581526020016100ca565b6100db6101353660046115b1565b61058b565b6100db6101483660046115ca565b61083f565b6100db610a35565b61010360995481565b6097546100b6906001600160a01b031681565b6097546040805163c8cc243f60e01b815290516000926001600160a01b03169163c8cc243f9160048083019260209291908290030181865afa1580156101bb573d6000803e3d6000fd5b505050506040513d601f19601f820116820180604052508101906101df91906115e7565b9050806001600160a01b03166391d14854826001600160a01b031663e58378bb6040518163ffffffff1660e01b8152600401602060405180830381865afa15801561022e573d6000803e3d6000fd5b505050506040513d601f19601f820116820180604052508101906102529190611604565b6040516001600160e01b031960e084901b1681526004810191909152336024820152604401602060405180830381865afa158015610294573d6000803e3d6000fd5b505050506040513d601f19601f820116820180604052508101906102b8919061161d565b806103955750806001600160a01b03166391d14854826001600160a01b031663b536818a6040518163ffffffff1660e01b8152600401602060405180830381865afa15801561030b573d6000803e3d6000fd5b505050506040513d601f19601f8201168201806040525081019061032f9190611604565b6040516001600160e01b031960e084901b1681526004810191909152336024820152604401602060405180830381865afa158015610371573d6000803e3d6000fd5b505050506040513d601f19601f82011682018060405250810190610395919061161d565b6103e05760405162461bcd60e51b815260206004820152601760248201527621286f776e6572526f6c65206f7220676f76526f6c652960481b60448201526064015b60405180910390fd5b6103e8610ca7565b50565b600054610100900460ff161580801561040b5750600054600160ff909116105b806104255750303b158015610425575060005460ff166001145b6104885760405162461bcd60e51b815260206004820152602e60248201527f496e697469616c697a61626c653a20636f6e747261637420697320616c72656160448201526d191e481a5b9a5d1a585b1a5e995960921b60648201526084016103d7565b6000805460ff1916600117905580156104ab576000805461ff0019166101001790555b6104b3610cf9565b6104bb610d2a565b609780546001600160a01b0319166001600160a01b038581169190911790915582166104f95760405162461bcd60e51b81526004016103d79061163f565b609880546001600160a01b0319166001600160a01b038416179055801561055a576000805461ff0019169055604051600181527f7f26b83ff96e1f2b6a682f133852f6798a09c465da95921460cefb38474024989060200160405180910390a15b505050565b6000610569610d59565b610571610d9f565b61057a82610df8565b90506105866001606555565b919050565b6097546040805163c8cc243f60e01b815290516000926001600160a01b03169163c8cc243f9160048083019260209291908290030181865afa1580156105d5573d6000803e3d6000fd5b505050506040513d601f19601f820116820180604052508101906105f991906115e7565b9050806001600160a01b03166391d14854826001600160a01b031663e58378bb6040518163ffffffff1660e01b8152600401602060405180830381865afa158015610648573d6000803e3d6000fd5b505050506040513d601f19601f8201168201806040525081019061066c9190611604565b6040516001600160e01b031960e084901b1681526004810191909152336024820152604401602060405180830381865afa1580156106ae573d6000803e3d6000fd5b505050506040513d601f19601f820116820180604052508101906106d2919061161d565b61070b5760405162461bcd60e51b815260206004820152600a602482015269216f776e6572526f6c6560b01b60448201526064016103d7565b81158061072457506b033b2e3c9fd0803ce80000008210155b6107895760405162461bcd60e51b815260206004820152603060248201527f53746162696c697479466565436f6c6c6563746f722f696e76616c69642d737460448201526f6162696c6974792d6665652d7261746560801b60648201526084016103d7565b6b033b2e3d523e808a07fcdc0b8211156108005760405162461bcd60e51b815260206004820152603260248201527f53746162696c697479466565436f6c6c6563746f722f73746162696c6974792d6044820152716665652d726174652d746f6f2d6c6172676560701b60648201526084016103d7565b609982905560405182815233907f86f297ca1817ba3695e4c5b0c81901d82dac7eb4343b99299b29c39fa2f685fa906020015b60405180910390a25050565b6097546040805163c8cc243f60e01b815290516000926001600160a01b03169163c8cc243f9160048083019260209291908290030181865afa158015610889573d6000803e3d6000fd5b505050506040513d601f19601f820116820180604052508101906108ad91906115e7565b9050806001600160a01b03166391d14854826001600160a01b031663e58378bb6040518163ffffffff1660e01b8152600401602060405180830381865afa1580156108fc573d6000803e3d6000fd5b505050506040513d601f19601f820116820180604052508101906109209190611604565b6040516001600160e01b031960e084901b1681526004810191909152336024820152604401602060405180830381865afa158015610962573d6000803e3d6000fd5b505050506040513d601f19601f82011682018060405250810190610986919061161d565b6109bf5760405162461bcd60e51b815260206004820152600a602482015269216f776e6572526f6c6560b01b60448201526064016103d7565b6001600160a01b0382166109e55760405162461bcd60e51b81526004016103d79061163f565b609880546001600160a01b0319166001600160a01b03841690811790915560405190815233907f28c02b7fb4c1c94c7b73df5dd0863593970575d3a1faf5271e73ee27155c402190602001610833565b6097546040805163c8cc243f60e01b815290516000926001600160a01b03169163c8cc243f9160048083019260209291908290030181865afa158015610a7f573d6000803e3d6000fd5b505050506040513d601f19601f82011682018060405250810190610aa391906115e7565b9050806001600160a01b03166391d14854826001600160a01b031663e58378bb6040518163ffffffff1660e01b8152600401602060405180830381865afa158015610af2573d6000803e3d6000fd5b505050506040513d601f19601f82011682018060405250810190610b169190611604565b6040516001600160e01b031960e084901b1681526004810191909152336024820152604401602060405180830381865afa158015610b58573d6000803e3d6000fd5b505050506040513d601f19601f82011682018060405250810190610b7c919061161d565b80610c595750806001600160a01b03166391d14854826001600160a01b031663b536818a6040518163ffffffff1660e01b8152600401602060405180830381865afa158015610bcf573d6000803e3d6000fd5b505050506040513d601f19601f82011682018060405250810190610bf39190611604565b6040516001600160e01b031960e084901b1681526004810191909152336024820152604401602060405180830381865afa158015610c35573d6000803e3d6000fd5b505050506040513d601f19601f82011682018060405250810190610c59919061161d565b610c9f5760405162461bcd60e51b815260206004820152601760248201527621286f776e6572526f6c65206f7220676f76526f6c652960481b60448201526064016103d7565b6103e8611332565b610caf61136f565b6033805460ff191690557f5db9ee0a495bf2e6ff9c91a7834c1ba4fdd244a5e8aa4e537bd38aeae4b073aa335b6040516001600160a01b03909116815260200160405180910390a1565b600054610100900460ff16610d205760405162461bcd60e51b81526004016103d790611693565b610d286113b8565b565b600054610100900460ff16610d515760405162461bcd60e51b81526004016103d790611693565b610d286113eb565b60335460ff1615610d285760405162461bcd60e51b815260206004820152601060248201526f14185d5cd8589b194e881c185d5cd95960821b60448201526064016103d7565b600260655403610df15760405162461bcd60e51b815260206004820152601f60248201527f5265656e7472616e637947756172643a207265656e7472616e742063616c6c0060448201526064016103d7565b6002606555565b600080609760009054906101000a90046001600160a01b03166001600160a01b031663d86824616040518163ffffffff1660e01b8152600401602060405180830381865afa158015610e4e573d6000803e3d6000fd5b505050506040513d601f19601f82011682018060405250810190610e7291906115e7565b6001600160a01b031663a09b0fe0846040518263ffffffff1660e01b8152600401610e9f91815260200190565b602060405180830381865afa158015610ebc573d6000803e3d6000fd5b505050506040513d601f19601f82011682018060405250810190610ee09190611604565b90506000609760009054906101000a90046001600160a01b03166001600160a01b031663d86824616040518163ffffffff1660e01b8152600401602060405180830381865afa158015610f37573d6000803e3d6000fd5b505050506040513d601f19601f82011682018060405250810190610f5b91906115e7565b6001600160a01b0316631fea158d856040518263ffffffff1660e01b8152600401610f8891815260200190565b602060405180830381865afa158015610fa5573d6000803e3d6000fd5b505050506040513d601f19601f82011682018060405250810190610fc99190611604565b90506000609760009054906101000a90046001600160a01b03166001600160a01b031663d86824616040518163ffffffff1660e01b8152600401602060405180830381865afa158015611020573d6000803e3d6000fd5b505050506040513d601f19601f8201168201806040525081019061104491906115e7565b6001600160a01b031663bbd112a5866040518263ffffffff1660e01b815260040161107191815260200190565b602060405180830381865afa15801561108e573d6000803e3d6000fd5b505050506040513d601f19601f820116820180604052508101906110b29190611604565b90508042101561111a5760405162461bcd60e51b815260206004820152602d60248201527f53746162696c697479466565436f6c6c6563746f722f696e76616c69642d626c60448201526c06f636b2e74696d657374616d7609c1b60648201526084016103d7565b6098546001600160a01b031661118b5760405162461bcd60e51b815260206004820152603060248201527f53746162696c697479466565436f6c6c6563746f722f73797374656d2d64656260448201526f1d0b595b99da5b994b5b9bdd0b5cd95d60821b60648201526084016103d7565b6111bf6111b961119d60995485611412565b6111a784426116f4565b6b033b2e3c9fd0803ce8000000611433565b846114f1565b6097546098549195506001600160a01b03908116916390d53639918891166111e7888861153a565b6040516001600160e01b031960e086901b16815260048101939093526001600160a01b0390911660248301526044820152606401600060405180830381600087803b15801561123557600080fd5b505af1158015611249573d6000803e3d6000fd5b50505050609760009054906101000a90046001600160a01b03166001600160a01b031663d86824616040518163ffffffff1660e01b8152600401602060405180830381865afa1580156112a0573d6000803e3d6000fd5b505050506040513d601f19601f820116820180604052508101906112c491906115e7565b6001600160a01b031663e73eb92e866040518263ffffffff1660e01b81526004016112f191815260200190565b600060405180830381600087803b15801561130b57600080fd5b505af115801561131f573d6000803e3d6000fd5b50505050505050919050565b6001606555565b61133a610d59565b6033805460ff191660011790557f62e78cea01bee320cd4e420270b5ea74000d11b0c9f74754ebdbfc544b05a258610cdc3390565b60335460ff16610d285760405162461bcd60e51b815260206004820152601460248201527314185d5cd8589b194e881b9bdd081c185d5cd95960621b60448201526064016103d7565b600054610100900460ff166113df5760405162461bcd60e51b81526004016103d790611693565b6033805460ff19169055565b600054610100900460ff1661132b5760405162461bcd60e51b81526004016103d790611693565b600061141e8284611707565b90508281101561142d57600080fd5b92915050565b60008380156114d35760018416801561144e57859250611452565b8392505b50600283046002850494505b84156114cd57858602868782041461147557600080fd5b8181018181101561148557600080fd5b85900496505060018516156114c25785830283878204141587151516156114ab57600080fd5b818101818110156114bb57600080fd5b8590049350505b60028504945061145e565b506114e9565b8380156114e357600092506114e7565b8392505b505b509392505050565b60006114fd828461171a565b90508115806115145750826115128383611731565b145b61151d57600080fd5b6115336b033b2e3c9fd0803ce800000082611731565b9392505050565b60006115468284611753565b90506000831215801561155a575060008212155b61142d57600080fd5b6001600160a01b03811681146103e857600080fd5b6000806040838503121561158b57600080fd5b823561159681611563565b915060208301356115a681611563565b809150509250929050565b6000602082840312156115c357600080fd5b5035919050565b6000602082840312156115dc57600080fd5b813561153381611563565b6000602082840312156115f957600080fd5b815161153381611563565b60006020828403121561161657600080fd5b5051919050565b60006020828403121561162f57600080fd5b8151801515811461153357600080fd5b60208082526034908201527f53746162696c697479466565436f6c6c6563746f722f6261642d73797374656d6040820152732d646562742d656e67696e652d6164647265737360601b606082015260800190565b6020808252602b908201527f496e697469616c697a61626c653a20636f6e7472616374206973206e6f74206960408201526a6e697469616c697a696e6760a81b606082015260800190565b634e487b7160e01b600052601160045260246000fd5b8181038181111561142d5761142d6116de565b8082018082111561142d5761142d6116de565b808202811582820484141761142d5761142d6116de565b60008261174e57634e487b7160e01b600052601260045260246000fd5b500490565b8181036000831280158383131683831282161715611773576117736116de565b509291505056fea2646970667358221220908260769a657522f954c172452b722d7c623606b69571f558a999f55c05da6864736f6c63430008110033",
  "immutableReferences": {},
  "source": "// SPDX-License-Identifier: AGPL-3.0-or-later\n\npragma solidity 0.8.17;\npragma experimental ABIEncoderV2;\n\nimport \"@openzeppelin/contracts-upgradeable/security/PausableUpgradeable.sol\";\nimport \"@openzeppelin/contracts-upgradeable/access/AccessControlUpgradeable.sol\";\nimport \"@openzeppelin/contracts-upgradeable/security/ReentrancyGuardUpgradeable.sol\";\n\nimport \"../interfaces/IBookKeeper.sol\";\nimport \"../interfaces/IStabilityFeeCollector.sol\";\n\n/// @title StabilityFeeCollector\n/** @notice A contract which acts as a collector for the stability fee.\n    The stability fee is a fee that is collected from the minter of Fathom Stablecoin in a per-seconds basis.\n    The stability fee will be accumulated in the system as a surplus to settle any bad debt.\n*/\n\ncontract StabilityFeeCollector is PausableUpgradeable, ReentrancyGuardUpgradeable, IStabilityFeeCollector {\n  // --- Data ---\n  struct CollateralPool {\n    uint256 stabilityFeeRate; // Collateral-specific, per-second stability fee debtAccumulatedRate or mint interest debtAccumulatedRate [ray]\n    uint256 lastAccumulationTime; // Time of last call to `collect` [unix epoch time]\n  }\n\n  IBookKeeper public bookKeeper;\n  address public systemDebtEngine;\n  uint256 public globalStabilityFeeRate; // Global, per-second stability fee debtAccumulatedRate [ray]\n\n  // --- Init ---\n  function initialize(address _bookKeeper, address _systemDebtEngine) external initializer {\n    PausableUpgradeable.__Pausable_init();\n    ReentrancyGuardUpgradeable.__ReentrancyGuard_init();\n\n    bookKeeper = IBookKeeper(_bookKeeper);\n    require(_systemDebtEngine != address(0), \"StabilityFeeCollector/bad-system-debt-engine-address\");\n    systemDebtEngine = _systemDebtEngine;\n  }\n\n  // --- Math ---\n  function rpow(\n    uint256 x,\n    uint256 n,\n    uint256 b\n  ) internal pure returns (uint256 z) {\n    assembly {\n      switch x\n      case 0 {\n        switch n\n        case 0 {\n          z := b\n        }\n        default {\n          z := 0\n        }\n      }\n      default {\n        switch mod(n, 2)\n        case 0 {\n          z := b\n        }\n        default {\n          z := x\n        }\n        let half := div(b, 2) // for rounding.\n        for {\n          n := div(n, 2)\n        } n {\n          n := div(n, 2)\n        } {\n          let xx := mul(x, x)\n          if iszero(eq(div(xx, x), x)) {\n            revert(0, 0)\n          }\n          let xxRound := add(xx, half)\n          if lt(xxRound, xx) {\n            revert(0, 0)\n          }\n          x := div(xxRound, b)\n          if mod(n, 2) {\n            let zx := mul(z, x)\n            if and(iszero(iszero(x)), iszero(eq(div(zx, x), z))) {\n              revert(0, 0)\n            }\n            let zxRound := add(zx, half)\n            if lt(zxRound, zx) {\n              revert(0, 0)\n            }\n            z := div(zxRound, b)\n          }\n        }\n      }\n    }\n  }\n\n  uint256 constant RAY = 10**27;\n\n  function add(uint256 _x, uint256 _y) internal pure returns (uint256 _z) {\n    _z = _x + _y;\n    require(_z >= _x);\n  }\n\n  function diff(uint256 _x, uint256 _y) internal pure returns (int256 _z) {\n    _z = int256(_x) - int256(_y);\n    require(int256(_x) >= 0 && int256(_y) >= 0);\n  }\n\n  function rmul(uint256 _x, uint256 _y) internal pure returns (uint256 _z) {\n    _z = _x * _y;\n    require(_y == 0 || _z / _y == _x);\n    _z = _z / RAY;\n  }\n\n  // --- Administration ---\n  event LogSetGlobalStabilityFeeRate(address indexed _caller, uint256 _data);\n  event LogSetSystemDebtEngine(address indexed _caller, address _data);\n\n  modifier onlyOwner() {\n    IAccessControlConfig _accessControlConfig = IAccessControlConfig(bookKeeper.accessControlConfig());\n    require(_accessControlConfig.hasRole(_accessControlConfig.OWNER_ROLE(), msg.sender), \"!ownerRole\");\n    _;\n  }\n\n  modifier onlyOwnerOrGov() {\n    IAccessControlConfig _accessControlConfig = IAccessControlConfig(IBookKeeper(bookKeeper).accessControlConfig());\n    require(\n      _accessControlConfig.hasRole(_accessControlConfig.OWNER_ROLE(), msg.sender) ||\n        _accessControlConfig.hasRole(_accessControlConfig.GOV_ROLE(), msg.sender),\n      \"!(ownerRole or govRole)\"\n    );\n    _;\n  }\n\n  /// @dev Set the global stability fee debtAccumulatedRate which will be apply to every collateral pool. Please see the explanation on the input format from the `setStabilityFeeRate` function.\n  /// @param _globalStabilityFeeRate Global stability fee debtAccumulatedRate [ray]\n  /// @dev access: OWNER_ROLE\n  function setGlobalStabilityFeeRate(uint256 _globalStabilityFeeRate) external onlyOwner {\n    require(\n      _globalStabilityFeeRate == 0 || _globalStabilityFeeRate >= RAY,\n      \"StabilityFeeCollector/invalid-stability-fee-rate\"\n    );\n    // Maximum stability fee rate is 50% yearly\n    require(\n      _globalStabilityFeeRate <= 1000000012857214317438491659,\n      \"StabilityFeeCollector/stability-fee-rate-too-large\"\n    );\n    globalStabilityFeeRate = _globalStabilityFeeRate;\n    emit LogSetGlobalStabilityFeeRate(msg.sender, _globalStabilityFeeRate);\n  }\n\n  /// @dev access: OWNER_ROLE\n  function setSystemDebtEngine(address _systemDebtEngine) external onlyOwner {\n    require(_systemDebtEngine != address(0), \"StabilityFeeCollector/bad-system-debt-engine-address\");\n    systemDebtEngine = _systemDebtEngine;\n    emit LogSetSystemDebtEngine(msg.sender, _systemDebtEngine);\n  }\n\n  // --- Stability Fee Collection ---\n  /** @dev Collect the stability fee of the collateral pool.\n      This function could be called by anyone.\n      It will update the `debtAccumulatedRate` of the specified collateral pool according to\n      the global and per-pool stability fee rates with respect to the last block that `collect` was called.\n  */\n  /// @param _collateralPool Collateral pool id\n  function collect(bytes32 _collateralPool)\n    external\n    override\n    whenNotPaused\n    nonReentrant\n    returns (uint256 _debtAccumulatedRate)\n  {\n    _debtAccumulatedRate = _collect(_collateralPool);\n  }\n\n  function _collect(bytes32 _collateralPoolId) internal returns (uint256 _debtAccumulatedRate) {\n    uint256 _previousDebtAccumulatedRate = ICollateralPoolConfig(bookKeeper.collateralPoolConfig())\n      .getDebtAccumulatedRate(_collateralPoolId);\n    uint256 _stabilityFeeRate = ICollateralPoolConfig(bookKeeper.collateralPoolConfig()).getStabilityFeeRate(\n      _collateralPoolId\n    );\n    uint256 _lastAccumulationTime = ICollateralPoolConfig(bookKeeper.collateralPoolConfig()).getLastAccumulationTime(\n      _collateralPoolId\n    );\n    require(block.timestamp >= _lastAccumulationTime, \"StabilityFeeCollector/invalid-block.timestamp\");\n    require(systemDebtEngine != address(0), \"StabilityFeeCollector/system-debt-engine-not-set\");\n\n    // debtAccumulatedRate [ray]\n    _debtAccumulatedRate = rmul(\n      rpow(add(globalStabilityFeeRate, _stabilityFeeRate), block.timestamp - _lastAccumulationTime, RAY),\n      _previousDebtAccumulatedRate\n    );\n\n    bookKeeper.accrueStabilityFee(\n      _collateralPoolId,\n      systemDebtEngine,\n      diff(_debtAccumulatedRate, _previousDebtAccumulatedRate)\n    );\n    ICollateralPoolConfig(bookKeeper.collateralPoolConfig()).updateLastAccumulationTime(_collateralPoolId);\n  }\n\n  // --- pause ---\n  /// @dev access: OWNER_ROLE, GOV_ROLE\n  function pause() external onlyOwnerOrGov {\n    _pause();\n  }\n\n  /// @dev access: OWNER_ROLE, GOV_ROLE\n  function unpause() external onlyOwnerOrGov {\n    _unpause();\n  }\n}\n",
  "sourcePath": "/Users/sangjun.lee/Sangjun/fathom-stablecoin-smart-contracts/contracts/8.17/stablecoin-core/StabilityFeeCollector.sol",
  "compiler": {
    "name": "solc",
    "version": "0.8.17+commit.8df45f5f.Emscripten.clang"
  },
  "schemaVersion": "3.4.10",
  "updatedAt": "2022-11-24T09:45:49.323Z",
  "devdoc": {
    "kind": "dev",
    "methods": {
      "collect(bytes32)": {
        "params": {
          "_collateralPool": "Collateral pool id"
        }
      },
      "pause()": {
        "details": "access: OWNER_ROLE, GOV_ROLE"
      },
      "paused()": {
        "details": "Returns true if the contract is paused, and false otherwise."
      },
      "setGlobalStabilityFeeRate(uint256)": {
        "details": "Set the global stability fee debtAccumulatedRate which will be apply to every collateral pool. Please see the explanation on the input format from the `setStabilityFeeRate` function.access: OWNER_ROLE",
        "params": {
          "_globalStabilityFeeRate": "Global stability fee debtAccumulatedRate [ray]"
        }
      },
      "setSystemDebtEngine(address)": {
        "details": "access: OWNER_ROLE"
      },
      "unpause()": {
        "details": "access: OWNER_ROLE, GOV_ROLE"
      }
    },
    "version": 1
  },
  "userdoc": {
    "kind": "user",
    "methods": {},
    "notice": "A contract which acts as a collector for the stability fee. The stability fee is a fee that is collected from the minter of Fathom Stablecoin in a per-seconds basis. The stability fee will be accumulated in the system as a surplus to settle any bad debt.",
    "version": 1
  }
}