{
    "contractName": "StablecoinAdapter",
    "abi": [
        {
            "anonymous": false,
            "inputs": [
                {
                    "indexed": false,
                    "internalType": "uint8",
                    "name": "version",
                    "type": "uint8"
                }
            ],
            "name": "Initialized",
            "type": "event"
        },
        {
            "anonymous": false,
            "inputs": [],
            "name": "LogCage",
            "type": "event"
        },
        {
            "anonymous": false,
            "inputs": [],
            "name": "LogUncage",
            "type": "event"
        },
        {
            "anonymous": false,
            "inputs": [
                {
                    "indexed": false,
                    "internalType": "address",
                    "name": "account",
                    "type": "address"
                }
            ],
            "name": "Paused",
            "type": "event"
        },
        {
            "anonymous": false,
            "inputs": [
                {
                    "indexed": false,
                    "internalType": "address",
                    "name": "account",
                    "type": "address"
                }
            ],
            "name": "Unpaused",
            "type": "event"
        },
        {
            "inputs": [],
            "name": "bookKeeper",
            "outputs": [
                {
                    "internalType": "contract IBookKeeper",
                    "name": "",
                    "type": "address"
                }
            ],
            "stateMutability": "view",
            "type": "function"
        },
        {
            "inputs": [],
            "name": "live",
            "outputs": [
                {
                    "internalType": "uint256",
                    "name": "",
                    "type": "uint256"
                }
            ],
            "stateMutability": "view",
            "type": "function"
        },
        {
            "inputs": [],
            "name": "paused",
            "outputs": [
                {
                    "internalType": "bool",
                    "name": "",
                    "type": "bool"
                }
            ],
            "stateMutability": "view",
            "type": "function"
        },
        {
            "inputs": [],
            "name": "stablecoin",
            "outputs": [
                {
                    "internalType": "contract IStablecoin",
                    "name": "",
                    "type": "address"
                }
            ],
            "stateMutability": "view",
            "type": "function"
        },
        {
            "inputs": [
                {
                    "internalType": "address",
                    "name": "_bookKeeper",
                    "type": "address"
                },
                {
                    "internalType": "address",
                    "name": "_stablecoin",
                    "type": "address"
                }
            ],
            "name": "initialize",
            "outputs": [],
            "stateMutability": "nonpayable",
            "type": "function"
        },
        {
            "inputs": [],
            "name": "cage",
            "outputs": [],
            "stateMutability": "nonpayable",
            "type": "function"
        },
        {
            "inputs": [],
            "name": "uncage",
            "outputs": [],
            "stateMutability": "nonpayable",
            "type": "function"
        },
        {
            "inputs": [
                {
                    "internalType": "address",
                    "name": "usr",
                    "type": "address"
                },
                {
                    "internalType": "uint256",
                    "name": "wad",
                    "type": "uint256"
                },
                {
                    "internalType": "bytes",
                    "name": "",
                    "type": "bytes"
                }
            ],
            "name": "deposit",
            "outputs": [],
            "stateMutability": "payable",
            "type": "function"
        },
        {
            "inputs": [
                {
                    "internalType": "address",
                    "name": "usr",
                    "type": "address"
                },
                {
                    "internalType": "uint256",
                    "name": "wad",
                    "type": "uint256"
                },
                {
                    "internalType": "bytes",
                    "name": "",
                    "type": "bytes"
                }
            ],
            "name": "withdraw",
            "outputs": [],
            "stateMutability": "nonpayable",
            "type": "function"
        },
        {
            "inputs": [],
            "name": "pause",
            "outputs": [],
            "stateMutability": "nonpayable",
            "type": "function"
        },
        {
            "inputs": [],
            "name": "unpause",
            "outputs": [],
            "stateMutability": "nonpayable",
            "type": "function"
        }
    ],
    "bytecode": "0x608060405234801561001057600080fd5b506114f7806100206000396000f3fe60806040526004361061009c5760003560e01c8063692450091161006457806369245009146101335780638456cb5914610148578063957aa58c1461015d578063d63b23b214610181578063e3b3932a14610196578063e9cbd822146101ce57600080fd5b806331f09265146100a15780633f4ba83a146100c3578063485cc955146100d857806349bdc2b8146100f85780635c975abb1461010b575b600080fd5b3480156100ad57600080fd5b506100c16100bc36600461130e565b6101ee565b005b3480156100cf57600080fd5b506100c16103a6565b3480156100e457600080fd5b506100c16100f3366004611397565b61061b565b6100c161010636600461130e565b61076b565b34801561011757600080fd5b5060335460ff1660405190151581526020015b60405180910390f35b34801561013f57600080fd5b506100c1610891565b34801561015457600080fd5b506100c1610b84565b34801561016957600080fd5b5061017360995481565b60405190815260200161012a565b34801561018d57600080fd5b506100c1610df6565b3480156101a257600080fd5b506097546101b6906001600160a01b031681565b6040516001600160a01b03909116815260200161012a565b3480156101da57600080fd5b506098546101b6906001600160a01b031681565b6002606554036102455760405162461bcd60e51b815260206004820152601f60248201527f5265656e7472616e637947756172643a207265656e7472616e742063616c6c0060448201526064015b60405180910390fd5b60026065556102526110e7565b6099546001146102a45760405162461bcd60e51b815260206004820152601a60248201527f537461626c65636f696e416461707465722f6e6f742d6c697665000000000000604482015260640161023c565b6097546001600160a01b0316638c15785433306102cd6b033b2e3c9fd0803ce80000008861112f565b6040516001600160e01b031960e086901b1681526001600160a01b0393841660048201529290911660248301526044820152606401600060405180830381600087803b15801561031c57600080fd5b505af1158015610330573d6000803e3d6000fd5b50506098546040516340c10f1960e01b81526001600160a01b0388811660048301526024820188905290911692506340c10f1991506044015b600060405180830381600087803b15801561038357600080fd5b505af1158015610397573d6000803e3d6000fd5b50506001606555505050505050565b6097546040805163c8cc243f60e01b815290516000926001600160a01b03169163c8cc243f9160048083019260209291908290030181865afa1580156103f0573d6000803e3d6000fd5b505050506040513d601f19601f8201168201806040525081019061041491906113d0565b9050806001600160a01b03166391d14854826001600160a01b031663e58378bb6040518163ffffffff1660e01b8152600401602060405180830381865afa158015610463573d6000803e3d6000fd5b505050506040513d601f19601f8201168201806040525081019061048791906113f4565b6040516001600160e01b031960e084901b1681526004810191909152336024820152604401602060405180830381865afa1580156104c9573d6000803e3d6000fd5b505050506040513d601f19601f820116820180604052508101906104ed919061140d565b806105ca5750806001600160a01b03166391d14854826001600160a01b031663b536818a6040518163ffffffff1660e01b8152600401602060405180830381865afa158015610540573d6000803e3d6000fd5b505050506040513d601f19601f8201168201806040525081019061056491906113f4565b6040516001600160e01b031960e084901b1681526004810191909152336024820152604401602060405180830381865afa1580156105a6573d6000803e3d6000fd5b505050506040513d601f19601f820116820180604052508101906105ca919061140d565b6106105760405162461bcd60e51b815260206004820152601760248201527621286f776e6572526f6c65206f7220676f76526f6c652960481b604482015260640161023c565b610618611162565b50565b600054610100900460ff161580801561063b5750600054600160ff909116105b806106555750303b158015610655575060005460ff166001145b6106b85760405162461bcd60e51b815260206004820152602e60248201527f496e697469616c697a61626c653a20636f6e747261637420697320616c72656160448201526d191e481a5b9a5d1a585b1a5e995960921b606482015260840161023c565b6000805460ff1916600117905580156106db576000805461ff0019166101001790555b6106e36111b4565b6106eb6111e3565b6001609955609780546001600160a01b038086166001600160a01b03199283161790925560988054928516929091169190911790558015610766576000805461ff0019169055604051600181527f7f26b83ff96e1f2b6a682f133852f6798a09c465da95921460cefb38474024989060200160405180910390a15b505050565b6002606554036107bd5760405162461bcd60e51b815260206004820152601f60248201527f5265656e7472616e637947756172643a207265656e7472616e742063616c6c00604482015260640161023c565b60026065556107ca6110e7565b6097546001600160a01b0316638c15785430866107f36b033b2e3c9fd0803ce80000008861112f565b6040516001600160e01b031960e086901b1681526001600160a01b0393841660048201529290911660248301526044820152606401600060405180830381600087803b15801561084257600080fd5b505af1158015610856573d6000803e3d6000fd5b5050609854604051632770a7eb60e21b8152336004820152602481018790526001600160a01b039091169250639dc29fac9150604401610369565b6097546040805163c8cc243f60e01b815290516000926001600160a01b03169163c8cc243f9160048083019260209291908290030181865afa1580156108db573d6000803e3d6000fd5b505050506040513d601f19601f820116820180604052508101906108ff91906113d0565b9050806001600160a01b03166391d14854826001600160a01b031663e58378bb6040518163ffffffff1660e01b8152600401602060405180830381865afa15801561094e573d6000803e3d6000fd5b505050506040513d601f19601f8201168201806040525081019061097291906113f4565b6040516001600160e01b031960e084901b1681526004810191909152336024820152604401602060405180830381865afa1580156109b4573d6000803e3d6000fd5b505050506040513d601f19601f820116820180604052508101906109d8919061140d565b80610ab55750806001600160a01b03166391d14854826001600160a01b031663d7a47a696040518163ffffffff1660e01b8152600401602060405180830381865afa158015610a2b573d6000803e3d6000fd5b505050506040513d601f19601f82011682018060405250810190610a4f91906113f4565b6040516001600160e01b031960e084901b1681526004810191909152336024820152604401602060405180830381865afa158015610a91573d6000803e3d6000fd5b505050506040513d601f19601f82011682018060405250810190610ab5919061140d565b610b015760405162461bcd60e51b815260206004820152601f60248201527f21286f776e6572526f6c65206f722073686f7753746f70706572526f6c652900604482015260640161023c565b609954600114610b535760405162461bcd60e51b815260206004820152601a60248201527f537461626c65636f696e416461707465722f6e6f742d6c697665000000000000604482015260640161023c565b600060998190556040517fbf689b4aae670d200b1d2b971ace2e0c3bef88a9c5e93f36705c7b86eab630b99190a150565b6097546040805163c8cc243f60e01b815290516000926001600160a01b03169163c8cc243f9160048083019260209291908290030181865afa158015610bce573d6000803e3d6000fd5b505050506040513d601f19601f82011682018060405250810190610bf291906113d0565b9050806001600160a01b03166391d14854826001600160a01b031663e58378bb6040518163ffffffff1660e01b8152600401602060405180830381865afa158015610c41573d6000803e3d6000fd5b505050506040513d601f19601f82011682018060405250810190610c6591906113f4565b6040516001600160e01b031960e084901b1681526004810191909152336024820152604401602060405180830381865afa158015610ca7573d6000803e3d6000fd5b505050506040513d601f19601f82011682018060405250810190610ccb919061140d565b80610da85750806001600160a01b03166391d14854826001600160a01b031663b536818a6040518163ffffffff1660e01b8152600401602060405180830381865afa158015610d1e573d6000803e3d6000fd5b505050506040513d601f19601f82011682018060405250810190610d4291906113f4565b6040516001600160e01b031960e084901b1681526004810191909152336024820152604401602060405180830381865afa158015610d84573d6000803e3d6000fd5b505050506040513d601f19601f82011682018060405250810190610da8919061140d565b610dee5760405162461bcd60e51b815260206004820152601760248201527621286f776e6572526f6c65206f7220676f76526f6c652960481b604482015260640161023c565b610618611212565b6097546040805163c8cc243f60e01b815290516000926001600160a01b03169163c8cc243f9160048083019260209291908290030181865afa158015610e40573d6000803e3d6000fd5b505050506040513d601f19601f82011682018060405250810190610e6491906113d0565b9050806001600160a01b03166391d14854826001600160a01b031663e58378bb6040518163ffffffff1660e01b8152600401602060405180830381865afa158015610eb3573d6000803e3d6000fd5b505050506040513d601f19601f82011682018060405250810190610ed791906113f4565b6040516001600160e01b031960e084901b1681526004810191909152336024820152604401602060405180830381865afa158015610f19573d6000803e3d6000fd5b505050506040513d601f19601f82011682018060405250810190610f3d919061140d565b8061101a5750806001600160a01b03166391d14854826001600160a01b031663d7a47a696040518163ffffffff1660e01b8152600401602060405180830381865afa158015610f90573d6000803e3d6000fd5b505050506040513d601f19601f82011682018060405250810190610fb491906113f4565b6040516001600160e01b031960e084901b1681526004810191909152336024820152604401602060405180830381865afa158015610ff6573d6000803e3d6000fd5b505050506040513d601f19601f8201168201806040525081019061101a919061140d565b6110665760405162461bcd60e51b815260206004820152601f60248201527f21286f776e6572526f6c65206f722073686f7753746f70706572526f6c652900604482015260640161023c565b609954156110b65760405162461bcd60e51b815260206004820152601b60248201527f537461626c65636f696e416461707465722f6e6f742d63616765640000000000604482015260640161023c565b60016099556040517f1868a6ced217213f36be87ba9aee25cde5381b42e85c8f88e73b18772c0bd07390600090a150565b60335460ff161561112d5760405162461bcd60e51b815260206004820152601060248201526f14185d5cd8589b194e881c185d5cd95960821b604482015260640161023c565b565b600081158061115357508282611145818361142f565b92506111519083611454565b145b61115c57600080fd5b92915050565b61116a61124f565b6033805460ff191690557f5db9ee0a495bf2e6ff9c91a7834c1ba4fdd244a5e8aa4e537bd38aeae4b073aa335b6040516001600160a01b03909116815260200160405180910390a1565b600054610100900460ff166111db5760405162461bcd60e51b815260040161023c90611476565b61112d611298565b600054610100900460ff1661120a5760405162461bcd60e51b815260040161023c90611476565b61112d6112cb565b61121a6110e7565b6033805460ff191660011790557f62e78cea01bee320cd4e420270b5ea74000d11b0c9f74754ebdbfc544b05a2586111973390565b60335460ff1661112d5760405162461bcd60e51b815260206004820152601460248201527314185d5cd8589b194e881b9bdd081c185d5cd95960621b604482015260640161023c565b600054610100900460ff166112bf5760405162461bcd60e51b815260040161023c90611476565b6033805460ff19169055565b600054610100900460ff166112f25760405162461bcd60e51b815260040161023c90611476565b6001606555565b6001600160a01b038116811461061857600080fd5b6000806000806060858703121561132457600080fd5b843561132f816112f9565b935060208501359250604085013567ffffffffffffffff8082111561135357600080fd5b818701915087601f83011261136757600080fd5b81358181111561137657600080fd5b88602082850101111561138857600080fd5b95989497505060200194505050565b600080604083850312156113aa57600080fd5b82356113b5816112f9565b915060208301356113c5816112f9565b809150509250929050565b6000602082840312156113e257600080fd5b81516113ed816112f9565b9392505050565b60006020828403121561140657600080fd5b5051919050565b60006020828403121561141f57600080fd5b815180151581146113ed57600080fd5b808202811582820484141761115c57634e487b7160e01b600052601160045260246000fd5b60008261147157634e487b7160e01b600052601260045260246000fd5b500490565b6020808252602b908201527f496e697469616c697a61626c653a20636f6e7472616374206973206e6f74206960408201526a6e697469616c697a696e6760a81b60608201526080019056fea2646970667358221220e1ac199ab549c03f680f7b7c98d098532bff8f4d4d7fb4e242e40712f301fa1d64736f6c63430008110033",
    "immutableReferences": {},
    "source": "// SPDX-License-Identifier: AGPL-3.0-or-later\n\npragma solidity 0.8.17;\n\nimport \"@openzeppelin/contracts-upgradeable/security/PausableUpgradeable.sol\";\nimport \"@openzeppelin/contracts-upgradeable/access/AccessControlUpgradeable.sol\";\nimport \"@openzeppelin/contracts-upgradeable/security/ReentrancyGuardUpgradeable.sol\";\nimport \"../../interfaces/IStablecoin.sol\";\nimport \"../../interfaces/IBookKeeper.sol\";\nimport \"../../interfaces/IToken.sol\";\nimport \"../../interfaces/IStablecoinAdapter.sol\";\nimport \"../../interfaces/ICagable.sol\";\n\n// FIXME: This contract was altered compared to the production version.\n// It doesn't use LibNote anymore.\n// New deployments of this contract will need to include custom events (TO DO).\n\n/*\n    Here we provide *adapters* to connect the BookKeeper to arbitrary external\n    token implementations, creating a bounded context for the BookKeeper. The\n    adapters here are provided as working examples:\n\n      - `TokenAdapter`: For well behaved ERC20 tokens, with simple transfer\n                   semantics.\n\n      - `StablecoinAdapter`: For connecting internal Fathom Stablecoin balances to an external\n                   `FathomStablecoin` implementation.\n\n    In practice, adapter implementations will be varied and specific to\n    individual collateral types, accounting for different transfer\n    semantics and token standards.\n\n    Adapters need to implement two basic methods:\n\n      - `deposit`: enter token into the system\n      - `withdraw`: remove token from the system\n\n*/\n\ncontract StablecoinAdapter is PausableUpgradeable, ReentrancyGuardUpgradeable, IStablecoinAdapter, ICagable {\n  IBookKeeper public override bookKeeper; // CDP Engine\n  IStablecoin public override stablecoin; // Stablecoin Token\n  uint256 public live; // Active Flag\n\n  modifier onlyOwnerOrGov() {\n    IAccessControlConfig _accessControlConfig = IAccessControlConfig(IBookKeeper(bookKeeper).accessControlConfig());\n    require(\n      _accessControlConfig.hasRole(_accessControlConfig.OWNER_ROLE(), msg.sender) ||\n        _accessControlConfig.hasRole(_accessControlConfig.GOV_ROLE(), msg.sender),\n      \"!(ownerRole or govRole)\"\n    );\n    _;\n  }\n\n  modifier onlyOwnerOrShowStopper() {\n    IAccessControlConfig _accessControlConfig = IAccessControlConfig(IBookKeeper(bookKeeper).accessControlConfig());\n    require(\n      _accessControlConfig.hasRole(_accessControlConfig.OWNER_ROLE(), msg.sender) ||\n        _accessControlConfig.hasRole(_accessControlConfig.SHOW_STOPPER_ROLE(), msg.sender),\n      \"!(ownerRole or showStopperRole)\"\n    );\n    _;\n  }\n\n  function initialize(address _bookKeeper, address _stablecoin) external initializer {\n    PausableUpgradeable.__Pausable_init();\n    ReentrancyGuardUpgradeable.__ReentrancyGuard_init();\n\n    live = 1;\n    bookKeeper = IBookKeeper(_bookKeeper);\n    stablecoin = IStablecoin(_stablecoin);\n  }\n\n  /// @dev access: OWNER_ROLE, SHOW_STOPPER_ROLE\n  function cage() external override onlyOwnerOrShowStopper {\n    require(live == 1, \"StablecoinAdapter/not-live\");\n    live = 0;\n    emit LogCage();\n  }\n\n  /// @dev access: OWNER_ROLE, SHOW_STOPPER_ROLE\n  function uncage() external override onlyOwnerOrShowStopper {\n    require(live == 0, \"StablecoinAdapter/not-caged\");\n    live = 1;\n    emit LogUncage();\n  }\n\n  uint256 constant ONE = 10**27;\n\n  function mul(uint256 x, uint256 y) internal pure returns (uint256 z) {\n    require(y == 0 || (z = x * y) / y == x);\n  }\n\n  /// @dev Deposit stablecoin into the system from the caller to be used for debt repayment or liquidation\n  /// @param usr The source address which is holding the stablecoin\n  /// @param wad The amount of stablecoin to be deposited [wad]\n  function deposit(\n    address usr,\n    uint256 wad,\n    bytes calldata /* data */\n  ) external payable override nonReentrant whenNotPaused {\n    bookKeeper.moveStablecoin(address(this), usr, mul(ONE, wad));\n    stablecoin.burn(msg.sender, wad);\n  }\n\n  /// @dev Withdraw stablecoin from the system to the caller\n  /// @param usr The destination address to receive stablecoin\n  /// @param wad The amount of stablecoin to be withdrawn [wad]\n  function withdraw(\n    address usr,\n    uint256 wad,\n    bytes calldata /* data */\n  ) external override nonReentrant whenNotPaused {\n    require(live == 1, \"StablecoinAdapter/not-live\");\n    bookKeeper.moveStablecoin(msg.sender, address(this), mul(ONE, wad));\n    stablecoin.mint(usr, wad);\n  }\n\n  // --- pause ---\n  /// @dev access: OWNER_ROLE, GOV_ROLE\n  function pause() external onlyOwnerOrGov {\n    _pause();\n  }\n\n  /// @dev access: OWNER_ROLE, GOV_ROLE\n  function unpause() external onlyOwnerOrGov {\n    _unpause();\n  }\n}\n",
    "sourcePath": "/Users/sangjun.lee/Sangjun/fathom-stablecoin-smart-contracts/contracts/8.17/stablecoin-core/adapters/StablecoinAdapter.sol",
    "compiler": {
        "name": "solc",
        "version": "0.8.17+commit.8df45f5f.Emscripten.clang"
    },
    "schemaVersion": "3.4.10",
    "updatedAt": "2022-10-27T10:35:28.720Z",
    "devdoc": {
        "kind": "dev",
        "methods": {
            "cage()": {
                "details": "access: OWNER_ROLE, SHOW_STOPPER_ROLE"
            },
            "deposit(address,uint256,bytes)": {
                "details": "Deposit stablecoin into the system from the caller to be used for debt repayment or liquidation",
                "params": {
                    "usr": "The source address which is holding the stablecoin",
                    "wad": "The amount of stablecoin to be deposited [wad]"
                }
            },
            "pause()": {
                "details": "access: OWNER_ROLE, GOV_ROLE"
            },
            "paused()": {
                "details": "Returns true if the contract is paused, and false otherwise."
            },
            "uncage()": {
                "details": "access: OWNER_ROLE, SHOW_STOPPER_ROLE"
            },
            "unpause()": {
                "details": "access: OWNER_ROLE, GOV_ROLE"
            },
            "withdraw(address,uint256,bytes)": {
                "details": "Withdraw stablecoin from the system to the caller",
                "params": {
                    "usr": "The destination address to receive stablecoin",
                    "wad": "The amount of stablecoin to be withdrawn [wad]"
                }
            }
        },
        "version": 1
    },
    "userdoc": {
        "kind": "user",
        "methods": {},
        "version": 1
    }
}