{
  "contractName": "StrictFathomOraclePriceFeed",
  "abi": [
    {
      "anonymous": false,
      "inputs": [
        {
          "indexed": false,
          "internalType": "uint8",
          "name": "version",
          "type": "uint8"
        }
      ],
      "name": "Initialized",
      "type": "event"
    },
    {
      "anonymous": false,
      "inputs": [
        {
          "indexed": true,
          "internalType": "address",
          "name": "caller",
          "type": "address"
        },
        {
          "indexed": false,
          "internalType": "uint256",
          "name": "maxPriceDiff",
          "type": "uint256"
        }
      ],
      "name": "LogSetMaxPriceDiff",
      "type": "event"
    },
    {
      "anonymous": false,
      "inputs": [
        {
          "indexed": true,
          "internalType": "address",
          "name": "caller",
          "type": "address"
        },
        {
          "indexed": false,
          "internalType": "uint256",
          "name": "second",
          "type": "uint256"
        }
      ],
      "name": "LogSetPriceLife",
      "type": "event"
    },
    {
      "anonymous": false,
      "inputs": [
        {
          "indexed": true,
          "internalType": "address",
          "name": "caller",
          "type": "address"
        },
        {
          "indexed": false,
          "internalType": "address",
          "name": "newFathomOracle",
          "type": "address"
        },
        {
          "indexed": false,
          "internalType": "address",
          "name": "primaryToken0",
          "type": "address"
        },
        {
          "indexed": false,
          "internalType": "address",
          "name": "primaryToken1",
          "type": "address"
        }
      ],
      "name": "LogSetPrimary",
      "type": "event"
    },
    {
      "anonymous": false,
      "inputs": [
        {
          "indexed": true,
          "internalType": "address",
          "name": "caller",
          "type": "address"
        },
        {
          "indexed": false,
          "internalType": "address",
          "name": "newFathomOracle",
          "type": "address"
        },
        {
          "indexed": false,
          "internalType": "address",
          "name": "secondaryToken0",
          "type": "address"
        },
        {
          "indexed": false,
          "internalType": "address",
          "name": "secondaryToken1",
          "type": "address"
        }
      ],
      "name": "LogSetSecondary",
      "type": "event"
    },
    {
      "anonymous": false,
      "inputs": [
        {
          "indexed": false,
          "internalType": "address",
          "name": "account",
          "type": "address"
        }
      ],
      "name": "Paused",
      "type": "event"
    },
    {
      "anonymous": false,
      "inputs": [
        {
          "indexed": true,
          "internalType": "bytes32",
          "name": "role",
          "type": "bytes32"
        },
        {
          "indexed": true,
          "internalType": "bytes32",
          "name": "previousAdminRole",
          "type": "bytes32"
        },
        {
          "indexed": true,
          "internalType": "bytes32",
          "name": "newAdminRole",
          "type": "bytes32"
        }
      ],
      "name": "RoleAdminChanged",
      "type": "event"
    },
    {
      "anonymous": false,
      "inputs": [
        {
          "indexed": true,
          "internalType": "bytes32",
          "name": "role",
          "type": "bytes32"
        },
        {
          "indexed": true,
          "internalType": "address",
          "name": "account",
          "type": "address"
        },
        {
          "indexed": true,
          "internalType": "address",
          "name": "sender",
          "type": "address"
        }
      ],
      "name": "RoleGranted",
      "type": "event"
    },
    {
      "anonymous": false,
      "inputs": [
        {
          "indexed": true,
          "internalType": "bytes32",
          "name": "role",
          "type": "bytes32"
        },
        {
          "indexed": true,
          "internalType": "address",
          "name": "account",
          "type": "address"
        },
        {
          "indexed": true,
          "internalType": "address",
          "name": "sender",
          "type": "address"
        }
      ],
      "name": "RoleRevoked",
      "type": "event"
    },
    {
      "anonymous": false,
      "inputs": [
        {
          "indexed": false,
          "internalType": "address",
          "name": "account",
          "type": "address"
        }
      ],
      "name": "Unpaused",
      "type": "event"
    },
    {
      "inputs": [],
      "name": "DEFAULT_ADMIN_ROLE",
      "outputs": [
        {
          "internalType": "bytes32",
          "name": "",
          "type": "bytes32"
        }
      ],
      "stateMutability": "view",
      "type": "function"
    },
    {
      "inputs": [],
      "name": "accessControlConfig",
      "outputs": [
        {
          "internalType": "contract IAccessControlConfig",
          "name": "",
          "type": "address"
        }
      ],
      "stateMutability": "view",
      "type": "function"
    },
    {
      "inputs": [
        {
          "internalType": "bytes32",
          "name": "role",
          "type": "bytes32"
        }
      ],
      "name": "getRoleAdmin",
      "outputs": [
        {
          "internalType": "bytes32",
          "name": "",
          "type": "bytes32"
        }
      ],
      "stateMutability": "view",
      "type": "function"
    },
    {
      "inputs": [
        {
          "internalType": "bytes32",
          "name": "role",
          "type": "bytes32"
        },
        {
          "internalType": "address",
          "name": "account",
          "type": "address"
        }
      ],
      "name": "grantRole",
      "outputs": [],
      "stateMutability": "nonpayable",
      "type": "function"
    },
    {
      "inputs": [
        {
          "internalType": "bytes32",
          "name": "role",
          "type": "bytes32"
        },
        {
          "internalType": "address",
          "name": "account",
          "type": "address"
        }
      ],
      "name": "hasRole",
      "outputs": [
        {
          "internalType": "bool",
          "name": "",
          "type": "bool"
        }
      ],
      "stateMutability": "view",
      "type": "function"
    },
    {
      "inputs": [],
      "name": "maxPriceDiff",
      "outputs": [
        {
          "internalType": "uint256",
          "name": "",
          "type": "uint256"
        }
      ],
      "stateMutability": "view",
      "type": "function"
    },
    {
      "inputs": [],
      "name": "paused",
      "outputs": [
        {
          "internalType": "bool",
          "name": "",
          "type": "bool"
        }
      ],
      "stateMutability": "view",
      "type": "function"
    },
    {
      "inputs": [],
      "name": "priceLife",
      "outputs": [
        {
          "internalType": "uint256",
          "name": "",
          "type": "uint256"
        }
      ],
      "stateMutability": "view",
      "type": "function"
    },
    {
      "inputs": [],
      "name": "primary",
      "outputs": [
        {
          "internalType": "contract IFathomOracle",
          "name": "fathomOracle",
          "type": "address"
        },
        {
          "internalType": "address",
          "name": "token0",
          "type": "address"
        },
        {
          "internalType": "address",
          "name": "token1",
          "type": "address"
        }
      ],
      "stateMutability": "view",
      "type": "function"
    },
    {
      "inputs": [
        {
          "internalType": "bytes32",
          "name": "role",
          "type": "bytes32"
        },
        {
          "internalType": "address",
          "name": "account",
          "type": "address"
        }
      ],
      "name": "renounceRole",
      "outputs": [],
      "stateMutability": "nonpayable",
      "type": "function"
    },
    {
      "inputs": [
        {
          "internalType": "bytes32",
          "name": "role",
          "type": "bytes32"
        },
        {
          "internalType": "address",
          "name": "account",
          "type": "address"
        }
      ],
      "name": "revokeRole",
      "outputs": [],
      "stateMutability": "nonpayable",
      "type": "function"
    },
    {
      "inputs": [],
      "name": "secondary",
      "outputs": [
        {
          "internalType": "contract IFathomOracle",
          "name": "fathomOracle",
          "type": "address"
        },
        {
          "internalType": "address",
          "name": "token0",
          "type": "address"
        },
        {
          "internalType": "address",
          "name": "token1",
          "type": "address"
        }
      ],
      "stateMutability": "view",
      "type": "function"
    },
    {
      "inputs": [
        {
          "internalType": "bytes4",
          "name": "interfaceId",
          "type": "bytes4"
        }
      ],
      "name": "supportsInterface",
      "outputs": [
        {
          "internalType": "bool",
          "name": "",
          "type": "bool"
        }
      ],
      "stateMutability": "view",
      "type": "function"
    },
    {
      "inputs": [
        {
          "internalType": "address",
          "name": "_primaryFathomOracle",
          "type": "address"
        },
        {
          "internalType": "address",
          "name": "_primaryToken0",
          "type": "address"
        },
        {
          "internalType": "address",
          "name": "_primaryToken1",
          "type": "address"
        },
        {
          "internalType": "address",
          "name": "_secondaryFathomOracle",
          "type": "address"
        },
        {
          "internalType": "address",
          "name": "_secondaryToken0",
          "type": "address"
        },
        {
          "internalType": "address",
          "name": "_secondaryToken1",
          "type": "address"
        },
        {
          "internalType": "address",
          "name": "_accessControlConfig",
          "type": "address"
        }
      ],
      "name": "initialize",
      "outputs": [],
      "stateMutability": "nonpayable",
      "type": "function"
    },
    {
      "inputs": [
        {
          "internalType": "uint256",
          "name": "_second",
          "type": "uint256"
        }
      ],
      "name": "setPriceLife",
      "outputs": [],
      "stateMutability": "nonpayable",
      "type": "function"
    },
    {
      "inputs": [
        {
          "internalType": "uint256",
          "name": "_maxPriceDiff",
          "type": "uint256"
        }
      ],
      "name": "setMaxPriceDiff",
      "outputs": [],
      "stateMutability": "nonpayable",
      "type": "function"
    },
    {
      "inputs": [
        {
          "internalType": "address",
          "name": "_primaryFathomOracle",
          "type": "address"
        },
        {
          "internalType": "address",
          "name": "_primaryToken0",
          "type": "address"
        },
        {
          "internalType": "address",
          "name": "_primaryToken1",
          "type": "address"
        }
      ],
      "name": "setPrimary",
      "outputs": [],
      "stateMutability": "nonpayable",
      "type": "function"
    },
    {
      "inputs": [
        {
          "internalType": "address",
          "name": "_secondaryFathomOracle",
          "type": "address"
        },
        {
          "internalType": "address",
          "name": "_secondaryToken0",
          "type": "address"
        },
        {
          "internalType": "address",
          "name": "_secondaryToken1",
          "type": "address"
        }
      ],
      "name": "setSecondary",
      "outputs": [],
      "stateMutability": "nonpayable",
      "type": "function"
    },
    {
      "inputs": [],
      "name": "pause",
      "outputs": [],
      "stateMutability": "nonpayable",
      "type": "function"
    },
    {
      "inputs": [],
      "name": "unpause",
      "outputs": [],
      "stateMutability": "nonpayable",
      "type": "function"
    },
    {
      "inputs": [],
      "name": "readPrice",
      "outputs": [
        {
          "internalType": "bytes32",
          "name": "",
          "type": "bytes32"
        }
      ],
      "stateMutability": "view",
      "type": "function"
    },
    {
      "inputs": [],
      "name": "peekPrice",
      "outputs": [
        {
          "internalType": "bytes32",
          "name": "",
          "type": "bytes32"
        },
        {
          "internalType": "bool",
          "name": "",
          "type": "bool"
        }
      ],
      "stateMutability": "view",
      "type": "function"
    }
  ],
  "bytecode": "0x608060405234801561001057600080fd5b50611ca9806100206000396000f3fe608060405234801561001057600080fd5b50600436106101425760003560e01c80637e91400f116100b8578063c6dbdf611161007c578063c6dbdf61146102a5578063c8cc243f146102c5578063d25a5d5c146102f0578063d547741f14610303578063ef36ee4714610316578063fea4c5411461032957600080fd5b80637e91400f146102305780638456cb591461023857806391d14854146102405780639d3c8cc414610253578063a217fddf1461029d57600080fd5b80632f2ff15d1161010a5780632f2ff15d146101db57806335876476146101ee57806336568abe146102015780633f4ba83a146102145780635af639c31461021c5780635c975abb1461022557600080fd5b806301ffc9a71461014757806305c552d81461016f57806313b17ab014610186578063140d27201461019b578063248a9ca3146101b8575b600080fd5b61015a6101553660046118ef565b61033c565b60405190151581526020015b60405180910390f35b61017860d05481565b604051908152602001610166565b610199610194366004611935565b610373565b005b6101a361056f565b60408051928352901515602083015201610166565b6101786101c6366004611978565b60009081526097602052604090206001015490565b6101996101e9366004611991565b610698565b6101996101fc3660046119bd565b6106c2565b61019961020f366004611991565b610955565b6101996109d3565b61017860cf5481565b60335460ff1661015a565b610178610be1565b610199610c66565b61015a61024e366004611991565b610e72565b60cc5460cd5460ce54610273926001600160a01b03908116928116911683565b604080516001600160a01b0394851681529284166020840152921691810191909152606001610166565b610178600081565b60c95460ca5460cb54610273926001600160a01b03908116928116911683565b60d1546102d8906001600160a01b031681565b6040516001600160a01b039091168152602001610166565b6101996102fe366004611935565b610e9d565b610199610311366004611991565b611087565b610199610324366004611978565b6110ac565b610199610337366004611978565b611256565b60006001600160e01b03198216637965db0b60e01b148061036d57506301ffc9a760e01b6001600160e01b03198316145b92915050565b60d1546040805163e58378bb60e01b815290516001600160a01b03909216916391d1485491839163e58378bb916004808201926020929091908290030181865afa1580156103c5573d6000803e3d6000fd5b505050506040513d601f19601f820116820180604052508101906103e99190611a43565b6040516001600160e01b031960e084901b1681526004810191909152336024820152604401602060405180830381865afa15801561042b573d6000803e3d6000fd5b505050506040513d601f19601f8201168201806040525081019061044f9190611a5c565b6104745760405162461bcd60e51b815260040161046b90611a7e565b60405180910390fd5b60cc80546001600160a01b038581166001600160a01b0319928316811790935560cd8054868316908416811790915560ce8054928616929093168217909255604051635620c32d60e11b81526004810192909252602482015263ac41865a906044016040805180830381865afa1580156104f2573d6000803e3d6000fd5b505050506040513d601f19601f820116820180604052508101906105169190611aa2565b5050604080516001600160a01b038581168252848116602083015283169181019190915233907fb35ff075a769c20f3214ee392de77b56a9f29bab0a7bc3965e1100c817ae8bb5906060015b60405180910390a2505050565b60c95460ca5460cb54604051635620c32d60e11b81526001600160a01b0392831660048201529082166024820152600092839283928392919091169063ac41865a906044016040805180830381865afa1580156105d0573d6000803e3d6000fd5b505050506040513d601f19601f820116820180604052508101906105f49190611aa2565b60cc5460cd5460ce54604051635620c32d60e11b81526001600160a01b039283166004820152908216602482015293955091935060009283929091169063ac41865a906044016040805180830381865afa158015610656573d6000803e3d6000fd5b505050506040513d601f19601f8201168201806040525081019061067a9190611aa2565b90925090508361068c81848685611385565b95509550505050509091565b6000828152609760205260409020600101546106b3816113ba565b6106bd83836113c7565b505050565b600054610100900460ff16158080156106e25750600054600160ff909116105b806106fc5750303b1580156106fc575060005460ff166001145b61075f5760405162461bcd60e51b815260206004820152602e60248201527f496e697469616c697a61626c653a20636f6e747261637420697320616c72656160448201526d191e481a5b9a5d1a585b1a5e995960921b606482015260840161046b565b6000805460ff191660011790558015610782576000805461ff0019166101001790555b61078a61144d565b61079261147c565b60c980546001600160a01b038a81166001600160a01b0319928316811790935560ca80548b8316908416811790915560cb80548b8416908516811790915560cc80548b851690861617905560cd80548a851690861617905560ce80549389169390941692909217909255604051635620c32d60e11b81526004810192909252602482015263ac41865a906044016040805180830381865afa15801561083b573d6000803e3d6000fd5b505050506040513d601f19601f8201168201806040525081019061085f9190611aa2565b505060cc5460cd5460ce54604051635620c32d60e11b81526001600160a01b039283166004820152908216602482015291169063ac41865a906044016040805180830381865afa1580156108b7573d6000803e3d6000fd5b505050506040513d601f19601f820116820180604052508101906108db9190611aa2565b50506201518060cf5561290460d05560d180546001600160a01b0319166001600160a01b038416179055801561094b576000805461ff0019169055604051600181527f7f26b83ff96e1f2b6a682f133852f6798a09c465da95921460cefb38474024989060200160405180910390a15b5050505050505050565b6001600160a01b03811633146109c55760405162461bcd60e51b815260206004820152602f60248201527f416363657373436f6e74726f6c3a2063616e206f6e6c792072656e6f756e636560448201526e103937b632b9903337b91039b2b63360891b606482015260840161046b565b6109cf82826114a3565b5050565b60d15460408051635a9b40c560e11b815290516001600160a01b03909216916391d1485491839163b536818a916004808201926020929091908290030181865afa158015610a25573d6000803e3d6000fd5b505050506040513d601f19601f82011682018060405250810190610a499190611a43565b6040516001600160e01b031960e084901b1681526004810191909152336024820152604401602060405180830381865afa158015610a8b573d6000803e3d6000fd5b505050506040513d601f19601f82011682018060405250810190610aaf9190611a5c565b80610b91575060d1546040805163e58378bb60e01b815290516001600160a01b03909216916391d1485491839163e58378bb916004808201926020929091908290030181865afa158015610b07573d6000803e3d6000fd5b505050506040513d601f19601f82011682018060405250810190610b2b9190611a43565b6040516001600160e01b031960e084901b1681526004810191909152336024820152604401602060405180830381865afa158015610b6d573d6000803e3d6000fd5b505050506040513d601f19601f82011682018060405250810190610b919190611a5c565b610bd75760405162461bcd60e51b815260206004820152601760248201527621286f776e6572526f6c65206f7220676f76526f6c652960481b604482015260640161046b565b610bdf61150a565b565b60c95460ca5460cb54604051635620c32d60e11b81526001600160a01b03928316600482015290821660248201526000928392169063ac41865a906044016040805180830381865afa158015610c3b573d6000803e3d6000fd5b505050506040513d601f19601f82011682018060405250810190610c5f9190611aa2565b5092915050565b60d15460408051635a9b40c560e11b815290516001600160a01b03909216916391d1485491839163b536818a916004808201926020929091908290030181865afa158015610cb8573d6000803e3d6000fd5b505050506040513d601f19601f82011682018060405250810190610cdc9190611a43565b6040516001600160e01b031960e084901b1681526004810191909152336024820152604401602060405180830381865afa158015610d1e573d6000803e3d6000fd5b505050506040513d601f19601f82011682018060405250810190610d429190611a5c565b80610e24575060d1546040805163e58378bb60e01b815290516001600160a01b03909216916391d1485491839163e58378bb916004808201926020929091908290030181865afa158015610d9a573d6000803e3d6000fd5b505050506040513d601f19601f82011682018060405250810190610dbe9190611a43565b6040516001600160e01b031960e084901b1681526004810191909152336024820152604401602060405180830381865afa158015610e00573d6000803e3d6000fd5b505050506040513d601f19601f82011682018060405250810190610e249190611a5c565b610e6a5760405162461bcd60e51b815260206004820152601760248201527621286f776e6572526f6c65206f7220676f76526f6c652960481b604482015260640161046b565b610bdf61155c565b60009182526097602090815260408084206001600160a01b0393909316845291905290205460ff1690565b60d1546040805163e58378bb60e01b815290516001600160a01b03909216916391d1485491839163e58378bb916004808201926020929091908290030181865afa158015610eef573d6000803e3d6000fd5b505050506040513d601f19601f82011682018060405250810190610f139190611a43565b6040516001600160e01b031960e084901b1681526004810191909152336024820152604401602060405180830381865afa158015610f55573d6000803e3d6000fd5b505050506040513d601f19601f82011682018060405250810190610f799190611a5c565b610f955760405162461bcd60e51b815260040161046b90611a7e565b60c980546001600160a01b038581166001600160a01b0319928316811790935560ca8054868316908416811790915560cb8054928616929093168217909255604051635620c32d60e11b81526004810192909252602482015263ac41865a906044016040805180830381865afa158015611013573d6000803e3d6000fd5b505050506040513d601f19601f820116820180604052508101906110379190611aa2565b5050604080516001600160a01b038581168252848116602083015283169181019190915233907ffe139b9e3b3a49c56a94c7c72c4806845f19a6d47a76c784ac52770fea86579790606001610562565b6000828152609760205260409020600101546110a2816113ba565b6106bd83836114a3565b60d1546040805163e58378bb60e01b815290516001600160a01b03909216916391d1485491839163e58378bb916004808201926020929091908290030181865afa1580156110fe573d6000803e3d6000fd5b505050506040513d601f19601f820116820180604052508101906111229190611a43565b6040516001600160e01b031960e084901b1681526004810191909152336024820152604401602060405180830381865afa158015611164573d6000803e3d6000fd5b505050506040513d601f19601f820116820180604052508101906111889190611a5c565b6111a45760405162461bcd60e51b815260040161046b90611a7e565b610e1081101580156111b95750620151808111155b6112185760405162461bcd60e51b815260206004820152602a60248201527f537472696374466174686f6d4f7261636c655072696365466565642f6261642d60448201526970726963652d6c69666560b01b606482015260840161046b565b60cf81905560405181815233907f472c5e14bb804bd7b201c5c27f2ea820980b37ef7611806e7b3f6db6758f32e0906020015b60405180910390a250565b60d1546040805163e58378bb60e01b815290516001600160a01b03909216916391d1485491839163e58378bb916004808201926020929091908290030181865afa1580156112a8573d6000803e3d6000fd5b505050506040513d601f19601f820116820180604052508101906112cc9190611a43565b6040516001600160e01b031960e084901b1681526004810191909152336024820152604401602060405180830381865afa15801561130e573d6000803e3d6000fd5b505050506040513d601f19601f820116820180604052508101906113329190611a5c565b61134e5760405162461bcd60e51b815260040161046b90611a7e565b60d081905560405181815233907f35cd4efb2c38347b81695c1e23f73668c2281ecac3def24759edb98bab45f1f89060200161124b565b60006113918383611599565b80156113a257506113a285856115cb565b80156113b1575060335460ff16155b95945050505050565b6113c4813361161a565b50565b6113d18282610e72565b6109cf5760008281526097602090815260408083206001600160a01b03851684529091529020805460ff191660011790556114093390565b6001600160a01b0316816001600160a01b0316837f2f8788117e7eff1d82e926ec794901d17c78024a50270940304540a733656f0d60405160405180910390a45050565b600054610100900460ff166114745760405162461bcd60e51b815260040161046b90611ac6565b610bdf611673565b600054610100900460ff16610bdf5760405162461bcd60e51b815260040161046b90611ac6565b6114ad8282610e72565b156109cf5760008281526097602090815260408083206001600160a01b0385168085529252808320805460ff1916905551339285917ff6391f5c32d9c69d2a47ea670b442974b53935d1edc7fd64eb21e047a839171b9190a45050565b6115126116a6565b6033805460ff191690557f5db9ee0a495bf2e6ff9c91a7834c1ba4fdd244a5e8aa4e537bd38aeae4b073aa335b6040516001600160a01b03909116815260200160405180910390a1565b6115646116ef565b6033805460ff191660011790557f62e78cea01bee320cd4e420270b5ea74000d11b0c9f74754ebdbfc544b05a25861153f3390565b600060cf54426115a99190611b27565b83101580156115c4575060cf546115c09042611b27565b8210155b9392505050565b60006115e260d0548361173590919063ffffffff16565b6115ee84612710611735565b111580156115c4575061160382612710611735565b60d054611611908590611735565b10159392505050565b6116248282610e72565b6109cf5761163181611741565b61163c836020611753565b60405160200161164d929190611b5e565b60408051601f198184030181529082905262461bcd60e51b825261046b91600401611bd3565b600054610100900460ff1661169a5760405162461bcd60e51b815260040161046b90611ac6565b6033805460ff19169055565b60335460ff16610bdf5760405162461bcd60e51b815260206004820152601460248201527314185d5cd8589b194e881b9bdd081c185d5cd95960621b604482015260640161046b565b60335460ff1615610bdf5760405162461bcd60e51b815260206004820152601060248201526f14185d5cd8589b194e881c185d5cd95960821b604482015260640161046b565b60006115c48284611c06565b606061036d6001600160a01b03831660145b60606000611762836002611c06565b61176d906002611c1d565b67ffffffffffffffff81111561178557611785611c30565b6040519080825280601f01601f1916602001820160405280156117af576020820181803683370190505b509050600360fc1b816000815181106117ca576117ca611c46565b60200101906001600160f81b031916908160001a905350600f60fb1b816001815181106117f9576117f9611c46565b60200101906001600160f81b031916908160001a905350600061181d846002611c06565b611828906001611c1d565b90505b60018111156118a0576f181899199a1a9b1b9c1cb0b131b232b360811b85600f166010811061185c5761185c611c46565b1a60f81b82828151811061187257611872611c46565b60200101906001600160f81b031916908160001a90535060049490941c9361189981611c5c565b905061182b565b5083156115c45760405162461bcd60e51b815260206004820181905260248201527f537472696e67733a20686578206c656e67746820696e73756666696369656e74604482015260640161046b565b60006020828403121561190157600080fd5b81356001600160e01b0319811681146115c457600080fd5b80356001600160a01b038116811461193057600080fd5b919050565b60008060006060848603121561194a57600080fd5b61195384611919565b925061196160208501611919565b915061196f60408501611919565b90509250925092565b60006020828403121561198a57600080fd5b5035919050565b600080604083850312156119a457600080fd5b823591506119b460208401611919565b90509250929050565b600080600080600080600060e0888a0312156119d857600080fd5b6119e188611919565b96506119ef60208901611919565b95506119fd60408901611919565b9450611a0b60608901611919565b9350611a1960808901611919565b9250611a2760a08901611919565b9150611a3560c08901611919565b905092959891949750929550565b600060208284031215611a5557600080fd5b5051919050565b600060208284031215611a6e57600080fd5b815180151581146115c457600080fd5b6020808252600a9082015269216f776e6572526f6c6560b01b604082015260600190565b60008060408385031215611ab557600080fd5b505080516020909101519092909150565b6020808252602b908201527f496e697469616c697a61626c653a20636f6e7472616374206973206e6f74206960408201526a6e697469616c697a696e6760a81b606082015260800190565b634e487b7160e01b600052601160045260246000fd5b8181038181111561036d5761036d611b11565b60005b83811015611b55578181015183820152602001611b3d565b50506000910152565b7f416363657373436f6e74726f6c3a206163636f756e7420000000000000000000815260008351611b96816017850160208801611b3a565b7001034b99036b4b9b9b4b733903937b6329607d1b6017918401918201528351611bc7816028840160208801611b3a565b01602801949350505050565b6020815260008251806020840152611bf2816040850160208701611b3a565b601f01601f19169190910160400192915050565b808202811582820484141761036d5761036d611b11565b8082018082111561036d5761036d611b11565b634e487b7160e01b600052604160045260246000fd5b634e487b7160e01b600052603260045260246000fd5b600081611c6b57611c6b611b11565b50600019019056fea26469706673582212205f61b2603a0309a1e4a3abe332ab5062dfe1a86ae8ce1b7a097e611d123a16ab64736f6c63430008110033",
  "immutableReferences": {},
  "source": "// SPDX-License-Identifier: AGPL-3.0-or-later\n\npragma solidity 0.8.17;\n\nimport \"@openzeppelin/contracts-upgradeable/security/PausableUpgradeable.sol\";\nimport \"@openzeppelin/contracts-upgradeable/access/AccessControlUpgradeable.sol\";\nimport \"@openzeppelin/contracts-upgradeable/utils/math/SafeMathUpgradeable.sol\";\n\nimport \"../interfaces/IPriceFeed.sol\";\nimport \"../interfaces/IFathomOracle.sol\";\nimport \"../interfaces/IAccessControlConfig.sol\";\n\ncontract StrictFathomOraclePriceFeed is PausableUpgradeable, AccessControlUpgradeable, IPriceFeed {\n  using SafeMathUpgradeable for uint256;\n\n  struct OracleConfig {\n    IFathomOracle fathomOracle;\n    address token0;\n    address token1;\n  }\n\n  // primary.fathomOracle will be use as the price source\n  OracleConfig public primary;\n  // secondary.fathomOracle will be use as the price ref for diff checking\n  OracleConfig public secondary;\n\n  uint256 public priceLife; // [seconds] how old the price is considered stale, default 1 day\n  uint256 public maxPriceDiff; // [basis point] ie. 5% diff = 10500 (105%)\n\n  IAccessControlConfig public accessControlConfig;\n\n  // --- Init ---\n  function initialize(\n    address _primaryFathomOracle,\n    address _primaryToken0,\n    address _primaryToken1,\n    address _secondaryFathomOracle,\n    address _secondaryToken0,\n    address _secondaryToken1,\n    address _accessControlConfig\n  ) external initializer {\n    PausableUpgradeable.__Pausable_init();\n    AccessControlUpgradeable.__AccessControl_init();\n\n    primary.fathomOracle = IFathomOracle(_primaryFathomOracle);\n    primary.token0 = _primaryToken0;\n    primary.token1 = _primaryToken1;\n\n    secondary.fathomOracle = IFathomOracle(_secondaryFathomOracle);\n    secondary.token0 = _secondaryToken0;\n    secondary.token1 = _secondaryToken1;\n\n    // Sanity check\n    primary.fathomOracle.getPrice(primary.token0, primary.token1);\n    secondary.fathomOracle.getPrice(secondary.token0, secondary.token1);\n\n    priceLife = 1 days;\n    maxPriceDiff = 10500;\n\n    accessControlConfig = IAccessControlConfig(_accessControlConfig);\n  }\n\n  modifier onlyOwner() {\n    require(accessControlConfig.hasRole(accessControlConfig.OWNER_ROLE(), msg.sender), \"!ownerRole\");\n    _;\n  }\n\n  modifier onlyOwnerOrGov() {\n    require(\n      accessControlConfig.hasRole(accessControlConfig.GOV_ROLE(), msg.sender) ||\n        accessControlConfig.hasRole(accessControlConfig.OWNER_ROLE(), msg.sender),\n      \"!(ownerRole or govRole)\"\n    );\n    _;\n  }\n  event LogSetPriceLife(address indexed caller, uint256 second);\n  event LogSetMaxPriceDiff(address indexed caller, uint256 maxPriceDiff);\n  event LogSetPrimary(address indexed caller, address newFathomOracle, address primaryToken0, address primaryToken1);\n  event LogSetSecondary(\n    address indexed caller,\n    address newFathomOracle,\n    address secondaryToken0,\n    address secondaryToken1\n  );\n\n  /// @dev access: OWNER_ROLE\n  function setPriceLife(uint256 _second) external onlyOwner {\n    require(_second >= 1 hours && _second <= 1 days, \"StrictFathomOraclePriceFeed/bad-price-life\");\n    priceLife = _second;\n    emit LogSetPriceLife(msg.sender, _second);\n  }\n\n  /// @dev access: OWNER_ROLE\n  function setMaxPriceDiff(uint256 _maxPriceDiff) external onlyOwner {\n    maxPriceDiff = _maxPriceDiff;\n    emit LogSetMaxPriceDiff(msg.sender, _maxPriceDiff);\n  }\n\n  /// @dev access: OWNER_ROLE\n  function setPrimary(\n    address _primaryFathomOracle,\n    address _primaryToken0,\n    address _primaryToken1\n  ) external onlyOwner {\n    primary.fathomOracle = IFathomOracle(_primaryFathomOracle);\n    primary.token0 = _primaryToken0;\n    primary.token1 = _primaryToken1;\n    primary.fathomOracle.getPrice(primary.token0, primary.token1);\n    emit LogSetPrimary(msg.sender, _primaryFathomOracle, _primaryToken0, _primaryToken1);\n  }\n\n  /// @dev access: OWNER_ROLE\n  function setSecondary(\n    address _secondaryFathomOracle,\n    address _secondaryToken0,\n    address _secondaryToken1\n  ) external onlyOwner {\n    secondary.fathomOracle = IFathomOracle(_secondaryFathomOracle);\n    secondary.token0 = _secondaryToken0;\n    secondary.token1 = _secondaryToken1;\n    secondary.fathomOracle.getPrice(secondary.token0, secondary.token1);\n    emit LogSetSecondary(msg.sender, _secondaryFathomOracle, _secondaryToken0, _secondaryToken1);\n  }\n\n  /// @dev access: OWNER_ROLE, GOV_ROLE\n  function pause() external onlyOwnerOrGov {\n    _pause();\n  }\n\n  /// @dev access: OWNER_ROLE, GOV_ROLE\n  function unpause() external onlyOwnerOrGov {\n    _unpause();\n  }\n\n  function readPrice() external view override returns (bytes32) {\n    (uint256 price, ) = primary.fathomOracle.getPrice(primary.token0, primary.token1);\n    return bytes32(price);\n  }\n\n  function peekPrice() external view override returns (bytes32, bool) {\n    (uint256 primaryPrice, uint256 primaryLastUpdate) = primary.fathomOracle.getPrice(primary.token0, primary.token1);\n    (uint256 secondaryPrice, uint256 secondaryLastUpdate) = secondary.fathomOracle.getPrice(\n      secondary.token0,\n      secondary.token1\n    );\n\n    return (bytes32(primaryPrice), _isPriceOk(primaryPrice, secondaryPrice, primaryLastUpdate, secondaryLastUpdate));\n  }\n\n  function _isPriceOk(\n    uint256 primaryPrice,\n    uint256 secondaryPrice,\n    uint256 primaryLastUpdate,\n    uint256 secondaryLastUpdate\n  ) internal view returns (bool) {\n    return\n      _isPriceFresh(primaryLastUpdate, secondaryLastUpdate) &&\n      _isPriceStable(primaryPrice, secondaryPrice) &&\n      !paused();\n  }\n\n  function _isPriceFresh(uint256 primaryLastUpdate, uint256 secondaryLastUpdate) internal view returns (bool) {\n    // solhint-disable not-rely-on-time\n    return primaryLastUpdate >= block.timestamp - priceLife && secondaryLastUpdate >= block.timestamp - priceLife;\n  }\n\n  function _isPriceStable(uint256 primaryPrice, uint256 secondaryPrice) internal view returns (bool) {\n    return\n      // price must not too high\n      primaryPrice.mul(10000) <= secondaryPrice.mul(maxPriceDiff) &&\n      // price must not too low\n      primaryPrice.mul(maxPriceDiff) >= secondaryPrice.mul(10000);\n  }\n}\n",
  "sourcePath": "/Users/sangjun.lee/Sangjun/fathom-stablecoin-smart-contracts/contracts/8.17/price-feeders/StrictFathomOraclePriceFeed.sol",
  "compiler": {
    "name": "solc",
    "version": "0.8.17+commit.8df45f5f.Emscripten.clang"
  },
  "schemaVersion": "3.4.10",
  "updatedAt": "2022-11-24T09:45:49.228Z",
  "devdoc": {
    "kind": "dev",
    "methods": {
      "getRoleAdmin(bytes32)": {
        "details": "Returns the admin role that controls `role`. See {grantRole} and {revokeRole}. To change a role's admin, use {_setRoleAdmin}."
      },
      "grantRole(bytes32,address)": {
        "details": "Grants `role` to `account`. If `account` had not been already granted `role`, emits a {RoleGranted} event. Requirements: - the caller must have ``role``'s admin role. May emit a {RoleGranted} event."
      },
      "hasRole(bytes32,address)": {
        "details": "Returns `true` if `account` has been granted `role`."
      },
      "pause()": {
        "details": "access: OWNER_ROLE, GOV_ROLE"
      },
      "paused()": {
        "details": "Returns true if the contract is paused, and false otherwise."
      },
      "renounceRole(bytes32,address)": {
        "details": "Revokes `role` from the calling account. Roles are often managed via {grantRole} and {revokeRole}: this function's purpose is to provide a mechanism for accounts to lose their privileges if they are compromised (such as when a trusted device is misplaced). If the calling account had been revoked `role`, emits a {RoleRevoked} event. Requirements: - the caller must be `account`. May emit a {RoleRevoked} event."
      },
      "revokeRole(bytes32,address)": {
        "details": "Revokes `role` from `account`. If `account` had been granted `role`, emits a {RoleRevoked} event. Requirements: - the caller must have ``role``'s admin role. May emit a {RoleRevoked} event."
      },
      "setMaxPriceDiff(uint256)": {
        "details": "access: OWNER_ROLE"
      },
      "setPriceLife(uint256)": {
        "details": "access: OWNER_ROLE"
      },
      "setPrimary(address,address,address)": {
        "details": "access: OWNER_ROLE"
      },
      "setSecondary(address,address,address)": {
        "details": "access: OWNER_ROLE"
      },
      "supportsInterface(bytes4)": {
        "details": "See {IERC165-supportsInterface}."
      },
      "unpause()": {
        "details": "access: OWNER_ROLE, GOV_ROLE"
      }
    },
    "version": 1
  },
  "userdoc": {
    "kind": "user",
    "methods": {},
    "version": 1
  }
}