{
  "contractName": "TokenAdapter",
  "abi": [
    {
      "anonymous": false,
      "inputs": [
        {
          "indexed": false,
          "internalType": "uint8",
          "name": "version",
          "type": "uint8"
        }
      ],
      "name": "Initialized",
      "type": "event"
    },
    {
      "anonymous": false,
      "inputs": [],
      "name": "LogCage",
      "type": "event"
    },
    {
      "anonymous": false,
      "inputs": [],
      "name": "LogUncage",
      "type": "event"
    },
    {
      "anonymous": false,
      "inputs": [
        {
          "indexed": false,
          "internalType": "address",
          "name": "account",
          "type": "address"
        }
      ],
      "name": "Paused",
      "type": "event"
    },
    {
      "anonymous": false,
      "inputs": [
        {
          "indexed": false,
          "internalType": "address",
          "name": "account",
          "type": "address"
        }
      ],
      "name": "Unpaused",
      "type": "event"
    },
    {
      "inputs": [],
      "name": "bookKeeper",
      "outputs": [
        {
          "internalType": "contract IBookKeeper",
          "name": "",
          "type": "address"
        }
      ],
      "stateMutability": "view",
      "type": "function"
    },
    {
      "inputs": [],
      "name": "collateralPoolId",
      "outputs": [
        {
          "internalType": "bytes32",
          "name": "",
          "type": "bytes32"
        }
      ],
      "stateMutability": "view",
      "type": "function"
    },
    {
      "inputs": [],
      "name": "collateralToken",
      "outputs": [
        {
          "internalType": "address",
          "name": "",
          "type": "address"
        }
      ],
      "stateMutability": "view",
      "type": "function"
    },
    {
      "inputs": [],
      "name": "decimals",
      "outputs": [
        {
          "internalType": "uint256",
          "name": "",
          "type": "uint256"
        }
      ],
      "stateMutability": "view",
      "type": "function"
    },
    {
      "inputs": [],
      "name": "live",
      "outputs": [
        {
          "internalType": "uint256",
          "name": "",
          "type": "uint256"
        }
      ],
      "stateMutability": "view",
      "type": "function"
    },
    {
      "inputs": [],
      "name": "paused",
      "outputs": [
        {
          "internalType": "bool",
          "name": "",
          "type": "bool"
        }
      ],
      "stateMutability": "view",
      "type": "function"
    },
    {
      "inputs": [
        {
          "internalType": "address",
          "name": "_bookKeeper",
          "type": "address"
        },
        {
          "internalType": "bytes32",
          "name": "collateralPoolId_",
          "type": "bytes32"
        },
        {
          "internalType": "address",
          "name": "collateralToken_",
          "type": "address"
        }
      ],
      "name": "initialize",
      "outputs": [],
      "stateMutability": "nonpayable",
      "type": "function"
    },
    {
      "inputs": [],
      "name": "cage",
      "outputs": [],
      "stateMutability": "nonpayable",
      "type": "function"
    },
    {
      "inputs": [],
      "name": "uncage",
      "outputs": [],
      "stateMutability": "nonpayable",
      "type": "function"
    },
    {
      "inputs": [
        {
          "internalType": "address",
          "name": "usr",
          "type": "address"
        },
        {
          "internalType": "uint256",
          "name": "wad",
          "type": "uint256"
        },
        {
          "internalType": "bytes",
          "name": "",
          "type": "bytes"
        }
      ],
      "name": "deposit",
      "outputs": [],
      "stateMutability": "payable",
      "type": "function"
    },
    {
      "inputs": [
        {
          "internalType": "address",
          "name": "usr",
          "type": "address"
        },
        {
          "internalType": "uint256",
          "name": "wad",
          "type": "uint256"
        },
        {
          "internalType": "bytes",
          "name": "",
          "type": "bytes"
        }
      ],
      "name": "withdraw",
      "outputs": [],
      "stateMutability": "nonpayable",
      "type": "function"
    },
    {
      "inputs": [
        {
          "internalType": "address",
          "name": "src",
          "type": "address"
        },
        {
          "internalType": "address",
          "name": "dst",
          "type": "address"
        },
        {
          "internalType": "int256",
          "name": "collateralValue",
          "type": "int256"
        },
        {
          "internalType": "int256",
          "name": "debtShare",
          "type": "int256"
        },
        {
          "internalType": "bytes",
          "name": "data",
          "type": "bytes"
        }
      ],
      "name": "onAdjustPosition",
      "outputs": [],
      "stateMutability": "nonpayable",
      "type": "function"
    },
    {
      "inputs": [
        {
          "internalType": "address",
          "name": "src",
          "type": "address"
        },
        {
          "internalType": "address",
          "name": "dst",
          "type": "address"
        },
        {
          "internalType": "uint256",
          "name": "wad",
          "type": "uint256"
        },
        {
          "internalType": "bytes",
          "name": "data",
          "type": "bytes"
        }
      ],
      "name": "onMoveCollateral",
      "outputs": [],
      "stateMutability": "nonpayable",
      "type": "function"
    },
    {
      "inputs": [],
      "name": "pause",
      "outputs": [],
      "stateMutability": "nonpayable",
      "type": "function"
    },
    {
      "inputs": [],
      "name": "unpause",
      "outputs": [],
      "stateMutability": "nonpayable",
      "type": "function"
    }
  ],
  "bytecode": "0x608060405234801561001057600080fd5b506119c3806100206000396000f3fe6080604052600436106100e85760003560e01c8063957aa58c1161008a578063d63b23b211610059578063d63b23b21461023b578063dca07dc514610250578063e3b3932a14610266578063f77c40361461028657600080fd5b8063957aa58c146101ad57806399443616146101c3578063b2016bd4146101e3578063d26b3e6e1461021b57600080fd5b806349bdc2b8116100c657806349bdc2b81461014d5780635c975abb1461016057806369245009146101835780638456cb591461019857600080fd5b8063313ce567146100ed57806331f09265146101165780633f4ba83a14610138575b600080fd5b3480156100f957600080fd5b50610103609a5481565b6040519081526020015b60405180910390f35b34801561012257600080fd5b506101366101313660046116a3565b6102a6565b005b34801561014457600080fd5b506101366103d4565b61013661015b3660046116a3565b610649565b34801561016c57600080fd5b5060335460ff16604051901515815260200161010d565b34801561018f57600080fd5b50610136610795565b3480156101a457600080fd5b50610136610a80565b3480156101b957600080fd5b50610103609b5481565b3480156101cf57600080fd5b506101366101de3660046116ff565b610cf2565b3480156101ef57600080fd5b50609954610203906001600160a01b031681565b6040516001600160a01b03909116815260200161010d565b34801561022757600080fd5b50610136610236366004611772565b610d20565b34801561024757600080fd5b50610136610f2a565b34801561025c57600080fd5b5061010360985481565b34801561027257600080fd5b50609754610203906001600160a01b031681565b34801561029257600080fd5b506101366102a13660046117b4565b611214565b6002606554036102d15760405162461bcd60e51b81526004016102c890611830565b60405180910390fd5b60026065556102de611243565b600160ff1b83106103295760405162461bcd60e51b8152602060048201526015602482015274546f6b656e416461707465722f6f766572666c6f7760581b60448201526064016102c8565b6097546098546001600160a01b039091169063d295927a903361034b87611867565b6040516001600160e01b031960e086901b16815260048101939093526001600160a01b0390911660248301526044820152606401600060405180830381600087803b15801561039957600080fd5b505af11580156103ad573d6000803e3d6000fd5b50506099546103c992506001600160a01b03169050858561128b565b505060016065555050565b6097546040805163c8cc243f60e01b815290516000926001600160a01b03169163c8cc243f9160048083019260209291908290030181865afa15801561041e573d6000803e3d6000fd5b505050506040513d601f19601f820116820180604052508101906104429190611891565b9050806001600160a01b03166391d14854826001600160a01b031663e58378bb6040518163ffffffff1660e01b8152600401602060405180830381865afa158015610491573d6000803e3d6000fd5b505050506040513d601f19601f820116820180604052508101906104b591906118b5565b6040516001600160e01b031960e084901b1681526004810191909152336024820152604401602060405180830381865afa1580156104f7573d6000803e3d6000fd5b505050506040513d601f19601f8201168201806040525081019061051b91906118ce565b806105f85750806001600160a01b03166391d14854826001600160a01b031663b536818a6040518163ffffffff1660e01b8152600401602060405180830381865afa15801561056e573d6000803e3d6000fd5b505050506040513d601f19601f8201168201806040525081019061059291906118b5565b6040516001600160e01b031960e084901b1681526004810191909152336024820152604401602060405180830381865afa1580156105d4573d6000803e3d6000fd5b505050506040513d601f19601f820116820180604052508101906105f891906118ce565b61063e5760405162461bcd60e51b815260206004820152601760248201527621286f776e6572526f6c65206f7220676f76526f6c652960481b60448201526064016102c8565b610646611396565b50565b60026065540361066b5760405162461bcd60e51b81526004016102c890611830565b6002606555610678611243565b609b546001146106c25760405162461bcd60e51b8152602060048201526015602482015274546f6b656e416461707465722f6e6f742d6c69766560581b60448201526064016102c8565b600083121561070b5760405162461bcd60e51b8152602060048201526015602482015274546f6b656e416461707465722f6f766572666c6f7760581b60448201526064016102c8565b60975460985460405163694ac93d60e11b815260048101919091526001600160a01b038681166024830152604482018690529091169063d295927a90606401600060405180830381600087803b15801561076457600080fd5b505af1158015610778573d6000803e3d6000fd5b50506099546103c992506001600160a01b031690503330866113e8565b6097546040805163c8cc243f60e01b815290516000926001600160a01b03169163c8cc243f9160048083019260209291908290030181865afa1580156107df573d6000803e3d6000fd5b505050506040513d601f19601f820116820180604052508101906108039190611891565b9050806001600160a01b03166391d14854826001600160a01b031663e58378bb6040518163ffffffff1660e01b8152600401602060405180830381865afa158015610852573d6000803e3d6000fd5b505050506040513d601f19601f8201168201806040525081019061087691906118b5565b6040516001600160e01b031960e084901b1681526004810191909152336024820152604401602060405180830381865afa1580156108b8573d6000803e3d6000fd5b505050506040513d601f19601f820116820180604052508101906108dc91906118ce565b806109b95750806001600160a01b03166391d14854826001600160a01b031663d7a47a696040518163ffffffff1660e01b8152600401602060405180830381865afa15801561092f573d6000803e3d6000fd5b505050506040513d601f19601f8201168201806040525081019061095391906118b5565b6040516001600160e01b031960e084901b1681526004810191909152336024820152604401602060405180830381865afa158015610995573d6000803e3d6000fd5b505050506040513d601f19601f820116820180604052508101906109b991906118ce565b610a055760405162461bcd60e51b815260206004820152601f60248201527f21286f776e6572526f6c65206f722073686f7753746f70706572526f6c65290060448201526064016102c8565b609b54600114610a4f5760405162461bcd60e51b8152602060048201526015602482015274546f6b656e416461707465722f6e6f742d6c69766560581b60448201526064016102c8565b6000609b8190556040517fbf689b4aae670d200b1d2b971ace2e0c3bef88a9c5e93f36705c7b86eab630b99190a150565b6097546040805163c8cc243f60e01b815290516000926001600160a01b03169163c8cc243f9160048083019260209291908290030181865afa158015610aca573d6000803e3d6000fd5b505050506040513d601f19601f82011682018060405250810190610aee9190611891565b9050806001600160a01b03166391d14854826001600160a01b031663e58378bb6040518163ffffffff1660e01b8152600401602060405180830381865afa158015610b3d573d6000803e3d6000fd5b505050506040513d601f19601f82011682018060405250810190610b6191906118b5565b6040516001600160e01b031960e084901b1681526004810191909152336024820152604401602060405180830381865afa158015610ba3573d6000803e3d6000fd5b505050506040513d601f19601f82011682018060405250810190610bc791906118ce565b80610ca45750806001600160a01b03166391d14854826001600160a01b031663b536818a6040518163ffffffff1660e01b8152600401602060405180830381865afa158015610c1a573d6000803e3d6000fd5b505050506040513d601f19601f82011682018060405250810190610c3e91906118b5565b6040516001600160e01b031960e084901b1681526004810191909152336024820152604401602060405180830381865afa158015610c80573d6000803e3d6000fd5b505050506040513d601f19601f82011682018060405250810190610ca491906118ce565b610cea5760405162461bcd60e51b815260206004820152601760248201527621286f776e6572526f6c65206f7220676f76526f6c652960481b60448201526064016102c8565b610646611500565b600260655403610d145760405162461bcd60e51b81526004016102c890611830565b50506001606555505050565b600054610100900460ff1615808015610d405750600054600160ff909116105b80610d5a5750303b158015610d5a575060005460ff166001145b610dbd5760405162461bcd60e51b815260206004820152602e60248201527f496e697469616c697a61626c653a20636f6e747261637420697320616c72656160448201526d191e481a5b9a5d1a585b1a5e995960921b60648201526084016102c8565b6000805460ff191660011790558015610de0576000805461ff0019166101001790555b610de861153d565b610df061156c565b6001609b55609780546001600160a01b038087166001600160a01b03199283161790925560988590556099805492851692909116821790556040805163313ce56760e01b8152905163313ce567916004818101926020929091908290030181865afa158015610e63573d6000803e3d6000fd5b505050506040513d601f19601f82011682018060405250810190610e8791906118f0565b60ff16609a819055601214610ede5760405162461bcd60e51b815260206004820152601f60248201527f546f6b656e416461707465722f6261642d746f6b656e2d646563696d616c730060448201526064016102c8565b8015610f24576000805461ff0019169055604051600181527f7f26b83ff96e1f2b6a682f133852f6798a09c465da95921460cefb38474024989060200160405180910390a15b50505050565b6097546040805163c8cc243f60e01b815290516000926001600160a01b03169163c8cc243f9160048083019260209291908290030181865afa158015610f74573d6000803e3d6000fd5b505050506040513d601f19601f82011682018060405250810190610f989190611891565b9050806001600160a01b03166391d14854826001600160a01b031663e58378bb6040518163ffffffff1660e01b8152600401602060405180830381865afa158015610fe7573d6000803e3d6000fd5b505050506040513d601f19601f8201168201806040525081019061100b91906118b5565b6040516001600160e01b031960e084901b1681526004810191909152336024820152604401602060405180830381865afa15801561104d573d6000803e3d6000fd5b505050506040513d601f19601f8201168201806040525081019061107191906118ce565b8061114e5750806001600160a01b03166391d14854826001600160a01b031663d7a47a696040518163ffffffff1660e01b8152600401602060405180830381865afa1580156110c4573d6000803e3d6000fd5b505050506040513d601f19601f820116820180604052508101906110e891906118b5565b6040516001600160e01b031960e084901b1681526004810191909152336024820152604401602060405180830381865afa15801561112a573d6000803e3d6000fd5b505050506040513d601f19601f8201168201806040525081019061114e91906118ce565b61119a5760405162461bcd60e51b815260206004820152601f60248201527f21286f776e6572526f6c65206f722073686f7753746f70706572526f6c65290060448201526064016102c8565b609b54156111e35760405162461bcd60e51b8152602060048201526016602482015275151bdad95b9059185c1d195c8bdb9bdd0b58d859d95960521b60448201526064016102c8565b6001609b556040517f1868a6ced217213f36be87ba9aee25cde5381b42e85c8f88e73b18772c0bd07390600090a150565b6002606554036112365760405162461bcd60e51b81526004016102c890611830565b5050600160655550505050565b60335460ff16156112895760405162461bcd60e51b815260206004820152601060248201526f14185d5cd8589b194e881c185d5cd95960821b60448201526064016102c8565b565b604080516001600160a01b038481166024830152604480830185905283518084039091018152606490920183526020820180516001600160e01b031663a9059cbb60e01b17905291516000928392908716916112e79190611913565b6000604051808303816000865af19150503d8060008114611324576040519150601f19603f3d011682016040523d82523d6000602084013e611329565b606091505b509150915081801561135357508051158061135357508080602001905181019061135391906118ce565b61138f5760405162461bcd60e51b815260206004820152600d60248201526c10b9b0b332aa3930b739b332b960991b60448201526064016102c8565b5050505050565b61139e61159b565b6033805460ff191690557f5db9ee0a495bf2e6ff9c91a7834c1ba4fdd244a5e8aa4e537bd38aeae4b073aa335b6040516001600160a01b03909116815260200160405180910390a1565b604080516001600160a01b0385811660248301528481166044830152606480830185905283518084039091018152608490920183526020820180516001600160e01b03166323b872dd60e01b179052915160009283929088169161144c9190611913565b6000604051808303816000865af19150503d8060008114611489576040519150601f19603f3d011682016040523d82523d6000602084013e61148e565b606091505b50915091508180156114b85750805115806114b85750808060200190518101906114b891906118ce565b6114f85760405162461bcd60e51b815260206004820152601160248201527021736166655472616e7366657246726f6d60781b60448201526064016102c8565b505050505050565b611508611243565b6033805460ff191660011790557f62e78cea01bee320cd4e420270b5ea74000d11b0c9f74754ebdbfc544b05a2586113cb3390565b600054610100900460ff166115645760405162461bcd60e51b81526004016102c890611942565b6112896115e4565b600054610100900460ff166115935760405162461bcd60e51b81526004016102c890611942565b611289611617565b60335460ff166112895760405162461bcd60e51b815260206004820152601460248201527314185d5cd8589b194e881b9bdd081c185d5cd95960621b60448201526064016102c8565b600054610100900460ff1661160b5760405162461bcd60e51b81526004016102c890611942565b6033805460ff19169055565b600054610100900460ff1661163e5760405162461bcd60e51b81526004016102c890611942565b6001606555565b6001600160a01b038116811461064657600080fd5b60008083601f84011261166c57600080fd5b50813567ffffffffffffffff81111561168457600080fd5b60208301915083602082850101111561169c57600080fd5b9250929050565b600080600080606085870312156116b957600080fd5b84356116c481611645565b935060208501359250604085013567ffffffffffffffff8111156116e757600080fd5b6116f38782880161165a565b95989497509550505050565b60008060008060006080868803121561171757600080fd5b853561172281611645565b9450602086013561173281611645565b935060408601359250606086013567ffffffffffffffff81111561175557600080fd5b6117618882890161165a565b969995985093965092949392505050565b60008060006060848603121561178757600080fd5b833561179281611645565b92506020840135915060408401356117a981611645565b809150509250925092565b60008060008060008060a087890312156117cd57600080fd5b86356117d881611645565b955060208701356117e881611645565b94506040870135935060608701359250608087013567ffffffffffffffff81111561181257600080fd5b61181e89828a0161165a565b979a9699509497509295939492505050565b6020808252601f908201527f5265656e7472616e637947756172643a207265656e7472616e742063616c6c00604082015260600190565b6000600160ff1b820161188a57634e487b7160e01b600052601160045260246000fd5b5060000390565b6000602082840312156118a357600080fd5b81516118ae81611645565b9392505050565b6000602082840312156118c757600080fd5b5051919050565b6000602082840312156118e057600080fd5b815180151581146118ae57600080fd5b60006020828403121561190257600080fd5b815160ff811681146118ae57600080fd5b6000825160005b81811015611934576020818601810151858301520161191a565b506000920191825250919050565b6020808252602b908201527f496e697469616c697a61626c653a20636f6e7472616374206973206e6f74206960408201526a6e697469616c697a696e6760a81b60608201526080019056fea26469706673582212203caad5224d78bdb72adc1c9af0ab281a6b330b0fd26a9383d9f4c97d327d240c64736f6c63430008110033",
  "immutableReferences": {},
  "source": "// SPDX-License-Identifier: AGPL-3.0-or-later\n\npragma solidity 0.8.17;\n\nimport \"@openzeppelin/contracts-upgradeable/security/PausableUpgradeable.sol\";\nimport \"@openzeppelin/contracts-upgradeable/access/AccessControlUpgradeable.sol\";\nimport \"@openzeppelin/contracts-upgradeable/security/ReentrancyGuardUpgradeable.sol\";\n\nimport \"../../interfaces/IBookKeeper.sol\";\nimport \"../../interfaces/IToken.sol\";\nimport \"../../interfaces/IGenericTokenAdapter.sol\";\nimport \"../../interfaces/ICagable.sol\";\nimport \"../../utils/SafeToken.sol\";\n\n/*\n    Here we provide *adapters* to connect the BookKeeper to arbitrary external\n    token implementations, creating a bounded context for the BookKeeper. The\n    adapters here are provided as working examples:\n\n      - `TokenAdapter`: For well behaved ERC20 tokens, with simple transfer\n                   semantics.\n\n      - `StablecoinAdapter`: For connecting internal Fathom Stablecoin balances to an external\n                   `FathomStablecoin` implementation.\n\n    In practice, adapter implementations will be varied and specific to\n    individual collateral types, accounting for different transfer\n    semantics and token standards.\n\n    Adapters need to implement two basic methods:\n\n      - `deposit`: enter token into the system\n      - `withdraw`: remove token from the system\n\n*/\n\ncontract TokenAdapter is PausableUpgradeable, ReentrancyGuardUpgradeable, IGenericTokenAdapter, ICagable {\n  using SafeToken for address;\n\n  modifier onlyOwner() {\n    IAccessControlConfig _accessControlConfig = IAccessControlConfig(bookKeeper.accessControlConfig());\n    require(_accessControlConfig.hasRole(_accessControlConfig.OWNER_ROLE(), msg.sender), \"!ownerRole\");\n    _;\n  }\n\n  modifier onlyOwnerOrGov() {\n    IAccessControlConfig _accessControlConfig = IAccessControlConfig(IBookKeeper(bookKeeper).accessControlConfig());\n    require(\n      _accessControlConfig.hasRole(_accessControlConfig.OWNER_ROLE(), msg.sender) ||\n        _accessControlConfig.hasRole(_accessControlConfig.GOV_ROLE(), msg.sender),\n      \"!(ownerRole or govRole)\"\n    );\n    _;\n  }\n\n  modifier onlyOwnerOrShowStopper() {\n    IAccessControlConfig _accessControlConfig = IAccessControlConfig(IBookKeeper(bookKeeper).accessControlConfig());\n    require(\n      _accessControlConfig.hasRole(_accessControlConfig.OWNER_ROLE(), msg.sender) ||\n        _accessControlConfig.hasRole(_accessControlConfig.SHOW_STOPPER_ROLE(), msg.sender),\n      \"!(ownerRole or showStopperRole)\"\n    );\n    _;\n  }\n\n  IBookKeeper public bookKeeper; // CDP Engine\n  bytes32 public override collateralPoolId; // Collateral Type\n  address public override collateralToken;\n  uint256 public override decimals;\n  uint256 public live; // Active Flag\n\n  function initialize(\n    address _bookKeeper,\n    bytes32 collateralPoolId_,\n    address collateralToken_\n  ) external initializer {\n    PausableUpgradeable.__Pausable_init();\n    ReentrancyGuardUpgradeable.__ReentrancyGuard_init();\n\n    live = 1;\n    bookKeeper = IBookKeeper(_bookKeeper);\n    collateralPoolId = collateralPoolId_;\n    collateralToken = collateralToken_;\n    decimals = IToken(collateralToken).decimals();\n    require(decimals == 18, \"TokenAdapter/bad-token-decimals\");\n  }\n\n  /// @dev access: OWNER_ROLE, SHOW_STOPPER_ROLE\n  function cage() external override onlyOwnerOrShowStopper {\n    require(live == 1, \"TokenAdapter/not-live\");\n    live = 0;\n    emit LogCage();\n  }\n\n  /// @dev access: OWNER_ROLE, SHOW_STOPPER_ROLE\n  function uncage() external override onlyOwnerOrShowStopper {\n    require(live == 0, \"TokenAdapter/not-caged\");\n    live = 1;\n    emit LogUncage();\n  }\n\n  /// @dev Deposit token into the system from the caller to be used as collateral\n  /// @param usr The source address which is holding the collateral token\n  /// @param wad The amount of collateral to be deposited [wad]\n  function deposit(\n    address usr,\n    uint256 wad,\n    bytes calldata /* data */\n  ) external payable override nonReentrant whenNotPaused {\n    require(live == 1, \"TokenAdapter/not-live\");\n    require(int256(wad) >= 0, \"TokenAdapter/overflow\");\n    bookKeeper.addCollateral(collateralPoolId, usr, int256(wad));\n\n    // Move the actual token\n    address(collateralToken).safeTransferFrom(msg.sender, address(this), wad);\n  }\n\n  /// @dev Withdraw token from the system to the caller\n  /// @param usr The destination address to receive collateral token\n  /// @param wad The amount of collateral to be withdrawn [wad]\n  function withdraw(\n    address usr,\n    uint256 wad,\n    bytes calldata /* data */\n  ) external override nonReentrant whenNotPaused {\n    require(wad < 2**255, \"TokenAdapter/overflow\");\n    bookKeeper.addCollateral(collateralPoolId, msg.sender, -int256(wad));\n\n    // Move the actual token\n    address(collateralToken).safeTransfer(usr, wad);\n  }\n\n  function onAdjustPosition(\n    address src,\n    address dst,\n    int256 collateralValue,\n    int256 debtShare,\n    bytes calldata data\n  ) external override nonReentrant {}\n\n  function onMoveCollateral(\n    address src,\n    address dst,\n    uint256 wad,\n    bytes calldata data\n  ) external override nonReentrant {}\n\n  // --- pause ---\n  /// @dev access: OWNER_ROLE, GOV_ROLE/// @dev access: OWNER_ROLE, GOV_ROLE\n  function pause() external onlyOwnerOrGov {\n    _pause();\n  }\n\n  /// @dev access: OWNER_ROLE, GOV_ROLE\n  function unpause() external onlyOwnerOrGov {\n    _unpause();\n  }\n}\n",
  "sourcePath": "/Users/sangjun.lee/Sangjun/fathom-stablecoin-smart-contracts/contracts/8.17/stablecoin-core/adapters/TokenAdapter.sol",
  "compiler": {
    "name": "solc",
    "version": "0.8.17+commit.8df45f5f.Emscripten.clang"
  },
  "schemaVersion": "3.4.10",
  "updatedAt": "2022-10-28T11:53:17.940Z",
  "devdoc": {
    "kind": "dev",
    "methods": {
      "cage()": {
        "details": "access: OWNER_ROLE, SHOW_STOPPER_ROLE"
      },
      "deposit(address,uint256,bytes)": {
        "details": "Deposit token into the system from the caller to be used as collateral",
        "params": {
          "usr": "The source address which is holding the collateral token",
          "wad": "The amount of collateral to be deposited [wad]"
        }
      },
      "pause()": {
        "details": "access: OWNER_ROLE, GOV_ROLE/// @dev access: OWNER_ROLE, GOV_ROLE"
      },
      "paused()": {
        "details": "Returns true if the contract is paused, and false otherwise."
      },
      "uncage()": {
        "details": "access: OWNER_ROLE, SHOW_STOPPER_ROLE"
      },
      "unpause()": {
        "details": "access: OWNER_ROLE, GOV_ROLE"
      },
      "withdraw(address,uint256,bytes)": {
        "details": "Withdraw token from the system to the caller",
        "params": {
          "usr": "The destination address to receive collateral token",
          "wad": "The amount of collateral to be withdrawn [wad]"
        }
      }
    },
    "version": 1
  },
  "userdoc": {
    "kind": "user",
    "methods": {},
    "version": 1
  }
}