{
  "contractName": "TokenAdapter",
  "abi": [
    {
      "anonymous": false,
      "inputs": [
        {
          "indexed": false,
          "internalType": "uint8",
          "name": "version",
          "type": "uint8"
        }
      ],
      "name": "Initialized",
      "type": "event"
    },
    {
      "anonymous": false,
      "inputs": [],
      "name": "LogCage",
      "type": "event"
    },
    {
      "anonymous": false,
      "inputs": [],
      "name": "LogUncage",
      "type": "event"
    },
    {
      "anonymous": false,
      "inputs": [
        {
          "indexed": false,
          "internalType": "address",
          "name": "account",
          "type": "address"
        }
      ],
      "name": "Paused",
      "type": "event"
    },
    {
      "anonymous": false,
      "inputs": [
        {
          "indexed": false,
          "internalType": "address",
          "name": "account",
          "type": "address"
        }
      ],
      "name": "Unpaused",
      "type": "event"
    },
    {
      "inputs": [],
      "name": "bookKeeper",
      "outputs": [
        {
          "internalType": "contract IBookKeeper",
          "name": "",
          "type": "address"
        }
      ],
      "stateMutability": "view",
      "type": "function"
    },
    {
      "inputs": [],
      "name": "collateralPoolId",
      "outputs": [
        {
          "internalType": "bytes32",
          "name": "",
          "type": "bytes32"
        }
      ],
      "stateMutability": "view",
      "type": "function"
    },
    {
      "inputs": [],
      "name": "collateralToken",
      "outputs": [
        {
          "internalType": "address",
          "name": "",
          "type": "address"
        }
      ],
      "stateMutability": "view",
      "type": "function"
    },
    {
      "inputs": [],
      "name": "decimals",
      "outputs": [
        {
          "internalType": "uint256",
          "name": "",
          "type": "uint256"
        }
      ],
      "stateMutability": "view",
      "type": "function"
    },
    {
      "inputs": [],
      "name": "live",
      "outputs": [
        {
          "internalType": "uint256",
          "name": "",
          "type": "uint256"
        }
      ],
      "stateMutability": "view",
      "type": "function"
    },
    {
      "inputs": [],
      "name": "paused",
      "outputs": [
        {
          "internalType": "bool",
          "name": "",
          "type": "bool"
        }
      ],
      "stateMutability": "view",
      "type": "function"
    },
    {
      "inputs": [
        {
          "internalType": "address",
          "name": "_bookKeeper",
          "type": "address"
        },
        {
          "internalType": "bytes32",
          "name": "collateralPoolId_",
          "type": "bytes32"
        },
        {
          "internalType": "address",
          "name": "collateralToken_",
          "type": "address"
        }
      ],
      "name": "initialize",
      "outputs": [],
      "stateMutability": "nonpayable",
      "type": "function"
    },
    {
      "inputs": [],
      "name": "cage",
      "outputs": [],
      "stateMutability": "nonpayable",
      "type": "function"
    },
    {
      "inputs": [],
      "name": "uncage",
      "outputs": [],
      "stateMutability": "nonpayable",
      "type": "function"
    },
    {
      "inputs": [
        {
          "internalType": "address",
          "name": "usr",
          "type": "address"
        },
        {
          "internalType": "uint256",
          "name": "wad",
          "type": "uint256"
        },
        {
          "internalType": "bytes",
          "name": "",
          "type": "bytes"
        }
      ],
      "name": "deposit",
      "outputs": [],
      "stateMutability": "payable",
      "type": "function"
    },
    {
      "inputs": [
        {
          "internalType": "address",
          "name": "usr",
          "type": "address"
        },
        {
          "internalType": "uint256",
          "name": "wad",
          "type": "uint256"
        },
        {
          "internalType": "bytes",
          "name": "",
          "type": "bytes"
        }
      ],
      "name": "withdraw",
      "outputs": [],
      "stateMutability": "nonpayable",
      "type": "function"
    },
    {
      "inputs": [
        {
          "internalType": "address",
          "name": "src",
          "type": "address"
        },
        {
          "internalType": "address",
          "name": "dst",
          "type": "address"
        },
        {
          "internalType": "int256",
          "name": "collateralValue",
          "type": "int256"
        },
        {
          "internalType": "int256",
          "name": "debtShare",
          "type": "int256"
        },
        {
          "internalType": "bytes",
          "name": "data",
          "type": "bytes"
        }
      ],
      "name": "onAdjustPosition",
      "outputs": [],
      "stateMutability": "nonpayable",
      "type": "function"
    },
    {
      "inputs": [
        {
          "internalType": "address",
          "name": "src",
          "type": "address"
        },
        {
          "internalType": "address",
          "name": "dst",
          "type": "address"
        },
        {
          "internalType": "uint256",
          "name": "wad",
          "type": "uint256"
        },
        {
          "internalType": "bytes",
          "name": "data",
          "type": "bytes"
        }
      ],
      "name": "onMoveCollateral",
      "outputs": [],
      "stateMutability": "nonpayable",
      "type": "function"
    },
    {
      "inputs": [],
      "name": "pause",
      "outputs": [],
      "stateMutability": "nonpayable",
      "type": "function"
    },
    {
      "inputs": [],
      "name": "unpause",
      "outputs": [],
      "stateMutability": "nonpayable",
      "type": "function"
    }
  ],
  "bytecode": "0x608060405234801561001057600080fd5b5061196e806100206000396000f3fe6080604052600436106100e85760003560e01c8063957aa58c1161008a578063d63b23b211610059578063d63b23b21461023b578063dca07dc514610250578063e3b3932a14610266578063f77c40361461028657600080fd5b8063957aa58c146101ad57806399443616146101c3578063b2016bd4146101e3578063d26b3e6e1461021b57600080fd5b806349bdc2b8116100c657806349bdc2b81461014d5780635c975abb1461016057806369245009146101835780638456cb591461019857600080fd5b8063313ce567146100ed57806331f09265146101165780633f4ba83a14610138575b600080fd5b3480156100f957600080fd5b50610103609a5481565b6040519081526020015b60405180910390f35b34801561012257600080fd5b50610136610131366004611685565b6102a6565b005b34801561014457600080fd5b506101366103b6565b61013661015b366004611685565b61062b565b34801561016c57600080fd5b5060335460ff16604051901515815260200161010d565b34801561018f57600080fd5b50610136610758565b3480156101a457600080fd5b50610136610a43565b3480156101b957600080fd5b50610103609b5481565b3480156101cf57600080fd5b506101366101de3660046116e1565b610cb5565b3480156101ef57600080fd5b50609954610203906001600160a01b031681565b6040516001600160a01b03909116815260200161010d565b34801561022757600080fd5b50610136610236366004611754565b610cce565b34801561024757600080fd5b50610136610ed7565b34801561025c57600080fd5b5061010360985481565b34801561027257600080fd5b50609754610203906001600160a01b031681565b34801561029257600080fd5b506101366102a1366004611796565b6111c1565b6102ae6111db565b6102b6611234565b600160ff1b83106103065760405162461bcd60e51b8152602060048201526015602482015274546f6b656e416461707465722f6f766572666c6f7760581b60448201526064015b60405180910390fd5b6097546098546001600160a01b039091169063d295927a903361032887611812565b6040516001600160e01b031960e086901b16815260048101939093526001600160a01b0390911660248301526044820152606401600060405180830381600087803b15801561037657600080fd5b505af115801561038a573d6000803e3d6000fd5b50506099546103a692506001600160a01b03169050858561127c565b6103b06001606555565b50505050565b6097546040805163c8cc243f60e01b815290516000926001600160a01b03169163c8cc243f9160048083019260209291908290030181865afa158015610400573d6000803e3d6000fd5b505050506040513d601f19601f82011682018060405250810190610424919061183c565b9050806001600160a01b03166391d14854826001600160a01b031663e58378bb6040518163ffffffff1660e01b8152600401602060405180830381865afa158015610473573d6000803e3d6000fd5b505050506040513d601f19601f820116820180604052508101906104979190611860565b6040516001600160e01b031960e084901b1681526004810191909152336024820152604401602060405180830381865afa1580156104d9573d6000803e3d6000fd5b505050506040513d601f19601f820116820180604052508101906104fd9190611879565b806105da5750806001600160a01b03166391d14854826001600160a01b031663b536818a6040518163ffffffff1660e01b8152600401602060405180830381865afa158015610550573d6000803e3d6000fd5b505050506040513d601f19601f820116820180604052508101906105749190611860565b6040516001600160e01b031960e084901b1681526004810191909152336024820152604401602060405180830381865afa1580156105b6573d6000803e3d6000fd5b505050506040513d601f19601f820116820180604052508101906105da9190611879565b6106205760405162461bcd60e51b815260206004820152601760248201527621286f776e6572526f6c65206f7220676f76526f6c652960481b60448201526064016102fd565b610628611387565b50565b6106336111db565b61063b611234565b609b546001146106855760405162461bcd60e51b8152602060048201526015602482015274546f6b656e416461707465722f6e6f742d6c69766560581b60448201526064016102fd565b60008312156106ce5760405162461bcd60e51b8152602060048201526015602482015274546f6b656e416461707465722f6f766572666c6f7760581b60448201526064016102fd565b60975460985460405163694ac93d60e11b815260048101919091526001600160a01b038681166024830152604482018690529091169063d295927a90606401600060405180830381600087803b15801561072757600080fd5b505af115801561073b573d6000803e3d6000fd5b50506099546103a692506001600160a01b031690503330866113d9565b6097546040805163c8cc243f60e01b815290516000926001600160a01b03169163c8cc243f9160048083019260209291908290030181865afa1580156107a2573d6000803e3d6000fd5b505050506040513d601f19601f820116820180604052508101906107c6919061183c565b9050806001600160a01b03166391d14854826001600160a01b031663e58378bb6040518163ffffffff1660e01b8152600401602060405180830381865afa158015610815573d6000803e3d6000fd5b505050506040513d601f19601f820116820180604052508101906108399190611860565b6040516001600160e01b031960e084901b1681526004810191909152336024820152604401602060405180830381865afa15801561087b573d6000803e3d6000fd5b505050506040513d601f19601f8201168201806040525081019061089f9190611879565b8061097c5750806001600160a01b03166391d14854826001600160a01b031663d7a47a696040518163ffffffff1660e01b8152600401602060405180830381865afa1580156108f2573d6000803e3d6000fd5b505050506040513d601f19601f820116820180604052508101906109169190611860565b6040516001600160e01b031960e084901b1681526004810191909152336024820152604401602060405180830381865afa158015610958573d6000803e3d6000fd5b505050506040513d601f19601f8201168201806040525081019061097c9190611879565b6109c85760405162461bcd60e51b815260206004820152601f60248201527f21286f776e6572526f6c65206f722073686f7753746f70706572526f6c65290060448201526064016102fd565b609b54600114610a125760405162461bcd60e51b8152602060048201526015602482015274546f6b656e416461707465722f6e6f742d6c69766560581b60448201526064016102fd565b6000609b8190556040517fbf689b4aae670d200b1d2b971ace2e0c3bef88a9c5e93f36705c7b86eab630b99190a150565b6097546040805163c8cc243f60e01b815290516000926001600160a01b03169163c8cc243f9160048083019260209291908290030181865afa158015610a8d573d6000803e3d6000fd5b505050506040513d601f19601f82011682018060405250810190610ab1919061183c565b9050806001600160a01b03166391d14854826001600160a01b031663e58378bb6040518163ffffffff1660e01b8152600401602060405180830381865afa158015610b00573d6000803e3d6000fd5b505050506040513d601f19601f82011682018060405250810190610b249190611860565b6040516001600160e01b031960e084901b1681526004810191909152336024820152604401602060405180830381865afa158015610b66573d6000803e3d6000fd5b505050506040513d601f19601f82011682018060405250810190610b8a9190611879565b80610c675750806001600160a01b03166391d14854826001600160a01b031663b536818a6040518163ffffffff1660e01b8152600401602060405180830381865afa158015610bdd573d6000803e3d6000fd5b505050506040513d601f19601f82011682018060405250810190610c019190611860565b6040516001600160e01b031960e084901b1681526004810191909152336024820152604401602060405180830381865afa158015610c43573d6000803e3d6000fd5b505050506040513d601f19601f82011682018060405250810190610c679190611879565b610cad5760405162461bcd60e51b815260206004820152601760248201527621286f776e6572526f6c65206f7220676f76526f6c652960481b60448201526064016102fd565b6106286114e9565b610cbd6111db565b610cc76001606555565b5050505050565b600054610100900460ff1615808015610cee5750600054600160ff909116105b80610d085750303b158015610d08575060005460ff166001145b610d6b5760405162461bcd60e51b815260206004820152602e60248201527f496e697469616c697a61626c653a20636f6e747261637420697320616c72656160448201526d191e481a5b9a5d1a585b1a5e995960921b60648201526084016102fd565b6000805460ff191660011790558015610d8e576000805461ff0019166101001790555b610d96611526565b610d9e611555565b6001609b55609780546001600160a01b038087166001600160a01b03199283161790925560988590556099805492851692909116821790556040805163313ce56760e01b8152905163313ce567916004818101926020929091908290030181865afa158015610e11573d6000803e3d6000fd5b505050506040513d601f19601f82011682018060405250810190610e35919061189b565b60ff16609a819055601214610e8c5760405162461bcd60e51b815260206004820152601f60248201527f546f6b656e416461707465722f6261642d746f6b656e2d646563696d616c730060448201526064016102fd565b80156103b0576000805461ff0019169055604051600181527f7f26b83ff96e1f2b6a682f133852f6798a09c465da95921460cefb38474024989060200160405180910390a150505050565b6097546040805163c8cc243f60e01b815290516000926001600160a01b03169163c8cc243f9160048083019260209291908290030181865afa158015610f21573d6000803e3d6000fd5b505050506040513d601f19601f82011682018060405250810190610f45919061183c565b9050806001600160a01b03166391d14854826001600160a01b031663e58378bb6040518163ffffffff1660e01b8152600401602060405180830381865afa158015610f94573d6000803e3d6000fd5b505050506040513d601f19601f82011682018060405250810190610fb89190611860565b6040516001600160e01b031960e084901b1681526004810191909152336024820152604401602060405180830381865afa158015610ffa573d6000803e3d6000fd5b505050506040513d601f19601f8201168201806040525081019061101e9190611879565b806110fb5750806001600160a01b03166391d14854826001600160a01b031663d7a47a696040518163ffffffff1660e01b8152600401602060405180830381865afa158015611071573d6000803e3d6000fd5b505050506040513d601f19601f820116820180604052508101906110959190611860565b6040516001600160e01b031960e084901b1681526004810191909152336024820152604401602060405180830381865afa1580156110d7573d6000803e3d6000fd5b505050506040513d601f19601f820116820180604052508101906110fb9190611879565b6111475760405162461bcd60e51b815260206004820152601f60248201527f21286f776e6572526f6c65206f722073686f7753746f70706572526f6c65290060448201526064016102fd565b609b54156111905760405162461bcd60e51b8152602060048201526016602482015275151bdad95b9059185c1d195c8bdb9bdd0b58d859d95960521b60448201526064016102fd565b6001609b556040517f1868a6ced217213f36be87ba9aee25cde5381b42e85c8f88e73b18772c0bd07390600090a150565b6111c96111db565b6111d36001606555565b505050505050565b60026065540361122d5760405162461bcd60e51b815260206004820152601f60248201527f5265656e7472616e637947756172643a207265656e7472616e742063616c6c0060448201526064016102fd565b6002606555565b60335460ff161561127a5760405162461bcd60e51b815260206004820152601060248201526f14185d5cd8589b194e881c185d5cd95960821b60448201526064016102fd565b565b604080516001600160a01b038481166024830152604480830185905283518084039091018152606490920183526020820180516001600160e01b031663a9059cbb60e01b17905291516000928392908716916112d891906118be565b6000604051808303816000865af19150503d8060008114611315576040519150601f19603f3d011682016040523d82523d6000602084013e61131a565b606091505b50915091508180156113445750805115806113445750808060200190518101906113449190611879565b610cc75760405162461bcd60e51b815260206004820152600d60248201526c10b9b0b332aa3930b739b332b960991b60448201526064016102fd565b6001606555565b61138f611584565b6033805460ff191690557f5db9ee0a495bf2e6ff9c91a7834c1ba4fdd244a5e8aa4e537bd38aeae4b073aa335b6040516001600160a01b03909116815260200160405180910390a1565b604080516001600160a01b0385811660248301528481166044830152606480830185905283518084039091018152608490920183526020820180516001600160e01b03166323b872dd60e01b179052915160009283929088169161143d91906118be565b6000604051808303816000865af19150503d806000811461147a576040519150601f19603f3d011682016040523d82523d6000602084013e61147f565b606091505b50915091508180156114a95750805115806114a95750808060200190518101906114a99190611879565b6111d35760405162461bcd60e51b815260206004820152601160248201527021736166655472616e7366657246726f6d60781b60448201526064016102fd565b6114f1611234565b6033805460ff191660011790557f62e78cea01bee320cd4e420270b5ea74000d11b0c9f74754ebdbfc544b05a2586113bc3390565b600054610100900460ff1661154d5760405162461bcd60e51b81526004016102fd906118ed565b61127a6115cd565b600054610100900460ff1661157c5760405162461bcd60e51b81526004016102fd906118ed565b61127a611600565b60335460ff1661127a5760405162461bcd60e51b815260206004820152601460248201527314185d5cd8589b194e881b9bdd081c185d5cd95960621b60448201526064016102fd565b600054610100900460ff166115f45760405162461bcd60e51b81526004016102fd906118ed565b6033805460ff19169055565b600054610100900460ff166113805760405162461bcd60e51b81526004016102fd906118ed565b6001600160a01b038116811461062857600080fd5b60008083601f84011261164e57600080fd5b50813567ffffffffffffffff81111561166657600080fd5b60208301915083602082850101111561167e57600080fd5b9250929050565b6000806000806060858703121561169b57600080fd5b84356116a681611627565b935060208501359250604085013567ffffffffffffffff8111156116c957600080fd5b6116d58782880161163c565b95989497509550505050565b6000806000806000608086880312156116f957600080fd5b853561170481611627565b9450602086013561171481611627565b935060408601359250606086013567ffffffffffffffff81111561173757600080fd5b6117438882890161163c565b969995985093965092949392505050565b60008060006060848603121561176957600080fd5b833561177481611627565b925060208401359150604084013561178b81611627565b809150509250925092565b60008060008060008060a087890312156117af57600080fd5b86356117ba81611627565b955060208701356117ca81611627565b94506040870135935060608701359250608087013567ffffffffffffffff8111156117f457600080fd5b61180089828a0161163c565b979a9699509497509295939492505050565b6000600160ff1b820161183557634e487b7160e01b600052601160045260246000fd5b5060000390565b60006020828403121561184e57600080fd5b815161185981611627565b9392505050565b60006020828403121561187257600080fd5b5051919050565b60006020828403121561188b57600080fd5b8151801515811461185957600080fd5b6000602082840312156118ad57600080fd5b815160ff8116811461185957600080fd5b6000825160005b818110156118df57602081860181015185830152016118c5565b506000920191825250919050565b6020808252602b908201527f496e697469616c697a61626c653a20636f6e7472616374206973206e6f74206960408201526a6e697469616c697a696e6760a81b60608201526080019056fea2646970667358221220f97e2b321894f44fbfc8e7d272162a9711264ca953da72b0a513cde85483bff064736f6c63430008110033",
  "immutableReferences": {},
  "source": "// SPDX-License-Identifier: AGPL-3.0-or-later\n\npragma solidity 0.8.17;\n\nimport \"@openzeppelin/contracts-upgradeable/security/PausableUpgradeable.sol\";\nimport \"@openzeppelin/contracts-upgradeable/access/AccessControlUpgradeable.sol\";\nimport \"@openzeppelin/contracts-upgradeable/security/ReentrancyGuardUpgradeable.sol\";\n\nimport \"../../interfaces/IBookKeeper.sol\";\nimport \"../../interfaces/IToken.sol\";\nimport \"../../interfaces/IGenericTokenAdapter.sol\";\nimport \"../../interfaces/ICagable.sol\";\nimport \"../../utils/SafeToken.sol\";\n\n/*\n    Here we provide *adapters* to connect the BookKeeper to arbitrary external\n    token implementations, creating a bounded context for the BookKeeper. The\n    adapters here are provided as working examples:\n\n      - `TokenAdapter`: For well behaved ERC20 tokens, with simple transfer\n                   semantics.\n\n      - `StablecoinAdapter`: For connecting internal Fathom Stablecoin balances to an external\n                   `FathomStablecoin` implementation.\n\n    In practice, adapter implementations will be varied and specific to\n    individual collateral types, accounting for different transfer\n    semantics and token standards.\n\n    Adapters need to implement two basic methods:\n\n      - `deposit`: enter token into the system\n      - `withdraw`: remove token from the system\n\n*/\n\ncontract TokenAdapter is PausableUpgradeable, ReentrancyGuardUpgradeable, IGenericTokenAdapter, ICagable {\n  using SafeToken for address;\n\n  modifier onlyOwner() {\n    IAccessControlConfig _accessControlConfig = IAccessControlConfig(bookKeeper.accessControlConfig());\n    require(_accessControlConfig.hasRole(_accessControlConfig.OWNER_ROLE(), msg.sender), \"!ownerRole\");\n    _;\n  }\n\n  modifier onlyOwnerOrGov() {\n    IAccessControlConfig _accessControlConfig = IAccessControlConfig(IBookKeeper(bookKeeper).accessControlConfig());\n    require(\n      _accessControlConfig.hasRole(_accessControlConfig.OWNER_ROLE(), msg.sender) ||\n        _accessControlConfig.hasRole(_accessControlConfig.GOV_ROLE(), msg.sender),\n      \"!(ownerRole or govRole)\"\n    );\n    _;\n  }\n\n  modifier onlyOwnerOrShowStopper() {\n    IAccessControlConfig _accessControlConfig = IAccessControlConfig(IBookKeeper(bookKeeper).accessControlConfig());\n    require(\n      _accessControlConfig.hasRole(_accessControlConfig.OWNER_ROLE(), msg.sender) ||\n        _accessControlConfig.hasRole(_accessControlConfig.SHOW_STOPPER_ROLE(), msg.sender),\n      \"!(ownerRole or showStopperRole)\"\n    );\n    _;\n  }\n\n  IBookKeeper public bookKeeper; // CDP Engine\n  bytes32 public override collateralPoolId; // Collateral Type\n  address public override collateralToken;\n  uint256 public override decimals;\n  uint256 public live; // Active Flag\n\n  function initialize(\n    address _bookKeeper,\n    bytes32 collateralPoolId_,\n    address collateralToken_\n  ) external initializer {\n    PausableUpgradeable.__Pausable_init();\n    ReentrancyGuardUpgradeable.__ReentrancyGuard_init();\n\n    live = 1;\n    bookKeeper = IBookKeeper(_bookKeeper);\n    collateralPoolId = collateralPoolId_;\n    collateralToken = collateralToken_;\n    decimals = IToken(collateralToken).decimals();\n    require(decimals == 18, \"TokenAdapter/bad-token-decimals\");\n  }\n\n  /// @dev access: OWNER_ROLE, SHOW_STOPPER_ROLE\n  function cage() external override onlyOwnerOrShowStopper {\n    require(live == 1, \"TokenAdapter/not-live\");\n    live = 0;\n    emit LogCage();\n  }\n\n  /// @dev access: OWNER_ROLE, SHOW_STOPPER_ROLE\n  function uncage() external override onlyOwnerOrShowStopper {\n    require(live == 0, \"TokenAdapter/not-caged\");\n    live = 1;\n    emit LogUncage();\n  }\n\n  /// @dev Deposit token into the system from the caller to be used as collateral\n  /// @param usr The source address which is holding the collateral token\n  /// @param wad The amount of collateral to be deposited [wad]\n  function deposit(\n    address usr,\n    uint256 wad,\n    bytes calldata /* data */\n  ) external payable override nonReentrant whenNotPaused {\n    require(live == 1, \"TokenAdapter/not-live\");\n    require(int256(wad) >= 0, \"TokenAdapter/overflow\");\n    bookKeeper.addCollateral(collateralPoolId, usr, int256(wad));\n\n    // Move the actual token\n    address(collateralToken).safeTransferFrom(msg.sender, address(this), wad);\n  }\n\n  /// @dev Withdraw token from the system to the caller\n  /// @param usr The destination address to receive collateral token\n  /// @param wad The amount of collateral to be withdrawn [wad]\n  function withdraw(\n    address usr,\n    uint256 wad,\n    bytes calldata /* data */\n  ) external override nonReentrant whenNotPaused {\n    require(wad < 2**255, \"TokenAdapter/overflow\");\n    bookKeeper.addCollateral(collateralPoolId, msg.sender, -int256(wad));\n\n    // Move the actual token\n    address(collateralToken).safeTransfer(usr, wad);\n  }\n\n  function onAdjustPosition(\n    address src,\n    address dst,\n    int256 collateralValue,\n    int256 debtShare,\n    bytes calldata data\n  ) external override nonReentrant {}\n\n  function onMoveCollateral(\n    address src,\n    address dst,\n    uint256 wad,\n    bytes calldata data\n  ) external override nonReentrant {}\n\n  // --- pause ---\n  /// @dev access: OWNER_ROLE, GOV_ROLE/// @dev access: OWNER_ROLE, GOV_ROLE\n  function pause() external onlyOwnerOrGov {\n    _pause();\n  }\n\n  /// @dev access: OWNER_ROLE, GOV_ROLE\n  function unpause() external onlyOwnerOrGov {\n    _unpause();\n  }\n}\n",
  "sourcePath": "/Users/sangjun.lee/Sangjun/fathom-stablecoin-smart-contracts/contracts/8.17/stablecoin-core/adapters/TokenAdapter.sol",
  "compiler": {
    "name": "solc",
    "version": "0.8.17+commit.8df45f5f.Emscripten.clang"
  },
  "schemaVersion": "3.4.10",
  "updatedAt": "2022-11-24T09:45:49.386Z",
  "devdoc": {
    "kind": "dev",
    "methods": {
      "cage()": {
        "details": "access: OWNER_ROLE, SHOW_STOPPER_ROLE"
      },
      "deposit(address,uint256,bytes)": {
        "details": "Deposit token into the system from the caller to be used as collateral",
        "params": {
          "usr": "The source address which is holding the collateral token",
          "wad": "The amount of collateral to be deposited [wad]"
        }
      },
      "pause()": {
        "details": "access: OWNER_ROLE, GOV_ROLE/// @dev access: OWNER_ROLE, GOV_ROLE"
      },
      "paused()": {
        "details": "Returns true if the contract is paused, and false otherwise."
      },
      "uncage()": {
        "details": "access: OWNER_ROLE, SHOW_STOPPER_ROLE"
      },
      "unpause()": {
        "details": "access: OWNER_ROLE, GOV_ROLE"
      },
      "withdraw(address,uint256,bytes)": {
        "details": "Withdraw token from the system to the caller",
        "params": {
          "usr": "The destination address to receive collateral token",
          "wad": "The amount of collateral to be withdrawn [wad]"
        }
      }
    },
    "version": 1
  },
  "userdoc": {
    "kind": "user",
    "methods": {},
    "version": 1
  }
}