{
  "contractName": "VaultPriceOracle",
  "abi": [
    {
      "anonymous": false,
      "inputs": [
        {
          "indexed": false,
          "internalType": "uint8",
          "name": "version",
          "type": "uint8"
        }
      ],
      "name": "Initialized",
      "type": "event"
    },
    {
      "anonymous": false,
      "inputs": [
        {
          "indexed": true,
          "internalType": "address",
          "name": "_vault",
          "type": "address"
        },
        {
          "indexed": false,
          "internalType": "bool",
          "name": "_isOk",
          "type": "bool"
        }
      ],
      "name": "LogSetVault",
      "type": "event"
    },
    {
      "inputs": [
        {
          "internalType": "address",
          "name": "",
          "type": "address"
        }
      ],
      "name": "vaults",
      "outputs": [
        {
          "internalType": "bool",
          "name": "",
          "type": "bool"
        }
      ],
      "stateMutability": "view",
      "type": "function"
    },
    {
      "inputs": [],
      "name": "initialize",
      "outputs": [],
      "stateMutability": "nonpayable",
      "type": "function"
    },
    {
      "inputs": [
        {
          "internalType": "address",
          "name": "token0",
          "type": "address"
        },
        {
          "internalType": "address",
          "name": "token1",
          "type": "address"
        }
      ],
      "name": "getPrice",
      "outputs": [
        {
          "internalType": "uint256",
          "name": "",
          "type": "uint256"
        },
        {
          "internalType": "uint256",
          "name": "",
          "type": "uint256"
        }
      ],
      "stateMutability": "view",
      "type": "function"
    },
    {
      "inputs": [
        {
          "internalType": "address",
          "name": "_vault",
          "type": "address"
        },
        {
          "internalType": "bool",
          "name": "_isOk",
          "type": "bool"
        }
      ],
      "name": "setVault",
      "outputs": [],
      "stateMutability": "nonpayable",
      "type": "function"
    }
  ],
  "bytecode": "0x608060405234801561001057600080fd5b5061070c806100206000396000f3fe608060405234801561001057600080fd5b506004361061004c5760003560e01c8063627f66c6146100515780638129fc1c14610066578063a622ee7c1461006e578063ac41865a146100a6575b600080fd5b61006461005f3660046105c9565b6100ce565b005b610064610197565b61009161007c366004610607565b60016020526000908152604090205460ff1681565b60405190151581526020015b60405180910390f35b6100b96100b436600461062b565b6102a4565b6040805192835260208301919091520161009d565b801561013857816001600160a01b031663626be5676040518163ffffffff1660e01b8152600401602060405180830381865afa158015610112573d6000803e3d6000fd5b505050506040513d601f19601f820116820180604052508101906101369190610659565b505b6001600160a01b038216600081815260016020908152604091829020805460ff191685151590811790915591519182527f80c08601cf7b9f86ae87a73be5549b4c09557827c3a68bc5c6931205b3c650ab910160405180910390a25050565b600054610100900460ff16158080156101b75750600054600160ff909116105b806101d15750303b1580156101d1575060005460ff166001145b6102385760405162461bcd60e51b815260206004820152602e60248201527f496e697469616c697a61626c653a20636f6e747261637420697320616c72656160448201526d191e481a5b9a5d1a585b1a5e995960921b606482015260840160405180910390fd5b6000805460ff19166001179055801561025b576000805461ff0019166101001790555b80156102a1576000805461ff0019169055604051600181527f7f26b83ff96e1f2b6a682f133852f6798a09c465da95921460cefb38474024989060200160405180910390a15b50565b6001600160a01b038216600090815260016020526040812054819060ff1680156103405750826001600160a01b0316846001600160a01b031663fc0c546a6040518163ffffffff1660e01b8152600401602060405180830381865afa158015610311573d6000803e3d6000fd5b505050506040513d601f19601f820116820180604052508101906103359190610672565b6001600160a01b0316145b1561043757610424846001600160a01b03166318160ddd6040518163ffffffff1660e01b8152600401602060405180830381865afa158015610386573d6000803e3d6000fd5b505050506040513d601f19601f820116820180604052508101906103aa9190610659565b61041e670de0b6b3a7640000876001600160a01b031663626be5676040518163ffffffff1660e01b8152600401602060405180830381865afa1580156103f4573d6000803e3d6000fd5b505050506040513d601f19601f820116820180604052508101906104189190610659565b90610593565b906105a8565b91505067ffffffffffffffff421661058c565b6001600160a01b03831660009081526001602052604090205460ff1680156104d15750836001600160a01b0316836001600160a01b031663fc0c546a6040518163ffffffff1660e01b8152600401602060405180830381865afa1580156104a2573d6000803e3d6000fd5b505050506040513d601f19601f820116820180604052508101906104c69190610672565b6001600160a01b0316145b1561058557610424836001600160a01b031663626be5676040518163ffffffff1660e01b8152600401602060405180830381865afa158015610517573d6000803e3d6000fd5b505050506040513d601f19601f8201168201806040525081019061053b9190610659565b61041e670de0b6b3a7640000866001600160a01b03166318160ddd6040518163ffffffff1660e01b8152600401602060405180830381865afa1580156103f4573d6000803e3d6000fd5b5060009050805b9250929050565b600061059f828461068f565b90505b92915050565b600061059f82846106b4565b6001600160a01b03811681146102a157600080fd5b600080604083850312156105dc57600080fd5b82356105e7816105b4565b9150602083013580151581146105fc57600080fd5b809150509250929050565b60006020828403121561061957600080fd5b8135610624816105b4565b9392505050565b6000806040838503121561063e57600080fd5b8235610649816105b4565b915060208301356105fc816105b4565b60006020828403121561066b57600080fd5b5051919050565b60006020828403121561068457600080fd5b8151610624816105b4565b80820281158282048414176105a257634e487b7160e01b600052601160045260246000fd5b6000826106d157634e487b7160e01b600052601260045260246000fd5b50049056fea264697066735822122039256983311d510f1d0b47e537403301eb49cae6fab8320553d98093dd3724ec64736f6c63430008110033",
  "immutableReferences": {},
  "source": "// SPDX-License-Identifier: AGPL-3.0-or-later\n\npragma solidity 0.8.17;\n\nimport \"@openzeppelin/contracts-upgradeable/proxy/utils/Initializable.sol\";\nimport \"@openzeppelin/contracts-upgradeable/utils/math/SafeMathUpgradeable.sol\";\n\nimport \"../interfaces/IFathomOracle.sol\";\nimport \"../interfaces/IFathomVault.sol\";\n\ncontract VaultPriceOracle is Initializable, IFathomOracle {\n  using SafeMathUpgradeable for uint256;\n  mapping(address => bool) public vaults;\n\n  function initialize() external initializer {}\n\n  event LogSetVault(address indexed _vault, bool _isOk);\n\n  /// @dev Return the wad price of token0/token1, multiplied by 1e18\n  /// NOTE: (if you have 1 token0 how much you can sell it for token1)\n  function getPrice(address token0, address token1) external view override returns (uint256, uint256) {\n    if (vaults[token0] && IFathomVault(token0).token() == token1) {\n      return (IFathomVault(token0).totalToken().mul(1e18).div(IFathomVault(token0).totalSupply()), uint64(block.timestamp));\n    }\n    if (vaults[token1] && IFathomVault(token1).token() == token0) {\n      return (IFathomVault(token1).totalSupply().mul(1e18).div(IFathomVault(token1).totalToken()), uint64(block.timestamp));\n    }\n    return (0, 0);\n  }\n\n  function setVault(address _vault, bool _isOk) external {\n    if (_isOk) {\n      // sanity check\n      IFathomVault(_vault).totalToken();\n    }\n    vaults[_vault] = _isOk;\n\n    emit LogSetVault(_vault, _isOk);\n  }\n}\n",
  "sourcePath": "/Users/sangjun.lee/Sangjun/fathom-stablecoin-smart-contracts/contracts/8.17/price-oracles/VaultPriceOracle.sol",
  "compiler": {
    "name": "solc",
    "version": "0.8.17+commit.8df45f5f.Emscripten.clang"
  },
  "schemaVersion": "3.4.10",
  "updatedAt": "2022-10-06T11:28:50.175Z",
  "devdoc": {
    "kind": "dev",
    "methods": {
      "getPrice(address,address)": {
        "details": "Return the wad price of token0/token1, multiplied by 1e18 NOTE: (if you have 1 token0 how much you can sell it for token1)"
      }
    },
    "version": 1
  },
  "userdoc": {
    "kind": "user",
    "methods": {},
    "version": 1
  }
}